:10D5C10041543A5354520D0A0041543A4F4B0041D1
:10D5D100543A454E440D0A0041543A454E440041E7
:10D5E100543A424155443D25640D0A004F4B2B539B
:10D5F10065740041543A414456543D25640D0A0076
:10D601006164765F74696D653A000D0A0043686173
:10D611006E676564204E616D6520746F3A004154F8
:10D621003A525353493F0D0A00525353493A00416C
:10D63100542B524553540D0A004D7920626C756587
:10D64100746F6F74680000000000000000000000AB
:10D6510000000000000000000000000000000000C9
:10D66100000041543A4E414D453D0000000000008C
:0ED671000000000000000000000000000000AB
:0875E100C11E4111A100C11FF0
:10005E0090100DEBF0A3EAF0A3E9F090100DE0FB89
:10006E00A3E0FAA3E0F9126E41601C201EFDD21E21
:10007E0090100DE0FBA3E475F001126F8FA9F0FA5A
:0D008E00126E41F59B80D4E49011A1F02288
:0300430002DFB821
:10DFB800C0E0C083C082C0D075D008E59A30E105C2
:10DFC800539AFDC21EE59A30E057539AFE9011A16C
:10DFD800E0FF04F074212FF582E43411F583E59B0A
:10DFE800F09011A1E0FF2420F582E43411F583E0DC
:10DFF800B40A2E741F2FF582E43411F583E09011D2
:10E00800A1B40D0AE0241FF582E434118008E0244D
:10E0180020F582E43411F583E4F0D21F9011A1E4D5
:0AE02800F0D0D0D082D083D0E032D7
:10ED4A00900FE4EBF0A3EAF0A3E9F0301F1DC21F15
:10ED5A00900FE4E0FBA3E0FAA3E0F8AC02AD037B7A
:0EED6A00017A1179211273347F01227F002279
:06E11E007B017D057C0081
:10E12400901007ECF0A3EDF0901004EBF0A3EAF0EC
:10E13400A3E9F0C21F801E201F2790100774FFF56B
:10E14400F0126F7945F07002FF22901004E0FBA3F7
:10E15400E0FAA3E0F912005E7F0A7E0012F0A480C8
:10E16400D6C21F90100CE0FF7E0078217C117D0147
:10E17400901009E0FBA3E0FAA3E0F91274D7EF7062
:07E18400037F01227F00224E
:10EDA30090100974FFF0A374D5F0A374CAF0A37490
:10EDB30005F07BFF7AD579C17D147C0012E124EF45
:08EDC30060037F01227F0022A2
:10EDCB0090100974FFF0A374D5F0A374D9F0A37459
:10EDDB0006F07BFF7AD579D07D147C0012E124EF0D
:08EDEB0060037F01227F00227A
:05E45300900FE5EFF061
:10E4580078E67C0F7D017BFF7AD679477E007F0CBA
:10E46800126E1B90101A74FFF0A374D5F0A374E019
:10E47800F0900FE5E0FF90101DE4F0A3EFF07B01B2
:10E488007A0F79E612994690100974FFF0A374D5B3
:10E49800F0A374EDF0A37406F07A0F79E612E11E8A
:08E4A800EF60037F01227F00F9
:01E4B0002249
:08E32E00900FE5EEF0A3EFF003
:10E3360078E77C0F7D017BFF7AD679537E007F10CC
:10E34600126E1B90101A74FFF0A374D5F0A374F428
:10E35600F0900FE5E0FFA3E090101DCFF0A3EFF0E3
:10E366007B017A0F79E712994690100974FFF0A3A2
:10E3760074D6F0A37401F0A37409F07A0F79E7124A
:0AE38600E11EEF60037F01227F001B
:01E39000226A
:0BE03200900FE5EBF0A3EAF0A3E9F08B
:10E03D0078E87C0F7D017BFF7AD679637E007F1CAB
:10E04D00126E1B900FE5E0F9A3E0FAA3E090100724
:10E05D00C9F0A3EAF0A3E9F07B017A0F79E812E1A8
:10E06D00F790100774FFF0A374D6F0A3740BF07B38
:10E07D00017A0F79E812E1F790100974FFF0A3749B
:10E08D00D6F0A3740EF0A37410F07B017A0F79E82B
:0BE09D0012E120EF60037F01227F00F2
:01E0A8002255
:10EE430090100974FFF0A374D6F0A3742AF0A3748E
:10EE530005F07BFF7AD6791FFD7C0012E124EF6079
:07EE6300037F01227F002262
:09F3B0007BFF7AD6793002005E81
:0AF37400EFB40103C29622D29622E4
:10D35300E4900FE4F0C2967F32FE12F0A47B017AD0
:10D3630000790812EB5B12EDA3900FE4E0FD900F40
:10D37300ED7401F0A37400F0A37408F0A37410F02B
:10D38300E4A3F0A3F07B017A117921FF12A899900D
:10D393000FE4E02FF012EE43EF900FE4605CE0FD4A
:10D3A300900FED7401F0A37400F0A37408F0A3745C
:10D3B30010F0E4A3F0A3F07B017A117921FF12A806
:10D3C30099900FE4E02FF012EDCB900FE4E0FD9085
:10D3D3000FED7401F0A37400F0A37408F0A37410AC
:10D3E300F0E4A3F0A304F0FB7A117921E4FF12A87F
:10D3F30099900FE4E02FF07F0122E0FD900FED7490
:10D4030001F0A37400F0A37408F0A37410F0E4A374
:10D41300F0A304F0FB7A117921E4FF12A899900F8D
:06D42300E4E02FF07F00A1
:01D4290022E0
:10CA1C00E4900FE4F0D296C2967F64FE12F0A4125A
:10CA2C00EDA3EF602F900FE4E0FD900FED7401F09B
:10CA3C00A37400F0A37408F0A37410F0E4A3F0A3A3
:10CA4C0004F0FB7A117921E4FF12A899900FE4E02D
:10CA5C002FF080037F00227F0112E453900FE4E05B
:10CA6C00FD900FED7401F0A37400F0A37408F0A313
:10CA7C007410F0E4A3F0A304F0FB7A117921E4FF25
:10CA8C0012A899900FE4E02FF07BFF7AD6793A1236
:10CA9C00E032900FE4E0FD900FED7401F0A3740010
:10CAAC00F0A37408F0A37410F0E4A3F0A304F0FB5B
:10CABC007A117921E4FF12A899900FE4E02FF07F0E
:10CACC00B87E0B12E32E900FE4E0FD900FED740195
:10CADC00F0A37400F0A37408F0A37410F0E4A3F0B6
:10CAEC00A304F0FB7A117921E4FF12A899900FE4CA
:10CAFC00E02FF012EDCBEF602F900FE4E0FD900FE4
:10CB0C00ED7401F0A37400F0A37408F0A37410F09A
:10CB1C00E4A3F0A304F0FB7A117921E4FF12A899A5
:0FCB2C00900FE4E02FF080037F0022D2967F016C
:01CB3B0022D7
:10F0BE00D3EF9400EE9400400F7D187C55DCFEDDFE
:08F0CE00FCEF1F70EB1E80E84F
:01F0D6002217
:0AF08A0012F0947F0212F0947F1040
:10F09400ED6004D2938002C293C2C38F80D2C32294
:10F01800AE07ED24B0FFE4FD12F094EE54F0C454B2
:0EF028000F4410FF12F094EE540FFF02F0940C
:10F1FF00E4FD7F8D12F0947F1412F0947FAF02F034
:01F20F00946A
:0CF33A00E4FD7F8D12F08F7FAE02F09496
:0EF2BF00AE07E4FD7F8112F094AF0602F094DA
:10F21000EF6006E4FD7FA08004E4FD7FA112F0947E
:01F2200022CB
:10F22100EF6006E4FD7FC08004E4FD7FC812F09426
:01F2310022BA
:10F23200EF6006E4FD7FA78004E4FD7FA612F09450
:01F2420022A9
:10EFF900E4FEEE24B0FFE4FD12F08AE4FC7D01E4B6
:0EF00900FF12F0940CECB480F40EEEB408E4A8
:01F0170022D6
:10E89500E4F537E53724B0FFE4FD12F08FE4FF120D
:10E8A500F094E53775F080A485F039F53AE4F5384C
:10E8B5007E00E53A2538FFEE35398F82F583126EF5
:10E8C5005AFF7D0112F0940538E538C3948040E085
:09E8D5000537E537C3940840BA89
:01E8DE002217
:10DA8C00D2927F147E0012F0BEC2927F0A7E0012E8
:10DA9C00F0BED292D2C4E4FD7FAE12F08A7F401267
:10DAAC00F0947F8112F0947F7F12F0947FC812F073
:10DABC00947FA112F0947FA812F0947F3F12F094FF
:10DACC007FD312F094E4FF12F0947FD512F0947F80
:10DADC008012F0947FD912F0947FF112F0947FDAD7
:10DAEC0012F0947F1212F0947FDB12F0947F4012AC
:10DAFC00F0947F2012F0947F0212F0947F8D12F03C
:10DB0C00947F1412F0947FA412F0947FA612F094D8
:10DB1C007FAF12F09412F09412EFF9E4FDFF02F0D3
:01DB2C0018E0
:1075E9004212A900004212AC00004212AE00404211
:1075F90012B090884212B300004212B50000421244
:10760900A300004112A2004112B8004112B2084180
:0776190012B7084112A100A5
:06E7AE00FFEEF0A3EFF006
:10E7B4009012A9E0FCA3E0FDEC900FE8F0A3EDF0CB
:10E7C4009012ACE0FCA3E0FDEC900FEAF0A3EDF0B6
:10E7D4009012AEE0FCA3E0FDEC900FECF0A3EDF0A2
:10E7E4009012B0E0FCA3E0FDEC900FEEF0A3EDF08E
:06E7F40043BA1053BAEF16
:01E7FA0022FC
:10E5BE0043BA1053BAEF900FE8E0FF9012B3E4F0B5
:10E5CE00A3EFF0E07F00FE9012B3F0A3EFF0900FF8
:10E5DE00E9E0FDEDFF9012B3EEF0A3EFF0900FEA3D
:10E5EE00E0FF9012B5E4F0A3EFF0E07F00FE901292
:10E5FE00B5F0A3EFF0900FEBE0FDEDFF9012B5EE4E
:04E60E00F0A3EFF096
:01E6120022E5
:10E262009012AAE04402F012E7B47F0A7E0012F094
:10E27200A49012A974D0F0A3E4F09012A2E075F079
:10E2820004A4FDACF0A3E0FEA3E07806C333CE33D2
:10E29200CED8F9FFEE4CFEEF4DFF9012B8E0FDEF45
:10E2A2004DFF9012ACEEF0A3EFF0E4A3F0A3F090D8
:10E2B20012B2E04480FE9012B7E0FD74804D9012DD
:07E2C200B012E7AE7F01225C
:10EDF300AD07AC06D3ED940FEC940040047C007D8A
:10EE03000F9012B1E054F0F0ED540FFF9012B0E008
:08EE1300F0A3E04FF002E7B4A8
:02D93C00AC0736
:10D93E009012A1E0FE70309012ADE054EFF0EF9037
:10D94E0012A9B40109E04402F0A3E0F08004E0540F
:10D95E00FDF09012A9E04401F0A3E0F012E7B490BC
:10D96E0012A1E004F0806AEE6401706512E5BE90CB
:10D97E0012B3E030E65B9012A9E054FEF09012B3C1
:10D98E00E05403FEA3E0FF9012A3EEF0A3EFF0FD30
:10D99E00AC06E4126A787BCD7ACC79CC783D1268ED
:10D9AE0043E4FBFA79AE78421267529012A51271D7
:10D9BE00D99012B5E0C313543F9012ABF0E490121D
:10D9CE00A1F09012A5E0FCA3E0FDA3E0FEA3E0FF12
:06D9DE0022E4FFFEFDFC47
:01D9E4002220
:10D73200900FE41271D99012A9E054FEF09012AD4C
:10D74200E04410F0E4FFFE7D207C41900FE4E0F81D
:10D75200A3E0F9A3E0FAA3E0FB1268437B007A801E
:10D76200795978C4126752126AB19012A3EEF0A3EB
:10D77200EFF07E009012ADE0543FFF9012ACEEF05D
:10D78200FCA3EFF0FD9012A3E0FEA3E07806C33302
:10D79200CE33CED8F9FFEC4EFEED4F9012AC12E72D
:10D7A200AE800F9012B3E0A320E60C7F037E00123E
:10D7B200F0A412E5BE80EC9012ADE054EFF0900FB1
:10D7C200E4E0FCA3E0FDA3E0FEA3E0FF9012A512BB
:0FD7D20071D99012B5E0C313543F9012ABF022FF
:10E9B70012E5BE9012B3E05403FEA3E0FF9012A34A
:10E9C700EEF0A3EFF0FDAC06E4126A787BCD7ACCCB
:10E9D70079CC783D126843E4FBFA79AE7842126746
:10E9E700529012A51271D99012A5E0FCA3E0FDA3E5
:06E9F700E0FEA3E0FF2298
:10EC400012E5BE9012B5E0C313543F9012ABF090A2
:10EC500012A3E0FCA3E0FDE4126A787BCD7ACC79C4
:10EC6000CC783D126843E4FBFA79AE7842126752E1
:09EC7000126AB19012ABEFF02220
:0AF37E009012A9E054BFF002E7B4BA
:0AF388009012AAE04401F002E7B47D
:0AF392009012AAE054FEF002E7B466
:08F1390075F00A84E5F04EFDBB
:0DF14100AE05AD07AF06AB077FA202EF726F
:07F3F800AD077FA212F1ED49
:01F3FF0022EB
:04EBCC007B017D80CC
:0DEBD000900FEDEDF0A3EBF0900FECEFF0E7
:10EBDD0012F3F8AE07900FEEE0FFB40108900FEDC1
:10EBED00E04EFE800AEF7007900FEDE0F45EFE90B0
:09EBFD000FECE0FFAD0602F1414E
:0BCF8E00900FE4EBF0A3EAF0A3E9F041
:10CF990090100D7401F0A3740FF0A374E7F07B07F0
:10CFA9007D027FA212E75F900FE7E0547FF0E0FF78
:10CFB900C4540F75F00AA4FEEF540F2EFF900FE42E
:10CFC900E0FBA3E0FAA3E0F9EF126EBA900FE8E0F4
:10CFD900547FF0E0FFC4540F75F00AA4FEEF540F1C
:10CFE9002EFF900FE4E0FBA3E0FAA3E0F990000123
:10CFF900EF126ECC900FE9E0543FF0E0FFC4540FFC
:10D0090075F00AA4FEEF540F2E900002126ECC9018
:10D019000FEAE0543FF0E0FFC4540F75F00AA4FE94
:10D02900EF540F2E900004126ECC900FEBE05407D2
:10D03900F070037407F0900FEBE0FF900FE4E0FB52
:10D04900A3E0FAA3E0F9900003EF126ECC900FEC85
:10D05900E0FF30E0089000087401126E87EF541F5A
:10D06900900FECF0E0FFC4540F75F00AA4FEEF54E2
:10D079000F2E900005126ECC900FEDE024D0FFE446
:0AD0890034079000068FF0027027B4
:10E7FB00900FE4EFF0A3EDF0EB75F00A84C454F046
:10E80B00FFEB75F00A84E5F04FFD7F0212F14190AA
:10E81B000FE5E0FF75F00A84C454F0FEEF7F03129E
:10E82B00F139900FE4E0FF75F00A84C454F0FEEF69
:0DE83B0075F00A84E5F04EFD7F0402F14106
:10E2C900900FE4EEF0A3EFF0A3EDF0A3EBF0900FC5
:10E2D900E5E02430F0900FE4E034F8F0A3E0FD7FAE
:10E2E9000812F141900FE6E0FF75F00A84C454F07A
:10E2F900FEEF7F0712F139900FE7E0FF75F00A840E
:10E30900C454F0FEEF75F00A84E5F04EFD7F051266
:10E31900F141900FE8E0B40702E4F0900FE8E0FD66
:05E329007F0602F14136
:02D4FF00AE0578
:10D50100E4900FE9F0A3F0A3F0EF75F00A84C4549E
:10D51100F04480FDEF75F00A84E5F04DFDEE75F005
:10D521000A84C454F04480FFEE75F00A84E5F04F9C
:10D53100900FE9F0EB4480A3F0900FE7E0FF75F066
:10D541000A84C454F04480FEEF75F00A84E5F04E7D
:10D55100900FEBF0900FE8E0FF64026004EFB4017C
:10D5610009ED547FFD900FE98026900FE8E0FEB4AD
:10D57100030CED547FFDA3E0547FF0A38012EEB4C1
:10D581000412ED547FFD900FE9E0547FF0900FEB12
:10D59100E0547FF07F0A12F141900FE9E0FD7F092D
:10D5A10012F141900FEAE0FD7F0C12F141900FEB77
:10D5B100E0FD7F0B12F1417B017D027F0102EBD087
:09F3B900E4FB7D087F0102EBD0AA
:10EF05007F0A12EBCC7F0912EBCC7B017D807F0C55
:10EF150012EBD07B017D807F0B12EBD0E4FB7D08EB
:05EF25007F0102EBD0AA
:10ECB200900FE4EFF0A3EDF0E4FB7D807F0E12EB0A
:10ECC200D0900FE4E0FD7F0E12F141900FE5E0FDE0
:10ECD2007F0F12F1417B017D017F0112EBD07B019D
:07ECE2007D807F0E02EBD0E4
:09F3C200E4FB7D047F0102EBD0A5
:10F1C900E4FB7D017F0112EBD0E4FB7D807F0E0221
:02F1D900EBD079
:09F39C007F0112F3F8EF540CFF9D
:01F3A5002245
:10F24300AE05EEC433333354804FFD7F0D02F141DD
:10F1A20012F3B912F3C27D017F0312ECB2E4FD7FC8
:04F1B2000102F24321
:06F43700000102040810B0
:1076200041129C004112700541128B0541127C05EC
:0C7630004112900241126B0441129100C3
:10EE6A0090126BE025E025E0FF901290E0FEC4339B
:0AEE7A0054E04FFFA3E04FFD7FF5C9
:0DEE8400AE05AD07AF06AB077FEC02EF72E5
:07F40000AD077FEC12F1EDF6
:01F4070022E2
:0EF2CD007FD012F400BF60037F01227F002279
:10D0930078CF7C127D017BFF7AF479377E007F069F
:10D0A300126E1B90128BE0FFD39405501174CF2F97
:10D0B300F582E43412F583E09012CCF080069012EE
:10D0C300CC7410F090127CE0FFD39405501174CF10
:10D0D3002FF582E43412F583E09012CDF0800690B0
:10D0E30012CD7410F0901270E0FFD39405501174B8
:10D0F300CF2FF582E43412F583E09012CEF0800650
:10D103009012CE7410F09012CDE0FCE4126A7D7B95
:10D11300337A33791378401268437B337A33791344
:10D12300783F126752C004C005C006C0079012CCF6
:10D13300E0FCE4126A7D7B337A337913784012681A
:10D1430043E4FBFA79A0783F126752D003D002D0B0
:10D1530001D000126752C004C005C006C007901278
:10D16300CEE0FCE4126A7D7B337A33791378401284
:10D1730068437B337A337913783F126752D003D0F5
:0DD1830002D001D000126752126AB17E0086
:01D19000227C
:10BFAB0090100D7401F0A3740FF0A374E9F07B1AD9
:10BFBB007D887FEC12E75F90100D7401F0A3741075
:10BFCB00F0A37403F07B077DE17FEC12E75F900F2A
:10BFDB00EAE0FE900FE9E0FDEDFF901281EEF0A399
:10BFEB00EFF0900FECE0FE900FEBE0FDEDFF901209
:10BFFB0085EEF0A3EFF0900FEEE0FE900FEDE0FD7D
:10C00B00EDFF901289EEF0A3EFF0900FF0E0FE90B1
:10C01B000FEFE0FDEDFF901276EEF0A3EFF0900F37
:10C02B00F2E0FE900FF1E0FDEDFF901278EEF0A341
:10C03B00EFF0900FF4E0FE900FF3E0FDEDFF9012A8
:10C04B007AEEF0A3EFF0900FF6E0FE900FF5E0FD27
:10C05B00EDFF90127DEEF0A3EFF0900FF8E0FE9065
:10C06B000FF7E0FDEDFF90127FEEF0A3EFF0900FD6
:10C07B00FAE0FE900FF9E0FDEDFF901283EEF0A3D6
:10C08B00EFF0900FFCE0FE900FFBE0FDEDFF901248
:10C09B0087EEF0A3EFF0900FFEE0FE900FFDE0FDBA
:10C0AB00EDFF90128CEEF0A3EFF0901000E0FE90FD
:10C0BB000FFFE0FDEDFF90128EEEF0A3EFF090106E
:10C0CB0002E090126CF0901004E0FE901003E0FD83
:10C0DB00EDFF90126DEEF0A3EFF0901005E09012D3
:10C0EB006FF0901006E075F010A4FFA3E0FDEF4D8C
:10C0FB00FF901271E5F0F0A3EFF0901008E075F0EF
:10C10B0010A4FF901007E0C4540FFDEF4DFF9012E9
:0FC11B0073E5F0F0A3EFF0901009E0901275F0CB
:01C12A0022F2
:10D27B0090100D7401F0A3740FF0A374E7F07B080A
:10D28B007DF77FEC12E75F900FE8E0FFE4FCFDFE1B
:10D29B0078041270DBC004C005C006C007900FE70E
:10D2AB00E0FFE4FCFDFE780C1270DBD003D002D063
:10D2BB0001D000EF4BFFEE4AFEED49FDEC48FCA818
:10D2CB0004A905AA06AB07900FE9E0C4540FFFEBC6
:10D2DB004FFFEAFEE9FDE8FC9012981271D9900F0E
:10D2EB00EBE0FFE4FCFDFE78041270DBC004C0052C
:10D2FB00C006C007900FEAE0FFE4FCFDFE780C12BD
:10D30B0070DBD003D002D001D000EF4BFFEE4AFE12
:10D31B00ED49FDEC48FCA804A905AA06AB07900F44
:10D32B00ECE0C4540FFFEB4FFFEAFEE9FDE8FC9085
:10D33B0012921271D9900FEDE0FEA3E0FDEDFF907C
:07D34B001296EEF0A3EFF0D3
:01D3520022B8
:10B93B00900FF31271E5C2200000900FF71271E522
:10B94B0042AA0000901292E0FCA3E0FDA3E0FEA34C
:10B95B00E0FFE4126A73E4FBFA7980784612694CD3
:10B96B00C004C005C006C007901281E0FCA3E0FD37
:10B97B00E4126A78E4FBFA7980784412694CA804E3
:10B98B00A905AA06AB07D007D006D005D0041267CD
:10B99B004E900FE71271D9901285E0FCA3E0FDECFD
:10B9AB00126A78900FE7E0F8A3E0F9A3E0FAA3E0BE
:10B9BB00FB126843900FE71271D9901292E0FCA32F
:10B9CB00E0FDA3E0FEA3E0FFE4126A73E4FBFAF9E7
:10B9DB00784812694CC004C005C006C0079012819C
:10B9EB00E0FCA3E0FDE4126A78E4FBFAF978461276
:10B9FB00694CA804A905AA06AB07D007D006D00549
:10BA0B00D00412674E900FEB1271D9901289E0FCA3
:10BA1B00A3E0FDEC126A78C004C005C006C0079015
:10BA2B000FEBE0FCA3E0FDA3E0FEA3E0FFA804A95D
:10BA3B0005AA06FB126843D003D002D001D0001236
:10BA4B006843900FEB1271D9900FEBE0FCA3E0FD74
:10BA5B00A3E0FEA3E0FF900FE7E0F8A3E0F9A3E07B
:10BA6B00FAA3E0FB126752126AB190129D1271D9C0
:10BA7B00900FEBE0FCA3E0FDA3E0FEA3E0FF900F33
:10BA8B00E7E0F8A3E0F9A3E0FAA3E0FB126752E4C6
:10BA9B00FBFA79A0784512694C900FEF1271D9908F
:10BAAB000FF3E0FCA3E0FDA3E0FEA3E0FF900FEF9C
:10BABB00E0F8A3E0F9A3E0FAA3E0FB1269E9500573
:10BACB00900FF38026900FF7E0FCA3E0FDA3E0FEC0
:10BADB00A3E0FF900FEFE0F8A3E0F9A3E0FAA3E0F7
:10BAEB00FB1269E960164014900FF7E0FCA3E0FD30
:10BAFB00A3E0FEA3E0FF900FEF1271D9900FEFE0E0
:0ABB0B00FCA3E0FDA3E0FEA3E0FFB1
:01BB1500220D
:10A16100900FF71271E546EA6000900FFB1271E55E
:10A1710047D6D80090129DE0FCA3E0FDA3E0FEA32A
:10A18100E0FFEC126A73E4FBFAF9784012694CE4DF
:10A19100FBFA797A78C7126752900FE71271D9905A
:10A1A1001283E0FCA3E0FDEC126A78C004C005C094
:10A1B10006C007900FE7E0FCA3E0FDA3E0FEA3E0EB
:10A1C100FFA804A905AA06FB126843D003D002D058
:10A1D10001D000126843E4FBFAF9784712694C9008
:10A1E1000FEB1271D9900FEBE0F8A3E0F9A3E0FABD
:10A1F100A3E0FBC000C001C002C00390127FE0FCDD
:10A20100A3E0FDEC126A78900FE7E0F8A3E0F9A370
:10A21100E0FAA3E0FB126843E4FBFAF97840126824
:10A2210043D003D002D001D000126752900FEB123D
:10A2310071D990127DE0FCA3E0FDEC126A78E4FB99
:10A24100FA79807847126843C004C005C006C00788
:10A25100E4FBFA79807840900FEBE0FCA3E0FDA3EA
:10A26100E0FEA3E0FF12694CD003D002D001D00080
:10A27100126752900FEB1271D990127AE0FCA3E0B1
:10A28100FDEC126A78900FE7E0F8A3E0F9A3E0FA99
:10A29100A3E0FB126843900FE7E0F8A3E0F9A3E025
:10A2A100FAA3E0FB126843E4FBFAF9784912694C1E
:10A2B100900FEF1271D9901278E0FCA3E0FDEC123F
:10A2C1006A78900FE7E0F8A3E0F9A3E0FAA3E0FBD6
:10A2D100126843900FEFE0F8A3E0F9A3E0FAA3E0DE
:10A2E100FB126752E4FBFAF9784912694C900FE7C7
:10A2F1001271D9E4FBFAF97847900FE7E0FCA3E08B
:10A30100FDA3E0FEA3E0FF12694CE4FBFA7980783B
:10A311003F126752C004C005C006C007901276E024
:10A32100FCA3E0FDE4126A78D003D002D001D00092
:10A33100126843900FE71271D9E4FFFEFDFC900F04
:10A34100E7E0F8A3E0F9A3E0FAA3E0FB1269E96012
:10A3510002500302A4F7901298E0FCA3E0FDA3E0F1
:10A36100FEA3E0FFE4126A73A804A905AA06AB07DD
:10A37100E4FFFE7D807C4912674E900FF31271D984
:10A38100E4FBFA79807845900FEBE0FCA3E0FDA3B4
:10A39100E0FEA3E0FF12694CA804A905AA06AB07D9
:10A3A100900FF3E0FCA3E0FDA3E0FEA3E0FF126742
:10A3B1004E7B007A5079C37845126843900FE7E0ED
:10A3C100F8A3E0F9A3E0FAA3E0FB12694C900FF3C4
:10A3D1001271D990128EE0FCA3E0FDEC126A789024
:10A3E1000FF3E0F8A3E0F9A3E0FAA3E0FB1268435E
:10A3F100900FF3E0F8A3E0F9A3E0FAA3E0FB126801
:10A4010043E4FBFAF9784F12694C900FE71271D9C6
:10A4110090128CE0FCA3E0FDEC126A78900FF3E05F
:10A42100F8A3E0F9A3E0FAA3E0FB126843E4FBFA26
:10A43100F9784712694C900FEB1271D9900FF3E044
:10A44100F8A3E0F9A3E0FAA3E0FBC000C001C00259
:10A45100C003901287E0FCA3E0FDEC126A78C0040F
:10A46100C005C006C007900FEBE0FCA3E0FDA3E030
:10A47100FEA3E0FF900FE7E0F8A3E0F9A3E0FAA361
:10A48100E0FB126752D003D002D001D00012675214
:10A49100E4FBFA7980784112694CD003D002D001F3
:10A4A100D000126752900FF31271D9900FF7E0FCB0
:10A4B100A3E0FDA3E0FEA3E0FF900FF3E0F8A3E02B
:10A4C100F9A3E0FAA3E0FB1269E950028028900F9A
:10A4D100FBE0FCA3E0FDA3E0FEA3E0FF900FF3E0AF
:10A4E100F8A3E0F9A3E0FAA3E0FB1269E9601B40DD
:10A4F10019900FFB8003900FF7E0FCA3E0FDA3E0B0
:10A50100FEA3E0FF900FF31271D9900FF3E0FCA3CB
:08A51100E0FDA3E0FEA3E0FF62
:01A51900221F
:10B0B900900FEB1271E500000000900FEF1271E59F
:10B0C90042C8000090129DE0FCA3E0FDA3E0FEA3AE
:10B0D900E0FFEC126A73E4FBFA799678C7126752BB
:10B0E900900FF31271D9901273E0FCA3E0FDEC12FA
:10B0F9006A78E4FBFA7980784612694C900FF3E09C
:10B10900F8A3E0F9A3E0FAA3E0FB126843C004C086
:10B1190005C006C007901271E0FCA3E0FDEC126ABD
:10B1290078E4FBFA79807842126843D003D002D0E0
:10B1390001D000126752900FF71271D9901296E060
:10B14900FCA3E0FDE4126A78900FF7E0F8A3E0F9B8
:10B15900A3E0FAA3E0FB12674E900FFB1271D9909E
:10B16900126DE0FCA3E0FDEC126A78E4FBFA798049
:10B17900784712694C900FFF1271D990126FE0FC59
:10B18900E4126A7DE4FBFA7980784C12694C900FDD
:10B19900F3E0F8A3E0F9A3E0FAA3E0FB126843E4C3
:10B1A900FBFA7980783F1267529010031271D99097
:10B1B9001275E0FC126A7DE4FBFA7980784C126919
:10B1C9004C900FF3E0F8A3E0F9A3E0FAA3E0FB1237
:10B1D9006843901003E0F8A3E0F9A3E0FAA3E0FBC9
:10B1E900126843E4FBFA7980783F1267529010079E
:10B1F9001271D9901007E0FCA3E0FDA3E0FEA3E0E3
:10B20900FF901003E0F8A3E0F9A3E0FAA3E0FB1232
:10B219006843C004C005C006C007900FFFE0FCA347
:10B22900E0FDA3E0FEA3E0FF900FFBE0F8A3E0F947
:10B23900A3E0FAA3E0FB126843D003D002D001D007
:10B24900001268439010071271D990126CE0FCE467
:10B25900126A7D901007E0F8A3E0F9A3E0FAA3E0F1
:10B26900FB126843E4FBFAF9784912694CA804A96E
:10B2790005AA06AB07E4FFFE7D807C3F12674E906E
:10B289001007E0F8A3E0F9A3E0FAA3E0FB12684392
:10B29900900FE71271D9900FEFE0FCA3E0FDA3E056
:10B2A900FEA3E0FF900FE7E0F8A3E0F9A3E0FAA31B
:10B2B900E0FB1269E960074005900FEF8024900FC9
:10B2C900EBE0FCA3E0FDA3E0FEA3E0FF900FE7E0C5
:10B2D900F8A3E0F9A3E0FAA3E0FB1269E95014909E
:10B2E9000FEBE0FCA3E0FDA3E0FEA3E0FF900FE776
:10B2F9001271D9900FE7E0FCA3E0FDA3E0FEA3E003
:01B30900FF44
:01B30A002220
:10E92900900FE4EBF0A3EAF0A3E9F012D27B12B95D
:10E939003B900FE4E0FBA3E0FAA3E0F912713E1269
:10E94900A161900FE4E0FBA3E0FAA3E0F9900004D1
:10E9590012715812B0B9900FE4E0FBA3E0FAA3E0FA
:07E96900F99000080271584B
:0EF2DB007DB67FE012EE847F057E0002F0A477
:10E56600900FE874C8F07F057E0012F0A412F2CD79
:10E57600EF70107F01FE12F0A4900FE8E014F07027
:10E58600ECFF2212F2DB12BFAB12EE6A901270E0C1
:10E59600FD7FF212EE8490127CE025E025E0FF90EC
:10E5A600128BE0FEC43354E04FFF90129CE04FFD07
:07E5B6007FF412EE847F01E7
:01E5BD00223B
:10F0360090129CEFF090127CE025E025E0FE901205
:0EF046008BE0C43354E04E4FFD7FF402EE84A5
:10EF2A009012D9EBF0A3EAF0A3E9F07F0112F036D0
:10EF3A0012D09312F0A49012D9E0FBA3E0FAA3E056
:04EF4A00F902E929B6
:10F14E00EFD3940740027F07901290EFF012EE6A11
:05F15E007F0302F03602
:10EFD900746865206D6172697820636F756C64204F
:10EFE9006E6F7420626520736F6C7665640D0A001C
:10763C00581047000000000000000000000000008F
:10764C00000000000000000000000042105F00007D
:10E4B100FF90106175F01CED127216EC75F01CA442
:10E4C1002583F583E5822FF582E5833EF583E0FC24
:09E4D100A3E0FDA3E0FEA3E0FFBF
:10E4DA009010231271D9E4FFFEFDFC901023E0F89E
:10E4EA00A3E0F9A3E0FAA3E0FB1269E9901023E0A4
:10E4FA00FCA3E0FDA3E0FEA3E0FF5005126A6280E0
:02E50A000022ED
:10E9FD00E4900FE4F0E4900FE5F0900FE5E0FFC335
:10EA0D0094075027900FE4E075F01CA42461F58263
:10EA1D00E43410F58375F004EF1272161271E500EF
:10EA2D00000000900FE5E004F080CF900FE4E004CB
:05EA3D00F0E0B406C08A
:01EA420022B1
:06C12B00900FE41271D92F
:10C13100901060E004F0700690105FE004F0900F42
:10C14100E8E0FCA3E0FDA3E0FEA3E0FF900FE8E040
:10C15100F8A3E0F9A3E0FAA3E0FB126843900FF023
:10C161001271D9900FECE0FCA3E0FDA3E0FEA3E087
:10C17100FFA804A905AA06FB126843900FF41271E7
:10C18100D9900FE4E0FCA3E0FDA3E0FEA3E0FF9063
:10C191000FF81271D9900FE8E0FCA3E0FDA3E0FED7
:10C1A100A3E0FF900FFC1271D9900FECE0FCA3E02B
:10C1B100FDA3E0FEA3E0FF9010001271D9901004DE
:10C1C1001271E53F800000900FE4E0FCA3E0FDA3C5
:10C1D100E0FEA3E0FF126A62900FE4E0F8A3E0F949
:10C1E100A3E0FAA3E0FB1268439010081271D9E4AE
:10C1F10090100CF0E490100DF090100CE075F01C14
:10C20100A42461F582E43410F583C083C0829010C8
:10C211000DE0D082D08375F004127216C083C08203
:10C22100E0F8A3E0F9A3E0FAA3E0FBC000C001C07D
:10C2310002C00390100DE025E025E024F0F582E432
:10C24100340FF583E0FCA3E0FDA3E0FEA3E0FF9043
:10C25100100CE025E025E024F0F582E4340FF583AD
:10C26100E0F8A3E0F9A3E0FAA3E0FB126843D003EE
:10C27100D002D001D000126752D082D0831271D97E
:10C2810090100DE004F0E06407600302C1FA901021
:0CC291000CE004F0E06406600302C1F55C
:01C29D00227E
:10DEBB00E4901017F0E4901018F0901017E075F044
:10DECB001CA42461F582E43410F583C083C08290D6
:10DEDB001018E0D082D08375F004127216C083C084
:10DEEB0082E0FCA3E0FDA3E0FEA3E0FFC004C005BD
:10DEFB00C006C00790105FE0FCA3E0FDEC126A784F
:10DF0B00A804A905AA06AB07D007D006D005D004F4
:10DF1B0012694CD082D0831271D9901018E004F0A2
:0FDF2B00E0B40796901017E004F0E064067086EB
:01DF3A0022C4
:0ED19100901023EEF0A3EFF0A3ECF0A3EDF06E
:10D19F00A31271E500000000E490102BF090102313
:10D1AF00A3E075F01CA42461F582E43410F583C06C
:10D1BF0083C08290102BE0D082D08375F00412725E
:10D1CF0016E0FCA3E0FDA3E0FEA3E0FF9010271202
:10D1DF0071D9901025A3E075F01CA42461F582E4A9
:10D1EF003410F583C083C08290102BE0D082D0839F
:10D1FF0075F004127216E0FCA3E0FDA3E0FEA3E0BD
:10D20F00FF901023A3E075F01CA42461F582E43491
:10D21F0010F583C083C08290102BE0D082D083752D
:10D22F00F0041272161271D9901027E0FCA3E0FDE2
:10D23F00A3E0FEA3E0FF901025A3E075F01CA4244B
:10D24F0061F582E43410F583C083C08290102BE027
:10D25F00D082D08375F0041272161271D990102BF0
:0BD26F00E004F0E06407600302D1ACB3
:01D27A002291
:06E3910090101C1271D96E
:10E39700E4901022F0901020A3E075F01CA42461F3
:10E3A700F582E43410F583C083C082901022E0D058
:10E3B70082D08375F004127216C083C082E0FCA37A
:10E3C700E0FDA3E0FEA3E0FF90101CE0F8A3E0F956
:10E3D700A3E0FAA3E0FB126843D082D0831271D97D
:0AE3E700901022E004F0E0B407AB50
:01E3F1002209
:06D9E50090101D1271D923
:10D9EB00E4901025F0901023A3E075F01CA42461A3
:10D9FB00F582E43410F583C083C082901025E0D00B
:10DA0B0082D08375F004127216C083C082E0F8A333
:10DA1B00E0F9A3E0FAA3E0FBC000C001C002C00321
:10DA2B00901021A3E075F01CA42461F582E434105E
:10DA3B00F583C083C082901025E0D082D08375F02F
:10DA4B0004127216E0FCA3E0FDA3E0FEA3E0FF903E
:10DA5B00101DE0F8A3E0F9A3E0FAA3E0FB12684382
:10DA6B00D003D002D001D000126752D082D08312E3
:10DA7B0071D9901025E004F0E06407600302D9F03F
:01DA8B002278
:08DC640090101DEEF0A3EFF09B
:10DC6C00E4A3F0A3F0A3F0A3F0EF2401FFE43E90B3
:10DC7C00101FF0A3EFF090101FE0FCA3E0FDC39485
:10DC8C0006EC64809480506890101DE0FEA3E07850
:10DC9C0002C333CE33CED8F912E4B1C004C005C0F0
:10DCAC0006C00790101DE0FCA3E0FDAE047802C393
:10DCBC0033CE33CED8F912E4B1A804A905AA06AB29
:10DCCC0007D007D006D005D0041269E95011901086
:10DCDC001DE0FEA3E0FFA3E0FCA3E0FD12D19190B8
:10DCEC001020E004F0708F90101FE004F002DC8232
:01DCFC002205
:10CE85009010171271E500000000E490101BF0905F
:10CE9500101BE0FFC39406400302CF8B7E0012DC1B
:10CEA5006490101BE0FF75F01CA42461F582E43446
:10CEB50010F58375F004EF127216E0FCA3E0FDA3F4
:10CEC500E0FEA3E0FFE4FBFAF9F81269E970037FDD
:10CED500012290101BE004A3F090101CE0FFC39406
:10CEE50006400302CF82EF75F01CA42461F582E4AD
:10CEF5003410F583C083C08290101BE0D082D083AC
:10CF050075F004127216E0FCA3E0FDA3E0FEA3E0B9
:10CF1500FF126A6290101BE075F01CA42461F58273
:10CF2500E43410F583C083C08290101BE0D082D01A
:10CF35008375F004127216E0F8A3E0F9A3E0FAA3F2
:10CF4500E0FB12694C9010171271D9901017E0FC94
:10CF5500A3E0FDA3E0FEA3E0FFA3E0FB901021E426
:10CF6500F0A3EBF090101CE0FB901023E4F0A3EB92
:10CF7500F012D9E590101CE004F002CEDE90101BF3
:08CF8500E004F002CE947F00ED
:01CF8D002281
:10E18B009010171271E500000000E490101BF09046
:10E19B00101BE0FF75F01CA42461F582E43410F52C
:10E1AB008375F004EF127216E0F8A3E0F9A3E0FA1E
:10E1BB00A3E0FBE4FFFE7D807C3F12694C901017BF
:10E1CB001271D9901017E0FCA3E0FDA3E0FEA3E0D1
:10E1DB00FFA3E0FB901020E4F0A3EBF012E391908F
:0BE1EB00101BE004F0E0C3940640A409
:01E1F6002206
:0BBB1600901017EBF0A3EAF0A3E9F099
:10BB2100A31271E50000000590101AE0FCA3A3E048
:10BB3100FEEC33500302BCA190101AA3A3A3E09022
:10BB4100107975F01C127216EE75F01CA42583F5A0
:10BB510083E0FCA3E0FDA3E0FEA3E0FFC004C00579
:10BB6100C006C007E47F04FEFDFC90101AE0F8A3B4
:10BB7100E0F9A3E0FAA3E0FB127054901017E0FB88
:10BB8100A3E0FAA3E0F98F828E83D007D006D00517
:10BB9100D00412715890101E7405F090101AE0FC38
:10BBA100A3E0FDA3E0FEA3E02401FBE43EFAE43DB3
:10BBB100F9E43CF8A3E0FFE4FCFDFED31270B140D0
:10BBC1000302BC7AE47F04FEFDFC90101AE0F8A3A6
:10BBD100E0F9A3E0FAA3E0FB127054901017E0FB28
:10BBE100A3E0FAA3E02FF9EA3EFAEB3DFBC003C064
:10BBF10002C0011270EEC004C005C006C00790105B
:10BC010017E0FBA3E0FAA3E0F990101EE075F00441
:10BC1100A4F58285F08312710E90101AA3A3E0FAA5
:10BC2100A3E090106175F01C127216EA75F01CA465
:10BC31002583F583C083C08290101EE0D082D0831B
:10BC410075F004127216E0F8A3E0F9A3E0FAA3E09C
:10BC5100FB126843A804A905AA06AB07D007D006C2
:10BC6100D005D00412674ED001D002D00312713E2C
:10BC710090101EE014F002BB9C90101AE0FCA3E0AF
:10BC8100FDA3E0FEA3E0FFEF24FFFFEE34FFFEED96
:10BC910034FFFDEC34FFFC90101A1271D902BB295C
:01BCA1002280
:0BA51A00900FE4EBF0A3EAF0A3E9F0DF
:10A52500A31271E500000000900FEB1271E5000029
:10A535000000900FEF1271E500000000900FF3127C
:10A5450071E500000000900FF71271E500000000B2
:10A55500900FFB1271E500000000900FFF1271E5EE
:10A56500000000009010031271E50000000090103B
:10A57500071271E50000000090100B1271E5000054
:10A58500000090100F1271E50000000090101312EA
:10A5950071E50000000012DEBB12CE85EF600C7B7A
:10A5A500FF7AEF79D912994C7F002212E18B7B015A
:10A5B5007A10794712BB16901047E0FCA3E0FDA383
:10A5C500E0FEA3E0FF900FE71271D990104BE0FC7D
:10A5D500A3E0FDA3E0FEA3E0FF900FEB1271D9907D
:10A5E500104FE0FCA3E0FDA3E0FEA3E0FF900FEF1A
:10A5F5001271D9901053E0FCA3E0FDA3E0FEA3E0A7
:10A60500FF900FF31271D9901057E0FCA3E0FDA362
:10A61500E0FEA3E0FF900FF71271D990105BE0FC0C
:10A62500A3E0FDA3E0FEA3E0FF900FFB1271D9901C
:10A635000FEFE0FCA3E0FDA3E0FEA3E0FF126A62DA
:10A64500E4FBFAF9784012694C900FFF1271D9E4D6
:10A65500FFFEFD7C40900FE7E0F8A3E0F9A3E0FAE8
:10A66500A3E0FB126843C004C005C006C007900FF5
:10A67500F3E0FCA3E0FDA3E0FEA3E0FF126A62D0D5
:10A6850003D002D001D00012694C9010031271D989
:10A69500E4FFFEFD7C40900FEBE0F8A3E0F9A3E0BA
:10A6A500FAA3E0FB126843C004C005C006C00790CA
:10A6B5000FF7E0FCA3E0FDA3E0FEA3E0FF126A6252
:10A6C500D003D002D001D00012694C90100712714E
:10A6D500D9901003E0FCA3E0FDA3E0FEA3E0FF900A
:10A6E5000FE7E0F8A3E0F9A3E0FAA3E0FB12684363
:10A6F500901003E0F8A3E0F9A3E0FAA3E0FB1268E9
:10A7050043C004C005C006C007900FFFE0FCA3E0EE
:10A71500FDA3E0FEA3E0FFA804A905AA06FB1268B5
:10A7250043D003D002D001D000126752C004C00547
:10A73500C006C007901007E0FCA3E0FDA3E0FEA360
:10A74500E0FF900FEBE0F8A3E0F9A3E0FAA3E0FB4C
:10A75500126843901007E0F8A3E0F9A3E0FAA3E03C
:10A76500FB126843D003D002D001D000126752908B
:10A775000FFBE0F8A3E0F9A3E0FAA3E0FB12674EB4
:10A7850012D89490100B1271D9900FE7E0FCA3E05A
:10A79500FDA3E0FEA3E0FF12D894A804A905AA062C
:10A7A500AB0790100BE0FCA3E0FDA3E0FEA3E0FFE8
:10A7B50012694C90100F1271D9900FEBE0FCA3E0D9
:10A7C500FDA3E0FEA3E0FF12D894A804A905AA06FC
:10A7D500AB0790100BE0FCA3E0FDA3E0FEA3E0FFB8
:10A7E50012694C9010131271D9900FFFE0FCA3E091
:10A7F500FDA3E0FEA3E0FF126AB1900FE4E0FBA326
:10A80500E0FAA3E0F9EE8FF0127008901003E0FC77
:10A81500A3E0FDA3E0FEA3E0FF126AB1900FE4E020
:10A82500FBA3E0FAA3E0F9900002EE8FF012702787
:10A83500901007E0FCA3E0FDA3E0FEA3E0FF126A91
:10A84500B1900FE4E0FBA3E0FAA3E0F9900004EE79
:10A855008FF012702790100BE0FCA3E0FDA3E0FE43
:10A86500A3E0FF90000612715890100FE0FCA3E0E2
:10A87500FDA3E0FEA3E0FF90000A127158901013AB
:10A88500E0FCA3E0FDA3E0FEA3E0FF90000E127143
:03A89500587F01E8
:01A89800229D
:10765C004112B9034112BB064112BD004112BC01DB
:10766C004112BA024212BE00004212C40000421281
:10767C00CA00004412C03F8000004412C63F800084
:01768C0000FD
:0D004600AE05AD07AF06AB077F3C02EF72C1
:07F40800AD077F3C12F1ED9E
:01F40F0022DA
:10F253007F0A12F408EF644860037F00227F0122D3
:0BC55B00900FE4EBF0A3EAF0A3E9F07E
:10C5660090100D7401F0A3740FF0A374E7F07B062E
:10C576007D037F3C12E75F900FE7E0FEA3E0FDED51
:10C58600FF900FE4E0FBA3E0FAA3E0F9EE8FF012D0
:10C596007008900FEBE0FEA3E0FDEDFF900FE4E0E6
:10C5A600FBA3E0FAA3E0F9900002EE8FF0127027E9
:10C5B600900FE9E0FEA3E0FDEDFF900004EE8FF0A2
:10C5C600127027126FA5FF9012BEE0FCA3E0FDC318
:10C5D600EF9DFFE5F09C8FF0127008900FE4E0FBF2
:10C5E600A3E0FAA3E02402F9E43AFA126FA5FF9059
:10C5F60012C4E0FCA3E0FDC3EF9DFFE5F09C8FF0C5
:10C60600127008900FE4E0FBA3E0FAA3E02404F91B
:10C61600E43AFA126FA5FF9012CAE0FCA3E0FDC34C
:10C62600EF9DFFE5F09C8FF0127008900FE4E0FBA1
:10C63600A3E0FAA3E0F9900002126FD0FDACF0EC93
:10C64600126A789012C0E0F8A3E0F9A3E0FAA3E03A
:10C65600FB126843126AB1900FE4E0FBA3E0FAA371
:10C66600E0F9900002EE8FF0127027900004126F2E
:10C67600D0FDACF0EC126A789012C6E0F8A3E0F9AF
:10C68600A3E0FAA3E0FB126843126AB1900FE4E05C
:10C69600FBA3E0FAA3E0F9900004EE8FF002702706
:10EACD009012BEEEF0A3EFF0AF059012C4ECF0A3E0
:10EADD00EFF0AF039012CAEAF0A3EFF0900FEAE067
:10EAED00FCA3E0FDA3E0FEA3E0FF9012C01271D9DC
:10EAFD00900FEEE0FCA3E0FDA3E0FEA3E0FF90127B
:04EB0D00C60271D9F2
:0BF35E009012BAEFF0FD7F02020046A3
:10E61300900FE874C8F012F253EF70107F01FE12EE
:10E62300F0A4900FE8E014F070ECFF229012BBE02E
:10E6330025E025E0FF9012B9E0FEC454F04FFF90AF
:10E6430012BDE04FFDE4FF1200469012BCE0C4335C
:10E6530054E0FD7F011200469012BAE0FD7F0212E2
:04E6630000467F01ED
:01E667002290
:0BB30B00900FE4EBF0A3EAF0A3E9F0E0
:10B31600126A627BE17A2E7965784212694C900F47
:10B32600EF1271D9900FEBE0FCA3E0FDA3E0FEA3C2
:10B33600E0FF126A627BE17A2E7965784212694CE7
:10B34600900FF31271D9900FF3E0FCA3E0FDA3E098
:10B35600FEA3E0FF12BD00C004C005C006C00790F2
:10B366000FE4E0FBA3E0FAA3E0F9900002126FD02D
:10B37600FDACF0EC126A78D003D002D001D00012F6
:10B386006843C004C005C006C007900FEFE0FCA3E9
:10B39600E0FDA3E0FEA3E0FF12BD00D003D002D083
:10B3A60001D000126843C004C005C006C007900F54
:10B3B600EFE0FCA3E0FDA3E0FEA3E0FF12BCEAC0C1
:10B3C60004C005C006C007900FE4E0FBA3E0FAA3A3
:10B3D600E0F9126FA5FDACF0EC126A78D003D0024A
:10B3E600D001D000126843D003D002D001D00012A1
:10B3F6006752C004C005C006C007900FF3E0FCA367
:10B40600E0FDA3E0FEA3E0FF12BCEAC004C005C055
:10B4160006C007900FE4E0FBA3E0FAA3E0F9900072
:10B4260004126FD0FDACF0EC126A78D003D002D0D3
:10B4360001D000126843C004C005C006C007900FC3
:10B44600EFE0FCA3E0FDA3E0FEA3E0FF12BD00D009
:10B4560003D002D001D000126843A804A905AA06A9
:10B46600AB07D007D006D005D00412674E900FF771
:10B476001271D9900FF3E0FCA3E0FDA3E0FEA3E078
:10B48600FF12BD00C004C005C006C007900FE4E06F
:10B49600FBA3E0FAA3E0F9900004126FD0FDACF034
:10B4A600EC126A78D003D002D001D000126843C0F3
:10B4B60004C005C006C007900FF3E0FCA3E0FDA39F
:10B4C600E0FEA3E0FF12BCEAC004C005C006C00748
:10B4D600900FE4E0FBA3E0FAA3E0F9900002126FFC
:10B4E600D0FDACF0EC126A78D003D002D001D000C7
:10B4F600126843D003D002D001D000126752C004B4
:10B50600C005C006C007900FF7E0FCA3E0FDA3E06E
:10B51600FEA3E0FF900FFF1271D9D007D006D00529
:10B52600D00412DB2DE4FBFA793478431268437BAE
:10B53600D07A0F7949784012694CE4FBFA7934786D
:04B5460043126752F3
:01B54A0022DE
:10768D0004773F800000047B00000000047F0000B1
:10769D000000048300000000046B00000000046F74
:0A76AD00000000000473000000005C
:0DF31300AE05AD07AF06AB077FD402EF7269
:07F41000AD077FD412F1EDFE
:01F4170022D2
:04EC06007B017D8091
:0DEC0A00900FEEEDF0A3EBF0900FEDEFF0AA
:10EC170012F410AE07900FEFE0FFB40108900FEE6B
:10EC2700E04EFE800AEF7007900FEEE0F45EFE9074
:09EC37000FEDE0FFAD0602F3133E
:0EF283007F0F12F410EFB46A037F01227F00A8
:01F29100225A
:08F41800EF4DFD7F1002F3131C
:08F42000EF4DFD7F1102F31313
:0BD67F00900FE4EBF0A3EAF0A3E9F049
:10D68A0090100D7401F0A3740FF0A374E7F07B0CF3
:10D69A007D227FD412E75F900FE8E0FE900FE7E06B
:10D6AA00FDEDFF900FE4E0FBA3E0FAA3E0F99000A0
:10D6BA0006EE8FF0127027900FEAE0FE900FE9E075
:10D6CA00FDEDFF900008EE8FF0127027900FECE04E
:10D6DA00FE900FEBE0FDEDFF90000AEE8FF0127066
:10D6EA0027900FEEE0FE900FEDE0FDEDFFEE8FF0DC
:10D6FA00127008900FF0E0FE900FEFE0FDEDFF9042
:10D70A000FE4E0FBA3E0FAA3E0F9900002EE8FF049
:10D71A00127027900FF2E0FE900FF1E0FDEDFF90FE
:08D72A000004EE8FF0027027ED
:10F263007B017D017F1212EC0A7F327E0002F0A443
:09F3CB007B017D047F1902EC0AAC
:04DCFD00AB07AA06C1
:10DD0100AE04AF057C007D28126F43900FEAEFF05F
:10DD1100AE02AF03AD07AC06EC126A787BDA7A0F7C
:10DD210079497840126843E4FBFA793478431269FF
:10DD31004C12BD00E4FBFA79807842126843126A02
:10DD4100B1900FEBEFF0900FEAE0D394FF40037432
:10DD5100FFF0900FEBE0D394FF400374FFF07DA040
:10DD61007F0112F313900FEAE0FD7F5012F313903D
:10DD71000FEBE0FD7F5412F3137D207F5912F31353
:10DD8100E4FD7F0112F3137F1912EC067B017D0183
:05DD91007F0B02EC0A0B
:10EE91007B017D827F5812EC0A7B017D8C7F5912A8
:10EEA100EC0A7D7F7F5A12F3137F5B12EC067B0124
:07EEB1007D087F5E02EC0A00
:10E8DF00900FEAEEF0A3EFF0A3EDF07D807F011231
:10E8EF00F3137D8E7F0F12F313900FEAE0FEA3E078
:10E8FF00FF7C007D50126EEEEF33333354F8FFA3DD
:10E90F00E054074FFD7F1412F313E4FD7F0112F360
:0AE91F00137B017D107F1902EC0A42
:10F0D7007F4B12F410900FE4EFF07F4C12F410EF17
:08F0E700FE900FE4E0FDEDFFD7
:01F0EF0022FE
:10F0F0007B017D027F1912EC0A7F017E0012F0A4D1
:09F10000E4FB7D027F1902EC0A18
:09F3D400E4FB7D107F1902EC0A34
:10E50C00900FE8E4F0A374C8F07F327E0012F0A400
:10E51C0012F283EF70167F01FE12F0A4900FE874D4
:10E52C00FFF5F0126F7945F070E6FF2212F2637D71
:10E53C00087F6012F4187D04E4FF12F4207D647CE3
:10E54C00007F0A7E0012DCFD12EE917D067F107EAC
:09E55C000412E8DF12F3CB7F0189
:01E565002293
:0B906F00900FE4EBF0A3EAF0A3E9F09F
:10907A00126FA5FDACF0EC126A78783B1271CD90B4
:10908A000FE4E0FBA3E0FAA3E0F9900002126FD02C
:10909A00FDACF0EC126A78783F1271CD900FE4E0E3
:1090AA00FBA3E0FAA3E0F9900004126FD0FDACF044
:1090BA00EC126A7878431271CD900FE4E0FBA3E0DA
:1090CA00FAA3E0F9900006126FD0FDACF0EC126A38
:1090DA00787B397AFA798E783C1268437B6F7A12F8
:1090EA007983784212694C78471271CD900FE4E087
:1090FA00FBA3E0FAA3E0F9900008126FD0FDACF0F0
:10910A00EC126A787B397AFA798E783C1268437B5A
:10911A006F7A127983784212694C784B1271CD902A
:10912A000FE4E0FBA3E0FAA3E0F990000A126FD083
:10913A00FDACF0EC126A787B397AFA798E783C12B7
:10914A0068437B6F7A127983784212694C784F129E
:10915A0071CD783F12717CA804A905AA06AB071243
:10916A006843C004C005C006C007783B12717CA8DA
:10917A0004A905AA06AB07126843D003D002D0019E
:10918A00D000126752C004C005C006C00778431257
:10919A00717CA804A905AA06AB07126843D003D0BC
:1091AA0002D001D00012675212D8948F288E278DD0
:1091BA00268C25783B12717CAB28AA27A926A825DC
:1091CA0012694C783B1271CD783F12717CAB28AA98
:1091DA0027A926A82512694C783F1271CD78431227
:1091EA00717CAB28AA27A926A82512694C784312B4
:1091FA0071CD787F12717C78771271A4126843C09E
:10920A0004C005C006C007788312717C787B12718E
:10921A00A4126843D003D002D001D00012674EE4F2
:10922A00FBFAF9784012684378531271CD788312A9
:10923A00717C787F1271A4126843C004C005C0060D
:10924A00C007787B12717C78771271A4126843D0B8
:10925A0003D002D001D000126752E4FBFAF9784039
:10926A0012684378571271CD787B12717C787B1221
:10927A0071A4126843C004C005C006C007787712FB
:10928A00717C78771271A4126843D003D002D0019E
:10929A00D00012674EC004C005C006C007787F120E
:1092AA00717C787F1271A4126843A804A905AA06E2
:1092BA00AB07D007D006D005D00412674EC004C051
:1092CA0005C006C007788312717C78831271A412D4
:1092DA006843D003D002D001D000126752785B12E3
:1092EA0071CD785712717C78431271A4126843C009
:1092FA0004C005C006C007785B12717C783F127102
:10930A00A4126843D003D002D001D00012674E786D
:10931A005F1271CD785B12717C783B1271A412686E
:10932A0043C004C005C006C007785312717C784355
:10933A001271A4126843D003D002D001D000126780
:10934A004E78631271CD785312717C783F1271A4F2
:10935A00126843C004C005C006C007785712717C62
:10936A00783B1271A4126843D003D002D001D00016
:10937A0012674E78671271CD786B1271A4C000C063
:10938A0001C002C0037F6F7E127D837C3A785F1230
:10939A0071A4126843D003D002D001D000126752E0
:1093AA00786B1271CD786F1271A4C000C001C0022F
:1093BA00C0037F6F7E127D837C3A78631271A41298
:1093CA006843D003D002D001D000126752786F12DE
:1093DA0071CD78731271A4C000C001C002C0037FAE
:1093EA006F7E127D837C3A78671271A4126843D02B
:1093FA0003D002D001D00012675278731271CD7F68
:10940A00CD7ECC7D4C7C3F785F1271A41268437884
:10941A00471271A4126752786B1271A412675278BC
:10942A00471271CD7FCD7ECC7D4C7C3F7863127123
:10943A00A4126843784B1271A4126752786F1271A2
:10944A00A4126752784B1271CD7FCD7ECC7D4C7CB5
:10945A003F78671271A4126843784F1271A4126799
:10946A005278731271A4126752784F1271CD7877BD
:10947A001271A4C000C001C002C003787B12717CC3
:10948A00126A6278471271A4126843C004C005C008
:10949A0006C007784B12717C787F1271A412684358
:1094AA00A804A905AA06AB07D007D006D005D004A0
:1094BA0012674EC004C005C006C007784F12717CFF
:1094CA0078831271A4126843A804A905AA06AB07F7
:1094DA00D007D006D005D00412674E7B6F7A127976
:1094EA0083783B126843D003D002D001D0001267C0
:1094FA005278771271CD787B1271A4C000C001C076
:10950A0002C003784F12717C787F1271A4126843EB
:10951A00C004C005C006C007784712717C7877126C
:10952A0071A4126843D003D002D001D0001267524E
:10953A00C004C005C006C007784B12717C7883123C
:10954A0071A4126843A804A905AA06AB07D007D0DC
:10955A0006D005D00412674E7B6F7A127983783B66
:10956A00126843D003D002D001D000126752787B30
:10957A001271CD787F1271A4C000C001C002C0036D
:10958A00784F12717C787B1271A4126843C004C0B0
:10959A0005C006C007784B12717C78771271A41245
:1095AA006843D003D002D001D00012674EC004C075
:1095BA0005C006C007784712717C78831271A4121D
:1095CA006843D003D002D001D0001267527B6F7A71
:1095DA00127983783B126843D003D002D001D000BD
:1095EA00126752787F1271CD78831271A4C000C0BD
:1095FA0001C002C003784B12717C787B1271A412ED
:10960A006843C004C005C006C007784F12717C7851
:10961A00771271A4126843D003D002D001D000128D
:10962A006752C004C005C006C007784712717C782B
:10963A007F1271A4126843A804A905AA06AB07D031
:10964A0007D006D005D00412674E7B6F7A12798351
:10965A00783B126843D003D002D001D0001267527F
:10966A0078831271CD787B12717C787B1271A41287
:10967A006843C004C005C006C007787712717C78B9
:10968A00771271A4126843D003D002D001D000121D
:10969A006752C004C005C006C007787F12717C7883
:1096AA007F1271A4126843D003D002D001D00012F5
:1096BA006752C004C005C006C007788312717CA82F
:1096CA0004A905AA06AB07126843D003D002D00149
:1096DA00D00012675212D8948F288E278D268C2597
:1096EA00787712717CAB28AA27A926A82512694C7B
:1096FA0078771271CD787B12717CAB28AA27A926BC
:10970A00A82512694C787B1271CD787F12717CABD7
:10971A0028AA27A926A82512694C787F1271CD7824
:10972A008312717CAB28AA27A926A82512694C782E
:10973A00831271CD788312717C787B1271A41268BE
:10974A0043C004C005C006C007787F12717C7877D1
:10975A001271A4126843D003D002D001D00012675C
:10976A004EE4FBFAF9784012684312EB917BE17AF6
:10977A002E79657842126843900FE4E0FBA3E0FA81
:10978A00A3E0F990000C127158788312717C787FEB
:10979A001271A4126843C004C005C006C007787BD2
:1097AA0012717C78771271A4126843D003D002D068
:1097BA0001D000126752E4FBFAF9784012684312AA
:1097CA00EB917BE17A2E79657842126843900FE437
:1097DA00E0FBA3E0FAA3E0F9900010127158787B3D
:1097EA0012717CA804A905AA06AB07126843C00433
:1097FA00C005C006C007787712717CA804A905AA1B
:10980A0006AB07126843D003D002D001D00012671A
:10981A0052C004C005C006C007787F12717CA80434
:10982A00A905AA06AB07126843A804A905AA06ABAC
:10983A0007D007D006D005D00412674EC004C00571
:10984A00C006C007788312717CA804A905AA06ABD2
:10985A0007126843A804A905AA06AB07D007D006D1
:10986A00D005D00412674EC004C005C006C00778F0
:10987A008312717C78771271A4126843C004C00500
:10988A00C006C007787F12717C787B1271A41268B7
:10989A0043A804A905AA06AB07D007D006D005D06D
:1098AA0004126752E4FBFAF97840126843D003D0F5
:1098BA0002D001D00012694C12C91A7BE17A2E79C2
:1098CA00657842126843900FE4E0FBA3E0FAA3E054
:0798DA00F99000140271581F
:0A76B7004312680000EF41121700B3
:07F4300075DE2F75BC8F2271
:10F05400EF4480F5BC75BC400000E5BC30E5FB53D3
:0AF06400BCDFAFBDEFFEADBDEDFF58
:01F06E00227F
:06F43D00EF24FF92C02243
:0DF32000EF60044391802253917FC2972239
:10D42A00900FED1271E500000000E4900FF1F0A3F7
:10D43A00F0A3F0A3F07F0F12F0547F0F12F054E420
:10D44A00900FF1F0A3F0900FEDE0F8A3E0F9A3E05C
:10D45A00FAA3E0FB7F0F12F054EE3395E0FDFCEBEC
:10D46A002FFFEA3EFEE93DFDE83CFC900FED12710C
:10D47A00D9900FF2E004F07006900FF1E004F0C3C7
:10D48A00900FF2E09440900FF1E06480948040B6EF
:10D49A00900FEDE0FCA3E0FDA3E0FEA3E0FF780619
:10D4AA001270C7900FED1271D9901268E0FBA3E0D9
:10D4BA00FAA3E0F9126FA5FFAEF0EE3395E0FDFC9A
:10D4CA00E47BFF7A0FF9F8127054900FEDE0F8A39D
:10D4DA00E0F9A3E0FAA3E0FB12EB11900FF3EEF0F0
:10D4EA00A3EFF0FDAC06EC126A78E4FBFA797A78DD
:04D4FA004412694C23
:01D4FE00220B
:10BE2A00900FE41271E500000000E4900FECF012AC
:10BE3A00D42A7B9A7A99795978C01267527B487AC0
:10BE4A00E1793A783F12694C900FE81271D9E4FF10
:10BE5A00FE7D807C3F900FE8E0F8A3E0F9A3E0FACA
:10BE6A00A3E0FB1269E9600E400C900FE81271E53D
:10BE7A003F8000008022E4FFFEFDFC900FE8E0F81E
:10BE8A00A3E0F9A3E0FAA3E0FB1269E9500A900FD4
:10BE9A00E81271E500000000901217E0703804F013
:10BEAA00E4900FECF0900FECE0FBC3941450279051
:10BEBA000FE8E0FCA3E0FDA3E0FEA3E0FFEB25E032
:10BECA0025E02418F582E43412F5831271D9900F13
:10BEDA00ECE004F080CF900FEC7413F0900FECE0DC
:10BEEA00FBD394004057EB25E025E02414F582E4C7
:10BEFA003412F583E0FCA3E0FDA3E0FEA3E0FF908B
:10BF0A00121C1271D9900FE4E0FCA3E0FDA3E0FE3D
:10BF1A00A3E0FFEB25E025E02418F582E43412F5CE
:10BF2A0083E0F8A3E0F9A3E0FAA3E0FB12675290DA
:10BF3A000FE41271D9900FECE014F0809F900FE497
:10BF4A00E0FCA3E0FDA3E0FEA3E0FFA3E0F8A3E08A
:10BF5A00F9A3E0FAA3E0FB126752900FE41271D939
:10BF6A00E4FBFA79A07841900FE4E0FCA3E0FDA39A
:10BF7A00E0FEA3E0FF12694C900FE81271D9900F0E
:10BF8A00E8E0FCA3E0FDA3E0FEA3E0FF9012181294
:10BF9A0071D9900FE8E0FCA3E0FDA3E0FEA3E0FF67
:01BFAA002274
:10001600900FE4E590F0E4F580F5907592307591D7
:10002600B0759601F59575B08475C099F5C8C2A9E5
:0B00360053AFFE53AFDF7587020000E0
:01004100229C
:10ED7800AF90E4F580F5907592307591B075A0016B
:10ED8800F596F59575B084F5C0F5C8C2A953AFFEE0
:0AED980053AFDF75870200008F9073
:01EDA200224E
:0CF3460012ED1BD2A943AF0143AF2022FF
:10F1DB0043BA8090FE8074D0F090FE82E4F053BA74
:02F1EB007F2281
:10EF950075100175112C90FE82E020E60DE5111526
:10EFA500117002151014451070EC90FE82E054BFEC
:02EFB500F02248
:09F3DD0090FE817401F002EF952D
:09F3E60090FE817406F002EF951F
:0EF2E90090FE86EFF090FE817402F002EF9529
:0FF2920090FE817404F012EF9590FE87E0FF224A
:10EE1B0043BA8012F3DDAF0612F2E912EE3AAF05F8
:0FEE2B0012F2E912EE3A12F3DDEE04FF12F2E9F1
:09EE3A0090FE817403F002EF95D3
:0EF2F70090FE82E4F090FE817405F002EF9527
:0FF2A10090FE827401F090FE817405F002EF95EB
:10EF720043BA8012F3DD12F2E912EE3AAF0512F251
:10EF8200E912EE3AAF0312F2E912EE3A12F3E65345
:03EF9200BA7F2221
:02F1ED00AE076B
:0FF1EF0012EE1B12F29212F2A112F3E653BA7F44
:01F1FE0022EE
:04E75F00AE07AC0352
:10E7630012EE1BE4FEEC14FFEEC39F501D12F29257
:10E7730090100DE0FBA3E0FAA3E0F98E827583000D
:10E78300EF126ECC12F2F70E80DB12F29290100DA4
:10E79300E0FBA3E0FAA3E0F98E82758300EF126E2B
:0AE7A300CC12F2A112F3E653BA7F84
:01E7AD002249
:1076C100607511A20A050A000000081E01010001EF
:1076D10042C233330000000000000000000000003F
:1076E10000003F8000003F8000000000000000001B
:1076F1000000000000000000000000000000000089
:107701000000000000000000000000000000000078
:107711000000000000000000000000000000000068
:107721000000000000000000000000000000000058
:097731000000000000000000004F
:10ED1B00E4F580F594F593D292D296759230759175
:10ED2B00B075A0B8759640F59575B034F5B2F5B1E0
:0FED3B0075C019F5B4F5B375C820F5CAF5C9222E
:0DF32D00438904E4F58AF58CC28CD2A92234
:10F2730043D10275D54075D4A243D10843AF2022B0
:10F10900759850438E40538EFE53890F758BCC757D
:09F119008DFFC2ABD28ED2992207
:10F1B600759A50438E0475D78F75D6FD438E1043CE
:03F1C600A801227B
:0CF35200D288D2A8D28AD2AA438F1022FF
:0400060075C7602238
:04000E0075C127226F
:0400560043C1102270
:0BE0A900900FE4EBF0A3EAF0A3E9F015
:10E0B400E4FFA3F0A3F0900FE4E0FBA3E0FAA3E0F5
:10E0C400F98F82758300126E5AFD900FE8E02DF0EF
:10E0D400900FE7E03400F00FEFB473DA900FE7E04D
:10E0E400FEA3E0FF900FE4E0FBA3E0FAA3E0F990C5
:10E0F4000073EE8FF01270277F807E0112EEDF90A6
:10E104000FE4E0FBA3E0FAA3E0F9900FEEE4F0A340
:0AE114007475F07F807E0102EA8836
:0BD7E100900FE4EBF0A3EAF0A3E9F0E6
:10D7EC00E4A3F0A3F0A3F0900FEFF0A37475F07F17
:10D7FC00807E0112EA43900FE7E0FFC39473502937
:10D80C00900FE4E0FBA3E0FAA3E0F98F82758300AC
:10D81C00126E5AFF900FE9E02FF0900FE8E0340001
:10D82C00F0900FE7E004F080CD900FE4E0FBA3E074
:10D83C00FAA3E0F9900073126FD0FF900FE8E0B5F7
:10D84C00F008A3E0B507037F0122E4900FE7F09006
:10D85C000FE7E0FF7C007B0124A2F9EC3411FA12F3
:10D86C006E41FE900FE4E0FBA3E0FAA3E0F98F8297
:10D87C00758300EE126ECC900FE7E004F0E0B47507
:03D88C00CE7F004C
:01D88F002276
:08F42800EF640124FF92B522FC
:10E9700012ED1B12F10912F1B612F32D12F27312FD
:10E98000F35212F43012F1DB12000E7B017A0E7991
:10E99000EF12D7E112EC79900EF4E0FF12F3EFE4FE
:10E9A000FF12F4280F12F3207F057E0012F0A47FDF
:07E9B0000112F43DD2AF2279
:0EF30500E4F5C7F5C5F5C675C3FF75C4FF2254
:10EA4300AD07AC06A2AF92D5C2AF75C78075C5013D
:10EA5300ECF5C3AF058FC475C65A75C6A500E5C2EC
:10EA6300126EBA0DBD00010C740129F9E43AFA9053
:10EA73000FEF74FFF5F0126F7945F070D312F305C1
:05EA8300A2D592AF22B4
:10EEDF00AD07AC06A2AF92D5ECF5C3AF058FC475E5
:10EEEF00C78075C50375C65A75C6A50012F305E52B
:06EEFF008024FF92AF2207
:10EA8800AD07AC06A2AF92D5C2AF75C78075C502F7
:10EA9800ECF5C3AF058FC4126E41F5C275C65A7541
:10EAA800C6A5000DBD00010C740129F9E43AFA90DD
:10EAB8000FEE74FFF5F0126F7945F070D312F3057D
:05EAC800A2D592AF226F
:0B773A00C1204112DC004212DD000003
:10EC790043BA8090FFF2E4F090FFF07417F0A374A8
:10EC890070F090FF647480F090FF60E4F0A3F0A34B
:10EC9900740BF0A374B8F053BA7F43D12075D340F5
:09ECA90075D2A243AF40C2202243
:10F1630043BA80EFB4010543FE80800553FE7FC29E
:05F17300A653BA7F2243
:0300A30002DD96E5
:10DD9600C0E0C0F0C083C082C0D075D00853EFFB8E
:10DDA6009012DCE0FE7019A3E07004A3E064C87072
:10DDB6006D9012DDF0A3F0FF12F16353D17F805E08
:10DDC600EE640170599012DDE0FEA3E0FFC39458A3
:10DDD600EE940250367C007D64126EEEED4C702B94
:10DDE6009012DDE0FEA3E0FF7C007D64126EEEEF94
:10DDF60054016401FF12F1639012DDE0FEA3E0FF1F
:10DE06007C007D64126EEEEF1392A09012DDE0B4FA
:10DE1600030CA3E0B4E8079012DDE4F0A3F0D0D041
:09DE2600D082D083D0F0D0E032AC
:10F17800E49012DCF0A3F0A3F03020087F0112F134
:05F188006343D1802269
:0FF2B0009012DC7401F0E4A3F0A3F043D18022AC
:09F3EF00EF6003D22022C22022AB
:10F0A400D3EF9400EE94004010007D207C28DCFE19
:09F0B400DDFCEF1F70EA1E80E78D
:01F0BD002230
:10F18D00D3EF9400EE9400400B7D06DDFEEF1F7073
:04F19D00EF1E80ECF5
:01F1A100224B
:108425000000000000000000002F00000000070011
:10843500070000147F147F1400242A7F2A120023CA
:1084450013086462003649552250000005030000F8
:1084550000001C224100000041221C000014083EBF
:1084650008140008083E0808000000A06000000885
:1084750008080808000060600000002010080402D9
:10848500003E5149453E0000427F40000042615197
:108495004946002141454B31001814127F10002731
:1084A50045454539003C4A494930000171090503F4
:1084B50000364949493600064949291E0000363625
:1084C5000000000056360000000814224100001488
:1084D5001414141400004122140800020151090665
:1084E50000324959513E007C1211127C007F4949E6
:1084F5004936003E41414122007F4141221C007F17
:1085050049494941007F09090901003E4149497A24
:10851500007F0808087F0000417F4100002040419E
:108525003F01007F08142241007F40404040007F0A
:10853500020C027F007F0408107F003E4141413E4E
:10854500007F09090906003E4151215E007F091996
:1085550029460046494949310001017F0101003F93
:108565004040403F001F2040201F003F4038403F13
:108575000063140814630007087008070061514977
:10858500454300007F41410000552A552A5500000A
:1085950041417F0000040201020400404040404088
:1085A500000001020400002054545478007F484420
:1085B500443800384444442000384444487F003857
:1085C5005454541800087E0901020018A4A4A47C80
:1085D500007F080404780000447D4000004080844A
:1085E5007D00007F102844000000417F4000007C92
:1085F50004180478007C080404780038444444389E
:1086050000FC242424180018242418FC007C0804E9
:10861500040800485454542000043F444020003CC2
:108625004040207C001C2040201C003C4030403C49
:10863500004428102844001CA0A0A07C00446454D9
:108645004C4414141414141400000000000000001D
:108655000000000000000000000000000000000015
:1086650000000000000000000000000000F800000D
:108675000000000000333000000000100C06100C54
:108685000600000000000000000040C07840C078EF
:108695004000043F04043F040400007088FC0830D7
:1086A5000000001820FF211E0000F008F000E0186F
:1086B500000000211C031E211E0000F00888700028
:1086C50000001E2123241927211010160E0000007A
:1086D50000000000000000000000000000E0180499
:1086E5000200000000071820400000020418E00006
:1086F50000000040201807000000404080F0804046
:1087050040000202010F01020200000000F000001B
:1087150000000101011F010101000000000000002F
:10872500000080B0700000000000000000000000A4
:10873500000000010101010101010000000000002D
:1087450000000030300000000000000000008060E4
:108755001804006018060100000000E01008081069
:10876500E000000F102020100F00001010F800008E
:1087750000000020203F2020000000700808088825
:1087850070000030282422213000003008888848F5
:1087950030000018202020110E000000C02010F825
:1087A500000000070424243F240000F808888808F6
:1087B50008000019212020110E0000E010888818FB
:1087C5000000000F112020110E0000380808C838DD
:1087D50008000000003F00000000007088080888BD
:1087E5007000001C222121221C0000E01008081046
:1087F500E0000000312222110F00000000C0C0007F
:108805000000000000303000000000000080000083
:108815000000000080600000000000008040201083
:10882500080000010204081020004040404040407C
:1088350040000404040404040400000810204080DF
:108845000000002010080402010000704808080814
:10885500F0000000003036010000C030C828E810E4
:10886500E0000718272423140B000000C038E0009F
:108875000000203C23020227382008F888888870E9
:108885000000203F202020110E00C03008080808F5
:108895003800071820202010080008F808080810DC
:1088A500E000203F202020100F0008F88888E80805
:1088B5001000203F20202320180008F88888E808A9
:1088C5001000203F200003000000C03008080838D1
:1088D500000007182020221E020008F808000008E2
:1088E500F808203F210101213F20000808F8080869
:1088F50000000020203F2020000000000808F808A4
:108905000800C08080807F00000008F888C0281813
:108915000800203F20012638200008F80800000044
:108925000000203F20202020300008F8F800F8F84B
:108935000800203F003F003F200008F830C0000835
:10894500F808203F200007183F00E010080808102D
:10895500E0000F10202020100F0008F80808080874
:10896500F000203F210101010000E0100808081077
:10897500E0000F18242438504F0008F888888888AC
:108985007000203F2000030C302000708808080884
:1089950038000038202121221C00180808F8080892
:1089A50018000000203F2000000008F8080000081B
:1089B500F808001F202020201F000878880000C824
:1089C5003808000007380E010000F80800F8000814
:1089D500F800033C0700073C03000818688080681E
:1089E500180820302C03032C30200838C800C8385C
:1089F50008000000203F2000000010080808C838C3
:108A050008002038262120201800000000FE020260
:108A150002000000007F40404000000C30C0000014
:108A25000000000000010638C00000020202FE003E
:108A35000000004040407F000000000004020202E8
:108A4500040000000000000000000000000000001D
:108A55000000808080808080808000020204000009
:108A65000000000000000000000000008080808001
:108A750000000019242222223F2008F800808000EF
:108A85000000003F112020110E00000000808080B2
:108A95000000000E112020201100000000808088B9
:108AA500F800000E112020103F20000080808080FB
:108AB5000000001F222222221300008080F08888F7
:108AC50088180020203F2020000000008080808042
:108AD5008000006B94949493600008F80080808077
:108AE5000000203F210000203F20008098980000D2
:108AF50000000020203F2020000000000080989802
:108B0500000000C08080807F000008F800008080A1
:108B15008000203F24022D302000000808F80000C6
:108B250000000020203F2020000080808080808081
:108B35008000203F20003F20003F80800080808013
:108B45000000203F210000203F2000008080808021
:108B55000000001F202020201F0080800080800052
:108B6500000080FFA12020110E0000000080808001
:108B75008000000E112020A0FF8080808000808072
:108B8500800020203F21200001000000808080809F
:108B950080000033242424241900008080E0808094
:108BA50000000000001F20200000808000000080E1
:108BB5008000001F202020103F2080808000008042
:108BC500808000010E300806010080800080008052
:108BD50080800F300C030C300F00008080008080F7
:108BE50080000020312E0E31200080808000008022
:108BF500808080818E7018060100008080808080D2
:108C050080000021302C2221300000000000807CF3
:108C1500020200000000003F404000000000FF008D
:108C2500000000000000FF0000000002027C800040
:108C350000000040403F0000000000060101020264
:108C4500040400000000000000000000E0F8FCFE45
:108C5500FEFEFEFEFCF8E0000000E0FFFFFFFF1F48
:108C65000301031FFFFFFFFFE000FFFFFFFFFF0002
:108C750000000000FFFFFFFFFF00FFFFFFFFFF00F9
:108C850000000000FFFFFFFFFF0007FFFFFFFFF8E9
:108C9500C080C0F8FFFFFFFF07000000071F3F7FF0
:108CA5007F7F7F7F3F1F070000000000000080C01E
:108CB500FCFCFCFCFC000000000000007F7F7F7FC7
:108CC500FFFFFFFFFF0000000000000000000000A4
:108CD500FFFFFFFFFF000000000000000000000094
:108CE500FFFFFFFFFF00000000000000C0C0C0C084
:108CF500FFFFFFFFFFC0C0C0C00000003F3F3F3F78
:108D05003F3F3F3F3F3F3F3F3F0000F8F8FCFEFE3F
:108D1500FEFEFEFCFCF8E0000000001F0F07030349
:108D250003070FFFFFFFFFFF00000000000000002A
:108D35000000E0FFFFFFFF1F00000000000000C073
:108D4500F8FEFFFF7F0F0100000000C0F0FCFFFFF1
:108D5500FFDFC7C1C0C0C0C0C000003F3F3F3F3FAD
:108D65003F3F3F3F3F3F3F3F3F0000F8F8FCFEFEDF
:108D7500FEFEFEFEFCF8F0800000001F0F07030357
:108D8500030307FFFFFFFFFF000000000000F8F8E6
:108D9500F8FCFEFFFFBF0F01000000000000070701
:108DA50007070F1FFFFFFFFEF000F8F0E0E0C0C06F
:108DB500C0C0E0F0FFFFFFFF3F001F1F3F3F7F7F69
:108DC5007F7F7F3F3F1F0F03000000000000000072
:108DD500C0F8FCFCFCFCFC00000000000000E0FC0E
:108DE500FF7FFFFFFFFFFF0000000080F0FFFF3F58
:108DF5000300FFFFFFFFFF000000FCFFFFFFF1F096
:108E0500F0F0FFFFFFFFFFF0F0F00F0F0F0F0F0F58
:108E15000F0FFFFFFFFFFF0F0F0F00000000000007
:108E250000003F3F3F3F3F0000000000FCFCFCFC12
:108E3500FCFCFCFCFCFCFCFC00000000FFFFFFFF51
:108E4500FF0303030303030300000000FFFFFFFF0D
:108E5500FFFCFCFCFCF8F0C0000000000707030362
:108E65000303070FFFFFFFFFFE0000F8F0E0C0C09F
:108E7500C0C0E0F8FFFFFFFF3F00001F3F3F7F7FBF
:108E85007F7F7F7F3F1F0F010000000080E0F0F82B
:108E9500FCFEFEFEFEFEFC00000000F8FFFFFFFFEB
:108EA5000F030101010103000000FFFFFFFFFFF8B1
:108EB500FCFEFEFEFEFCF8E00000FFFFFFFFFF03E7
:108EC50001010307FFFFFFFFFF0007FFFFFFFFF89B
:108ED500C08080E0FFFFFFFF3F000000071F3F3F0E
:108EE5007F7F7F7F3F1F0F010000FCFCFCFCFCFC2B
:108EF500FCFCFCFCFCFCFCFCFC000303030303037F
:108F05000303C3FFFFFFFFFF1F0000000000000079
:108F1500C0FCFFFFFFFF1F0100000000000080F8FC
:108F2500FFFFFFFF3F0300000000000000F8FFFF08
:108F3500FFFF7F0300000000000000303F3F3F3F80
:108F45003F0700000000000000000000E0F8FCFC06
:108F5500FEFEFEFEFCFCF8E0800000FFFFFFFFFFC9
:108F650003010103FFFFFFFFFF0000073FFFFFFFB6
:108F7500FFFCF8FCFFFF1F070000E0FCFEFFFF0FF2
:108F8500070F1F3FFFFFFFFEF0007FFFFFFFFFE022
:108F9500C08080E0FFFFFFFF7F0000070F1F3F7FBE
:108FA5007F7F7F7F3F1F0F0300000080E0F8FCFEFE
:108FB500FEFEFEFEFCF8E0800000F8FFFFFFFF0F5D
:108FC5000101030FFFFFFFFFF000FFFFFFFFFFE0C1
:108FD500C08080C0FFFFFFFFFF0000071F3F7F7FAE
:108FE5007F7F3F1FFFFFFFFF7F000000C080808065
:108FF50080C0F0FFFFFFFF1F000000007F7F7F7F25
:109005007F7F3F1F0F0700000000000000000000E9
:10901500000000000000000000000000000000FF4C
:10902500FFFFFFFF00000000000000000000000F30
:109035000F0F0F0F0000000000000000000000E00F
:10904500E0E0E0E00000000000000000000000FF9C
:10905500FFFFFFFF0000000000000000000000010E
:0A90650001010101000000000000FD
:1077450064000008000000000000000000000000C8
:107755000000000000000000000000000000000024
:107765000000000000000000000000000000000014
:107775000000000000000000000000000000000004
:1077850000000000000000000000000000000000F4
:107B450000000000640004080000000000000000C0
:107B55000000000000000000000000000000000020
:107B65000000000000000000000000000000000010
:107B75000000000000000000000000000000000000
:107B850000000000000000000000000000000000F0
:107F450000000000000000006400080800000000B8
:107F5500000000000000000000000000000000001C
:107F6500000000000000000000000000000000000C
:107F750000000000000000000000000000000000FC
:107F850000000000000000000000000000000000EC
:108345000000000000000000000000004800000BD5
:078355000B0B0B0B0B0B0BD4
:10E6BD00900FE4EBF0A3EAF0A3E9F012DA8C900FDF
:10E6CD00E4E0FBA3E0FAA3E0F9900002126E5AFF1A
:10E6DD0012F369900FE4E0FBA3E0FAA3E0F99000D8
:10E6ED0004126E5AFF12F122900FE4E0FBA3E0FA40
:10E6FD00A3E0F9900003126E5AFF12F4437F01025A
:02E70D00F3A671
:0BC40400900FE4EFF0A3EDF0A3EBF0CD
:10C40F00A3E0131313541F752700F528900FEEE0C8
:10C41F00600302C4B7F525AF257E00C3EF9528EE64
:10C42F009527400302C55A900FE5E02FFFEE33FE2C
:10C43F00EF7807C333CE33CED8F9FF900FE4E07C0B
:10C44F00002FF52AEC3EF529900FE6E0FFE5258F4A
:10C45F00F0A485F02BF52CE4F526900FE6E0FFE530
:10C46F0026C39F503EAF267E00E52C2FFDEE352BC9
:10C47F00FC900FE8E0FBA3E0FAA3E0F98D828C8338
:10C48F00126E5AFDE52A2FFFEE3529FE900FEBE0D5
:10C49F00FBA3E0FAA3E0F98F828E83ED126ECC0539
:10C4AF002680B7052502C426E4F525AF257E00C3F7
:10C4BF00EF9528EE9527400302C55A900FE5E02F20
:10C4CF00FFEE33FEEF7807C333CE33CED8F9FF90AC
:10C4DF000FE4E07C002FF52AEC3EF529900FE6E003
:10C4EF00FFE5258FF0A485F02BF52CE4F526900FB2
:10C4FF00E6E0FFE526C39F504DAF267E00E52A2FCD
:10C50F00FDEE3529FC900FEBE0FBA3E0FAA3E02D45
:10C51F00F9EA3CFAC003C002C001126E41FDE52CDE
:10C52F002FFFEE352BFE900FE8E0FBA3E0FAA3E020
:10C53F00F98F828E83126E5A4DD001D002D0031222
:0BC54F006EBA052680A8052502C4BABC
:01C55A0022BE
:06EB55007B017A0879083B
:0BEB5B00900FF3EBF0A3EAF0A3E9F049
:10EB6600E4F52FF530900FF3E0FBA3E0FAA3E0F90C
:10EB7600853082852F83E4126ECC0530E530700235
:0AEB8600052FB400E0E52FB404DB16
:01EB90002262
:0BDF3B00900FE4EFF0A3EDF0A3EBF07B
:10DF4600A3E0131313541F752700F528E4F525AF36
:10DF5600257E00C3EF9528EE95275055900FE5E0F6
:10DF66002FFFEE33FEEF7807C333CE33CED8F9FF5B
:10DF7600900FE4E07C002FF52AEC3EF529E4F52627
:10DF8600900FE6E0FFE526C39F50227E00E52A2596
:10DF960026FFEE3529FE900FE8E0FBA3E0FAA3E0AA
:10DFA600F98F828E83E4126ECC052680D3052580F8
:01DFB6009ECC
:01DFB7002247
:10ECE900E4F525F52674082526F58274003525F501
:10ECF90083E0FF74082526F58274043525F583EF32
:10ED0900F00526E52670020525B400D9E525B404E9
:01ED1900D425
:01ED1A0022D6
:03009E0002E895E0
:0AE3F200900FF3EFF0900FF5EBF041
:10E3FC00AF058F2F900FF6E0FFE52FC39F5047908E
:10E40C000FF3E0FFAD2F12F018E52F75F080A48507
:10E41C00F031F532E4F530900FF5E0FFE530C39FB5
:10E42C0050207E00E5322530FFEE3531FE74082F8A
:10E43C00F58274003EF583E0FF7D0112F094053007
:06E44C0080D5052F80AE13
:01E4520022A7
:0E9D6400900FE4EBF0A3EAF0A3E9F0A3EDF01A
:109D72006003029E76F525E4F526E52675F080A4BB
:109D820085F029F52A2480F52CE43529F52B85293F
:109D920027852A28C3E528952CE527952B503E7464
:109DA200882528F58274003527F583E0C4333354BF
:109DB200C0FF74082528F58274003527F583E01367
:109DC20013543F4FFF74082528F58274003527F598
:109DD20083EFF00528E52870BB052780B70526E547
:109DE20026B40796E5251313543F75F080A485F039
:109DF20029F52AE525540375F002A4FFAEF0C374D9
:109E0200069FF52CE49EF52BE4F5267E00E52A2537
:109E120026FFEE3529FE900FE4E0FBA3E0FAA3E073
:109E2200F98F828E83126E5AFFAE2CA8060880022A
:109E3200C333D8FC54C0FF74882526F582E434036A
:109E4200F583E0FE1313543F4FFF74882526F582F5
:109E5200E43403F583EFF00526E526B480AD7B01FB
:109E62007A00790812E8950525E525C39420500368
:109E7200029D7922900FE7E064016003029F9DF545
:109E820025E4F526C374079526FFE49400FEEF78D7
:109E920007C333CE33CED8F9F52A8E292480F52C88
:109EA200E43529F52B852927852A28C3E528952C11
:109EB200E527952B503E74082528F5827400352736
:109EC200F583E025E025E0FF74882528F58274FFFC
:109ED2003527F583E0C4131354034FFF7408252874
:109EE200F58274003527F583EFF00528E52870BB6D
:109EF200052780B70526E52664077088E525131334
:109F0200543FFFC374079FFFE49400FEEF7807C33A
:109F120033CE33CED8F9F52A8E29E525540375F0D0
:109F220002A4FFAEF0C374069FF52CE49EF52BE469
:109F3200F5267E00E52A2526FFEE3529FE900FE460
:109F4200E0FBA3E0FAA3E0F98F828E83126E5AFF40
:109F5200AE2CA806088002C313D8FC5403FF740871
:109F62002526F582E43400F583E0FE25E025E04F66
:109F7200FF74082526F582E43400F583EFF0052608
:109F8200E526B480AD7B017A00790812E8950525B3
:109F9200E525C394205003029E8322900FE7E064DC
:109FA20002600302A082F525E4F526E52675F0801D
:109FB200A485F029F52A247EF52CE43529F52B8594
:109FC2002927852A28C3E528952CE527952B502695
:109FD200740A2528F58274003527F583E0FF74089A
:109FE2002528F58274003527F583EFF00528E5284A
:109FF20070D3052780CF900FE4E0FBA3E0FAA3E043
:10A00200F975F002E525A4252AF582E5F03529F552
:10A0120083126E5AFF7408252CF5827400352BF5D5
:10A0220083EFF0E52A2401FFE43529FE75F002E50D
:10A0320025A42FF582E5F03EF583C083C082900F00
:10A04200E4E0FBA3E0FAA3E0F9D082D083126E5AD7
:10A05200FF7409252CF5827400352BF583EFF0058A
:10A0620026E52664086003029FAD7B017A00790829
:10A0720012E8950525E525C394405003029FAA22C4
:10A08200900FE7E06403600302A160F525E4F52682
:10A09200E52675F080A485F029F52A247FF52CE4C5
:10A0A2003529F52BF527852C28D3E528952AE52790
:10A0B2009529402674062528F58274003527F583F4
:10A0C200E0FF74082528F58274003527F583EFF048
:10A0D200E528152870D3152780CFE52575F002A451
:10A0E200FFE52A247FCDE43529CDC39FFFED95F00E
:10A0F200FE900FE4E0FBA3E0FAA3E0F98F828E83E7
:10A10200126E5AFF7409252AF58274003529F583E7
:10A11200EFF0E52575F002A4FFE52A247ECDE435B3
:10A1220029CDC39FFFED95F08F82F583126E5AFF02
:10A132007408252AF58274003529F583EFF0052687
:10A14200E5266408600302A0927B017A0079081276
:0EA15200E8950525E525C39440500302A08F33
:01A1600022DC
:06CD71007B017A0879083D
:0ECD7700900FF3EBF0A3EAF0A3E9F0A3EDF0C8
:10CD8500E4F52F900FF6E0FFE52FC39F400302CE99
:10CD950084E4F530E53075F080A485F033F534246E
:10CDA50080F536E43533F535853331853432C3E5E1
:10CDB500329536E5319535503D74882532F58274C6
:10CDC500003531F583E0C43333335480FF740825CF
:10CDD50032F58274003531F583E0C3134FFF7408D3
:10CDE5002532F58274003531F583EFF00532E532F1
:10CDF50070BC053180B80530E530B40797E52F13D1
:10CE05001313541F75F080A485F033F534E52F54C2
:10CE150007FFC374079FF536E49400F535E4F53054
:10CE25007E00E5342530FFEE3533FE900FF3E0FB51
:10CE3500A3E0FAA3E0F98F828E83126E5AFFAE3615
:10CE4500A806088002C333D8FC5480FF74882530B7
:10CE5500F582E43403F583E0FEC3134FFF748825A0
:10CE650030F582E43403F583EFF00530E530B48026
:0FCE7500AF7B017A00790812E895052F02CD886E
:01CE8400228B
:0EC6A600900FE4EBF0A3EAF0A3E9F0A3EDF0AF
:10C6B400E4F525900FE7E0FFE525C39F400302C79B
:10C6C400D0E4F526C374079526FFE49400FEEF78C2
:10C6D40007C333CE33CED8F9F52A8E292480F52C1E
:10C6E400E43529F52B852927852A28C3E528952CA7
:10C6F400E527952B503D74082528F58274003527CD
:10C70400F583E025E0FF74882528F58274FF35273A
:10C71400F583E0C413131354014FFF74082528F55F
:10C724008274003527F583EFF00528E52870BC05F1
:10C734002780B80526E52664077089E525131313B9
:10C74400541FFFC374079FFFE49400FEEF7807C3F0
:10C7540033CE33CED8F9F52A8E29E5255407FFC305
:10C7640074079FF52CE49400F52BE4F5267E00E590
:10C774002A2526FFEE3529FE900FE4E0FBA3E0FA1C
:10C78400A3E0F98F828E83126E5AFFAE2CA806089E
:10C794008002C313D8FC5401FF74082526F582E4F3
:10C7A4003400F583E0FE25E04FFF74082526F5826A
:10C7B400E43400F583EFF00526E526B480AF7B0171
:0CC7C4007A00790812E895052502C6B736
:01C7D0002246
:0AF3A600EF600302F1FF12F33A22B8
:0BF36900EFD394FF40027FFF02F2BFD1
:10F12200EF60097F0112F2107F018007E4FF12F203
:07F1320010E4FF12F221229C
:03F4430002F232A0
:10AE4F00EF75F00A84900FEEF0EF75F00A84A3E52A
:10AE5F00F0F0A3740AF0ED75F00A84A3F0ED75F02D
:10AE6F000A84A3E5F0F0A3740AF0EB75F00A84A34B
:10AE7F00F0EB75F00A84A3E5F0F0900FE47407F09F
:10AE8F00900FE4E0FFC364809480500302B0B8EFEA
:10AE9F003395E0FE74002FF58274003EF583E0FDDC
:10AEAF0074EE2FF582740F3EF583E06D700302B0E0
:10AEBF008EE4900FE5F0E4FBEB2401FFE433FEEFAB
:10AECF007807C333CE33CED8F9FDAC06900FE4E04C
:10AEDF00FF3395E0FEEFC4F8540FC868FFEEC4547B
:10AEEF00F048FEED2FFFEC3E900FE8F0A3EFF0904F
:10AEFF000FE8E0FCA3E0FD2410FEE43CA3F0A3CE9A
:10AF0F00F0900FE6ECF0A3EDF0900FEAE0FEA3E077
:10AF1F00FF900FE6E0FCA3E0FDC39FEC9E504C7446
:10AF2F00882DF58274003CF583E0FE74082DF582C0
:10AF3F0074003CF583E0FDEDFF900FECEEF0A3EF16
:10AF4F00F0900FECE0C313A3E013FF900FE6A3E024
:10AF5F002408F58274003CF583EFF0900FE7E004CE
:10AF6F00F07006900FE6E004F0809E0BEB64056036
:10AF7F000302AEC7EB2401FFE433FEEF7807C333C0
:10AF8F00CE33CED8F9FDAC06900FE4E0FF3395E059
:10AF9F00FEEFC4F8540FC868FFEEC454F048FEED3E
:10AFAF002FFFEC3E900FE8F0A3EFF0900FE5E0FDE0
:10AFBF00131313541F75F010A4FF900FEAE5F0F070
:10AFCF00A3EFF0ED5407FFC374079FF9E4900FE66A
:10AFDF00F0A3F0900FE6E0FEA3E0FF900FEBE02F61
:10AFEF00FD900FEAE03EFC900FE4E0FB3395E0FAB2
:10AFFF0074EE2BF582740F3AF583E075F060A4249C
:10B00F004FF582E5F0348CF583E5822DF582E583EB
:10B01F003CF583E493FDA801088002C333D8FC54A8
:10B02F0080FD900FE8E0FAA3E02FFFEE3AFE7408E0
:10B03F002FF58274003EF583E0FCC3134DFD7408B9
