:10D59B0041543A5354520D0A0041543A4F4B0041F7
:10D5AB00543A454E440D0A0041543A454E4400410D
:10D5BB00543A424155443D25640D0A004F4B2B53C1
:10D5CB0065740041543A414456543D25640D0A009C
:10D5DB006164765F74696D653A000D0A004368619A
:10D5EB006E676564204E616D6520746F3A0041541F
:10D5FB003A525353493F0D0A00525353493A004193
:10D60B00542B524553540D0A004D7920626C7565AD
:10D61B00746F6F74680000000000000000000000D1
:10D62B0000000000000000000000000000000000EF
:10D63B00000041543A4E414D453D000000000000B2
:0ED64B000000000000000000000000000000D1
:0875AD00C11F4111A300C12020
:10005E0090100FEBF0A3EAF0A3E9F090100FE0FB85
:10006E00A3E0FAA3E0F9126E0D601C201FFDD21F53
:10007E0090100FE0FBA3E475F001126F5BA9F0FA8C
:0D008E00126E0DF59B80D4E49011A3F022BA
:0300430002DF9445
:10DF9400C0E0C083C082C0D075D008E59A30E105E6
:10DFA400539AFDC21FE59A30E057539AFE9011A38D
:10DFB400E0FF04F074232FF582E43411F583E59B2C
:10DFC400F09011A3E0FF2422F582E43411F583E0FC
:10DFD400B40A2E74212FF582E43411F583E09011F4
:10DFE400A3B40D0AE02421F582E434118008E0246E
:10DFF40022F582E43411F583E4F0D2209011A3E4F5
:0AE00400F0D0D0D082D083D0E032FB
:10EDA800900FE6EBF0A3EAF0A3E9F030201DC220B3
:10EDB800900FE6E0FBA3E0FAA3E0F8AC02AD037B1A
:0EEDC800017A1179231273007F01227F00224D
:06E0FA007B017D057C00A6
:10E10000901009ECF0A3EDF0901006EBF0A3EAF00C
:10E11000A3E9F0C220801E20202790100974FFF58B
:10E12000F0126F4545F07002FF22901006E0FBA34D
:10E13000E0FAA3E0F912005E7F0A7E0012F113807C
:10E14000D6C22090100EE0FF7E0078237C117D0166
:10E1500090100BE0FBA3E0FAA3E0F91274A3EF70B8
:07E16000037F01227F002272
:10EE010090100B74FFF0A374D5F0A374A4F0A37455
:10EE110005F07BFF7AD5799B7D147C0012E100EF30
:08EE210060037F01227F002243
:10EE290090100B74FFF0A374D5F0A374B3F0A3741E
:10EE390006F07BFF7AD579AA7D147C0012E100EFF8
:08EE490060037F01227F00221B
:05E49100900FE7EFF021
:10E4960078E87C0F7D017BFF7AD679217E007F0CA0
:10E4A600126DE790101C74FFF0A374D5F0A374BA34
:10E4B600F0900FE7E0FF90101FE4F0A3EFF07B0170
:10E4C6007A0F79E812991C90100B74FFF0A374D59B
:10E4D600F0A374C7F0A37406F07A0F79E812E0FA95
:08E4E600EF60037F01227F00BB
:01E4EE00220B
:08E30A00900FE7EEF0A3EFF025
:10E3120078E97C0F7D017BFF7AD6792D7E007F1014
:10E32200126DE790101C74FFF0A374D5F0A374CEA5
:10E33200F0900FE7E0FFA3E090101FCFF0A3EFF003
:10E342007B017A0F79E912991C90100B74FFF0A3EC
:10E3520074D5F0A374DBF0A37409F07A0F79E91293
:0AE36200E0FAEF60037F01227F0064
:01E36C00228E
:0BE00E00900FE7EBF0A3EAF0A3E9F0AD
:10E0190078EA7C0F7D017BFF7AD6793D7E007F1CF3
:10E02900126DE7900FE7E0F9A3E0FAA3E090100979
:10E03900C9F0A3EAF0A3E9F07B017A0F79EA12E1CA
:10E04900D390100974FFF0A374D5F0A374E5F07BA5
:10E05900017A0F79EA12E1D390100B74FFF0A374DF
:10E06900D5F0A374E8F0A37410F07B017A0F79EA74
:0BE0790012E0FCEF60037F01227F003B
:01E084002279
:10EE790090100B74FFF0A374D6F0A37404F0A3747C
:10EE890005F07BFF7AD579F9FD7C0012E100EF608E
:07EE9900037F01227F00222C
:09F42E007BFF7AD6790A02005E28
:0AF3F200EFB40103C29622D2962266
:10D32D00E4900FE6F0C2967F32FE12F1137B017A84
:10D33D0000790812EB8812EE01900FE6E0FD900FD8
:10D34D00EF7401F0A37400F0A37408F0A37410F04F
:10D35D00E4A3F0A3F07B017A117923FF12A86F905B
:10D36D000FE6E02FF012EE79EF900FE6605CE0FD36
:10D37D00900FEF7401F0A37400F0A37408F0A37480
:10D38D0010F0E4A3F0A3F07B017A117923FF12A82A
:10D39D006F900FE6E02FF012EE29900FE6E0FD9072
:10D3AD000FEF7401F0A37400F0A37408F0A37410D0
:10D3BD00F0E4A3F0A304F0FB7A117923E4FF12A8A3
:10D3CD006F900FE6E02FF07F0122E0FD900FEF74DC
:10D3DD0001F0A37400F0A37408F0A37410F0E4A39B
:10D3ED00F0A304F0FB7A117923E4FF12A86F900FDC
:06D3FD00E6E02FF07F00C6
:01D403002206
:10C9F200E4900FE6F0D296C2967F64FE12F1131213
:10CA0200EE01EF602F900FE6E0FD900FEF7401F062
:10CA1200A37400F0A37408F0A37410F0E4A3F0A3CD
:10CA220004F0FB7A117923E4FF12A86F900FE6E07D
:10CA32002FF080037F00227F0112E491900FE6E045
:10CA4200FD900FEF7401F0A37400F0A37408F0A33B
:10CA52007410F0E4A3F0A304F0FB7A117923E4FF4D
:10CA620012A86F900FE6E02FF07BFF7AD6791412AE
:10CA7200E00E900FE6E0FD900FEF7401F0A374005A
:10CA8200F0A37408F0A37410F0E4A3F0A304F0FB85
:10CA92007A117923E4FF12A86F900FE6E02FF07F5E
:10CAA200B87E0B12E30A900FE6E0FD900FEF7401DF
:10CAB200F0A37400F0A37408F0A37410F0E4A3F0E0
:10CAC200A304F0FB7A117923E4FF12A86F900FE61A
:10CAD200E02FF012EE29EF602F900FE6E0FD900FAD
:10CAE200EF7401F0A37400F0A37408F0A37410F0C3
:10CAF200E4A3F0A304F0FB7A117923E4FF12A86FF8
:0FCB0200900FE6E02FF080037F0022D2967F0194
:01CB11002201
:10F12D00D3EF9400EE9400400F7D187C55DCFEDD8E
:08F13D00FCEF1F70EB1E80E8DF
:01F1450022A7
:0AF0F90012F1037F0212F1037F10F1
:10F10300ED6004D2938002C293C2C38F80D2C32224
:10F04E00AE07ED24B0FFE4FD12F103EE54F0C4540C
:0EF05E000F4410FF12F103EE540FFF02F103F6
:10F27100E4FD7F8D12F1037F1412F1037FAF02F1E0
:01F281000389
:0CF3AC00E4FD7F8D12F0FE7FAE02F10345
:0EF33100AE07E4FD7F8112F103AF0602F10387
:10F28200EF6006E4FD7FA08004E4FD7FA112F1039C
:01F292002259
:10F29300EF6006E4FD7FC08004E4FD7FC812F10344
:01F2A3002248
:10F2A400EF6006E4FD7FA78004E4FD7FA612F1036E
:01F2B4002237
:10F02F00E4FEEE24B0FFE4FD12F0F9E4FC7D01E410
:0EF03F00FF12F1030CECB480F40EEEB408E402
:01F04D0022A0
:10E83C00E4F537E53724B0FFE4FD12F0FEE4FF12F7
:10E84C00F103E53775F080A485F039F53AE4F53835
:10E85C007E00E53A2538FFEE35398F82F583126E4E
:10E86C0026FF7D0112F1030538E538C3948040E0A2
:09E87C000537E537C3940840BAE2
:01E885002270
:10DA6800D2927F147E0012F12DC2927F0A7E00129C
:10DA7800F12DD292D2C4E4FD7FAE12F0F97F4012AC
:10DA8800F1037F8112F1037F7F12F1037FC812F146
:10DA9800037FA112F1037FA812F1037F3F12F10364
:10DAA8007FD312F103E4FF12F1037FD512F1037F54
:10DAB8008012F1037FD912F1037FF112F1037FDAAB
:10DAC80012F1037F1212F1037FDB12F1037F401280
:10DAD800F1037F2012F1037F0212F1037F8D12F10F
:10DAE800037F1412F1037FA412F1037FA612F1033E
:10DAF8007FAF12F10312F10312F02FE4FDFF02F0E1
:01DB08004ECE
:1075B5004212AB00004212AE00004212B00040423F
:1075C50012B290884212B500004212B70000421272
:1075D500A500004112A4004112BA004112B40841AD
:0775E50012B9084112A300D6
:06E54A00FFEEF0A3EFF06C
:10E550009012ABE0FCA3E0FDEC900FEAF0A3EDF02D
:10E560009012AEE0FCA3E0FDEC900FECF0A3EDF018
:10E570009012B0E0FCA3E0FDEC900FEEF0A3EDF004
:10E580009012B2E0FCA3E0FDEC900FF0F0A3EDF0F0
:10E5900043BA107B017A0F79EA7D087F2012EB43A2
:03E5A00053BAEF7C
:01E5A3002255
:10E36D0043BA107B017A0F79EA7D047F2012ED48C4
:10E37D0053BAEF900FEAE0FF9012B5E4F0A3EFF07F
:10E38D00E07F00FE9012B5F0A3EFF0900FEBE0FDF3
:10E39D00EDFF9012B5EEF0A3EFF0900FECE0FF90D3
:10E3AD0012B7E4F0A3EFF0E07F00FE9012B7F0A3F8
:10E3BD00EFF0900FEDE0FDEDFF9012B7EEF0A3EF53
:01E3CD00F05F
:01E3CE00222C
:10E23E009012ACE04402F012E5507F0A7E0012F11B
:10E24E00139012AB74D0F0A3E4F09012A4E075F02A
:10E25E0004A4FDACF0A3E0FEA3E07806C333CE33F6
:10E26E00CED8F9FFEE4CFEEF4DFF9012BAE0FDEF67
:10E27E004DFF9012AEEEF0A3EFF0E4A3F0A3F090FA
:10E28E0012B4E04480FE9012B9E0FD74804D9012FD
:07E29E00B212E54A7F0122E4
:10EE5100AD07AC06D3ED940FEC940040047C007D2B
:10EE61000F9012B3E054F0F0ED540FFF9012B2E0A6
:08EE7100F0A3E04FF002E550B0
:02D91600AD075B
:10D918009012A3E070309012AFE054EFF0EF901245
:10D92800ABB40109E04402F0A3E0F08004E054FD48
:10D93800F09012ABE04401F0A3E0F012E550901231
:10D94800A3E004F0806D9012A3E06401706512E317
:10D958006D9012B5E030E65B9012ABE054FEF090AB
:10D9680012B5E05403FEA3E0FF9012A5EEF0A3EF7A
:10D97800F0FDAC06E4126A447BCD7ACC79CC783DD4
:10D9880012680FE4FBFA79AE784212671E9012A76C
:10D998001271A59012B7E0C313543F9012ADF0E492
:10D9A8009012A3F09012A7E0FCA3E0FDA3E0FEA371
:08D9B800E0FF22E4FFFEFDFC8C
:01D9C0002244
:10D70C00900FE61271A59012ABE054FEF09012AFA0
:10D71C00E04410F0E4FFFE7D207C41900FE6E0F841
:10D72C00A3E0F9A3E0FAA3E0FB12680F7B007A8078
:10D73C00795978C412671E126A7D9012A5EEF0A377
:10D74C00EFF07E009012AFE0543FFF9012AEEEF07F
:10D75C00FCA3EFF0FD9012A5E0FEA3E07806C33326
:10D76C00CE33CED8F9FFEC4EFEED4F9012AE12E553
:10D77C004A800F9012B5E0A320E60C7F037E0012C6
:10D78C00F11312E36D80EC9012AFE054EFF0900FB8
:10D79C00E6E0FCA3E0FDA3E0FEA3E0FF9012A712DD
:0FD7AC0071A59012B7E0C313543F9012ADF02255
:10E9A50012E36D9012B5E05403FEA3E0FF9012A5AB
:10E9B500EEF0A3EFF0FDAC06E4126A447BCD7ACC11
:10E9C50079CC783D12680FE4FBFA79AE784212678C
:10E9D5001E9012A71271A59012A7E0FCA3E0FDA35B
:06E9E500E0FEA3E0FF22AA
:10EC6D0012E36D9012B7E0C313543F9012ADF090C4
:10EC7D0012A5E0FCA3E0FDE4126A447BCD7ACC79C9
:10EC8D00CC783D12680FE4FBFA79AE784212671E1C
:09EC9D00126A7D9012ADEFF02225
:0AF3FC009012ABE054BFF002E550A0
:0AF406009012ACE04401F002E55062
:0AF410009012ACE054FEF002E5504B
:08F1A80075F00A84E5F04EFD4C
:0DF1B000AE05AD07AF06AB077FA202F1D29E
:07F46400AD077FA212F08A40
:01F46B00227E
:04EBF9007B017D809F
:0DEBFD00900FEFEDF0A3EBF0900FEEEFF0B6
:10EC0A0012F464AE07900FF0E0FFB40108900FEF22
:10EC1A00E04EFE800AEF7007900FEFE0F45EFE9080
:09EC2A000FEEE0FFAD0602F1B0AF
:0BCF6800900FE6EBF0A3EAF0A3E9F065
:10CF730090100F7401F0A3740FF0A374E9F07B0712
:10CF83007D027FA212E917900FE9E0547FF0E0FFE2
:10CF9300C4540F75F00AA4FEEF540F2EFF900FE652
:10CFA300E0FBA3E0FAA3E0F9EF126E86900FEAE04C
:10CFB300547FF0E0FFC4540F75F00AA4FEEF540F42
:10CFC3002EFF900FE6E0FBA3E0FAA3E0F990000147
:10CFD300EF126E98900FEBE0543FF0E0FFC4540F54
:10CFE30075F00AA4FEEF540F2E900002126E989073
:10CFF3000FECE0543FF0E0FFC4540F75F00AA4FEB9
:10D00300EF540F2E900004126E98900FEDE054072A
:10D01300F070037407F0900FEDE0FF900FE6E0FB74
:10D02300A3E0FAA3E0F9900003EF126E98900FEEDD
:10D03300E0FF30E0089000087401126E53EF541FB4
:10D04300900FEEF0E0FFC4540F75F00AA4FEEF5406
:10D053000F2E900005126E98900FEFE024D0FFE49E
:0AD0630034079000068FF0026FF30F
:10E7A200900FE6EFF0A3EDF0EB75F00A84C454F09D
:10E7B200FFEB75F00A84E5F04FFD7F0212F1B09095
:10E7C2000FE7E0FF75F00A84C454F0FEEF7F0312F6
:10E7D200F1A8900FE6E0FF75F00A84C454F0FEEF52
:0DE7E20075F00A84E5F04EFD7F0402F1B0F1
:10E2A500900FE6EEF0A3EFF0A3EDF0A3EBF0900FE7
:10E2B500E7E02430F0900FE6E034F8F0A3E0FD7FCE
:10E2C5000812F1B0900FE8E0FF75F00A84C454F02D
:10E2D500FEEF7F0712F1A8900FE9E0FF75F00A84C1
:10E2E500C454F0FEEF75F00A84E5F04EFD7F05128B
:10E2F500F1B0900FEAE0B40702E4F0900FEAE0FD18
:05E305007F0602F1B0EB
:02D4D900AE059E
:10D4DB00E4900FEBF0A3F0A3F0EF75F00A84C454C3
:10D4EB00F04480FDEF75F00A84E5F04DFDEE75F02C
:10D4FB000A84C454F04480FFEE75F00A84E5F04FC3
:10D50B00900FEBF0EB4480A3F0900FE9E0FF75F088
:10D51B000A84C454F04480FEEF75F00A84E5F04EA3
:10D52B00900FEDF0900FEAE0FF64026004EFB4019E
:10D53B0009ED547FFD900FEB8026900FEAE0FEB4CF
:10D54B00030CED547FFDA3E0547FF0A38012EEB4E7
:10D55B000412ED547FFD900FEBE0547FF0900FED34
:10D56B00E0547FF07F0A12F1B0900FEBE0FD7F09E2
:10D57B0012F1B0900FECE0FD7F0C12F1B0900FEDBB
:10D58B00E0FD7F0B12F1B07B017D027F0102EBFD11
:09F43700E4FB7D087F0102EBFDFE
:10EF3B007F0A12EBF97F0912EBF97B017D807F0CC5
:10EF4B0012EBFD7B017D807F0B12EBFDE4FB7D085B
:05EF5B007F0102EBFD47
:10ECDF00900FE6EFF0A3EDF0E4FB7D807F0E12EBDB
:10ECEF00FD900FE6E0FD7F0E12F1B0900FE7E0FD13
:10ECFF007F0F12F1B07B017D017F0112EBFD7B01D4
:07ED0F007D807F0E02EBFD89
:09F44000E4FB7D047F0102EBFDF9
:10F24D00E4FB7D017F0112EBFDE4FB7D807F0E026F
:02F25D00EBFDC7
:09F41A007F0112F464EF540CFFB1
:01F4230022C6
:10F2B500AE05EEC433333354804FFD7F0D02F1B0FC
:10F2260012F43712F4407D017F0312ECDFE4FD7F18
:04F236000102F2B52A
:06F4A30000010204081044
:1075EC0041129E004112720541128D0541127E0519
:0C75FC004112920241126D0441129300F2
:10EEA00090126DE025E025E0FF901292E0FEC43361
:0AEEB00054E04FFFA3E04FFD7FF593
:0DEEBA00AE05AD07AF06AB077FEC02F1D24D
:07F46C00AD077FEC12F08AEE
:01F473002276
:0EF33F007FD012F46CBF60037F01227F00229A
:10D06D0078D17C127D017BFF7AF479A37E007F0657
:10D07D00126DE790128DE0FFD39405501174D12FEE
:10D08D00F582E43412F583E09012CEF08006901212
:10D09D00CE7410F090127EE0FFD39405501174D130
:10D0AD002FF582E43412F583E09012CFF0800690D4
:10D0BD0012CF7410F0901272E0FFD39405501174DA
:10D0CD00D12FF582E43412F583E09012D0F0800672
:10D0DD009012D07410F09012CFE0FCE4126A497BEC
:10D0ED00337A337913784012680F7B337A3379139F
:10D0FD00783F12671EC004C005C006C0079012CE4F
:10D10D00E0FCE4126A497B337A3379137840126874
:10D11D000FE4FBFA79A0783F12671ED003D002D03E
:10D12D0001D00012671EC004C005C006C0079012D2
:10D13D00D0E0FCE4126A497B337A337913784012DC
:10D14D00680F7B337A337913783F12671ED003D083
:0DD15D0002D001D00012671E126A7D7E0014
:01D16A0022A2
:10BF810090100F7401F0A3740FF0A374EBF07B1AFF
:10BF91007D887FEC12E91790100F7401F0A37410E3
:10BFA100F0A37405F07B077DE17FEC12E917900F98
:10BFB100ECE0FE900FEBE0FDEDFF901283EEF0A3BD
:10BFC100EFF0900FEEE0FE900FEDE0FDEDFF90122F
:10BFD10087EEF0A3EFF0900FF0E0FE900FEFE0FDA1
:10BFE100EDFF90128BEEF0A3EFF0900FF2E0FE90D8
:10BFF1000FF1E0FDEDFF901278EEF0A3EFF0900F5E
:10C00100F4E0FE900FF3E0FDEDFF90127AEEF0A365
:10C01100EFF0900FF6E0FE900FF5E0FDEDFF9012CE
:10C021007CEEF0A3EFF0900FF8E0FE900FF7E0FD4B
:10C03100EDFF90127FEEF0A3EFF0900FFAE0FE908B
:10C041000FF9E0FDEDFF901281EEF0A3EFF0900FFC
:10C05100FCE0FE900FFBE0FDEDFF901285EEF0A3FA
:10C06100EFF0900FFEE0FE900FFDE0FDEDFF90126E
:10C0710089EEF0A3EFF0901000E0FE900FFFE0FDDD
:10C08100EDFF90128EEEF0A3EFF0901002E0FE9023
:10C091001001E0FDEDFF901290EEF0A3EFF0901093
:10C0A10004E090126EF0901006E0FE901005E0FDA5
:10C0B100EDFF90126FEEF0A3EFF0901007E09012F9
:10C0C10071F0901008E075F010A4FFA3E0FDEF4DB2
:10C0D100FF901273E5F0F0A3EFF090100AE075F015
:10C0E10010A4FF901009E0C4540FFDEF4DFF901212
:0FC0F10075E5F0F0A3EFF090100BE0901277F0F0
:01C10000221C
:10D2550090100F7401F0A3740FF0A374E9F07B082C
:10D265007DF77FEC12E917900FEAE0FFE4FCFDFE85
:10D2750078041270A7C004C005C006C007900FE966
:10D28500E0FFE4FCFDFE780C1270A7D003D002D0BD
:10D2950001D000EF4BFFEE4AFEED49FDEC48FCA83E
:10D2A50004A905AA06AB07900FEBE0C4540FFFEBEA
:10D2B5004FFFEAFEE9FDE8FC90129A1271A5900F66
:10D2C500EDE0FFE4FCFDFE78041270A7C004C00584
:10D2D500C006C007900FECE0FFE4FCFDFE780C12E1
:10D2E50070A7D003D002D001D000EF4BFFEE4AFE6D
:10D2F500ED49FDEC48FCA804A905AA06AB07900F6B
:10D30500EEE0C4540FFFEB4FFFEAFEE9FDE8FC90A9
:10D3150012941271A5900FEFE0FEA3E0FDEDFF90D2
:07D325001298EEF0A3EFF0F7
:01D32C0022DE
:10B91100900FF51271B1C2200000900FF91271B1B0
:10B9210042AA0000901294E0FCA3E0FDA3E0FEA374
:10B93100E0FFE4126A3FE4FBFA7980784612691865
:10B94100C004C005C006C007901283E0FCA3E0FD5F
:10B95100E4126A44E4FBFA79807844126918A80475
:10B96100A905AA06AB07D007D006D005D0041267F7
:10B971001A900FE91271A5901287E0FCA3E0FDEC8B
:10B98100126A44900FE9E0F8A3E0F9A3E0FAA3E01A
:10B99100FB12680F900FE91271A5901294E0FCA3BD
:10B9A100E0FDA3E0FEA3E0FFE4126A3FE4FBFAF945
:10B9B1007848126918C004C005C006C007901283F8
:10B9C100E0FCA3E0FDE4126A44E4FBFAF9784612D4
:10B9D1006918A804A905AA06AB07D007D006D005A7
:10B9E100D00412671A900FED1271A590128BE0FC32
:10B9F100A3E0FDEC126A44C004C005C006C0079074
:10BA01000FEDE0FCA3E0FDA3E0FEA3E0FFA804A985
:10BA110005AA06FB12680FD003D002D001D0001294
:10BA2100680F900FED1271A5900FEDE0FCA3E0FD02
:10BA3100A3E0FEA3E0FF900FE9E0F8A3E0F9A3E0A3
:10BA4100FAA3E0FB12671E126A7D90129F1271A584
:10BA5100900FEDE0FCA3E0FDA3E0FEA3E0FF900F5B
:10BA6100E9E0F8A3E0F9A3E0FAA3E0FB12671EE422
:10BA7100FBFA79A07845126918900FF11271A5901F
:10BA81000FF5E0FCA3E0FDA3E0FEA3E0FF900FF1C2
:10BA9100E0F8A3E0F9A3E0FAA3E0FB1269B55005D1
:10BAA100900FF58026900FF9E0FCA3E0FDA3E0FEE6
:10BAB100A3E0FF900FF1E0F8A3E0F9A3E0FAA3E01F
:10BAC100FB1269B560164014900FF9E0FCA3E0FD8C
:10BAD100A3E0FEA3E0FF900FF11271A5900FF1E03A
:0ABAE100FCA3E0FDA3E0FEA3E0FFDC
:01BAEB002238
:10A13700900FF91271B146EA6000900FFD1271B1EC
:10A1470047D6D80090129FE0FCA3E0FDA3E0FEA352
:10A15700E0FFEC126A3FE4FBFAF97840126918E471
:10A16700FBFA797A78C712671E900FE91271A590EA
:10A177001285E0FCA3E0FDEC126A44C004C005C0F0
:10A1870006C007900FE9E0FCA3E0FDA3E0FEA3E013
:10A19700FFA804A905AA06FB12680FD003D002D0B6
:10A1A70001D00012680FE4FBFAF97847126918909A
:10A1B7000FED1271A5900FEDE0F8A3E0F9A3E0FA17
:10A1C700A3E0FBC000C001C002C003901281E0FC05
:10A1D700A3E0FDEC126A44900FE9E0F8A3E0F9A3CD
:10A1E700E0FAA3E0FB12680FE4FBFAF97840126883
:10A1F7000FD003D002D001D00012671E900FED12CE
:10A2070071A590127FE0FCA3E0FDEC126A44E4FB29
:10A21700FA7980784712680FC004C005C006C007E6
:10A22700E4FBFA79807840900FEDE0FCA3E0FDA312
:10A23700E0FEA3E0FF126918D003D002D001D000DE
:10A2470012671E900FED1271A590127CE0FCA3E03F
:10A25700FDEC126A44900FE9E0F8A3E0F9A3E0FAF5
:10A26700A3E0FB12680F900FE9E0F8A3E0F9A3E081
:10A27700FAA3E0FB12680FE4FBFAF97849126918B0
:10A28700900FF11271A590127AE0FCA3E0FDEC1299
:10A297006A44900FE9E0F8A3E0F9A3E0FAA3E0FB32
:10A2A70012680F900FF1E0F8A3E0F9A3E0FAA3E03A
:10A2B700FB12671EE4FBFAF97849126918900FE957
:10A2C7001271A5E4FBFAF97847900FE9E0FCA3E0E7
:10A2D700FDA3E0FEA3E0FF126918E4FBFA7980789A
:10A2E7003F12671EC004C005C006C007901278E081
:10A2F700FCA3E0FDE4126A44D003D002D001D000F1
:10A3070012680F900FE91271A5E4FFFEFDFC900F94
:10A31700E9E0F8A3E0F9A3E0FAA3E0FB1269B5606E
:10A3270002500302A4CD90129AE0FCA3E0FDA3E043
:10A33700FEA3E0FFE4126A3FA804A905AA06AB073B
:10A34700E4FFFE7D807C4912671A900FF51271A514
:10A35700E4FBFA79807845900FEDE0FCA3E0FDA3DC
:10A36700E0FEA3E0FF126918A804A905AA06AB0737
:10A37700900FF5E0FCA3E0FDA3E0FEA3E0FF12676A
:10A387001A7B007A5079C3784512680F900FE9E07D
:10A39700F8A3E0F9A3E0FAA3E0FB126918900FF520
:10A3A7001271A5901290E0FCA3E0FDEC126A4490B4
:10A3B7000FF5E0F8A3E0F9A3E0FAA3E0FB12680FBA
:10A3C700900FF5E0F8A3E0F9A3E0FAA3E0FB126829
:10A3D7000FE4FBFAF9784F126918900FE91271A58B
:10A3E70090128EE0FCA3E0FDEC126A44900FF5E0BA
:10A3F700F8A3E0F9A3E0FAA3E0FB12680FE4FBFA85
:10A40700F97847126918900FED1271A5900FF5E0D2
:10A41700F8A3E0F9A3E0FAA3E0FBC000C001C00283
:10A42700C003901289E0FCA3E0FDEC126A44C0046B
:10A43700C005C006C007900FEDE0FCA3E0FDA3E058
:10A44700FEA3E0FF900FE9E0F8A3E0F9A3E0FAA389
:10A45700E0FB12671ED003D002D001D00012671EA6
:10A46700E4FBFA79807841126918D003D002D00151
:10A47700D00012671E900FF51271A5900FF9E0FC3E
:10A48700A3E0FDA3E0FEA3E0FF900FF5E0F8A3E053
:10A49700F9A3E0FAA3E0FB1269B550028028900FF8
:10A4A700FDE0FCA3E0FDA3E0FEA3E0FF900FF5E0D5
:10A4B700F8A3E0F9A3E0FAA3E0FB1269B5601B403B
:10A4C70019900FFD8003900FF9E0FCA3E0FDA3E0D6
:10A4D700FEA3E0FF900FF51271A5900FF5E0FCA326
:08A4E700E0FDA3E0FEA3E0FF8D
:01A4EF00224A
:10B08F00900FED1271B100000000900FF11271B12D
:10B09F0042C8000090129FE0FCA3E0FDA3E0FEA3D6
:10B0AF00E0FFEC126A3FE4FBFA799678C712671E4D
:10B0BF00900FF51271A5901275E0FCA3E0FDEC1254
:10B0CF006A44E4FBFA79807846126918900FF5E02C
:10B0DF00F8A3E0F9A3E0FAA3E0FB12680FC004C0E5
:10B0EF0005C006C007901273E0FCA3E0FDEC126AE6
:10B0FF0044E4FBFA7980784212680FD003D002D073
:10B10F0001D00012671E900FF91271A5901298E0EE
:10B11F00FCA3E0FDE4126A44900FF9E0F8A3E0F914
:10B12F00A3E0FAA3E0FB12671A900FFD1271A5902E
:10B13F00126FE0FCA3E0FDEC126A44E4FBFA7980A5
:10B14F0078471269189010011271A5901271E0FCE6
:10B15F00E4126A49E4FBFA7980784C126918900F6F
:10B16F00F5E0F8A3E0F9A3E0FAA3E0FB12680FE41F
:10B17F00FBFA7980783F12671E9010051271A59027
:10B18F001277E0FC126A49E4FBFA7980784C126975
:10B19F0018900FF5E0F8A3E0F9A3E0FAA3E0FB1293
:10B1AF00680F901005E0F8A3E0F9A3E0FAA3E0FB25
:10B1BF0012680FE4FBFA7980783F12671E9010092E
:10B1CF001271A5901009E0FCA3E0FDA3E0FEA3E03F
:10B1DF00FF901005E0F8A3E0F9A3E0FAA3E0FB125B
:10B1EF00680FC004C005C006C007901001E0FCA3A3
:10B1FF00E0FDA3E0FEA3E0FF900FFDE0F8A3E0F970
:10B20F00A3E0FAA3E0FB12680FD003D002D001D065
:10B21F000012680F9010091271A590126EE0FCE4F5
:10B22F00126A49901009E0F8A3E0F9A3E0FAA3E04D
:10B23F00FB12680FE4FBFAF97849126918A804A900
:10B24F0005AA06AB07E4FFFE7D807C3F12671A90CC
:10B25F001009E0F8A3E0F9A3E0FAA3E0FB12680FEE
:10B26F00900FE91271A5900FF1E0FCA3E0FDA3E0B0
:10B27F00FEA3E0FF900FE9E0F8A3E0F9A3E0FAA343
:10B28F00E0FB1269B560074005900FF18024900F25
:10B29F00EDE0FCA3E0FDA3E0FEA3E0FF900FE9E0EB
:10B2AF00F8A3E0F9A3E0FAA3E0FB1269B5501490FC
:10B2BF000FEDE0FCA3E0FDA3E0FEA3E0FF900FE99C
:10B2CF001271A5900FE9E0FCA3E0FDA3E0FEA3E05F
:01B2DF00FF6F
:01B2E000224B
:10E8D000900FE6EBF0A3EAF0A3E9F012D25512B9DB
:10E8E00011900FE6E0FBA3E0FAA3E0F912710A121F
:10E8F000A137900FE6E0FBA3E0FAA3E0F990000453
:10E9000012712412B08F900FE6E0FBA3E0FAA3E0AF
:07E91000F9900008027124D8
:0EF34D007DB67FE012EEBA7F057E0002F1135E
:10E5FE00900FEA74C8F07F057E0012F11312F33FFC
:10E60E00EF70107F01FE12F113900FEAE014F0701C
:10E61E00ECFF2212F34D12BF8112EEA0901272E0A7
:10E62E00FD7FF212EEBA90127EE025E025E0FF901B
:10E63E00128DE0FEC43354E04FFF90129EE04FFD6A
:07E64E007FF412EEBA7F0118
:01E6550022A2
:10F06C0090129EEFF090127EE025E025E0FE9012CB
:0EF07C008DE0C43354E04E4FFD7FF402EEBA37
:10EF60009012DBEBF0A3EAF0A3E9F07F0112F06C62
:10EF700012D06D12F1139012DBE0FBA3E0FAA3E0D4
:04EF8000F902E8D0DA
:10F1BD00EFD3940740027F07901292EFF012EEA06A
:05F1CD007F0302F06C5D
:10F00F00746865206D6172697820636F756C642018
:10F01F006E6F7420626520736F6C7665640D0A00E5
:1076080058104900000000000000000000000000C1
:1076180000000000000000000000004210610000AF
:10E4EF00FF90106375F01CED1271E2EC75F01CA437
:10E4FF002583F583E5822FF582E5833EF583E0FCE6
:09E50F00A3E0FDA3E0FEA3E0FF80
:10E518009010251271A5E4FFFEFDFC901025E0F88F
:10E52800A3E0F9A3E0FAA3E0FB1269B5901025E097
:10E53800FCA3E0FDA3E0FEA3E0FF5005126A2E80D5
:02E548000022AF
:10E9EB00E4900FE6F0E4900FE7F0900FE7E0FFC341
:10E9FB0094075027900FE6E075F01CA42463F58272
:10EA0B00E43410F58375F004EF1271E21271B1006A
:10EA1B00000000900FE7E004F080CF900FE6E004D9
:05EA2B00F0E0B406C09C
:01EA300022C3
:06C10100900FE61271A58B
:10C10700901062E004F07006901061E004F0900F68
:10C11700EAE0FCA3E0FDA3E0FEA3E0FF900FEAE066
:10C12700F8A3E0F9A3E0FAA3E0FB12680F900FF27F
:10C137001271A5900FEEE0FCA3E0FDA3E0FEA3E0E3
:10C14700FFA804A905AA06FB12680F900FF6127143
:10C15700A5900FE6E0FCA3E0FDA3E0FEA3E0FF90BF
:10C167000FFA1271A5900FEAE0FCA3E0FDA3E0FE31
:10C17700A3E0FF900FFE1271A5900FEEE0FCA3E085
:10C18700FDA3E0FEA3E0FF9010021271A590100638
:10C197001271B13F800000900FE6E0FCA3E0FDA321
:10C1A700E0FEA3E0FF126A2E900FE6E0F8A3E0F9A5
:10C1B700A3E0FAA3E0FB12680F90100A1271A5E43E
:10C1C70090100EF0E490100FF090100EE075F01C38
:10C1D700A42463F582E43410F583C083C0829010F1
:10C1E7000FE0D082D08375F0041271E2C083C08261
:10C1F700E0F8A3E0F9A3E0FAA3E0FBC000C001C0A8
:10C2070002C00390100FE025E025E024F2F582E458
:10C21700340FF583E0FCA3E0FDA3E0FEA3E0FF906D
:10C22700100EE025E025E024F2F582E4340FF583D3
:10C23700E0F8A3E0F9A3E0FAA3E0FB12680FD0034C
:10C24700D002D001D00012671ED082D0831271A510
:10C2570090100FE004F0E06407600302C1D0901073
:0CC267000EE004F0E06406600302C1CBAE
:01C2730022A8
:10DE9700E4901019F0E490101AF0901019E075F062
:10DEA7001CA42463F582E43410F583C083C08290F8
:10DEB700101AE0D082D08375F0041271E2C083C0DB
:10DEC70082E0FCA3E0FDA3E0FEA3E0FFC004C005E1
:10DED700C006C007901061E0FCA3E0FDEC126A44A5
:10DEE700A804A905AA06AB07D007D006D005D00419
:10DEF700126918D082D0831271A590101AE004F02D
:0FDF0700E0B40796901019E004F0E0640670860D
:01DF160022E8
:0ED16B00901025EEF0A3EFF0A3ECF0A3EDF092
:10D17900A31271B100000000E490102DF090102569
:10D18900A3E075F01CA42463F582E43410F583C090
:10D1990083C08290102DE0D082D08375F004127183
:10D1A900E2E0FCA3E0FDA3E0FEA3E0FF901029125A
:10D1B90071A5901027A3E075F01CA42463F582E4FF
:10D1C9003410F583C083C08290102DE0D082D083C3
:10D1D90075F0041271E2E0FCA3E0FDA3E0FEA3E018
:10D1E900FF901025A3E075F01CA42463F582E434B4
:10D1F90010F583C083C08290102DE0D082D0837552
:10D20900F0041271E21271A5901029E0FCA3E0FD6F
:10D21900A3E0FEA3E0FF901027A3E075F01CA4246F
:10D2290063F582E43410F583C083C08290102DE049
:10D23900D082D08375F0041271E21271A590102D7D
:0BD24900E004F0E06407600302D186FF
:01D2540022B7
:06E3CF0090101E1271A562
:10E3D500E4901024F0901022A3E075F01CA42463AF
:10E3E500F582E43410F583C083C082901024E0D018
:10E3F50082D08375F0041271E2C083C082E0FCA371
:10E40500E0FDA3E0FEA3E0FF90101EE0F8A3E0F915
:10E41500A3E0FAA3E0FB12680FD082D0831271A5A6
:0AE42500901024E004F0E0B407AB0F
:01E42F0022CA
:06D9C10090101F1271A579
:10D9C700E4901027F0901025A3E075F01CA42463C1
:10D9D700F582E43410F583C083C082901027E0D02D
:10D9E70082D08375F0041271E2C083C082E0F8A38D
:10D9F700E0F9A3E0FAA3E0FBC000C001C002C00346
:10DA0700901023A3E075F01CA42463F582E434107E
:10DA1700F583C083C082901027E0D082D08375F051
:10DA2700041271E2E0FCA3E0FDA3E0FEA3E0FF9097
:10DA3700101FE0F8A3E0F9A3E0FAA3E0FB12680FD8
:10DA4700D003D002D001D00012671ED082D083123B
:10DA570071A5901027E004F0E06407600302D9CCB9
:01DA6700229C
:08DC400090101FEEF0A3EFF0BD
:10DC4800E4A3F0A3F0A3F0A3F0EF2401FFE43E90D7
:10DC58001021F0A3EFF0901021E0FCA3E0FDC394A5
:10DC680006EC64809480506890101FE0FEA3E07872
:10DC780002C333CE33CED8F912E4EFC004C005C0D6
:10DC880006C00790101FE0FCA3E0FDAE047802C3B5
:10DC980033CE33CED8F912E4EFA804A905AA06AB0F
:10DCA80007D007D006D005D0041269B550119010DE
:10DCB8001FE0FEA3E0FFA3E0FCA3E0FD12D16B9000
:10DCC8001022E004F0708F901021E004F002DC5E76
:01DCD8002229
:10CE5F009010191271B100000000E490101DF090B5
:10CE6F00101DE0FFC39406400302CF657E0012DC65
:10CE7F004090101DE0FF75F01CA42463F582E4348C
:10CE8F0010F58375F004EF1271E2E0FCA3E0FDA34F
:10CE9F00E0FEA3E0FFE4FBFAF9F81269B570037F37
:10CEAF00012290101DE004A3F090101EE0FFC39428
:10CEBF0006400302CF5CEF75F01CA42463F582E4F7
:10CECF003410F583C083C08290101DE0D082D083D0
:10CEDF0075F0041271E2E0FCA3E0FDA3E0FEA3E015
:10CEEF00FF126A2E90101DE075F01CA42463F582CA
:10CEFF00E43410F583C083C08290101DE0D082D03F
:10CF0F008375F0041271E2E0F8A3E0F9A3E0FAA34D
:10CF1F00E0FB1269189010191271A5901019E0FC1E
:10CF2F00A3E0FDA3E0FEA3E0FFA3E0FB901023E44A
:10CF3F00F0A3EBF090101EE0FB901025E4F0A3EBB4
:10CF4F00F012D9C190101EE004F002CEB890101D5F
:08CF5F00E004F002CE6E7F0039
:01CF670022A7
:10E167009010191271B100000000E490101DF0909A
:10E17700101DE0FF75F01CA42463F582E43410F54C
:10E187008375F004EF1271E2E0F8A3E0F9A3E0FA77
:10E19700A3E0FBE4FFFE7D807C3F12691890101915
:10E1A7001271A5901019E0FCA3E0FDA3E0FEA3E027
:10E1B700FFA3E0FB901022E4F0A3EBF012E3CF9073
:0BE1C700101DE004F0E0C3940640A42B
:01E1D200222A
:0BBAEC00901019EBF0A3EAF0A3E9F0C2
:10BAF700A31271B10000000590101CE0FCA3A3E0A5
:10BB0700FEEC33500302BC7790101CA3A3A3E09074
:10BB1700107B75F01C1271E2EE75F01CA42583F5FD
:10BB270083E0FCA3E0FDA3E0FEA3E0FFC004C005A3
:10BB3700C006C007E47F04FEFDFC90101CE0F8A3DC
:10BB4700E0F9A3E0FAA3E0FB127020901019E0FBE4
:10BB5700A3E0FAA3E0F98F828E83D007D006D00541
:10BB6700D0041271249010207405F090101CE0FC92
:10BB7700A3E0FDA3E0FEA3E02401FBE43EFAE43DDD
:10BB8700F9E43CF8A3E0FFE4FCFDFED312707D402E
:10BB97000302BC50E47F04FEFDFC90101CE0F8A3F8
:10BBA700E0F9A3E0FAA3E0FB127020901019E0FB84
:10BBB700A3E0FAA3E02FF9EA3EFAEB3DFBC003C08E
:10BBC70002C0011270BAC004C005C006C0079010B9
:10BBD70019E0FBA3E0FAA3E0F9901020E075F00468
:10BBE700A4F58285F0831270DA90101CA3A3E0FA03
:10BBF700A3E090106375F01C1271E2EA75F01CA4C3
:10BC07002583F583C083C082901020E0D082D08343
:10BC170075F0041271E2E0F8A3E0F9A3E0FAA3E0FB
:10BC2700FB12680FA804A905AA06AB07D007D00620
:10BC3700D005D00412671AD001D002D00312710ABE
:10BC4700901020E014F002BB7290101CE0FCA3E0FF
:10BC5700FDA3E0FEA3E0FFEF24FFFFEE34FFFEEDC0
:10BC670034FFFDEC34FFFC90101C1271A502BAFFE3
:01BC770022AA
:0BA4F000900FE6EBF0A3EAF0A3E9F008
:10A4FB00A31271B100000000900FED1271B10000BA
:10A50B000000900FF11271B100000000900FF512D6
:10A51B0071B100000000900FF91271B10000000042
:10A52B00900FFD1271B1000000009010011271B17B
:10A53B00000000009010051271B100000000901097
:10A54B00091271B10000000090100D1271B10000E2
:10A55B0000009010111271B1000000009010151244
:10A56B0071B10000000012DE9712CE5FEF600C7B22
:10A57B00FF7AF0790F1299227F002212E1677B019B
:10A58B007A10794912BAEC901049E0FCA3E0FDA3D4
:10A59B00E0FEA3E0FF900FE91271A590104DE0FCD7
:10A5AB00A3E0FDA3E0FEA3E0FF900FED1271A590D9
:10A5BB001051E0FCA3E0FDA3E0FEA3E0FF900FF140
:10A5CB001271A5901055E0FCA3E0FDA3E0FEA3E003
:10A5DB00FF900FF51271A5901059E0FCA3E0FDA3BD
:10A5EB00E0FEA3E0FF900FF91271A590105DE0FC67
:10A5FB00A3E0FDA3E0FEA3E0FF900FFD1271A59079
:10A60B000FF1E0FCA3E0FDA3E0FEA3E0FF126A2E36
:10A61B00E4FBFAF978401269189010011271A5E465
:10A62B00FFFEFD7C40900FE9E0F8A3E0F9A3E0FA10
:10A63B00A3E0FB12680FC004C005C006C007900F53
:10A64B00F5E0FCA3E0FDA3E0FEA3E0FF126A2ED031
:10A65B0003D002D001D0001269189010051271A519
:10A66B00E4FFFEFD7C40900FEDE0F8A3E0F9A3E0E2
:10A67B00FAA3E0FB12680FC004C005C006C0079028
:10A68B000FF9E0FCA3E0FDA3E0FEA3E0FF126A2EAE
:10A69B00D003D002D001D0001269189010091271AA
:10A6AB00A5901005E0FCA3E0FDA3E0FEA3E0FF9066
:10A6BB000FE9E0F8A3E0F9A3E0FAA3E0FB12680FBF
:10A6CB00901005E0F8A3E0F9A3E0FAA3E0FB126811
:10A6DB000FC004C005C006C007901001E0FCA3E04A
:10A6EB00FDA3E0FEA3E0FFA804A905AA06FB1268E0
:10A6FB000FD003D002D001D00012671EC004C005DA
:10A70B00C006C007901009E0FCA3E0FDA3E0FEA388
:10A71B00E0FF900FEDE0F8A3E0F9A3E0FAA3E0FB74
:10A72B0012680F901009E0F8A3E0F9A3E0FAA3E098
:10A73B00FB12680FD003D002D001D00012671E901D
:10A74B000FFDE0F8A3E0F9A3E0FAA3E0FB12671A10
:10A75B0012D86E90100D1271A5900FE9E0FCA3E0DA
:10A76B00FDA3E0FEA3E0FF12D86EA804A905AA067C
:10A77B00AB0790100DE0FCA3E0FDA3E0FEA3E0FF10
:10A78B001269189010111271A5900FEDE0FCA3E067
:10A79B00FDA3E0FEA3E0FF12D86EA804A905AA064C
:10A7AB00AB0790100DE0FCA3E0FDA3E0FEA3E0FFE0
:10A7BB001269189010151271A5901001E0FCA3E01E
:10A7CB00FDA3E0FEA3E0FF126A7D900FE6E0FBA382
:10A7DB00E0FAA3E0F9EE8FF0126FD4901005E0FCD5
:10A7EB00A3E0FDA3E0FEA3E0FF126A7D900FE6E07D
:10A7FB00FBA3E0FAA3E0F9900002EE8FF0126FF3E7
:10A80B00901009E0FCA3E0FDA3E0FEA3E0FF126AB9
:10A81B007D900FE6E0FBA3E0FAA3E0F9900004EED5
:10A82B008FF0126FF390100DE0FCA3E0FDA3E0FEA0
:10A83B00A3E0FF900006127124901011E0FCA3E03E
:10A84B00FDA3E0FEA3E0FF90000A12712490101507
:10A85B00E0FCA3E0FDA3E0FEA3E0FF90000E12716D
:03A86B00247F0146
:01A86E0022C7
:107628004112BB034112BD064112BF004112BE0107
:107638004112BC024212C000004212C600004212AF
:10764800CC00004412C23F8000004412C83F8000B2
:017658000031
:0D004600AE05AD07AF06AB077F3C02F1D25F
:07F47400AD077F3C12F08A96
:01F47B00226E
:10F2C5007F0A12F474EF644860037F00227F0122F5
:0BC53100900FE6EBF0A3EAF0A3E9F0A6
:10C53C0090100F7401F0A3740FF0A374E9F07B0654
:10C54C007D037F3C12E917900FE9E0FEA3E0FDEDBF
:10C55C00FF900FE6E0FBA3E0FAA3E0F9EE8FF012F8
:10C56C006FD4900FEDE0FEA3E0FDEDFF900FE6E041
:10C57C00FBA3E0FAA3E0F9900002EE8FF0126FF348
:10C58C00900FEBE0FEA3E0FDEDFF900004EE8FF0CA
:10C59C00126FF3126F71FF9012C0E0FCA3E0FDC3A9
:10C5AC00EF9DFFE5F09C8FF0126FD4900FE6E0FB4F
:10C5BC00A3E0FAA3E02402F9E43AFA126F71FF90B7
:10C5CC0012C6E0FCA3E0FDC3EF9DFFE5F09C8FF0ED
:10C5DC00126FD4900FE6E0FBA3E0FAA3E02404F979
:10C5EC00E43AFA126F71FF9012CCE0FCA3E0FDC3A9
:10C5FC00EF9DFFE5F09C8FF0126FD4900FE6E0FBFF
:10C60C00A3E0FAA3E0F9900002126F9CFDACF0ECF1
:10C61C00126A449012C2E0F8A3E0F9A3E0FAA3E096
:10C62C00FB12680F126A7D900FE6E0FBA3E0FAA301
:10C63C00E0F9900002EE8FF0126FF3900004126F8D
:10C64C009CFDACF0EC126A449012C8E0F8A3E0F93F
:10C65C00A3E0FAA3E0FB12680F126A7D900FE6E0EC
:10C66C00FBA3E0FAA3E0F9900004EE8FF0026FF365
:10EABB009012C0EEF0A3EFF0AF059012C6ECF0A3EE
:10EACB00EFF0AF039012CCEAF0A3EFF0900FECE075
:10EADB00FCA3E0FDA3E0FEA3E0FF9012C21271A520
:10EAEB00900FF0E0FCA3E0FDA3E0FEA3E0FF90128B
:04EAFB00C80271A537
:0BF3DC009012BCEFF0FD7F0202004623
:10E65600900FEA74C8F012F2C5EF70107F01FE1237
:10E66600F113900FEAE014F070ECFF229012BDE077
:10E6760025E025E0FF9012BBE0FEC454F04FFF906A
:10E6860012BFE04FFDE4FF1200469012BEE0C43315
:10E6960054E0FD7F011200469012BCE0FD7F02129D
:04E6A60000467F01AA
:01E6AA00224D
:0BB2E100900FE6EBF0A3EAF0A3E9F009
:10B2EC00126A2E7BE17A2E79657842126918900FDA
:10B2FC00F11271A5900FEDE0FCA3E0FDA3E0FEA31D
:10B30C00E0FF126A2E7BE17A2E7965784212691879
:10B31C00900FF51271A5900FF5E0FCA3E0FDA3E0F2
:10B32C00FEA3E0FF12BCD6C004C005C006C0079047
:10B33C000FE6E0FBA3E0FAA3E0F9900002126F9C89
:10B34C00FDACF0EC126A44D003D002D001D0001254
:10B35C00680FC004C005C006C007900FF1E0FCA345
:10B36C00E0FDA3E0FEA3E0FF12BCD6D003D002D0D8
:10B37C0001D00012680FC004C005C006C007900FB2
:10B38C00F1E0FCA3E0FDA3E0FEA3E0FF12BCC0C013
:10B39C0004C005C006C007900FE6E0FBA3E0FAA3CB
:10B3AC00E0F9126F71FDACF0EC126A44D003D002DC
:10B3BC00D001D00012680FD003D002D001D00012FF
:10B3CC00671EC004C005C006C007900FF5E0FCA3C3
:10B3DC00E0FDA3E0FEA3E0FF12BCC0C004C005C0AA
:10B3EC0006C007900FE6E0FBA3E0FAA3E0F990009B
:10B3FC0004126F9CFDACF0EC126A44D003D002D066
:10B40C0001D00012680FC004C005C006C007900F21
:10B41C00F1E0FCA3E0FDA3E0FEA3E0FF12BCD6D05C
:10B42C0003D002D001D00012680FA804A905AA0607
:10B43C00AB07D007D006D005D00412671A900FF9CD
:10B44C001271A5900FF5E0FCA3E0FDA3E0FEA3E0D4
:10B45C00FF12BCD6C004C005C006C007900FE6E0C2
:10B46C00FBA3E0FAA3E0F9900004126F9CFDACF092
:10B47C00EC126A44D003D002D001D00012680FC085
:10B48C0004C005C006C007900FF5E0FCA3E0FDA3C7
:10B49C00E0FEA3E0FF12BCC0C004C005C006C0079C
:10B4AC00900FE6E0FBA3E0FAA3E0F9900002126F24
:10B4BC009CFDACF0EC126A44D003D002D001D00059
:10B4CC0012680FD003D002D001D00012671EC00446
:10B4DC00C005C006C007900FF9E0FCA3E0FDA3E097
:10B4EC00FEA3E0FF9010011271A5D007D006D00585
:10B4FC00D00412DB09E4FBFA7934784312680F7B31
:10B50C00D07A0F79497840126918E4FBFA793478CB
:04B51C004312671E51
:01B520002208
:1076590004773F800000047B00000000047F0000E5
:107669000000048300000000046B00000000046FA8
:0A7679000000000004730000000090
:0DF38500AE05AD07AF06AB077FD402F1D295
:07F47C00AD077FD412F08AF6
:01F483002266
:04EC33007B017D8064
:0DEC3700900FF0EDF0A3EBF0900FEFEFF079
:10EC440012F47CAE07900FF1E0FFB40108900FF0CE
:10EC5400E04EFE800AEF7007900FF0E0F45EFE9045
:09EC64000FEFE0FFAD0602F3859D
:0EF2F5007F0F12F47CEFB46A037F01227F00CA
:01F3030022E7
:08F48400EF4DFD7F1002F3853E
:08F48C00EF4DFD7F1102F38535
:0BD65900900FE6EBF0A3EAF0A3E9F06D
:10D6640090100F7401F0A3740FF0A374E9F07B0C15
:10D674007D227FD412E917900FEAE0FE900FE9E0D3
:10D68400FDEDFF900FE6E0FBA3E0FAA3E0F99000C4
:10D6940006EE8FF0126FF3900FECE0FE900FEBE0CC
:10D6A400FDEDFF900008EE8FF0126FF3900FEEE0A7
:10D6B400FE900FEDE0FDEDFF90000AEE8FF0126F8B
:10D6C400F3900FF0E0FE900FEFE0FDEDFFEE8FF032
:10D6D400126FD4900FF2E0FE900FF1E0FDEDFF9099
:10D6E4000FE6E0FBA3E0FAA3E0F9900002EE8FF06E
:10D6F400126FF3900FF4E0FE900FF3E0FDEDFF9056
:08D704000004EE8FF0026FF348
:10F2D5007B017D017F1212EC377F327E0002F11334
:09F449007B017D047F1902EC3700
:04DCD900AB07AA06E5
:10DCDD00AE04AF057C007D28126F0F900FECEFF0B6
:10DCED00AE02AF03AD07AC06EC126A447BDA7A0FD5
:10DCFD007949784012680FE4FBFA79347843126958
:10DD0D001812BCD6E4FBFA7980784212680F126AB9
:10DD1D007D900FEDEFF0900FECE0D394FF40037486
:10DD2D00FFF0900FEDE0D394FF400374FFF07DA062
:10DD3D007F0112F385900FECE0FD7F5012F385907B
:10DD4D000FEDE0FD7F5412F3857D207F5912F38591
:10DD5D00E4FD7F0112F3857F1912EC337B017D0108
:05DD6D007F0B02EC3702
:10EEC7007B017D827F5812EC377B017D8C7F591245
:10EED700EC377D7F7F5A12F3857F5B12EC337B0122
:07EEE7007D087F5E02EC379D
:10E88600900FECEEF0A3EFF0A3EDF07D807F011288
:10E89600F3857D8E7F0F12F385900FECE0FEA3E0EB
:10E8A600FF7C007D50126EBAEF33333354F8FFA36A
:10E8B600E054074FFD7F1412F385E4FD7F0112F348
:0AE8C600857B017D107F1902EC37FD
:10F146007F4B12F47C900FE6EFF07F4C12F47CEFCD
:08F15600FE900FE6E0FDEDFF65
:01F15E00228E
:10F15F007B017D027F1912EC377F017E0012F113C4
:09F16F00E4FB7D027F1902EC377C
:09F45200E4FB7D107F1902EC3788
:10E5A400900FEAE4F0A374C8F07F327E0012F113F6
:10E5B40012F2F5EF70167F01FE12F113900FEA7458
:10E5C400FFF5F0126F4545F070E6FF2212F2D57D9B
:10E5D400087F6012F4847D04E4FF12F48C7D647C73
:10E5E400007F0A7E0012DCD912EEC77D067F107E02
:09E5F4000412E88612F4497F01CB
:01E5FD0022FB
:0B904500900FE6EBF0A3EAF0A3E9F0C7
:10905000126F71FDACF0EC126A44783B127199907A
:109060000FE6E0FBA3E0FAA3E0F9900002126F9C88
:10907000FDACF0EC126A44783F127199900FE6E073
:10908000FBA3E0FAA3E0F9900004126F9CFDACF0A2
:10909000EC126A447843127199900FE6E0FBA3E06A
:1090A000FAA3E0F9900006126F9CFDACF0EC126A96
:1090B000447B397AFA798E783C12680F7B6F7A128A
:1090C000798378421269187847127199900FE6E017
:1090D000FBA3E0FAA3E0F9900008126F9CFDACF04E
:1090E000EC126A447B397AFA798E783C12680F7BED
:1090F0006F7A1279837842126918784B12719990BD
:109100000FE6E0FBA3E0FAA3E0F990000A126F9CDF
:10911000FDACF0EC126A447B397AFA798E783C1215
:10912000680F7B6F7A1279837842126918784F1230
:109130007199783F127148A804A905AA06AB0712D5
:10914000680FC004C005C006C007783B127148A86C
:1091500004A905AA06AB0712680FD003D002D001FC
:10916000D00012671EC004C005C006C007784312B5
:109170007148A804A905AA06AB0712680FD003D04E
:1091800002D001D00012671E12D86E8F288E278D54
:10919000268C25783B127148AB28AA27A926A8253A
:1091A000126918783B127199783F127148AB28AA5E
:1091B00027A926A825126918783F127199784312B9
:1091C0007148AB28AA27A926A82512691878431246
:1091D0007199787F127148787712717012680FC098
:1091E00004C005C006C0077883127148787B1271ED
:1091F0007012680FD003D002D001D00012671AE4B9
:10920000FBFAF9784012680F78531271997883123B
:109210007148787F12717012680FC004C005C006D3
:10922000C007787B127148787712717012680FD07E
:1092300003D002D001D00012671EE4FBFAF9784097
:1092400012680F7857127199787B127148787B12E7
:10925000717012680FC004C005C006C0077877128D
:109260007148787712717012680FD003D002D00164
:10927000D00012671AC004C005C006C007787F126C
:109280007148787F12717012680FA804A905AA06A8
:10929000AB07D007D006D005D00412671AC004C0AF
:1092A00005C006C007788312714878831271701266
:1092B000680FD003D002D001D00012671E785B1275
:1092C00071997857127148784312717012680FC003
:1092D00004C005C006C007785B127148783F127160
:1092E0007012680FD003D002D001D00012671A7834
:1092F0005F127199785B127148783B127170126835
:109300000FC004C005C006C00778531271487843E7
:1093100012717012680FD003D002D001D000126712
:109320001A78631271997853127148783F127170EC
:1093300012680FC004C005C006C0077857127148F4
:10934000783B12717012680FD003D002D001D000A8
:1093500012671A7867127199786B127170C000C029
:1093600001C002C0037F6F7E127D837C3A785F125A
:10937000717012680FD003D002D001D00012671EA6
:10938000786B127199786F127170C000C001C002C1
:10939000C0037F6F7E127D837C3A786312717012F6
:1093A000680FD003D002D001D00012671E786F1270
:1093B00071997873127170C000C001C002C0037F40
:1093C0006F7E127D837C3A786712717012680FD0BD
:1093D00003D002D001D00012671E78731271997FFA
:1093E000CD7ECC7D4C7C3F785F12717012680F7817
:1093F0004712717012671E786B12717012671E78B7
:10940000471271997FCD7ECC7D4C7C3F7863127181
:109410007012680F784B12717012671E786F12719C
:109420007012671E784B1271997FCD7ECC7D4C7C7B
:109430003F786712717012680F784F12717012675F
:109440001E787312717012671E784F1271997877B7
:10945000127170C000C001C002C003787B12714855
:10946000126A2E784712717012680FC004C005C0CE
:1094700006C007784B127148787F12717012680F1E
:10948000A804A905AA06AB07D007D006D005D004CA
:1094900012671AC004C005C006C007784F12714891
:1094A000788312717012680FA804A905AA06AB0789
:1094B000D007D006D005D00412671A7B6F7A1279D4
:1094C00083783B12680FD003D002D001D00012671E
:1094D0001E7877127199787B127170C000C001C03C
:1094E00002C003784F127148787F12717012680FB2
:1094F000C004C005C006C0077847127148787712CB
:10950000717012680FD003D002D001D00012671E14
:10951000C004C005C006C007784B1271487883129A
:10952000717012680FA804A905AA06AB07D007D06E
:1095300006D005D00412671A7B6F7A127983783BC4
:1095400012680FD003D002D001D00012671E787BC2
:10955000127199787F127170C000C001C002C003FF
:10956000784F127148787B12717012680FC004C076
:1095700005C006C007784B127148787712717012D7
:10958000680FD003D002D001D00012671AC004C007
:1095900005C006C0077847127148788312717012AF
:1095A000680FD003D002D001D00012671E7B6F7A03
:1095B000127983783B12680FD003D002D001D0001B
:1095C00012671E787F1271997883127170C000C083
:1095D00001C002C003784B127148787B127170127F
:1095E000680FC004C005C006C007784F12714878E4
:1095F0007712717012680FD003D002D001D0001220
:10960000671EC004C005C006C007784712714878BD
:109610007F12717012680FA804A905AA06AB07D0C3
:1096200007D006D005D00412671A7B6F7A127983AF
:10963000783B12680FD003D002D001D00012671E11
:109640007883127199787B127148787B127170124D
:10965000680FC004C005C006C0077877127148784B
:109660007712717012680FD003D002D001D00012AF
:10967000671EC004C005C006C007787F1271487815
:109680007F12717012680FD003D002D001D0001287
:10969000671EC004C005C006C0077883127148A8C1
:1096A00004A905AA06AB0712680FD003D002D001A7
:1096B000D00012671E12D86E8F288E278D268C251B
:1096C0007877127148AB28AA27A926A8251269180D
:1096D0007877127199787B127148AB28AA27A9264E
:1096E000A825126918787B127199787F127148AB9E
:1096F00028AA27A926A825126918787F12719978B7
:1097000083127148AB28AA27A926A82512691878C0
:10971000831271997883127148787B127170126884
:109720000FC004C005C006C007787F127148787763
:1097300012717012680FD003D002D001D0001267EE
:109740001AE4FBFAF9784012680F12EBBE7BE17A5B
:109750002E7965784212680F900FE6E0FBA3E0FADD
:10976000A3E0F990000C1271247883127148787F7D
:1097700012717012680FC004C005C006C007787B64
:10978000127148787712717012680FD003D002D02E
:1097900001D00012671EE4FBFAF9784012680F123C
:1097A000EBBE7BE17A2E7965784212680F900FE666
:1097B000E0FBA3E0FAA3E0F9900010127124787B9B
:1097C000127148A804A905AA06AB0712680FC004C5
:1097D000C005C006C0077877127148A804A905AA79
:1097E00006AB0712680FD003D002D001D000126779
:1097F0001EC004C005C006C007787F127148A804C7
:10980000A905AA06AB0712680FA804A905AA06AB0A
:1098100007D007D006D005D00412671AC004C005CF
:10982000C006C0077883127148A804A905AA06AB30
:109830000712680FA804A905AA06AB07D007D0062F
:10984000D005D00412671AC004C005C006C007784E
:1098500083127148787712717012680FC004C005C6
:10986000C006C007787F127148787B127170126849
:109870000FA804A905AA06AB07D007D006D005D0CB
:109880000412671EE4FBFAF9784012680FD003D087
:1098900002D001D00012691812C8F07BE17A2E794B
:1098A00065784212680F900FE6E0FBA3E0FAA3E0B0
:0798B000F99000140271247D
:0A76830043126A0000EF41121900E3
:07F49C0075DE2F75BC8F2205
:10F0C300EF4480F5BC75BC400000E5BC30E5FB5364
:0AF0D300BCDFAFBDEFFEADBDEDFFE9
:01F0DD002210
:06F4A900EF24FF92C022D7
:0DF39200EF60044391802253917FC29722C7
:10D40400900FEF1271B100000000E4900FF3F0A34D
:10D41400F0A3F0A3F07F0F12F0C37F0F12F0C3E468
:10D42400900FF3F0A3F0900FEFE0F8A3E0F9A3E07E
:10D43400FAA3E0FB7F0F12F0C3EE3395E0FDFCEBA3
:10D444002FFFEA3EFEE93DFDE83CFC900FEF127130
:10D45400A5900FF4E004F07006900FF3E004F0C31D
:10D46400900FF4E09440900FF3E06480948040B611
:10D47400900FEFE0FCA3E0FDA3E0FEA3E0FF78063D
:10D48400127093900FEF1271A590126AE0FBA3E063
:10D49400FAA3E0F9126F71FFAEF0EE3395E0FDFCF4
:10D4A400E47BFF7A0FF9F8127020900FEFE0F8A3F5
:10D4B400E0F9A3E0FAA3E0FB12EAFF900FF5EEF027
:10D4C400A3EFF0FDAC06EC126A44E4FBFA797A7837
:04D4D400441269187D
:01D4D8002231
:10BE0000900FE61271B100000000E4900FEEF01206
:10BE1000D4047B9A7A99795978C012671E7B487A44
:10BE2000E1793A783F126918900FEA1271A5E4FFA0
:10BE3000FE7D807C3F900FEAE0F8A3E0F9A3E0FAF2
:10BE4000A3E0FB1269B5600E400C900FEA1271B1CD
:10BE50003F8000008022E4FFFEFDFC900FEAE0F846
:10BE6000A3E0F9A3E0FAA3E0FB1269B5500A900F32
:10BE7000EA1271B100000000901219E0703804F06D
:10BE8000E4900FEEF0900FEEE0FBC3941450279077
:10BE90000FEAE0FCA3E0FDA3E0FEA3E0FFEB25E05A
:10BEA00025E0241AF582E43412F5831271A5900F6F
:10BEB000EEE004F080CF900FEE7413F0900FEEE000
:10BEC000FBD394004057EB25E025E02416F582E4EF
:10BED0003412F583E0FCA3E0FDA3E0FEA3E0FF90B5
:10BEE000121E1271A5900FE6E0FCA3E0FDA3E0FE98
:10BEF000A3E0FFEB25E025E0241AF582E43412F5F7
:10BF000083E0F8A3E0F9A3E0FAA3E0FB12671E9038
:10BF10000FE61271A5900FEEE014F0809F900FE6EF
:10BF2000E0FCA3E0FDA3E0FEA3E0FFA3E0F8A3E0B4
:10BF3000F9A3E0FAA3E0FB12671E900FE61271A5C9
:10BF4000E4FBFA79A07841900FE6E0FCA3E0FDA3C2
:10BF5000E0FEA3E0FF126918900FEA1271A5900F9E
:10BF6000EAE0FCA3E0FDA3E0FEA3E0FF90121A12BA
:10BF700071A5900FEAE0FCA3E0FDA3E0FEA3E0FFC3
:01BF8000229E
:10001600900FE6E590F0E4F580F5907592307591D5
:10002600B0759601F59575B08475C099F5C8C2A9E5
:0B00360053AFFE53AFDF7587020000E0
:01004100229C
:10EDD600AF90E4F580F5907592307591B075A0010D
:10EDE600F596F59575B084F5C0F5C8C2A953AFFE82
:0AEDF60053AFDF75870200008F9015
:01EE000022EF
:0CF3B80012ED79D2A943AF0143AF20222F
:10F25F0043BA8090FE8074D0F090FE82E4F053BAEF
:02F26F007F22FC
:10EFCB0075100175112C90FE82E020E60DE51115F0
:10EFDB00117002151014451070EC90FE82E054BFB6
:02EFEB00F02212
:03F3C40043BA80C9
:09F3C70090FE817401F002EFCB0D
:10EFA80012F304900FEEE0FBA3E0FAA3E0F98E82DF
:0AEFB800758300EF126E9812F31338
:09EFC20090FE817406F002EFCB11
:0EF35B0090FE86EFF090FE817402F002EFCB80
:0FF3040090FE817404F012EFCB90FE87E0FF22A1
:10F0A70043BA8012F3C7AF0612F35B12F0BAAF058B
:03F0B70012F35BF6
:09F0BA0090FE817403F002EFCB1B
:0EF3690090FE82E4F090FE817405F002EFCB7E
:0FF3130090FE827401F090FE817405F002EFCB42
:10F1D20012F3C412F0AFAF0312F35B12F0BA12EFE4
:05F1E200C253BA7F22B8
:02F08A00AE07CF
:10F08C0012F0A712F3C7AF0612F35B12F0BA12F329
:0AF09C000412F31312EFC253BA7FFF
:01F0A6002247
:04E91700AE07AC0398
:10E91B0012F0A712F3C7EE04FF12F35B12F0BAE486
:10E92B00FEEC14FFEEC39F501D12F30490100FE08A
:10E93B00FBA3E0FAA3E0F98E82758300EF126E98C9
:10E94B0012F3690E80DB12F30490100F12EFAE532B
:02E95B00BA7F81
:01E95D002297
:0BEB4300900FF2EBF0A3EAF0A3E9F062
:10EB4E00E4FE12F3C412F35B12F0BAEEC39D501D35
:10EB5E00900FF2E0FBA3E0FAA3E0F98E827583003A
:10EB6E00126E26FF12F35B12F0BA0E80DE12EFC2A7
:03EB7E0053BA7F08
:01EB81002271
:0BED4800900FEEEBF0A3EAF0A3E9F05F
:10ED530043BA8012F3C7EF04FF12F35B12F0BAE475
:10ED6300FEED14FFEEC39F500612EFA80E80F212C1
:05ED7300EFA853BA7F78
:01ED78002278
:10768D00607511A40A050A000000081E0101000121
:10769D0042C2333300000000000000000000000073
:1076AD0000003F8000003F8000000000000000004F
:1076BD0000000000000000000000000000000000BD
:1076CD0000000000000000000000000000000000AD
:1076DD00000000000000000000000000000000009D
:1076ED00000000000000000000000000000000008D
:0976FD0000000000000000000084
:10ED7900E4F580F594F593D292D296759230759117
:10ED8900B075A0B8759640F59575B034F5B2F5B182
:0FED990075C019F5B4F5B375C820F5CAF5C922D0
:0DF39F00438904E4F58AF58CC28CD2A922C2
:10F2E50043D10275D54075D4A243D10843AF20223E
:10F17800759850438E40538EFE53890F758BCC750E
:09F188008DFFC2ABD28ED2992298
:10F23A00759A50438E0475D78F75D6FD438E104349
:03F24A00A80122F6
:0CF3D000D288D2A8D28AD2AA438F102281
:0400060075C7602238
:04000E0075C127226F
:0400560043C1102270
:0BE08500900FE6EBF0A3EAF0A3E9F037
:10E09000E4FFA3F0A3F0900FE6E0FBA3E0FAA3E017
:10E0A000F98F82758300126E26FD900FEAE02DF045
:10E0B000900FE9E03400F00FEFB473DA900FE9E06D
:10E0C000FEA3E0FF900FE6E0FBA3E0FAA3E0F990E7
:10E0D0000073EE8FF0126FF37F807E0112EF1590C8
:10E0E0000FE6E0FBA3E0FAA3E0F9900FF0E4F0A361
:0AE0F0007475F07F807E0102EA766D
:0BD7BB00900FE6EBF0A3EAF0A3E9F00A
:10D7C600E4A3F0A3F0A3F0900FF1F0A37475F07F3B
:10D7D600807E0112EA31900FE9E0FFC3947350296D
:10D7E600900FE6E0FBA3E0FAA3E0F98F82758300D1
:10D7F600126E26FF900FEBE02FF0900FEAE0340058
:10D80600F0900FE9E004F080CD900FE6E0FBA3E096
:10D81600FAA3E0F9900073126F9CFF900FEAE0B54F
:10D82600F008A3E0B507037F0122E4900FE9F0902A
:10D836000FE9E0FF7C007B0124A4F9EC3411FA1215
:10D846006E0DFE900FE6E0FBA3E0FAA3E0F98F82EF
:10D85600758300EE126E98900FE9E004F0E0B4755F
:03D86600CE7F0072
:01D86900229C
:08F49400EF640124FF92B52290
:10E95E0012ED7912F17812F23A12F39F12F2E512D9
:10E96E00F3D012F49C12F25F12000E7B017A0E7934
:10E97E00F112D7BB12ECA6900EF6E0FF12F45BE498
:10E98E00FF12F4940F12F3927F057E0012F1137FA3
:07E99E000112F4A9D2AF221F
:0EF37700E4F5C7F5C5F5C675C3FF75C4FF22E2
:10EA3100AD07AC06A2AF92D5C2AF75C78075C5014F
:10EA4100ECF5C3AF058FC475C65A75C6A500E5C2FE
:10EA5100126E860DBD00010C740129F9E43AFA9099
:10EA61000FF174FFF5F0126F4545F070D312F37793
:05EA7100A2D592AF22C6
:10EF1500AD07AC06A2AF92D5ECF5C3AF058FC475AE
:10EF2500C78075C50375C65A75C6A50012F377E582
:06EF35008024FF92AF22D0
:10EA7600AD07AC06A2AF92D5C2AF75C78075C50209
:10EA8600ECF5C3AF058FC4126E0DF5C275C65A7587
:10EA9600C6A5000DBD00010C740129F9E43AFA90EF
:10EAA6000FF074FFF5F0126F4545F070D312F3774F
:05EAB600A2D592AF2281
:0B770600C1214112DE004212DF000032
:10ECA60043BA8090FFF2E4F090FFF07417F0A3747B
:10ECB60070F090FF647480F090FF60E4F0A3F0A31E
:10ECC600740BF0A374B8F053BA7F43D12075D340C8
:09ECD60075D2A243AF40C2212215
:10F1E70043BA80EFB4010543FE80800553FE7FC21A
:05F1F700A653BA7F22BF
:0300A30002DD7209
:10DD7200C0E0C0F0C083C082C0D075D00853EFFBB2
:10DD82009012DEE0FE7019A3E07004A3E064C87094
:10DD92006D9012DFF0A3F0FF12F1E753D17F805EA6
:10DDA200EE640170599012DFE0FEA3E0FFC39458C5
:10DDB200EE940250367C007D64126EBAED4C702BEC
:10DDC2009012DFE0FEA3E0FF7C007D64126EBAEFEA
:10DDD20054016401FF12F1E79012DFE0FEA3E0FFBD
:10DDE2007C007D64126EBAEF1392A09012DFE0B451
:10DDF200030CA3E0B4E8079012DFE4F0A3F0D0D064
:09DE0200D082D083D0F0D0E032D0
:10F1FC00E49012DEF0A3F0A3F03021087F0112F1AD
:05F20C00E743D1802260
:0FF322009012DE7401F0E4A3F0A3F043D1802237
:09F45B00EF6003D22122C221223C
:10F11300D3EF9400EE94004010007D207C28DCFEA9
:09F12300DDFCEF1F70EA1E80E71D
:01F12C0022C0
:10F21100D3EF9400EE9400400B7D06DDFEEF1F70EE
:04F22100EF1E80EC70
:01F2250022C6
:1083FB000000000000000000002F0000000007003C
:10840B00070000147F147F1400242A7F2A120023F4
:10841B001308646200364955225000000503000022
:10842B0000001C224100000041221C000014083EE9
:10843B0008140008083E0808000000A060000008AF
:10844B000808080800006060000000201008040203
:10845B00003E5149453E0000427F400000426151C1
:10846B004946002141454B31001814127F1000275B
:10847B0045454539003C4A4949300001710905031E
:10848B0000364949493600064949291E000036364F
:10849B0000000000563600000008142241000014B2
:1084AB00141414140000412214080002015109068F
:1084BB0000324959513E007C1211127C007F494910
:1084CB004936003E41414122007F4141221C007F41
:1084DB0049494941007F09090901003E4149497A4F
:1084EB00007F0808087F0000417F410000204041C9
:1084FB003F01007F08142241007F40404040007F35
:10850B00020C027F007F0408107F003E4141413E78
:10851B00007F09090906003E4151215E007F0919C0
:10852B0029460046494949310001017F0101003FBD
:10853B004040403F001F2040201F003F4038403F3D
:10854B0000631408146300070870080700615149A1
:10855B00454300007F41410000552A552A55000034
:10856B0041417F00000402010204004040404040B2
:10857B00000001020400002054545478007F48444A
:10858B00443800384444442000384444487F003881
:10859B005454541800087E0901020018A4A4A47CAA
:1085AB00007F080404780000447D40000040808474
:1085BB007D00007F102844000000417F4000007CBC
:1085CB0004180478007C08040478003844444438C8
:1085DB0000FC242424180018242418FC007C080414
:1085EB00040800485454542000043F444020003CED
:1085FB004040207C001C2040201C003C4030403C74
:10860B00004428102844001CA0A0A07C0044645403
:10861B004C44141414141414000000000000000047
:10862B00000000000000000000000000000000003F
:10863B0000000000000000000000000000F8000037
:10864B000000000000333000000000100C06100C7E
:10865B000600000000000000000040C07840C07819
:10866B004000043F04043F040400007088FC083001
:10867B000000001820FF211E0000F008F000E01899
:10868B00000000211C031E211E0000F00888700052
:10869B0000001E2123241927211010160E000000A4
:1086AB0000000000000000000000000000E01804C3
:1086BB000200000000071820400000020418E00030
:1086CB0000000040201807000000404080F0804070
:1086DB0040000202010F01020200000000F0000046
:1086EB0000000101011F010101000000000000005A
:1086FB00000080B0700000000000000000000000CF
:10870B000000000101010101010100000000000057
:10871B00000000303000000000000000000080600E
:10872B001804006018060100000000E01008081093
:10873B00E000000F102020100F00001010F80000B8
:10874B0000000020203F202000000070080808884F
:10875B00700000302824222130000030088888481F
:10876B0030000018202020110E000000C02010F84F
:10877B00000000070424243F240000F80888880820
:10878B0008000019212020110E0000E01088881825
:10879B000000000F112020110E0000380808C83807
:1087AB0008000000003F00000000007088080888E7
:1087BB007000001C222121221C0000E01008081070
:1087CB00E0000000312222110F00000000C0C000A9
:1087DB0000000000003030000000000000800000AE
:1087EB0000000000806000000000000080402010AE
:1087FB0008000001020408102000404040404040A7
:10880B004000040404040404040000081020408009
:10881B00000000201008040201000070480808083E
:10882B00F0000000003036010000C030C828E8100E
:10883B00E0000718272423140B000000C038E000C9
:10884B000000203C23020227382008F88888887013
:10885B000000203F202020110E00C030080808081F
:10886B003800071820202010080008F80808081006
:10887B00E000203F202020100F0008F88888E8082F
:10888B001000203F20202320180008F88888E808D3
:10889B001000203F200003000000C03008080838FB
:1088AB00000007182020221E020008F8080000080C
:1088BB00F808203F210101213F20000808F8080893
:1088CB0000000020203F2020000000000808F808CE
:1088DB000800C08080807F00000008F888C028183E
:1088EB000800203F20012638200008F8080000006F
:1088FB000000203F20202020300008F8F800F8F876
:10890B000800203F003F003F200008F830C000085F
:10891B00F808203F200007183F00E0100808081057
:10892B00E0000F10202020100F0008F8080808089E
:10893B00F000203F210101010000E01008080810A1
:10894B00E0000F18242438504F0008F888888888D6
:10895B007000203F2000030C3020007088080808AE
:10896B0038000038202121221C00180808F80808BC
:10897B0018000000203F2000000008F80800000845
:10898B00F808001F202020201F000878880000C84E
:10899B003808000007380E010000F80800F800083E
:1089AB00F800033C0700073C030008186880806848
:1089BB00180820302C03032C30200838C800C83886
:1089CB0008000000203F2000000010080808C838ED
:1089DB0008002038262120201800000000FE02028B
:1089EB0002000000007F40404000000C30C000003F
:1089FB000000000000010638C00000020202FE0069
:108A0B000000004040407F00000000000402020212
:108A1B000400000000000000000000000000000047
:108A2B000000808080808080808000020204000033
:108A3B00000000000000000000000000808080802B
:108A4B0000000019242222223F2008F80080800019
:108A5B000000003F112020110E00000000808080DC
:108A6B000000000E112020201100000000808088E3
:108A7B00F800000E112020103F2000008080808025
:108A8B000000001F222222221300008080F0888821
:108A9B0088180020203F202000000000808080806C
:108AAB008000006B94949493600008F800808080A1
:108ABB000000203F210000203F20008098980000FC
:108ACB0000000020203F202000000000008098982C
:108ADB00000000C08080807F000008F800008080CC
:108AEB008000203F24022D302000000808F80000F1
:108AFB0000000020203F20200000808080808080AC
:108B0B008000203F20003F20003F8080008080803D
:108B1B000000203F210000203F200000808080804B
:108B2B000000001F202020201F008080008080007C
:108B3B00000080FFA12020110E000000008080802B
:108B4B008000000E112020A0FF808080800080809C
:108B5B00800020203F2120000100000080808080C9
:108B6B0080000033242424241900008080E08080BE
:108B7B0000000000001F202000008080000000800B
:108B8B008000001F202020103F208080800000806C
:108B9B00808000010E30080601008080008000807C
:108BAB0080800F300C030C300F0000808000808021
:108BBB0080000020312E0E3120008080800000804C
:108BCB00808080818E7018060100008080808080FC
:108BDB0080000021302C2221300000000000807C1E
:108BEB00020200000000003F404000000000FF00B8
:108BFB00000000000000FF0000000002027C80006B
:108C0B0000000040403F000000000006010102028E
:108C1B00040400000000000000000000E0F8FCFE6F
:108C2B00FEFEFEFEFCF8E0000000E0FFFFFFFF1F72
:108C3B000301031FFFFFFFFFE000FFFFFFFFFF002C
:108C4B0000000000FFFFFFFFFF00FFFFFFFFFF0023
:108C5B0000000000FFFFFFFFFF0007FFFFFFFFF813
:108C6B00C080C0F8FFFFFFFF07000000071F3F7F1A
:108C7B007F7F7F7F3F1F070000000000000080C048
:108C8B00FCFCFCFCFC000000000000007F7F7F7FF1
:108C9B00FFFFFFFFFF0000000000000000000000CE
:108CAB00FFFFFFFFFF0000000000000000000000BE
:108CBB00FFFFFFFFFF00000000000000C0C0C0C0AE
:108CCB00FFFFFFFFFFC0C0C0C00000003F3F3F3FA2
:108CDB003F3F3F3F3F3F3F3F3F0000F8F8FCFEFE6A
:108CEB00FEFEFEFCFCF8E0000000001F0F07030374
:108CFB0003070FFFFFFFFFFF000000000000000055
:108D0B000000E0FFFFFFFF1F00000000000000C09D
:108D1B00F8FEFFFF7F0F0100000000C0F0FCFFFF1B
:108D2B00FFDFC7C1C0C0C0C0C000003F3F3F3F3FD7
:108D3B003F3F3F3F3F3F3F3F3F0000F8F8FCFEFE09
:108D4B00FEFEFEFEFCF8F0800000001F0F07030381
:108D5B00030307FFFFFFFFFF000000000000F8F810
:108D6B00F8FCFEFFFFBF0F0100000000000007072B
:108D7B0007070F1FFFFFFFFEF000F8F0E0E0C0C099
:108D8B00C0C0E0F0FFFFFFFF3F001F1F3F3F7F7F93
:108D9B007F7F7F3F3F1F0F0300000000000000009C
:108DAB00C0F8FCFCFCFCFC00000000000000E0FC38
:108DBB00FF7FFFFFFFFFFF0000000080F0FFFF3F82
:108DCB000300FFFFFFFFFF000000FCFFFFFFF1F0C0
:108DDB00F0F0FFFFFFFFFFF0F0F00F0F0F0F0F0F83
:108DEB000F0FFFFFFFFFFF0F0F0F00000000000032
:108DFB0000003F3F3F3F3F0000000000FCFCFCFC3D
:108E0B00FCFCFCFCFCFCFCFC00000000FFFFFFFF7B
:108E1B00FF0303030303030300000000FFFFFFFF37
:108E2B00FFFCFCFCFCF8F0C000000000070703038C
:108E3B000303070FFFFFFFFFFE0000F8F0E0C0C0C9
:108E4B00C0C0E0F8FFFFFFFF3F00001F3F3F7F7FE9
:108E5B007F7F7F7F3F1F0F010000000080E0F0F855
:108E6B00FCFEFEFEFEFEFC00000000F8FFFFFFFF15
:108E7B000F030101010103000000FFFFFFFFFFF8DB
:108E8B00FCFEFEFEFEFCF8E00000FFFFFFFFFF0311
:108E9B0001010307FFFFFFFFFF0007FFFFFFFFF8C5
:108EAB00C08080E0FFFFFFFF3F000000071F3F3F38
:108EBB007F7F7F7F3F1F0F010000FCFCFCFCFCFC55
:108ECB00FCFCFCFCFCFCFCFCFC00030303030303A9
:108EDB000303C3FFFFFFFFFF1F00000000000000A4
:108EEB00C0FCFFFFFFFF1F0100000000000080F827
:108EFB00FFFFFFFF3F0300000000000000F8FFFF33
:108F0B00FFFF7F0300000000000000303F3F3F3FAA
:108F1B003F0700000000000000000000E0F8FCFC30
:108F2B00FEFEFEFEFCFCF8E0800000FFFFFFFFFFF3
:108F3B0003010103FFFFFFFFFF0000073FFFFFFFE0
:108F4B00FFFCF8FCFFFF1F070000E0FCFEFFFF0F1C
:108F5B00070F1F3FFFFFFFFEF0007FFFFFFFFFE04C
:108F6B00C08080E0FFFFFFFF7F0000070F1F3F7FE8
:108F7B007F7F7F7F3F1F0F0300000080E0F8FCFE28
:108F8B00FEFEFEFEFCF8E0800000F8FFFFFFFF0F87
:108F9B000101030FFFFFFFFFF000FFFFFFFFFFE0EB
:108FAB00C08080C0FFFFFFFFFF0000071F3F7F7FD8
:108FBB007F7F3F1FFFFFFFFF7F000000C08080808F
:108FCB0080C0F0FFFFFFFF1F000000007F7F7F7F4F
:108FDB007F7F3F1F0F070000000000000000000014
:108FEB00000000000000000000000000000000FF77
:108FFB00FFFFFFFF00000000000000000000000F5B
:10900B000F0F0F0F0000000000000000000000E039
:10901B00E0E0E0E00000000000000000000000FFC6
:10902B00FFFFFFFF00000000000000000000000138
:0A903B000101010100000000000027
:1077110064000008000000000000000000000000FC
:107721000000000000000000000000000000000058
:107731000000000000000000000000000000000048
:107741000000000000000000000000000000000038
:107751000000000000000000000000000000000028
:107B110000000000640004080000000000000000F4
:107B21000000000000000000000000000000000054
:107B31000000000000000000000000000000000044
:107B41000000000000000000000000000000000034
:107B51000000000000000000000000000000000024
:107F110000000000000000006400080800000000EC
:107F21000000000000000000000000000000000050
:107F31000000000000000000000000000000000040
:107F41000000000000000000000000000000000030
:107F51000000000000000000000000000000000020
:108311000000000000000000000000004800000B09
:078321000B0B0B0B0B0B0B08
:10E70000900FE6EBF0A3EAF0A3E9F012DA68900FBD
:10E71000E6E0FBA3E0FAA3E0F9900002126E26FF08
:10E7200012F3E7900FE6E0FBA3E0FAA3E0F9900014
:10E7300004126E26FF12F191900FE6E0FBA3E0FABF
:10E74000A3E0F9900003126E26FF12F4AF7F0102DE
:02E75000F424AF
:0BC3DA00900FE6EFF0A3EDF0A3EBF0F6
:10C3E500A3E0131313541F752700F528900FF0E0F1
:10C3F500600302C48DF525AF257E00C3EF9528EEB9
:10C405009527400302C530900FE7E02FFFEE33FE7E
:10C41500EF7807C333CE33CED8F9FF900FE6E07C33
:10C42500002FF52AEC3EF529900FE8E0FFE5258F72
:10C43500F0A485F02BF52CE4F526900FE8E0FFE558
:10C4450026C39F503EAF267E00E52C2FFDEE352BF3
:10C45500FC900FEAE0FBA3E0FAA3E0F98D828C8360
:10C46500126E26FDE52A2FFFEE3529FE900FEDE031
:10C47500FBA3E0FAA3E0F98F828E83ED126E980597
:10C485002680B7052502C3FCE4F525AF257E00C34C
:10C49500EF9528EE9527400302C530900FE7E02F72
:10C4A500FFEE33FEEF7807C333CE33CED8F9FF90D6
:10C4B5000FE6E07C002FF52AEC3EF529900FE8E029
:10C4C500FFE5258FF0A485F02BF52CE4F526900FDC
:10C4D500E8E0FFE526C39F504DAF267E00E52A2FF5
:10C4E500FDEE3529FC900FEDE0FBA3E0FAA3E02D6E
:10C4F500F9EA3CFAC003C002C001126E0DFDE52C3D
:10C505002FFFEE352BFE900FEAE0FBA3E0FAA3E048
:10C51500F98F828E83126E264DD001D002D0031280
:0BC525006E86052680A8052502C49044
:01C5300022E8
:06EB82007B017A0879080E
:0BEB8800900FF5EBF0A3EAF0A3E9F01A
:10EB9300E4F52FF530900FF5E0FBA3E0FAA3E0F9DD
:10EBA300853082852F83E4126E980530E53070023C
:0AEBB300052FB400E0E52FB404DBE9
:01EBBD002235
:0BDF1700900FE6EFF0A3EDF0A3EBF09D
:10DF2200A3E0131313541F752700F528E4F525AF5A
:10DF3200257E00C3EF9528EE95275055900FE7E018
:10DF42002FFFEE33FEEF7807C333CE33CED8F9FF7F
:10DF5200900FE6E07C002FF52AEC3EF529E4F52649
:10DF6200900FE8E0FFE526C39F50227E00E52A25B8
:10DF720026FFEE3529FE900FEAE0FBA3E0FAA3E0CC
:10DF8200F98F828E83E4126E98052680D305258050
:01DF92009EF0
:01DF9300226B
:10ED1600E4F525F52674082526F58274003525F5D3
:10ED260083E0FF74082526F58274043525F583EF04
:10ED3600F00526E52670020525B400D9E525B404BC
:01ED4600D4F8
:01ED470022A9
:03009E0002E83C39
:0AE43000900FF5EFF0900FF7EBF0FE
:10E43A00AF058F2F900FF8E0FFE52FC39F5047904D
:10E44A000FF5E0FFAD2F12F04EE52F75F080A48591
:10E45A00F031F532E4F530900FF7E0FFE530C39F75
:10E46A0050207E00E5322530FFEE3531FE74082F4C
:10E47A00F58274003EF583E0FF7D0112F103053059
:06E48A0080D5052F80AED5
:01E490002269
:0E9D3A00900FE6EBF0A3EAF0A3E9F0A3EDF042
:109D48006003029E4CF525E4F526E52675F080A40F
:109D580085F029F52A2480F52CE43529F52B852969
:109D680027852A28C3E528952CE527952B503E748E
:109D7800882528F58274003527F583E0C4333354E9
:109D8800C0FF74082528F58274003527F583E01391
:109D980013543F4FFF74082528F58274003527F5C2
:109DA80083EFF00528E52870BB052780B70526E571
:109DB80026B40796E5251313543F75F080A485F063
:109DC80029F52AE525540375F002A4FFAEF0C37403
:109DD800069FF52CE49EF52BE4F5267E00E52A2562
:109DE80026FFEE3529FE900FE6E0FBA3E0FAA3E09C
:109DF800F98F828E83126E26FFAE2CA80608800289
:109E0800C333D8FC54C0FF74882526F582E4340394
:109E1800F583E0FE1313543F4FFF74882526F5821F
:109E2800E43403F583EFF00526E526B480AD7B0125
:109E38007A00790812E83C0525E525C394205003EB
:109E4800029D4F22900FE9E064016003029F73F5C1
:109E580025E4F526C374079526FFE49400FEEF7801
:109E680007C333CE33CED8F9F52A8E292480F52CB2
:109E7800E43529F52B852927852A28C3E528952C3B
:109E8800E527952B503E74082528F5827400352760
:109E9800F583E025E025E0FF74882528F58274FF26
:109EA8003527F583E0C4131354034FFF740825289E
:109EB800F58274003527F583EFF00528E52870BB97
:109EC800052780B70526E52664077088E52513135E
:109ED800543FFFC374079FFFE49400FEEF7807C365
:109EE80033CE33CED8F9F52A8E29E525540375F0FB
:109EF80002A4FFAEF0C374069FF52CE49EF52BE494
:109F0800F5267E00E52A2526FFEE3529FE900FE688
:109F1800E0FBA3E0FAA3E0F98F828E83126E26FF9E
:109F2800AE2CA806088002C313D8FC5403FF74089B
:109F38002526F582E43400F583E0FE25E025E04F90
:109F4800FF74082526F582E43400F583EFF0052632
:109F5800E526B480AD7B017A00790812E83C052536
:109F6800E525C394205003029E5922900FE9E0642E
:109F780002600302A058F525E4F526E52675F08071
:109F8800A485F029F52A247EF52CE43529F52B85BE
:109F98002927852A28C3E528952CE527952B5026BF
:109FA800740A2528F58274003527F583E0FF7408C4
:109FB8002528F58274003527F583EFF00528E52874
:109FC80070D3052780CF900FE6E0FBA3E0FAA3E06B
:109FD800F975F002E525A4252AF582E5F03529F57D
:109FE80083126E26FF7408252CF5827400352BF534
:109FF80083EFF0E52A2401FFE43529FE75F002E538
:10A0080025A42FF582E5F03EF583C083C082900F2A
:10A01800E6E0FBA3E0FAA3E0F9D082D083126E2633
:10A02800FF7409252CF5827400352BF583EFF005B4
:10A0380026E52664086003029F837B017A0079087D
:10A0480012E83C0525E525C394405003029F802271
:10A05800900FE9E06403600302A136F525E4F526D4
:10A06800E52675F080A485F029F52A247FF52CE4EF
:10A078003529F52BF527852C28D3E528952AE527BA
:10A088009529402674062528F58274003527F5831E
:10A09800E0FF74082528F58274003527F583EFF072
:10A0A800E528152870D3152780CFE52575F002A47B
:10A0B800FFE52A247FCDE43529CDC39FFFED95F038
:10A0C800FE900FE6E0FBA3E0FAA3E0F98F828E830F
:10A0D800126E26FF7409252AF58274003529F58346
:10A0E800EFF0E52575F002A4FFE52A247ECDE435DE
:10A0F80029CDC39FFFED95F08F82F583126E26FF61
:10A108007408252AF58274003529F583EFF00526B1
:10A11800E5266408600302A0687B017A00790812CA
:0EA12800E83C0525E525C39440500302A065E0
:01A136002206
:06CD4B007B017A08790863
:0ECD5100900FF5EBF0A3EAF0A3E9F0A3EDF0EC
:10CD5F00E4F52F900FF8E0FFE52FC39F400302CEBD
:10CD6F005EE4F530E53075F080A485F033F53424BA
:10CD7F0080F536E43533F535853331853432C3E507
:10CD8F00329536E5319535503D74882532F58274EC
:10CD9F00003531F583E0C43333335480FF740825F5
:10CDAF0032F58274003531F583E0C3134FFF7408F9
:10CDBF002532F58274003531F583EFF00532E53217
:10CDCF0070BC053180B80530E530B40797E52F13F7
:10CDDF001313541F75F080A485F033F534E52F54E9
:10CDEF0007FFC374079FF536E49400F535E4F5307B
:10CDFF007E00E5342530FFEE3533FE900FF5E0FB76
:10CE0F00A3E0FAA3E0F98F828E83126E26FFAE366F
:10CE1F00A806088002C333D8FC5480FF74882530DD
:10CE2F00F582E43403F583E0FEC3134FFF748825C6
:10CE3F0030F582E43403F583EFF00530E530B4804C
:0FCE4F00AF7B017A00790812E83C052F02CD6213
:01CE5E0022B1
:0EC67C00900FE6EBF0A3EAF0A3E9F0A3EDF0D7
:10C68A00E4F525900FE9E0FFE525C39F400302C7C3
:10C69A00A6E4F526C374079526FFE49400FEEF7816
:10C6AA0007C333CE33CED8F9F52A8E292480F52C48
:10C6BA00E43529F52B852927852A28C3E528952CD1
:10C6CA00E527952B503D74082528F58274003527F7
:10C6DA00F583E025E0FF74882528F58274FF352765
:10C6EA00F583E0C413131354014FFF74082528F58A
:10C6FA008274003527F583EFF00528E52870BC051C
:10C70A002780B80526E52664077089E525131313E3
:10C71A00541FFFC374079FFFE49400FEEF7807C31A
:10C72A0033CE33CED8F9F52A8E29E5255407FFC32F
:10C73A0074079FF52CE49400F52BE4F5267E00E5BA
:10C74A002A2526FFEE3529FE900FE6E0FBA3E0FA44
:10C75A00A3E0F98F828E83126E26FFAE2CA80608FC
:10C76A008002C313D8FC5401FF74082526F582E41D
:10C77A003400F583E0FE25E04FFF74082526F58294
:10C78A00E43400F583EFF00526E526B480AF7B019B
:0CC79A007A00790812E83C052502C68DE3
:01C7A6002270
:0AF42400EF600302F27112F3AC2254
:0BF3E700EFD394FF40027FFF02F331E0
:10F19100EF60097F0112F2827F018007E4FF12F222
:07F1A10082E4FF12F2932249
:03F4AF0002F2A4C2
:10AE2500EF75F00A84900FF0F0EF75F00A84A3E552
:10AE3500F0F0A3740AF0ED75F00A84A3F0ED75F057
:10AE45000A84A3E5F0F0A3740AF0EB75F00A84A375
:10AE5500F0EB75F00A84A3E5F0F0900FE67407F0C7
:10AE6500900FE6E0FFC364809480500302B08EEF3C
:10AE75003395E0FE74002FF58274003EF583E0FD06
:10AE850074F02FF582740F3EF583E06D700302B008
:10AE950064E4900FE7F0E4FBEB2401FFE433FEEFFD
:10AEA5007807C333CE33CED8F9FDAC06900FE6E074
:10AEB500FF3395E0FEEFC4F8540FC868FFEEC454A5
:10AEC500F048FEED2FFFEC3E900FEAF0A3EFF09077
:10AED5000FEAE0FCA3E0FD2410FEE43CA3F0A3CEC2
:10AEE500F0900FE8ECF0A3EDF0900FECE0FEA3E09E
:10AEF500FF900FE8E0FCA3E0FDC39FEC9E504C746F
:10AF0500882DF58274003CF583E0FE74082DF582EA
:10AF150074003CF583E0FDEDFF900FEEEEF0A3EF3E
:10AF2500F0900FEEE0C313A3E013FF900FE8A3E04A
:10AF35002408F58274003CF583EFF0900FE9E004F6
:10AF4500F07006900FE8E004F0809E0BEB6405605E
:10AF55000302AE9DEB2401FFE433FEEF7807C33314
:10AF6500CE33CED8F9FDAC06900FE6E0FF3395E081
