:1060AB00D3EF9400EE9400400F7D187C55DCFEDDA1
:0860BB00FCEF1F70EB1E80E8F2
:0160C30022BA
:0A6077001260817F021260817F1029
:10608100ED6004D2928002C292C2C38F80D2C32239
:10603E00AE07ED24B0FFE4FD126081EE54F0C454BF
:0E604E000F4410FF126081EE540FFF026081BC
:10614300E4FD7F8D1260817F141260817FAF026056
:0161530081CA
:0C623600E4FD7F8D12607C7FAE02608171
:0E61E400AE07E4FD7F81126081AF060260818C
:10615400EF6006E4FD7FA08004E4FD7FA11260816E
:016164002218
:10616500EF6006E4FD7FC08004E4FD7FC812608116
:016175002207
:10617600EF6006E4FD7FA78004E4FD7FA612608140
:0161860022F6
:10601F00E4FEEE24B0FFE4FD126077E4FC7D01E4C2
:0E602F00FF1260810CECB480F40EEEB408E4B5
:01603D002240
:105C8200E4F53AE53A24B0FFE4FD12607CE4FF1249
:105C92006081E53A75F080A485F03CF53DE4F53B82
:105CA2007E00E53D253BFFEE353C8F82F583123DBC
:105CB20020FF7D01126081053BE53BC3948040E0FB
:095CC200053AE53AC3940840BA22
:015CCB0022B6
:10589800D2937F147E001260ABC2937F0A7E0012FF
:1058A80060ABD293D2C4E4FD7FAE1260777F401222
:1058B80060817F811260817F7F1260817FC8126062
:1058C800817FA11260817FA81260817F3F12608171
:1058D8007FD3126081E4FF1260817FD51260817FDF
:1058E800801260817FD91260817FF11260817FDA36
:1058F8001260817F121260817FDB1260817F40120B
:1059080060817F201260817F021260817F8D12602A
:10591800817F141260817FA41260817FA61260814A
:105928007FAF12608112608112601FE4FDFF026088
:015938003E30
:0A1FB800430CCE0000EF410C7D0049
:07009C0075DE2F75BC8F22F9
:10605C00EF4480F5BC75BC400000E5BC30E5FB535B
:0A606C00BCDFAFBDEFFEADBDEDFFE0
:016076002207
:06627D00EF24FF92C02295
:0D621C00EF60044391802253917FC29722CE
:10566800900D30123F3100000000E4900D34F0A39B
:10567800F0A3F0A3F07F0F12605C7F0F12605CE470
:10568800900D34F0A3F0900D30E0F8A3E0F9A3E01A
:10569800FAA3E0FB7F0F12605CEE3395E0FDFCEBB4
:1056A8002FFFEA3EFEE93DFDE83CFC900D30123F3D
:1056B80025900D35E004F07006900D34E004F0C339
:1056C800900D35E09440900D34E06480948040B6AD
:1056D800900D30E0FCA3E0FDA3E0FEA3E0FF780618
:1056E800123ED9900D30123F25900CCEE0FBA3E07E
:1056F800FAA3E0F9123DECFFAEF0EE3395E0FDFCC5
:10570800E47BFF7A0FF9F8123E7C900D30E0F8A3A5
:10571800E0F9A3E0FAA3E0FB125DE1900D36EEF0AC
:10572800A3EFF0FDAC06EC123C00E4FBFA797A78C2
:0457380044123AD409
:01573C00224A
:1053BC00900D27123F3100000000E4900D2FF012E9
:1053CC0056687B9A7A99795978C01238DA7B487A80
:1053DC00E1793A783F123AD4900D2B123F25E4FF35
:1053EC00FE7D807C3F900D2BE0F8A3E0F9A3E0FA62
:1053FC00A3E0FB123B71600E400C900D2B123F3161
:10540C003F8000008022E4FFFEFDFC900D2BE0F8B5
:10541C00A3E0F9A3E0FAA3E0FB123B71500A900D54
:10542C002B123F3100000000900C7DE0703804F02E
:10543C00E4900D2FF0900D2FE0FBC39414502790A7
:10544C000D2BE0FCA3E0FDA3E0FEA3E0FFEB25E0C9
:10545C0025E0247EF582E4340CF583123F25900D73
:10546C002FE004F080CF900D2F7413F0900D2FE0EF
:10547C00FBD394004057EB25E025E0247AF582E439
:10548C00340CF583E0FCA3E0FDA3E0FEA3E0FF9069
:10549C000C82123F25900D27E0FCA3E0FDA3E0FE5B
:1054AC00A3E0FFEB25E025E0247EF582E4340CF547
:1054BC0083E0F8A3E0F9A3E0FAA3E0FB1238DA905A
:1054CC000D27123F25900D2FE014F0809F900D2793
:1054DC00E0FCA3E0FDA3E0FEA3E0FFA3E0F8A3E063
:1054EC00F9A3E0FAA3E0FB1238DA900D27123F255E
:1054FC00E4FBFA79A07841900D27E0FCA3E0FDA332
:10550C00E0FEA3E0FF123AD4900D2B123F25900D34
:10551C002BE0FCA3E0FDA3E0FEA3E0FF900C7E12C9
:10552C003F25900D2BE0FCA3E0FDA3E0FEA3E0FFE4
:01553C00224C
:105F3500900D85E590F0E4F580F5907592307591BA
:105F4500B0759601F59575B08475C099F5C8C2A967
:0B5F550053AFFE53AFDF758702000062
:015F6000221E
:105F6100AF90E4F580F5907592307591B075A00110
:105F7100F596F59575B084F5C0F5C8C2A953AFFE85
:0A5F810053AFDF75870200008F9018
:015F8B0022F3
:0C624200125F06D2A943AF0143AF202237
:1061310043BA8090FE8074D0F090FE82E4F053BAAE
:026141007F22BB
:105FDB0075420175432C90FE82E020E60DE54315DA
:105FEB00437002154214454270EC90FE82E054BFA0
:025FFB00F02292
:08618700EDF0EBA3F043BA8038
:09618F0090FE817401F0025FDB57
:105FFD00900D5BE0FBA3E0FAA3E0F9A3E0F5827559
:09600D008300EF123D5F1261B740
:0960160090FE817406F0025FDBCC
:0E61F20090FE86EFF090FE817402F0025FDBFB
:0F61A80090FE817404F0125FDB90FE87E0FF220F
:0962630090FE817403F0025FDB80
:0E62000090FE82E4F090FE817405F0025FDBF8
:0F61B70090FE827401F090FE817405F0025FDBB0
:105F8C00900D81126187120000126263900D81E006
:105F9C00FF120000126263900D82E0FF12000012EB
:095FAC00626312601653BA7F22F1
:065E6100900D83EFF0ED4F
:105E670012618A900D83E0FF120000126263900DA9
:105E770084E0FF12000012626312618F900D83E0CD
:105E8700FF1200001262631200001261B71260165F
:035E970053BA7F7C
:015E9A0022E5
:0E5BDC00900D55EDF0A3EBF0A3EAF0A3E9F075
:105BEA00E412618A120000126263E4900D59F09087
:105BFA000D55E0FF900D59E0FEC39F5022900D56BF
:105C0A00E0FBA3E0FAA3E0F98E82758300123D203F
:105C1A00FF120000126263900D59E004F080D01266
:055C2A00601653BA7F73
:015C2F002252
:0D5D9D00900D5AEDF0A3EBF0A3EAF0A3E99E
:105DAA0012618BEF04FF120000126263E4900D5E31
:105DBA00F0900D5AE014FF900D5EE0C39F500E1252
:105DCA000000125FFD900D5EE004F080E412000016
:065DDA00125FFD53BA7FC9
:015DE00022A0
:065AB700900D40EFF0A38A
:105ABD00126187900D40E0FF120000126263900D9D
:105ACD0041E0FF12000012626312618F900D40E001
:105ADD0004FF120000E4900D46F0900D42E014FF1B
:105AED00900D46E0C39F5024120000900D43E0FB43
:105AFD00A3E0FAA3E0F9A3E0F582758300EF123D70
:105B0D005F126200900D46E004F080CE120000900E
:085B1D000D4312600053BA7F32
:015B2500225D
:101FC20060750C080A0532000000081E01010001BC
:101FD20042C2333300000000000000000000000095
:101FE20000003F8000003F80000000000000000071
:101FF20000000000000000000000000000000000DF
:1020020000000000000000000000000000000000CE
:1020120000000000000000000000000000000000BE
:1020220000000000000000000000000000000000AE
:09203200000000000000000000A5
:0D622900438904E4F58AF58CC28CD2A922C9
:1061980043D10275D54075D4A243D10843AF042238
:0F61C600D288D2A8D28AD2AA438F10438F202228
:1060C400759850438E40538EFE53890F758BCC7553
:0960D4008DFFC2ABD28ED29922DD
:10611E00759A50438E0475D78F75D6FD438E1043F6
:03612E00A80122A3
:105F0600E4F580F594F593D293D296759230759117
:105F1600B075A0B9759641F59575B094F5B2F5B121
:0F5F260075C019F5B4F5B375C820F5CAF5C922D1
:0462830075C1272298
:0462870043C11022DD
:0B5A4200900D5FEBF0A3EAF0A3E9F089
:105A4D00E4FFA3F0A3F0900D5FE0FBA3E0FAA3E069
:105A5D00F98F82758300123D20FD900D63E02DF0CE
:105A6D00900D62E03400F00FEFB473DA900D62E048
:105A7D00FEA3E0FF900D5FE0FBA3E0FAA3E0F99039
:105A8D000073EE8FF0123E4F7F807E01125FB59056
:105A9D000D5FE0FBA3E0FAA3E0F9900D4CE4F0A359
:0A5AAD007475F07F807E01025D58E1
:0B573D00900CF8EBF0A3EAF0A3E9F0F9
:10574800E4A3F0A3F0A3F0900D03F0A37475F07F29
:10575800807E01125D13900CFBE0FFC39473502907
:10576800900CF8E0FBA3E0FAA3E0F98F82758300C0
:10577800123D20FF900CFDE02FF0900CFCE034006F
:10578800F0900CFBE004F080CD900CF8E0FBA3E077
:10579800FAA3E0F9900073123E17FF900CFCE0B5F5
:1057A800F008A3E0B507037F0122E4900CFBF0901A
:1057B8000CFBE0FF7C007B012408F9EC340CFA12A6
:1057C8003D07FE900CF8E0FBA3E0FAA3E0F98F8216
:1057D800758300EE123D5F900CFBE004F0E0B475B9
:0357E800CE7F0071
:0157EB00229B
:08627500EF640124FF92A02256
:105CCC00125F061260C412611E12622912619812D0
:105CDC0061C612009C1261311262837B017A0079D9
:105CEC000012573D125E9B900000E0FF12626CE4C4
:105CFC00FF1262750F12621C7F057E001260917F8D
:075D0C000112627DD2AF22FB
:0E620E00E4F5C7F5C5F5C675C3FF75C4FF22DC
:105D1300AD07AC06A2AF92D5C2AF75C78075C501FA
:105D2300ECF5C3AF058FC475C65A75C6A500E5C2A9
:105D3300123D4D0DBD00010C740129F9E43AFA90AE
:105D43000D0374FFF5F0123DD645F070D312620EC9
:055D5300A2D592AF2271
:105FB500AD07AC06A2AF92D5ECF5C3AF058FC4759E
:105FC500C78075C50375C65A75C6A50012620EE56C
:065FD5008024FF92AF22C0
:105D5800AD07AC06A2AF92D5C2AF75C78075C502B4
:105D6800ECF5C3AF058FC4123D07F5C275C65A7569
:105D7800C6A5000DBD00010C740129F9E43AFA909A
:105D88000D4C74FFF5F0123DD645F070D312620E3B
:055D9800A2D592AF222C
:0B203B00C10C410D7800420D7900003F
:105E9B0043BA8090FFF2E4F090FFF07417F0A37414
:105EAB0070F090FF647480F090FF60E4F0A3F0A3B7
:105EBB00740BF0A374B8F053BA7F43D12075D34061
:095ECB0075D2A243AF40C20C22C3
:1060F40043BA80EFB4010543FE80800553FE7FC29E
:05610400A653BA7F2242
:0300A30002000355
:10000300C0E0C0F0C083C082C0D075D00853EFFBFE
:10001300900D78E0FE7019A3E07004A3E064C8704B
:100023006D900D79F0A3F0FF1260F453D17F805EE1
:10003300EE64017059900D79E0FEA3E0FFC394587C
:10004300EE940250367C007D64123D81ED4C702BA2
:10005300900D79E0FEA3E0FF7C007D64123D81EF0B
:1000630054016401FF1260F4900D79E0FEA3E0FFF8
:100073007C007D64123D81EF1392A0900D79E0B472
:10008300030CA3E0B4E807900D79E4F0A3F0D0D01B
:09009300D082D083D0F0D0E0321D
:10610900E4900D78F0A3F0A3F0300C087F01126041
:05611900F443D18022D7
:0F61D500900D787401F0E4A3F0A3F043D1802281
:09626C00EF6003D20C22C20C22E7
:10609100D3EF9400EE94004010007D207C28DCFEBC
:0960A100DDFCEF1F70EA1E80E730
:0160AA0022D3
:102C89000000000000000000002F00000000070005
:102C9900070000147F147F1400242A7F2A120023BE
:102CA90013086462003649552250000005030000EC
:102CB90000001C224100000041221C000014083EB3
:102CC90008140008083E0808000000A06000000879
:102CD90008080808000060600000002010080402CD
:102CE900003E5149453E0000427F4000004261518B
:102CF9004946002141454B31001814127F10002725
:102D090045454539003C4A494930000171090503E7
:102D190000364949493600064949291E0000363618
:102D2900000000005636000000081422410000147B
:102D39001414141400004122140800020151090658
:102D490000324959513E007C1211127C007F4949D9
:102D59004936003E41414122007F4141221C007F0A
:102D690049494941007F09090901003E4149497A18
:102D7900007F0808087F0000417F41000020404192
:102D89003F01007F08142241007F40404040007FFE
:102D9900020C027F007F0408107F003E4141413E42
:102DA900007F09090906003E4151215E007F09198A
:102DB90029460046494949310001017F0101003F87
:102DC9004040403F001F2040201F003F4038403F07
:102DD900006314081463000708700807006151496B
:102DE900454300007F41410000552A552A550000FE
:102DF90041417F000004020102040040404040407C
:102E0900000001020400002054545478007F484413
:102E1900443800384444442000384444487F00384A
:102E29005454541800087E0901020018A4A4A47C73
:102E3900007F080404780000447D4000004080843D
:102E49007D00007F102844000000417F4000007C85
:102E590004180478007C0804047800384444443891
:102E690000FC242424180018242418FC007C0804DD
:102E7900040800485454542000043F444020003CB6
:102E89004040207C001C2040201C003C4030403C3D
:102E9900004428102844001CA0A0A07C00446454CD
:102EA9004C44141414141414000000000000000011
:102EB9000000000000000000000000000000000009
:102EC90000000000000000000000000000F8000001
:102ED9000000000000333000000000100C06100C48
:102EE9000600000000000000000040C07840C078E3
:102EF9004000043F04043F040400007088FC0830CB
:102F09000000001820FF211E0000F008F000E01862
:102F1900000000211C031E211E0000F0088870001B
:102F290000001E2123241927211010160E0000006D
:102F390000000000000000000000000000E018048C
:102F49000200000000071820400000020418E000F9
:102F590000000040201807000000404080F0804039
:102F690040000202010F01020200000000F000000F
:102F790000000101011F0101010000000000000023
:102F8900000080B070000000000000000000000098
:102F99000000000101010101010100000000000021
:102FA90000000030300000000000000000008060D8
:102FB9001804006018060100000000E0100808105D
:102FC900E000000F102020100F00001010F8000082
:102FD90000000020203F2020000000700808088819
:102FE90070000030282422213000003008888848E9
:102FF90030000018202020110E000000C02010F819
:10300900000000070424243F240000F808888808E9
:1030190008000019212020110E0000E010888818EE
:103029000000000F112020110E0000380808C838D0
:1030390008000000003F00000000007088080888B0
:103049007000001C222121221C0000E01008081039
:10305900E0000000312222110F00000000C0C00072
:103069000000000000303000000000000080000077
:103079000000000080600000000000008040201077
:103089000800000102040810200040404040404070
:1030990040000404040404040400000810204080D3
:1030A9000000002010080402010000704808080808
:1030B900F0000000003036010000C030C828E810D8
:1030C900E0000718272423140B000000C038E00093
:1030D9000000203C23020227382008F888888870DD
:1030E9000000203F202020110E00C03008080808E9
:1030F9003800071820202010080008F808080810D0
:10310900E000203F202020100F0008F88888E808F8
:103119001000203F20202320180008F88888E8089C
:103129001000203F200003000000C03008080838C4
:10313900000007182020221E020008F808000008D5
:10314900F808203F210101213F20000808F808085C
:1031590000000020203F2020000000000808F80897
:103169000800C08080807F00000008F888C0281807
:103179000800203F20012638200008F80800000038
:103189000000203F20202020300008F8F800F8F83F
:103199000800203F003F003F200008F830C0000829
:1031A900F808203F200007183F00E0100808081021
:1031B900E0000F10202020100F0008F80808080868
:1031C900F000203F210101010000E010080808106B
:1031D900E0000F18242438504F0008F888888888A0
:1031E9007000203F2000030C302000708808080878
:1031F90038000038202121221C00180808F8080886
:1032090018000000203F2000000008F8080000080E
:10321900F808001F202020201F000878880000C817
:103229003808000007380E010000F80800F8000807
:10323900F800033C0700073C030008186880806811
:10324900180820302C03032C30200838C800C8384F
:1032590008000000203F2000000010080808C838B6
:1032690008002038262120201800000000FE020254
:1032790002000000007F40404000000C30C0000008
:103289000000000000010638C00000020202FE0032
:103299000000004040407F000000000004020202DC
:1032A9000400000000000000000000000000000011
:1032B90000008080808080808080000202040000FD
:1032C90000000000000000000000000080808080F5
:1032D90000000019242222223F2008F800808000E3
:1032E9000000003F112020110E00000000808080A6
:1032F9000000000E112020201100000000808088AD
:10330900F800000E112020103F20000080808080EE
:103319000000001F222222221300008080F08888EA
:1033290088180020203F2020000000008080808035
:103339008000006B94949493600008F8008080806A
:103349000000203F210000203F20008098980000C5
:1033590000000020203F20200000000000809898F5
:10336900000000C08080807F000008F80000808095
:103379008000203F24022D302000000808F80000BA
:1033890000000020203F2020000080808080808075
:103399008000203F20003F20003F80800080808007
:1033A9000000203F210000203F2000008080808015
:1033B9000000001F202020201F0080800080800046
:1033C900000080FFA12020110E00000000808080F5
:1033D9008000000E112020A0FF8080808000808066
:1033E900800020203F212000010000008080808093
:1033F90080000033242424241900008080E0808088
:1034090000000000001F20200000808000000080D4
:103419008000001F202020103F2080808000008035
:10342900808000010E300806010080800080008045
:1034390080800F300C030C300F00008080008080EA
:1034490080000020312E0E31200080808000008015
:10345900808080818E7018060100008080808080C5
:1034690080000021302C2221300000000000807CE7
:10347900020200000000003F404000000000FF0081
:10348900000000000000FF0000000002027C800034
:1034990000000040403F0000000000060101020258
:1034A900040400000000000000000000E0F8FCFE39
:1034B900FEFEFEFEFCF8E0000000E0FFFFFFFF1F3C
:1034C9000301031FFFFFFFFFE000FFFFFFFFFF00F6
:1034D90000000000FFFFFFFFFF00FFFFFFFFFF00ED
:1034E90000000000FFFFFFFFFF0007FFFFFFFFF8DD
:1034F900C080C0F8FFFFFFFF07000000071F3F7FE4
:103509007F7F7F7F3F1F070000000000000080C011
:10351900FCFCFCFCFC000000000000007F7F7F7FBA
:10352900FFFFFFFFFF000000000000000000000097
:10353900FFFFFFFFFF000000000000000000000087
:10354900FFFFFFFFFF00000000000000C0C0C0C077
:10355900FFFFFFFFFFC0C0C0C00000003F3F3F3F6B
:103569003F3F3F3F3F3F3F3F3F0000F8F8FCFEFE33
:10357900FEFEFEFCFCF8E0000000001F0F0703033D
:1035890003070FFFFFFFFFFF00000000000000001E
:103599000000E0FFFFFFFF1F00000000000000C067
:1035A900F8FEFFFF7F0F0100000000C0F0FCFFFFE5
:1035B900FFDFC7C1C0C0C0C0C000003F3F3F3F3FA1
:1035C9003F3F3F3F3F3F3F3F3F0000F8F8FCFEFED3
:1035D900FEFEFEFEFCF8F0800000001F0F0703034B
:1035E900030307FFFFFFFFFF000000000000F8F8DA
:1035F900F8FCFEFFFFBF0F010000000000000707F5
:1036090007070F1FFFFFFFFEF000F8F0E0E0C0C062
:10361900C0C0E0F0FFFFFFFF3F001F1F3F3F7F7F5C
:103629007F7F7F3F3F1F0F03000000000000000065
:10363900C0F8FCFCFCFCFC00000000000000E0FC01
:10364900FF7FFFFFFFFFFF0000000080F0FFFF3F4B
:103659000300FFFFFFFFFF000000FCFFFFFFF1F089
:10366900F0F0FFFFFFFFFFF0F0F00F0F0F0F0F0F4C
:103679000F0FFFFFFFFFFF0F0F0F000000000000FB
:1036890000003F3F3F3F3F0000000000FCFCFCFC06
:10369900FCFCFCFCFCFCFCFC00000000FFFFFFFF45
:1036A900FF0303030303030300000000FFFFFFFF01
:1036B900FFFCFCFCFCF8F0C0000000000707030356
:1036C9000303070FFFFFFFFFFE0000F8F0E0C0C093
:1036D900C0C0E0F8FFFFFFFF3F00001F3F3F7F7FB3
:1036E9007F7F7F7F3F1F0F010000000080E0F0F81F
:1036F900FCFEFEFEFEFEFC00000000F8FFFFFFFFDF
:103709000F030101010103000000FFFFFFFFFFF8A4
:10371900FCFEFEFEFEFCF8E00000FFFFFFFFFF03DA
:1037290001010307FFFFFFFFFF0007FFFFFFFFF88E
:10373900C08080E0FFFFFFFF3F000000071F3F3F01
:103749007F7F7F7F3F1F0F010000FCFCFCFCFCFC1E
:10375900FCFCFCFCFCFCFCFCFC0003030303030372
:103769000303C3FFFFFFFFFF1F000000000000006D
:10377900C0FCFFFFFFFF1F0100000000000080F8F0
:10378900FFFFFFFF3F0300000000000000F8FFFFFC
:10379900FFFF7F0300000000000000303F3F3F3F74
:1037A9003F0700000000000000000000E0F8FCFCFA
:1037B900FEFEFEFEFCFCF8E0800000FFFFFFFFFFBD
:1037C90003010103FFFFFFFFFF0000073FFFFFFFAA
:1037D900FFFCF8FCFFFF1F070000E0FCFEFFFF0FE6
:1037E900070F1F3FFFFFFFFEF0007FFFFFFFFFE016
:1037F900C08080E0FFFFFFFF7F0000070F1F3F7FB2
:103809007F7F7F7F3F1F0F0300000080E0F8FCFEF1
:10381900FEFEFEFEFCF8E0800000F8FFFFFFFF0F50
:103829000101030FFFFFFFFFF000FFFFFFFFFFE0B4
:10383900C08080C0FFFFFFFFFF0000071F3F7F7FA1
:103849007F7F3F1FFFFFFFFF7F000000C080808058
:1038590080C0F0FFFFFFFF1F000000007F7F7F7F18
:103869007F7F3F1F0F0700000000000000000000DD
:10387900000000000000000000000000000000FF40
:10388900FFFFFFFF00000000000000000000000F24
:103899000F0F0F0F0000000000000000000000E003
:1038A900E0E0E0E00000000000000000000000FF90
:1038B900FFFFFFFF00000000000000000000000102
:0A38C90001010101000000000000F1
:10204600640000080000000000000000000000001E
:10205600000000000000000000000000000000007A
:10206600000000000000000000000000000000006A
:10207600000000000000000000000000000000005A
:10208600000000000000000000000000000000004A
:102446000000000064000408000000000000000016
:102456000000000000000000000000000000000076
:102466000000000000000000000000000000000066
:102476000000000000000000000000000000000056
:102486000000000000000000000000000000000046
:10284600000000000000000064000808000000000E
:102856000000000000000000000000000000000072
:102866000000000000000000000000000000000062
:102876000000000000000000000000000000000052
:102886000000000000000000000000000000000042
:102C46000000000000000000000000004800000B2B
:072C56000B0B0B0B0B0B0B2A
:105C3000900D7BEBF0A3EAF0A3E9F0125898900DD9
:105C40007BE0FBA3E0FAA3E0F9900002123D20FF05
:105C500012624E900D7BE0FBA3E0FAA3E0F9900006
:105C600004123D20FF1260DD900D7BE0FBA3E0FA03
:105C7000A3E0F9900003123D20FF12628E7F010223
:025C8000625967
:0B504900900D11EFF0A3EDF0A3EBF0D1
:10505400A3E0131313541F752400F525900D1BE0D2
:1050640060030250FCF522AF227E00C3EF9525EECB
:105074009524400302519F900D12E02FFFEE33FE62
:10508400EF7807C333CE33CED8F9FF900D11E07C0F
:10509400002FF527EC3EF526900D13E0FFE5228F57
:1050A400F0A485F028F529E4F523900D13E0FFE53D
:1050B40023C39F503EAF237E00E5292FFDEE352804
:1050C400FC900D15E0FBA3E0FAA3E0F98D828C833C
:1050D400123D20FDE5272FFFEE3526FE900D18E04A
:1050E400FBA3E0FAA3E0F98F828E83ED123D5F0506
:1050F4002380B7052202506BE4F522AF227E00C361
:10510400EF9525EE9524400302519F900D12E02F58
:10511400FFEE33FEEF7807C333CE33CED8F9FF90DA
:105124000D11E07C002FF527EC3EF526900D13E0E1
:10513400FFE5228FF0A485F028F529E4F523900DEE
:1051440013E0FFE523C39F504DAF237E00E5272FD7
:10515400FDEE3526FC900D18E0FBA3E0FAA3E02D4C
:10516400F9EA3CFAC003C002C001123D07FDE5297B
:105174002FFFEE3528FE900D15E0FBA3E0FAA3E027
:10518400F98F828E83123D204DD001D002D00312BC
:105194003D4D052380A805220250FFE4F522AF22ED
:1051A4007E00C3EF9525EE95244003025233900D03
:1051B40012E02FFFEE33FEEF7807C333CE33CED8A1
:1051C400F9FF900D11E07C002FF527EC3EF52690B9
:1051D4000D13E0FFE5228FF0A485F028F529E4F50E
:1051E40023900D13E0FFE523C39F503EAF237E00C1
:1051F400E5292FFDEE3528FC900D15E0FBA3E0FA20
:10520400A3E0F98D828C83123D20FDE5272FFFEE6C
:105214003526FE900D18E0FBA3E0FAA3E0F98F8297
:0F5224008E83ED123D5F052380B705220251A254
:015233002258
:065E25007B017A087908F8
:0B5E2B00900D7EEBF0A3EAF0A3E9F07D
:105E3600E4F544F545900D7EE0FBA3E0FAA3E0F916
:105E4600854582854483E4123D5F0545E54570023C
:0A5E56000544B400E0E544B404DBA9
:015E6000221F
:0B59C500900D4EEFF0A3EDF0A3EBF00F
:1059D000A3E0131313541F751C00F51DE4F51AAF53
:1059E0001A7E00C3EF951DEE951C5055900D4FE0AB
:1059F0002FFFEE33FEEF7807C333CE33CED8F9FF57
:105A0000900D4EE07C002FF51FEC3EF51EE4F51BDB
:105A1000900D50E0FFE51BC39F50227E00E51F253F
:105A20001BFFEE351EFE900D52E0FBA3E0FAA3E053
:105A3000F98F828E83E4123D5F051B80D3051A80A7
:015A40009EC7
:015A41002242
:105ED400E4F546F54774082547F58274003546F520
:105EE40083E0FF74082547F58274043546F583EF93
:105EF400F00547E54770020546B400D9E546B40409
:015F0400D4C8
:015F05002279
:03628B00025C8230
:0A5B2600900D64EFF0900D66EBF0B7
:105B3000AF058F3E900D67E0FFE53EC39F50479055
:105B40000D64E0FFAD3E12603EE53E75F080A48539
:105B5000F040F541E4F53F900D66E0FFE53FC39F5F
:105B600050207E00E541253FFFEE3540FE74082FB2
:105B7000F58274003EF583E0FF7D01126081053FF0
:065B800080D5053E80AE59
:015B860022FC
:0E403000900D68EBF0A3EAF0A3E9F0A3EDF029
:10403E006003024142F52AE4F52BE52B75F080A4CE
:10404E0085F02EF52F2480F531E4352EF530852EB2
:10405E002C852F2DC3E52D9531E52C9530503E74D2
:10406E0088252DF5827400352CF583E0C433335446
:10407E00C0FF7408252DF5827400352CF583E013EE
:10408E0013543F4FFF7408252DF5827400352CF51F
:10409E0083EFF0052DE52D70BB052C80B7052BE5C4
:1040AE002BB40796E52A1313543F75F080A485F0C0
:1040BE002EF52FE52A540375F002A4FFAEF0C3745B
:1040CE00069FF531E49EF530E4F52B7E00E52F25B5
:1040DE002BFFEE352EFE900D68E0FBA3E0FAA3E079
:1040EE00F98F828E83123D20FFAE31A80608800222
:1040FE00C333D8FC54C0FF7488252BF582E43403F7
:10410E00F583E0FE1313543F4FFF7488252BF58281
:10411E00E43403F583EFF0052BE52BB480AD7B0182
:10412E007A007908125C82052AE52AC3942050038E
:10413E0002404522900D6BE064016003024269F576
:10414E002AE4F52BC37407952BFFE49400FEEF7859
:10415E0007C333CE33CED8F9F52F8E2E2480F5310A
:10416E00E4352EF530852E2C852F2DC3E52D95317A
:10417E00E52C9530503E7408252DF5827400352CB3
:10418E00F583E025E025E0FF7488252DF58274FF88
:10419E00352CF583E0C4131354034FFF7408252DFB
:1041AE00F5827400352CF583EFF0052DE52D70BBEF
:1041BE00052C80B7052BE52B64077088E52A1313B1
:1041CE00543FFFC374079FFFE49400FEEF7807C3CC
:1041DE0033CE33CED8F9F52F8E2EE52A540375F053
:1041EE0002A4FFAEF0C374069FF531E49EF530E4F1
:1041FE00F52B7E00E52F252BFFEE352EFE900D685C
:10420E00E0FBA3E0FAA3E0F98F828E83123D20FF3C
:10421E00AE31A806088002C313D8FC5403FF7408FD
:10422E00252BF582E43400F583E0FE25E025E04FF2
:10423E00FF7408252BF582E43400F583EFF0052B8F
:10424E00E52BB480AD7B017A007908125C82052AD9
:10425E00E52AC39420500302414F22900D6BE06477
:10426E0002600302434EF52AE4F52BE52B75F08030
:10427E00A485F02EF52F247EF531E4352EF530850C
:10428E002E2C852F2DC3E52D9531E52C95305026FE
:10429E00740A252DF5827400352CF583E0FF740821
:1042AE00252DF5827400352CF583EFF0052DE52DC7
:1042BE0070D3052C80CF900D68E0FBA3E0FAA3E04D
:1042CE00F975F002E52AA4252FF582E5F0352EF5D5
:1042DE0083123D20FF74082531F58274003530F5C8
:1042EE0083EFF0E52F2401FFE4352EFE75F002E595
:1042FE002AA42FF582E5F03EF583C083C082900D8F
:10430E0068E0FBA3E0FAA3E0F9D082D083123D204F
:10431E00FF74092531F58274003530F583EFF00511
:10432E002BE52B640860030242797B017A00790841
:10433E00125C82052AE52AC394405003024276227B
:10434E00900D6BE06403600302442CF52AE4F52B18
:10435E00E52B75F080A485F02EF52F247FF531E442
:10436E00352EF530F52C85312DD3E52D952FE52CF9
:10437E00952E40267406252DF5827400352CF58376
:10438E00E0FF7408252DF5827400352CF583EFF0CF
:10439E00E52D152D70D3152C80CFE52A75F002A4CE
:1043AE00FFE52F247FCDE4352ECDC39FFFED95F095
:1043BE00FE900D68E0FBA3E0FAA3E0F98F828E83F6
:1043CE00123D20FF7409252FF5827400352EF583DA
:1043DE00EFF0E52A75F002A4FFE52F247ECDE4353B
:1043EE002ECDC39FFFED95F08F82F583123D20FFFA
:1043FE007408252FF5827400352EF583EFF0052B0A
:10440E00E52B6408600302435E7B017A0079081293
:0E441E005C82052AE52AC39440500302435BEA
:01442C00226D
:0E553D00900D6CEBF0A3EAF0A3E9F0A3EDF003
:10554B00E4F532900D6FE0FFE532C39F4003025646
:10555B0067E4F533C374079533FFE49400FEEF78EB
:10556B0007C333CE33CED8F9F5378E362480F539D1
:10557B00E43536F538853634853735C3E535953919
:10558B00E5349538503D74082535F5827400353473
:10559B00F583E025E0FF74882535F58274FF3534FB
:1055AB00F583E0C413131354014FFF74082535F52D
:1055BB008274003534F583EFF00535E53570BC05A5
:1055CB003480B80533E53364077089E53213131360
:1055DB00541FFFC374079FFFE49400FEEF7807C3CB
:1055EB0033CE33CED8F9F5378E36E5325407FFC3B9
:1055FB0074079FF539E49400F538E4F5337E00E544
:10560B00372533FFEE3536FE900D6CE0FBA3E0FA49
:10561B00A3E0F98F828E83123D20FFAE39A80608D6
:10562B008002C313D8FC5401FF74082533F582E4C0
:10563B003400F583E0FE25E04FFF74082533F58237
:10564B00E43400F583EFF00533E533B480AF7B0131
:0C565B007A007908125C82053202554E7C
:015667002220
:0A625900EF60030261431262362277
:0B624E00EFD394FF40027FFF0261E4E9
:1060DD00EF60097F011261547F018007E4FF1261B7
:0760ED0054E4FF126165227B
:03628E0002617634
:1049EF00EF75F00A84900CF0F0EF75F00A84A3E5F0
:1049FF00F0F0A3740AF0ED75F00A84A3F0ED75F0F2
:104A0F000A84A3E5F0F0A3740AF0EB75F00A84A30F
:104A1F00F0EB75F00A84A3E5F0F0900CE67407F064
:104A2F00900CE6E0FFC3648094805003024C58EF73
:104A3F003395E0FE74002FF58274003EF583E0FDA0
:104A4F0074F02FF582740C3EF583E06D7003024C09
:104A5F002EE4900CE7F0E4FBEB2401FFE433FEEFD0
:104A6F007807C333CE33CED8F9FDAC06900CE6E011
:104A7F00FF3395E0FEEFC4F8540FC868FFEEC4543F
:104A8F00F048FEED2FFFEC3E900CEAF0A3EFF09014
:104A9F000CEAE0FCA3E0FD2410FEE43CA3F0A3CE5F
:104AAF00F0900CE8ECF0A3EDF0900CECE0FEA3E03E
:104ABF00FF900CE8E0FCA3E0FDC39FEC9E504C740C
:104ACF00882DF58274003CF583E0FE74082DF58285
:104ADF0074003CF583E0FDEDFF900CEEEEF0A3EFDC
:104AEF00F0900CEEE0C313A3E013FF900CE8A3E0EB
:104AFF002408F58274003CF583EFF0900CE9E00494
:104B0F00F07006900CE8E004F0809E0BEB640560FB
:104B1F0003024A67EB2401FFE433FEEF7807C33348
:104B2F00CE33CED8F9FDAC06900CE6E0FF3395E01E
:104B3F00FEEFC4F8540FC868FFEEC454F048FEED02
:104B4F002FFFEC3E900CEAF0A3EFF0900CE7E0FDA6
:104B5F00131313541F75F010A4FF900CECE5F0F035
:104B6F00A3EFF0ED5407FFC374079FF9E4900CE82F
:104B7F00F0A3F0900CE8E0FEA3E0FF900CEDE02F27
:104B8F00FD900CECE03EFC900CE6E0FB3395E0FA78
:104B9F0074F02BF582740C3AF583E075F060A42461
:104BAF00B3F582E5F03434F583E5822DF582E583A4
:104BBF003CF583E493FDA801088002C333D8FC546D
:104BCF0080FD900CEAE0FAA3E02FFFEE3AFE7408A6
:104BDF002FF58274003EF583E0FCC3134DFD74087E
:104BEF002FF58274003EF583EDF0900CE9E004F0B0
:104BFF007006900CE8E004F0900CE8E07004A3E07D
:104C0F0064106003024B827B017A007908125C8288
:104C1F00900CE7E004F0E0C394305003024A659033
:104C2F000CE6E0FF3395E0FE74F02FF582740C3E36
:104C3F00F583E0FD74002FF58274003EF583EDF0EF
:094C4F00900CE6E014F0024A2F7B
:014C58002239
:10442D00900D1CEFF0A3EDF0A3EBF0A3EAF0A3E9E0
:01443D00F08E
:10443E00E4F510F511900D25E0B401037510FF9011
:10444E000D1EE0FBA3E0FAA3E0F98511827583004F
:10445E00123D206004051180E6900D24E06410608A
:10446E00030245FFF512E512C39511400302473FC3
:10447E00E512C4540F25E0FF900D1DE02FF515D366
:10448E0094065003024550E4F513E51375F080A42D
:10449E00FF900D1CE07C002FFDEC35F0FCE5125476
:1044AE000F75F008A4AEF02DF517EE3CF516E513DA
:1044BE0075F008A485F018F519E4F514900D1EE0BA
:1044CE00FBA3E0FAA3E0F9851282758300123D206A
:1044DE0075F010A424C3F582E5F0342CF583AF14E7
:1044EE007E00E5192FFDEE3518FCE5822DF582E5EF
:1044FE00833CF583E4936510FDE5172FFFEE35162B
:10450E00FE74082FF58274083EF583EDF00514E570
:10451E0014B408A80513E51364026003024498E579
:10452E0012540F640F600AE5111465126003024500
:10453E00FA7B017A0879087D10120000125E2502BE
:10454E0045FAE4F513E5152513FFE433FEEF78077E
:10455E00C333CE33CED8F9FF900D1CE07C002FFD77
:10456E00EC3EFCE512540F75F008A4AEF02DF517D5
:10457E00EE3CF516E51375F008A485F018F519E470
:10458E00F514900D1EE0FBA3E0FAA3E0F98512826C
:10459E00758300123D2075F010A424C3F582E5F05A
:1045AE00342CF583AF147E00E5192FFDEE3518FC83
:1045BE00E5822DF582E5833CF583E4936510FDE5F8
:1045CE00172FFFEE3516FE900D21E0FBA3E0FAA3A8
:1045DE00E0F98F828E83ED123D5F0514E514B40869
:1045EE00A10513E51364026003024553051202444C
:1045FE0074E4F512E512C39511400302473FE5122C
:10460E0075F01584FF900D1DE02FF515D39407500E
:10461E00030246B8E51275F01584E5F075F006A4B0
:10462E00FFAEF0900D1CE07C002FF517EC3EF5165A
:10463E00E4F514900D1EE0FBA3E0FAA3E0F9851259
:10464E0082758300123D2075F006A424C9F582E51B
:10465E00F0342BF583E5822514F582E43583F5835A
:10466E00E4936510FFE5147C002517FDEC3516FC70
:10467E0074082DF58274083CF583EFF00514E514EB
:10468E00B406B0E51275F01584E5F06414600AE521
:10469E0011146512600302473A7B017A0879087D8E
:1046AE0008120000125E2502473AE51575F080A447
:1046BE00FF900D1CE07C002FFDEC35F0FCE5127533
:1046CE00F01584E5F075F006A4AEF02DF517EE3C6E
:1046DE00F516E4F514900D1EE0FBA3E0FAA3E0F945
:1046EE00851282758300123D2075F006A424C9F54B
:1046FE0082E5F0342BF583E5822514F582E43583CB
:10470E00F583E4936510FFE5147C002517FDEC3569
:10471E0016FC900D21E0FBA3E0FAA3E0F98D828C4C
:10472E0083EF123D5F0514E514B406A90512024687
:10473E0002900D26E0600E900D677408F07B80E409
:10474E00FDFF125B26900D24E0B4100AE511C4544F
:0E475E000F0425E0FF22E51175F0158404FF1D
:01476C00222A
:105B8700125BA2EC04FF125BA2EC2402FF125BA2E1
:0B5B9700EC2403FF125BA2EC2404FFCF
:105BA200ED131313541F75F080A42FF582E435F022
:105BB200F583E5822408F582E5833400F583C0830A
:105BC200C082E0FFED5407FE7401A806088002C3FC
:0A5BD20033D8FC4FD082D083F022BC
:0F476D00900D06EDF0900D05EFF0900D07EBF0BD
:10477C006F70030249A5900D05E0FCE4123C05C0E6
:10478C0004C005C006C007900D07E0FCE4123C0510
:10479C00D003D002D001D0001238D6C004C005C05E
:1047AC0006C007900D06E0FCE4123C05C004C005F1
:1047BC00C006C007900D08E0FCE4123C05D003D005
:1047CC0002D001D0001238D6D003D002D001D000D4
:1047DC00123AD4900D09123F25900D05E0FCE4121D
:1047EC003C05900D09E0F8A3E0F9A3E0FAA3E0FB87
:1047FC001239CBC004C005C006C007900D06E0FC02
:10480C00E4123C05D003D002D001D0001238D6906F
:10481C000D0D123F25E4FFFE7D807C3F900D09E0DD
:10482C00F8A3E0F9A3E0FAA3E0FB123B714003020A
:10483C004904E4FFFE7D807CBF900D09E0F8A3E005
:10484C00F9A3E0FAA3E0FB123B71600250030249AA
:10485C0004900D07E0FF900D05E0D39F504D900D97
:10486C0007E0FF900D05E0D39F40030249EEE0FC0A
:10487C00FFC007E4123C05900D09E0F8A3E0F9A392
:10488C00E0FAA3E0FB1239CB900D0DE0F8A3E0F9B0
:10489C00A3E0FAA3E0FB1238DA123C39AD07D007DB
:1048AC00125BA2900D05E004F080B3900D05E0FFC3
:1048BC00900D07E0D39F40030249EEE0FCFFC007D8
:1048CC00E4123C05900D09E0F8A3E0F9A3E0FAA38B
:1048DC00E0FB1239CB900D0DE0F8A3E0F9A3E0FA60
:1048EC00A3E0FB1238DA123C39AD07D007125BA2F9
:1048FC00900D07E004F080B3900D08E0FF900D06DA
:10490C00E0D39F504A900D08E0FF900D06E0FCD3D9
:10491C009F40030249EEE4123C05900D0DE0F8A314
:10492C00E0F9A3E0FAA3E0FB1238D6900D09E0F809
:10493C00A3E0F9A3E0FAA3E0FB123AD4123C3990BD
:10494C000D06E0FD125BA2900D06E004F080B6901F
:10495C000D06E0FF900D08E0FCD39F40030249EEEA
:10496C00E4123C05900D0DE0F8A3E0F9A3E0FAA3E6
:10497C00E0FB1238D6900D09E0F8A3E0F9A3E0FAB9
:10498C00A3E0FB123AD4123C39900D08E0FD125B07
:10499C00A2900D08E004F080B6900D08E0FF900D99
:1049AC0006E0D39F501E900D08E0FF900D06E0FD31
:1049BC00D39F502E900D05E0FF125BA2900D06E0E8
:1049CC0004F080E2900D06E0FF900D08E0FDD39F0F
:1049DC005010900D07E0FF125BA2900D08E004F060
:0249EC0080E267
:0149EE0022A6
:0B4C5900900CD1EFF0A3EDF0A3EBF006
:104C6400A3E0FCA3E0FDEC123C007B727A8A798E0F
:104C7400783C1239CB900CDA123F25900CDAE0FC28
:104C8400A3E0FDA3E0FEA3E0FF1252CE900CD612E7
:104C94003F25E4FFFEFDFC900CDAE0F8A3E0F9A365
:104CA400E0FAA3E0FB123B7140547FC37EF57DC85C
:104CB4007C3F900CDAE0F8A3E0F9A3E0FAA3E0FB70
:104CC400123B715039900CD6E0FCA3E0FDA3E0FE4A
:104CD400A3E0FFA804A905AA06FB1239CBE4FBFA5A
:104CE4007980783F1238DA1257F0C004C005C00644
:104CF400C007900CD3E0FCE4123C05024DCF7FC307
:104D04007EF57D487C40900CDAE0F8A3E0F9A3E05E
:104D1400FAA3E0FB123B71503B900CD6E0FCA3E0FD
:104D2400FDA3E0FEA3E0FFA804A905AA06FB12392F
:104D3400CBE4FBFA7980783F1238DA1257F0C004DA
:104D4400C005C006C007900CD3E0FCE4123C051279
:104D54003BEA80777F527EB87D967C40900CDAE007
:104D6400F8A3E0F9A3E0FAA3E0FB123B71900CD6A0
:104D7400E0FCA3E0FDA3E0FEA3E0FFA804A905AACC
:104D840006FB50261239CBE4FBFA7980783F1238BF
:104D9400DA1257F0C004C005C006C007900CD3E077
:104DA400FCE4123C05123BEA80211239CBE4FBFA05
:104DB4007980783F1238DA1257F0C004C005C00673
:104DC400C007900CD3E0FCE4123C05D003D002D021
:104DD40001D000123AD4900CDE123F25900CD6E09C
:104DE400FCA3E0FDA3E0FEA3E0FF900CDEE0F8A34B
:104DF400E0F9A3E0FAA3E0FB1239CB900CE2123FF6
:104E040025900CD1E0FCFFC007E4123C05900CDEB9
:104E1400E0F8A3E0F9A3E0FAA3E0FB1238DA123CCD
:104E240039AB07C003900CD2E0FCE4123C05900CB3
:104E3400E2E0F8A3E0F9A3E0FAA3E0FB1238DA1207
:104E44003C39900D08EFF0900CD2E0FDD003D00770
:034E540002476DA5
:104E5700AC07AB05125B87EC04FFEB04FD125BA20A
:104E6700EC2402FFEB04FD125BA2EC2403FFEB042E
:104E7700FD125BA2EC2404FFEB04FD125BA2AF045E
:104E8700EB04FD125BA2AF04EB2402FD125BA2AFA1
:104E970004EB2403FD125BA2AF04EB2404FD125BB9
:104EA700A2EC04FFEB04FD125BA2EC04FFEB24026F
:104EB700FD125BA2EC04FFEB2403FD125BA2EC04E2
:104EC700FFEB2404FD125BA2741F2CFCFFAD031241
:104ED7005BA2EC14FF125BA2EC24FEFF125BA2ECB8
:104EE70024FDFF125BA2EC24FCFF125BA2EC14FF73
:104EF700EB04FD125BA2EC24FEFFEB04FD125BA2A8
:104F0700EC24FDFFEB04FD125BA2EC24FCFFEB0499
:104F1700FD125BA2AF04EB04FD125BA2AF04EB240E
:104F270002FD125BA2AF04EB2403FD125BA2AF04E8
:104F3700EB2404FD125BA2EC14FFEB04FD125BA251
:104F4700EC14FFEB2402FD125BA2EC14FFEB24032D
:104F5700FD125BA2EC14FFEB2404FD125BA2741F8D
:104F67002BFBAF04FD125BA2EC14FF125BA2EC2437
:104F7700FEFF125BA2EC24FDFF125BA2EC24FCFFF8
:104F8700125BA2EC14FFEB14FD125BA2EC24FEFFF4
:104F9700125BA2EC24FDFF125BA2EC24FCFF125B68
:104FA700A2AF04125BA2AF04EB24FEFD125BA2AF1B
:104FB70004EB24FDFD125BA2AF04EB24FCFD125BA6
:104FC700A2EC14FFEB14FD125BA2EC14FFEB24FE22
:104FD700FD125BA2EC14FFEB24FDFD125BA2EC14A7
:104FE700FFEB24FCFD125BA274E12CFCFFAD031266
:104FF7005B87EC04FFEB14FD125B8DAF04125BA221
:10500700AF04EB24FEFD125BA2AF04EB24FDFD12FF
:105017005BA2AF04EB24FCFD125BA2EC04FFEB14D4
:10502700FD125BA2EC04FFEB24FEFD125BA2EC0475
:10503700FFEB24FDFD125BA2EC04FFEB24FCFD0259
:025047005BA26A
:1000A60000422418FF7E240020306EA1A16E30206D
:1000B600F8ECEAE9F89898F8000C0CFFFFCCCC00B5
:1000C600FF8181818181818181818181818181819C
:1000D6008181818181FF3C3C4D6F6E2E20005475DD
:1000E60065732E005765642E2000546875722E00C5
:1000F6004672692E20005361742E200053756E2EB1
:1001060020000000000000000000000000000000C9
:1001160080C0C0C0800000000000003E7F3FFFFF9F
:10012600FFFFFFFFFFFF3F7F3E0000000000008053
:10013600C0C0808000000000000000000000000039
:10014600000000000000000000000000000E3F7FDD
:100156003F3F1F1F0F8E84C0C0E0E0E0E0F0F3F3E6
:10016600F3F3F3F3F3F3F0E0E0E0E0C0C0848F0FC5
:100176001F1F3F7F7F1F0E000000000000000000D1
:1001860000000000000000000000000080C0E0F059
:10019600F8FCFE7F3F1F0F0F07078383C3C1C1E132
:1001A600E1E1E1E1E1C1C1C3838307070F0F1F3F0F
:1001B6007FFEFCF8F0E0C0800000000000000000B8
:1001C600000000000000000000E0F8FEFFFF3F0F07
:1001D600030100C0F0F8FCFEFFFFFFFFFFFFFFFF7B
:1001E600FFFFFFFFFFFF7F7F3F3F3FFFFEFCF8F073
:1001F600C00001030F3FFFFFFEF8E0000000000013
:100206000000000000000000FEFFFFFFFF010000ED
:1002160000F8FFFFFFFFFFFFFFFFFFFFFFFFFF8766
:10022600070301010000C0E0F8FCFFFFFFFFFFFF2E
:10023600FFFFF800000001FFFFFFFFFE00000000C7
:100246000000000000000000077FFFFFFFF8C0006D
:1002560000010F3FFFFFFFFFFFFFFFFFFFFFFFFF55
:10026600FFFEFEFEFEFFFFFFFFFFFFFFFFFFFFFF9C
:100276003F0F010000C0F8FFFFFF7F0700000000EE
:100286000000000000000000000001071F3F7FFF84
:10029600FCF8F0E0C08103070F0F1F1F3F3F3F7FB1
:1002A6007F7F7F7F7F3F3F3F1F1F0F0F070381C069
:1002B600E0F0F8FCFF7F3F1F070100000000000090
:1002C6000000000000000000000000000000000028
:1002D6000103070F0F1F1F3F3E7E7C7C7CF8F8F85A
:1002E600F8F8F8F8F8F8F87C7C7C7E3E3F1F1F0F84
:1002F6000F070301000000000000000000000000DE
:100306000000000000000000000000000000008067
:10031600C0C0E0E0F0F0F8F8FCFCFCFCFEFEFE7E5F
:100326003E3E1E1E3E3E7EFEFCFCFCFCF8F8F0F057
:10033600E0E0C0C0800000000000000000000000F7
:100346000000000000000000C0E0F0F8FCFEFFFF27
:10035600FFFFFFFFFFFFFFFFFFFFFFFFFFFFFFE0C6
:10036600C08080808080C0F0FFFFFFFFFFFFFFFF9F
:10037600FFFFFFFFFFFFFEFCF8F0E0C000000000FB
:100386000000000080F0FCFFFFFFFFFFFFFFFFFF04
:10039600FFFFFFFFFFFFFF7F3F1F1F0F070707033B
:1003A6000301010101030FFFFFFFFFFFFFFFFFFF37
:1003B600FFFFFFFFFFFFFFFFFFFFFFFFFFFCF080D8
:1003C600000000F8FFFFFFFFFFFFFFFFFFFFFFFF3B
:1003D600FFFFFFFFFF0F000000000000F8FC000019
:1003E60000000000C0808000030303030301818135
:1003F600C3FFFFFFFFFFFFFFFFFFFFFFFFFFFFFF43
:10040600F800001FFFFFFFFFFFFFFFFFFFFFFFFFDB
:10041600FFFFFFFFFFFFFCFCFCFCFCFFFF7F000073
:100426000000000000030F3F7FFFFFFFFFFFFFFFFD
:10043600FFFFFFFFFFFFFFFFFFFFFFFFFFFFFFFFC6
:100446001F000000010F3FFFFFFFFFFFFFFFFFFF41
:10045600FFFFFFFFFFFFFFFFFF7F3F0F03000000CF
:1004660000C0F0F8E08000000001071F7FFFFFFFDB
:10047600FFFFFFFFFFFFFFFFFFFFFFFFFF3F0F0134
:10048600000000000000000003070F1F3F7FFFFF72
:10049600FFFFFF878303018180C0C0E0E0F0F8FE24
:1004A600FFFFFFFFFFFFFEE0000000000007FFFF69
:1004B600FFFFFFFFFFFF7F3F1F0F07030000000046
:1004C6000000000000000000000000000000000125
:1004D600030307070F0F1F1F1F3F3F3F3F7F7F7F0E
:1004E6007F7F7F7F7F7F7F3F3F3E3E1E1E1F0F0F1A
:1004F60007070303010000000000000000000000E1
:1005060000000000000000000000000000000000E5
:10051600000000000000000000000000E0F8FC1CE5
:100526000E0E0E0E1C7CF8F000000000000000000D
:1005360000000000000000000000000000000000B5
:1005460000000000000000000000000000000000A5
:10055600000000000000000000000000FFFFFF0098
:1005660000FEFE000000FFFF000084CECECECE00CF
:100576000000000000000000000000000000000075
:100586000000000000000000000000000000000065
:10059600000000000000000000000000FFFFFF0058
:1005A60000FFFF000000FFFF0000101919191800D6
:1005B6000000000000000000000000000000000035
:1005C6000000000000000000000000000000000025
:1005D600000000000000000000000000FFFFFF0018
:1005E60000FFFF000000FFFF000000000000000009
:1005F60000000000000000000000000000000000F5
:1006060000000000000000000000000000000000E4
:100616000000000000000080C0E0F0783F1F1F804F
:1006260080FFFF0000001F3F3870E0C08000000020
:1006360000000000000000000000000000000000B4
:1006460000000000000000000000000000000000A4
:10065600000000000000FEFF070140FCFEFFFFFF58
:10066600FFFFFFFEFCFCF080C0800107FFFEF000EC
:100676000000000000000000000000000000000074
:100686000000000000E0E0E060607030381C1C0EE6
:100696000E0606060604071F3E78E0C3CF8F9F3F6F
:1006A6003F3F3F3F3F9F9FCFC7E1783E1F0F060664
:1006B600060606060E0C1C1838707060E0E0E04076
:1006C60000000000000060606060703038181C0E8A
:1006D6000E06070707070706060E1C1D3933737338
:1006E6006767676763737333391C0C0E0606070763
:1006F600070707060E0E1C18383070606060600031
:1007060000000000000000000000000000000000E3
:1007160000000080E0F8FCFEFF3F0E000000000035
:1007260000000000000000000000000000000000C3
:1007360000000000000000000000000000000000B3
:10074600000000000000000000000000000000C0E3
:10075600F0F8FEFF7F1F0703000000000000000006
:100766000000000000000000000000000000000083
:100776000000000000000000000000000000000073
:10078600000000000000C0F0F0F0F8F8F8F8F9F901
:10079600F9F9F9F9F8F8F8F8F8F8F8F8F8F8F8F8CF
:1007A600F8F8F8F8F8F8F8F8F8F8F8F8F8F8F8F8C3
:1007B600F8F8F8F8F8F8F8F8F8F8F0F0E080000043
:1007C600000000000000FFFFFFC3810000000000E2
:1007D6000000000000000000000000000000000013
:1007E6000080C1FFFFFFFFFFFF3F3F1F0F0F0F07F7
:1007F6000707070F0F1F1F3F7FFFFFFFFFFF0000C9
:10080600000000000000FFFFFFFFFFFFFFFFFFFFEC
:10081600FFFFFFFFFFFFFFFFFFFFFFFFFFFFFFFFE2
:10082600FFFFFFFFFFFFFF030000000000000000C6
:1008360000000000000000000001FFFFFFFF0000B5
:10084600000000000000FFFFFFFFFFFFFFFFFFFFAC
:10085600FFFFFFFFFFFFFFFFFFFFFFFFFFFFFFFFA2
:10086600FFFFFFFFFFFFFFFFFCF8F0E0C0C0C08006
:100876008080C0C0C0E0E0F0F8FEFFFFFFFF000090
:100886000000000000000007070F0F0F0F0F0F0FEB
:100896000F0F0F0F0F0F0F0F0F0F0F0F0F0F0F0F62
:1008A6000F0F0F0F0F0F0F0F0F0F0F0F0F0F0F0F52
:1008B6000F0F0F0F0F0F0F0F0F0F0707030000008B
:1008C6000000000000000000000000000000000022
:1008D6000000000000000000000000000000000012
:1008E6000000000000000000000000000000000002
:1008F60000000000000000000000000000000000F2
:10090600000000000000000000000000000080C0A1
:10091600C0E0707038381C9C9C8ECECECEC6C7C741
:10092600E7E7E7E7C7C7C6CECECE8E9C1C1C383895
:1009360070F0E0C0C0800000000000000000000071
:100946000000000000000080E0F0783C1E87C7E34E
:10095600F1F8FCFCFEFFFFFFFFFFFFFFFFFFFFFFBD
:10096600FF0000FFFFFFFFFFFFFFFFFFFFFFFFFE90
:10097600FCFCF8F1E3C78F1E3C78F0E08000000035
:1009860000000000F0FC7F0F03C1F8FCFFFFFFFF33
:10099600FFFFFFFFFFFFFFFFFFFFFFFFFFFFFFFF61
:1009A600FFFCFC7F3F3F1F1F0F0F0707030381E17B
:1009B600F8FEFFFFFFFFFFFFFCF0C1071FFEFCE094
:1009C6000000E0FFFF0700E0FEFF7F7F7F7F7F7F65
:1009D6007F7F7F7FFFFFFFFFFFFFFF3F1F07C7E30D
:1009E600C1800000000000000000C0E0F8FEFFFF2C
:1009F6007F7F7F7F7F7F7F7F7F7FFFFE00000FFFF0
:100A0600FF0007FFFFF000037FFFFEFEFEFEFEFE77
:100A1600FEFEFEFEFFFF3F1F07C1F0F8FEFF7F7FD1
:100A26003F1F9F8EC4E0F0F8FCFFFFFFFFFFFFFFB4
:100A3600FEFEFEFEFEFEFEFEFEFEFF7F0000F0FF57
:100A4600FF000000073FFEF0C0830F3FFFFFFFFFE0
:100A5600FFFF3F0F8380C0C4E7E3F3F1F8FCFCFE21
:100A6600FE3F3FFFFFFFFFFFFFFFFFFFFFFFFFFF11
:100A7600FFFFFFFFFFFFFF7F3F0F83E0F87F1F07AA
:100A86000000000000000001070F1E3C78F1E3C7DC
:100A96008F1F3F3F7F7FFFFFFFFFFFFFFFFFFFFF30
:100AA600FF0000FFFFFFFFFFFFFFFFFFFFFF7F7F4E
:100AB6003F3F1F8FC7E3F1783C1E0F030100000084
:100AC600000000000000000000000000000001031C
:100AD60003070F0E1C1C1838397173737363636731
:100AE600E3E3E3E36363637373737139381C1C1CBC
:100AF6000E070703030100000000000000000000CD
:100B0600000000000000000000000000000080C09F
:100B1600E0E0F0F0F8F8FCFCFCFEFEFEFEFFFFFF56
:100B2600FFFFFFFFFFFFFFFEFEFEFEFCFCFCF8F8EA
:100B3600F0F0E0E0C08000000000000000000000CF
:100B46000000000000000080E0F0F8FCFEFFFFFF60
:100B5600FFFFFFFFFFFF7F7FFFFFFFFFFFFFFFFF9F
:100B6600000000008103070F1F3F7FFFFFFFFFFF0D
:100B7600FFFFFFFFFFFFFFFEFCF8F0E08000000034
:100B860000000080F0FCFFFFFFFFFFFFFFFFFFFFFD
:100B9600FFFFFFFFFFFCF0E0C001070F1F7FFFFF15
:100BA60000000000FFFFFEFC783000000183C7FF55
:100BB600FFFFFFFFFFFFFFFFFFFFFFFFFFFFFCF051
:100BC6008000E0FFFFFFFFFFFFFFFFFFFFFFFFFFCC
:100BD600FFFFFFFFFFFFFFFFFFFFFEFCF0E0C0038C
:100BE600000000000783C1E0F0F8FCFEFFFFFFFFF6
:100BF600FFFFFFFFFFFFFFFFFFFFFFFFFFFFFFFFFF
:100C0600FFE007FFFFFFFFFFFFFFFFFFFFFFFFFF05
:100C1600FFFFFFFFFFFFFFFFFFFF7F3F0F0701C043
:100C260000000000E0C183070F1F3F7FFFFFFFFFAB
:100C3600FFFFFFFFFFFFFFFFFFFFFFFFFFFFFFFFBE
:100C4600FF070000073FFFFFFFFFFFFFFFFFFFFF5C
:100C5600FFFFFFFFFF3F0F0703C0E0F0FCFEFFFFB3
:100C660000000000FFFF7F3F1E0C0080C0E1F3FF85
:100C7600FFFFFFFFFFFFFFFFFFFFFFFFFFFF3F0736
:100C86000000000000000001070F1F3F7FFFFFFF6D
:100C9600FFFFFFFFFFFFFEFEFFFFFFFFFFFFFFFF60
:100CA60080000080C1E0F0F8FCFEFFFFFFFFFFFFC1
:100CB600FFFFFFFFFFFFFF7F3F1F0F070100000041
:100CC600000000000000000000000000000001031A
:100CD60003070F0F1F1F3F3F3F7F7F7F7F7FFFFF72
:100CE600FFFFFFFFFFFF7F7F7F7F7F3F3F3F1F1F8E
:100CF6000F0F0703030100000000000000000000C2
:100D060000000000000000000000000000000000DD
:100D16008080C0C0E0E0F0F0F8F8F8F8FC7C7C7C5D
:100D26007C7C7C7C7C7C7CFCF8F8F8F0F0F0E0E0E5
:100D3600C0C0800000000080C0E0E0C000000000ED
:100D4600000000000000000000C0E0F0F8FCFE7F9C
:100D56003F9FCFC7C7C3C3C181808000008080C0CA
:100D6600C0E0E0E0F0F0F0F07070F1F1F1F3E7E7E9
:100D7600CFDF9F3FFEFEFFFFEFC7830300000000AB
:100D86000000000000C0F0FCFFFF7F1F070100000D
:100D96003FFFFFFFC3030373FF7F3F1F1F3F3F7FDD
:100DA600FBF1E1E1C080000000000000000001034B
:100DB600071FFFFFFCE1030F3FFFFFFEF8E0000007
:100DC60000000000FCFFFFFFFF070000000000809E
:100DD600E0C1870F3F7FFCF8E0C0801E3EFEFEFCB0
:100DE600383971E3C78F1F3EFCF8F0E0C000000001
:100DF60080F0FFFF7F0F000000017FFFFFFFFFE095
:100E0600000000003FFFFFFFFFE000000000FCFFC6
:100E1600FF3F030000000003070F1F3E7CF8F1E3CD
:100E2600C7CE8C1C3F3F7E7C30010387DFFFFEFE72
:100E3600FFDF0F03000000000080FFFFFFFFFF033E
:100E46000000000000010F3FFFFFFFF8F0C08F3FDA
:100E5600FFFFF0E0C08080000000000000008183FA
:100E660087878F1F3E3C7C78F0F0E3E3E7C3C1C77A
:100E7600FFFFFF380080E0F0FCFFFF7F1F07000048
:100E86000000000000000080C0E1F3FFFF7F3F7E0E
:100E9600FCFDFBF3E7E7C7CF8F8F8F0F0F07070721
:100EA600070303030100000000808181C1C3E3F34F
:100EB600F1F9FCFE7F3F1F0F070300000000000052
:100EC600000000000000000103030303000000000F
:100ED600000101030307070F0F0F1F1F1F1F1F3FEF
:100EE6003F3E3F3F1F1F1F1F1F1F0F0F0F07070309
:100EF60003010000000000000000000000000000E8
:100F060000000000000000000000000000000000DB
:100F160000000000000000000000000000000000CB
:100F260000000000000080C0E0E0E0C08000003E5D
:100F36007F7F3E0000000080C0C0E0E0C0000000EF
:100F4600000000000000000000000000000000009B
:100F5600000000000000000000000000000000008B
:100F66000000E0E0C0870F1F3F7FFFFFFFFFFEFC92
:100F7600F8F0E0C08000060F0F070703808080802E
:100F860080000000000000000000000000000000DB
:100F9600000000000000000000000000000000004B
:100FA60060FFFFFFFFFFFFFEFCF8F0E1C3870F1FA6
:100FB6003F7FFFFFFFFFFEFCF8F0E0C38707070750
:100FC6000703000000000000000000000000000011
:100FD60000000080C0E0F0F8F8F0E0F0F8FCFCF863
:100FE600F0E0C3870F1F3F7FFFFFFFFFFFFFFFFEFE
:100FF600FCF8F0E1C3070F1F1F1F0F0703000000D7
:1010060000000000000000000000000000000000DA
:1010160080CEFFFFFFFFFFFFFFFFFFFFFFFFFFFF8A
:10102600FFFFFFFFFF7E3C180000010303010101E3
:1010360001010000000000000000000000000000A8
:10104600000000000000000080C0E0F0F8FCFEFF99
:10105600FFFFFFFFFFFFFFFFFFFFFFFFFF7F3F1FBA
:101066000F07030100000000000000000000000060
:10107600000000000000000000000000000000006A
:101086000000E0F0F8FCFEFFFFFFFFFFFFFFFFFFA1
:10109600FFFFFFFFFF7F3F1F0F0703010000000058
:1010A600000000000000000000000000000000003A
:1010B600000000000000000000000000000000002A
:1010C6000000000103070F1F3F7FFFFFFF7F3F1F49
:1010D6000F070301000000000000000000000000F0
:1010E60000000000000000000000000000000000FA
:1010F60000000000000000000000000000000000EA
:101106000000000000C0C0C0707070707070707019
:1011160000F0F0F0808080000000F0F0F00080F039
:10112600F07070707070F0F08000F0F0F000000069
:1011360080F0F070008080F07070707070707000D9
:1011460000000000003F3F3FE0E0E0E0E0C0C0C03C
:1011560000FFFFFF071F1FFCF0F0FFFFFF00FFFF70
:10116600FFE0E0E0E0E0FFFFFF00FFFFFFF0FCFC38
:101176009F03030000FFFFFFE0E0E0E0E0E0000087
:101186000000000000E0E0E0E0E0E0E0E07F7F7FDC
:1011960000FFFFFF000000000000FFFFFF00FFFF51
:1011A600FF0000000000FFFFFF00FFFFFF0003033A
:1011B6001FFCFCE0001F1FFFE0E0E0E0E0E0E000D5
:1011C6000000000000000000000000000000000019
:1011D6000000000000000000000000000000000009
:1011E60000000000000000000000000000000000F9
:1011F60000000000000000000000000000000000E9
:1012060000000000000000000000000000000000D8
:1012160000000000000000000000000000000000C8
:1012260000000000000000000000C0C0C0C0C0C038
:10123600C0C0C0C000000000F8F8F838383838F8E8
:10124600F8F80000000000000000000000000000A8
:10125600000000003C3C3C3C0000003C3C3C3C3C6C
:101266003C3CFCFCFCFC00000000FFFFFF0303030A
:1012760003FFFFFF00000000FFFFFF00000000FF6C
:10128600FFFF00000000000000000000000000005A
:101296000000000000000000000000000000000048
:1012A60000001F1F1F1F1E1E1E1E1F1F1F000000E7
:1012B60000FFFFFFE0E0E0E0FFFFFF00000000FFAF
:1012C600FFFF00000000000000000000000000001A
:1012D6000000000000000000000000000000000008
:1012E60000000000000000000000000000000000F8
:1012F6000001010101010101010101000000001FBF
:101306001F1F000000000000000000000080808019
:101316008000000000000000000000C0F8FEFE3F54
:101326000F0F0F0F1FFFFEFCE00000000000000083
:101336000000808080808000000000000000000027
:10134600000000000000000000F8FCFEFF9F0F07F1
:10135600070F1F1E3E7C78783C3C1E1F1F0F0300A4
:101366000000000000030F1F1F1E3C3C78787C3EE7
:101376001E1F0F07070F9FFFFEFCF800000000006E
:1013860000000000000000000000030FDFFFFEF871
:101396003000000000000000000080C0E0E0E0F047
:1013A600F0F0F0F0F0E0E0E0C080000000000000A7
:1013B60000000030FCFEFFDF070300000000000015
:1013C6000000E0F8F8FC3C3C1E1E1E1F1F0F070025
:1013D600000000000000E0FCFEFF1F070301010003
:1013E6000000000000010103071FFFFEFCF00000E3
:1013F6000000000000070F1F1F1E1E1E3C3CFCF8CD
:10140600F8F00F1F3F3F3C3C787878F8F0F0E000AA
:10141600000000000000073F7FFFF8E0C08080006A
:1014260000000000008080C0E0F8FF7F3F0F000052
:101436000000000000E0F0F0F8787878783C3F3F54
:101446001F0F0000000000000000C0F0FFFF7F1F1C
:101456000C00000000000000000001030707070F52
:101466000F0F0F0F0F070707030101000000000011
:101476000000000C3F7FFFFFE0C0000000000000FE
:101486000000000000000000001F3F7FFFF9F0E0B1
:10149600E0F0F8787C3E1E1E3C3C78F8F8F0C00080
:1014A6000000000000C0F0F8F8783C3C1E3E3C7C92
:1014B60078F8F0E0E0F0F9FF7F3F1F000000000041
:1014C6000000000000000000000000000001010113
:1014D6000101000000000000000000031F7F7FFCE8
:1014E600F0F0F0F0F8FF7F3F07000000000000007A
:1014F60000000101010101000000000000000000E1
:10150600000000000080E060000000000000000015
:1015160000FEFE020606060E0C1C183060C0800097
:1015260000000000000000000000000000000000B5
:101536003C7C7E7E7C18000000000000000000005D
:10154600000000000000000000000000000000FE97
:10155600FEF3F30EFE00B0B0B00000000000000085
:10156600000000000000000080E0F8FE3F0F0300CE
:101576000000000000000000000000000000000065
:10158600000080FC1F030100000000020E3C78F8FA
:10159600F0E0E0C000000000000000000001073F8E
:1015A600F800000000000000000000F0FCFC1E0E29
:1015B600FFFFFFFFFFE0C0C0E0F07000000000008A
:1015C600000000000000000000000000000000FF16
:1015D600FFFFFF00FF0007070600000000000000F5
:1015E60000000000FCFC9E0E0F0F0F0E0E0E0E0EDE
:1015F6000E8EFEFEFEFE7E3E3E3E3E7E7EFEFCFCE9
:101606000000013FFCE08000000000000000000137
:101616000303030300000000000000000080E07EDA
:101626001F0000000000000000000003030380F01C
:10163600FFFF3F7FFEF8E080000000000000000092
:10164600000000000000000000000000F83CEEF77B
:10165600FFFFFFE0C78E3CF8C0000000000000005E
:1016660000000000FFFFFFFFFFFFFFFFFFFFFFFF80
:10167600FFFFFFFFFFE0C080808080C0C0F1FFFF5A
:1016860000000000000103070C1C18303060606089
:10169600606060606060603030181C0E07030100F7
:1016A600000000000000000000001E3E3F1F070370
:1016B6000301000000033F3F3F3000000000000030
:1016C6000000000CCCCCCC6677333333373F7D7BC0
:1016D600DFF7F7DFDF7F3F3733333333666ECCCC4C
:1016E600CC00000001030303030303030303030306
:1016F60003030303030303030303030303030301B6
:1017060000000000000000000000000000000000D3
:1017160000000000000080C040603010D878000053
:1017260000000000000000000040E0E0C0000000F3
:10173600FEFF0E1C3870E0C08000000000000000B4
:10174600000000000000000080C0C06020301010C3
:1017560098F87830F03EF6E060C080800000000027
:101766000000000000000000000000000000000073
:101776000000C090387CFCF8F0EFC0802010080014
:10178600000000000000000000000000C0E0F0D8EB
:101796008C04060203010180E0380C0701000000FA
:1017A600000000000000000000000003070F3E7C60
:1017B600FFFFE0F0781C1E07070300000000000092
:1017C6000000000000F0FC8F0F05040404E43C0F49
:1017D6000D0CF83F1910F0FF2060C1C38EFCE0002D
:1017E6000000000000000000000080C0E0E0C0E053
:1017F600C08F3F7FFFFEFCF9F3E7CF9F3F7E3D1989
:101806000101000000000000C0F0FCFFFFFFFFFF29
:101816007F7F7E3C180C06030000000000000000DD
:101826000000000000000000000080C0F0783E1FAD
:10183600FFFF03070E1CB8F0E040000000000000A8
:1018460000000000000F7CE183020604FF0F1898D9
:10185600F81F31B0E03C2F20202030B0F33F0F00BE
:10186600000000000080C0E0F0FBFFFFFFFFFFFF6D
:101876007F3F1F0E0400010101010000000000006F
:101886000000000000180E0F0F07070303010000F9
:101896000000000000000000000000000000000042
:1018A6000000000000000000000703010000000027
:1018B6003F7F381C0E0703010000000000000000F7
:1018C60000000000000000000103060C0F0EF81FC8
:1018D600191C16131818080C040603010000000052
:1018E60000001C3E7FFFFFFF7F3F1F0F0703010025
:1018F60000000000000000000000000000000000E2
:101906000000312E5365742074696D650000000077
:101916000000322E53657420616C61726D00000008
:101926000000332E4272696768746E657373000037
:101936000000342E53637265656E2074696D650010
:101946000000352E536C6565702074696D65000066
:101956000000362E496E7665727365000000000041
:101966000000372E446972656374696F6E0000006B
:101976000000382E42757A7A657200000000000079
:101986000000392E536F667420726573657400000B
:10199600000031302E506F77657220646F776E00CD
:1019A6000000C030088464221212122264840830B7
:1019B600C000071820434C88909090884C4320180C
:1019C600070044697361626C650000000000000056
:1019D60000004F6E6365000000000000000000007C
:1019E60000004576657279646179000000000000A8
:1019F60000005765656B6461790000000000000017
:101A0600000053706563696669632044617900006C
:101A16000000000038444438E018080404040810A4
:101A260000000000000000000F3060404040201021
:101A360000001060028C0000FE9292929292FE00CC
:101A460000000000FC242424FC252624FC24242455
:101A5600040000000000000000000000000000007C
:101A6600000004047E01407E42427E427E42427E67
:101A7600400040308F80844C55252525554C80806C
:101A86008000000036360000000000000000000064
:101A960000001060028C00FE929292929292FE00DA
:101AA60000000000FC242424FC252624FC242424F5
:101AB600040000000000000000000000000000001C
:101AC600000004047E014448507F40407F50484453
:101AD600400040308F80844C55252525554C80800C
:101AE6008000000036360000000000000000000004
:101AF600000020104C4754545454545454D40404F5
:101B060000000000FE0282828282FA828282828243
:101B160002000000000000000000000000000000BD
:101B2600000000000000000000000000000F304030
:101B3600F00080601F40404040407F404044584095
:101B460040000000363600000000000000000000E3
:101B560000001060020CC01008F714549414F4042A
:101B66000000101010FF90401010F09F909196907A
:101B7600100000000000000000000000000000004F
:101B8600000004047C0300011D13115599513F11F7
:101B960001000242817F0040308F80432C102C438D
:101BA6008000000036360000000000000000000043
:101BB600000000000000000000000020202020FEA1
:101BC600000000FE80402010000000000000000021
:101BD6000000000000000000000000101008047F54
:101BE6000000003F40404070000000000000000080
:101BF6000000000008C8A8988EE888888888080031
:101C060000000020202020FE000000FE8040201062
:101C160000000020100C0040407F00000408300047
:101C2600000000101008047F0000003F4040407094
:101C360000000000000000000000000008C8A8988E
:101C46008EE88888888808000000000000000000F0
:101C5600000000000000000000000020100C004002
:101C6600407F000004083000000000000000000073
:101C76000000000008C8A8988EE8888888880800B0
:101C860000000008E8282868A83EA8682828E80870
:101C960000000020100C0040407F000004083000C7
:101CA600000000007F040505053F050545447F004B
:101CB600000000000000000000000008E828286876
:101CC600A83EA8682828E8080000000000000000D8
:101CD6000000000000000000000000007F04050571
:101CE600053F050545447F00000000000000000098
:101CF60000000004E42424FC242424FC2424E4041A
:101D060000000008E8282868A83EA8682828E808EF
:101D1600000000007F2824232020202324247F0085
:101D2600000000007F040505053F050545447F00CA
:101D3600000000000000000000000004E42424FC71
:101D4600242424FC2424E4040000000000000000F5
:101D56000000000000000000000000007F2824238F
:101D66002020202324247F00000000000000000023
:101D760000000004E42424FC242424FC2424E40499
:101D860000000020202020FE000000FE80402010E1
:101D9600000000007F2824232020202324247F0005
:101DA600000000101008047F0000003F4040407013
:101DB600000000000000000000000000000000001D
:101DC60000000000008080C040606020000000FF2E
:101DD6000C1860C0FF00000020606040C0C080801A
:101DE60000000000000000000000000000000000ED
:101DF600000000000000000000000080C0603018F5
:101E06000C060603010100000000000000000003AC
:101E160000000000010000000000000000000101B9
:101E26000306060C183060C08000000000000000A9
:101E36000000000000000080E0380E0301000000F2
:101E4600000000000000000000000000000000008C
:101E5600000000000000000000000000000000007C
:101E66000000000000000000030E3CF080000000AF
:101E760000000018F00080FBF100C0F80000000030
:101E8600000000000000000000000000000000004C
:101E9600000000000000000000000000000000003C
:101EA60000000000000000000000F8998B88080878
:101EB60000000000010F0FC0810F0F00000000009E
:101EC600000000000000000000000000000000000C
:101ED60000000000000000000000000000000000FC
:101EE600000000000000000000001F98D818181815
:101EF60000000000000000010F3C70C080000000E0
:101F060000000000000000000000000000000000CB
:101F160000000000000000000000000000000000BB
:101F26000000000000000000C0F03C0F03000000AD
:101F360000000000000000000000000103060C186D
:101F4600306060C08080000000000000000080C09B
:101F560040404040800000000000000000008080FB
:101F6600C0C06030180C060301000000000000002D
:101F7600000000000000000000000000000000005B
:101F8600000000000101030302060604000000230E
:101F96004246446C380000000406060603030101AD
:101FA600000000000000000000000000000000002B
:021FB600000029
:102C5D00410D3DFDC104C10AC107C102C103C10639
:102C6D00C100C18BC101C108C109420D3E00004226
:0B2C7D000D3B0000420D380000C18537
:03629100025CCCE0
:1038D300023CA5E86480F8E933E83360110460F042
:1038E300ED33EC337009E8FCE9FDEAFEEBFF22045B
:1038F30060DED3EB9FEA9EE99DE8C2E78CF0C2F756
:1039030095F0400CE8CCF8E9CDF9EACEFAEBCFFB21
:10391300123C7085D0F05804700320D5B3E80470CE
:10392300075002B2D5023CAF92D5EC0460F7E4CC69
:10393300C0E0C398F8603B94186008400DD0E0FBEA
:10394300023C87E4FBFAC9FC8028E830E406E4C9BA
:10395300FBE4CAFCE830E305E4C9CACBFCE854073E
:103963006010F8C3E913F9EA13FAEB13FBEC13FC49
:10397300D8F130F52FC3E49CFCEF9BFFEE9AFEEDEC
:1039830099FDD0E0FBEF4E4D4C701222DB03023C5D
:10399300ACEC2CFCEF33FFEE33FEED33FDED30E703
:1039A300EB023C87EF2BFFEE3AFEED39FDD0E0FB57
:1039B30050130BBB0003023CAFED13FDEE13FEEF00
:0839C30013FFEC13FC023C872A
:1039CB00EC4D6011E8497017ED33EC3304600DE4F6
:1039DB00FCFFFEFD22E933E8330470F8023CA5122C
:1039EB003C7058046009E4CC24815006285009022D
:1039FB003CAF284003023CACC0E0EB4A7044B980BA
:103A0B0006D0E0FB023C9BEF4E701CBD8008EBFF29
:103A1B00EAFEE9FD80EBE98DF0A4FEE5F0023AB495
:103A2B00E9CDF9EAFEEBFFEF89F0A4FCE5F0CE89D6
:103A3B00F0A42EFFE435F0CD89F0A42DFEE435F093
:103A4B008067EF4E7005BD80D780C3EF8BF0A4ACC1
:103A5B00F0EE8BF0A42CFCE435F0F8EF8AF0A42CFC
:103A6B00E5F038FCE433CB8DF0A42CFCE5F03BF80F
:103A7B00EE8AF0A42CFCE5F038F8E433CF89F0A4FF
:103A8B002CFCE5F038CF3400CE89F0A42FFFE5F005
:103A9B003EFEE433C98DF0A42EFEE5F039CD8AF05D
:103AAB00A42FFFE5F03EFEE43DFD33D0E0FB5007D5
:103ABB000BBB000F023CAFEC2CFCEF33FFEE33FEE5
:063ACB00ED33FD023C8713
:103AD100023CAFEC5D046005E859047003023CA5AB
:103AE100123C70580460F6EC4860F2EC7004FDFE84
:103AF100FF22C860DB2481C85009C39860025006C8
:103B0100023CAC9850CAF582E9294B4A7005AB8258
:103B1100023C9B75F0007C1A7880C3EF9BEE9AED16
:103B210099400DC3EF9BFFEE9AFEED99FDE842F03F
:103B3100DC23ACF0D0E0FFD0E0FED0E0FDAB822092
:103B4100E7101BEB60BAEC2CFCEF33FFEE33FEED1C
:103B510033FD023C87E803F830E705C0F075F0005B
:103B6100EF2FFFEE33FEED33FD40B830E7C280AA00
:103B710074F8CC6480CCC86480C8F58204604FC3FB
:103B8100EB9FF5F0EA9E42F0E99D42F0E89C45F09A
:103B9100603C501DE5825FFFE582D313CB5BCBF424
:103BA1002B5582FB50280ABA002409B9002008804D
:103BB1001DE5825BFBE582D313CF5FCFF4C3132FE7
:103BC1005582FF50090EBE00050DBD00010CC3EB6F
:103BD1009FF5F0EA9E42F0E99D42F0E89C45F060D5
:093BE10007CC4820E701B3EC22F7
:103BEA00ED33EC33600A047003BD8004ECB2E7FCE9
:013BFA0022A8
:103BFB0075F020800E75F010800575F0087D007E45
:103C0B00007F003392D530D503123ECBEC334010FE
:103C1B00EF33FFEE33FEED33FDEC33FCD5F0ED224D
:0E3C2B00E5F0247EA2D513CC92E7CDCEFF2289
:103C3900EDD2E7CD33EC3392D524814006E4FFFE83
:103C4900FDFC22FCE4CFCECDCC24E0501174FF80E2
:103C5900EDC3CC13CCCD13CDCE13CECF13CF04707F
:073C6900F030D5DE023ECB76
:1057EC00023CA522EDA2E7D2E7F9EC3340F260F3DC
:1057FC00B4FF08ED547F70E8023CAFF82481C2E09E
:10580C00C0E0F40428FAC313FCED92E7FD900D7090
:10581C00123F25EEA2E7E9BA7F02C31334009400CD
:10582C00FA75F091A4E5F013F494FE8AF0A433E534
:10583C00F033248CD313FDE492E7FE7F007C3F759C
:10584C008302ECC0E0F8EDC0E0F9EEC0E0FAEFC086
:10585C00E0FB8583F0900D70123EED85F083123ADB
:10586C00D4D0E0FBD0E0FAD0E0F9D0E0F81238DA8E
:10587C00ED6480FD30E7011CD583C7ED33CC33F8E4
:0C588C00D0E0A2E71328C313CC13FD22C8
:105234003A70FA83BCAAE9E43E81E0F8BF9DE9E64E
:105244003F80000039283C1ABB9969663DA335E3C9
:10525400BF255DE73FC90FDB418DDBCCC44936EE8A
:1052640045C9913FC5B0F83D3F800000C317F534F0
:10527400452FFA73C60AFDDD12533D04A2E1920DD7
:105284001420E0159052347404123CBA8030125346
:105294003D30E102B20D20E0EBA883A982900D74A9
:1052A400123F25898288839052487404123CBA853F
:1052B40082F0900D74123F0985F0821239CBED4CC7
:1052C4006007300D04EC6480FC2212533DC0E0A85A
:1052D40083A982900D74123F258982888390526C31
:1052E4007403123CBA8582F0900D74123F0985F064
:1052F400821239CB900D74E0CCF0A3E0CDF0A3E0A2
:10530400CEF0A3E0CFF090525C7403123CBAD0828A
:105314008582F0900D74123F0985F082E58230E0B9
:1053240007123AD4B20D8096EFCBFFEECAFEEDC958
:10533400FDECC8FC123AD48085ED33EC547FCC33B9
:10534400920D24605007D0E0D0E0023CA57B837A24
:10535400F97922783E1239CBEDF933ECF833248114
:105364005011EFFBEEFA123C39123BFBECB2E7FCB6
:105374001238DAED33EC33602F2403F8C313FCED59
:1053840092E7FDE82481E4501FECF8EDF9EEFAEF22
:10539400FB123C39EF04C2E0FCF582123C05ECB28E
:1053A400E7FC1238DAE58203FAED33EC33600714D4
:0853B40013FCED92E7FDEA2273
:103C7000E9D2E7C933E833F892D5EDD2E7CD33EC9A
:073C800033FC5002B2D52213
:103C8700EC30E7100FBF000C0EBE00080DBD00049E
:103C97000BEB6014A2D5EB13FCED92E7FD2274FF4A
:103CA700FCFDFEFF22E480F8A2D574FF13FC7D80A3
:033CB700E480EFB7
:103CBA00C0E0EFFBEEFAEDF9ECF81239CBD0E0F503
:103CCA00F0EFFBEEFAEDF9ECF8123EF9A3A3A3A389
:103CDA00E8C0E0E9C0E0EAC0E0EBC0E0C0F01239B9
:103CEA00CB123F15A3A3A3A31238DAD0F0D0E0FB7E
:0D3CFA00D0E0FAD0E0F9D0E0F8D5F0D42207
:0300000002593969
:0C593900787FE4F6D8FD758147025980A4
:103D0700BB010689828A83E0225002E722BBFE02BA
:093D1700E32289828A83E49322ED
:103D2000BB010CE58229F582E5833AF583E0225058
:103D300006E92582F8E622BBFE06E92582F8E222A2
:0D3D4000E58229F582E5833AF583E49322BC
:103D4D00BB010689828A83F0225002F722BBFE0155
:023D5D00F3224F
:103D5F00F8BB010DE58229F582E5833AF583E8F09A
:103D6F00225006E92582C8F622BBFE05E92582C846
:023D7F00F2222E
:103D8100BC000BBE0029EF8DF084FFADF022E4CC26
:103D9100F875F008EF2FFFEE33FEEC33FCEE9DECEF
:103DA100984005FCEE9DFE0FD5F0E9E4CEFD22ED35
:103DB100F8F5F0EE8420D21CFEADF075F008EF2F7F
:103DC100FFED33FD4007985006D5F0F222C398FD70
:053DD1000FD5F0EA220D
:103DD600C5F0F8A3E028F0C5F0F8E5821582700278
:063DE6001583E038F02215
:103DEC00BB010A89828A83E0F5F0A3E022500687A2
:103DFC00F009E71922BBFE07E3F5F009E319228964
:0B3E0C00828A83E493F5F07401932296
:103E1700BB0110E58229F582E5833AF583E0F5F0E9
:103E2700A3E0225009E92582F886F008E622BBFEC6
:103E37000AE92582F8E2F5F008E222E5832AF5830C
:083E4700E993F5F0A3E99322D1
:103E4F00F8BB0111E58229F582E5833AF583E8F0A5
:103E5F00E5F0A3F0225009E92582C8F608A6F02262
:0D3E6F00BBFE09E92582C8F2E5F008F22249
:103E7C00E88FF0A4CC8BF0A42CFCE98EF0A42CFCE5
:103E8C008AF0EDA42CFCEA8EF0A4CDA8F08BF0A463
:103E9C002DCC3825F0FDE98FF0A42CCD35F0FCEBC2
:103EAC008EF0A4FEA9F0EB8FF0A4CFC5F02ECD3987
:0F3EBC00FEE43CFCEAA42DCE35F0FDE43CFC22F4
:105DE100C2D5E830E70FB2D5E4C39BFBE49AFAE4ED
:105DF10099F9E498F8EC30E717B2D5125E17123F23
:105E01009EE4C39BFBE49AFAE499F9E498F88003D1
:105E1100123F9E30D50DE4C39FFFE49EFEE49DFD3D
:045E2100E49CFC22DF
:0E3ECB00C3E49FFFE49EFEE49DFDE49CFC2208
:103ED900E86010ECA2E713FCED13FDEE13FEEF13FF
:043EE900FFD8F022EC
:0C3EED00E0FCA3E0FDA3E0FEA3E0FF2248
:103EF900E493FC740193FD740293FE740393FF220F
:0C3F0900E0F8A3E0F9A3E0FAA3E0FB223B
:103F1500E493F8740193F9740293FA740393FB2202
:0C3F2500ECF0A3EDF0A3EEF0A3EFF0220F
:103F3100A8828583F0D083D082123F48123F481275
:103F41003F48123F48E473E493A3C583C5F0C5839A
:103F5100C8C582C8F0A3C583C5F0C583C8C582C8DA
:013F6100223D
:10594500026291E493A3F8E493A34003F68001F285
:1059550008DFF48029E493A3F85407240CC8C33363
:10596500C4540F4420C8834004F456800146F6DF32
:10597500E4800B0102040810204080901FB8E47EEB
:10598500019360BCA3FF543F30E509541FFEE49327
:10599500A360010ECF54C025E060A840B8E493A3EE
:1059A500FAE493A3F8E493A3C8C582C8CAC583CA19
:1059B500F0A3C8C582C8CAC583CADFE9DEE780BED1
:012C8800004B
:103F620075F008758200EF2FFFEE33FECD33CDCC16
:103F720033CCC58233C5829BED9AEC99E582984099
:103F82000CF582EE9BFEED9AFDEC99FC0FD5F0D676
:103F9200E4CEFBE4CDFAE4CCF9A88222B800C1B9A0
:103FA2000059BA002DEC8BF084CFCECDFCE5F0CBDE
:103FB200F97818EF2FFFEE33FEED33FDEC33FCEB17
:103FC20033FB10D703994004EB99FB0FD8E5E4F9D2
:103FD200FA227818EF2FFFEE33FEED33FDEC33FCBF
:103FE200C933C910D7059BE99A4007EC9BFCE99AB3
:103FF200F90FD8E0E4C9FAE4CCFB2275F010EF2FF8
:10400200FFEE33FEED33FDCC33CCC833C810D707F7
:104012009BEC9AE899400AED9BFDEC9AFCE899F832
:0E4022000FD5F0DAE4CDFBE4CCFAE4C8F922C5
:00000001FF
