:10D7330041543A5354520D0A0041543A4F4B00415D
:10D74300543A454E440D0A0041543A454E44004173
:10D75300543A424155443D25640D0A004F4B2B5327
:10D7630065740041543A414456543D25640D0A0002
:10D773006164765F74696D653A000D0A0043686100
:10D783006E676564204E616D6520746F3A00415485
:10D793003A525353493F0D0A00525353493A0041F9
:10D7A300542B524553540D0A004D7920626C756514
:10D7B300746F6F7468000000000000000000000038
:10D7C3000000000000000000000000000000000056
:10D7D300000041543A4E414D453D00000000000019
:0ED7E300000000000000000000000000000038
:0876B700C11F4111A300C12015
:10005E0090100FEBF0A3EAF0A3E9F090100FE0FB85
:10006E00A3E0FAA3E0F9126F17601C201FFDD21F48
:10007E0090100FE0FBA3E475F001127065A9F0FA81
:0D008E00126F17F59B80D4E49011A3F022AF
:0300430002E12CAB
:10E12C00C0E0C083C082C0D075D008E59A30E1054C
:10E13C00539AFDC21FE59A30E057539AFE9011A3F3
:10E14C00E0FF04F074232FF582E43411F583E59B92
:10E15C00F09011A3E0FF2422F582E43411F583E062
:10E16C00B40A2E74212FF582E43411F583E090115A
:10E17C00A3B40D0AE02421F582E434118008E024D4
:10E18C0022F582E43411F583E4F0D2209011A3E45B
:0AE19C00F0D0D0D082D083D0E03262
:10EF9200900FE6EBF0A3EAF0A3E9F030201DC220C7
:10EFA200900FE6E0FBA3E0FAA3E0F8AC02AD037B2E
:0EEFB200017A11792312740A7F01227F002256
:06E301007B017D057C009C
:10E30700901009ECF0A3EDF0901006EBF0A3EAF003
:10E31700A3E9F0C220801E20202790100974FFF582
:10E32700F012704F45F07002FF22901006E0FBA339
:10E33700E0FAA3E0F912005E7F0A7E0012F318806C
:10E34700D6C22090100EE0FF7E0078237C117D015D
:10E3570090100BE0FBA3E0FAA3E0F91275ADEF70A4
:07E36700037F01227F002269
:10F0400090100B74FFF0A374D7F0A3743CF0A3747A
:10F0500005F07BFF7AD779337D147C0012E307EF4C
:08F0600060037F01227F002202
:10F0680090100B74FFF0A374D7F0A3744BF0A37443
:10F0780006F07BFF7AD779427D147C0012E307EF14
:08F0880060037F01227F0022DA
:05E69800900FE7EFF018
:10E69D0078E87C0F7D017BFF7AD779B97E007F0CFE
:10E6AD00126EF190101C74FFF0A374D7F0A3745286
:10E6BD00F0900FE7E0FF90101FE4F0A3EFF07B0167
:10E6CD007A0F79E8129A2690100B74FFF0A374D785
:10E6DD00F0A3745FF0A37406F07A0F79E812E301EA
:08E6ED00EF60037F01227F00B2
:01E6F5002202
:08E51100900FE7EEF0A3EFF01C
:10E5190078E97C0F7D017BFF7AD779C57E007F1072
:10E52900126EF190101C74FFF0A374D7F0A37466F7
:10E53900F0900FE7E0FFA3E090101FCFF0A3EFF0FA
:10E549007B017A0F79E9129A2690100B74FFF0A3D8
:10E5590074D7F0A37473F0A37409F07A0F79E912F0
:0AE56900E301EF60037F01227F0051
:01E573002285
:0BE1A600900FE7EBF0A3EAF0A3E9F014
:10E1B10078EA7C0F7D017BFF7AD779D57E007F1CC1
:10E1C100126EF1900FE7E0F9A3E0FAA3E0901009D5
:10E1D100C9F0A3EAF0A3E9F07B017A0F79EA12E32F
:10E1E100DA90100974FFF0A374D7F0A3747DF07B6B
:10E1F100017A0F79EA12E3DA90100B74FFF0A3743D
:10E20100D7F0A37480F0A37410F07B017A0F79EA40
:0BE2110012E303EF60037F01227F0097
:01E21C0022DF
:10F0B80090100B74FFF0A374D7F0A3749CF0A374A2
:10F0C80005F07BFF7AD77991FD7C0012E307EF60AA
:07F0D800037F01227F0022EB
:09F623007BFF7AD779A202005E98
:0AF5E700EFB40103C29622D296226F
:10D4C500E4900FE6F0C2967F32FE12F3187B017AE4
:10D4D50000790812ED9812F040900FE6E0FD900FEC
:10D4E500EF7401F0A37400F0A37408F0A37410F0B6
:10D4F500E4A3F0A3F07B017A117923FF12A97990B7
:10D505000FE6E02FF012F0B8EF900FE6605CE0FD5B
:10D51500900FEF7401F0A37400F0A37408F0A374E6
:10D5250010F0E4A3F0A3F07B017A117923FF12A98F
:10D5350079900FE6E02FF012F068900FE6E0FD908D
:10D545000FEF7401F0A37400F0A37408F0A3741036
:10D55500F0E4A3F0A304F0FB7A117923E4FF12A908
:10D5650079900FE6E02FF07F0122E0FD900FEF7438
:10D5750001F0A37400F0A37408F0A37410F0E4A301
:10D58500F0A304F0FB7A117923E4FF12A979900F37
:06D59500E6E02FF07F002C
:01D59B00226D
:10CB9C00E4900FE6F0D296C2967F64FE12F3181260
:10CBAC00F040EF602F900FE6E0FD900FEF7401F076
:10CBBC00A37400F0A37408F0A37410F0E4A3F0A322
:10CBCC0004F0FB7A117923E4FF12A979900FE6E0C7
:10CBDC002FF080037F00227F0112E698900FE6E091
:10CBEC00FD900FEF7401F0A37400F0A37408F0A390
:10CBFC007410F0E4A3F0A304F0FB7A117923E4FFA2
:10CC0C0012A979900FE6E02FF07BFF7AD779AC125E
:10CC1C00E1A6900FE6E0FD900FEF7401F0A3740015
:10CC2C00F0A37408F0A37410F0E4A3F0A304F0FBD9
:10CC3C007A117923E4FF12A979900FE6E02FF07FA7
:10CC4C00B87E0B12E511900FE6E0FD900FEF74012A
:10CC5C00F0A37400F0A37408F0A37410F0E4A3F034
:10CC6C00A304F0FB7A117923E4FF12A979900FE663
:10CC7C00E02FF012F068EF602F900FE6E0FD900FC0
:10CC8C00EF7401F0A37400F0A37408F0A37410F017
:10CC9C00E4A3F0A304F0FB7A117923E4FF12A97941
:0FCCAC00900FE6E02FF080037F0022D2967F01E9
:01CCBB002256
:10F33200D3EF9400EE9400400F7D187C55DCFEDD87
:08F34200FCEF1F70EB1E80E8D8
:01F34A0022A0
:0AF2FE0012F3087F0212F3087F10DC
:10F30800ED6004D2938002C293C2C38F80D2C3221D
:10F28C00AE07ED24B0FFE4FD12F308EE54F0C454C5
:0EF29C000F4410FF12F308EE540FFF02F308A8
:10F46100E4FD7F8D12F3087F1412F3087FAF02F3DE
:01F471000892
:0CF5AD00E4FD7F8D12F3037FAE02F30833
:0EF53200AE07E4FD7F8112F308AF0602F30876
:10F47200EF6006E4FD7FA08004E4FD7FA112F308A3
:01F482002267
:10F48300EF6006E4FD7FC08004E4FD7FC812F3084B
:01F493002256
:10F49400EF6006E4FD7FA78004E4FD7FA612F30875
:01F4A4002245
:10F26D00E4FEEE24B0FFE4FD12F2FEE4FC7D01E4C9
:0EF27D00FF12F3080CECB480F40EEEB408E4BB
:01F28B002260
:10EA9700E4F518E51824B0FFE4FD12F303E4FF12D0
:10EAA700F308E51875F080A485F01AF51BE4F5194D
:10EAB7007E00E51B2519FFEE351A8F82F583126F4D
:10EAC70030FF7D0112F3080519E519C3948040E072
:09EAD7000518E518C3940840BAC3
:01EAE0002213
:10DC0000D2927F147E0012F332C2927F0A7E0012FB
:10DC1000F332D292D2C4E4FD7FAE12F2FE7F401204
:10DC2000F3087F8112F3087F7F12F3087FC812F395
:10DC3000087FA112F3087FA812F3087F3F12F308B0
:10DC40007FD312F308E4FF12F3087FD512F3087FA5
:10DC50008012F3087FD912F3087FF112F3087FDAFC
:10DC600012F3087F1212F3087FDB12F3087F4012D1
:10DC7000F3087F2012F3087F0212F3087F8D12F35E
:10DC8000087F1412F3087FA412F3087FA612F3088A
:10DC90007FAF12F30812F30812F26DE4FDFF02F2F7
:01DCA0008CF7
:1076BF004212AB00004212AE00004212B000404234
:1076CF0012B290884212B500004212B70000421267
:1076DF00A500004112A4004112BA004112B40841A2
:0776EF0012B9084112A300CB
:06E75100FFEEF0A3EFF063
:10E757009012ABE0FCA3E0FDEC900FEAF0A3EDF024
:10E767009012AEE0FCA3E0FDEC900FECF0A3EDF00F
:10E777009012B0E0FCA3E0FDEC900FEEF0A3EDF0FB
:10E787009012B2E0FCA3E0FDEC900FF0F0A3EDF0E7
:10E7970043BA107B017A0F79EA7D087F2012E907D7
:03E7A70053BAEF73
:01E7AA00224C
:10E5740043BA107B017A0F79EA7D047F2012ECCC38
:10E5840053BAEF900FEAE0FF9012B5E4F0A3EFF076
:10E59400E07F00FE9012B5F0A3EFF0900FEBE0FDEA
:10E5A400EDFF9012B5EEF0A3EFF0900FECE0FF90CA
:10E5B40012B7E4F0A3EFF0E07F00FE9012B7F0A3EF
:10E5C400EFF0900FEDE0FDEDFF9012B7EEF0A3EF4A
:01E5D400F056
:01E5D5002223
:10E445009012ACE04402F012E7577F0A7E0012F307
:10E45500189012AB74D0F0A3E4F09012A4E075F01C
:10E4650004A4FDACF0A3E0FEA3E07806C333CE33ED
:10E47500CED8F9FFEE4CFEEF4DFF9012BAE0FDEF5E
:10E485004DFF9012AEEEF0A3EFF0E4A3F0A3F090F1
:10E4950012B4E04480FE9012B9E0FD74804D9012F4
:07E4A500B212E7517F0122D2
:10F09000AD07AC06D3ED940FEC940040047C007DEA
:10F0A0000F9012B3E054F0F0ED540FFF9012B2E065
:08F0B000F0A3E04FF002E75766
:02DAAE00AD07C2
:10DAB0009012A3E070309012AFE054EFF0EF9012AC
:10DAC000ABB40109E04402F0A3E0F08004E054FDAF
:10DAD000F09012ABE04401F0A3E0F012E75790128F
:10DAE000A3E004F0806D9012A3E06401706512E57C
:10DAF000749012B5E030E65B9012ABE054FEF0900B
:10DB000012B5E05403FEA3E0FF9012A5EEF0A3EFE0
:10DB1000F0FDAC06E4126B4E7BCD7ACC79CC783D2F
:10DB2000126919E4FBFA79AE78421268289012A7BC
:10DB30001272AF9012B7E0C313543F9012ADF0E4ED
:10DB40009012A3F09012A7E0FCA3E0FDA3E0FEA3D7
:08DB5000E0FF22E4FFFEFDFCF2
:01DB580022AA
:10D8A400900FE61272AF9012ABE054FEF09012AFFC
:10D8B400E04410F0E4FFFE7D207C41900FE6E0F8A8
:10D8C400A3E0F9A3E0FAA3E0FB1269197B007A80D4
:10D8D400795978C4126828126B879012A5EEF0A3C8
:10D8E400EFF07E009012AFE0543FFF9012AEEEF0E6
:10D8F400FCA3EFF0FD9012A5E0FEA3E07806C3338D
:10D90400CE33CED8F9FFEC4EFEED4F9012AE12E7B7
:10D9140051800F9012B5E0A320E60C7F037E001225
:10D92400F31812E57480EC9012AFE054EFF0900F0E
:10D93400E6E0FCA3E0FDA3E0FEA3E0FF9012A71243
:0FD9440072AF9012B7E0C313543F9012ADF022B0
:10EB720012E5749012B5E05403FEA3E0FF9012A5D3
:10EB8200EEF0A3EFF0FDAC06E4126B4E7BCD7ACC37
:10EB920079CC783D126919E4FBFA79AE78421268B1
:10EBA200289012A71272AF9012A7E0FCA3E0FDA377
:06EBB200E0FEA3E0FF22DB
:10EEB70012E5749012B7E0C313543F9012ADF0906F
:10EEC70012A5E0FCA3E0FDE4126B4E7BCD7ACC7972
:10EED700CC783D126919E4FBFA79AE7842126828BA
:09EEE700126B879012ADEFF022CE
:0AF5F1009012ABE054BFF002E757A0
:0AF5FB009012ACE04401F002E75763
:0AF605009012ACE054FEF002E7574B
:08F3AD0075F00A84E5F04EFD45
:0DF3B500AE05AD07AF06AB077FA202F01753
:07000300AD077FA212EE7DA4
:01000A0022D3
:04EE09007B017D808C
:0DEE0D00900FEFEDF0A3EBF0900FEEEFF0A3
:10EE1A00120003AE07900FF0E0FFB40108900FEF65
:10EE2A00E04EFE800AEF7007900FEFE0F45EFE906E
:09EE3A000FEEE0FFAD0602F3B596
:0BCFFE00900FE6EBF0A3EAF0A3E9F0CF
:10D0090090100F7401F0A3740FF0A374E9F07B077B
:10D019007D027FA212E292900FE9E0547FF0E0FFD7
:10D02900C4540F75F00AA4FEEF540F2EFF900FE6BB
:10D03900E0FBA3E0FAA3E0F9EF126F90900FEAE0AA
:10D04900547FF0E0FFC4540F75F00AA4FEEF540FAB
:10D059002EFF900FE6E0FBA3E0FAA3E0F9900001B0
:10D06900EF126FA2900FEBE0543FF0E0FFC4540FB2
:10D0790075F00AA4FEEF540F2E900002126FA290D1
:10D089000FECE0543FF0E0FFC4540F75F00AA4FE22
:10D09900EF540F2E900004126FA2900FEDE0540789
:10D0A900F070037407F0900FEDE0FF900FE6E0FBDE
:10D0B900A3E0FAA3E0F9900003EF126FA2900FEE3C
:10D0C900E0FF30E0089000087401126F5DEF541F13
:10D0D900900FEEF0E0FFC4540F75F00AA4FEEF5470
:10D0E9000F2E900005126FA2900FEFE024D0FFE4FD
:0AD0F90034079000068FF00270FD6E
:10E9FD00900FE6EFF0A3EDF0EB75F00A84C454F040
:10EA0D00FFEB75F00A84E5F04FFD7F0212F3B59030
:10EA1D000FE7E0FF75F00A84C454F0FEEF7F031298
:10EA2D00F3AD900FE6E0FF75F00A84C454F0FEEFED
:0DEA3D0075F00A84E5F04EFD7F0402F3B58C
:10E4AC00900FE6EEF0A3EFF0A3EDF0A3EBF0900FDE
:10E4BC00E7E02430F0900FE6E034F8F0A3E0FD7FC5
:10E4CC000812F3B5900FE8E0FF75F00A84C454F01D
:10E4DC00FEEF7F0712F3AD900FE9E0FF75F00A84B1
:10E4EC00C454F0FEEF75F00A84E5F04EFD7F051282
:10E4FC00F3B5900FEAE0B40702E4F0900FEAE0FD08
:05E50C007F0602F3B5DB
:02D67100AE0504
:10D67300E4900FEBF0A3F0A3F0EF75F00A84C45429
:10D68300F04480FDEF75F00A84E5F04DFDEE75F092
:10D693000A84C454F04480FFEE75F00A84E5F04F29
:10D6A300900FEBF0EB4480A3F0900FE9E0FF75F0EF
:10D6B3000A84C454F04480FEEF75F00A84E5F04E0A
:10D6C300900FEDF0900FEAE0FF64026004EFB40105
:10D6D30009ED547FFD900FEB8026900FEAE0FEB436
:10D6E300030CED547FFDA3E0547FF0A38012EEB44E
:10D6F3000412ED547FFD900FEBE0547FF0900FED9B
:10D70300E0547FF07F0A12F3B5900FEBE0FD7F0941
:10D7130012F3B5900FECE0FD7F0C12F3B5900FED13
:10D72300E0FD7F0B12F3B57B017D027F0102EE0D5D
:09F62C00E4FB7D087F0102EE0DF4
:10F17A007F0A12EE097F0912EE097B017D807F0C5E
:10F18A0012EE0D7B017D807F0B12EE0DE4FB7D08F4
:05F19A007F0102EE0DF3
:10EF2900900FE6EFF0A3EDF0E4FB7D807F0E12EE8B
:10EF39000D900FE6E0FD7F0E12F3B5900FE7E0FDAF
:10EF49007F0F12F3B57B017D017F0112EE0D7B016D
:07EF59007D807F0E02EE0D2A
:09F63500E4FB7D047F0102EE0DEF
:10F43D00E4FB7D017F0112EE0DE4FB7D807F0E026A
:02F44D00EE0DC2
:09F60F007F01120003EF540CFF0F
:01F6180022CF
:10F4B600AE05EEC433333354804FFD7F0D02F3B5F2
:10F4160012F62C12F6357D017F0312EF29E4FD7FEB
:04F426000102F4B635
:06F699000001020408104C
:1076F60041129E004112720541128D0541127E050E
:0C7706004112920241126D0441129300E6
:10F0DF0090126DE025E025E0FF901292E0FEC43320
:0AF0EF0054E04FFFA3E04FFD7FF552
:0DF0F900AE05AD07AF06AB077FEC02F017C8
:07F66200AD077FEC12EE7D05
:01F66900227E
:0EF540007FD012F662BF60037F01227F00229F
:10D2050078D17C127D017BFF7AF679997E007F06C5
:10D21500126EF190128DE0FFD39405501174D12F49
:10D22500F582E43412F583E09012CEF08006901278
:10D23500CE7410F090127EE0FFD39405501174D196
:10D245002FF582E43412F583E09012CFF08006903A
:10D2550012CF7410F0901272E0FFD3940550117440
:10D26500D12FF582E43412F583E09012D0F08006D8
:10D275009012D07410F09012CFE0FCE4126B537B47
:10D28500337A33791378401269197B337A337913FA
:10D29500783F126828C004C005C006C0079012CEAA
:10D2A500E0FCE4126B537B337A33791378401269CF
:10D2B50019E4FBFA79A0783F126828D003D002D090
:10D2C50001D000126828C004C005C006C00790122E
:10D2D500D0E0FCE4126B537B337A33791378401238
:10D2E50069197B337A337913783F126828D003D0D4
:0DD2F50002D001D000126828126B877E0065
:01D302002208
:10C2820090100F7401F0A3740FF0A374EBF07B1AFB
:10C292007D887FEC12E29290100F7401F0A374106B
:10C2A200F0A37405F07B077DE17FEC12E292900F20
:10C2B200ECE0FE900FEBE0FDEDFF901283EEF0A3B9
:10C2C200EFF0900FEEE0FE900FEDE0FDEDFF90122B
:10C2D20087EEF0A3EFF0900FF0E0FE900FEFE0FD9D
:10C2E200EDFF90128BEEF0A3EFF0900FF2E0FE90D4
:10C2F2000FF1E0FDEDFF901278EEF0A3EFF0900F5A
:10C30200F4E0FE900FF3E0FDEDFF90127AEEF0A361
:10C31200EFF0900FF6E0FE900FF5E0FDEDFF9012CA
:10C322007CEEF0A3EFF0900FF8E0FE900FF7E0FD47
:10C33200EDFF90127FEEF0A3EFF0900FFAE0FE9087
:10C342000FF9E0FDEDFF901281EEF0A3EFF0900FF8
:10C35200FCE0FE900FFBE0FDEDFF901285EEF0A3F6
:10C36200EFF0900FFEE0FE900FFDE0FDEDFF90126A
:10C3720089EEF0A3EFF0901000E0FE900FFFE0FDD9
:10C38200EDFF90128EEEF0A3EFF0901002E0FE901F
:10C392001001E0FDEDFF901290EEF0A3EFF090108F
:10C3A20004E090126EF0901006E0FE901005E0FDA1
:10C3B200EDFF90126FEEF0A3EFF0901007E09012F5
:10C3C20071F0901008E075F010A4FFA3E0FDEF4DAE
:10C3D200FF901273E5F0F0A3EFF090100AE075F011
:10C3E20010A4FF901009E0C4540FFDEF4DFF90120E
:0FC3F20075E5F0F0A3EFF090100BE0901277F0EC
:01C401002218
:10D3ED0090100F7401F0A3740FF0A374E9F07B0893
:10D3FD007DF77FEC12E292900FEAE0FFE4FCFDFE78
:10D40D0078041271B1C004C005C006C007900FE9C1
:10D41D00E0FFE4FCFDFE780C1271B1D003D002D018
:10D42D0001D000EF4BFFEE4AFEED49FDEC48FCA8A4
:10D43D0004A905AA06AB07900FEBE0C4540FFFEB50
:10D44D004FFFEAFEE9FDE8FC90129A1272AF900FC1
:10D45D00EDE0FFE4FCFDFE78041271B1C004C005DF
:10D46D00C006C007900FECE0FFE4FCFDFE780C1247
:10D47D0071B1D003D002D001D000EF4BFFEE4AFEC8
:10D48D00ED49FDEC48FCA804A905AA06AB07900FD1
:10D49D00EEE0C4540FFFEB4FFFEAFEE9FDE8FC9010
:10D4AD0012941272AF900FEFE0FEA3E0FDEDFF902E
:07D4BD001298EEF0A3EFF05E
:01D4C4002245
:10BC1200900FF51272BBC2200000900FF91272BB96
:10BC220042AA0000901294E0FCA3E0FDA3E0FEA370
:10BC3200E0FFE4126B49E4FBFA79807846126A224B
:10BC4200C004C005C006C007901283E0FCA3E0FD5B
:10BC5200E4126B4EE4FBFA79807844126A22A8045B
:10BC6200A905AA06AB07D007D006D005D0041268F2
:10BC720024900FE91272AF901287E0FCA3E0FDEC72
:10BC8200126B4E900FE9E0F8A3E0F9A3E0FAA3E00B
:10BC9200FB126919900FE91272AF901294E0FCA3A3
:10BCA200E0FDA3E0FEA3E0FFE4126B49E4FBFAF936
:10BCB2007848126A22C004C005C006C007901283E9
:10BCC200E0FCA3E0FDE4126B4EE4FBFAF9784612C5
:10BCD2006A22A804A905AA06AB07D007D006D00598
:10BCE200D004126824900FED1272AF90128BE0FC18
:10BCF200A3E0FDEC126B4EC004C005C006C0079065
:10BD02000FEDE0FCA3E0FDA3E0FEA3E0FFA804A981
:10BD120005AA06FB126919D003D002D001D0001285
:10BD22006919900FED1272AF900FEDE0FCA3E0FDE8
:10BD3200A3E0FEA3E0FF900FE9E0F8A3E0F9A3E09F
:10BD4200FAA3E0FB126828126B8790129F1272AF5F
:10BD5200900FEDE0FCA3E0FDA3E0FEA3E0FF900F57
:10BD6200E9E0F8A3E0F9A3E0FAA3E0FB126828E413
:10BD7200FBFA79A07845126A22900FF11272AF9005
:10BD82000FF5E0FCA3E0FDA3E0FEA3E0FF900FF1BE
:10BD9200E0F8A3E0F9A3E0FAA3E0FB126ABF5005C2
:10BDA200900FF58026900FF9E0FCA3E0FDA3E0FEE2
:10BDB200A3E0FF900FF1E0F8A3E0F9A3E0FAA3E01B
:10BDC200FB126ABF60164014900FF9E0FCA3E0FD7D
:10BDD200A3E0FEA3E0FF900FF11272AF900FF1E02B
:0ABDE200FCA3E0FDA3E0FEA3E0FFD8
:01BDEC002234
:10A24100900FF91272BB46EA6000900FFD1272BBCB
:10A2510047D6D80090129FE0FCA3E0FDA3E0FEA347
:10A26100E0FFEC126B49E4FBFAF97840126A22E450
:10A27100FBFA797A78C7126828900FE91272AF90C9
:10A281001285E0FCA3E0FDEC126B4EC004C005C0DA
:10A2910006C007900FE9E0FCA3E0FDA3E0FEA3E008
:10A2A100FFA804A905AA06FB126919D003D002D0A0
:10A2B10001D000126919E4FBFAF97847126A229079
:10A2C1000FED1272AF900FEDE0F8A3E0F9A3E0FA01
:10A2D100A3E0FBC000C001C002C003901281E0FCFA
:10A2E100A3E0FDEC126B4E900FE9E0F8A3E0F9A3B7
:10A2F100E0FAA3E0FB126919E4FBFAF9784012696C
:10A3010019D003D002D001D000126828900FED12AD
:10A3110072AF90127FE0FCA3E0FDEC126B4EE4FB08
:10A32100FA79807847126919C004C005C006C007D0
:10A33100E4FBFA79807840900FEDE0FCA3E0FDA307
:10A34100E0FEA3E0FF126A22D003D002D001D000C8
:10A35100126828900FED1272AF90127CE0FCA3E01E
:10A36100FDEC126B4E900FE9E0F8A3E0F9A3E0FADF
:10A37100A3E0FB126919900FE9E0F8A3E0F9A3E06B
:10A38100FAA3E0FB126919E4FBFAF97849126A228F
:10A39100900FF11272AF90127AE0FCA3E0FDEC1283
:10A3A1006B4E900FE9E0F8A3E0F9A3E0FAA3E0FB1C
:10A3B100126919900FF1E0F8A3E0F9A3E0FAA3E024
:10A3C100FB126828E4FBFAF97849126A22900FE936
:10A3D1001272AFE4FBFAF97847900FE9E0FCA3E0D1
:10A3E100FDA3E0FEA3E0FF126A22E4FBFA79807884
:10A3F1003F126828C004C005C006C007901278E06B
:10A40100FCA3E0FDE4126B4ED003D002D001D000DA
:10A41100126919900FE91272AFE4FFFEFDFC900F73
:10A42100E9E0F8A3E0F9A3E0FAA3E0FB126ABF6058
:10A4310002500302A5D790129AE0FCA3E0FDA3E02D
:10A44100FEA3E0FFE4126B49A804A905AA06AB0725
:10A45100E4FFFE7D807C49126824900FF51272AFF3
:10A46100E4FBFA79807845900FEDE0FCA3E0FDA3D1
:10A47100E0FEA3E0FF126A22A804A905AA06AB0721
:10A48100900FF5E0FCA3E0FDA3E0FEA3E0FF12685E
:10A49100247B007A5079C37845126919900FE9E05D
:10A4A100F8A3E0F9A3E0FAA3E0FB126A22900FF50A
:10A4B1001272AF901290E0FCA3E0FDEC126B4E9093
:10A4C1000FF5E0F8A3E0F9A3E0FAA3E0FB126919A4
:10A4D100900FF5E0F8A3E0F9A3E0FAA3E0FB12691D
:10A4E10019E4FBFAF9784F126A22900FE91272AF60
:10A4F10090128EE0FCA3E0FDEC126B4E900FF5E0A4
:10A50100F8A3E0F9A3E0FAA3E0FB126919E4FBFA6E
:10A51100F97847126A22900FED1272AF900FF5E0B1
:10A52100F8A3E0F9A3E0FAA3E0FBC000C001C00278
:10A53100C003901289E0FCA3E0FDEC126B4EC00455
:10A54100C005C006C007900FEDE0FCA3E0FDA3E04D
:10A55100FEA3E0FF900FE9E0F8A3E0F9A3E0FAA37E
:10A56100E0FB126828D003D002D001D00012682885
:10A57100E4FBFA79807841126A22D003D002D0013B
:10A58100D000126828900FF51272AF900FF9E0FC1D
:10A59100A3E0FDA3E0FEA3E0FF900FF5E0F8A3E048
:10A5A100F9A3E0FAA3E0FB126ABF50028028900FE2
:10A5B100FDE0FCA3E0FDA3E0FEA3E0FF900FF5E0CA
:10A5C100F8A3E0F9A3E0FAA3E0FB126ABF601B4025
:10A5D10019900FFD8003900FF9E0FCA3E0FDA3E0CB
:10A5E100FEA3E0FF900FF51272AF900FF5E0FCA310
:08A5F100E0FDA3E0FEA3E0FF82
:01A5F900223F
:10B1A500900FED1272BB00000000900FF11272BB00
:10B1B50042C8000090129FE0FCA3E0FDA3E0FEA3BF
:10B1C500E0FFEC126B49E4FBFA799678C712682820
:10B1D500900FF51272AF901275E0FCA3E0FDEC1232
:10B1E5006B4EE4FBFA79807846126A22900FF5E0FF
:10B1F500F8A3E0F9A3E0FAA3E0FB126919C004C0C3
:10B2050005C006C007901273E0FCA3E0FDEC126BCD
:10B215004EE4FBFA79807842126919D003D002D046
:10B2250001D000126828900FF91272AF901298E0C1
:10B23500FCA3E0FDE4126B4E900FF9E0F8A3E0F9F2
:10B24500A3E0FAA3E0FB126824900FFD1272AF9001
:10B25500126FE0FCA3E0FDEC126B4EE4FBFA798083
:10B265007847126A229010011272AF901271E0FCB9
:10B27500E4126B53E4FBFA7980784C126A22900F42
:10B28500F5E0F8A3E0F9A3E0FAA3E0FB126919E4FD
:10B29500FBFA7980783F1268289010051272AF90FA
:10B2A5001277E0FC126B53E4FBFA7980784C126A52
:10B2B50022900FF5E0F8A3E0F9A3E0FAA3E0FB1272
:10B2C5006919901005E0F8A3E0F9A3E0FAA3E0FB03
:10B2D500126919E4FBFA7980783F12682890100901
:10B2E5001272AF901009E0FCA3E0FDA3E0FEA3E01D
:10B2F500FF901005E0F8A3E0F9A3E0FAA3E0FB1244
:10B305006919C004C005C006C007901001E0FCA380
:10B31500E0FDA3E0FEA3E0FF900FFDE0F8A3E0F958
:10B32500A3E0FAA3E0FB126919D003D002D001D043
:10B33500001269199010091272AF90126EE0FCE4C8
:10B34500126B53901009E0F8A3E0F9A3E0FAA3E02B
:10B35500FB126919E4FBFAF97849126A22A804A9D3
:10B3650005AA06AB07E4FFFE7D807C3F12682490AA
:10B375001009E0F8A3E0F9A3E0FAA3E0FB126919CC
:10B38500900FE91272AF900FF1E0FCA3E0FDA3E08E
:10B39500FEA3E0FF900FE9E0F8A3E0F9A3E0FAA32C
:10B3A500E0FB126ABF60074005900FF18024900F03
:10B3B500EDE0FCA3E0FDA3E0FEA3E0FF900FE9E0D4
:10B3C500F8A3E0F9A3E0FAA3E0FB126ABF501490DA
:10B3D5000FEDE0FCA3E0FDA3E0FEA3E0FF900FE985
:10B3E5001272AF900FE9E0FCA3E0FDA3E0FEA3E03D
:01B3F500FF58
:01B3F6002234
:10EB2B00900FE6EBF0A3EAF0A3E9F012D3ED12BCE1
:10EB3B0012900FE6E0FBA3E0FAA3E0F912721412B5
:10EB4B00A241900FE6E0FBA3E0FAA3E0F9900004EA
:10EB5B0012722E12B1A5900FE6E0FBA3E0FAA3E030
:07EB6B00F990000802722E70
:0EF54E007DB67FE012F0F97F057E0002F31813
:10E80500900FEA74C8F07F057E0012F31812F540E8
:10E81500EF70107F01FE12F318900FEAE014F0700C
:10E82500ECFF2212F54E12C28212F0DF901272E056
:10E83500FD7FF212F0F990127EE025E025E0FF90D1
:10E84500128DE0FEC43354E04FFF90129EE04FFD61
:07E855007FF412F0F97F01CE
:01E85C002299
:10F2AA0090129EEFF090127EE025E025E0FE90128B
:0EF2BA008DE0C43354E04E4FFD7FF402F0F9B6
:10F19F009012DBEBF0A3EAF0A3E9F07F0112F2AAE1
:10F1AF0012D20512F3189012DBE0FBA3E0FAA3E0F2
:04F1BF00F902EB2B3B
:10F3C200EFD3940740027F07901292EFF012F0DF22
:05F3D2007F0302F2AA16
:10F24D00746865206D6172697820636F756C6420D8
:10F25D006E6F7420626520736F6C7665640D0A00A5
:1077120058104900000000000000000000000000B6
:1077220000000000000000000000004210610000A4
:10E6F600FF90106375F01CED1272ECEC75F01CA423
:10E706002583F583E5822FF582E5833EF583E0FCDC
:09E71600A3E0FDA3E0FEA3E0FF77
:10E71F009010251272AFE4FFFEFDFC901025E0F87B
:10E72F00A3E0F9A3E0FAA3E0FB126ABF901025E083
:10E73F00FCA3E0FDA3E0FEA3E0FF5005126B3880C1
:02E74F000022A6
:10EBB800E4900FE6F0E4900FE7F0900FE7E0FFC372
:10EBC80094075027900FE6E075F01CA42463F582A3
:10EBD800E43410F58375F004EF1272EC1272BB0086
:10EBE800000000900FE7E004F080CF900FE6E0040B
:05EBF800F0E0B406C0CE
:01EBFD0022F5
:06C40200900FE61272AF7C
:10C40800901062E004F07006901061E004F0900F64
:10C41800EAE0FCA3E0FDA3E0FEA3E0FF900FEAE062
:10C42800F8A3E0F9A3E0FAA3E0FB126919900FF270
:10C438001272AF900FEEE0FCA3E0FDA3E0FEA3E0D4
:10C44800FFA804A905AA06FB126919900FF6127233
:10C45800AF900FE6E0FCA3E0FDA3E0FEA3E0FF90B1
:10C468000FFA1272AF900FEAE0FCA3E0FDA3E0FE22
:10C47800A3E0FF900FFE1272AF900FEEE0FCA3E076
:10C48800FDA3E0FEA3E0FF9010021272AF90100629
:10C498001272BB3F800000900FE6E0FCA3E0FDA312
:10C4A800E0FEA3E0FF126B38900FE6E0F8A3E0F996
:10C4B800A3E0FAA3E0FB12691990100A1272AFE424
:10C4C80090100EF0E490100FF090100EE075F01C34
:10C4D800A42463F582E43410F583C083C0829010ED
:10C4E8000FE0D082D08375F0041272ECC083C08252
:10C4F800E0F8A3E0F9A3E0FAA3E0FBC000C001C0A4
:10C5080002C00390100FE025E025E024F2F582E454
:10C51800340FF583E0FCA3E0FDA3E0FEA3E0FF9069
:10C52800100EE025E025E024F2F582E4340FF583CF
:10C53800E0F8A3E0F9A3E0FAA3E0FB126919D0033D
:10C54800D002D001D000126828D082D0831272AFF6
:10C5580090100FE004F0E06407600302C4D190106B
:0CC568000EE004F0E06406600302C4CCA6
:01C5740022A4
:10E02F00E4901019F0E490101AF0901019E075F0C8
:10E03F001CA42463F582E43410F583C083C082905E
:10E04F00101AE0D082D08375F0041272ECC083C036
:10E05F0082E0FCA3E0FDA3E0FEA3E0FFC004C00547
:10E06F00C006C007901061E0FCA3E0FDEC126B4E00
:10E07F00A804A905AA06AB07D007D006D005D0047F
:10E08F00126A22D082D0831272AF90101AE004F07D
:0FE09F00E0B40796901019E004F0E06406708674
:01E0AE00224F
:0ED30300901025EEF0A3EFF0A3ECF0A3EDF0F8
:10D31100A31272BB00000000E490102DF0901025C4
:10D32100A3E075F01CA42463F582E43410F583C0F6
:10D3310083C08290102DE0D082D08375F0041272E8
:10D34100ECE0FCA3E0FDA3E0FEA3E0FF90102912B6
:10D3510072AF901027A3E075F01CA42463F582E45A
:10D361003410F583C083C08290102DE0D082D08329
:10D3710075F0041272ECE0FCA3E0FDA3E0FEA3E073
:10D38100FF901025A3E075F01CA42463F582E4341A
:10D3910010F583C083C08290102DE0D082D08375B8
:10D3A100F0041272EC1272AF901029E0FCA3E0FDC0
:10D3B100A3E0FEA3E0FF901027A3E075F01CA424D6
:10D3C10063F582E43410F583C083C08290102DE0B0
:10D3D100D082D08375F0041272EC1272AF90102DCE
:0BD3E100E004F0E06407600302D31ECC
:01D3EC00221E
:06E5D60090101E1272AF4E
:10E5DC00E4901024F0901022A3E075F01CA42463A6
:10E5EC00F582E43410F583C083C082901024E0D00F
:10E5FC0082D08375F0041272ECC083C082E0FCA35D
:10E60C00E0FDA3E0FEA3E0FF90101EE0F8A3E0F90C
:10E61C00A3E0FAA3E0FB126919D082D0831272AF87
:0AE62C00901024E004F0E0B407AB06
:01E6360022C1
:06DB590090101F1272AFD4
:10DB5F00E4901027F0901025A3E075F01CA4246327
:10DB6F00F582E43410F583C083C082901027E0D093
:10DB7F0082D08375F0041272ECC083C082E0F8A3E8
:10DB8F00E0F9A3E0FAA3E0FBC000C001C002C003AC
:10DB9F00901023A3E075F01CA42463F582E43410E5
:10DBAF00F583C083C082901027E0D082D08375F0B8
:10DBBF00041272ECE0FCA3E0FDA3E0FEA3E0FF90F3
:10DBCF00101FE0F8A3E0F9A3E0FAA3E0FB12691934
:10DBDF00D003D002D001D000126828D082D0831297
:10DBEF0072AF901027E004F0E06407600302DB647B
:01DBFF002203
:08DDD80090101FEEF0A3EFF024
:10DDE000E4A3F0A3F0A3F0A3F0EF2401FFE43E903E
:10DDF0001021F0A3EFF0901021E0FCA3E0FDC3940C
:10DE000006EC64809480506890101FE0FEA3E078D8
:10DE100002C333CE33CED8F912E6F6C004C005C033
:10DE200006C00790101FE0FCA3E0FDAE047802C31B
:10DE300033CE33CED8F912E6F6A804A905AA06AB6C
:10DE400007D007D006D005D004126ABF5011901039
:10DE50001FE0FEA3E0FFA3E0FCA3E0FD12D30390CC
:10DE60001022E004F0708F901021E004F002DDF643
:01DE7000228F
:10CEF5009010191272BB00000000E490101DF09014
:10CF0500101DE0FFC39406400302CFFB7E0012DD37
:10CF1500D890101DE0FF75F01CA42463F582E4345D
:10CF250010F58375F004EF1272ECE0FCA3E0FDA3AD
:10CF3500E0FEA3E0FFE4FBFAF9F8126ABF70037F95
:10CF4500012290101DE004A3F090101EE0FFC39491
:10CF550006400302CFF2EF75F01CA42463F582E4CA
:10CF65003410F583C083C08290101DE0D082D08339
:10CF750075F0041272ECE0FCA3E0FDA3E0FEA3E073
:10CF8500FF126B3890101DE075F01CA42463F58228
:10CF9500E43410F583C083C08290101DE0D082D0A8
:10CFA5008375F0041272ECE0F8A3E0F9A3E0FAA3AC
:10CFB500E0FB126A229010191272AF901019E0FC72
:10CFC500A3E0FDA3E0FEA3E0FFA3E0FB901023E4B4
:10CFD500F0A3EBF090101EE0FB901025E4F0A3EB1E
:10CFE500F012DB5990101EE004F002CF4E90101D98
:08CFF500E004F002CF047F000C
:01CFFD002211
:10E36E009010191272BB00000000E490101DF09086
:10E37E00101DE0FF75F01CA42463F582E43410F543
:10E38E008375F004EF1272ECE0F8A3E0F9A3E0FA63
:10E39E00A3E0FBE4FFFE7D807C3F126A2290101901
:10E3AE001272AF901019E0FCA3E0FDA3E0FEA3E013
:10E3BE00FFA3E0FB901022E4F0A3EBF012E5D69061
:0BE3CE00101DE004F0E0C3940640A422
:01E3D9002221
:0BBDED00901019EBF0A3EAF0A3E9F0BE
:10BDF800A31272BB0000000590101CE0FCA3A3E096
:10BE0800FEEC33500302BF7890101CA3A3A3E0906C
:10BE1800107B75F01C1272ECEE75F01CA42583F5EE
:10BE280083E0FCA3E0FDA3E0FEA3E0FFC004C0059F
:10BE3800C006C007E47F04FEFDFC90101CE0F8A3D8
:10BE4800E0F9A3E0FAA3E0FB12712A901019E0FBD5
:10BE5800A3E0FAA3E0F98F828E83D007D006D0053D
:10BE6800D00412722E9010207405F090101CE0FC83
:10BE7800A3E0FDA3E0FEA3E02401FBE43EFAE43DD9
:10BE8800F9E43CF8A3E0FFE4FCFDFED3127187401F
:10BE98000302BF51E47F04FEFDFC90101CE0F8A3F0
:10BEA800E0F9A3E0FAA3E0FB12712A901019E0FB75
:10BEB800A3E0FAA3E02FF9EA3EFAEB3DFBC003C08A
:10BEC80002C0011271C4C004C005C006C0079010AA
:10BED80019E0FBA3E0FAA3E0F9901020E075F00464
:10BEE800A4F58285F0831271E490101CA3A3E0FAF4
:10BEF800A3E090106375F01C1272ECEA75F01CA4B4
:10BF08002583F583C083C082901020E0D082D0833F
:10BF180075F0041272ECE0F8A3E0F9A3E0FAA3E0EC
:10BF2800FB126919A804A905AA06AB07D007D00611
:10BF3800D005D004126824D001D002D003127214A4
:10BF4800901020E014F002BE7390101CE0FCA3E0F7
:10BF5800FDA3E0FEA3E0FFEF24FFFFEE34FFFEEDBC
:10BF680034FFFDEC34FFFC90101C1272AF02BE00CF
:01BF780022A6
:0BA5FA00900FE6EBF0A3EAF0A3E9F0FD
:10A60500A31272BB00000000900FED1272BB000098
:10A615000000900FF11272BB00000000900FF512C0
:10A6250072BB00000000900FF91272BB0000000021
:10A63500900FFD1272BB000000009010011272BB5A
:10A64500000000009010051272BB00000000901081
:10A65500091272BB0000000090100D1272BB0000C1
:10A6650000009010111272BB00000000901015122E
:10A6750072BB0000000012E02F12CEF5EF600C7BDC
:10A68500FF7AF2794D129A2C7F002212E36E7B013C
:10A695007A10794912BDED901049E0FCA3E0FDA3C5
:10A6A500E0FEA3E0FF900FE91272AF90104DE0FCC1
:10A6B500A3E0FDA3E0FEA3E0FF900FED1272AF90C3
:10A6C5001051E0FCA3E0FDA3E0FEA3E0FF900FF135
:10A6D5001272AF901055E0FCA3E0FDA3E0FEA3E0ED
:10A6E500FF900FF51272AF901059E0FCA3E0FDA3A7
:10A6F500E0FEA3E0FF900FF91272AF90105DE0FC51
:10A70500A3E0FDA3E0FEA3E0FF900FFD1272AF9062
:10A715000FF1E0FCA3E0FDA3E0FEA3E0FF126B3820
:10A72500E4FBFAF97840126A229010011272AFE444
:10A73500FFFEFD7C40900FE9E0F8A3E0F9A3E0FA05
:10A74500A3E0FB126919C004C005C006C007900F3D
:10A75500F5E0FCA3E0FDA3E0FEA3E0FF126B38D01B
:10A7650003D002D001D000126A229010051272AFF8
:10A77500E4FFFEFD7C40900FEDE0F8A3E0F9A3E0D7
:10A78500FAA3E0FB126919C004C005C006C0079012
:10A795000FF9E0FCA3E0FDA3E0FEA3E0FF126B3898
:10A7A500D003D002D001D000126A22901009127293
:10A7B500AF901005E0FCA3E0FDA3E0FEA3E0FF9051
:10A7C5000FE9E0F8A3E0F9A3E0FAA3E0FB126919A9
:10A7D500901005E0F8A3E0F9A3E0FAA3E0FB126905
:10A7E50019C004C005C006C007901001E0FCA3E035
:10A7F500FDA3E0FEA3E0FFA804A905AA06FB1269D4
:10A8050019D003D002D001D000126828C004C005B9
:10A81500C006C007901009E0FCA3E0FDA3E0FEA37D
:10A82500E0FF900FEDE0F8A3E0F9A3E0FAA3E0FB69
:10A83500126919901009E0F8A3E0F9A3E0FAA3E082
:10A84500FB126919D003D002D001D00012682890FC
:10A855000FFDE0F8A3E0F9A3E0FAA3E0FB126824FA
:10A8650012DA0690100D1272AF900FE9E0FCA3E02A
:10A87500FDA3E0FEA3E0FF12DA06A804A905AA06D7
:10A88500AB0790100DE0FCA3E0FDA3E0FEA3E0FF05
:10A89500126A229010111272AF900FEDE0FCA3E046
:10A8A500FDA3E0FEA3E0FF12DA06A804A905AA06A7
:10A8B500AB0790100DE0FCA3E0FDA3E0FEA3E0FFD5
:10A8C500126A229010151272AF901001E0FCA3E0FD
:10A8D500FDA3E0FEA3E0FF126B87900FE6E0FBA36C
:10A8E500E0FAA3E0F9EE8FF01270DE901005E0FCBF
:10A8F500A3E0FDA3E0FEA3E0FF126B87900FE6E067
:10A90500FBA3E0FAA3E0F9900002EE8FF01270FDD0
:10A91500901009E0FCA3E0FDA3E0FEA3E0FF126BAD
:10A9250087900FE6E0FBA3E0FAA3E0F9900004EEC0
:10A935008FF01270FD90100DE0FCA3E0FDA3E0FE8A
:10A94500A3E0FF90000612722E901011E0FCA3E028
:10A95500FDA3E0FEA3E0FF90000A12722E901015F1
:10A96500E0FCA3E0FDA3E0FEA3E0FF90000E127261
:03A975002E7F0131
:01A9780022BC
:107732004112BB034112BD064112BF004112BE01FC
:107742004112BC024212C000004212C600004212A4
:10775200CC00004412C23F8000004412C83F8000A7
:017762000026
:0D004600AE05AD07AF06AB077F3C02F0171B
:07F66A00AD077F3C12EE7DAD
:01F671002276
:10F4C6007F0A12F66AEF644860037F00227F0122FA
:0BC6DB00900FE6EBF0A3EAF0A3E9F0FB
:10C6E60090100F7401F0A3740FF0A374E9F07B06A9
:10C6F6007D037F3C12E292900FE9E0FEA3E0FDEDA0
:10C70600FF900FE6E0FBA3E0FAA3E0F9EE8FF0124C
:10C7160070DE900FEDE0FEA3E0FDEDFF900FE6E08A
:10C72600FBA3E0FAA3E0F9900002EE8FF01270FD91
:10C73600900FEBE0FEA3E0FDEDFF900004EE8FF01E
:10C746001270FD12707BFF9012C0E0FCA3E0FDC3E7
:10C75600EF9DFFE5F09C8FF01270DE900FE6E0FB98
:10C76600A3E0FAA3E02402F9E43AFA12707BFF9000
:10C7760012C6E0FCA3E0FDC3EF9DFFE5F09C8FF041
:10C786001270DE900FE6E0FBA3E0FAA3E02404F9C2
:10C79600E43AFA12707BFF9012CCE0FCA3E0FDC3F2
:10C7A600EF9DFFE5F09C8FF01270DE900FE6E0FB48
:10C7B600A3E0FAA3E0F99000021270A6FDACF0EC3B
:10C7C600126B4E9012C2E0F8A3E0F9A3E0FAA3E0E0
:10C7D600FB126919126B87900FE6E0FBA3E0FAA340
:10C7E600E0F9900002EE8FF01270FD9000041270D6
:10C7F600A6FDACF0EC126B4E9012C8E0F8A3E0F97F
:10C80600A3E0FAA3E0FB126919126B87900FE6E02A
:10C81600FBA3E0FAA3E0F9900004EE8FF00270FDAE
:10EC88009012C0EEF0A3EFF0AF059012C6ECF0A31F
:10EC9800EFF0AF039012CCEAF0A3EFF0900FECE0A6
:10ECA800FCA3E0FDA3E0FEA3E0FF9012C21272AF46
:10ECB800900FF0E0FCA3E0FDA3E0FEA3E0FF9012BC
:04ECC800C80272AF5D
:0BF5D1009012BCEFF0FD7F020200462C
:10E85D00900FEA74C8F012F4C6EF70107F01FE122B
:10E86D00F318900FEAE014F070ECFF229012BDE067
:10E87D0025E025E0FF9012BBE0FEC454F04FFF9061
:10E88D0012BFE04FFDE4FF1200469012BEE0C4330C
:10E89D0054E0FD7F011200469012BCE0FD7F021294
:04E8AD0000467F01A1
:01E8B1002244
:0BB3F700900FE6EBF0A3EAF0A3E9F0F2
:10B40200126B387BE17A2E79657842126A22900FAC
:10B41200F11272AF900FEDE0FCA3E0FDA3E0FEA3FA
:10B42200E0FF126B387BE17A2E79657842126A224C
:10B43200900FF51272AF900FF5E0FCA3E0FDA3E0D0
:10B44200FEA3E0FF12BFD7C004C005C006C007902C
:10B452000FE6E0FBA3E0FAA3E0F99000021270A667
:10B46200FDACF0EC126B4ED003D002D001D0001232
:10B472006919C004C005C006C007900FF1E0FCA323
:10B48200E0FDA3E0FEA3E0FF12BFD7D003D002D0BD
:10B4920001D000126919C004C005C006C007900F90
:10B4A200F1E0FCA3E0FDA3E0FEA3E0FF12BFC1C0F8
:10B4B20004C005C006C007900FE6E0FBA3E0FAA3B4
:10B4C200E0F912707BFDACF0EC126B4ED003D002AF
:10B4D200D001D000126919D003D002D001D00012DD
:10B4E2006828C004C005C006C007900FF5E0FCA3A1
:10B4F200E0FDA3E0FEA3E0FF12BFC1C004C005C08F
:10B5020006C007900FE6E0FBA3E0FAA3E0F9900083
:10B51200041270A6FDACF0EC126B4ED003D002D038
:10B5220001D000126919C004C005C006C007900FFF
:10B53200F1E0FCA3E0FDA3E0FEA3E0FF12BFD7D041
:10B5420003D002D001D000126919A804A905AA06E5
:10B55200AB07D007D006D005D004126824900FF9AB
:10B562001272AF900FF5E0FCA3E0FDA3E0FEA3E0B2
:10B57200FF12BFD7C004C005C006C007900FE6E0A7
:10B58200FBA3E0FAA3E0F99000041270A6FDACF070
:10B59200EC126B4ED003D002D001D000126919C058
:10B5A20004C005C006C007900FF5E0FCA3E0FDA3B0
:10B5B200E0FEA3E0FF12BFC1C004C005C006C00781
:10B5C200900FE6E0FBA3E0FAA3E0F990000212700C
:10B5D200A6FDACF0EC126B4ED003D002D001D0002D
:10B5E200126919D003D002D001D000126828C00419
:10B5F200C005C006C007900FF9E0FCA3E0FDA3E080
:10B60200FEA3E0FF9010011272AFD007D006D00562
:10B61200D00412DCA1E4FBFA793478431269197B75
:10B62200D07A0F79497840126A22E4FBFA793478A9
:04B63200431268282F
:01B6360022F1
:1077630004613F800000046500000000046900001C
:107773000000046D000000000455000000000459DF
:0A77830000000000045D000000009B
:0DF58600AE05AD07AF06AB077FD402F0174E
:07F67200AD077FD412EE7D0D
:01F67900226E
:04EE43007B017D8052
:0DEE4700900FF0EDF0A3EBF0900FEFEFF067
:10EE540012F672AE07900FF1E0FFB40108900FF0C4
:10EE6400E04EFE800AEF7007900FF0E0F45EFE9033
:09EE74000FEFE0FFAD0602F58688
:0EF4F6007F0F12F672EFB46A037F01227F00CF
:01F5040022E4
:08F67A00EF4DFD7F1002F58643
:08F68200EF4DFD7F1102F5863A
:0BD7F100900FE6EBF0A3EAF0A3E9F0D4
:10D7FC0090100F7401F0A3740FF0A374E9F07B0C7C
:10D80C007D227FD412E292900FEAE0FE900FE9E0C5
:10D81C00FDEDFF900FE6E0FBA3E0FAA3E0F990002A
:10D82C0006EE8FF01270FD900FECE0FE900FEBE027
:10D83C00FDEDFF900008EE8FF01270FD900FEEE002
:10D84C00FE900FEDE0FDEDFF90000AEE8FF01270F0
:10D85C00FD900FF0E0FE900FEFE0FDEDFFEE8FF08E
:10D86C001270DE900FF2E0FE900FF1E0FDEDFF90F4
:10D87C000FE6E0FBA3E0FAA3E0F9900002EE8FF0D4
:10D88C001270FD900FF4E0FE900FF3E0FDEDFF90B1
:08D89C000004EE8FF00270FDA4
:10F4D6007B017D017F1212EE477F327E0002F31818
:09F63E007B017D047F1902EE47F7
:04DE7100AB07AA064B
:10DE7500AE04AF057C007D28127019900FECEFF011
:10DE8500AE02AF03AD07AC06EC126B4E7BDA7A0F30
:10DE950079497840126919E4FBFA79347843126AB2
:10DEA5002212BFD7E4FBFA79807842126919126B06
:10DEB50087900FEDEFF0900FECE0D394FF400374E3
:10DEC500FFF0900FEDE0D394FF400374FFF07DA0C9
:10DED5007F0112F586900FECE0FD7F5012F58690DC
:10DEE5000FEDE0FD7F5412F5867D207F5912F586F2
:10DEF500E4FD7F0112F5867F1912EE437B017D015A
:05DF05007F0B02EE4756
:10F106007B017D827F5812EE477B017D8C7F5912F1
:10F11600EE477D7F7F5A12F5867F5B12EE437B01B9
:07F126007D087F5E02EE4749
:10EAE100900FECEEF0A3EFF0A3EDF07D807F01122B
:10EAF100F5867D8E7F0F12F586900FECE0FEA3E088
:10EB0100FF7C007D50126FC4EF33333354F8FFA301
:10EB1100E054074FFD7F1412F586E4FD7F0112F5E5
:0AEB2100867B017D107F1902EE478C
:10F34B007F4B12F672900FE6EFF07F4C12F672EFD6
:08F35B00FE900FE6E0FDEDFF5E
:01F363002287
:10F364007B017D027F1912EE477F017E0012F318A4
:09F37400E4FB7D027F1902EE4763
:09F64700E4FB7D107F1902EE477F
:10E7AB00900FEAE4F0A374C8F07F327E0012F318E6
:10E7BB0012F4F6EF70167F01FE12F318900FEA7445
:10E7CB00FFF5F012704F45F070E6FF2212F4D67D84
:10E7DB00087F6012F67A7D04E4FF12F6827D647C7A
:10E7EB00007F0A7E0012DE7112F1067D067F107E1D
:09E7FB000412EAE112F63E7F016E
:01E8040022F1
:0B914F00900FE6EBF0A3EAF0A3E9F0BC
:10915A0012707BFDACF0EC126B4E78251272A39064
:10916A000FE6E0FBA3E0FAA3E0F99000021270A672
:10917A00FDACF0EC126B4E78291272A3900FE6E068
:10918A00FBA3E0FAA3E0F99000041270A6FDACF08C
:10919A00EC126B4E782D1272A3900FE6E0FBA3E05F
:1091AA00FAA3E0F99000061270A6FDACF0EC126B7F
:1091BA004E7B397AFA798E783C1269197B6F7A126A
:1091CA0079837842126A2278311272A3900FE6E00C
:1091DA00FBA3E0FAA3E0F99000081270A6FDACF038
:1091EA00EC126B4E7B397AFA798E783C1269197BCC
:1091FA006F7A1279837842126A2278351272A390B2
:10920A000FE6E0FBA3E0FAA3E0F990000A1270A6C9
:10921A00FDACF0EC126B4E7B397AFA798E783C12FF
:10922A0069197B6F7A1279837842126A2278391225
:10923A0072A37829127252A804A905AA06AB0712CA
:10924A006919C004C005C006C0077825127252A861
:10925A0004A905AA06AB07126919D003D002D001E6
:10926A00D000126828C004C005C006C007782D12B5
:10927A007252A804A905AA06AB07126919D003D02D
:10928A0002D001D00012682812DA068F138E128DCE
:10929A00118C107825127252AB13AA12A911A810B8
:1092AA00126A2278251272A37829127252AB13AA73
:1092BA0012A911A810126A2278291272A3782D1203
:1092CA007252AB13AA12A911A810126A22782D128F
:1092DA0072A37869127252786112727A126919C08D
:1092EA0004C005C006C007786D1272527865127202
:1092FA007A126919D003D002D001D000126824E48E
:10930A00FBFAF97840126919783D1272A3786D1246
:10931A007252786912727A126919C004C005C006BD
:10932A00C0077865127252786112727A126919D07E
:10933A0003D002D001D000126828E4FBFAF9784081
:10934A0012691978411272A37865127252786512FD
:10935A00727A126919C004C005C006C00778611282
:10936A007252786112727A126919D003D002D0014E
:10937A00D000126824C004C005C006C0077869126C
:10938A007252786912727A126919A804A905AA0692
:10939A00AB07D007D006D005D004126824C004C099
:1093AA0005C006C007786D127252786D12727A1271
:1093BA006919D003D002D001D0001268287845126A
:1093CA0072A37841127252782D12727A126919C0F8
:1093DA0004C005C006C00778451272527829127275
:1093EA007A126919D003D002D001D0001268247809
:1093FA00491272A37845127252782512727A12694A
:10940A0019C004C005C006C007783D127252782DF3
:10941A0012727A126919D003D002D001D0001268F0
:10942A0024784D1272A3783D127252782912727AF8
:10943A00126919C004C005C006C0077841127252E9
:10944A00782512727A126919D003D002D001D0009D
:10945A0012682478511272A3785512727AC000C029
:10946A0001C002C0037F6F7E127D837C3A78491265
:10947A00727A126919D003D002D001D0001268287A
:10948A0078551272A3785912727AC000C001C002CC
:10949A00C0037F6F7E127D837C3A784D12727A12F6
:1094AA006919D003D002D001D00012682878591265
:1094BA0072A3785D12727AC000C001C002C0037F35
:1094CA006F7E127D837C3A785112727A126919D0B2
:1094DA0003D002D001D000126828785D1272A37FEF
:1094EA00CD7ECC7D4C7C3F784912727A126919780C
:1094FA003112727A126828785512727A12682878AC
:10950A00311272A37FCD7ECC7D4C7C3F784D127296
:10951A007A126919783512727A1268287859127291
:10952A007A12682878351272A37FCD7ECC7D4C7C66
:10953A003F785112727A126919783912727A12685E
:10954A0028785D12727A12682878391272A37861C3
:10955A0012727AC000C001C002C00378651272524A
:10956A00126B38783112727A126919C004C005C0B8
:10957A0006C0077835127252786912727A1269191E
:10958A00A804A905AA06AB07D007D006D005D004BF
:10959A00126824C004C005C006C007783912725286
:1095AA00786D12727A126919A804A905AA06AB077E
:1095BA00D007D006D005D0041268247B6F7A1279BE
:1095CA0083783B126919D003D002D001D000126807
:1095DA002878611272A3786512727AC000C001C03D
:1095EA0002C0037839127252786912727A126919B2
:1095FA00C004C005C006C0077831127252786112E1
:10960A00727A126919D003D002D001D000126828E8
:10961A00C004C005C006C0077835127252786D12B0
:10962A00727A126919A804A905AA06AB07D007D04D
:10963A0006D005D0041268247B6F7A127983783BAE
:10964A00126919D003D002D001D0001268287865B7
:10965A001272A3786912727AC000C001C002C003F4
:10966A007839127252786512727A126919C004C076
:10967A0005C006C0077835127252786112727A12E2
:10968A006919D003D002D001D000126824C004C0E6
:10969A0005C006C0077831127252786D12727A12BA
:1096AA006919D003D002D001D0001268287B6F7AE2
:1096BA00127983783B126919D003D002D001D00005
:1096CA0012682878691272A3786D12727AC000C083
:1096DA0001C002C0037835127252786512727A128A
:1096EA006919C004C005C006C007783912725278D9
:1096FA006112727A126919D003D002D001D0001215
:10970A006828C004C005C006C007783112725278B2
:10971A006912727A126919A804A905AA06AB07D0B8
:10972A0007D006D005D0041268247B6F7A12798399
:10973A00783B126919D003D002D001D000126828F0
:10974A00786D1272A37865127252786512727A1263
:10975A006919C004C005C006C00778611272527840
:10976A006112727A126919D003D002D001D00012A4
:10977A006828C004C005C006C0077869127252780A
:10978A006912727A126919D003D002D001D000127C
:10979A006828C004C005C006C007786D127252A8B6
:1097AA0004A905AA06AB07126919D003D002D00191
:1097BA00D00012682812DA068F138E128D118C10BF
:1097CA007861127252AB13AA12A911A810126A2256
:1097DA0078611272A37865127252AB13AA12A91198
:1097EA00A810126A2278651272A37869127252ABB3
:1097FA0013AA12A911A810126A2278691272A37800
:10980A006D127252AB13AA12A911A810126A227809
:10981A006D1272A3786D127252786512727A126999
:10982A0019C004C005C006C007786912725278616F
:10983A0012727A126919D003D002D001D0001268CC
:10984A0024E4FBFAF9784012691912EDCE7BE17A29
:10985A002E79657842126919900FE6E0FBA3E0FAC7
:10986A00A3E0F990000C12722E786D127252786988
:10987A0012727A126919C004C005C006C007786559
:10988A00127252786112727A126919D003D002D018
:10989A0001D000126828E4FBFAF97840126919121B
:1098AA00EDCE7BE17A2E79657842126919900FE63E
:1098BA00E0FBA3E0FAA3E0F990001012722E78659B
:1098CA00127252A804A905AA06AB07126919C004A4
:1098DA00C005C006C0077861127252A804A905AA79
:1098EA0006AB07126919D003D002D001D000126862
:1098FA0028C004C005C006C0077869127252A804BD
:10990A00A905AA06AB07126919A804A905AA06ABF4
:10991A0007D007D006D005D004126824C004C005B9
:10992A00C006C007786D127252A804A905AA06AB30
:10993A0007126919A804A905AA06AB07D007D00619
:10994A00D005D004126824C004C005C006C0077838
:10995A006D127252786112727A126919C004C005C6
:10996A00C006C0077869127252786512727A126953
:10997A0019A804A905AA06AB07D007D006D005D0B6
:10998A0004126828E4FBFAF97840126919D003D066
:10999A0002D001D000126A2212CA9A7BE17A2E7989
:1099AA00657842126919900FE6E0FBA3E0FAA3E09A
:0799BA00F990001402722E67
:0A778D0043126A0000EF41121900D8
:07F6920075DE2F75BC8F220D
:10F2C800EF4480F5BC75BC400000E5BC30E5FB535D
:0AF2D800BCDFAFBDEFFEADBDEDFFE2
:01F2E2002209
:06F69F00EF24FF92C022DF
:0DF59300EF60044391802253917FC29722C4
:10D59C00900FEF1272BB00000000E4900FF3F0A3A9
:10D5AC00F0A3F0A3F07F0F12F2C87F0F12F2C8E4C1
:10D5BC00900FF3F0A3F0900FEFE0F8A3E0F9A3E0E5
:10D5CC00FAA3E0FB7F0F12F2C8EE3395E0FDFCEB03
:10D5DC002FFFEA3EFEE93DFDE83CFC900FEF127296
:10D5EC00AF900FF4E004F07006900FF3E004F0C37A
:10D5FC00900FF4E09440900FF3E06480948040B678
:10D60C00900FEFE0FCA3E0FDA3E0FEA3E0FF7806A3
:10D61C0012719D900FEF1272AF90126AE0FBA3E0B3
:10D62C00FAA3E0F912707BFFAEF0EE3395E0FDFC4F
:10D63C00E47BFF7A0FF9F812712A900FEFE0F8A350
:10D64C00E0F9A3E0FAA3E0FB12ED10900FF5EEF079
:10D65C00A3EFF0FDAC06EC126B4EE4FBFA797A7892
:04D66C0044126A22D8
:01D670002297
:10C10100900FE61272BB00000000E4900FEEF012F7
:10C11100D59C7B9A7A99795978C01268287B487A9C
:10C12100E1793A783F126A22900FEA1272AFE4FF86
:10C13100FE7D807C3F900FEAE0F8A3E0F9A3E0FAEE
:10C14100A3E0FB126ABF600E400C900FEA1272BBB3
:10C151003F8000008022E4FFFEFDFC900FEAE0F842
:10C16100A3E0F9A3E0FAA3E0FB126ABF500A900F23
:10C17100EA1272BB00000000901219E0703804F05E
:10C18100E4900FEEF0900FEEE0FBC3941450279073
:10C191000FEAE0FCA3E0FDA3E0FEA3E0FFEB25E056
:10C1A10025E0241AF582E43412F5831272AF900F60
:10C1B100EEE004F080CF900FEE7413F0900FEEE0FC
:10C1C100FBD394004057EB25E025E02416F582E4EB
:10C1D1003412F583E0FCA3E0FDA3E0FEA3E0FF90B1
:10C1E100121E1272AF900FE6E0FCA3E0FDA3E0FE89
:10C1F100A3E0FFEB25E025E0241AF582E43412F5F3
:10C2010083E0F8A3E0F9A3E0FAA3E0FB1268289029
:10C211000FE61272AF900FEEE014F0809F900FE6E0
:10C22100E0FCA3E0FDA3E0FEA3E0FFA3E0F8A3E0B0
:10C23100F9A3E0FAA3E0FB126828900FE61272AFAF
:10C24100E4FBFA79A07841900FE6E0FCA3E0FDA3BE
:10C25100E0FEA3E0FF126A22900FEA1272AF900F84
:10C26100EAE0FCA3E0FDA3E0FEA3E0FF90121A12B6
:10C2710072AF900FEAE0FCA3E0FDA3E0FEA3E0FFB4
:01C28100229A
:10001600900FE6E590F0E4F580F5907592307591D5
:10002600B0759601F59575B08475C099F5C8C2A9E5
:0B00360053AFFE53AFDF7587020000E0
:01004100229C
:10EFEC00AF90E4F580F5907592307591B075A001F5
:10EFFC00F596F59575B084F5C0F5C8C2A953AFFE6A
:0AF00C0053AFDF75870200008F90FC
:01F0160022D7
:0CF5B90012EFC0D2A943AF0143AF2022E3
:10F44F0043BA8090FE8074D0F090FE82E4F053BAFD
:02F45F007F220A
:10F1E700751E01751F2C90FE82E020E60DE51F15A8
:10F1F7001F7002151E14451E70EC90FE82E054BF6E
:02F20700F022F3
:08F4A500EDF0EBA3F043BA8087
:09F4AD0090FE817401F002F1E708
:10F20900900FEFE0FBA3E0FAA3E0F9A3E0F5827524
:09F219008300EF126FA212F5143C
:09F2220090FE817406F002F1E790
:0EF55C0090FE86EFF090FE817402F002F1E75F
:0FF5050090FE817404F012F1E790FE87E0FF2280
:09F6500090FE817403F002F1E761
:0EF56A0090FE82E4F090FE817405F002F1E75D
:0FF5140090FE827401F090FE817405F002F1E721
:10F01700900FF212F4A512000012F650900FF2E0D2
:10F02700FF12000012F650900FF3E0FF12000012DB
:09F03700F65012F22253BA7F22B6
:06EE7D00900FF2EFF0ED32
:10EE830012F4A8900FF2E0FF12000012F650900F58
:10EE9300F3E0FF12000012F65012F4AD900FF2E00F
:10EEA300FF12000012F65012000012F51412F222A3
:03EEB30053BA7FD0
:01EEB6002239
:0EE90700900FF2EDF0A3EBF0A3EAF0A3E9F01D
:10E91500E412F4A812000012F650E4900FF6F090FD
:10E925000FF2E0FF900FF6E0FEC39F5022900FF329
:10E93500E0FBA3E0FAA3E0F98E82758300126F3045
:10E94500FF12000012F650900FF6E004F080D0128E
:05E95500F22253BA7F1D
:01E95A00229A
:0DECCC00900FEEEDF0A3EBF0A3EAF0A3E94A
:10ECD90012F4A9EF04FF12000012F650E4900FF2AB
:10ECE900F0900FEEE014FF900FF2E0C39F500E1268
:10ECF900000012F209900FF2E004F080E412000023
:06ED090012F20953BA7F6B
:01ED0F0022E1
:06E2920090100CEFF0A358
:10E2980012F4A590100CE0FF12000012F650901036
:10E2A8000DE0FF12000012F65012F4AD90100CE0D1
:10E2B80004FF120000E4901012F090100EE014FF1A
:10E2C800901012E0C39F502412000090100FE0FB42
:10E2D800A3E0FAA3E0F9A3E0F582758300EF126FDB
:10E2E800A212F56A901012E004F080CE120000909D
:08E2F800100F12F20C53BA7F63
:01E3000022FA
:10779700607511A40A0532000000081E01010001EE
:1077A70042C2333300000000000000000000000068
:1077B70000003F8000003F80000000000000000044
:1077C70000000000000000000000000000000000B2
:1077D70000000000000000000000000000000000A2
:1077E7000000000000000000000000000000000092
:1077F7000000000000000000000000000000000082
:0978070000000000000000000078
:10EFC000E4F580F594F593F590F59275913075A080
:10EFD000B8759640F59575B034F5B2F5B175C018B1
:0CEFE000F5B4F5B375C830F5CAF5C922C8
:0DF5A000438904E4F58AF58CC28CD2A922BF
:10F4E60043D10275D54075D4A243D10843AF20223B
:10F37D00759850438E40538EFE53890F758BCC7507
:09F38D008DFFC2ABD28ED2992291
:10F42A00759A50438E0475D78F75D6FD438E104357
:03F43A00A8012204
:0CF5C500D288D2A8D28AD2AA438F10228A
:04000E0075C7602230
:0400560075C1272227
:04009E0043C1102228
:0BE21D00900FE6EBF0A3EAF0A3E9F09D
:10E22800E4FFA3F0A3F0900FE6E0FBA3E0FAA3E07D
:10E23800F98F82758300126F30FD900FEAE02DF0A0
:10E24800900FE9E03400F00FEFB473DA900FE9E0D3
:10E25800FEA3E0FF900FE6E0FBA3E0FAA3E0F9904D
:10E268000073EE8FF01270FD7F807E0112F15490E2
:10E278000FE6E0FBA3E0FAA3E0F9900FF0E4F0A3C7
:0AE288007475F07F807E0102EC4304
:0BD95300900FE6EBF0A3EAF0A3E9F070
:10D95E00E4A3F0A3F0A3F0900FF1F0A37475F07FA1
:10D96E00807E0112EBFE900FE9E0FFC39473502905
:10D97E00900FE6E0FBA3E0FAA3E0F98F8275830037
:10D98E00126F30FF900FEBE02FF0900FEAE03400B3
:10D99E00F0900FE9E004F080CD900FE6E0FBA3E0FD
:10D9AE00FAA3E0F99000731270A6FF900FEAE0B5AB
:10D9BE00F008A3E0B507037F0122E4900FE9F09091
:10D9CE000FE9E0FF7C007B0124A4F9EC3411FA127C
:10D9DE006F17FE900FE6E0FBA3E0FAA3E0F98F824B
:10D9EE00758300EE126FA2900FE9E004F0E0B475BB
:03D9FE00CE7F00D9
:01DA01002202
:08F68A00EF640124FF92B52298
:10ED540012EFC012F37D12F42A12F5A012F4E61297
:10ED6400F5C512F69212F44F1200567B017A0E7911
:10ED7400F112D95312EEF0900EF6E0FF12F6597F1D
:0EED84000112F68A7F057E0012F318D2AF222C
:0EF57800E4F5C7F5C5F5C675C3FF75C4FF22DF
:10EBFE00AD07AC06A2AF92D5C2AF75C78075C50181
:10EC0E00ECF5C3AF058FC475C65A75C6A500E5C22F
:10EC1E00126F900DBD00010C740129F9E43AFA90BF
:10EC2E000FF174FFF5F012704F45F070D312F578B6
:05EC3E00A2D592AF22F7
:10F15400AD07AC06A2AF92D5ECF5C3AF058FC4756D
:10F16400C78075C50375C65A75C6A50012F578E53E
:06F174008024FF92AF228F
:10EC4300AD07AC06A2AF92D5C2AF75C78075C5023A
:10EC5300ECF5C3AF058FC4126F17F5C275C65A75AD
:10EC6300C6A5000DBD00010C740129F9E43AFA9020
:10EC73000FF074FFF5F012704F45F070D312F57872
:05EC8300A2D592AF22B2
:0B781000C1214112DE004212DF000027
:10EEF00043BA8090FFF2E4F090FFF07417F0A3742F
:10EF000070F090FF647480F090FF60E4F0A3F0A3D1
:10EF1000740BF0A374B8F053BA7F43D12075D3407B
:09EF200075D2A243AF40C22122C8
:10F3D70043BA80EFB4010543FE80800553FE7FC228
:05F3E700A653BA7F22CD
:0300A30002DF0A6F
:10DF0A00C0E0C0F0C083C082C0D075D00853EFFB18
:10DF1A009012DEE0FE7019A3E07004A3E064C870FA
:10DF2A006D9012DFF0A3F0FF12F3D753D17F805E1A
:10DF3A00EE640170599012DFE0FEA3E0FFC394582B
:10DF4A00EE940250367C007D64126FC4ED4C702B47
:10DF5A009012DFE0FEA3E0FF7C007D64126FC4EF45
:10DF6A0054016401FF12F3D79012DFE0FEA3E0FF31
:10DF7A007C007D64126FC4EF1392A09012DFE0B4AC
:10DF8A00030CA3E0B4E8079012DFE4F0A3F0D0D0CA
:09DF9A00D082D083D0F0D0E03237
:10F3EC00E49012DEF0A3F0A3F03021087F0112F3B9
:05F3FC00D743D180227F
:0FF523009012DE7401F0E4A3F0A3F043D1802234
:09F65900EF6003D22122C221223C
:10F31800D3EF9400EE94004010007D207C28DCFEA2
:09F32800DDFCEF1F70EA1E80E716
:01F3310022B9
:10F40100D3EF9400EE9400400B7D06DDFEEF1F70FC
:04F41100EF1E80EC7E
:01F4150022D4
:108505000000000000000000002F00000000070030
:10851500070000147F147F1400242A7F2A120023E9
:108525001308646200364955225000000503000017
:1085350000001C224100000041221C000014083EDE
:1085450008140008083E0808000000A060000008A4
:1085550008080808000060600000002010080402F8
:10856500003E5149453E0000427F400000426151B6
:108575004946002141454B31001814127F10002750
:1085850045454539003C4A49493000017109050313
:1085950000364949493600064949291E0000363644
:1085A50000000000563600000008142241000014A7
:1085B5001414141400004122140800020151090684
:1085C50000324959513E007C1211127C007F494905
:1085D5004936003E41414122007F4141221C007F36
:1085E50049494941007F09090901003E4149497A44
:1085F500007F0808087F0000417F410000204041BE
:108605003F01007F08142241007F40404040007F29
:10861500020C027F007F0408107F003E4141413E6D
:10862500007F09090906003E4151215E007F0919B5
:1086350029460046494949310001017F0101003FB2
:108645004040403F001F2040201F003F4038403F32
:108655000063140814630007087008070061514996
:10866500454300007F41410000552A552A55000029
:1086750041417F00000402010204004040404040A7
:10868500000001020400002054545478007F48443F
:10869500443800384444442000384444487F003876
:1086A5005454541800087E0901020018A4A4A47C9F
:1086B500007F080404780000447D40000040808469
:1086C5007D00007F102844000000417F4000007CB1
:1086D50004180478007C08040478003844444438BD
:1086E50000FC242424180018242418FC007C080409
:1086F500040800485454542000043F444020003CE2
:108705004040207C001C2040201C003C4030403C68
:10871500004428102844001CA0A0A07C00446454F8
:108725004C4414141414141400000000000000003C
:108735000000000000000000000000000000000034
:1087450000000000000000000000000000F800002C
:108755000000000000333000000000100C06100C73
:108765000600000000000000000040C07840C0780E
:108775004000043F04043F040400007088FC0830F6
:108785000000001820FF211E0000F008F000E0188E
:10879500000000211C031E211E0000F00888700047
:1087A50000001E2123241927211010160E00000099
:1087B50000000000000000000000000000E01804B8
:1087C5000200000000071820400000020418E00025
:1087D50000000040201807000000404080F0804065
:1087E50040000202010F01020200000000F000003B
:1087F50000000101011F010101000000000000004F
:10880500000080B0700000000000000000000000C3
:10881500000000010101010101010000000000004C
:108825000000003030000000000000000000806003
:108835001804006018060100000000E01008081088
:10884500E000000F102020100F00001010F80000AD
:1088550000000020203F2020000000700808088844
:108865007000003028242221300000300888884814
:1088750030000018202020110E000000C02010F844
:10888500000000070424243F240000F80888880815
:1088950008000019212020110E0000E0108888181A
:1088A5000000000F112020110E0000380808C838FC
:1088B50008000000003F00000000007088080888DC
:1088C5007000001C222121221C0000E01008081065
:1088D500E0000000312222110F00000000C0C0009E
:1088E50000000000003030000000000000800000A3
:1088F50000000000806000000000000080402010A3
:10890500080000010204081020004040404040409B
:1089150040000404040404040400000810204080FE
:108925000000002010080402010000704808080833
:10893500F0000000003036010000C030C828E81003
:10894500E0000718272423140B000000C038E000BE
:108955000000203C23020227382008F88888887008
:108965000000203F202020110E00C0300808080814
:108975003800071820202010080008F808080810FB
:10898500E000203F202020100F0008F88888E80824
:108995001000203F20202320180008F88888E808C8
:1089A5001000203F200003000000C03008080838F0
:1089B500000007182020221E020008F80800000801
:1089C500F808203F210101213F20000808F8080888
:1089D50000000020203F2020000000000808F808C3
:1089E5000800C08080807F00000008F888C0281833
:1089F5000800203F20012638200008F80800000064
:108A05000000203F20202020300008F8F800F8F86A
:108A15000800203F003F003F200008F830C0000854
:108A2500F808203F200007183F00E010080808104C
:108A3500E0000F10202020100F0008F80808080893
:108A4500F000203F210101010000E0100808081096
:108A5500E0000F18242438504F0008F888888888CB
:108A65007000203F2000030C3020007088080808A3
:108A750038000038202121221C00180808F80808B1
:108A850018000000203F2000000008F8080000083A
:108A9500F808001F202020201F000878880000C843
:108AA5003808000007380E010000F80800F8000833
:108AB500F800033C0700073C03000818688080683D
:108AC500180820302C03032C30200838C800C8387B
:108AD50008000000203F2000000010080808C838E2
:108AE50008002038262120201800000000FE020280
:108AF50002000000007F40404000000C30C0000034
:108B05000000000000010638C00000020202FE005D
:108B15000000004040407F00000000000402020207
:108B2500040000000000000000000000000000003C
:108B35000000808080808080808000020204000028
:108B45000000000000000000000000008080808020
:108B550000000019242222223F2008F8008080000E
:108B65000000003F112020110E00000000808080D1
:108B75000000000E112020201100000000808088D8
:108B8500F800000E112020103F200000808080801A
:108B95000000001F222222221300008080F0888816
:108BA50088180020203F2020000000008080808061
:108BB5008000006B94949493600008F80080808096
:108BC5000000203F210000203F20008098980000F1
:108BD50000000020203F2020000000000080989821
:108BE500000000C08080807F000008F800008080C1
:108BF5008000203F24022D302000000808F80000E6
:108C050000000020203F20200000808080808080A0
:108C15008000203F20003F20003F80800080808032
:108C25000000203F210000203F2000008080808040
:108C35000000001F202020201F0080800080800071
:108C4500000080FFA12020110E0000000080808020
:108C55008000000E112020A0FF8080808000808091
:108C6500800020203F2120000100000080808080BE
:108C750080000033242424241900008080E08080B3
:108C850000000000001F2020000080800000008000
:108C95008000001F202020103F2080808000008061
:108CA500808000010E300806010080800080008071
:108CB50080800F300C030C300F0000808000808016
:108CC50080000020312E0E31200080808000008041
:108CD500808080818E7018060100008080808080F1
:108CE50080000021302C2221300000000000807C13
:108CF500020200000000003F404000000000FF00AD
:108D0500000000000000FF0000000002027C80005F
:108D150000000040403F0000000000060101020283
:108D2500040400000000000000000000E0F8FCFE64
:108D3500FEFEFEFEFCF8E0000000E0FFFFFFFF1F67
:108D45000301031FFFFFFFFFE000FFFFFFFFFF0021
:108D550000000000FFFFFFFFFF00FFFFFFFFFF0018
:108D650000000000FFFFFFFFFF0007FFFFFFFFF808
:108D7500C080C0F8FFFFFFFF07000000071F3F7F0F
:108D85007F7F7F7F3F1F070000000000000080C03D
:108D9500FCFCFCFCFC000000000000007F7F7F7FE6
:108DA500FFFFFFFFFF0000000000000000000000C3
:108DB500FFFFFFFFFF0000000000000000000000B3
:108DC500FFFFFFFFFF00000000000000C0C0C0C0A3
:108DD500FFFFFFFFFFC0C0C0C00000003F3F3F3F97
:108DE5003F3F3F3F3F3F3F3F3F0000F8F8FCFEFE5F
:108DF500FEFEFEFCFCF8E0000000001F0F07030369
:108E050003070FFFFFFFFFFF000000000000000049
:108E15000000E0FFFFFFFF1F00000000000000C092
:108E2500F8FEFFFF7F0F0100000000C0F0FCFFFF10
:108E3500FFDFC7C1C0C0C0C0C000003F3F3F3F3FCC
:108E45003F3F3F3F3F3F3F3F3F0000F8F8FCFEFEFE
:108E5500FEFEFEFEFCF8F0800000001F0F07030376
:108E6500030307FFFFFFFFFF000000000000F8F805
:108E7500F8FCFEFFFFBF0F01000000000000070720
:108E850007070F1FFFFFFFFEF000F8F0E0E0C0C08E
:108E9500C0C0E0F0FFFFFFFF3F001F1F3F3F7F7F88
:108EA5007F7F7F3F3F1F0F03000000000000000091
:108EB500C0F8FCFCFCFCFC00000000000000E0FC2D
:108EC500FF7FFFFFFFFFFF0000000080F0FFFF3F77
:108ED5000300FFFFFFFFFF000000FCFFFFFFF1F0B5
:108EE500F0F0FFFFFFFFFFF0F0F00F0F0F0F0F0F78
:108EF5000F0FFFFFFFFFFF0F0F0F00000000000027
:108F050000003F3F3F3F3F0000000000FCFCFCFC31
:108F1500FCFCFCFCFCFCFCFC00000000FFFFFFFF70
:108F2500FF0303030303030300000000FFFFFFFF2C
:108F3500FFFCFCFCFCF8F0C0000000000707030381
:108F45000303070FFFFFFFFFFE0000F8F0E0C0C0BE
:108F5500C0C0E0F8FFFFFFFF3F00001F3F3F7F7FDE
:108F65007F7F7F7F3F1F0F010000000080E0F0F84A
:108F7500FCFEFEFEFEFEFC00000000F8FFFFFFFF0A
:108F85000F030101010103000000FFFFFFFFFFF8D0
:108F9500FCFEFEFEFEFCF8E00000FFFFFFFFFF0306
:108FA50001010307FFFFFFFFFF0007FFFFFFFFF8BA
:108FB500C08080E0FFFFFFFF3F000000071F3F3F2D
:108FC5007F7F7F7F3F1F0F010000FCFCFCFCFCFC4A
:108FD500FCFCFCFCFCFCFCFCFC000303030303039E
:108FE5000303C3FFFFFFFFFF1F0000000000000099
:108FF500C0FCFFFFFFFF1F0100000000000080F81C
:10900500FFFFFFFF3F0300000000000000F8FFFF27
:10901500FFFF7F0300000000000000303F3F3F3F9F
:109025003F0700000000000000000000E0F8FCFC25
:10903500FEFEFEFEFCFCF8E0800000FFFFFFFFFFE8
:1090450003010103FFFFFFFFFF0000073FFFFFFFD5
:10905500FFFCF8FCFFFF1F070000E0FCFEFFFF0F11
:10906500070F1F3FFFFFFFFEF0007FFFFFFFFFE041
:10907500C08080E0FFFFFFFF7F0000070F1F3F7FDD
:109085007F7F7F7F3F1F0F0300000080E0F8FCFE1D
:10909500FEFEFEFEFCF8E0800000F8FFFFFFFF0F7C
:1090A5000101030FFFFFFFFFF000FFFFFFFFFFE0E0
:1090B500C08080C0FFFFFFFFFF0000071F3F7F7FCD
:1090C5007F7F3F1FFFFFFFFF7F000000C080808084
:1090D50080C0F0FFFFFFFF1F000000007F7F7F7F44
:1090E5007F7F3F1F0F070000000000000000000009
:1090F500000000000000000000000000000000FF6C
:10910500FFFFFFFF00000000000000000000000F4F
:109115000F0F0F0F0000000000000000000000E02E
:10912500E0E0E0E00000000000000000000000FFBB
:10913500FFFFFFFF0000000000000000000000012D
:0A914500010101010000000000001C
:10781B0064000008000000000000000000000000F1
:10782B00000000000000000000000000000000004D
:10783B00000000000000000000000000000000003D
:10784B00000000000000000000000000000000002D
:10785B00000000000000000000000000000000001D
:107C1B0000000000640004080000000000000000E9
:107C2B000000000000000000000000000000000049
:107C3B000000000000000000000000000000000039
:107C4B000000000000000000000000000000000029
:107C5B000000000000000000000000000000000019
:10801B0000000000000000006400080800000000E1
:10802B000000000000000000000000000000000045
:10803B000000000000000000000000000000000035
:10804B000000000000000000000000000000000025
:10805B000000000000000000000000000000000015
:10841B000000000000000000000000004800000BFE
:07842B000B0B0B0B0B0B0BFD
:10E95B00900FE6EBF0A3EAF0A3E9F012DC00900FC6
:10E96B00E6E0FBA3E0FAA3E0F9900002126F30FFA0
:10E97B0012F5DC900FE6E0FBA3E0FAA3E0F99000C0
:10E98B0004126F30FF12F396900FE6E0FBA3E0FA50
:10E99B00A3E0F9900003126F30FF12F6A87F01027B
:02E9AB00F6195B
:0BBA2700900FE6EFF0A3EDF0A3EBF0B2
:10BA3200A3E0131313541F751200F513900FF0E0D7
:10BA4200600302BADAF510AF107E00C3EF9513EE71
:10BA52009512400302BB7D900FE7E02FFFEE33FE0D
:10BA6200EF7807C333CE33CED8F9FF900FE6E07CF0
:10BA7200002FF515EC3EF514900FE8E0FFE5108F6E
:10BA8200F0A485F016F517E4F511900FE8E0FFE554
:10BA920011C39F503EAF117E00E5172FFDEE351604
:10BAA200FC900FEAE0FBA3E0FAA3E0F98D828C831D
:10BAB200126F30FDE5152FFFEE3514FE900FEDE00D
:10BAC200FBA3E0FAA3E0F98F828E83ED126FA20549
:10BAD2001180B7051002BA49E4F510AF107E00C319
:10BAE200EF9513EE9512400302BB7D900FE7E02F16
:10BAF200FFEE33FEEF7807C333CE33CED8F9FF9093
:10BB02000FE6E07C002FF515EC3EF514900FE8E00F
:10BB1200FFE5108FF0A485F016F517E4F511900FEC
:10BB2200E8E0FFE511C39F504DAF117E00E5152FF0
:10BB3200FDEE3514FC900FEDE0FBA3E0FAA3E02D3F
:10BB4200F9EA3CFAC003C002C001126F17FDE51703
:10BB52002FFFEE3516FE900FEAE0FBA3E0FAA3E01A
:10BB6200F98F828E83126F304DD001D002D0031232
:10BB72006F90051180A8051002BADDE4F510AF1030
:10BB82007E00C3EF9513EE9512400302BC11900F95
:10BB9200E7E02FFFEE33FEEF7807C333CE33CED884
:10BBA200F9FF900FE6E07C002FF515EC3EF51490BE
:10BBB2000FE8E0FFE5108FF0A485F016F517E4F525
:10BBC20011900FE8E0FFE511C39F503EAF117E00D8
:10BBD200E5172FFDEE3516FC900FEAE0FBA3E0FA25
:10BBE200A3E0F98D828C83126F30FDE5152FFFEEF5
:10BBF2003514FE900FEDE0FBA3E0FAA3E0F98F828B
:0FBC02008E83ED126FA2051180B7051002BB8073
:01BC11002210
:06ED92007B017A087908FC
:0BED9800900FF5EBF0A3EAF0A3E9F008
:10EDA300E4F51AF51B900FF5E0FBA3E0FAA3E0F9F5
:10EDB300851B82851A83E4126FA2051BE51B700273
:0AEDC300051AB400E0E51AB404DB01
:01EDCD002223
:0BE0AF00900FE6EFF0A3EDF0A3EBF004
:10E0BA00A3E0131313541F751200F513E4F510AF00
:10E0CA00107E00C3EF9513EE95125055900FE7E0BE
:10E0DA002FFFEE33FEEF7807C333CE33CED8F9FFE6
:10E0EA00900FE6E07C002FF515EC3EF514E4F511EF
:10E0FA00900FE8E0FFE511C39F50227E00E5152549
:10E10A0011FFEE3514FE900FEAE0FBA3E0FAA3E05C
:10E11A00F98F828E83E4126FA2051180D3051080D5
:01E12A009E56
:01E12B0022D1
:10EF6000E4F510F51174082511F58274003510F5DB
:10EF700083E0FF74082511F58274043510F583EFE2
:10EF8000F00511E51170020510B400D9E510B404C4
:01EF9000D4AC
:01EF9100225D
:03F6A50002EA97DF
:0AE63700900FF5EFF0900FF7EBF0F5
:10E64100AF058F1A900FF8E0FFE51AC39F5047906E
:10E651000FF5E0FFAD1A12F28CE51A75F080A48572
:10E66100F01CF51DE4F51B900FF7E0FFE51BC39FC0
:10E6710050207E00E51D251BFFEE351CFE74082F82
:10E68100F58274003EF583E0FF7D0112F308051B5E
:06E6910080D5051A80AEE1
:01E697002260
:0E9E4400900FE6EBF0A3EAF0A3E9F0A3EDF037
:109E52006003029F56F510E4F511E51175F080A438
:109E620085F014F5152480F517E43514F5168514DC
:109E720012851513C3E5139517E5129516503E7416
:109E8200882513F58274003512F583E0C433335408
:109E9200C0FF74082513F58274003512F583E013B0
:109EA20013543F4FFF74082513F58274003512F5E1
:109EB20083EFF00513E51370BB051280B70511E5BA
:109EC20011B40796E5101313543F75F080A485F082
:109ED20014F515E510540375F002A4FFAEF0C37437
:109EE200069FF517E49EF516E4F5117E00E51525AB
:109EF20011FFEE3514FE900FE6E0FBA3E0FAA3E0BB
:109F0200F98F828E83126F30FFAE17A80608800287
:109F1200C333D8FC54C0FF74882511F582E434039E
:109F2200F583E0FE1313543F4FFF74882511F58229
:109F3200E43403F583EFF00511E511B480AD7B0144
:109F42007A00790812EA970510E510C394205003AD
:109F5200029E5922900FE9E06401600302A07DF5A0
:109F620010E4F511C374079511FFE49400FEEF7835
:109F720007C333CE33CED8F9F5158E142480F517E6
:109F8200E43514F516851412851513C3E5139517D8
:109F9200E5129516503E74082513F58274003512A9
:109FA200F583E025E025E0FF74882513F58274FF30
:109FB2003512F583E0C4131354034FFF74082513BD
:109FC200F58274003512F583EFF00513E51370BBCB
:109FD200051280B70511E51164077088E5101313A7
:109FE200543FFFC374079FFFE49400FEEF7807C35A
:109FF20033CE33CED8F9F5158E14E510540375F02F
:10A0020002A4FFAEF0C374069FF517E49EF516E4B2
:10A01200F5117E00E5152511FFEE3514FE900FE6D1
:10A02200E0FBA3E0FAA3E0F98F828E83126F30FF88
:10A03200AE17A806088002C313D8FC5403FF7408A5
:10A042002511F582E43400F583E0FE25E025E04F9A
:10A05200FF74082511F582E43400F583EFF0051151
:10A06200E511B480AD7B017A00790812EA970510F8
:10A07200E510C394205003029F6322900FE9E0642D
:10A0820002600302A162F510E4F511E51175F0809A
:10A09200A485F014F515247EF517E43514F516851C
:10A0A2001412851513C3E5139517E512951650265C
:10A0B200740A2513F58274003512F583E0FF7408E3
:10A0C2002513F58274003512F583EFF00513E513BD
:10A0D20070D3051280CF900FE6E0FBA3E0FAA3E075
:10A0E200F975F002E510A42515F582E5F03514F5B1
:10A0F20083126F30FF74082517F58274003516F548
:10A1020083EFF0E5152401FFE43514FE75F002E556
:10A1120010A42FF582E5F03EF583C083C082900F34
:10A12200E6E0FBA3E0FAA3E0F9D082D083126F301D
:10A13200FF74092517F58274003516F583EFF005D3
:10A1420011E5116408600302A08D7B017A00790891
:10A1520012EA970510E510C39440500302A08A2228
:10A16200900FE9E06403600302A240F510E4F511E8
:10A17200E51175F080A485F014F515247FF517E438
:10A182003514F516F512851713D3E5139515E51257
:10A192009514402674062513F58274003512F58352
:10A1A200E0FF74082513F58274003512F583EFF091
:10A1B200E513151370D3151280CFE51075F002A4C4
:10A1C200FFE515247FCDE43514CDC39FFFED95F057
:10A1D200FE900FE6E0FBA3E0FAA3E0F98F828E8304
:10A1E200126F30FF74092515F58274003514F5835A
:10A1F200EFF0E51075F002A4FFE515247ECDE435FD
:10A2020014CDC39FFFED95F08F82F583126F30FF5F
:10A2120074082515F58274003514F583EFF00511E5
:10A22200E5116408600302A1727B017A00790812C9
:0EA23200EA970510E510C39440500302A16F97
:01A2400022FB
:0EC82600900FE6EBF0A3EAF0A3E9F0A3EDF02B
:10C83400E4F510900FE9E0FFE510C39F400302C93F
:10C8440050E4F511C374079511FFE49400FEEF78EA
:10C8540007C333CE33CED8F9F5158E142480F517DB
:10C86400E43514F516851412851513C3E5139517CD
:10C87400E5129516503D74082513F582740035129F
:10C88400F583E025E0FF74882513F58274FF3512E3
:10C89400F583E0C413131354014FFF74082513F5F3
:10C8A4008274003512F583EFF00513E51370BC05AF
:10C8B4001280B80511E51164077089E5101313138C
:10C8C400541FFFC374079FFFE49400FEEF7807C36F
:10C8D40033CE33CED8F9F5158E14E5105407FFC3C3
:10C8E40074079FF517E49400F516E4F5117E00E54E
:10C8F400152511FFEE3514FE900FE6E0FBA3E0FAD8
:10C90400A3E0F98F828E83126F30FFAE17A806085A
:10C914008002C313D8FC5401FF74082511F582E486
:10C924003400F583E0FE25E04FFF74082511F582FD
:10C93400E43400F583EFF00511E511B480AF7B0119
:0CC944007A00790812EA97051002C83743
:01C9500022C4
:0AF61900EF600302F46112F5AD2268
:0BF5DC00EFD394FF40027FFF02F532E6
:10F39600EF60097F0112F4727F018007E4FF12F427
:07F3A60072E4FF12F4832260
:03F6A80002F494D5
:10AF3B00EF75F00A84900FF0F0EF75F00A84A3E53B
:10AF4B00F0F0A3740AF0ED75F00A84A3F0ED75F040
:10AF5B000A84A3E5F0F0A3740AF0EB75F00A84A35E
:10AF6B00F0EB75F00A84A3E5F0F0900FE67407F0B0
:10AF7B00900FE6E0FFC364809480500302B1A4EF0E
:10AF8B003395E0FE74002FF58274003EF583E0FDEF
:10AF9B0074F02FF582740F3EF583E06D700302B1F0
:10AFAB007AE4900FE7F0E4FBEB2401FFE433FEEFD0
:10AFBB007807C333CE33CED8F9FDAC06900FE6E05D
:10AFCB00FF3395E0FEEFC4F8540FC868FFEEC4548E
:10AFDB00F048FEED2FFFEC3E900FEAF0A3EFF09060
:10AFEB000FEAE0FCA3E0FD2410FEE43CA3F0A3CEAB
:10AFFB00F0900FE8ECF0A3EDF0900FECE0FEA3E087
:10B00B00FF900FE8E0FCA3E0FDC39FEC9E504C7457
:10B01B00882DF58274003CF583E0FE74082DF582D3
:10B02B0074003CF583E0FDEDFF900FEEEEF0A3EF27
:10B03B00F0900FEEE0C313A3E013FF900FE8A3E033
:10B04B002408F58274003CF583EFF0900FE9E004DF
:10B05B00F07006900FE8E004F0809E0BEB64056047
:10B06B000302AFB3EB2401FFE433FEEF7807C333E6
:10B07B00CE33CED8F9FDAC06900FE6E0FF3395E06A
:10B08B00FEEFC4F8540FC868FFEEC454F048FEED51
:10B09B002FFFEC3E900FEAF0A3EFF0900FE7E0FDEF
:10B0AB00131313541F75F010A4FF900FECE5F0F081
