:10D7360041543A5354520D0A0041543A4F4B00415A
:10D74600543A454E440D0A0041543A454E44004170
:10D75600543A424155443D25640D0A004F4B2B5324
:10D7660065740041543A414456543D25640D0A00FF
:10D776006164765F74696D653A000D0A00436861FD
:10D786006E676564204E616D6520746F3A00415482
:10D796003A525353493F0D0A00525353493A0041F6
:10D7A600542B524553540D0A004D7920626C756511
:10D7B600746F6F7468000000000000000000000035
:10D7C6000000000000000000000000000000000053
:10D7D600000041543A4E414D453D00000000000016
:0ED7E600000000000000000000000000000035
:0876B400C11F4111A300C12018
:10005E0090100FEBF0A3EAF0A3E9F090100FE0FB85
:10006E00A3E0FAA3E0F9126F14601C201FFDD21F4B
:10007E0090100FE0FBA3E475F001127062A9F0FA84
:0D008E00126F14F59B80D4E49011A3F022B2
:0300430002E12FA8
:10E12F00C0E0C083C082C0D075D008E59A30E10549
:10E13F00539AFDC21FE59A30E057539AFE9011A3F0
:10E14F00E0FF04F074232FF582E43411F583E59B8F
:10E15F00F09011A3E0FF2422F582E43411F583E05F
:10E16F00B40A2E74212FF582E43411F583E0901157
:10E17F00A3B40D0AE02421F582E434118008E024D1
:10E18F0022F582E43411F583E4F0D2209011A3E458
:0AE19F00F0D0D0D082D083D0E0325F
:10EF2C00900FE6EBF0A3EAF0A3E9F030201DC2202D
:10EF3C00900FE6E0FBA3E0FAA3E0F8AC02AD037B94
:0EEF4C00017A1179231274077F01227F0022BF
:06E295007B017D057C0009
:10E29B00901009ECF0A3EDF0901006EBF0A3EAF070
:10E2AB00A3E9F0C220801E20202790100974FFF5EF
:10E2BB00F012704C45F07002FF22901006E0FBA3A9
:10E2CB00E0FAA3E0F912005E7F0A7E0012F297805B
:10E2DB00D6C22090100EE0FF7E0078237C117D01CA
:10E2EB0090100BE0FBA3E0FAA3E0F91275AAEF7014
:07E2FB00037F01227F0022D6
:10EF850090100B74FFF0A374D7F0A3743FF0A37433
:10EF950005F07BFF7AD779367D147C0012E29BEF72
:08EFA50060037F01227F0022BE
:10EFAD0090100B74FFF0A374D7F0A3744EF0A374FC
:10EFBD0006F07BFF7AD779457D147C0012E29BEF3A
:08EFCD0060037F01227F002296
:05E62C00900FE7EFF084
:10E6310078E87C0F7D017BFF7AD779BC7E007F0C67
:10E64100126EEE90101C74FFF0A374D7F0A37455F2
:10E65100F0900FE7E0FF90101FE4F0A3EFF07B01D3
:10E661007A0F79E8129A2390100B74FFF0A374D7F4
:10E67100F0A37462F0A37406F07A0F79E812E295C0
:08E68100EF60037F01227F001E
:01E68900226E
:08E4A500900FE7EEF0A3EFF089
:10E4AD0078E97C0F7D017BFF7AD779C87E007F10DC
:10E4BD00126EEE90101C74FFF0A374D7F0A3746964
:10E4CD00F0900FE7E0FFA3E090101FCFF0A3EFF067
:10E4DD007B017A0F79E9129A2390100B74FFF0A348
:10E4ED0074D7F0A37476F0A37409F07A0F79E9125A
:0AE4FD00E295EF60037F01227F002B
:01E5070022F1
:0BE1A900900FE7EBF0A3EAF0A3E9F011
:10E1B40078EA7C0F7D017BFF7AD779D87E007F1CBB
:10E1C400126EEE900FE7E0F9A3E0FAA3E0901009D5
:10E1D400C9F0A3EAF0A3E9F07B017A0F79EA12E32C
:10E1E4006E90100974FFF0A374D7F0A37480F07BD1
:10E1F400017A0F79EA12E36E90100B74FFF0A374A6
:10E20400D7F0A37483F0A37410F07B017A0F79EA3A
:0BE2140012E297EF60037F01227F0001
:01E21F0022DC
:10EFFD0090100B74FFF0A374D7F0A3749FF0A3745B
:10F00D0005F07BFF7AD77994FD7C0012E29BEF60CF
:07F01D00037F01227F0022A6
:09F59E007BFF7AD779A502005E1B
:0AF56200EFB40103C29622D29622F4
:10D4C800E4900FE6F0C2967F32FE12F2977B017A63
:10D4D80000790812ECD912EF85900FE6E0FD900F65
:10D4E800EF7401F0A37400F0A37408F0A37410F0B3
:10D4F800E4A3F0A3F07B017A117923FF12A97690B7
:10D508000FE6E02FF012EFFDEF900FE6605CE0FD14
:10D51800900FEF7401F0A37400F0A37408F0A374E3
:10D5280010F0E4A3F0A3F07B017A117923FF12A98C
:10D5380076900FE6E02FF012EFAD900FE6E0FD9049
:10D548000FEF7401F0A37400F0A37408F0A3741033
:10D55800F0E4A3F0A304F0FB7A117923E4FF12A905
:10D5680076900FE6E02FF07F0122E0FD900FEF7438
:10D5780001F0A37400F0A37408F0A37410F0E4A3FE
:10D58800F0A304F0FB7A117923E4FF12A976900F37
:06D59800E6E02FF07F0029
:01D59E00226A
:10CB8D00E4900FE6F0D296C2967F64FE12F29712F1
:10CB9D00EF85EF602F900FE6E0FD900FEF7401F041
:10CBAD00A37400F0A37408F0A37410F0E4A3F0A331
:10CBBD0004F0FB7A117923E4FF12A976900FE6E0D9
:10CBCD002FF080037F00227F0112E62C900FE6E00C
:10CBDD00FD900FEF7401F0A37400F0A37408F0A39F
:10CBED007410F0E4A3F0A304F0FB7A117923E4FFB1
:10CBFD0012A976900FE6E02FF07BFF7AD779AF126E
:10CC0D00E1A9900FE6E0FD900FEF7401F0A3740021
:10CC1D00F0A37408F0A37410F0E4A3F0A304F0FBE8
:10CC2D007A117923E4FF12A976900FE6E02FF07FB9
:10CC3D00B87E0B12E4A5900FE6E0FD900FEF7401A6
:10CC4D00F0A37400F0A37408F0A37410F0E4A3F043
:10CC5D00A304F0FB7A117923E4FF12A976900FE675
:10CC6D00E02FF012EFADEF602F900FE6E0FD900F8B
:10CC7D00EF7401F0A37400F0A37408F0A37410F026
:10CC8D00E4A3F0A304F0FB7A117923E4FF12A97653
:0FCC9D00900FE6E02FF080037F0022D2967F01F8
:01CCAC002265
:10F2B100D3EF9400EE9400400F7D187C55DCFEDD09
:08F2C100FCEF1F70EB1E80E85A
:01F2C9002222
:0AF27D0012F2877F0212F2877F1061
:10F28700ED6004D2938002C293C2C38F80D2C3229F
:10F1D200AE07ED24B0FFE4FD12F287EE54F0C45402
:0EF1E2000F4410FF12F287EE540FFF02F28767
:10F3E100E4FD7F8D12F2877F1412F2877FAF02F264
:01F3F1008794
:0CF51C00E4FD7F8D12F2827FAE02F287C8
:0EF4A100AE07E4FD7F8112F287AF0602F2870C
:10F3F200EF6006E4FD7FA08004E4FD7FA112F287A6
:01F4020022E7
:10F40300EF6006E4FD7FC08004E4FD7FC812F2874D
:01F4130022D6
:10F41400EF6006E4FD7FA78004E4FD7FA612F28777
:01F4240022C5
:10F1B300E4FEEE24B0FFE4FD12F27DE4FC7D01E405
:0EF1C300FF12F2870CECB480F40EEEB408E4F8
:01F1D100221B
:10E9D700E4F537E53724B0FFE4FD12F282E4FF12D5
:10E9E700F287E53775F080A485F039F53AE4F53814
:10E9F7007E00E53A2538FFEE35398F82F583126FB1
:10EA07002DFF7D0112F2870538E538C3948040E079
:09EA17000537E537C3940840BA45
:01EA200022D3
:10DC0300D2927F147E0012F2B1C2927F0A7E00127A
:10DC1300F2B1D292D2C4E4FD7FAE12F27D7F401204
:10DC2300F2877F8112F2877F7F12F2877FC812F219
:10DC3300877FA112F2877FA812F2877F3F12F287B4
:10DC43007FD312F287E4FF12F2877FD512F2877F28
:10DC53008012F2877FD912F2877FF112F2877FDA7F
:10DC630012F2877F1212F2877FDB12F2877F401254
:10DC7300F2877F2012F2877F0212F2877F8D12F2E2
:10DC8300877F1412F2877FA412F2877FA612F2878E
:10DC93007FAF12F28712F28712F1B3E4FDFF02F1B4
:01DCA300D2AE
:1076BC004212AB00004212AE00004212B000404237
:1076CC0012B290884212B500004212B7000042126A
:1076DC00A500004112A4004112BA004112B40841A5
:0776EC0012B9084112A300CE
:06E6E500FFEEF0A3EFF0D0
:10E6EB009012ABE0FCA3E0FDEC900FEAF0A3EDF091
:10E6FB009012AEE0FCA3E0FDEC900FECF0A3EDF07C
:10E70B009012B0E0FCA3E0FDEC900FEEF0A3EDF067
:10E71B009012B2E0FCA3E0FDEC900FF0F0A3EDF053
:10E72B0043BA107B017A0F79EA7D087F2012EC94B3
:03E73B0053BAEFDF
:01E73E0022B8
:10E5080043BA107B017A0F79EA7D047F2012EECCA2
:10E5180053BAEF900FEAE0FF9012B5E4F0A3EFF0E2
:10E52800E07F00FE9012B5F0A3EFF0900FEBE0FD56
:10E53800EDFF9012B5EEF0A3EFF0900FECE0FF9036
:10E5480012B7E4F0A3EFF0E07F00FE9012B7F0A35B
:10E55800EFF0900FEDE0FDEDFF9012B7EEF0A3EFB6
:01E56800F0C2
:01E56900228F
:10E3D9009012ACE04402F012E6EB7F0A7E0012F2E2
:10E3E900979012AB74D0F0A3E4F09012A4E075F00A
:10E3F90004A4FDACF0A3E0FEA3E07806C333CE335A
:10E40900CED8F9FFEE4CFEEF4DFF9012BAE0FDEFCA
:10E419004DFF9012AEEEF0A3EFF0E4A3F0A3F0905D
:10E4290012B4E04480FE9012B9E0FD74804D901260
:07E43900B212E6E57F0122AB
:10EFD500AD07AC06D3ED940FEC940040047C007DA6
:10EFE5000F9012B3E054F0F0ED540FFF9012B2E021
:08EFF500F0A3E04FF002E6EB8F
:02DAB100AD07BF
:10DAB3009012A3E070309012AFE054EFF0EF9012A9
:10DAC300ABB40109E04402F0A3E0F08004E054FDAC
:10DAD300F09012ABE04401F0A3E0F012E6EB9012F9
:10DAE300A3E004F0806D9012A3E06401706512E579
:10DAF300089012B5E030E65B9012ABE054FEF09074
:10DB030012B5E05403FEA3E0FF9012A5EEF0A3EFDD
:10DB1300F0FDAC06E4126B4B7BCD7ACC79CC783D2F
:10DB2300126916E4FBFA79AE78421268259012A7BF
:10DB33001272AC9012B7E0C313543F9012ADF0E4ED
:10DB43009012A3F09012A7E0FCA3E0FDA3E0FEA3D4
:08DB5300E0FF22E4FFFEFDFCEF
:01DB5B0022A7
:10D8A700900FE61272AC9012ABE054FEF09012AFFC
:10D8B700E04410F0E4FFFE7D207C41900FE6E0F8A5
:10D8C700A3E0F9A3E0FAA3E0FB1269167B007A80D4
:10D8D700795978C4126825126B849012A5EEF0A3CB
:10D8E700EFF07E009012AFE0543FFF9012AEEEF0E3
:10D8F700FCA3EFF0FD9012A5E0FEA3E07806C3338A
:10D90700CE33CED8F9FFEC4EFEED4F9012AE12E6B5
:10D91700E5800F9012B5E0A320E60C7F037E00128E
:10D92700F29712E50880EC9012AFE054EFF0900FF9
:10D93700E6E0FCA3E0FDA3E0FEA3E0FF9012A71240
:0FD9470072AC9012B7E0C313543F9012ADF022B0
:10EAB20012E5089012B5E05403FEA3E0FF9012A500
:10EAC200EEF0A3EFF0FDAC06E4126B4B7BCD7ACCFB
:10EAD20079CC783D126916E4FBFA79AE7842126875
:10EAE200259012A71272AC9012A7E0FCA3E0FDA33E
:06EAF200E0FEA3E0FF229C
:10EDBE0012E5089012B7E0C313543F9012ADF090D5
:10EDCE0012A5E0FCA3E0FDE4126B4B7BCD7ACC796F
:10EDDE00CC783D126916E4FBFA79AE7842126825BA
:09EDEE00126B849012ADEFF022CB
:0AF56C009012ABE054BFF002E6EB92
:0AF576009012ACE04401F002E6EB55
:0AF580009012ACE054FEF002E6EB3E
:08F32C0075F00A84E5F04EFDC6
:0DF33400AE05AD07AF06AB077FA202F35692
:07000300AD077FA212F20E0F
:01000A0022D3
:04ED4A007B017D804C
:0DED4E00900FEFEDF0A3EBF0900FEEEFF063
:10ED5B00120003AE07900FF0E0FFB40108900FEF25
:10ED6B00E04EFE800AEF7007900FEFE0F45EFE902E
:09ED7B000FEEE0FFAD0602F334D7
:0BD10300900FE6EBF0A3EAF0A3E9F0C8
:10D10E0090100F7401F0A3740FF0A374E9F07B0775
:10D11E007D027FA212EC0C900FE9E0547FF0E0FF4D
:10D12E00C4540F75F00AA4FEEF540F2EFF900FE6B5
:10D13E00E0FBA3E0FAA3E0F9EF126F8D900FEAE0A7
:10D14E00547FF0E0FFC4540F75F00AA4FEEF540FA5
:10D15E002EFF900FE6E0FBA3E0FAA3E0F9900001AA
:10D16E00EF126F9F900FEBE0543FF0E0FFC4540FAF
:10D17E0075F00AA4FEEF540F2E900002126F9F90CE
:10D18E000FECE0543FF0E0FFC4540F75F00AA4FE1C
:10D19E00EF540F2E900004126F9F900FEDE0540786
:10D1AE00F070037407F0900FEDE0FF900FE6E0FBD8
:10D1BE00A3E0FAA3E0F9900003EF126F9F900FEE39
:10D1CE00E0FF30E0089000087401126F5AEF541F10
:10D1DE00900FEEF0E0FFC4540F75F00AA4FEEF546A
:10D1EE000F2E900005126F9F900FEFE024D0FFE4FA
:0AD1FE0034079000068FF00270FA6B
:10E93D00900FE6EFF0A3EDF0EB75F00A84C454F000
:10E94D00FFEB75F00A84E5F04FFD7F0212F3349072
:10E95D000FE7E0FF75F00A84C454F0FEEF7F031259
:10E96D00F32C900FE6E0FF75F00A84C454F0FEEF2F
:0DE97D0075F00A84E5F04EFD7F0402F334CE
:10E44000900FE6EEF0A3EFF0A3EDF0A3EBF0900F4A
:10E45000E7E02430F0900FE6E034F8F0A3E0FD7F31
:10E460000812F334900FE8E0FF75F00A84C454F00A
:10E47000FEEF7F0712F32C900FE9E0FF75F00A849E
:10E48000C454F0FEEF75F00A84E5F04EFD7F0512EE
:10E49000F334900FEAE0B40702E4F0900FEAE0FDF5
:05E4A0007F0602F334C9
:02D67400AE0501
:10D67600E4900FEBF0A3F0A3F0EF75F00A84C45426
:10D68600F04480FDEF75F00A84E5F04DFDEE75F08F
:10D696000A84C454F04480FFEE75F00A84E5F04F26
:10D6A600900FEBF0EB4480A3F0900FE9E0FF75F0EC
:10D6B6000A84C454F04480FEEF75F00A84E5F04E07
:10D6C600900FEDF0900FEAE0FF64026004EFB40102
:10D6D60009ED547FFD900FEB8026900FEAE0FEB433
:10D6E600030CED547FFDA3E0547FF0A38012EEB44B
:10D6F6000412ED547FFD900FEBE0547FF0900FED98
:10D70600E0547FF07F0A12F334900FEBE0FD7F09BF
:10D7160012F334900FECE0FD7F0C12F334900FED12
:10D72600E0FD7F0B12F3347B017D027F0102ED4E9B
:09F5A700E4FB7D087F0102ED4E3A
:10F0BF007F0A12ED4A7F0912ED4A7B017D807F0C9A
:10F0CF0012ED4E7B017D807F0B12ED4EE4FB7D0830
:05F0DF007F0102ED4E6F
:10EE3000900FE6EFF0A3EDF0E4FB7D807F0E12ED86
:10EE40004E900FE6E0FD7F0E12F334900FE7E0FDE9
:10EE50007F0F12F3347B017D017F0112ED4E7B01A8
:07EE60007D807F0E02ED4EE4
:09F5B000E4FB7D047F0102ED4E35
:10F3BD00E4FB7D017F0112ED4EE4FB7D807F0E02AB
:02F3CD00ED4E03
:09F58A007F01120003EF540CFF95
:01F593002255
:10F42500AE05EEC433333354804FFD7F0D02F33404
:07F60400E4FD7F0102F42583
:06F61200000102040810D3
:1076F30041129E004112720541128D0541127E0511
:0C7703004112920241126D0441129300E9
:10F0240090126DE025E025E0FF901292E0FEC433DB
:0AF0340054E04FFFA3E04FFD7FF50D
:0DF03E00AE05AD07AF06AB077FEC02F35641
:07F5D400AD077FEC12F20EFF
:01F5DB00220D
:0EF4AF007FD012F5D4BF60037F01227F0022C0
:10D2080078D17C127D017BFF7AF679127E007F0649
:10D21800126EEE90128DE0FFD39405501174D12F49
:10D22800F582E43412F583E09012CEF08006901275
:10D23800CE7410F090127EE0FFD39405501174D193
:10D248002FF582E43412F583E09012CFF080069037
:10D2580012CF7410F0901272E0FFD394055011743D
:10D26800D12FF582E43412F583E09012D0F08006D5
:10D278009012D07410F09012CFE0FCE4126B507B47
:10D28800337A33791378401269167B337A337913FA
:10D29800783F126825C004C005C006C0079012CEAA
:10D2A800E0FCE4126B507B337A33791378401269CF
:10D2B80016E4FBFA79A0783F126825D003D002D093
:10D2C80001D000126825C004C005C006C00790122E
:10D2D800D0E0FCE4126B507B337A33791378401238
:10D2E80069167B337A337913783F126825D003D0D7
:0DD2F80002D001D000126825126B847E0068
:01D305002205
:10C2730090100F7401F0A3740FF0A374EBF07B1A0A
:10C283007D887FEC12EC0C90100F7401F0A37410F6
:10C29300F0A37405F07B077DE17FEC12EC0C900FAB
:10C2A300ECE0FE900FEBE0FDEDFF901283EEF0A3C8
:10C2B300EFF0900FEEE0FE900FEDE0FDEDFF90123A
:10C2C30087EEF0A3EFF0900FF0E0FE900FEFE0FDAC
:10C2D300EDFF90128BEEF0A3EFF0900FF2E0FE90E3
:10C2E3000FF1E0FDEDFF901278EEF0A3EFF0900F69
:10C2F300F4E0FE900FF3E0FDEDFF90127AEEF0A371
:10C30300EFF0900FF6E0FE900FF5E0FDEDFF9012D9
:10C313007CEEF0A3EFF0900FF8E0FE900FF7E0FD56
:10C32300EDFF90127FEEF0A3EFF0900FFAE0FE9096
:10C333000FF9E0FDEDFF901281EEF0A3EFF0900F07
:10C34300FCE0FE900FFBE0FDEDFF901285EEF0A305
:10C35300EFF0900FFEE0FE900FFDE0FDEDFF901279
:10C3630089EEF0A3EFF0901000E0FE900FFFE0FDE8
:10C37300EDFF90128EEEF0A3EFF0901002E0FE902E
:10C383001001E0FDEDFF901290EEF0A3EFF090109E
:10C3930004E090126EF0901006E0FE901005E0FDB0
:10C3A300EDFF90126FEEF0A3EFF0901007E0901204
:10C3B30071F0901008E075F010A4FFA3E0FDEF4DBD
:10C3C300FF901273E5F0F0A3EFF090100AE075F020
:10C3D30010A4FF901009E0C4540FFDEF4DFF90121D
:0FC3E30075E5F0F0A3EFF090100BE0901277F0FB
:01C3F2002228
:10D3F00090100F7401F0A3740FF0A374E9F07B0890
:10D400007DF77FEC12EC0C900FEAE0FFE4FCFDFEF0
:10D4100078041271AEC004C005C006C007900FE9C1
:10D42000E0FFE4FCFDFE780C1271AED003D002D018
:10D4300001D000EF4BFFEE4AFEED49FDEC48FCA8A1
:10D4400004A905AA06AB07900FEBE0C4540FFFEB4D
:10D450004FFFEAFEE9FDE8FC90129A1272AC900FC1
:10D46000EDE0FFE4FCFDFE78041271AEC004C005DF
:10D47000C006C007900FECE0FFE4FCFDFE780C1244
:10D4800071AED003D002D001D000EF4BFFEE4AFEC8
:10D49000ED49FDEC48FCA804A905AA06AB07900FCE
:10D4A000EEE0C4540FFFEB4FFFEAFEE9FDE8FC900D
:10D4B00012941272AC900FEFE0FEA3E0FDEDFF902E
:07D4C0001298EEF0A3EFF05B
:01D4C7002242
:10BC0300900FF51272B8C2200000900FF91272B8AB
:10BC130042AA0000901294E0FCA3E0FDA3E0FEA37F
:10BC2300E0FFE4126B46E4FBFA79807846126A1F60
:10BC3300C004C005C006C007901283E0FCA3E0FD6A
:10BC4300E4126B4BE4FBFA79807844126A1FA80470
:10BC5300A905AA06AB07D007D006D005D004126801
:10BC630021900FE91272AC901287E0FCA3E0FDEC87
:10BC7300126B4B900FE9E0F8A3E0F9A3E0FAA3E01D
:10BC8300FB126916900FE91272AC901294E0FCA3B8
:10BC9300E0FDA3E0FEA3E0FFE4126B46E4FBFAF948
:10BCA3007848126A1FC004C005C006C007901283FB
:10BCB300E0FCA3E0FDE4126B4BE4FBFAF9784612D7
:10BCC3006A1FA804A905AA06AB07D007D006D005AA
:10BCD300D004126821900FED1272AC90128BE0FC2D
:10BCE300A3E0FDEC126B4BC004C005C006C0079077
:10BCF3000FEDE0FCA3E0FDA3E0FEA3E0FFA804A991
:10BD030005AA06FB126916D003D002D001D0001297
:10BD13006916900FED1272AC900FEDE0FCA3E0FDFD
:10BD2300A3E0FEA3E0FF900FE9E0F8A3E0F9A3E0AE
:10BD3300FAA3E0FB126825126B8490129F1272AC77
:10BD4300900FEDE0FCA3E0FDA3E0FEA3E0FF900F66
:10BD5300E9E0F8A3E0F9A3E0FAA3E0FB126825E425
:10BD6300FBFA79A07845126A1F900FF11272AC901A
:10BD73000FF5E0FCA3E0FDA3E0FEA3E0FF900FF1CD
:10BD8300E0F8A3E0F9A3E0FAA3E0FB126ABC5005D4
:10BD9300900FF58026900FF9E0FCA3E0FDA3E0FEF1
:10BDA300A3E0FF900FF1E0F8A3E0F9A3E0FAA3E02A
:10BDB300FB126ABC60164014900FF9E0FCA3E0FD8F
:10BDC300A3E0FEA3E0FF900FF11272AC900FF1E03D
:0ABDD300FCA3E0FDA3E0FEA3E0FFE7
:01BDDD002243
:10A23E00900FF91272B846EA6000900FFD1272B8D4
:10A24E0047D6D80090129FE0FCA3E0FDA3E0FEA34A
:10A25E00E0FFEC126B46E4FBFAF97840126A1FE459
:10A26E00FBFA797A78C7126825900FE91272AC90D2
:10A27E001285E0FCA3E0FDEC126B4BC004C005C0E0
:10A28E0006C007900FE9E0FCA3E0FDA3E0FEA3E00B
:10A29E00FFA804A905AA06FB126916D003D002D0A6
:10A2AE0001D000126916E4FBFAF97847126A1F9082
:10A2BE000FED1272AC900FEDE0F8A3E0F9A3E0FA07
:10A2CE00A3E0FBC000C001C002C003901281E0FCFD
:10A2DE00A3E0FDEC126B4B900FE9E0F8A3E0F9A3BD
:10A2EE00E0FAA3E0FB126916E4FBFAF97840126972
:10A2FE0016D003D002D001D000126825900FED12B7
:10A30E0072AC90127FE0FCA3E0FDEC126B4BE4FB11
:10A31E00FA79807847126916C004C005C006C007D6
:10A32E00E4FBFA79807840900FEDE0FCA3E0FDA30A
:10A33E00E0FEA3E0FF126A1FD003D002D001D000CE
:10A34E00126825900FED1272AC90127CE0FCA3E027
:10A35E00FDEC126B4B900FE9E0F8A3E0F9A3E0FAE5
:10A36E00A3E0FB126916900FE9E0F8A3E0F9A3E071
:10A37E00FAA3E0FB126916E4FBFAF97849126A1F98
:10A38E00900FF11272AC90127AE0FCA3E0FDEC1289
:10A39E006B4B900FE9E0F8A3E0F9A3E0FAA3E0FB22
:10A3AE00126916900FF1E0F8A3E0F9A3E0FAA3E02A
:10A3BE00FB126825E4FBFAF97849126A1F900FE93F
:10A3CE001272ACE4FBFAF97847900FE9E0FCA3E0D7
:10A3DE00FDA3E0FEA3E0FF126A1FE4FBFA7980788A
:10A3EE003F126825C004C005C006C007901278E071
:10A3FE00FCA3E0FDE4126B4BD003D002D001D000E1
:10A40E00126916900FE91272ACE4FFFEFDFC900F7C
:10A41E00E9E0F8A3E0F9A3E0FAA3E0FB126ABC605E
:10A42E0002500302A5D490129AE0FCA3E0FDA3E033
:10A43E00FEA3E0FFE4126B46A804A905AA06AB072B
:10A44E00E4FFFE7D807C49126821900FF51272ACFC
:10A45E00E4FBFA79807845900FEDE0FCA3E0FDA3D4
:10A46E00E0FEA3E0FF126A1FA804A905AA06AB0727
:10A47E00900FF5E0FCA3E0FDA3E0FEA3E0FF126861
:10A48E00217B007A5079C37845126916900FE9E066
:10A49E00F8A3E0F9A3E0FAA3E0FB126A1F900FF510
:10A4AE001272AC901290E0FCA3E0FDEC126B4B909C
:10A4BE000FF5E0F8A3E0F9A3E0FAA3E0FB126916AA
:10A4CE00900FF5E0F8A3E0F9A3E0FAA3E0FB126920
:10A4DE0016E4FBFAF9784F126A1F900FE91272AC6C
:10A4EE0090128EE0FCA3E0FDEC126B4B900FF5E0AA
:10A4FE00F8A3E0F9A3E0FAA3E0FB126916E4FBFA75
:10A50E00F97847126A1F900FED1272AC900FF5E0BA
:10A51E00F8A3E0F9A3E0FAA3E0FBC000C001C0027B
:10A52E00C003901289E0FCA3E0FDEC126B4BC0045B
:10A53E00C005C006C007900FEDE0FCA3E0FDA3E050
:10A54E00FEA3E0FF900FE9E0F8A3E0F9A3E0FAA381
:10A55E00E0FB126825D003D002D001D0001268258E
:10A56E00E4FBFA79807841126A1FD003D002D00141
:10A57E00D000126825900FF51272AC900FF9E0FC26
:10A58E00A3E0FDA3E0FEA3E0FF900FF5E0F8A3E04B
:10A59E00F9A3E0FAA3E0FB126ABC50028028900FE8
:10A5AE00FDE0FCA3E0FDA3E0FEA3E0FF900FF5E0CD
:10A5BE00F8A3E0F9A3E0FAA3E0FB126ABC601B402B
:10A5CE0019900FFD8003900FF9E0FCA3E0FDA3E0CE
:10A5DE00FEA3E0FF900FF51272AC900FF5E0FCA316
:08A5EE00E0FDA3E0FEA3E0FF85
:01A5F6002242
:10B19600900FED1272B800000000900FF11272B815
:10B1A60042C8000090129FE0FCA3E0FDA3E0FEA3CE
:10B1B600E0FFEC126B46E4FBFA799678C712682535
:10B1C600900FF51272AC901275E0FCA3E0FDEC1244
:10B1D6006B4BE4FBFA79807846126A1F900FF5E014
:10B1E600F8A3E0F9A3E0FAA3E0FB126916C004C0D5
:10B1F60005C006C007901273E0FCA3E0FDEC126BDD
:10B206004BE4FBFA79807842126916D003D002D05B
:10B2160001D000126825900FF91272AC901298E0D6
:10B22600FCA3E0FDE4126B4B900FF9E0F8A3E0F904
:10B23600A3E0FAA3E0FB126821900FFD1272AC9016
:10B24600126FE0FCA3E0FDEC126B4BE4FBFA798095
:10B256007847126A1F9010011272AC901271E0FCCE
:10B26600E4126B50E4FBFA7980784C126A1F900F57
:10B27600F5E0F8A3E0F9A3E0FAA3E0FB126916E40F
:10B28600FBFA7980783F1268259010051272AC900F
:10B296001277E0FC126B50E4FBFA7980784C126A64
:10B2A6001F900FF5E0F8A3E0F9A3E0FAA3E0FB1284
:10B2B6006916901005E0F8A3E0F9A3E0FAA3E0FB15
:10B2C600126916E4FBFA7980783F12682590100916
:10B2D6001272AC901009E0FCA3E0FDA3E0FEA3E02F
:10B2E600FF901005E0F8A3E0F9A3E0FAA3E0FB1253
:10B2F6006916C004C005C006C007901001E0FCA393
:10B30600E0FDA3E0FEA3E0FF900FFDE0F8A3E0F967
:10B31600A3E0FAA3E0FB126916D003D002D001D055
:10B32600001269169010091272AC90126EE0FCE4DD
:10B33600126B50901009E0F8A3E0F9A3E0FAA3E03D
:10B34600FB126916E4FBFAF97849126A1FA804A9E8
:10B3560005AA06AB07E4FFFE7D807C3F12682190BC
:10B366001009E0F8A3E0F9A3E0FAA3E0FB126916DE
:10B37600900FE91272AC900FF1E0FCA3E0FDA3E0A0
:10B38600FEA3E0FF900FE9E0F8A3E0F9A3E0FAA33B
:10B39600E0FB126ABC60074005900FF18024900F15
:10B3A600EDE0FCA3E0FDA3E0FEA3E0FF900FE9E0E3
:10B3B600F8A3E0F9A3E0FAA3E0FB126ABC501490EC
:10B3C6000FEDE0FCA3E0FDA3E0FEA3E0FF900FE994
:10B3D6001272AC900FE9E0FCA3E0FDA3E0FEA3E04F
:01B3E600FF67
:01B3E7002243
:10EA6B00900FE6EBF0A3EAF0A3E9F012D3F012BC9F
:10EA7B0003900FE6E0FBA3E0FAA3E0F91272111288
:10EA8B00A23E900FE6E0FBA3E0FAA3E0F9900004AE
:10EA9B0012722B12B196900FE6E0FBA3E0FAA3E003
:07EAAB00F990000802722B34
:0EF4BD007DB67FE012F03E7F057E0002F297E2
:10E79900900FEA74C8F07F057E0012F29712F4AF69
:10E7A900EF70107F01FE12F297900FEAE014F070FB
:10E7B900ECFF2212F4BD12C27312F024901272E01F
:10E7C900FD7FF212F03E90127EE025E025E0FF90F9
:10E7D900128DE0FEC43354E04FFF90129EE04FFDCE
:07E7E9007FF412F03E7F01F6
:01E7F0002206
:10F1F00090129EEFF090127EE025E025E0FE901246
:0EF200008DE0C43354E04E4FFD7FF402F03E2B
:10F0E4009012DBEBF0A3EAF0A3E9F07F0112F1F058
:10F0F40012D20812F2979012DBE0FBA3E0FAA3E02D
:04F10400F902EA6BB7
:10F34100EFD3940740027F07901292EFF012F0245E
:05F351007F0302F1F052
:10F19300746865206D6172697820636F756C642093
:10F1A3006E6F7420626520736F6C7665640D0A0060
:10770F0058104900000000000000000000000000B9
:10771F0000000000000000000000004210610000A7
:10E68A00FF90106375F01CED1272E9EC75F01CA492
:10E69A002583F583E5822FF582E5833EF583E0FC49
:09E6AA00A3E0FDA3E0FEA3E0FFE4
:10E6B3009010251272ACE4FFFEFDFC901025E0F8EB
:10E6C300A3E0F9A3E0FAA3E0FB126ABC901025E0F3
:10E6D300FCA3E0FDA3E0FEA3E0FF5005126B358031
:02E6E300002213
:10EAF800E4900FE6F0E4900FE7F0900FE7E0FFC333
:10EB080094075027900FE6E075F01CA42463F58263
:10EB1800E43410F58375F004EF1272E91272B8004C
:10EB2800000000900FE7E004F080CF900FE6E004CB
:05EB3800F0E0B406C08E
:01EB3D0022B5
:06C3F300900FE61272AC8F
:10C3F900901062E004F07006901061E004F0900F74
:10C40900EAE0FCA3E0FDA3E0FEA3E0FF900FEAE071
:10C41900F8A3E0F9A3E0FAA3E0FB126916900FF282
:10C429001272AC900FEEE0FCA3E0FDA3E0FEA3E0E6
:10C43900FFA804A905AA06FB126916900FF6127245
:10C44900AC900FE6E0FCA3E0FDA3E0FEA3E0FF90C3
:10C459000FFA1272AC900FEAE0FCA3E0FDA3E0FE34
:10C46900A3E0FF900FFE1272AC900FEEE0FCA3E088
:10C47900FDA3E0FEA3E0FF9010021272AC9010063B
:10C489001272B83F800000900FE6E0FCA3E0FDA324
:10C49900E0FEA3E0FF126B35900FE6E0F8A3E0F9A8
:10C4A900A3E0FAA3E0FB12691690100A1272ACE439
:10C4B90090100EF0E490100FF090100EE075F01C43
:10C4C900A42463F582E43410F583C083C0829010FC
:10C4D9000FE0D082D08375F0041272E9C083C08264
:10C4E900E0F8A3E0F9A3E0FAA3E0FBC000C001C0B3
:10C4F90002C00390100FE025E025E024F2F582E464
:10C50900340FF583E0FCA3E0FDA3E0FEA3E0FF9078
:10C51900100EE025E025E024F2F582E4340FF583DE
:10C52900E0F8A3E0F9A3E0FAA3E0FB126916D0034F
:10C53900D002D001D000126825D082D0831272AC0B
:10C5490090100FE004F0E06407600302C4C2901089
:0CC559000EE004F0E06406600302C4BDC4
:01C5650022B3
:10E03200E4901019F0E490101AF0901019E075F0C5
:10E042001CA42463F582E43410F583C083C082905B
:10E05200101AE0D082D08375F0041272E9C083C036
:10E0620082E0FCA3E0FDA3E0FEA3E0FFC004C00544
:10E07200C006C007901061E0FCA3E0FDEC126B4B00
:10E08200A804A905AA06AB07D007D006D005D0047C
:10E09200126A1FD082D0831272AC90101AE004F080
:0FE0A200E0B40796901019E004F0E06406708671
:01E0B100224C
:0ED30600901025EEF0A3EFF0A3ECF0A3EDF0F5
:10D31400A31272B800000000E490102DF0901025C4
:10D32400A3E075F01CA42463F582E43410F583C0F3
:10D3340083C08290102DE0D082D08375F0041272E5
:10D34400E9E0FCA3E0FDA3E0FEA3E0FF90102912B6
:10D3540072AC901027A3E075F01CA42463F582E45A
:10D364003410F583C083C08290102DE0D082D08326
:10D3740075F0041272E9E0FCA3E0FDA3E0FEA3E073
:10D38400FF901025A3E075F01CA42463F582E43417
:10D3940010F583C083C08290102DE0D082D08375B5
:10D3A400F0041272E91272AC901029E0FCA3E0FDC3
:10D3B400A3E0FEA3E0FF901027A3E075F01CA424D3
:10D3C40063F582E43410F583C083C08290102DE0AD
:10D3D400D082D08375F0041272E91272AC90102DD1
:0BD3E400E004F0E06407600302D321C6
:01D3EF00221B
:06E56A0090101E1272ACBD
:10E57000E4901024F0901022A3E075F01CA4246312
:10E58000F582E43410F583C083C082901024E0D07B
:10E5900082D08375F0041272E9C083C082E0FCA3CC
:10E5A000E0FDA3E0FEA3E0FF90101EE0F8A3E0F979
:10E5B000A3E0FAA3E0FB126916D082D0831272ACFA
:0AE5C000901024E004F0E0B407AB73
:01E5CA00222E
:06DB5C0090101F1272ACD4
:10DB6200E4901027F0901025A3E075F01CA4246324
:10DB7200F582E43410F583C083C082901027E0D090
:10DB820082D08375F0041272E9C083C082E0F8A3E8
:10DB9200E0F9A3E0FAA3E0FBC000C001C002C003A9
:10DBA200901023A3E075F01CA42463F582E43410E2
:10DBB200F583C083C082901027E0D082D08375F0B5
:10DBC200041272E9E0FCA3E0FDA3E0FEA3E0FF90F3
:10DBD200101FE0F8A3E0F9A3E0FAA3E0FB12691634
:10DBE200D003D002D001D000126825D082D0831297
:10DBF20072AC901027E004F0E06407600302DB6778
:01DC020022FF
:08DDDB0090101FEEF0A3EFF021
:10DDE300E4A3F0A3F0A3F0A3F0EF2401FFE43E903B
:10DDF3001021F0A3EFF0901021E0FCA3E0FDC39409
:10DE030006EC64809480506890101FE0FEA3E078D5
:10DE130002C333CE33CED8F912E68AC004C005C09C
:10DE230006C00790101FE0FCA3E0FDAE047802C318
:10DE330033CE33CED8F912E68AA804A905AA06ABD5
:10DE430007D007D006D005D004126ABC5011901039
:10DE53001FE0FEA3E0FFA3E0FCA3E0FD12D30690C6
:10DE63001022E004F0708F901021E004F002DDF93D
:01DE7300228C
:10CFFA009010191272B800000000E490101DF09011
:10D00A00101DE0FFC39406400302D1007E0012DD2A
:10D01A00DB90101DE0FF75F01CA42463F582E43454
:10D02A0010F58375F004EF1272E9E0FCA3E0FDA3AA
:10D03A00E0FEA3E0FFE4FBFAF9F8126ABC70037F92
:10D04A00012290101DE004A3F090101EE0FFC3948B
:10D05A0006400302D0F7EF75F01CA42463F582E4BE
:10D06A003410F583C083C08290101DE0D082D08333
:10D07A0075F0041272E9E0FCA3E0FDA3E0FEA3E070
:10D08A00FF126B3590101DE075F01CA42463F58225
:10D09A00E43410F583C083C08290101DE0D082D0A2
:10D0AA008375F0041272E9E0F8A3E0F9A3E0FAA3A9
:10D0BA00E0FB126A1F9010191272AC901019E0FC72
:10D0CA00A3E0FDA3E0FEA3E0FFA3E0FB901023E4AE
:10D0DA00F0A3EBF090101EE0FB901025E4F0A3EB18
:10D0EA00F012DB5C90101EE004F002D05390101D89
:08D0FA00E004F002D0097F0000
:01D10200220A
:10E302009010191272B800000000E490101DF090F5
:10E31200101DE0FF75F01CA42463F582E43410F5AF
:10E322008375F004EF1272E9E0F8A3E0F9A3E0FAD2
:10E33200A3E0FBE4FFFE7D807C3F126A1F90101970
:10E342001272AC901019E0FCA3E0FDA3E0FEA3E082
:10E35200FFA3E0FB901022E4F0A3EBF012E56A9039
:0BE36200101DE004F0E0C3940640A48E
:01E36D00228D
:0BBDDE00901019EBF0A3EAF0A3E9F0CD
:10BDE900A31272B80000000590101CE0FCA3A3E0A8
:10BDF900FEEC33500302BF6990101CA3A3A3E0908B
:10BE0900107B75F01C1272E9EE75F01CA42583F500
:10BE190083E0FCA3E0FDA3E0FEA3E0FFC004C005AE
:10BE2900C006C007E47F04FEFDFC90101CE0F8A3E7
:10BE3900E0F9A3E0FAA3E0FB127127901019E0FBE7
:10BE4900A3E0FAA3E0F98F828E83D007D006D0054C
:10BE5900D00412722B9010207405F090101CE0FC95
:10BE6900A3E0FDA3E0FEA3E02401FBE43EFAE43DE8
:10BE7900F9E43CF8A3E0FFE4FCFDFED31271844031
:10BE89000302BF42E47F04FEFDFC90101CE0F8A30E
:10BE9900E0F9A3E0FAA3E0FB127127901019E0FB87
:10BEA900A3E0FAA3E02FF9EA3EFAEB3DFBC003C099
:10BEB90002C0011271C1C004C005C006C0079010BC
:10BEC90019E0FBA3E0FAA3E0F9901020E075F00473
:10BED900A4F58285F0831271E190101CA3A3E0FA06
:10BEE900A3E090106375F01C1272E9EA75F01CA4C6
:10BEF9002583F583C083C082901020E0D082D0834F
:10BF090075F0041272E9E0F8A3E0F9A3E0FAA3E0FE
:10BF1900FB126916A804A905AA06AB07D007D00623
:10BF2900D005D004126821D001D002D003127211B9
:10BF3900901020E014F002BE6490101CE0FCA3E015
:10BF4900FDA3E0FEA3E0FFEF24FFFFEE34FFFEEDCB
:10BF590034FFFDEC34FFFC90101C1272AC02BDF1F1
:01BF690022B5
:0BA5F700900FE6EBF0A3EAF0A3E9F000
:10A60200A31272B800000000900FED1272B80000A1
:10A612000000900FF11272B800000000900FF512C6
:10A6220072B800000000900FF91272B8000000002A
:10A63200900FFD1272B8000000009010011272B863
:10A64200000000009010051272B800000000901087
:10A65200091272B80000000090100D1272B80000CA
:10A6620000009010111272B8000000009010151234
:10A6720072B80000000012E03212CFFAEF600C7BD9
:10A68200FF7AF17993129A297F002212E3027B0169
:10A692007A10794912BDDE901049E0FCA3E0FDA3D7
:10A6A200E0FEA3E0FF900FE91272AC90104DE0FCC7
:10A6B200A3E0FDA3E0FEA3E0FF900FED1272AC90C9
:10A6C2001051E0FCA3E0FDA3E0FEA3E0FF900FF138
:10A6D2001272AC901055E0FCA3E0FDA3E0FEA3E0F3
:10A6E200FF900FF51272AC901059E0FCA3E0FDA3AD
:10A6F200E0FEA3E0FF900FF91272AC90105DE0FC57
:10A70200A3E0FDA3E0FEA3E0FF900FFD1272AC9068
:10A712000FF1E0FCA3E0FDA3E0FEA3E0FF126B3526
:10A72200E4FBFAF97840126A1F9010011272ACE44D
:10A73200FFFEFD7C40900FE9E0F8A3E0F9A3E0FA08
:10A74200A3E0FB126916C004C005C006C007900F43
:10A75200F5E0FCA3E0FDA3E0FEA3E0FF126B35D021
:10A7620003D002D001D000126A1F9010051272AC01
:10A77200E4FFFEFD7C40900FEDE0F8A3E0F9A3E0DA
:10A78200FAA3E0FB126916C004C005C006C0079018
:10A792000FF9E0FCA3E0FDA3E0FEA3E0FF126B359E
:10A7A200D003D002D001D000126A1F901009127299
:10A7B200AC901005E0FCA3E0FDA3E0FEA3E0FF9057
:10A7C2000FE9E0F8A3E0F9A3E0FAA3E0FB126916AF
:10A7D200901005E0F8A3E0F9A3E0FAA3E0FB126908
:10A7E20016C004C005C006C007901001E0FCA3E03B
:10A7F200FDA3E0FEA3E0FFA804A905AA06FB1269D7
:10A8020016D003D002D001D000126825C004C005C2
:10A81200C006C007901009E0FCA3E0FDA3E0FEA380
:10A82200E0FF900FEDE0F8A3E0F9A3E0FAA3E0FB6C
:10A83200126916901009E0F8A3E0F9A3E0FAA3E088
:10A84200FB126916D003D002D001D0001268259005
:10A852000FFDE0F8A3E0F9A3E0FAA3E0FB12682100
:10A8620012DA0990100D1272AC900FE9E0FCA3E02D
:10A87200FDA3E0FEA3E0FF12DA09A804A905AA06D7
:10A88200AB0790100DE0FCA3E0FDA3E0FEA3E0FF08
:10A89200126A1F9010111272AC900FEDE0FCA3E04F
:10A8A200FDA3E0FEA3E0FF12DA09A804A905AA06A7
:10A8B200AB0790100DE0FCA3E0FDA3E0FEA3E0FFD8
:10A8C200126A1F9010151272AC901001E0FCA3E006
:10A8D200FDA3E0FEA3E0FF126B84900FE6E0FBA372
:10A8E200E0FAA3E0F9EE8FF01270DB901005E0FCC5
:10A8F200A3E0FDA3E0FEA3E0FF126B84900FE6E06D
:10A90200FBA3E0FAA3E0F9900002EE8FF01270FAD6
:10A91200901009E0FCA3E0FDA3E0FEA3E0FF126BB0
:10A9220084900FE6E0FBA3E0FAA3E0F9900004EEC6
:10A932008FF01270FA90100DE0FCA3E0FDA3E0FE90
:10A94200A3E0FF90000612722B901011E0FCA3E02E
:10A95200FDA3E0FEA3E0FF90000A12722B901015F7
:10A96200E0FCA3E0FDA3E0FEA3E0FF90000E127264
:03A972002B7F0137
:01A9750022BF
:10772F004112BB034112BD064112BF004112BE01FF
:10773F004112BC024212C000004212C600004212A7
:10774F00CC00004412C23F8000004412C83F8000AA
:01775F000029
:0D004600AE05AD07AF06AB077F3C02F356D9
:07F5DC00AD077F3C12F20EA7
:01F5E3002205
:10F435007F0A12F5DCEF644860037F00227F01221A
:0BC6CC00900FE6EBF0A3EAF0A3E9F00A
:10C6D70090100F7401F0A3740FF0A374E9F07B06B8
:10C6E7007D037F3C12EC0C900FE9E0FEA3E0FDED2B
:10C6F700FF900FE6E0FBA3E0FAA3E0F9EE8FF0125C
:10C7070070DB900FEDE0FEA3E0FDEDFF900FE6E09C
:10C71700FBA3E0FAA3E0F9900002EE8FF01270FAA3
:10C72700900FEBE0FEA3E0FDEDFF900004EE8FF02D
:10C737001270FA127078FF9012C0E0FCA3E0FDC3FC
:10C74700EF9DFFE5F09C8FF01270DB900FE6E0FBAA
:10C75700A3E0FAA3E02402F9E43AFA127078FF9012
:10C7670012C6E0FCA3E0FDC3EF9DFFE5F09C8FF050
:10C777001270DB900FE6E0FBA3E0FAA3E02404F9D4
:10C78700E43AFA127078FF9012CCE0FCA3E0FDC304
:10C79700EF9DFFE5F09C8FF01270DB900FE6E0FB5A
:10C7A700A3E0FAA3E0F99000021270A3FDACF0EC4D
:10C7B700126B4B9012C2E0F8A3E0F9A3E0FAA3E0F2
:10C7C700FB126916126B84900FE6E0FBA3E0FAA355
:10C7D700E0F9900002EE8FF01270FA9000041270E8
:10C7E700A3FDACF0EC126B4B9012C8E0F8A3E0F994
:10C7F700A3E0FAA3E0FB126916126B84900FE6E040
:10C80700FBA3E0FAA3E0F9900004EE8FF00270FAC0
:10EBC8009012C0EEF0A3EFF0AF059012C6ECF0A3E0
:10EBD800EFF0AF039012CCEAF0A3EFF0900FECE067
:10EBE800FCA3E0FDA3E0FEA3E0FF9012C21272AC0A
:10EBF800900FF0E0FCA3E0FDA3E0FEA3E0FF90127D
:04EC0800C80272AC20
:0BF54C009012BCEFF0FD7F02020046B1
:10E7F100900FEA74C8F012F435EF70107F01FE1229
:10E80100F297900FEAE014F070ECFF229012BDE055
:10E8110025E025E0FF9012BBE0FEC454F04FFF90CD
:10E8210012BFE04FFDE4FF1200469012BEE0C43378
:10E8310054E0FD7F011200469012BCE0FD7F021200
:04E8410000467F010D
:01E8450022B0
:0BB3E800900FE6EBF0A3EAF0A3E9F001
:10B3F300126B357BE17A2E79657842126A1F900FC2
:10B40300F11272AC900FEDE0FCA3E0FDA3E0FEA30C
:10B41300E0FF126B357BE17A2E79657842126A1F61
:10B42300900FF51272AC900FF5E0FCA3E0FDA3E0E2
:10B43300FEA3E0FF12BFC8C004C005C006C007904A
:10B443000FE6E0FBA3E0FAA3E0F99000021270A379
:10B45300FDACF0EC126B4BD003D002D001D0001244
:10B463006916C004C005C006C007900FF1E0FCA335
:10B47300E0FDA3E0FEA3E0FF12BFC8D003D002D0DB
:10B4830001D000126916C004C005C006C007900FA2
:10B49300F1E0FCA3E0FDA3E0FEA3E0FF12BFB2C016
:10B4A30004C005C006C007900FE6E0FBA3E0FAA3C3
:10B4B300E0F9127078FDACF0EC126B4BD003D002C4
:10B4C300D001D000126916D003D002D001D00012EF
:10B4D3006825C004C005C006C007900FF5E0FCA3B3
:10B4E300E0FDA3E0FEA3E0FF12BFB2C004C005C0AD
:10B4F30006C007900FE6E0FBA3E0FAA3E0F9900093
:10B50300041270A3FDACF0EC126B4BD003D002D04D
:10B5130001D000126916C004C005C006C007900F11
:10B52300F1E0FCA3E0FDA3E0FEA3E0FF12BFC8D05F
:10B5330003D002D001D000126916A804A905AA06F7
:10B54300AB07D007D006D005D004126821900FF9BD
:10B553001272AC900FF5E0FCA3E0FDA3E0FEA3E0C4
:10B56300FF12BFC8C004C005C006C007900FE6E0C5
:10B57300FBA3E0FAA3E0F99000041270A3FDACF082
:10B58300EC126B4BD003D002D001D000126916C06D
:10B5930004C005C006C007900FF5E0FCA3E0FDA3BF
:10B5A300E0FEA3E0FF12BFB2C004C005C006C0079F
:10B5B300900FE6E0FBA3E0FAA3E0F990000212701B
:10B5C300A3FDACF0EC126B4BD003D002D001D00042
:10B5D300126916D003D002D001D000126825C0042E
:10B5E300C005C006C007900FF9E0FCA3E0FDA3E08F
:10B5F300FEA3E0FF9010011272ACD007D006D00575
:10B60300D00412DCA4E4FBFA793478431269167B84
:10B61300D07A0F79497840126A1FE4FBFA793478BB
:04B623004312682541
:01B627002200
:1077600004773F800000047B00000000047F0000DD
:107770000000048300000000046B00000000046FA0
:0A7780000000000004730000000088
:0DF4F500AE05AD07AF06AB077FD402F3569E
:07F5E400AD077FD412F20E07
:01F5EB0022FD
:04ED84007B017D8012
:0DED8800900FF0EDF0A3EBF0900FEFEFF027
:10ED950012F5E4AE07900FF1E0FFB40108900FF013
:10EDA500E04EFE800AEF7007900FF0E0F45EFE90F3
:09EDB5000FEFE0FFAD0602F4F5DA
:0EF465007F0F12F5E4EFB46A037F01227F00EF
:01F473002276
:08F5EC00EF4DFD7F1002F4F564
:08F5F400EF4DFD7F1102F4F55B
:0BD7F400900FE6EBF0A3EAF0A3E9F0D1
:10D7FF0090100F7401F0A3740FF0A374E9F07B0C79
:10D80F007D227FD412EC0C900FEAE0FE900FE9E03E
:10D81F00FDEDFF900FE6E0FBA3E0FAA3E0F9900027
:10D82F0006EE8FF01270FA900FECE0FE900FEBE027
:10D83F00FDEDFF900008EE8FF01270FA900FEEE002
:10D84F00FE900FEDE0FDEDFF90000AEE8FF01270ED
:10D85F00FA900FF0E0FE900FEFE0FDEDFFEE8FF08E
:10D86F001270DB900FF2E0FE900FF1E0FDEDFF90F4
:10D87F000FE6E0FBA3E0FAA3E0F9900002EE8FF0D1
:10D88F001270FA900FF4E0FE900FF3E0FDEDFF90B1
:08D89F000004EE8FF00270FAA4
:10F445007B017D017F1212ED887F327E0002F297EB
:09F5B9007B017D047F1902ED883D
:04DE7400AB07AA0648
:10DE7800AE04AF057C007D28127016900FECEFF011
:10DE8800AE02AF03AD07AC06EC126B4B7BDA7A0F30
:10DE980079497840126916E4FBFA79347843126AB2
:10DEA8001F12BFC8E4FBFA79807842126916126B18
:10DEB80084900FEDEFF0900FECE0D394FF400374E3
:10DEC800FFF0900FEDE0D394FF400374FFF07DA0C6
:10DED8007F0112F4F5900FECE0FD7F5012F4F590FD
:10DEE8000FEDE0FD7F5412F4F57D207F5912F4F513
:10DEF800E4FD7F0112F4F57F1912ED847B017D01A9
:05DF08007F0B02ED8813
:10F04B007B017D827F5812ED887B017D8C7F59126D
:10F05B00ED887D7F7F5A12F4F57F5B12ED847B0187
:07F06B007D087F5E02ED88C5
:10EA2100900FECEEF0A3EFF0A3EDF07D807F0112EB
:10EA3100F4F57D8E7F0F12F4F5900FECE0FEA3E06C
:10EA4100FF7C007D50126FC1EF33333354F8FFA3C5
:10EA5100E054074FFD7F1412F4F5E4FD7F0112F439
:0AEA6100F57B017D107F1902ED889E
:10F2CA007F4B12F5E4900FE6EFF07F4C12F5E4EF76
:08F2DA00FE900FE6E0FDEDFFE0
:01F2E2002209
:10F2E3007B017D027F1912ED887F017E0012F29768
:09F2F300E4FB7D027F1902ED88A5
:09F5C200E4FB7D107F1902ED88C5
:10E73F00900FEAE4F0A374C8F07F327E0012F297D4
:10E74F0012F465EF70167F01FE12F297900FEA74C4
:10E75F00FFF5F012704C45F070E6FF2212F4457D84
:10E76F00087F6012F5EC7D04E4FF12F5F47D647C04
:10E77F00007F0A7E0012DE7412F04B7D067F107E42
:09E78F000412EA2112F5B97F0120
:01E79800225E
:0B914C00900FE6EBF0A3EAF0A3E9F0BF
:10915700127078FDACF0EC126B4B783B1272A0905A
:109167000FE6E0FBA3E0FAA3E0F99000021270A378
:10917700FDACF0EC126B4B783F1272A0900FE6E05B
:10918700FBA3E0FAA3E0F99000041270A3FDACF092
:10919700EC126B4B78431272A0900FE6E0FBA3E052
:1091A700FAA3E0F99000061270A3FDACF0EC126B85
:1091B7004B7B397AFA798E783C1269167B6F7A1273
:1091C70079837842126A1F78471272A0900FE6E0FF
:1091D700FBA3E0FAA3E0F99000081270A3FDACF03E
:1091E700EC126B4B7B397AFA798E783C1269167BD5
:1091F7006F7A1279837842126A1F784B1272A090A5
:109207000FE6E0FBA3E0FAA3E0F990000A1270A3CF
:10921700FDACF0EC126B4B7B397AFA798E783C1205
:1092270069167B6F7A1279837842126A1F784F1218
:1092370072A0783F12724FA804A905AA06AB0712BD
:109247006916C004C005C006C007783B12724FA854
:1092570004A905AA06AB07126916D003D002D001EC
:10926700D000126825C004C005C006C007784312A5
:10927700724FA804A905AA06AB07126916D003D036
:1092870002D001D00012682512DA098F288E278DA7
:10929700268C25783B12724FAB28AA27A926A8252A
:1092A700126A1F783B1272A0783F12724FAB28AA3E
:1092B70027A926A825126A1F783F1272A0784312A1
:1092C700724FAB28AA27A926A825126A1F7843122E
:1092D70072A0787F12724F7877127277126916C070
:1092E70004C005C006C007788312724F787B1272DC
:1092F70077126916D003D002D001D000126821E49A
:10930700FBFAF9784012691678531272A078831223
:10931700724F787F127277126916C004C005C006B3
:10932700C007787B12724F7877127277126916D05E
:1093370003D002D001D000126825E4FBFAF9784087
:1093470012691678571272A0787B12724F787B12C7
:109357007277126916C004C005C006C00778771275
:10936700724F7877127277126916D003D002D00144
:10937700D000126821C004C005C006C007787F125C
:10938700724F787F127277126916A804A905AA0688
:10939700AB07D007D006D005D004126821C004C09F
:1093A70005C006C007788312724F7883127277124E
:1093B7006916D003D002D001D000126825785B125D
:1093C70072A0785712724F7843127277126916C0DB
:1093D70004C005C006C007785B12724F783F12724F
:1093E70077126916D003D002D001D0001268217815
:1093F7005F1272A0785B12724F783B127277126914
:1094070016C004C005C006C007785312724F7843D0
:10941700127277126916D003D002D001D0001268F9
:109427002178631272A0785312724F783F127277C5
:10943700126916C004C005C006C007785712724FDC
:10944700783B127277126916D003D002D001D00090
:1094570012682178671272A0786B127277C000C009
:1094670001C002C0037F6F7E127D837C3A785F1252
:109477007277126916D003D002D001D00012682586
:10948700786B1272A0786F127277C000C001C002A9
:10949700C0037F6F7E127D837C3A786312727712E6
:1094A7006916D003D002D001D000126825786F1258
:1094B70072A07873127277C000C001C002C0037F28
:1094C7006F7E127D837C3A7867127277126916D0A5
:1094D70003D002D001D00012682578731272A07FE2
:1094E700CD7ECC7D4C7C3F785F12727712691678FF
:1094F70047127277126825786B127277126825788F
:10950700471272A07FCD7ECC7D4C7C3F7863127270
:1095170077126916784B127277126825786F127274
:1095270077126825784B1272A07FCD7ECC7D4C7C5C
:109537003F7867127277126916784F12727712683E
:10954700257873127277126825784F1272A0787790
:10955700127277C000C001C002C003787B12724F3D
:10956700126B357847127277126916C004C005C0AE
:1095770006C007784B12724F787F127277126916FE
:10958700A804A905AA06AB07D007D006D005D004C2
:10959700126821C004C005C006C007784F12724F79
:1095A7007883127277126916A804A905AA06AB0771
:1095B700D007D006D005D0041268217B6F7A1279C4
:1095C70083783B126916D003D002D001D00012680D
:1095D7002578771272A0787B127277C000C001C01D
:1095E70002C003784F12724F787F12727712691692
:1095F700C004C005C006C007784712724F787712BB
:109607007277126916D003D002D001D000126825F4
:10961700C004C005C006C007784B12724F7883128A
:109627007277126916A804A905AA06AB07D007D056
:1096370006D005D0041268217B6F7A127983783BB4
:10964700126916D003D002D001D000126825787BAA
:109657001272A0787F127277C000C001C002C003E7
:10966700784F12724F787B127277126916C004C056
:1096770005C006C007784B12724F787712727712BF
:109687006916D003D002D001D000126821C004C0EF
:1096970005C006C007784712724F78831272771297
:1096A7006916D003D002D001D0001268257B6F7AEB
:1096B700127983783B126916D003D002D001D0000B
:1096C700126825787F1272A07883127277C000C063
:1096D70001C002C003784B12724F787B1272771267
:1096E7006916C004C005C006C007784F12724F78CC
:1096F70077127277126916D003D002D001D0001208
:109707006825C004C005C006C007784712724F78A5
:109717007F127277126916A804A905AA06AB07D0AB
:1097270007D006D005D0041268217B6F7A1279839F
:10973700783B126916D003D002D001D000126825F9
:1097470078831272A0787B12724F787B127277122D
:109757006916C004C005C006C007787712724F7833
:1097670077127277126916D003D002D001D0001297
:109777006825C004C005C006C007787F12724F78FD
:109787007F127277126916D003D002D001D000126F
:109797006825C004C005C006C007788312724FA8A9
:1097A70004A905AA06AB07126916D003D002D00197
:1097B700D00012682512DA098F288E278D268C256E
:1097C700787712724FAB28AA27A926A825126A1FF5
:1097D70078771272A0787B12724FAB28AA27A92636
:1097E700A825126A1F787B1272A0787F12724FAB7E
:1097F70028AA27A926A825126A1F787F1272A0789F
:109807008312724FAB28AA27A926A825126A1F78A8
:10981700831272A0788312724F787B127277126963
:1098270016C004C005C006C007787F12724F78774C
:10983700127277126916D003D002D001D0001268D5
:1098470021E4FBFAF9784012691612ED0F7BE17AF1
:109857002E79657842126916900FE6E0FBA3E0FACD
:10986700A3E0F990000C12722B788312724F787F65
:10987700127277126916C004C005C006C007787B4C
:1098870012724F7877127277126916D003D002D00E
:1098970001D000126825E4FBFAF978401269161224
:1098A700ED0F7BE17A2E79657842126916900FE603
:1098B700E0FBA3E0FAA3E0F990001012722B787B8B
:1098C70012724FA804A905AA06AB07126916C004AD
:1098D700C005C006C007787712724FA804A905AA69
:1098E70006AB07126916D003D002D001D000126868
:1098F70025C004C005C006C007787F12724FA804B0
:10990700A905AA06AB07126916A804A905AA06ABFA
:1099170007D007D006D005D004126821C004C005BF
:10992700C006C007788312724FA804A905AA06AB20
:1099370007126916A804A905AA06AB07D007D0061F
:10994700D005D004126821C004C005C006C007783E
:109957008312724F7877127277126916C004C005A6
:10996700C006C007787F12724F787B127277126930
:1099770016A804A905AA06AB07D007D006D005D0BC
:1099870004126825E4FBFAF97840126916D003D06F
:1099970002D001D000126A1F12CA8B7BE17A2E799E
:1099A700657842126916900FE6E0FBA3E0FAA3E0A0
:0799B700F990001402722B6D
:0A778A0043126A0000EF41121900DB
:07F60B0075DE2F75BC8F2294
:10F24700EF4480F5BC75BC400000E5BC30E5FB53DE
:0AF25700BCDFAFBDEFFEADBDEDFF63
:01F26100228A
:06F61800EF24FF92C02266
:0DF50200EF60044391802253917FC2972255
:10D59F00900FEF1272B800000000E4900FF3F0A3A9
:10D5AF00F0A3F0A3F07F0F12F2477F0F12F247E4C0
:10D5BF00900FF3F0A3F0900FEFE0F8A3E0F9A3E0E2
:10D5CF00FAA3E0FB7F0F12F247EE3395E0FDFCEB81
:10D5DF002FFFEA3EFEE93DFDE83CFC900FEF127293
:10D5EF00AC900FF4E004F07006900FF3E004F0C37A
:10D5FF00900FF4E09440900FF3E06480948040B675
:10D60F00900FEFE0FCA3E0FDA3E0FEA3E0FF7806A0
:10D61F0012719A900FEF1272AC90126AE0FBA3E0B6
:10D62F00FAA3E0F9127078FFAEF0EE3395E0FDFC4F
:10D63F00E47BFF7A0FF9F8127127900FEFE0F8A350
:10D64F00E0F9A3E0FAA3E0FB12EC50900FF5EEF037
:10D65F00A3EFF0FDAC06EC126B4BE4FBFA797A7892
:04D66F0044126A1FD8
:01D673002294
:10C0F200900FE61272B800000000E4900FEEF0120A
:10C10200D59F7B9A7A99795978C01268257B487AAB
:10C11200E1793A783F126A1F900FEA1272ACE4FF9B
:10C12200FE7D807C3F900FEAE0F8A3E0F9A3E0FAFD
:10C13200A3E0FB126ABC600E400C900FEA1272B8C8
:10C142003F8000008022E4FFFEFDFC900FEAE0F851
:10C15200A3E0F9A3E0FAA3E0FB126ABC500A900F35
:10C16200EA1272B800000000901219E0703804F070
:10C17200E4900FEEF0900FEEE0FBC3941450279082
:10C182000FEAE0FCA3E0FDA3E0FEA3E0FFEB25E065
:10C1920025E0241AF582E43412F5831272AC900F72
:10C1A200EEE004F080CF900FEE7413F0900FEEE00B
:10C1B200FBD394004057EB25E025E02416F582E4FA
:10C1C2003412F583E0FCA3E0FDA3E0FEA3E0FF90C0
:10C1D200121E1272AC900FE6E0FCA3E0FDA3E0FE9B
:10C1E200A3E0FFEB25E025E0241AF582E43412F502
:10C1F20083E0F8A3E0F9A3E0FAA3E0FB126825903C
:10C202000FE61272AC900FEEE014F0809F900FE6F2
:10C21200E0FCA3E0FDA3E0FEA3E0FFA3E0F8A3E0BF
:10C22200F9A3E0FAA3E0FB126825900FE61272ACC4
:10C23200E4FBFA79A07841900FE6E0FCA3E0FDA3CD
:10C24200E0FEA3E0FF126A1F900FEA1272AC900F99
:10C25200EAE0FCA3E0FDA3E0FEA3E0FF90121A12C5
:10C2620072AC900FEAE0FCA3E0FDA3E0FEA3E0FFC6
:01C2720022A9
:10001600900FE6E590F0E4F580F5907592307591D5
:10002600B0759601F59575B08475C099F5C8C2A9E5
:0B00360053AFFE53AFDF7587020000E0
:01004100229C
:10EF5A00AF90E4F580F5907592307591B075A00187
:10EF6A00F596F59575B084F5C0F5C8C2A953AFFEFC
:0AEF7A0053AFDF75870200008F908F
:01EF8400226A
:0CF5280012EEFDD2A943AF0143AF202238
:10F3CF0043BA8090FE8074D0F090FE82E4F053BA7E
:02F3DF007F228B
:10F14F0075100175112C90FE82E020E60DE511156A
:10F15F00117002151014451070EC90FE82E054BF30
:02F16F00F0228C
:03F5340043BA8057
:09F5370090FE817401F002F14F15
:10F12C0012F474900FEEE0FBA3E0FAA3E0F98E82E8
:0AF13C00758300EF126F9F12F48339
:09F1460090FE817406F002F14F05
:0EF4CB0090FE86EFF090FE817402F002F14F89
:0FF4740090FE817404F012F14F90FE87E0FF22AA
:10F22B0043BA8012F537AF0612F4CB12F23EAF059C
:03F23B0012F4CBFF
:09F23E0090FE817403F002F14F0F
:0EF4D90090FE82E4F090FE817405F002F14F87
:0FF4830090FE827401F090FE817405F002F14F4B
:10F3560012F53412F233AF0312F4CB12F23E12F16D
:05F366004653BA7F22AE
:02F20E00AE0749
:10F2100012F22B12F537AF0612F4CB12F23E12F4B3
:0AF220007412F48312F14653BA7F12
:01F22A0022C1
:0BEC9400900FF2EBF0A3EAF0A3E9F010
:10EC9F00E4FE12F53412F4CB12F23EEEC39D501D7A
:10ECAF00900FF2E0FBA3E0FAA3E0F98E82758300E8
:10ECBF00126F2DFF12F4CB12F23E0E80DE12F146D0
:03ECCF0053BA7FB6
:01ECD200221F
:0BEECC00900FEEEBF0A3EAF0A3E9F0DA
:10EED70043BA8012F537EF04FF12F4CB12F23EE487
:10EEE700FEED14FFEEC39F500612F12C0E80F212B6
:05EEF700F12C53BA7F6D
:01EEFC0022F3
:04EC0C00AE07AC03A0
:10EC100012F22B12F537EE04FF12F4CBE4FEEC14E3
:10EC2000FFEEC39F501D12F47490100FE0FBA3E0A1
:10EC3000FAA3E0F98E82758300EF126F9F12F4D968
:0FEC40000E80DB12F47490100F12F13253BA7F72
:01EC4F0022A2
:10779400607511A40A0532000000081E01010001F1
:1077A40042C233330000000000000000000000006B
:1077B40000003F8000003F80000000000000000047
:1077C40000000000000000000000000000000000B5
:1077D40000000000000000000000000000000000A5
:1077E4000000000000000000000000000000000095
:1077F4000000000000000000000000000000000085
:097804000000000000000000007B
:10EEFD00E4F580F594F593D292D296759230759192
:10EF0D00B075A0B8759640F59575B034F5B2F5B1FC
:0FEF1D0075C019F5B4F5B375C820F5CAF5C9224A
:0DF50F00438904E4F58AF58CC28CD2A92250
:10F4550043D10275D54075D4A243D10843AF2022CC
:10F2FC00759850438E40538EFE53890F758BCC7589
:09F30C008DFFC2ABD28ED2992212
:10F3AA00759A50438E0475D78F75D6FD438E1043D8
:03F3BA00A8012285
:0CF54000D288D2A8D28AD2AA438F10220F
:04000E0075C7602230
:0400560075C1272227
:04009E0043C1102228
:0BE22000900FE6EBF0A3EAF0A3E9F09A
:10E22B00E4FFA3F0A3F0900FE6E0FBA3E0FAA3E07A
:10E23B00F98F82758300126F2DFD900FEAE02DF0A0
:10E24B00900FE9E03400F00FEFB473DA900FE9E0D0
:10E25B00FEA3E0FF900FE6E0FBA3E0FAA3E0F9904A
:10E26B000073EE8FF01270FA7F807E0112F099909E
:10E27B000FE6E0FBA3E0FAA3E0F9900FF0E4F0A3C4
:0AE28B007475F07F807E0102EB83C2
:0BD95600900FE6EBF0A3EAF0A3E9F06D
:10D96100E4A3F0A3F0A3F0900FF1F0A37475F07F9E
:10D97100807E0112EB3E900FE9E0FFC394735029C2
:10D98100900FE6E0FBA3E0FAA3E0F98F8275830034
:10D99100126F2DFF900FEBE02FF0900FEAE03400B3
:10D9A100F0900FE9E004F080CD900FE6E0FBA3E0FA
:10D9B100FAA3E0F99000731270A3FF900FEAE0B5AB
:10D9C100F008A3E0B507037F0122E4900FE9F0908E
:10D9D1000FE9E0FF7C007B0124A4F9EC3411FA1279
:10D9E1006F14FE900FE6E0FBA3E0FAA3E0F98F824B
:10D9F100758300EE126F9F900FE9E004F0E0B475BB
:03DA0100CE7F00D5
:01DA040022FF
:08F5FC00EF640124FF92B52227
:10EE670012EEFD12F2FC12F3AA12F50F12F455126C
:10EE7700F54012F60B12F3CF1200567B017A0E798A
:10EE8700F112D956E4FF12F5FC7F057E0012F297C6
:03EE9700D2AF22D5
:0EF4E700E4F5C7F5C5F5C675C3FF75C4FF2271
:10EB3E00AD07AC06A2AF92D5C2AF75C78075C50141
:10EB4E00ECF5C3AF058FC475C65A75C6A500E5C2F0
:10EB5E00126F8D0DBD00010C740129F9E43AFA9083
:10EB6E000FF174FFF5F012704C45F070D312F4E70C
:05EB7E00A2D592AF22B8
:10F09900AD07AC06A2AF92D5ECF5C3AF058FC47529
:10F0A900C78075C50375C65A75C6A50012F4E7E58C
:06F0B9008024FF92AF224B
:10EB8300AD07AC06A2AF92D5C2AF75C78075C502FB
:10EB9300ECF5C3AF058FC4126F14F5C275C65A7571
:10EBA300C6A5000DBD00010C740129F9E43AFA90E1
:10EBB3000FF074FFF5F012704C45F070D312F4E7C8
:05EBC300A2D592AF2273
:0B780D00C1214112DE004212DF00002A
:10EDF70043BA8090FFF2E4F090FFF07417F0A37429
:10EE070070F090FF647480F090FF60E4F0A3F0A3CB
:10EE1700740BF0A374B8F053BA7F43D12075D34075
:09EE270075D2A243AF40C22122C2
:10F36B0043BA80EFB4010543FE80800553FE7FC294
:05F37B00A653BA7F2239
:0300A30002DF0D6C
:10DF0D00C0E0C0F0C083C082C0D075D00853EFFB15
:10DF1D009012DEE0FE7019A3E07004A3E064C870F7
:10DF2D006D9012DFF0A3F0FF12F36B53D17F805E83
:10DF3D00EE640170599012DFE0FEA3E0FFC3945828
:10DF4D00EE940250367C007D64126FC1ED4C702B47
:10DF5D009012DFE0FEA3E0FF7C007D64126FC1EF45
:10DF6D0054016401FF12F36B9012DFE0FEA3E0FF9A
:10DF7D007C007D64126FC1EF1392A09012DFE0B4AC
:10DF8D00030CA3E0B4E8079012DFE4F0A3F0D0D0C7
:09DF9D00D082D083D0F0D0E03234
:10F38000E49012DEF0A3F0A3F03021087F0112F325
:05F390006B43D1802257
:0FF492009012DE7401F0E4A3F0A3F043D18022C6
:09F5CB00EF6003D22122C22122CB
:10F29700D3EF9400EE94004010007D207C28DCFE24
:09F2A700DDFCEF1F70EA1E80E798
:01F2B000223B
:10F39500D3EF9400EE9400400B7D06DDFEEF1F7069
:04F3A500EF1E80ECEB
:01F3A9002241
:108502000000000000000000002F00000000070033
:10851200070000147F147F1400242A7F2A120023EC
:10852200130864620036495522500000050300001A
:1085320000001C224100000041221C000014083EE1
:1085420008140008083E0808000000A060000008A7
:1085520008080808000060600000002010080402FB
:10856200003E5149453E0000427F400000426151B9
:108572004946002141454B31001814127F10002753
:1085820045454539003C4A49493000017109050316
:1085920000364949493600064949291E0000363647
:1085A20000000000563600000008142241000014AA
:1085B2001414141400004122140800020151090687
:1085C20000324959513E007C1211127C007F494908
:1085D2004936003E41414122007F4141221C007F39
:1085E20049494941007F09090901003E4149497A47
:1085F200007F0808087F0000417F410000204041C1
:108602003F01007F08142241007F40404040007F2C
:10861200020C027F007F0408107F003E4141413E70
:10862200007F09090906003E4151215E007F0919B8
:1086320029460046494949310001017F0101003FB5
:108642004040403F001F2040201F003F4038403F35
:108652000063140814630007087008070061514999
:10866200454300007F41410000552A552A5500002C
:1086720041417F00000402010204004040404040AA
:10868200000001020400002054545478007F484442
:10869200443800384444442000384444487F003879
:1086A2005454541800087E0901020018A4A4A47CA2
:1086B200007F080404780000447D4000004080846C
:1086C2007D00007F102844000000417F4000007CB4
:1086D20004180478007C08040478003844444438C0
:1086E20000FC242424180018242418FC007C08040C
:1086F200040800485454542000043F444020003CE5
:108702004040207C001C2040201C003C4030403C6B
:10871200004428102844001CA0A0A07C00446454FB
:108722004C4414141414141400000000000000003F
:108732000000000000000000000000000000000037
:1087420000000000000000000000000000F800002F
:108752000000000000333000000000100C06100C76
:108762000600000000000000000040C07840C07811
:108772004000043F04043F040400007088FC0830F9
:108782000000001820FF211E0000F008F000E01891
:10879200000000211C031E211E0000F0088870004A
:1087A20000001E2123241927211010160E0000009C
:1087B20000000000000000000000000000E01804BB
:1087C2000200000000071820400000020418E00028
:1087D20000000040201807000000404080F0804068
:1087E20040000202010F01020200000000F000003E
:1087F20000000101011F0101010000000000000052
:10880200000080B0700000000000000000000000C6
:10881200000000010101010101010000000000004F
:108822000000003030000000000000000000806006
:108832001804006018060100000000E0100808108B
:10884200E000000F102020100F00001010F80000B0
:1088520000000020203F2020000000700808088847
:108862007000003028242221300000300888884817
:1088720030000018202020110E000000C02010F847
:10888200000000070424243F240000F80888880818
:1088920008000019212020110E0000E0108888181D
:1088A2000000000F112020110E0000380808C838FF
:1088B20008000000003F00000000007088080888DF
:1088C2007000001C222121221C0000E01008081068
:1088D200E0000000312222110F00000000C0C000A1
:1088E20000000000003030000000000000800000A6
:1088F20000000000806000000000000080402010A6
:10890200080000010204081020004040404040409E
:108912004000040404040404040000081020408001
:108922000000002010080402010000704808080836
:10893200F0000000003036010000C030C828E81006
:10894200E0000718272423140B000000C038E000C1
:108952000000203C23020227382008F8888888700B
:108962000000203F202020110E00C0300808080817
:108972003800071820202010080008F808080810FE
:10898200E000203F202020100F0008F88888E80827
:108992001000203F20202320180008F88888E808CB
:1089A2001000203F200003000000C03008080838F3
:1089B200000007182020221E020008F80800000804
:1089C200F808203F210101213F20000808F808088B
:1089D20000000020203F2020000000000808F808C6
:1089E2000800C08080807F00000008F888C0281836
:1089F2000800203F20012638200008F80800000067
:108A02000000203F20202020300008F8F800F8F86D
:108A12000800203F003F003F200008F830C0000857
:108A2200F808203F200007183F00E010080808104F
:108A3200E0000F10202020100F0008F80808080896
:108A4200F000203F210101010000E0100808081099
:108A5200E0000F18242438504F0008F888888888CE
:108A62007000203F2000030C3020007088080808A6
:108A720038000038202121221C00180808F80808B4
:108A820018000000203F2000000008F8080000083D
:108A9200F808001F202020201F000878880000C846
:108AA2003808000007380E010000F80800F8000836
:108AB200F800033C0700073C030008186880806840
:108AC200180820302C03032C30200838C800C8387E
:108AD20008000000203F2000000010080808C838E5
:108AE20008002038262120201800000000FE020283
:108AF20002000000007F40404000000C30C0000037
:108B02000000000000010638C00000020202FE0060
:108B12000000004040407F0000000000040202020A
:108B2200040000000000000000000000000000003F
:108B3200000080808080808080800002020400002B
:108B42000000000000000000000000008080808023
:108B520000000019242222223F2008F80080800011
:108B62000000003F112020110E00000000808080D4
:108B72000000000E112020201100000000808088DB
:108B8200F800000E112020103F200000808080801D
:108B92000000001F222222221300008080F0888819
:108BA20088180020203F2020000000008080808064
:108BB2008000006B94949493600008F80080808099
:108BC2000000203F210000203F20008098980000F4
:108BD20000000020203F2020000000000080989824
:108BE200000000C08080807F000008F800008080C4
:108BF2008000203F24022D302000000808F80000E9
:108C020000000020203F20200000808080808080A3
:108C12008000203F20003F20003F80800080808035
:108C22000000203F210000203F2000008080808043
:108C32000000001F202020201F0080800080800074
:108C4200000080FFA12020110E0000000080808023
:108C52008000000E112020A0FF8080808000808094
:108C6200800020203F2120000100000080808080C1
:108C720080000033242424241900008080E08080B6
:108C820000000000001F2020000080800000008003
:108C92008000001F202020103F2080808000008064
:108CA200808000010E300806010080800080008074
:108CB20080800F300C030C300F0000808000808019
:108CC20080000020312E0E31200080808000008044
:108CD200808080818E7018060100008080808080F4
:108CE20080000021302C2221300000000000807C16
:108CF200020200000000003F404000000000FF00B0
:108D0200000000000000FF0000000002027C800062
:108D120000000040403F0000000000060101020286
:108D2200040400000000000000000000E0F8FCFE67
:108D3200FEFEFEFEFCF8E0000000E0FFFFFFFF1F6A
:108D42000301031FFFFFFFFFE000FFFFFFFFFF0024
:108D520000000000FFFFFFFFFF00FFFFFFFFFF001B
:108D620000000000FFFFFFFFFF0007FFFFFFFFF80B
:108D7200C080C0F8FFFFFFFF07000000071F3F7F12
:108D82007F7F7F7F3F1F070000000000000080C040
:108D9200FCFCFCFCFC000000000000007F7F7F7FE9
:108DA200FFFFFFFFFF0000000000000000000000C6
:108DB200FFFFFFFFFF0000000000000000000000B6
:108DC200FFFFFFFFFF00000000000000C0C0C0C0A6
:108DD200FFFFFFFFFFC0C0C0C00000003F3F3F3F9A
:108DE2003F3F3F3F3F3F3F3F3F0000F8F8FCFEFE62
:108DF200FEFEFEFCFCF8E0000000001F0F0703036C
:108E020003070FFFFFFFFFFF00000000000000004C
:108E12000000E0FFFFFFFF1F00000000000000C095
:108E2200F8FEFFFF7F0F0100000000C0F0FCFFFF13
:108E3200FFDFC7C1C0C0C0C0C000003F3F3F3F3FCF
:108E42003F3F3F3F3F3F3F3F3F0000F8F8FCFEFE01
:108E5200FEFEFEFEFCF8F0800000001F0F07030379
:108E6200030307FFFFFFFFFF000000000000F8F808
:108E7200F8FCFEFFFFBF0F01000000000000070723
:108E820007070F1FFFFFFFFEF000F8F0E0E0C0C091
:108E9200C0C0E0F0FFFFFFFF3F001F1F3F3F7F7F8B
:108EA2007F7F7F3F3F1F0F03000000000000000094
:108EB200C0F8FCFCFCFCFC00000000000000E0FC30
:108EC200FF7FFFFFFFFFFF0000000080F0FFFF3F7A
:108ED2000300FFFFFFFFFF000000FCFFFFFFF1F0B8
:108EE200F0F0FFFFFFFFFFF0F0F00F0F0F0F0F0F7B
:108EF2000F0FFFFFFFFFFF0F0F0F0000000000002A
:108F020000003F3F3F3F3F0000000000FCFCFCFC34
:108F1200FCFCFCFCFCFCFCFC00000000FFFFFFFF73
:108F2200FF0303030303030300000000FFFFFFFF2F
:108F3200FFFCFCFCFCF8F0C0000000000707030384
:108F42000303070FFFFFFFFFFE0000F8F0E0C0C0C1
:108F5200C0C0E0F8FFFFFFFF3F00001F3F3F7F7FE1
:108F62007F7F7F7F3F1F0F010000000080E0F0F84D
:108F7200FCFEFEFEFEFEFC00000000F8FFFFFFFF0D
:108F82000F030101010103000000FFFFFFFFFFF8D3
:108F9200FCFEFEFEFEFCF8E00000FFFFFFFFFF0309
:108FA20001010307FFFFFFFFFF0007FFFFFFFFF8BD
:108FB200C08080E0FFFFFFFF3F000000071F3F3F30
:108FC2007F7F7F7F3F1F0F010000FCFCFCFCFCFC4D
:108FD200FCFCFCFCFCFCFCFCFC00030303030303A1
:108FE2000303C3FFFFFFFFFF1F000000000000009C
:108FF200C0FCFFFFFFFF1F0100000000000080F81F
:10900200FFFFFFFF3F0300000000000000F8FFFF2A
:10901200FFFF7F0300000000000000303F3F3F3FA2
:109022003F0700000000000000000000E0F8FCFC28
:10903200FEFEFEFEFCFCF8E0800000FFFFFFFFFFEB
:1090420003010103FFFFFFFFFF0000073FFFFFFFD8
:10905200FFFCF8FCFFFF1F070000E0FCFEFFFF0F14
:10906200070F1F3FFFFFFFFEF0007FFFFFFFFFE044
:10907200C08080E0FFFFFFFF7F0000070F1F3F7FE0
:109082007F7F7F7F3F1F0F0300000080E0F8FCFE20
:10909200FEFEFEFEFCF8E0800000F8FFFFFFFF0F7F
:1090A2000101030FFFFFFFFFF000FFFFFFFFFFE0E3
:1090B200C08080C0FFFFFFFFFF0000071F3F7F7FD0
:1090C2007F7F3F1FFFFFFFFF7F000000C080808087
:1090D20080C0F0FFFFFFFF1F000000007F7F7F7F47
:1090E2007F7F3F1F0F07000000000000000000000C
:1090F200000000000000000000000000000000FF6F
:10910200FFFFFFFF00000000000000000000000F52
:109112000F0F0F0F0000000000000000000000E031
:10912200E0E0E0E00000000000000000000000FFBE
:10913200FFFFFFFF00000000000000000000000130
:0A914200010101010000000000001F
:1078180064000008000000000000000000000000F4
:107828000000000000000000000000000000000050
:107838000000000000000000000000000000000040
:107848000000000000000000000000000000000030
:107858000000000000000000000000000000000020
:107C180000000000640004080000000000000000EC
:107C2800000000000000000000000000000000004C
:107C3800000000000000000000000000000000003C
:107C4800000000000000000000000000000000002C
:107C5800000000000000000000000000000000001C
:1080180000000000000000006400080800000000E4
:108028000000000000000000000000000000000048
:108038000000000000000000000000000000000038
:108048000000000000000000000000000000000028
:108058000000000000000000000000000000000018
:108418000000000000000000000000004800000B01
:078428000B0B0B0B0B0B0B00
:10E89B00900FE6EBF0A3EAF0A3E9F012DC03900F84
:10E8AB00E6E0FBA3E0FAA3E0F9900002126F2DFF64
:10E8BB0012F557900FE6E0FBA3E0FAA3E0F9900006
:10E8CB0004126F2DFF12F315900FE6E0FBA3E0FA95
:10E8DB00A3E0F9900003126F2DFF12F6217F0102C6
:02E8EB00F594A2
:0BBA1800900FE6EFF0A3EDF0A3EBF0C1
:10BA2300A3E0131313541F752700F528900FF0E0BC
:10BA3300600302BACBF525AF257E00C3EF9528EE50
:10BA43009527400302BB6E900FE7E02FFFEE33FE16
:10BA5300EF7807C333CE33CED8F9FF900FE6E07CFF
:10BA6300002FF52AEC3EF529900FE8E0FFE5258F3E
:10BA7300F0A485F02BF52CE4F526900FE8E0FFE524
:10BA830026C39F503EAF267E00E52C2FFDEE352BBF
:10BA9300FC900FEAE0FBA3E0FAA3E0F98D828C832C
:10BAA300126F2DFDE52A2FFFEE3529FE900FEDE0F5
:10BAB300FBA3E0FAA3E0F98F828E83ED126F9F055B
:10BAC3002680B7052502BA3AE4F525AF257E00C3E3
:10BAD300EF9528EE9527400302BB6E900FE7E02F0A
:10BAE300FFEE33FEEF7807C333CE33CED8F9FF90A2
:10BAF3000FE6E07C002FF52AEC3EF529900FE8E0F5
:10BB0300FFE5258FF0A485F02BF52CE4F526900FA7
:10BB1300E8E0FFE526C39F504DAF267E00E52A2FC0
:10BB2300FDEE3529FC900FEDE0FBA3E0FAA3E02D39
:10BB3300F9EA3CFAC003C002C001126F14FDE52C00
:10BB43002FFFEE352BFE900FEAE0FBA3E0FAA3E014
:10BB5300F98F828E83126F2D4DD001D002D0031244
:10BB63006F8D052680A8052502BACEE4F525AF25FD
:10BB73007E00C3EF9528EE9527400302BC02900F89
:10BB8300E7E02FFFEE33FEEF7807C333CE33CED893
:10BB9300F9FF900FE6E07C002FF52AEC3EF52990A3
:10BBA3000FE8E0FFE5258FF0A485F02BF52CE4F5F5
:10BBB30026900FE8E0FFE526C39F503EAF267E00A8
:10BBC300E52C2FFDEE352BFC900FEAE0FBA3E0FA0A
:10BBD300A3E0F98D828C83126F2DFDE52A2FFFEEF2
:10BBE3003529FE900FEDE0FBA3E0FAA3E0F98F8285
:0FBBF3008E83ED126F9F052680B7052502BB716B
:01BC0200221F
:06ECD3007B017A087908BC
:0BECD900900FF5EBF0A3EAF0A3E9F0C8
:10ECE400E4F52FF530900FF5E0FBA3E0FAA3E0F98B
:10ECF400853082852F83E4126F9F0530E5307002E2
:0AED0400052FB400E0E52FB404DB96
:01ED0E0022E2
:0BE0B200900FE6EFF0A3EDF0A3EBF001
:10E0BD00A3E0131313541F752700F528E4F525AFBE
:10E0CD00257E00C3EF9528EE95275055900FE7E07C
:10E0DD002FFFEE33FEEF7807C333CE33CED8F9FFE3
:10E0ED00900FE6E07C002FF52AEC3EF529E4F526AD
:10E0FD00900FE8E0FFE526C39F50227E00E52A251C
:10E10D0026FFEE3529FE900FEAE0FBA3E0FAA3E02F
:10E11D00F98F828E83E4126F9F052680D3052580AB
:01E12D009E53
:01E12E0022CE
:10EE9A00E4F525F52674082526F58274003525F54E
:10EEAA0083E0FF74082526F58274043525F583EF7F
:10EEBA00F00526E52670020525B400D9E525B40437
:01EECA00D473
:01EECB002224
:03F61E0002E9D727
:0AE5CB00900FF5EFF0900FF7EBF062
:10E5D500AF058F2F900FF8E0FFE52FC39F504790B1
:10E5E5000FF5E0FFAD2F12F1D2E52F75F080A48570
:10E5F500F031F532E4F530900FF7E0FFE530C39FD9
:10E6050050207E00E5322530FFEE3531FE74082FAF
:10E61500F58274003EF583E0FF7D0112F287053037
:06E6250080D5052F80AE38
:01E62B0022CC
:0E9E4100900FE6EBF0A3EAF0A3E9F0A3EDF03A
:109E4F006003029F53F525E4F526E52675F080A4FF
:109E5F0085F029F52A2480F52CE43529F52B852961
:109E6F0027852A28C3E528952CE527952B503E7486
:109E7F00882528F58274003527F583E0C4333354E1
:109E8F00C0FF74082528F58274003527F583E01389
:109E9F0013543F4FFF74082528F58274003527F5BA
:109EAF0083EFF00528E52870BB052780B70526E569
:109EBF0026B40796E5251313543F75F080A485F05B
:109ECF0029F52AE525540375F002A4FFAEF0C374FB
:109EDF00069FF52CE49EF52BE4F5267E00E52A255A
:109EEF0026FFEE3529FE900FE6E0FBA3E0FAA3E094
:109EFF00F98F828E83126F2DFFAE2CA80608800279
:109F0F00C333D8FC54C0FF74882526F582E434038C
:109F1F00F583E0FE1313543F4FFF74882526F58217
:109F2F00E43403F583EFF00526E526B480AD7B011D
:109F3F007A00790812E9D70525E525C39420500347
:109F4F00029E5622900FE9E06401600302A07AF5A9
:109F5F0025E4F526C374079526FFE49400FEEF78F9
:109F6F0007C333CE33CED8F9F52A8E292480F52CAA
:109F7F00E43529F52B852927852A28C3E528952C33
:109F8F00E527952B503E74082528F5827400352758
:109F9F00F583E025E025E0FF74882528F58274FF1E
:109FAF003527F583E0C4131354034FFF7408252896
:109FBF00F58274003527F583EFF00528E52870BB8F
:109FCF00052780B70526E52664077088E525131356
:109FDF00543FFFC374079FFFE49400FEEF7807C35D
:109FEF0033CE33CED8F9F52A8E29E525540375F0F3
:109FFF0002A4FFAEF0C374069FF52CE49EF52BE48C
:10A00F00F5267E00E52A2526FFEE3529FE900FE680
:10A01F00E0FBA3E0FAA3E0F98F828E83126F2DFF8E
:10A02F00AE2CA806088002C313D8FC5403FF740893
:10A03F002526F582E43400F583E0FE25E025E04F88
:10A04F00FF74082526F582E43400F583EFF005262A
:10A05F00E526B480AD7B017A00790812E9D7052592
:10A06F00E525C394205003029F6022900FE9E0641E
:10A07F0002600302A15FF525E4F526E52675F08061
:10A08F00A485F029F52A247EF52CE43529F52B85B6
:10A09F002927852A28C3E528952CE527952B5026B7
:10A0AF00740A2528F58274003527F583E0FF7408BC
:10A0BF002528F58274003527F583EFF00528E5286C
:10A0CF0070D3052780CF900FE6E0FBA3E0FAA3E063
:10A0DF00F975F002E525A4252AF582E5F03529F575
:10A0EF0083126F2DFF7408252CF5827400352BF524
:10A0FF0083EFF0E52A2401FFE43529FE75F002E530
:10A10F0025A42FF582E5F03EF583C083C082900F22
:10A11F00E6E0FBA3E0FAA3E0F9D082D083126F2D23
:10A12F00FF7409252CF5827400352BF583EFF005AC
:10A13F0026E5266408600302A08A7B017A0079086D
:10A14F0012E9D70525E525C39440500302A08722C5
:10A15F00900FE9E06403600302A23DF525E4F526C4
:10A16F00E52675F080A485F029F52A247FF52CE4E7
:10A17F003529F52BF527852C28D3E528952AE527B2
:10A18F009529402674062528F58274003527F58316
:10A19F00E0FF74082528F58274003527F583EFF06A
:10A1AF00E528152870D3152780CFE52575F002A473
:10A1BF00FFE52A247FCDE43529CDC39FFFED95F030
:10A1CF00FE900FE6E0FBA3E0FAA3E0F98F828E8307
:10A1DF00126F2DFF7409252AF58274003529F58336
:10A1EF00EFF0E52575F002A4FFE52A247ECDE435D6
:10A1FF0029CDC39FFFED95F08F82F583126F2DFF51
:10A20F007408252AF58274003529F583EFF00526A9
:10A21F00E5266408600302A16F7B017A00790812BA
:0EA22F00E9D70525E525C39440500302A16C34
:01A23D0022FE
:06CEE6007B017A087908C7
:0ECEEC00900FF5EBF0A3EAF0A3E9F0A3EDF050
:10CEFA00E4F52F900FF8E0FFE52FC39F400302CF20
:10CF0A00F9E4F530E53075F080A485F033F5342482
:10CF1A0080F536E43533F535853331853432C3E56A
:10CF2A00329536E5319535503D74882532F582744F
:10CF3A00003531F583E0C43333335480FF74082558
:10CF4A0032F58274003531F583E0C3134FFF74085C
:10CF5A002532F58274003531F583EFF00532E5327A
:10CF6A0070BC053180B80530E530B40797E52F135A
:10CF7A001313541F75F080A485F033F534E52F544C
:10CF8A0007FFC374079FF536E49400F535E4F530DE
:10CF9A007E00E5342530FFEE3533FE900FF5E0FBD9
:10CFAA00A3E0FAA3E0F98F828E83126F2DFFAE36CB
:10CFBA00A806088002C333D8FC5480FF7488253041
:10CFCA00F582E43403F583E0FEC3134FFF7488252A
:10CFDA0030F582E43403F583EFF00530E530B480B0
:0FCFEA00AF7B017A00790812E9D7052F02CEFD3F
:01CFF9002215
:0EC81700900FE6EBF0A3EAF0A3E9F0A3EDF03A
:10C82500E4F525900FE9E0FFE525C39F400302C924
:10C8350041E4F526C374079526FFE49400FEEF78DE
:10C8450007C333CE33CED8F9F52A8E292480F52CAB
:10C85500E43529F52B852927852A28C3E528952C34
:10C86500E527952B503D74082528F582740035275A
:10C87500F583E025E0FF74882528F58274FF3527C8
:10C88500F583E0C413131354014FFF74082528F5ED
:10C895008274003527F583EFF00528E52870BC057F
:10C8A5002780B80526E52664077089E52513131347
:10C8B500541FFFC374079FFFE49400FEEF7807C37E
:10C8C50033CE33CED8F9F52A8E29E5255407FFC393
:10C8D50074079FF52CE49400F52BE4F5267E00E51E
:10C8E5002A2526FFEE3529FE900FE6E0FBA3E0FAA8
:10C8F500A3E0F98F828E83126F2DFFAE2CA8060858
:10C905008002C313D8FC5401FF74082526F582E480
:10C915003400F583E0FE25E04FFF74082526F582F7
:10C92500E43400F583EFF00526E526B480AF7B01FE
:0CC935007A00790812E9D7052502C8280D
:01C9410022D3
:0AF59400EF600302F3E112F51C2200
:0BF55700EFD394FF40027FFF02F4A1FD
:10F31500EF60097F0112F3F27F018007E4FF12F32A
:07F32500F2E4FF12F40322E1
:03F6210002F414DC
:10AF2C00EF75F00A84900FF0F0EF75F00A84A3E54A
:10AF3C00F0F0A3740AF0ED75F00A84A3F0ED75F04F
:10AF4C000A84A3E5F0F0A3740AF0EB75F00A84A36D
:10AF5C00F0EB75F00A84A3E5F0F0900FE67407F0BF
:10AF6C00900FE6E0FFC364809480500302B195EF2C
:10AF7C003395E0FE74002FF58274003EF583E0FDFE
:10AF8C0074F02FF582740F3EF583E06D700302B1FF
:10AF9C006BE4900FE7F0E4FBEB2401FFE433FEEFEE
:10AFAC007807C333CE33CED8F9FDAC06900FE6E06C
:10AFBC00FF3395E0FEEFC4F8540FC868FFEEC4549D
:10AFCC00F048FEED2FFFEC3E900FEAF0A3EFF0906F
:10AFDC000FEAE0FCA3E0FD2410FEE43CA3F0A3CEBA
:10AFEC00F0900FE8ECF0A3EDF0900FECE0FEA3E096
:10AFFC00FF900FE8E0FCA3E0FDC39FEC9E504C7467
:10B00C00882DF58274003CF583E0FE74082DF582E2
