:10D7270041543A5354520D0A0041543A4F4B004169
:10D73700543A454E440D0A0041543A454E4400417F
:10D74700543A424155443D25640D0A004F4B2B5333
:10D7570065740041543A414456543D25640D0A000E
:10D767006164765F74696D653A000D0A004368610C
:10D777006E676564204E616D6520746F3A00415491
:10D787003A525353493F0D0A00525353493A004105
:10D79700542B524553540D0A004D7920626C756520
:10D7A700746F6F7468000000000000000000000044
:10D7B7000000000000000000000000000000000062
:10D7C700000041543A4E414D453D00000000000025
:0ED7D700000000000000000000000000000044
:0876A500C11F4111A300C12027
:10005E0090100FEBF0A3EAF0A3E9F090100FE0FB85
:10006E00A3E0FAA3E0F9126F05601C201FFDD21F5A
:10007E0090100FE0FBA3E475F001127053A9F0FA93
:0D008E00126F05F59B80D4E49011A3F022C1
:0300430002E120B7
:10E12000C0E0C083C082C0D075D008E59A30E10558
:10E13000539AFDC21FE59A30E057539AFE9011A3FF
:10E14000E0FF04F074232FF582E43411F583E59B9E
:10E15000F09011A3E0FF2422F582E43411F583E06E
:10E16000B40A2E74212FF582E43411F583E0901166
:10E17000A3B40D0AE02421F582E434118008E024E0
:10E1800022F582E43411F583E4F0D2209011A3E467
:0AE19000F0D0D0D082D083D0E0326E
:10EFAA00900FE6EBF0A3EAF0A3E9F030201DC220AF
:10EFBA00900FE6E0FBA3E0FAA3E0F8AC02AD037B16
:0EEFCA00017A1179231273F87F01227F002251
:06E2F5007B017D057C00A9
:10E2FB00901009ECF0A3EDF0901006EBF0A3EAF010
:10E30B00A3E9F0C220801E20202790100974FFF58E
:10E31B00F012703D45F07002FF22901006E0FBA357
:10E32B00E0FAA3E0F912005E7F0A7E0012F304808C
:10E33B00D6C22090100EE0FF7E0078237C117D0169
:10E34B0090100BE0FBA3E0FAA3E0F912759BEF70C2
:07E35B00037F01227F002275
:10F02C0090100B74FFF0A374D7F0A37430F0A3749A
:10F03C0005F07BFF7AD779277D147C0012E2FBEF79
:08F04C0060037F01227F002216
:10F0540090100B74FFF0A374D7F0A3743FF0A37463
:10F0640006F07BFF7AD779367D147C0012E2FBEF41
:08F0740060037F01227F0022EE
:05E68C00900FE7EFF024
:10E6910078E87C0F7D017BFF7AD779AD7E007F0C16
:10E6A100126EDF90101C74FFF0A374D7F0A37446B0
:10E6B100F0900FE7E0FF90101FE4F0A3EFF07B0173
:10E6C1007A0F79E8129A1490100B74FFF0A374D7A3
:10E6D100F0A37453F0A37406F07A0F79E812E2F50F
:08E6E100EF60037F01227F00BE
:01E6E900220E
:08E50500900FE7EEF0A3EFF028
:10E50D0078E97C0F7D017BFF7AD779B97E007F108A
:10E51D00126EDF90101C74FFF0A374D7F0A3745A21
:10E52D00F0900FE7E0FFA3E090101FCFF0A3EFF006
:10E53D007B017A0F79E9129A1490100B74FFF0A3F6
:10E54D0074D7F0A37467F0A37409F07A0F79E91208
:0AE55D00E2F5EF60037F01227F006A
:01E567002291
:0BE19A00900FE7EBF0A3EAF0A3E9F020
:10E1A50078EA7C0F7D017BFF7AD779C97E007F1CD9
:10E1B500126EDF900FE7E0F9A3E0FAA3E0901009F3
:10E1C500C9F0A3EAF0A3E9F07B017A0F79EA12E33B
:10E1D500CE90100974FFF0A374D7F0A37471F07B8F
:10E1E500017A0F79EA12E3CE90100B74FFF0A37455
:10E1F500D7F0A37474F0A37410F07B017A0F79EA59
:0BE2050012E2F7EF60037F01227F00B0
:01E2100022EB
:10F0A40090100B74FFF0A374D7F0A37490F0A374C2
:10F0B40005F07BFF7AD77985FD7C0012E2FBEF60D7
:07F0C400037F01227F0022FF
:09F5FB007BFF7AD7799602005ECD
:0AF5BF00EFB40103C29622D2962297
:10D4B900E4900FE6F0C2967F32FE12F3047B017A04
:10D4C90000790812ED4E12F02C900FE6E0FD900F56
:10D4D900EF7401F0A37400F0A37408F0A37410F0C2
:10D4E900E4A3F0A3F07B017A117923FF12A96790D5
:10D4F9000FE6E02FF012F0A4EF900FE6605CE0FD7C
:10D50900900FEF7401F0A37400F0A37408F0A374F2
:10D5190010F0E4A3F0A3F07B017A117923FF12A99B
:10D5290067900FE6E02FF012F054900FE6E0FD90BF
:10D539000FEF7401F0A37400F0A37408F0A3741042
:10D54900F0E4A3F0A304F0FB7A117923E4FF12A914
:10D5590067900FE6E02FF07F0122E0FD900FEF7456
:10D5690001F0A37400F0A37408F0A37410F0E4A30D
:10D57900F0A304F0FB7A117923E4FF12A967900F55
:06D58900E6E02FF07F0038
:01D58F002279
:10CB7E00E4900FE6F0D296C2967F64FE12F3041292
:10CB8E00F02CEF602F900FE6E0FD900FEF7401F0A8
:10CB9E00A37400F0A37408F0A37410F0E4A3F0A340
:10CBAE0004F0FB7A117923E4FF12A967900FE6E0F7
:10CBBE002FF080037F00227F0112E68C900FE6E0BB
:10CBCE00FD900FEF7401F0A37400F0A37408F0A3AE
:10CBDE007410F0E4A3F0A304F0FB7A117923E4FFC0
:10CBEE0012A967900FE6E02FF07BFF7AD779A0129B
:10CBFE00E19A900FE6E0FD900FEF7401F0A3740040
:10CC0E00F0A37408F0A37410F0E4A3F0A304F0FBF7
:10CC1E007A117923E4FF12A967900FE6E02FF07FD7
:10CC2E00B87E0B12E505900FE6E0FD900FEF740154
:10CC3E00F0A37400F0A37408F0A37410F0E4A3F052
:10CC4E00A304F0FB7A117923E4FF12A967900FE693
:10CC5E00E02FF012F054EF602F900FE6E0FD900FF2
:10CC6E00EF7401F0A37400F0A37408F0A37410F035
:10CC7E00E4A3F0A304F0FB7A117923E4FF12A96771
:0FCC8E00900FE6E02FF080037F0022D2967F0107
:01CC9D002274
:10F31E00D3EF9400EE9400400F7D187C55DCFEDD9B
:08F32E00FCEF1F70EB1E80E8EC
:01F3360022B4
:0AF2EA0012F2F47F0212F2F47F101A
:10F2F400ED6004D2938002C293C2C38F80D2C32232
:10F27800AE07ED24B0FFE4FD12F2F4EE54F0C454EE
:0EF288000F4410FF12F2F4EE540FFF02F2F4E6
:10F43900E4FD7F8D12F2F47F1412F2F47FAF02F231
:01F44900F4CE
:0CF58500E4FD7F8D12F2EF7FAE02F2F485
:0EF50A00AE07E4FD7F8112F2F4AF0602F2F4C8
:10F44A00EF6006E4FD7FA08004E4FD7FA112F2F4E0
:01F45A00228F
:10F45B00EF6006E4FD7FC08004E4FD7FC812F2F488
:01F46B00227E
:10F46C00EF6006E4FD7FA78004E4FD7FA612F2F4B2
:01F47C00226D
:10F25900E4FEEE24B0FFE4FD12F2EAE4FC7D01E4F1
:0EF26900FF12F2F40CECB480F40EEEB408E4E4
:01F277002274
:10EA8B00E4F537E53724B0FFE4FD12F2EFE4FF12B3
:10EA9B00F2F4E53775F080A485F039F53AE4F538F2
:10EAAB007E00E53A2538FFEE35398F82F583126FFC
:10EABB001EFF7D0112F2F40538E538C3948040E067
:09EACB000537E537C3940840BA91
:01EAD400221F
:10DBF400D2927F147E0012F31EC2927F0A7E00121C
:10DC0400F31ED292D2C4E4FD7FAE12F2EA7F401238
:10DC1400F2F47F8112F2F47F7F12F2F47FC812F2E1
:10DC2400F47FA112F2F47FA812F2F47F3F12F2F40F
:10DC34007FD312F2F4E4FF12F2F47FD512F2F47FF0
:10DC44008012F2F47FD912F2F47FF112F2F47FDA47
:10DC540012F2F47F1212F2F47FDB12F2F47F40121C
:10DC6400F2F47F2012F2F47F0212F2F47F8D12F2AA
:10DC7400F47F1412F2F47FA412F2F47FA612F2F4E9
:10DC84007FAF12F2F412F2F412F259E4FDFF02F241
:01DC94007817
:1076AD004212AB00004212AE00004212B000404246
:1076BD0012B290884212B500004212B70000421279
:1076CD00A500004112A4004112BA004112B40841B4
:0776DD0012B9084112A300DD
:06E74500FFEEF0A3EFF06F
:10E74B009012ABE0FCA3E0FDEC900FEAF0A3EDF030
:10E75B009012AEE0FCA3E0FDEC900FECF0A3EDF01B
:10E76B009012B0E0FCA3E0FDEC900FEEF0A3EDF007
:10E77B009012B2E0FCA3E0FDEC900FF0F0A3EDF0F3
:10E78B0043BA107B017A0F79EA7D087F2012E8FBF0
:03E79B0053BAEF7F
:01E79E002258
:10E5680043BA107B017A0F79EA7D047F2012ECC050
:10E5780053BAEF900FEAE0FF9012B5E4F0A3EFF082
:10E58800E07F00FE9012B5F0A3EFF0900FEBE0FDF6
:10E59800EDFF9012B5EEF0A3EFF0900FECE0FF90D6
:10E5A80012B7E4F0A3EFF0E07F00FE9012B7F0A3FB
:10E5B800EFF0900FEDE0FDEDFF9012B7EEF0A3EF56
:01E5C800F062
:01E5C900222F
:10E439009012ACE04402F012E74B7F0A7E0012F31F
:10E44900049012AB74D0F0A3E4F09012A4E075F03C
:10E4590004A4FDACF0A3E0FEA3E07806C333CE33F9
:10E46900CED8F9FFEE4CFEEF4DFF9012BAE0FDEF6A
:10E479004DFF9012AEEEF0A3EFF0E4A3F0A3F090FD
:10E4890012B4E04480FE9012B9E0FD74804D901200
:07E49900B212E7457F0122EA
:10F07C00AD07AC06D3ED940FEC940040047C007DFE
:10F08C000F9012B3E054F0F0ED540FFF9012B2E079
:08F09C00F0A3E04FF002E74B86
:02DAA200AD07CE
:10DAA4009012A3E070309012AFE054EFF0EF9012B8
:10DAB400ABB40109E04402F0A3E0F08004E054FDBB
:10DAC400F09012ABE04401F0A3E0F012E74B9012A7
:10DAD400A3E004F0806D9012A3E06401706512E588
:10DAE400689012B5E030E65B9012ABE054FEF09023
:10DAF40012B5E05403FEA3E0FF9012A5EEF0A3EFED
:10DB0400F0FDAC06E4126B3C7BCD7ACC79CC783D4D
:10DB1400126907E4FBFA79AE78421268169012A7EC
:10DB240012729D9012B7E0C313543F9012ADF0E40B
:10DB34009012A3F09012A7E0FCA3E0FDA3E0FEA3E3
:08DB4400E0FF22E4FFFEFDFCFE
:01DB4C0022B6
:10D89800900FE612729D9012ABE054FEF09012AF1A
:10D8A800E04410F0E4FFFE7D207C41900FE6E0F8B4
:10D8B800A3E0F9A3E0FAA3E0FB1269077B007A80F2
:10D8C800795978C4126816126B759012A5EEF0A3F8
:10D8D800EFF07E009012AFE0543FFF9012AEEEF0F2
:10D8E800FCA3EFF0FD9012A5E0FEA3E07806C33399
:10D8F800CE33CED8F9FFEC4EFEED4F9012AE12E7C4
:10D9080045800F9012B5E0A320E60C7F037E00123D
:10D91800F30412E56880EC9012AFE054EFF0900F3A
:10D92800E6E0FCA3E0FDA3E0FEA3E0FF9012A7124F
:0FD93800729D9012B7E0C313543F9012ADF022CE
:10EB660012E5689012B5E05403FEA3E0FF9012A5EB
:10EB7600EEF0A3EFF0FDAC06E4126B3C7BCD7ACC55
:10EB860079CC783D126907E4FBFA79AE78421268CF
:10EB9600169012A712729D9012A7E0FCA3E0FDA3A7
:06EBA600E0FEA3E0FF22E7
:10EE6D0012E5689012B7E0C313543F9012ADF090C5
:10EE7D0012A5E0FCA3E0FDE4126B3C7BCD7ACC79CE
:10EE8D00CC783D126907E4FBFA79AE784212681628
:09EE9D00126B759012ADEFF0222A
:0AF5C9009012ABE054BFF002E74BD4
:0AF5D3009012ACE04401F002E74B97
:0AF5DD009012ACE054FEF002E74B80
:08F3990075F00A84E5F04EFD59
:0DF3A100AE05AD07AF06AB077FA202F0037B
:07000300AD077FA212EE33EE
:01000A0022D3
:04EDBF007B017D80D7
:0DEDC300900FEFEDF0A3EBF0900FEEEFF0EE
:10EDD000120003AE07900FF0E0FFB40108900FEFB0
:10EDE000E04EFE800AEF7007900FEFE0F45EFE90B9
:09EDF0000FEEE0FFAD0602F3A1F5
:0BD0F400900FE6EBF0A3EAF0A3E9F0D8
:10D0FF0090100F7401F0A3740FF0A374E9F07B0785
:10D10F007D027FA212E286900FE9E0547FF0E0FFEC
:10D11F00C4540F75F00AA4FEEF540F2EFF900FE6C4
:10D12F00E0FBA3E0FAA3E0F9EF126F7E900FEAE0C5
:10D13F00547FF0E0FFC4540F75F00AA4FEEF540FB4
:10D14F002EFF900FE6E0FBA3E0FAA3E0F9900001B9
:10D15F00EF126F90900FEBE0543FF0E0FFC4540FCD
:10D16F0075F00AA4FEEF540F2E900002126F9090EC
:10D17F000FECE0543FF0E0FFC4540F75F00AA4FE2B
:10D18F00EF540F2E900004126F90900FEDE05407A4
:10D19F00F070037407F0900FEDE0FF900FE6E0FBE7
:10D1AF00A3E0FAA3E0F9900003EF126F90900FEE57
:10D1BF00E0FF30E0089000087401126F4BEF541F2E
:10D1CF00900FEEF0E0FFC4540F75F00AA4FEEF5479
:10D1DF000F2E900005126F90900FEFE024D0FFE418
:0AD1EF0034079000068FF00270EB89
:10E9F100900FE6EFF0A3EDF0EB75F00A84C454F04C
:10EA0100FFEB75F00A84E5F04FFD7F0212F3A19050
:10EA11000FE7E0FF75F00A84C454F0FEEF7F0312A4
:10EA2100F399900FE6E0FF75F00A84C454F0FEEF0D
:0DEA310075F00A84E5F04EFD7F0402F3A1AC
:10E4A000900FE6EEF0A3EFF0A3EDF0A3EBF0900FEA
:10E4B000E7E02430F0900FE6E034F8F0A3E0FD7FD1
:10E4C0000812F3A1900FE8E0FF75F00A84C454F03D
:10E4D000FEEF7F0712F399900FE9E0FF75F00A84D1
:10E4E000C454F0FEEF75F00A84E5F04EFD7F05128E
:10E4F000F3A1900FEAE0B40702E4F0900FEAE0FD28
:05E500007F0602F3A1FB
:02D66500AE0510
:10D66700E4900FEBF0A3F0A3F0EF75F00A84C45435
:10D67700F04480FDEF75F00A84E5F04DFDEE75F09E
:10D687000A84C454F04480FFEE75F00A84E5F04F35
:10D69700900FEBF0EB4480A3F0900FE9E0FF75F0FB
:10D6A7000A84C454F04480FEEF75F00A84E5F04E16
:10D6B700900FEDF0900FEAE0FF64026004EFB40111
:10D6C70009ED547FFD900FEB8026900FEAE0FEB442
:10D6D700030CED547FFDA3E0547FF0A38012EEB45A
:10D6E7000412ED547FFD900FEBE0547FF0900FEDA7
:10D6F700E0547FF07F0A12F3A1900FEBE0FD7F0962
:10D7070012F3A1900FECE0FD7F0C12F3A1900FED47
:10D71700E0FD7F0B12F3A17B017D027F0102EDC3C8
:09F60400E4FB7D087F0102EDC367
:10F166007F0A12EDBF7F0912EDBF7B017D807F0C08
:10F1760012EDC37B017D807F0B12EDC3E4FB7D089E
:05F186007F0102EDC352
:10EEDF00900FE6EFF0A3EDF0E4FB7D807F0E12EDD7
:10EEEF00C3900FE6E0FD7F0E12F3A1900FE7E0FD58
:10EEFF007F0F12F3A17B017D017F0112EDC37B0117
:07EF0F007D807F0E02EDC3BF
:09F60D00E4FB7D047F0102EDC362
:10F41500E4FB7D017F0112EDC3E4FB7D807F0E02DD
:02F42500EDC335
:09F5E7007F01120003EF540CFF38
:01F5F00022F8
:10F48E00AE05EEC433333354804FFD7F0D02F3A12E
:07F66A00E4FD7F0102F48EB4
:06F678000001020408106D
:1076E40041129E004112720541128D0541127E0520
:0C76F4004112920241126D0441129300F9
:10F0CB0090126DE025E025E0FF901292E0FEC43334
:0AF0DB0054E04FFFA3E04FFD7FF566
:0DF0E500AE05AD07AF06AB077FEC02F003F0
:07F63A00AD077FEC12EE3377
:01F6410022A6
:0EF518007FD012F63ABF60037F01227F0022EF
:10D1F90078D17C127D017BFF7AF679787E007F06F3
:10D20900126EDF90128DE0FFD39405501174D12F67
:10D21900F582E43412F583E09012CEF08006901284
:10D22900CE7410F090127EE0FFD39405501174D1A2
:10D239002FF582E43412F583E09012CFF080069046
:10D2490012CF7410F0901272E0FFD394055011744C
:10D25900D12FF582E43412F583E09012D0F08006E4
:10D269009012D07410F09012CFE0FCE4126B417B65
:10D27900337A33791378401269077B337A33791318
:10D28900783F126816C004C005C006C0079012CEC8
:10D29900E0FCE4126B417B337A33791378401269ED
:10D2A90007E4FBFA79A0783F126816D003D002D0C0
:10D2B90001D000126816C004C005C006C00790124C
:10D2C900D0E0FCE4126B417B337A33791378401256
:10D2D90069077B337A337913783F126816D003D004
:0DD2E90002D001D000126816126B757E0095
:01D2F6002215
:10C2640090100F7401F0A3740FF0A374EBF07B1A19
:10C274007D887FEC12E28690100F7401F0A3741095
:10C28400F0A37405F07B077DE17FEC12E286900F4A
:10C29400ECE0FE900FEBE0FDEDFF901283EEF0A3D7
:10C2A400EFF0900FEEE0FE900FEDE0FDEDFF901249
:10C2B40087EEF0A3EFF0900FF0E0FE900FEFE0FDBB
:10C2C400EDFF90128BEEF0A3EFF0900FF2E0FE90F2
:10C2D4000FF1E0FDEDFF901278EEF0A3EFF0900F78
:10C2E400F4E0FE900FF3E0FDEDFF90127AEEF0A380
:10C2F400EFF0900FF6E0FE900FF5E0FDEDFF9012E9
:10C304007CEEF0A3EFF0900FF8E0FE900FF7E0FD65
:10C31400EDFF90127FEEF0A3EFF0900FFAE0FE90A5
:10C324000FF9E0FDEDFF901281EEF0A3EFF0900F16
:10C33400FCE0FE900FFBE0FDEDFF901285EEF0A314
:10C34400EFF0900FFEE0FE900FFDE0FDEDFF901288
:10C3540089EEF0A3EFF0901000E0FE900FFFE0FDF7
:10C36400EDFF90128EEEF0A3EFF0901002E0FE903D
:10C374001001E0FDEDFF901290EEF0A3EFF09010AD
:10C3840004E090126EF0901006E0FE901005E0FDBF
:10C39400EDFF90126FEEF0A3EFF0901007E0901213
:10C3A40071F0901008E075F010A4FFA3E0FDEF4DCC
:10C3B400FF901273E5F0F0A3EFF090100AE075F02F
:10C3C40010A4FF901009E0C4540FFDEF4DFF90122C
:0FC3D40075E5F0F0A3EFF090100BE0901277F00A
:01C3E3002237
:10D3E10090100F7401F0A3740FF0A374E9F07B089F
:10D3F1007DF77FEC12E286900FEAE0FFE4FCFDFE90
:10D40100780412719FC004C005C006C007900FE9DF
:10D41100E0FFE4FCFDFE780C12719FD003D002D036
:10D4210001D000EF4BFFEE4AFEED49FDEC48FCA8B0
:10D4310004A905AA06AB07900FEBE0C4540FFFEB5C
:10D441004FFFEAFEE9FDE8FC90129A12729D900FDF
:10D45100EDE0FFE4FCFDFE780412719FC004C005FD
:10D46100C006C007900FECE0FFE4FCFDFE780C1253
:10D47100719FD003D002D001D000EF4BFFEE4AFEE6
:10D48100ED49FDEC48FCA804A905AA06AB07900FDD
:10D49100EEE0C4540FFFEB4FFFEAFEE9FDE8FC901C
:10D4A100129412729D900FEFE0FEA3E0FDEDFF904C
:07D4B1001298EEF0A3EFF06A
:01D4B8002251
:10BBF400900FF51272A9C2200000900FF91272A9D9
:10BC040042AA0000901294E0FCA3E0FDA3E0FEA38E
:10BC1400E0FFE4126B37E4FBFA79807846126A108D
:10BC2400C004C005C006C007901283E0FCA3E0FD79
:10BC3400E4126B3CE4FBFA79807844126A10A8049D
:10BC4400A905AA06AB07D007D006D005D004126810
:10BC540012900FE912729D901287E0FCA3E0FDECB4
:10BC6400126B3C900FE9E0F8A3E0F9A3E0FAA3E03B
:10BC7400FB126907900FE912729D901294E0FCA3E5
:10BC8400E0FDA3E0FEA3E0FFE4126B37E4FBFAF966
:10BC94007848126A10C004C005C006C00790128319
:10BCA400E0FCA3E0FDE4126B3CE4FBFAF9784612F5
:10BCB4006A10A804A905AA06AB07D007D006D005C8
:10BCC400D004126812900FED12729D90128BE0FC5A
:10BCD400A3E0FDEC126B3CC004C005C006C0079095
:10BCE4000FEDE0FCA3E0FDA3E0FEA3E0FFA804A9A0
:10BCF40005AA06FB126907D003D002D001D00012B6
:10BD04006907900FED12729D900FEDE0FCA3E0FD2A
:10BD1400A3E0FEA3E0FF900FE9E0F8A3E0F9A3E0BD
:10BD2400FAA3E0FB126816126B7590129F12729DB3
:10BD3400900FEDE0FCA3E0FDA3E0FEA3E0FF900F75
:10BD4400E9E0F8A3E0F9A3E0FAA3E0FB126816E443
:10BD5400FBFA79A07845126A10900FF112729D9047
:10BD64000FF5E0FCA3E0FDA3E0FEA3E0FF900FF1DC
:10BD7400E0F8A3E0F9A3E0FAA3E0FB126AAD5005F2
:10BD8400900FF58026900FF9E0FCA3E0FDA3E0FE00
:10BD9400A3E0FF900FF1E0F8A3E0F9A3E0FAA3E039
:10BDA400FB126AAD60164014900FF9E0FCA3E0FDAD
:10BDB400A3E0FEA3E0FF900FF112729D900FF1E05B
:0ABDC400FCA3E0FDA3E0FEA3E0FFF6
:01BDCE002252
:10A22F00900FF91272A946EA6000900FFD1272A901
:10A23F0047D6D80090129FE0FCA3E0FDA3E0FEA359
:10A24F00E0FFEC126B37E4FBFAF97840126A10E486
:10A25F00FBFA797A78C7126816900FE912729D90FF
:10A26F001285E0FCA3E0FDEC126B3CC004C005C0FE
:10A27F0006C007900FE9E0FCA3E0FDA3E0FEA3E01A
:10A28F00FFA804A905AA06FB126907D003D002D0C4
:10A29F0001D000126907E4FBFAF97847126A1090AF
:10A2AF000FED12729D900FEDE0F8A3E0F9A3E0FA25
:10A2BF00A3E0FBC000C001C002C003901281E0FC0C
:10A2CF00A3E0FDEC126B3C900FE9E0F8A3E0F9A3DB
:10A2DF00E0FAA3E0FB126907E4FBFAF97840126990
:10A2EF0007D003D002D001D000126816900FED12E4
:10A2FF00729D90127FE0FCA3E0FDEC126B3CE4FB3F
:10A30F00FA79807847126907C004C005C006C007F4
:10A31F00E4FBFA79807840900FEDE0FCA3E0FDA319
:10A32F00E0FEA3E0FF126A10D003D002D001D000EC
:10A33F00126816900FED12729D90127CE0FCA3E054
:10A34F00FDEC126B3C900FE9E0F8A3E0F9A3E0FA03
:10A35F00A3E0FB126907900FE9E0F8A3E0F9A3E08F
:10A36F00FAA3E0FB126907E4FBFAF97849126A10C5
:10A37F00900FF112729D90127AE0FCA3E0FDEC12A7
:10A38F006B3C900FE9E0F8A3E0F9A3E0FAA3E0FB40
:10A39F00126907900FF1E0F8A3E0F9A3E0FAA3E048
:10A3AF00FB126816E4FBFAF97849126A10900FE96C
:10A3BF0012729DE4FBFAF97847900FE9E0FCA3E0F5
:10A3CF00FDA3E0FEA3E0FF126A10E4FBFA798078A8
:10A3DF003F126816C004C005C006C007901278E08F
:10A3EF00FCA3E0FDE4126B3CD003D002D001D000FF
:10A3FF00126907900FE912729DE4FFFEFDFC900FAA
:10A40F00E9E0F8A3E0F9A3E0FAA3E0FB126AAD607C
:10A41F0002500302A5C590129AE0FCA3E0FDA3E051
:10A42F00FEA3E0FFE4126B37A804A905AA06AB0749
:10A43F00E4FFFE7D807C49126812900FF512729D29
:10A44F00E4FBFA79807845900FEDE0FCA3E0FDA3E3
:10A45F00E0FEA3E0FF126A10A804A905AA06AB0745
:10A46F00900FF5E0FCA3E0FDA3E0FEA3E0FF126870
:10A47F00127B007A5079C37845126907900FE9E093
:10A48F00F8A3E0F9A3E0FAA3E0FB126A10900FF52E
:10A49F0012729D901290E0FCA3E0FDEC126B3C90C9
:10A4AF000FF5E0F8A3E0F9A3E0FAA3E0FB126907C8
:10A4BF00900FF5E0F8A3E0F9A3E0FAA3E0FB12692F
:10A4CF0007E4FBFAF9784F126A10900FE912729DA8
:10A4DF0090128EE0FCA3E0FDEC126B3C900FF5E0C8
:10A4EF00F8A3E0F9A3E0FAA3E0FB126907E4FBFA93
:10A4FF00F97847126A10900FED12729D900FF5E0E8
:10A50F00F8A3E0F9A3E0FAA3E0FBC000C001C0028A
:10A51F00C003901289E0FCA3E0FDEC126B3CC00479
:10A52F00C005C006C007900FEDE0FCA3E0FDA3E05F
:10A53F00FEA3E0FF900FE9E0F8A3E0F9A3E0FAA390
:10A54F00E0FB126816D003D002D001D000126816BB
:10A55F00E4FBFA79807841126A10D003D002D0015F
:10A56F00D000126816900FF512729D900FF9E0FC53
:10A57F00A3E0FDA3E0FEA3E0FF900FF5E0F8A3E05A
:10A58F00F9A3E0FAA3E0FB126AAD50028028900F06
:10A59F00FDE0FCA3E0FDA3E0FEA3E0FF900FF5E0DC
:10A5AF00F8A3E0F9A3E0FAA3E0FB126AAD601B4049
:10A5BF0019900FFD8003900FF9E0FCA3E0FDA3E0DD
:10A5CF00FEA3E0FF900FF512729D900FF5E0FCA334
:08A5DF00E0FDA3E0FEA3E0FF94
:01A5E7002251
:10B18700900FED1272A900000000900FF11272A942
:10B1970042C8000090129FE0FCA3E0FDA3E0FEA3DD
:10B1A700E0FFEC126B37E4FBFA799678C712681662
:10B1B700900FF512729D901275E0FCA3E0FDEC1262
:10B1C7006B3CE4FBFA79807846126A10900FF5E041
:10B1D700F8A3E0F9A3E0FAA3E0FB126907C004C0F3
:10B1E70005C006C007901273E0FCA3E0FDEC126BEC
:10B1F7003CE4FBFA79807842126907D003D002D089
:10B2070001D000126816900FF912729D901298E003
:10B21700FCA3E0FDE4126B3C900FF9E0F8A3E0F922
:10B22700A3E0FAA3E0FB126812900FFD12729D9043
:10B23700126FE0FCA3E0FDEC126B3CE4FBFA7980B3
:10B247007847126A1090100112729D901271E0FCFB
:10B25700E4126B41E4FBFA7980784C126A10900F84
:10B26700F5E0F8A3E0F9A3E0FAA3E0FB126907E42D
:10B27700FBFA7980783F12681690100512729D903C
:10B287001277E0FC126B41E4FBFA7980784C126A82
:10B2970010900FF5E0F8A3E0F9A3E0FAA3E0FB12A2
:10B2A7006907901005E0F8A3E0F9A3E0FAA3E0FB33
:10B2B700126907E4FBFA7980783F12681690100943
:10B2C70012729D901009E0FCA3E0FDA3E0FEA3E04D
:10B2D700FF901005E0F8A3E0F9A3E0FAA3E0FB1262
:10B2E7006907C004C005C006C007901001E0FCA3B1
:10B2F700E0FDA3E0FEA3E0FF900FFDE0F8A3E0F977
:10B30700A3E0FAA3E0FB126907D003D002D001D073
:10B317000012690790100912729D90126EE0FCE40A
:10B32700126B41901009E0F8A3E0F9A3E0FAA3E05B
:10B33700FB126907E4FBFAF97849126A10A804A915
:10B3470005AA06AB07E4FFFE7D807C3F12681290DA
:10B357001009E0F8A3E0F9A3E0FAA3E0FB126907FC
:10B36700900FE912729D900FF1E0FCA3E0FDA3E0BE
:10B37700FEA3E0FF900FE9E0F8A3E0F9A3E0FAA34A
:10B38700E0FB126AAD60074005900FF18024900F33
:10B39700EDE0FCA3E0FDA3E0FEA3E0FF900FE9E0F2
:10B3A700F8A3E0F9A3E0FAA3E0FB126AAD5014900A
:10B3B7000FEDE0FCA3E0FDA3E0FEA3E0FF900FE9A3
:10B3C70012729D900FE9E0FCA3E0FDA3E0FEA3E06D
:01B3D700FF76
:01B3D8002252
:10EB1F00900FE6EBF0A3EAF0A3E9F012D3E112BBFA
:10EB2F00F4900FE6E0FBA3E0FAA3E0F912720212F1
:10EB3F00A22F900FE6E0FBA3E0FAA3E0F990000408
:10EB4F0012721C12B187900FE6E0FBA3E0FAA3E06C
:07EB5F00F990000802721C8E
:0EF526007DB67FE012F0E57F057E0002F30463
:10E7F900900FEA74C8F07F057E0012F30412F51831
:10E80900EF70107F01FE12F304900FEAE014F0702C
:10E81900ECFF2212F52612C26412F0CB901272E0BC
:10E82900FD7FF212F0E590127EE025E025E0FF90F1
:10E83900128DE0FEC43354E04FFF90129EE04FFD6D
:07E849007FF412F0E57F01EE
:01E8500022A5
:10F2960090129EEFF090127EE025E025E0FE90129F
:0EF2A6008DE0C43354E04E4FFD7FF402F0E5DE
:10F18B009012DBEBF0A3EAF0A3E9F07F0112F29609
:10F19B0012D1F912F3049012DBE0FBA3E0FAA3E027
:04F1AB00F902EB1F5B
:10F3AE00EFD3940740027F07901292EFF012F0CB4A
:05F3BE007F0302F2963E
:10F23900746865206D6172697820636F756C6420EC
:10F249006E6F7420626520736F6C7665640D0A00B9
:1077000058104900000000000000000000000000C8
:1077100000000000000000000000004210610000B6
:10E6EA00FF90106375F01CED1272DAEC75F01CA441
:10E6FA002583F583E5822FF582E5833EF583E0FCE9
:09E70A00A3E0FDA3E0FEA3E0FF83
:10E7130090102512729DE4FFFEFDFC901025E0F899
:10E72300A3E0F9A3E0FAA3E0FB126AAD901025E0A1
:10E73300FCA3E0FDA3E0FEA3E0FF5005126B2680DF
:02E743000022B2
:10EBAC00E4900FE6F0E4900FE7F0900FE7E0FFC37E
:10EBBC0094075027900FE6E075F01CA42463F582AF
:10EBCC00E43410F58375F004EF1272DA1272A900B6
:10EBDC00000000900FE7E004F080CF900FE6E00417
:05EBEC00F0E0B406C0DA
:01EBF1002201
:06C3E400900FE612729DAD
:10C3EA00901062E004F07006901061E004F0900F83
:10C3FA00EAE0FCA3E0FDA3E0FEA3E0FF900FEAE081
:10C40A00F8A3E0F9A3E0FAA3E0FB126907900FF2A0
:10C41A0012729D900FEEE0FCA3E0FDA3E0FEA3E004
:10C42A00FFA804A905AA06FB126907900FF6127263
:10C43A009D900FE6E0FCA3E0FDA3E0FEA3E0FF90E1
:10C44A000FFA12729D900FEAE0FCA3E0FDA3E0FE52
:10C45A00A3E0FF900FFE12729D900FEEE0FCA3E0A6
:10C46A00FDA3E0FEA3E0FF90100212729D90100659
:10C47A001272A93F800000900FE6E0FCA3E0FDA342
:10C48A00E0FEA3E0FF126B26900FE6E0F8A3E0F9C6
:10C49A00A3E0FAA3E0FB12690790100A12729DE466
:10C4AA0090100EF0E490100FF090100EE075F01C52
:10C4BA00A42463F582E43410F583C083C08290100B
:10C4CA000FE0D082D08375F0041272DAC083C08282
:10C4DA00E0F8A3E0F9A3E0FAA3E0FBC000C001C0C2
:10C4EA0002C00390100FE025E025E024F2F582E473
:10C4FA00340FF583E0FCA3E0FDA3E0FEA3E0FF9088
:10C50A00100EE025E025E024F2F582E4340FF583ED
:10C51A00E0F8A3E0F9A3E0FAA3E0FB126907D0036D
:10C52A00D002D001D000126816D082D08312729D38
:10C53A0090100FE004F0E06407600302C4B39010A7
:0CC54A000EE004F0E06406600302C4AEE2
:01C5560022C2
:10E02300E4901019F0E490101AF0901019E075F0D4
:10E033001CA42463F582E43410F583C083C082906A
:10E04300101AE0D082D08375F0041272DAC083C054
:10E0530082E0FCA3E0FDA3E0FEA3E0FFC004C00553
:10E06300C006C007901061E0FCA3E0FDEC126B3C1E
:10E07300A804A905AA06AB07D007D006D005D0048B
:10E08300126A10D082D08312729D90101AE004F0AD
:0FE09300E0B40796901019E004F0E06406708680
:01E0A200225B
:0ED2F700901025EEF0A3EFF0A3ECF0A3EDF005
:10D30500A31272A900000000E490102DF0901025E2
:10D31500A3E075F01CA42463F582E43410F583C002
:10D3250083C08290102DE0D082D08375F0041272F4
:10D33500DAE0FCA3E0FDA3E0FEA3E0FF90102912D4
:10D34500729D901027A3E075F01CA42463F582E478
:10D355003410F583C083C08290102DE0D082D08335
:10D3650075F0041272DAE0FCA3E0FDA3E0FEA3E091
:10D37500FF901025A3E075F01CA42463F582E43426
:10D3850010F583C083C08290102DE0D082D08375C4
:10D39500F0041272DA12729D901029E0FCA3E0FDF0
:10D3A500A3E0FEA3E0FF901027A3E075F01CA424E2
:10D3B50063F582E43410F583C083C08290102DE0BC
:10D3C500D082D08375F0041272DA12729D90102DFE
:0BD3D500E004F0E06407600302D312E4
:01D3E000222A
:06E5CA0090101E12729D6C
:10E5D000E4901024F0901022A3E075F01CA42463B2
:10E5E000F582E43410F583C083C082901024E0D01B
:10E5F00082D08375F0041272DAC083C082E0FCA37B
:10E60000E0FDA3E0FEA3E0FF90101EE0F8A3E0F918
:10E61000A3E0FAA3E0FB126907D082D08312729DB7
:0AE62000901024E004F0E0B407AB12
:01E62A0022CD
:06DB4D0090101F12729DF2
:10DB5300E4901027F0901025A3E075F01CA4246333
:10DB6300F582E43410F583C083C082901027E0D09F
:10DB730082D08375F0041272DAC083C082E0F8A306
:10DB8300E0F9A3E0FAA3E0FBC000C001C002C003B8
:10DB9300901023A3E075F01CA42463F582E43410F1
:10DBA300F583C083C082901027E0D082D08375F0C4
:10DBB300041272DAE0FCA3E0FDA3E0FEA3E0FF9011
:10DBC300101FE0F8A3E0F9A3E0FAA3E0FB12690752
:10DBD300D003D002D001D000126816D082D08312B5
:10DBE300729D901027E004F0E06407600302DB58A5
:01DBF300220F
:08DDCC0090101FEEF0A3EFF030
:10DDD400E4A3F0A3F0A3F0A3F0EF2401FFE43E904A
:10DDE4001021F0A3EFF0901021E0FCA3E0FDC39418
:10DDF40006EC64809480506890101FE0FEA3E078E5
:10DE040002C333CE33CED8F912E6EAC004C005C04B
:10DE140006C00790101FE0FCA3E0FDAE047802C327
:10DE240033CE33CED8F912E6EAA804A905AA06AB84
:10DE340007D007D006D005D004126AAD5011901057
:10DE44001FE0FEA3E0FFA3E0FCA3E0FD12D2F790E5
:10DE54001022E004F0708F901021E004F002DDEA5B
:01DE6400229B
:10CFEB009010191272A900000000E490101DF0902F
:10CFFB00101DE0FFC39406400302D0F17E0012DD4A
:10D00B00CC90101DE0FF75F01CA42463F582E43472
:10D01B0010F58375F004EF1272DAE0FCA3E0FDA3C8
:10D02B00E0FEA3E0FFE4FBFAF9F8126AAD70037FB0
:10D03B00012290101DE004A3F090101EE0FFC3949A
:10D04B0006400302D0E8EF75F01CA42463F582E4DC
:10D05B003410F583C083C08290101DE0D082D08342
:10D06B0075F0041272DAE0FCA3E0FDA3E0FEA3E08E
:10D07B00FF126B2690101DE075F01CA42463F58243
:10D08B00E43410F583C083C08290101DE0D082D0B1
:10D09B008375F0041272DAE0F8A3E0F9A3E0FAA3C7
:10D0AB00E0FB126A1090101912729D901019E0FC9F
:10D0BB00A3E0FDA3E0FEA3E0FFA3E0FB901023E4BD
:10D0CB00F0A3EBF090101EE0FB901025E4F0A3EB27
:10D0DB00F012DB4D90101EE004F002D04490101DB6
:08D0EB00E004F002CFFA7F001F
:01D0F300221A
:10E362009010191272A900000000E490101DF090A4
:10E37200101DE0FF75F01CA42463F582E43410F54F
:10E382008375F004EF1272DAE0F8A3E0F9A3E0FA81
:10E39200A3E0FBE4FFFE7D807C3F126A109010191F
:10E3A20012729D901019E0FCA3E0FDA3E0FEA3E031
:10E3B200FFA3E0FB901022E4F0A3EBF012E5CA9079
:0BE3C200101DE004F0E0C3940640A42E
:01E3CD00222D
:0BBDCF00901019EBF0A3EAF0A3E9F0DC
:10BDDA00A31272A90000000590101CE0FCA3A3E0C6
:10BDEA00FEEC33500302BF5A90101CA3A3A3E090A9
:10BDFA00107B75F01C1272DAEE75F01CA42583F51F
:10BE0A0083E0FCA3E0FDA3E0FEA3E0FFC004C005BD
:10BE1A00C006C007E47F04FEFDFC90101CE0F8A3F6
:10BE2A00E0F9A3E0FAA3E0FB127118901019E0FB05
:10BE3A00A3E0FAA3E0F98F828E83D007D006D0055B
:10BE4A00D00412721C9010207405F090101CE0FCB3
:10BE5A00A3E0FDA3E0FEA3E02401FBE43EFAE43DF7
:10BE6A00F9E43CF8A3E0FFE4FCFDFED3127175404F
:10BE7A000302BF33E47F04FEFDFC90101CE0F8A32C
:10BE8A00E0F9A3E0FAA3E0FB127118901019E0FBA5
:10BE9A00A3E0FAA3E02FF9EA3EFAEB3DFBC003C0A8
:10BEAA0002C0011271B2C004C005C006C0079010DA
:10BEBA0019E0FBA3E0FAA3E0F9901020E075F00482
:10BECA00A4F58285F0831271D290101CA3A3E0FA24
:10BEDA00A3E090106375F01C1272DAEA75F01CA4E4
:10BEEA002583F583C083C082901020E0D082D0835E
:10BEFA0075F0041272DAE0F8A3E0F9A3E0FAA3E01D
:10BF0A00FB126907A804A905AA06AB07D007D00641
:10BF1A00D005D004126812D001D002D003127202E6
:10BF2A00901020E014F002BE5590101CE0FCA3E033
:10BF3A00FDA3E0FEA3E0FFEF24FFFFEE34FFFEEDDA
:10BF4A0034FFFDEC34FFFC90101C12729D02BDE21E
:01BF5A0022C4
:0BA5E800900FE6EBF0A3EAF0A3E9F00F
:10A5F300A31272A900000000900FED1272A90000CF
:10A603000000900FF11272A900000000900FF512E4
:10A6130072A900000000900FF91272A90000000057
:10A62300900FFD1272A9000000009010011272A990
:10A63300000000009010051272A9000000009010A5
:10A64300091272A90000000090100D1272A90000F7
:10A6530000009010111272A9000000009010151252
:10A6630072A90000000012E02312CFEBEF600C7B15
:10A67300FF7AF27939129A1A7F002212E3627B0180
:10A683007A10794912BDCF901049E0FCA3E0FDA3F5
:10A69300E0FEA3E0FF900FE912729D90104DE0FCE5
:10A6A300A3E0FDA3E0FEA3E0FF900FED12729D90E7
:10A6B3001051E0FCA3E0FDA3E0FEA3E0FF900FF147
:10A6C30012729D901055E0FCA3E0FDA3E0FEA3E011
:10A6D300FF900FF512729D901059E0FCA3E0FDA3CB
:10A6E300E0FEA3E0FF900FF912729D90105DE0FC75
:10A6F300A3E0FDA3E0FEA3E0FF900FFD12729D9087
:10A703000FF1E0FCA3E0FDA3E0FEA3E0FF126B2644
:10A71300E4FBFAF97840126A1090100112729DE47A
:10A72300FFFEFD7C40900FE9E0F8A3E0F9A3E0FA17
:10A73300A3E0FB126907C004C005C006C007900F61
:10A74300F5E0FCA3E0FDA3E0FEA3E0FF126B26D03F
:10A7530003D002D001D000126A1090100512729D2E
:10A76300E4FFFEFD7C40900FEDE0F8A3E0F9A3E0E9
:10A77300FAA3E0FB126907C004C005C006C0079036
:10A783000FF9E0FCA3E0FDA3E0FEA3E0FF126B26BC
:10A79300D003D002D001D000126A109010091272B7
:10A7A3009D901005E0FCA3E0FDA3E0FEA3E0FF9075
:10A7B3000FE9E0F8A3E0F9A3E0FAA3E0FB126907CD
:10A7C300901005E0F8A3E0F9A3E0FAA3E0FB126917
:10A7D30007C004C005C006C007901001E0FCA3E059
:10A7E300FDA3E0FEA3E0FFA804A905AA06FB1269E6
:10A7F30007D003D002D001D000126816C004C005F0
:10A80300C006C007901009E0FCA3E0FDA3E0FEA38F
:10A81300E0FF900FEDE0F8A3E0F9A3E0FAA3E0FB7B
:10A82300126907901009E0F8A3E0F9A3E0FAA3E0A6
:10A83300FB126907D003D002D001D0001268169032
:10A843000FFDE0F8A3E0F9A3E0FAA3E0FB1268121E
:10A8530012D9FA90100D12729D900FE9E0FCA3E05B
:10A86300FDA3E0FEA3E0FF12D9FAA804A905AA06F6
:10A87300AB0790100DE0FCA3E0FDA3E0FEA3E0FF17
:10A88300126A1090101112729D900FEDE0FCA3E07C
:10A89300FDA3E0FEA3E0FF12D9FAA804A905AA06C6
:10A8A300AB0790100DE0FCA3E0FDA3E0FEA3E0FFE7
:10A8B300126A1090101512729D901001E0FCA3E033
:10A8C300FDA3E0FEA3E0FF126B75900FE6E0FBA390
:10A8D300E0FAA3E0F9EE8FF01270CC901005E0FCE3
:10A8E300A3E0FDA3E0FEA3E0FF126B75900FE6E08B
:10A8F300FBA3E0FAA3E0F9900002EE8FF01270EBF5
:10A90300901009E0FCA3E0FDA3E0FEA3E0FF126BBF
:10A9130075900FE6E0FBA3E0FAA3E0F9900004EEE4
:10A923008FF01270EB90100DE0FCA3E0FDA3E0FEAE
:10A93300A3E0FF90000612721C901011E0FCA3E04C
:10A94300FDA3E0FEA3E0FF90000A12721C90101515
:10A95300E0FCA3E0FDA3E0FEA3E0FF90000E127273
:03A963001C7F0155
:01A9660022CE
:107720004112BB034112BD064112BF004112BE010E
:107730004112BC024212C000004212C600004212B6
:10774000CC00004412C23F8000004412C83F8000B9
:017750000038
:0D004600AE05AD07AF06AB077F3C02F0032F
:07F64200AD077F3C12EE331F
:01F64900229E
:10F49E007F0A12F642EF644860037F00227F01224A
:0BC6BD00900FE6EBF0A3EAF0A3E9F019
:10C6C80090100F7401F0A3740FF0A374E9F07B06C7
:10C6D8007D037F3C12E286900FE9E0FEA3E0FDEDCA
:10C6E800FF900FE6E0FBA3E0FAA3E0F9EE8FF0126B
:10C6F80070CC900FEDE0FEA3E0FDEDFF900FE6E0BB
:10C70800FBA3E0FAA3E0F9900002EE8FF01270EBC1
:10C71800900FEBE0FEA3E0FDEDFF900004EE8FF03C
:10C728001270EB127069FF9012C0E0FCA3E0FDC329
:10C73800EF9DFFE5F09C8FF01270CC900FE6E0FBC8
:10C74800A3E0FAA3E02402F9E43AFA127069FF9030
:10C7580012C6E0FCA3E0FDC3EF9DFFE5F09C8FF05F
:10C768001270CC900FE6E0FBA3E0FAA3E02404F9F2
:10C77800E43AFA127069FF9012CCE0FCA3E0FDC322
:10C78800EF9DFFE5F09C8FF01270CC900FE6E0FB78
:10C79800A3E0FAA3E0F9900002127094FDACF0EC6B
:10C7A800126B3C9012C2E0F8A3E0F9A3E0FAA3E010
:10C7B800FB126907126B75900FE6E0FBA3E0FAA382
:10C7C800E0F9900002EE8FF01270EB900004127006
:10C7D80094FDACF0EC126B3C9012C8E0F8A3E0F9C1
:10C7E800A3E0FAA3E0FB126907126B75900FE6E06D
:10C7F800FBA3E0FAA3E0F9900004EE8FF00270EBDF
:10EC7C009012C0EEF0A3EFF0AF059012C6ECF0A32B
:10EC8C00EFF0AF039012CCEAF0A3EFF0900FECE0B2
:10EC9C00FCA3E0FDA3E0FEA3E0FF9012C212729D64
:10ECAC00900FF0E0FCA3E0FDA3E0FEA3E0FF9012C8
:04ECBC00C802729D7B
:0BF5A9009012BCEFF0FD7F0202004654
:10E85100900FEA74C8F012F49EEF70107F01FE125F
:10E86100F304900FEAE014F070ECFF229012BDE087
:10E8710025E025E0FF9012BBE0FEC454F04FFF906D
:10E8810012BFE04FFDE4FF1200469012BEE0C43318
:10E8910054E0FD7F011200469012BCE0FD7F0212A0
:04E8A10000467F01AD
:01E8A5002250
:0BB3D900900FE6EBF0A3EAF0A3E9F010
:10B3E400126B267BE17A2E79657842126A10900FEF
:10B3F400F112729D900FEDE0FCA3E0FDA3E0FEA32B
:10B40400E0FF126B267BE17A2E79657842126A108E
:10B41400900FF512729D900FF5E0FCA3E0FDA3E000
:10B42400FEA3E0FF12BFB9C004C005C006C0079068
:10B434000FE6E0FBA3E0FAA3E0F990000212709497
:10B44400FDACF0EC126B3CD003D002D001D0001262
:10B454006907C004C005C006C007900FF1E0FCA353
:10B46400E0FDA3E0FEA3E0FF12BFB9D003D002D0F9
:10B4740001D000126907C004C005C006C007900FC0
:10B48400F1E0FCA3E0FDA3E0FEA3E0FF12BFA3C034
:10B4940004C005C006C007900FE6E0FBA3E0FAA3D2
:10B4A400E0F9127069FDACF0EC126B3CD003D002F1
:10B4B400D001D000126907D003D002D001D000120D
:10B4C4006816C004C005C006C007900FF5E0FCA3D1
:10B4D400E0FDA3E0FEA3E0FF12BFA3C004C005C0CB
:10B4E40006C007900FE6E0FBA3E0FAA3E0F99000A2
:10B4F40004127094FDACF0EC126B3CD003D002D07B
:10B5040001D000126907C004C005C006C007900F2F
:10B51400F1E0FCA3E0FDA3E0FEA3E0FF12BFB9D07D
:10B5240003D002D001D000126907A804A905AA0615
:10B53400AB07D007D006D005D004126812900FF9DB
:10B5440012729D900FF5E0FCA3E0FDA3E0FEA3E0E2
:10B55400FF12BFB9C004C005C006C007900FE6E0E3
:10B56400FBA3E0FAA3E0F9900004127094FDACF0A0
:10B57400EC126B3CD003D002D001D000126907C09A
:10B5840004C005C006C007900FF5E0FCA3E0FDA3CE
:10B59400E0FEA3E0FF12BFA3C004C005C006C007BD
:10B5A400900FE6E0FBA3E0FAA3E0F990000212702A
:10B5B40094FDACF0EC126B3CD003D002D001D0006F
:10B5C400126907D003D002D001D000126816C0045B
:10B5D400C005C006C007900FF9E0FCA3E0FDA3E09E
:10B5E400FEA3E0FF90100112729DD007D006D00593
:10B5F400D00412DC95E4FBFA793478431269077BB2
:10B60400D07A0F79497840126A10E4FBFA793478D9
:04B61400431268165F
:01B61800220F
:1077510004773F800000047B00000000047F0000EC
:107761000000048300000000046B00000000046FAF
:0A7771000000000004730000000097
:0DF55E00AE05AD07AF06AB077FD402F0038A
:07F64A00AD077FD412EE337F
:01F651002296
:04EDF9007B017D809D
:0DEDFD00900FF0EDF0A3EBF0900FEFEFF0B2
:10EE0A0012F64AAE07900FF1E0FFB40108900FF036
:10EE1A00E04EFE800AEF7007900FF0E0F45EFE907D
:09EE2A000FEFE0FFAD0602F55EFA
:0EF4CE007F0F12F64AEFB46A037F01227F001F
:01F4DC00220D
:08F65200EF4DFD7F1002F55E93
:08F65A00EF4DFD7F1102F55E8A
:0BD7E500900FE6EBF0A3EAF0A3E9F0E0
:10D7F00090100F7401F0A3740FF0A374E9F07B0C88
:10D800007D227FD412E286900FEAE0FE900FE9E0DD
:10D81000FDEDFF900FE6E0FBA3E0FAA3E0F9900036
:10D8200006EE8FF01270EB900FECE0FE900FEBE045
:10D83000FDEDFF900008EE8FF01270EB900FEEE020
:10D84000FE900FEDE0FDEDFF90000AEE8FF01270FC
:10D85000EB900FF0E0FE900FEFE0FDEDFFEE8FF0AC
:10D860001270CC900FF2E0FE900FF1E0FDEDFF9012
:10D870000FE6E0FBA3E0FAA3E0F9900002EE8FF0E0
:10D880001270EB900FF4E0FE900FF3E0FDEDFF90CF
:08D890000004EE8FF00270EBC2
:10F4AE007B017D017F1212EDFD7F327E0002F3049F
:09F616007B017D047F1902EDFD6A
:04DE6500AB07AA0657
:10DE6900AE04AF057C007D28127007900FECEFF02F
:10DE7900AE02AF03AD07AC06EC126B3C7BDA7A0F4E
:10DE890079497840126907E4FBFA79347843126AD0
:10DE99001012BFB9E4FBFA79807842126907126B54
:10DEA90075900FEDEFF0900FECE0D394FF40037401
:10DEB900FFF0900FEDE0D394FF400374FFF07DA0D5
:10DEC9007F0112F55E900FECE0FD7F5012F55E9038
:10DED9000FEDE0FD7F5412F55E7D207F5912F55E4E
:10DEE900E4FD7F0112F55E7F1912EDF97B017D01D9
:05DEF9007F0B02EDFDAE
:10F0F2007B017D827F5812EDFD7B017D8C7F591251
:10F10200EDFD7D7F7F5A12F55E7F5B12EDF97B018B
:07F112007D087F5E02EDFDA8
:10EAD500900FECEEF0A3EFF0A3EDF07D807F011237
:10EAE500F55E7D8E7F0F12F55E900FECE0FEA3E0E4
:10EAF500FF7C007D50126FB2EF33333354F8FFA320
:10EB0500E054074FFD7F1412F55EE4FD7F0112F519
:0AEB15005E7B017D107F1902EDFD0B
:10F337007F4B12F64A900FE6EFF07F4C12F64AEF3A
:08F34700FE900FE6E0FDEDFF72
:01F34F00229B
:10F350007B017D027F1912EDFD7F017E0012F30417
:09F36000E4FB7D027F1902EDFDC2
:09F61F00E4FB7D107F1902EDFDF2
:10E79F00900FEAE4F0A374C8F07F327E0012F30406
:10E7AF0012F4CEEF70167F01FE12F304900FEA748D
:10E7BF00FFF5F012703D45F070E6FF2212F4AE7DCA
:10E7CF00087F6012F6527D04E4FF12F65A7D647CD6
:10E7DF00007F0A7E0012DE6512F0F27D067F107E4A
:09E7EF000412EAD512F6167F01AE
:01E7F80022FE
:0B913D00900FE6EBF0A3EAF0A3E9F0CE
:10914800127069FDACF0EC126B3C783B1272919096
:109158000FE6E0FBA3E0FAA3E0F990000212709496
:10916800FDACF0EC126B3C783F127291900FE6E088
:10917800FBA3E0FAA3E0F9900004127094FDACF0B0
:10918800EC126B3C7843127291900FE6E0FBA3E07F
:10919800FAA3E0F9900006127094FDACF0EC126BA3
:1091A8003C7B397AFA798E783C1269077B6F7A12A0
:1091B80079837842126A107847127291900FE6E02C
:1091C800FBA3E0FAA3E0F9900008127094FDACF05C
:1091D800EC126B3C7B397AFA798E783C1269077B02
:1091E8006F7A1279837842126A10784B12729190D2
:1091F8000FE6E0FBA3E0FAA3E0F990000A127094EE
:10920800FDACF0EC126B3C7B397AFA798E783C1223
:1092180069077B6F7A1279837842126A10784F1245
:109228007291783F127240A804A905AA06AB0712EA
:109238006907C004C005C006C007783B127240A881
:1092480004A905AA06AB07126907D003D002D0010A
:10925800D000126816C004C005C006C007784312C3
:109268007240A804A905AA06AB07126907D003D063
:1092780002D001D00012681612D9FA8F288E278DD5
:10928800268C25783B127240AB28AA27A926A82548
:10929800126A10783B127291783F127240AB28AA7A
:1092A80027A926A825126A10783F127291784312CE
:1092B8007240AB28AA27A926A825126A107843125B
:1092C8007291787F1272407877127268126907C0BB
:1092D80004C005C006C0077883127240787B1272FA
:1092E80068126907D003D002D001D000126812E4D6
:1092F800FBFAF97840126907785312729178831251
:109308007240787F127268126907C004C005C006EF
:10931800C007787B1272407877127268126907D09A
:1093280003D002D001D000126816E4FBFAF97840A5
:109338001269077857127291787B127240787B1203
:109348007268126907C004C005C006C007787712A2
:1093580072407877127268126907D003D002D00180
:10936800D000126812C004C005C006C007787F127A
:109378007240787F127268126907A804A905AA06C4
:10938800AB07D007D006D005D004126812C004C0BD
:1093980005C006C00778831272407883127268127B
:1093A8006907D003D002D001D000126816785B128A
:1093B800729178571272407843127268126907C026
:1093C80004C005C006C007785B127240783F12726D
:1093D80068126907D003D002D001D0001268127851
:1093E8005F127291785B127240783B127268126950
:1093F80007C004C005C006C00778531272407843FE
:10940800127268126907D003D002D001D000126826
:109418001278631272917853127240783F12726810
:10942800126907C004C005C006C007785712724009
:10943800783B127268126907D003D002D001D000BD
:109448001268127867127291786B127268C000C045
:1094580001C002C0037F6F7E127D837C3A785F1261
:109468007268126907D003D002D001D000126816C2
:10947800786B127291786F127268C000C001C002D6
:10948800C0037F6F7E127D837C3A78631272681204
:109498006907D003D002D001D000126816786F1285
:1094A80072917873127268C000C001C002C0037F55
:1094B8006F7E127D837C3A7867127268126907D0D2
:1094C80003D002D001D00012681678731272917F0F
:1094D800CD7ECC7D4C7C3F785F127268126907782C
:1094E80047127268126816786B12726812681678DA
:1094F800471272917FCD7ECC7D4C7C3F786312728F
:1095080068126907784B127268126816786F1272BF
:1095180068126816784B1272917FCD7ECC7D4C7C98
:109528003F7867127268126907784F12726812687A
:10953800167873127268126816784F1272917877DB
:10954800127268C000C001C002C003787B1272406A
:10955800126B267847127268126907C004C005C0EA
:1095680006C007784B127240787F1272681269073A
:10957800A804A905AA06AB07D007D006D005D004D1
:10958800126812C004C005C006C007784F127240A6
:109598007883127268126907A804A905AA06AB079E
:1095A800D007D006D005D0041268127B6F7A1279E2
:1095B80083783B126907D003D002D001D00012682B
:1095C800167877127291787B127268C000C001C059
:1095D80002C003784F127240787F127268126907CE
:1095E800C004C005C006C0077847127240787712D9
:1095F8007268126907D003D002D001D00012681631
:10960800C004C005C006C007784B127240788312A8
:109618007268126907A804A905AA06AB07D007D083
:1096280006D005D0041268127B6F7A127983783BD2
:10963800126907D003D002D001D000126816787BD7
:10964800127291787F127268C000C001C002C00314
:10965800784F127240787B127268126907C004C092
:1096680005C006C007784B127240787712726812EC
:109678006907D003D002D001D000126812C004C01C
:1096880005C006C0077847127240788312726812C4
:109698006907D003D002D001D0001268167B6F7A18
:1096A800127983783B126907D003D002D001D00029
:1096B800126816787F1272917883127268C000C09F
:1096C80001C002C003784B127240787B1272681294
:1096D8006907C004C005C006C007784F12724078F9
:1096E80077127268126907D003D002D001D0001235
:1096F8006816C004C005C006C007784712724078D3
:109708007F127268126907A804A905AA06AB07D0D8
:1097180007D006D005D0041268127B6F7A127983BD
:10972800783B126907D003D002D001D00012681626
:109738007883127291787B127240787B1272681269
:109748006907C004C005C006C00778771272407860
:1097580077127268126907D003D002D001D00012C4
:109768006816C004C005C006C007787F127240782A
:109778007F127268126907D003D002D001D000129C
:109788006816C004C005C006C0077883127240A8D6
:1097980004A905AA06AB07126907D003D002D001B5
:1097A800D00012681612D9FA8F288E278D268C259C
:1097B8007877127240AB28AA27A926A825126A1022
:1097C8007877127291787B127240AB28AA27A92663
:1097D800A825126A10787B127291787F127240ABBA
:1097E80028AA27A926A825126A10787F12729178CC
:1097F80083127240AB28AA27A926A825126A1078D6
:10980800831272917883127240787B12726812699F
:1098180007C004C005C006C007787F127240787779
:10982800127268126907D003D002D001D000126802
:1098380012E4FBFAF9784012690712ED847BE17AA9
:109848002E79657842126907900FE6E0FBA3E0FAEB
:10985800A3E0F990000C12721C7883127240787F92
:10986800127268126907C004C005C006C007787B79
:109878001272407877127268126907D003D002D04A
:1098880001D000126816E4FBFAF978401269071251
:10989800ED847BE17A2E79657842126907900FE6AC
:1098A800E0FBA3E0FAA3E0F990001012721C787BA9
:1098B800127240A804A905AA06AB07126907C004DA
:1098C800C005C006C0077877127240A804A905AA87
:1098D80006AB07126907D003D002D001D000126886
:1098E80016C004C005C006C007787F127240A804DD
:1098F800A905AA06AB07126907A804A905AA06AB19
:1099080007D007D006D005D004126812C004C005DD
:10991800C006C0077883127240A804A905AA06AB3E
:1099280007126907A804A905AA06AB07D007D0063D
:10993800D005D004126812C004C005C006C007785C
:10994800831272407877127268126907C004C005E2
:10995800C006C007787F127240787B12726812695D
:1099680007A804A905AA06AB07D007D006D005D0DA
:1099780004126816E4FBFAF97840126907D003D09C
:1099880002D001D000126A1012CA7C7BE17A2E79CB
:10999800657842126907900FE6E0FBA3E0FAA3E0BE
:0799A800F990001402721C8B
:0A777B0043126A0000EF41121900EA
:07F6710075DE2F75BC8F222E
:10F2B400EF4480F5BC75BC400000E5BC30E5FB5371
:0AF2C400BCDFAFBDEFFEADBDEDFFF6
:01F2CE00221D
:06F67E00EF24FF92C02200
:0DF56B00EF60044391802253917FC29722EC
:10D59000900FEF1272A900000000E4900FF3F0A3C7
:10D5A000F0A3F0A3F07F0F12F2B47F0F12F2B4E4F5
:10D5B000900FF3F0A3F0900FEFE0F8A3E0F9A3E0F1
:10D5C000FAA3E0FB7F0F12F2B4EE3395E0FDFCEB23
:10D5D0002FFFEA3EFEE93DFDE83CFC900FEF1272A2
:10D5E0009D900FF4E004F07006900FF3E004F0C398
:10D5F000900FF4E09440900FF3E06480948040B684
:10D60000900FEFE0FCA3E0FDA3E0FEA3E0FF7806AF
:10D6100012718B900FEF12729D90126AE0FBA3E0E3
:10D62000FAA3E0F9127069FFAEF0EE3395E0FDFC6D
:10D63000E47BFF7A0FF9F8127118900FEFE0F8A36E
:10D64000E0F9A3E0FAA3E0FB12ED04900FF5EEF091
:10D65000A3EFF0FDAC06EC126B3CE4FBFA797A78B0
:04D6600044126A10F6
:01D6640022A3
:10C0E300900FE61272A900000000E4900FEEF01228
:10C0F300D5907B9A7A99795978C01268167B487AD9
:10C10300E1793A783F126A10900FEA12729DE4FFC8
:10C11300FE7D807C3F900FEAE0F8A3E0F9A3E0FA0C
:10C12300A3E0FB126AAD600E400C900FEA1272A9F5
:10C133003F8000008022E4FFFEFDFC900FEAE0F860
:10C14300A3E0F9A3E0FAA3E0FB126AAD500A900F53
:10C15300EA1272A900000000901219E0703804F08E
:10C16300E4900FEEF0900FEEE0FBC3941450279091
:10C173000FEAE0FCA3E0FDA3E0FEA3E0FFEB25E074
:10C1830025E0241AF582E43412F58312729D900F90
:10C19300EEE004F080CF900FEE7413F0900FEEE01A
:10C1A300FBD394004057EB25E025E02416F582E409
:10C1B3003412F583E0FCA3E0FDA3E0FEA3E0FF90CF
:10C1C300121E12729D900FE6E0FCA3E0FDA3E0FEB9
:10C1D300A3E0FFEB25E025E0241AF582E43412F511
:10C1E30083E0F8A3E0F9A3E0FAA3E0FB126816905A
:10C1F3000FE612729D900FEEE014F0809F900FE611
:10C20300E0FCA3E0FDA3E0FEA3E0FFA3E0F8A3E0CE
:10C21300F9A3E0FAA3E0FB126816900FE612729DF1
:10C22300E4FBFA79A07841900FE6E0FCA3E0FDA3DC
:10C23300E0FEA3E0FF126A10900FEA12729D900FC6
:10C24300EAE0FCA3E0FDA3E0FEA3E0FF90121A12D4
:10C25300729D900FEAE0FCA3E0FDA3E0FEA3E0FFE4
:01C2630022B8
:10001600900FE6E590F0E4F580F5907592307591D5
:10002600B0759601F59575B08475C099F5C8C2A9E5
:0B00360053AFFE53AFDF7587020000E0
:01004100229C
:10EFD800AF90E4F580F5907592307591B075A00109
:10EFE800F596F59575B084F5C0F5C8C2A953AFFE7E
:0AEFF80053AFDF75870200008F9011
:01F0020022EB
:0CF5910012EF7BD2A943AF0143AF202250
:10F4270043BA8090FE8074D0F090FE82E4F053BA25
:02F437007F2232
:10F1D30075100175112C90FE82E020E60DE51115E6
:10F1E300117002151014451070EC90FE82E054BFAC
:02F1F300F02208
:08F47D00EDF0EBA3F043BA80AF
:09F4850090FE817401F002F1D344
:10F1F500900FEFE0FBA3E0FAA3E0F9A3E0F5827539
:09F205008300EF126F9012F4EC8B
:09F20E0090FE817406F002F1D3B8
:0EF5340090FE86EFF090FE817402F002F1D39B
:0FF4DD0090FE817404F012F1D390FE87E0FF22BD
:09F6280090FE817403F002F1D39D
:0EF5420090FE82E4F090FE817405F002F1D399
:0FF4EC0090FE827401F090FE817405F002F1D35E
:10F00300900FF212F47D12000012F628900FF2E036
:10F01300FF12000012F628900FF3E0FF1200001217
:09F02300F62812F20E53BA7F2206
:06EE3300900FF2EFF0ED7C
:10EE390012F480900FF2E0FF12000012F628900FF2
:10EE4900F3E0FF12000012F62812F485900FF2E0A9
:10EE5900FF12000012F62812000012F4EC12F20E52
:03EE690053BA7F1A
:01EE6C002283
:0EE8FB00900FF2EDF0A3EBF0A3EAF0A3E9F02A
:10E90900E412F48012000012F628E4900FF6F09059
:10E919000FF2E0FF900FF6E0FEC39F5022900FF335
:10E92900E0FBA3E0FAA3E0F98E82758300126F1E63
:10E93900FF12000012F628900FF6E004F080D012C2
:05E94900F20E53BA7F3D
:01E94E0022A6
:0DECC000900FEEEDF0A3EBF0A3EAF0A3E956
:10ECCD0012F481EF04FF12000012F628E4900FF207
:10ECDD00F0900FEEE014FF900FF2E0C39F500E1274
:10ECED00000012F1F5900FF2E004F080E412000044
:06ECFD0012F1F553BA7F8D
:01ED030022ED
:06E2860090100CEFF0A364
:10E28C0012F47D90100CE0FF12000012F628901092
:10E29C000DE0FF12000012F62812F48590100CE02D
:10E2AC0004FF120000E4901012F090100EE014FF26
:10E2BC00901012E0C39F502412000090100FE0FB4E
:10E2CC00A3E0FAA3E0F9A3E0F582758300EF126FE7
:10E2DC009012F542901012E004F080CE12000090E3
:08E2EC00100F12F1F853BA7F84
:01E2F4002207
:10778500607511A40A0532000000081E0101000100
:1077950042C233330000000000000000000000007A
:1077A50000003F8000003F80000000000000000056
:1077B50000000000000000000000000000000000C4
:1077C50000000000000000000000000000000000B4
:1077D50000000000000000000000000000000000A4
:1077E5000000000000000000000000000000000094
:0977F5000000000000000000008B
:10EF7B00E4F580F594F593D292D296759230759113
:10EF8B00B075A0B8759640F59575B034F5B2F5B17E
:0FEF9B0075C019F5B4F5B375C820F5CAF5C922CC
:0DF57800438904E4F58AF58CC28CD2A922E7
:10F4BE0043D10275D54075D4A243D10843AF202263
:10F36900759850438E40538EFE53890F758BCC751B
:09F379008DFFC2ABD28ED29922A5
:10F40200759A50438E0475D78F75D6FD438E10437F
:03F41200A801222C
:0CF59D00D288D2A8D28AD2AA438F1022B2
:04000E0075C7602230
:0400560075C1272227
:04009E0043C1102228
:0BE21100900FE6EBF0A3EAF0A3E9F0A9
:10E21C00E4FFA3F0A3F0900FE6E0FBA3E0FAA3E089
:10E22C00F98F82758300126F1EFD900FEAE02DF0BE
:10E23C00900FE9E03400F00FEFB473DA900FE9E0DF
:10E24C00FEA3E0FF900FE6E0FBA3E0FAA3E0F99059
:10E25C000073EE8FF01270EB7F807E0112F1409014
:10E26C000FE6E0FBA3E0FAA3E0F9900FF0E4F0A3D3
:0AE27C007475F07F807E0102EC371C
:0BD94700900FE6EBF0A3EAF0A3E9F07C
:10D95200E4A3F0A3F0A3F0900FF1F0A37475F07FAD
:10D96200807E0112EBF2900FE9E0FFC3947350291D
:10D97200900FE6E0FBA3E0FAA3E0F98F8275830043
:10D98200126F1EFF900FEBE02FF0900FEAE03400D1
:10D99200F0900FE9E004F080CD900FE6E0FBA3E009
:10D9A200FAA3E0F9900073127094FF900FEAE0B5C9
:10D9B200F008A3E0B507037F0122E4900FE9F0909D
:10D9C2000FE9E0FF7C007B0124A4F9EC3411FA1288
:10D9D2006F05FE900FE6E0FBA3E0FAA3E0F98F8269
:10D9E200758300EE126F90900FE9E004F0E0B475D9
:03D9F200CE7F00E5
:01D9F500220F
:08F66200EF640124FF92B522C0
:10EF160012EF7B12F36912F40212F57812F4BE12A4
:10EF2600F59D12F67112F4271200567B017A0E79BE
:10EF3600F112D947E4FF12F6627F057E0012F30450
:03EF4600D2AF2225
:0EF55000E4F5C7F5C5F5C675C3FF75C4FF2207
:10EBF200AD07AC06A2AF92D5C2AF75C78075C5018D
:10EC0200ECF5C3AF058FC475C65A75C6A500E5C23B
:10EC1200126F7E0DBD00010C740129F9E43AFA90DD
:10EC22000FF174FFF5F012703D45F070D312F550FC
:05EC3200A2D592AF2203
:10F14000AD07AC06A2AF92D5ECF5C3AF058FC47581
:10F15000C78075C50375C65A75C6A50012F550E57A
:06F160008024FF92AF22A3
:10EC3700AD07AC06A2AF92D5C2AF75C78075C50246
:10EC4700ECF5C3AF058FC4126F05F5C275C65A75CB
:10EC5700C6A5000DBD00010C740129F9E43AFA902C
:10EC67000FF074FFF5F012703D45F070D312F550B8
:05EC7700A2D592AF22BE
:0B77FE00C1214112DE004212DF00003A
:10EEA60043BA8090FFF2E4F090FFF07417F0A37479
:10EEB60070F090FF647480F090FF60E4F0A3F0A31C
:10EEC600740BF0A374B8F053BA7F43D12075D340C6
:09EED60075D2A243AF40C2212213
:10F3C30043BA80EFB4010543FE80800553FE7FC23C
:05F3D300A653BA7F22E1
:0300A30002DEFE7C
:10DEFE00C0E0C0F0C083C082C0D075D00853EFFB25
:10DF0E009012DEE0FE7019A3E07004A3E064C87006
:10DF1E006D9012DFF0A3F0FF12F3C353D17F805E3A
:10DF2E00EE640170599012DFE0FEA3E0FFC3945837
:10DF3E00EE940250367C007D64126FB2ED4C702B65
:10DF4E009012DFE0FEA3E0FF7C007D64126FB2EF63
:10DF5E0054016401FF12F3C39012DFE0FEA3E0FF51
:10DF6E007C007D64126FB2EF1392A09012DFE0B4CA
:10DF7E00030CA3E0B4E8079012DFE4F0A3F0D0D0D6
:09DF8E00D082D083D0F0D0E03243
:10F3D800E49012DEF0A3F0A3F03021087F0112F3CD
:05F3E800C343D18022A7
:0FF4FB009012DE7401F0E4A3F0A3F043D180225D
:09F63100EF6003D22122C2212264
:10F30400D3EF9400EE94004010007D207C28DCFEB6
:09F31400DDFCEF1F70EA1E80E72A
:01F31D0022CD
:10F3ED00D3EF9400EE9400400B7D06DDFEEF1F7011
:04F3FD00EF1E80EC93
:01F4010022E8
:1084F3000000000000000000002F00000000070043
:10850300070000147F147F1400242A7F2A120023FB
:108513001308646200364955225000000503000029
:1085230000001C224100000041221C000014083EF0
:1085330008140008083E0808000000A060000008B6
:10854300080808080000606000000020100804020A
:10855300003E5149453E0000427F400000426151C8
:108563004946002141454B31001814127F10002762
:1085730045454539003C4A49493000017109050325
:1085830000364949493600064949291E0000363656
:1085930000000000563600000008142241000014B9
:1085A3001414141400004122140800020151090696
:1085B30000324959513E007C1211127C007F494917
:1085C3004936003E41414122007F4141221C007F48
:1085D30049494941007F09090901003E4149497A56
:1085E300007F0808087F0000417F410000204041D0
:1085F3003F01007F08142241007F40404040007F3C
:10860300020C027F007F0408107F003E4141413E7F
:10861300007F09090906003E4151215E007F0919C7
:1086230029460046494949310001017F0101003FC4
:108633004040403F001F2040201F003F4038403F44
:1086430000631408146300070870080700615149A8
:10865300454300007F41410000552A552A5500003B
:1086630041417F00000402010204004040404040B9
:10867300000001020400002054545478007F484451
:10868300443800384444442000384444487F003888
:108693005454541800087E0901020018A4A4A47CB1
:1086A300007F080404780000447D4000004080847B
:1086B3007D00007F102844000000417F4000007CC3
:1086C30004180478007C08040478003844444438CF
:1086D30000FC242424180018242418FC007C08041B
:1086E300040800485454542000043F444020003CF4
:1086F3004040207C001C2040201C003C4030403C7B
:10870300004428102844001CA0A0A07C004464540A
:108713004C4414141414141400000000000000004E
:108723000000000000000000000000000000000046
:1087330000000000000000000000000000F800003E
:108743000000000000333000000000100C06100C85
:108753000600000000000000000040C07840C07820
:108763004000043F04043F040400007088FC083008
:108773000000001820FF211E0000F008F000E018A0
:10878300000000211C031E211E0000F00888700059
:1087930000001E2123241927211010160E000000AB
:1087A30000000000000000000000000000E01804CA
:1087B3000200000000071820400000020418E00037
:1087C30000000040201807000000404080F0804077
:1087D30040000202010F01020200000000F000004D
:1087E30000000101011F0101010000000000000061
:1087F300000080B0700000000000000000000000D6
:10880300000000010101010101010000000000005E
:108813000000003030000000000000000000806015
:108823001804006018060100000000E0100808109A
:10883300E000000F102020100F00001010F80000BF
:1088430000000020203F2020000000700808088856
:108853007000003028242221300000300888884826
:1088630030000018202020110E000000C02010F856
:10887300000000070424243F240000F80888880827
:1088830008000019212020110E0000E0108888182C
:108893000000000F112020110E0000380808C8380E
:1088A30008000000003F00000000007088080888EE
:1088B3007000001C222121221C0000E01008081077
:1088C300E0000000312222110F00000000C0C000B0
:1088D30000000000003030000000000000800000B5
:1088E30000000000806000000000000080402010B5
:1088F30008000001020408102000404040404040AE
:108903004000040404040404040000081020408010
:108913000000002010080402010000704808080845
:10892300F0000000003036010000C030C828E81015
:10893300E0000718272423140B000000C038E000D0
:108943000000203C23020227382008F8888888701A
:108953000000203F202020110E00C0300808080826
:108963003800071820202010080008F8080808100D
:10897300E000203F202020100F0008F88888E80836
:108983001000203F20202320180008F88888E808DA
:108993001000203F200003000000C0300808083802
:1089A300000007182020221E020008F80800000813
:1089B300F808203F210101213F20000808F808089A
:1089C30000000020203F2020000000000808F808D5
:1089D3000800C08080807F00000008F888C0281845
:1089E3000800203F20012638200008F80800000076
:1089F3000000203F20202020300008F8F800F8F87D
:108A03000800203F003F003F200008F830C0000866
:108A1300F808203F200007183F00E010080808105E
:108A2300E0000F10202020100F0008F808080808A5
:108A3300F000203F210101010000E01008080810A8
:108A4300E0000F18242438504F0008F888888888DD
:108A53007000203F2000030C3020007088080808B5
:108A630038000038202121221C00180808F80808C3
:108A730018000000203F2000000008F8080000084C
:108A8300F808001F202020201F000878880000C855
:108A93003808000007380E010000F80800F8000845
:108AA300F800033C0700073C03000818688080684F
:108AB300180820302C03032C30200838C800C8388D
:108AC30008000000203F2000000010080808C838F4
:108AD30008002038262120201800000000FE020292
:108AE30002000000007F40404000000C30C0000046
:108AF3000000000000010638C00000020202FE0070
:108B03000000004040407F00000000000402020219
:108B1300040000000000000000000000000000004E
:108B2300000080808080808080800002020400003A
:108B33000000000000000000000000008080808032
:108B430000000019242222223F2008F80080800020
:108B53000000003F112020110E00000000808080E3
:108B63000000000E112020201100000000808088EA
:108B7300F800000E112020103F200000808080802C
:108B83000000001F222222221300008080F0888828
:108B930088180020203F2020000000008080808073
:108BA3008000006B94949493600008F800808080A8
:108BB3000000203F210000203F2000809898000003
:108BC30000000020203F2020000000000080989833
:108BD300000000C08080807F000008F800008080D3
:108BE3008000203F24022D302000000808F80000F8
:108BF30000000020203F20200000808080808080B3
:108C03008000203F20003F20003F80800080808044
:108C13000000203F210000203F2000008080808052
:108C23000000001F202020201F0080800080800083
:108C3300000080FFA12020110E0000000080808032
:108C43008000000E112020A0FF80808080008080A3
:108C5300800020203F2120000100000080808080D0
:108C630080000033242424241900008080E08080C5
:108C730000000000001F2020000080800000008012
:108C83008000001F202020103F2080808000008073
:108C9300808000010E300806010080800080008083
:108CA30080800F300C030C300F0000808000808028
:108CB30080000020312E0E31200080808000008053
:108CC300808080818E701806010000808080808003
:108CD30080000021302C2221300000000000807C25
:108CE300020200000000003F404000000000FF00BF
:108CF300000000000000FF0000000002027C800072
:108D030000000040403F0000000000060101020295
:108D1300040400000000000000000000E0F8FCFE76
:108D2300FEFEFEFEFCF8E0000000E0FFFFFFFF1F79
:108D33000301031FFFFFFFFFE000FFFFFFFFFF0033
:108D430000000000FFFFFFFFFF00FFFFFFFFFF002A
:108D530000000000FFFFFFFFFF0007FFFFFFFFF81A
:108D6300C080C0F8FFFFFFFF07000000071F3F7F21
:108D73007F7F7F7F3F1F070000000000000080C04F
:108D8300FCFCFCFCFC000000000000007F7F7F7FF8
:108D9300FFFFFFFFFF0000000000000000000000D5
:108DA300FFFFFFFFFF0000000000000000000000C5
:108DB300FFFFFFFFFF00000000000000C0C0C0C0B5
:108DC300FFFFFFFFFFC0C0C0C00000003F3F3F3FA9
:108DD3003F3F3F3F3F3F3F3F3F0000F8F8FCFEFE71
:108DE300FEFEFEFCFCF8E0000000001F0F0703037B
:108DF30003070FFFFFFFFFFF00000000000000005C
:108E03000000E0FFFFFFFF1F00000000000000C0A4
:108E1300F8FEFFFF7F0F0100000000C0F0FCFFFF22
:108E2300FFDFC7C1C0C0C0C0C000003F3F3F3F3FDE
:108E33003F3F3F3F3F3F3F3F3F0000F8F8FCFEFE10
:108E4300FEFEFEFEFCF8F0800000001F0F07030388
:108E5300030307FFFFFFFFFF000000000000F8F817
:108E6300F8FCFEFFFFBF0F01000000000000070732
:108E730007070F1FFFFFFFFEF000F8F0E0E0C0C0A0
:108E8300C0C0E0F0FFFFFFFF3F001F1F3F3F7F7F9A
:108E93007F7F7F3F3F1F0F030000000000000000A3
:108EA300C0F8FCFCFCFCFC00000000000000E0FC3F
:108EB300FF7FFFFFFFFFFF0000000080F0FFFF3F89
:108EC3000300FFFFFFFFFF000000FCFFFFFFF1F0C7
:108ED300F0F0FFFFFFFFFFF0F0F00F0F0F0F0F0F8A
:108EE3000F0FFFFFFFFFFF0F0F0F00000000000039
:108EF30000003F3F3F3F3F0000000000FCFCFCFC44
:108F0300FCFCFCFCFCFCFCFC00000000FFFFFFFF82
:108F1300FF0303030303030300000000FFFFFFFF3E
:108F2300FFFCFCFCFCF8F0C0000000000707030393
:108F33000303070FFFFFFFFFFE0000F8F0E0C0C0D0
:108F4300C0C0E0F8FFFFFFFF3F00001F3F3F7F7FF0
:108F53007F7F7F7F3F1F0F010000000080E0F0F85C
:108F6300FCFEFEFEFEFEFC00000000F8FFFFFFFF1C
:108F73000F030101010103000000FFFFFFFFFFF8E2
:108F8300FCFEFEFEFEFCF8E00000FFFFFFFFFF0318
:108F930001010307FFFFFFFFFF0007FFFFFFFFF8CC
:108FA300C08080E0FFFFFFFF3F000000071F3F3F3F
:108FB3007F7F7F7F3F1F0F010000FCFCFCFCFCFC5C
:108FC300FCFCFCFCFCFCFCFCFC00030303030303B0
:108FD3000303C3FFFFFFFFFF1F00000000000000AB
:108FE300C0FCFFFFFFFF1F0100000000000080F82E
:108FF300FFFFFFFF3F0300000000000000F8FFFF3A
:10900300FFFF7F0300000000000000303F3F3F3FB1
:109013003F0700000000000000000000E0F8FCFC37
:10902300FEFEFEFEFCFCF8E0800000FFFFFFFFFFFA
:1090330003010103FFFFFFFFFF0000073FFFFFFFE7
:10904300FFFCF8FCFFFF1F070000E0FCFEFFFF0F23
:10905300070F1F3FFFFFFFFEF0007FFFFFFFFFE053
:10906300C08080E0FFFFFFFF7F0000070F1F3F7FEF
:109073007F7F7F7F3F1F0F0300000080E0F8FCFE2F
:10908300FEFEFEFEFCF8E0800000F8FFFFFFFF0F8E
:109093000101030FFFFFFFFFF000FFFFFFFFFFE0F2
:1090A300C08080C0FFFFFFFFFF0000071F3F7F7FDF
:1090B3007F7F3F1FFFFFFFFF7F000000C080808096
:1090C30080C0F0FFFFFFFF1F000000007F7F7F7F56
:1090D3007F7F3F1F0F07000000000000000000001B
:1090E300000000000000000000000000000000FF7E
:1090F300FFFFFFFF00000000000000000000000F62
:109103000F0F0F0F0000000000000000000000E040
:10911300E0E0E0E00000000000000000000000FFCD
:10912300FFFFFFFF0000000000000000000000013F
:0A913300010101010000000000002E
:107809006400000800000000000000000000000003
:10781900000000000000000000000000000000005F
:10782900000000000000000000000000000000004F
:10783900000000000000000000000000000000003F
:10784900000000000000000000000000000000002F
:107C090000000000640004080000000000000000FB
:107C1900000000000000000000000000000000005B
:107C2900000000000000000000000000000000004B
:107C3900000000000000000000000000000000003B
:107C4900000000000000000000000000000000002B
:1080090000000000000000006400080800000000F3
:108019000000000000000000000000000000000057
:108029000000000000000000000000000000000047
:108039000000000000000000000000000000000037
:108049000000000000000000000000000000000027
:108409000000000000000000000000004800000B10
:078419000B0B0B0B0B0B0B0F
:10E94F00900FE6EBF0A3EAF0A3E9F012DBF4900FDF
:10E95F00E6E0FBA3E0FAA3E0F9900002126F1EFFBE
:10E96F0012F5B4900FE6E0FBA3E0FAA3E0F99000F4
:10E97F0004126F1EFF12F382900FE6E0FBA3E0FA82
:10E98F00A3E0F9900003126F1EFF12F6877F0102BA
:02E99F00F5F190
:0BBA0900900FE6EFF0A3EDF0A3EBF0D0
:10BA1400A3E0131313541F752700F528900FF0E0CB
:10BA2400600302BABCF525AF257E00C3EF9528EE6E
:10BA34009527400302BB5F900FE7E02FFFEE33FE34
:10BA4400EF7807C333CE33CED8F9FF900FE6E07C0E
:10BA5400002FF52AEC3EF529900FE8E0FFE5258F4D
:10BA6400F0A485F02BF52CE4F526900FE8E0FFE533
:10BA740026C39F503EAF267E00E52C2FFDEE352BCE
:10BA8400FC900FEAE0FBA3E0FAA3E0F98D828C833B
:10BA9400126F1EFDE52A2FFFEE3529FE900FEDE013
:10BAA400FBA3E0FAA3E0F98F828E83ED126F900579
:10BAB4002680B7052502BA2BE4F525AF257E00C301
:10BAC400EF9528EE9527400302BB5F900FE7E02F28
:10BAD400FFEE33FEEF7807C333CE33CED8F9FF90B1
:10BAE4000FE6E07C002FF52AEC3EF529900FE8E004
:10BAF400FFE5258FF0A485F02BF52CE4F526900FB7
:10BB0400E8E0FFE526C39F504DAF267E00E52A2FCF
:10BB1400FDEE3529FC900FEDE0FBA3E0FAA3E02D48
:10BB2400F9EA3CFAC003C002C001126F05FDE52C1E
:10BB34002FFFEE352BFE900FEAE0FBA3E0FAA3E023
:10BB4400F98F828E83126F1E4DD001D002D0031262
:10BB54006F7E052680A8052502BABFE4F525AF252A
:10BB64007E00C3EF9528EE9527400302BBF3900FA8
:10BB7400E7E02FFFEE33FEEF7807C333CE33CED8A2
:10BB8400F9FF900FE6E07C002FF52AEC3EF52990B2
:10BB94000FE8E0FFE5258FF0A485F02BF52CE4F504
:10BBA40026900FE8E0FFE526C39F503EAF267E00B7
:10BBB400E52C2FFDEE352BFC900FEAE0FBA3E0FA19
:10BBC400A3E0F98D828C83126F1EFDE52A2FFFEE10
:10BBD4003529FE900FEDE0FBA3E0FAA3E0F98F8294
:0FBBE4008E83ED126F90052680B7052502BB6298
:01BBF300222F
:06ED48007B017A08790846
:0BED4E00900FF5EBF0A3EAF0A3E9F052
:10ED5900E4F52FF530900FF5E0FBA3E0FAA3E0F915
:10ED6900853082852F83E4126F900530E53070027B
:0AED7900052FB400E0E52FB404DB21
:01ED8300226D
:0BE0A300900FE6EFF0A3EDF0A3EBF010
:10E0AE00A3E0131313541F752700F528E4F525AFCD
:10E0BE00257E00C3EF9528EE95275055900FE7E08B
:10E0CE002FFFEE33FEEF7807C333CE33CED8F9FFF2
:10E0DE00900FE6E07C002FF52AEC3EF529E4F526BC
:10E0EE00900FE8E0FFE526C39F50227E00E52A252B
:10E0FE0026FFEE3529FE900FEAE0FBA3E0FAA3E03F
:10E10E00F98F828E83E4126F90052680D3052580C9
:01E11E009E62
:01E11F0022DD
:10EF4900E4F525F52674082526F58274003525F59E
:10EF590083E0FF74082526F58274043525F583EFCF
:10EF6900F00526E52670020525B400D9E525B40487
:01EF7900D4C3
:01EF7A002274
:03F6840002EA8B0C
:0AE62B00900FF5EFF0900FF7EBF001
:10E63500AF058F2F900FF8E0FFE52FC39F50479050
:10E645000FF5E0FFAD2F12F278E52F75F080A48568
:10E65500F031F532E4F530900FF7E0FFE530C39F78
:10E6650050207E00E5322530FFEE3531FE74082F4F
:10E67500F58274003EF583E0FF7D0112F2F405306A
:06E6850080D5052F80AED8
:01E68B00226C
:0E9E3200900FE6EBF0A3EAF0A3E9F0A3EDF049
:109E40006003029F44F525E4F526E52675F080A41D
:109E500085F029F52A2480F52CE43529F52B852970
:109E600027852A28C3E528952CE527952B503E7495
:109E7000882528F58274003527F583E0C4333354F0
:109E8000C0FF74082528F58274003527F583E01398
:109E900013543F4FFF74082528F58274003527F5C9
:109EA00083EFF00528E52870BB052780B70526E578
:109EB00026B40796E5251313543F75F080A485F06A
:109EC00029F52AE525540375F002A4FFAEF0C3740A
:109ED000069FF52CE49EF52BE4F5267E00E52A2569
:109EE00026FFEE3529FE900FE6E0FBA3E0FAA3E0A3
:109EF000F98F828E83126F1EFFAE2CA80608800297
:109F0000C333D8FC54C0FF74882526F582E434039B
:109F1000F583E0FE1313543F4FFF74882526F58226
:109F2000E43403F583EFF00526E526B480AD7B012C
:109F30007A00790812EA8B0525E525C394205003A1
:109F4000029E4722900FE9E06401600302A06BF5D6
:109F500025E4F526C374079526FFE49400FEEF7808
:109F600007C333CE33CED8F9F52A8E292480F52CB9
:109F7000E43529F52B852927852A28C3E528952C42
:109F8000E527952B503E74082528F5827400352767
:109F9000F583E025E025E0FF74882528F58274FF2D
:109FA0003527F583E0C4131354034FFF74082528A5
:109FB000F58274003527F583EFF00528E52870BB9E
:109FC000052780B70526E52664077088E525131365
:109FD000543FFFC374079FFFE49400FEEF7807C36C
:109FE00033CE33CED8F9F52A8E29E525540375F002
:109FF00002A4FFAEF0C374069FF52CE49EF52BE49B
:10A00000F5267E00E52A2526FFEE3529FE900FE68F
:10A01000E0FBA3E0FAA3E0F98F828E83126F1EFFAC
:10A02000AE2CA806088002C313D8FC5403FF7408A2
:10A030002526F582E43400F583E0FE25E025E04F97
:10A04000FF74082526F582E43400F583EFF0052639
:10A05000E526B480AD7B017A00790812EA8B0525EC
:10A06000E525C394205003029F5122900FE9E0643C
:10A0700002600302A150F525E4F526E52675F0807F
:10A08000A485F029F52A247EF52CE43529F52B85C5
:10A090002927852A28C3E528952CE527952B5026C6
:10A0A000740A2528F58274003527F583E0FF7408CB
:10A0B0002528F58274003527F583EFF00528E5287B
:10A0C00070D3052780CF900FE6E0FBA3E0FAA3E072
:10A0D000F975F002E525A4252AF582E5F03529F584
:10A0E00083126F1EFF7408252CF5827400352BF542
:10A0F00083EFF0E52A2401FFE43529FE75F002E53F
:10A1000025A42FF582E5F03EF583C083C082900F31
:10A11000E6E0FBA3E0FAA3E0F9D082D083126F1E41
:10A12000FF7409252CF5827400352BF583EFF005BB
:10A1300026E5266408600302A07B7B017A0079088B
:10A1400012EA8B0525E525C39440500302A078222E
:10A15000900FE9E06403600302A22EF525E4F526E2
:10A16000E52675F080A485F029F52A247FF52CE4F6
:10A170003529F52BF527852C28D3E528952AE527C1
:10A180009529402674062528F58274003527F58325
:10A19000E0FF74082528F58274003527F583EFF079
:10A1A000E528152870D3152780CFE52575F002A482
:10A1B000FFE52A247FCDE43529CDC39FFFED95F03F
:10A1C000FE900FE6E0FBA3E0FAA3E0F98F828E8316
:10A1D000126F1EFF7409252AF58274003529F58354
:10A1E000EFF0E52575F002A4FFE52A247ECDE435E5
:10A1F00029CDC39FFFED95F08F82F583126F1EFF6F
:10A200007408252AF58274003529F583EFF00526B8
:10A21000E5266408600302A1607B017A00790812D8
:0EA22000EA8B0525E525C39440500302A15D9D
:01A22E00220D
:06CED7007B017A087908D6
:0ECEDD00900FF5EBF0A3EAF0A3E9F0A3EDF05F
:10CEEB00E4F52F900FF8E0FFE52FC39F400302CF2F
:10CEFB00EAE4F530E53075F080A485F033F53424A1
:10CF0B0080F536E43533F535853331853432C3E579
:10CF1B00329536E5319535503D74882532F582745E
:10CF2B00003531F583E0C43333335480FF74082567
:10CF3B0032F58274003531F583E0C3134FFF74086B
:10CF4B002532F58274003531F583EFF00532E53289
:10CF5B0070BC053180B80530E530B40797E52F1369
:10CF6B001313541F75F080A485F033F534E52F545B
:10CF7B0007FFC374079FF536E49400F535E4F530ED
:10CF8B007E00E5342530FFEE3533FE900FF5E0FBE8
:10CF9B00A3E0FAA3E0F98F828E83126F1EFFAE36E9
:10CFAB00A806088002C333D8FC5480FF7488253050
:10CFBB00F582E43403F583E0FEC3134FFF74882539
:10CFCB0030F582E43403F583EFF00530E530B480BF
:0FCFDB00AF7B017A00790812EA8B052F02CEEEA8
:01CFEA002224
:0EC80800900FE6EBF0A3EAF0A3E9F0A3EDF049
:10C81600E4F525900FE9E0FFE525C39F400302C933
:10C8260032E4F526C374079526FFE49400FEEF78FC
:10C8360007C333CE33CED8F9F52A8E292480F52CBA
:10C84600E43529F52B852927852A28C3E528952C43
:10C85600E527952B503D74082528F5827400352769
:10C86600F583E025E0FF74882528F58274FF3527D7
:10C87600F583E0C413131354014FFF74082528F5FC
:10C886008274003527F583EFF00528E52870BC058E
:10C896002780B80526E52664077089E52513131356
:10C8A600541FFFC374079FFFE49400FEEF7807C38D
:10C8B60033CE33CED8F9F52A8E29E5255407FFC3A2
:10C8C60074079FF52CE49400F52BE4F5267E00E52D
:10C8D6002A2526FFEE3529FE900FE6E0FBA3E0FAB7
:10C8E600A3E0F98F828E83126F1EFFAE2CA8060876
:10C8F6008002C313D8FC5401FF74082526F582E490
:10C906003400F583E0FE25E04FFF74082526F58206
:10C91600E43400F583EFF00526E526B480AF7B010D
:0CC926007A00790812EA8B052502C81976
:01C9320022E2
:0AF5F100EF600302F43912F58522E1
:0BF5B400EFD394FF40027FFF02F50A36
:10F38200EF60097F0112F44A7F018007E4FF12F463
:07F392004AE4FF12F45B22C4
:03F6870002F46C1E
:10AF1D00EF75F00A84900FF0F0EF75F00A84A3E559
:10AF2D00F0F0A3740AF0ED75F00A84A3F0ED75F05E
:10AF3D000A84A3E5F0F0A3740AF0EB75F00A84A37C
:10AF4D00F0EB75F00A84A3E5F0F0900FE67407F0CE
:10AF5D00900FE6E0FFC364809480500302B186EF4A
:10AF6D003395E0FE74002FF58274003EF583E0FD0D
:10AF7D0074F02FF582740F3EF583E06D700302B10E
:10AF8D005CE4900FE7F0E4FBEB2401FFE433FEEF0C
