:10D3BA0041543A5354520D0A0041543A4F4B0041DA
:10D3CA00543A454E440D0A0041543A454E440041F0
:10D3DA00543A424155443D25640D0A004F4B2B53A4
:10D3EA0065740041543A414456543D25640D0A007F
:10D3FA006164765F74696D653A000D0A004368617D
:10D40A006E676564204E616D6520746F3A00415401
:10D41A003A525353493F0D0A00525353493A004175
:10D42A00542B524553540D0A004D7920626C756590
:10D43A00746F6F74680000000000000000000000B4
:10D44A0000000000000000000000000000000000D2
:10D45A00000041543A4E414D453D00000000000095
:0ED46A000000000000000000000000000000B4
:0873E600C11F4111A300C120E9
:10005E0090100FEBF0A3EAF0A3E9F090100FE0FB85
:10006E00A3E0FAA3E0F9126C46601C201FFDD21F1C
:10007E0090100FE0FBA3E475F001126D94A9F0FA55
:0D008E00126C46F59B80D4E49011A3F02283
:0300430002DDB328
:10DDB300C0E0C083C082C0D075D008E59A30E105C9
:10DDC300539AFDC21FE59A30E057539AFE9011A370
:10DDD300E0FF04F074232FF582E43411F583E59B0F
:10DDE300F09011A3E0FF2422F582E43411F583E0DF
:10DDF300B40A2E74212FF582E43411F583E09011D7
:10DE0300A3B40D0AE02421F582E434118008E02450
:10DE130022F582E43411F583E4F0D2209011A3E4D7
:0ADE2300F0D0D0D082D083D0E032DE
:10EBB600900FE6EBF0A3EAF0A3E9F030201DC220A7
:10EBC600900FE6E0FBA3E0FAA3E0F8AC02AD037B0E
:0EEBD600017A1179231271397F01227F00220A
:06DF19007B017D057C0088
:10DF1F00901009ECF0A3EDF0901006EBF0A3EAF0EF
:10DF2F00A3E9F0C220801E20202790100974FFF56E
:10DF3F00F0126D7E45F07002FF22901006E0FBA3F9
:10DF4F00E0FAA3E0F912005E7F0A7E0012EEFF8076
:10DF5F00D6C22090100EE0FF7E0078237C117D0149
:10DF6F0090100BE0FBA3E0FAA3E0F91272DCEF7064
:07DF7F00037F01227F002255
:10EC0F0090100B74FFF0A374D3F0A374C3F0A3742C
:10EC1F0005F07BFF7AD379BA7D147C0012DF1FEFEA
:08EC2F0060037F01227F002237
:10EC370090100B74FFF0A374D3F0A374D2F0A374F5
:10EC470006F07BFF7AD379C97D147C0012DF1FEFB2
:08EC570060037F01227F00220F
:05E2B000900FE7EFF004
:10E2B50078E87C0F7D017BFF7AD479407E007F0C66
:10E2C500126C2090101C74FFF0A374D3F0A374D9C2
:10E2D500F0900FE7E0FF90101FE4F0A3EFF07B0153
:10E2E5007A0F79E812975590100B74FFF0A374D349
:10E2F500F0A374E6F0A37406F07A0F79E812DF193B
:08E30500EF60037F01227F009D
:01E30D0022ED
:08E12900900FE7EEF0A3EFF008
:10E1310078E97C0F7D017BFF7AD4794C7E007F10DA
:10E14100126C2090101C74FFF0A374D3F0A374ED33
:10E15100F0900FE7E0FFA3E090101FCFF0A3EFF0E6
:10E161007B017A0F79E912975590100B74FFF0A398
:10E1710074D3F0A374FAF0A37409F07A0F79E91259
:0AE18100DF19EF60037F01227F0029
:01E18B002271
:0BDE2D00900FE7EBF0A3EAF0A3E9F090
:10DE380078EA7C0F7D017BFF7AD4795C7E007F1CB9
:10DE4800126C20900FE7E0F9A3E0FAA3E090100924
:10DE5800C9F0A3EAF0A3E9F07B017A0F79EA12DFAF
:10DE6800F290100974FFF0A374D4F0A37404F07B4B
:10DE7800017A0F79EA12DFF290100B74FFF0A374A5
:10DE8800D4F0A37407F0A37410F07B017A0F79EA39
:0BDE980012DF1BEF60037F01227F0000
:01DEA300225C
:10EC870090100B74FFF0A374D4F0A37423F0A37453
:10EC970005F07BFF7AD47918FD7C0012DF1FEF6047
:07ECA700037F01227F002220
:09F21A007BFF7AD4792902005E21
:0AF1DE00EFB40103C29622D296227C
:10D14C00E4900FE6F0C2967F32FE12EEFF7B017A7E
:10D15C0000790812E96312EC0F900FE6E0FD900FD6
:10D16C00EF7401F0A37400F0A37408F0A37410F032
:10D17C00E4A3F0A3F07B017A117923FF12A6A89007
:10D18C000FE6E02FF012EC87EF900FE6605CE0FD0D
:10D19C00900FEF7401F0A37400F0A37408F0A37463
:10D1AC0010F0E4A3F0A3F07B017A117923FF12A60F
:10D1BC00A8900FE6E02FF012EC37900FE6E0FD9010
:10D1CC000FEF7401F0A37400F0A37408F0A37410B3
:10D1DC00F0E4A3F0A304F0FB7A117923E4FF12A688
:10D1EC00A8900FE6E02FF07F0122E0FD900FEF7486
:10D1FC0001F0A37400F0A37408F0A37410F0E4A37E
:10D20C00F0A304F0FB7A117923E4FF12A6A8900F87
:06D21C00E6E02FF07F00A8
:01D2220022E9
:10C82B00E4900FE6F0D296C2967F64FE12EEFF12F2
:10C83B00EC0FEF602F900FE6E0FD900FEF7401F01F
:10C84B00A37400F0A37408F0A37410F0E4A3F0A396
:10C85B0004F0FB7A117923E4FF12A6A8900FE6E00F
:10C86B002FF080037F00227F0112E2B0900FE6E0F1
:10C87B00FD900FEF7401F0A37400F0A37408F0A304
:10C88B007410F0E4A3F0A304F0FB7A117923E4FF16
:10C89B0012A6A8900FE6E02FF07BFF7AD479331223
:10C8AB00DE2D900FE6E0FD900FEF7401F0A3740006
:10C8BB00F0A37408F0A37410F0E4A3F0A304F0FB4E
:10C8CB007A117923E4FF12A6A8900FE6E02FF07FF0
:10C8DB00B87E0B12E129900FE6E0FD900FEF74018B
:10C8EB00F0A37400F0A37408F0A37410F0E4A3F0A9
:10C8FB00A304F0FB7A117923E4FF12A6A8900FE6AC
:10C90B00E02FF012EC37EF602F900FE6E0FD900F69
:10C91B00EF7401F0A37400F0A37408F0A37410F08B
:10C92B00E4A3F0A304F0FB7A117923E4FF12A6A889
:0FC93B00900FE6E02FF080037F0022D2967F015D
:01C94A0022CA
:10EF1900D3EF9400EE9400400F7D187C55DCFEDDA4
:08EF2900FCEF1F70EB1E80E8F5
:01EF310022BD
:0AEEE50012EEEF7F0212EEEF7F1035
:10EEEF00ED6004D2938002C293C2C38F80D2C3223B
:10EE3A00AE07ED24B0FFE4FD12EEEFEE54F0C45439
:0EEE4A000F4410FF12EEEFEE540FFF02EEEF3A
:10F05D00E4FD7F8D12EEEF7F1412EEEF7FAF02EE27
:01F06D00EFB3
:0CF19800E4FD7F8D12EEEA7FAE02EEEF88
:0EF11D00AE07E4FD7F8112EEEFAF0602EEEFCB
:10F06E00EF6006E4FD7FA08004E4FD7FA112EEEFC9
:01F07E00226F
:10F07F00EF6006E4FD7FC08004E4FD7FC812EEEF71
:01F08F00225E
:10F09000EF6006E4FD7FA78004E4FD7FA612EEEF9B
:01F0A000224D
:10EE1B00E4FEEE24B0FFE4FD12EEE5E4FC7D01E43C
:0EEE2B00FF12EEEF0CECB480F40EEEB408E42F
:01EE390022B6
:10E66100E4F537E53724B0FFE4FD12EEEAE4FF12EA
:10E67100EEEFE53775F080A485F039F53AE4F53829
:10E681007E00E53A2538FFEE35398F82F583126C2D
:10E691005FFF7D0112EEEF0538E538C3948040E05D
:09E6A1000537E537C3940840BABF
:01E6AA00224D
:10D88700D2927F147E0012EF19C2927F0A7E001295
:10D89700EF19D292D2C4E4FD7FAE12EEE57F4012BB
:10D8A700EEEF7F8112EEEF7F7F12EEEF7FC812EE71
:10D8B700EF7FA112EEEF7FA812EEEF7F3F12EEEFA0
:10D8C7007FD312EEEFE4FF12EEEF7FD512EEEF7F7C
:10D8D7008012EEEF7FD912EEEF7FF112EEEF7FDAD3
:10D8E70012EEEF7F1212EEEF7FDB12EEEF7F4012A8
:10D8F700EEEF7F2012EEEF7F0212EEEF7F8D12EE3A
:10D90700EF7F1412EEEF7FA412EEEF7FA612EEEF79
:10D917007FAF12EEEF12EEEF12EE1BE4FDFF02EE09
:01D927003AC5
:1073EE004212AB00004212AE00004212B000404208
:1073FE0012B290884212B500004212B7000042123B
:10740E00A500004112A4004112BA004112B4084175
:07741E0012B9084112A3009E
:06E36900FFEEF0A3EFF04F
:10E36F009012ABE0FCA3E0FDEC900FEAF0A3EDF010
:10E37F009012AEE0FCA3E0FDEC900FECF0A3EDF0FB
:10E38F009012B0E0FCA3E0FDEC900FEEF0A3EDF0E7
:10E39F009012B2E0FCA3E0FDEC900FF0F0A3EDF0D3
:10E3AF0043BA107B017A0F79EA7D087F2012E91EAC
:03E3BF0053BAEF5F
:01E3C2002238
:10E18C0043BA107B017A0F79EA7D047F2012EB569B
:10E19C0053BAEF900FEAE0FF9012B5E4F0A3EFF062
:10E1AC00E07F00FE9012B5F0A3EFF0900FEBE0FDD6
:10E1BC00EDFF9012B5EEF0A3EFF0900FECE0FF90B6
:10E1CC0012B7E4F0A3EFF0E07F00FE9012B7F0A3DB
:10E1DC00EFF0900FEDE0FDEDFF9012B7EEF0A3EF36
:01E1EC00F042
:01E1ED00220F
:10E05D009012ACE04402F012E36F7F0A7E0012EEE4
:10E06D00FF9012AB74D0F0A3E4F09012A4E075F021
:10E07D0004A4FDACF0A3E0FEA3E07806C333CE33D9
:10E08D00CED8F9FFEE4CFEEF4DFF9012BAE0FDEF4A
:10E09D004DFF9012AEEEF0A3EFF0E4A3F0A3F090DD
:10E0AD0012B4E04480FE9012B9E0FD74804D9012E0
:07E0BD00B212E3697F0122AA
:10EC5F00AD07AC06D3ED940FEC940040047C007D1F
:10EC6F000F9012B3E054F0F0ED540FFF9012B2E09A
:08EC7F00F0A3E04FF002E36F87
:02D73500AD073E
:10D737009012A3E070309012AFE054EFF0EF901228
:10D74700ABB40109E04402F0A3E0F08004E054FD2B
:10D75700F09012ABE04401F0A3E0F012E36F9012F7
:10D76700A3E004F0806D9012A3E06401706512E1FC
:10D777008C9012B5E030E65B9012ABE054FEF0906F
:10D7870012B5E05403FEA3E0FF9012A5EEF0A3EF5D
:10D79700F0FDAC06E412687D7BCD7ACC79CC783D80
:10D7A700126648E4FBFA79AE78421265579012A7E1
:10D7B700126FDE9012B7E0C313543F9012ADF0E43E
:10D7C7009012A3F09012A7E0FCA3E0FDA3E0FEA354
:08D7D700E0FF22E4FFFEFDFC6F
:01D7DF002227
:10D52B00900FE6126FDE9012ABE054FEF09012AF4C
:10D53B00E04410F0E4FFFE7D207C41900FE6E0F824
:10D54B00A3E0F9A3E0FAA3E0FB1266487B007A8024
:10D55B00795978C41265571268B69012A5EEF0A3EC
:10D56B00EFF07E009012AFE0543FFF9012AEEEF062
:10D57B00FCA3EFF0FD9012A5E0FEA3E07806C33309
:10D58B00CE33CED8F9FFEC4EFEED4F9012AE12E338
:10D59B0069800F9012B5E0A320E60C7F037E00128A
:10D5AB00EEFF12E18C80EC9012AFE054EFF0900F95
:10D5BB00E6E0FCA3E0FDA3E0FEA3E0FF9012A712C0
:0FD5CB006FDE9012B7E0C313543F9012ADF02201
:10E73C0012E18C9012B5E05403FEA3E0FF9012A5F9
:10E74C00EEF0A3EFF0FDAC06E412687D7BCD7ACC45
:10E75C0079CC783D126648E4FBFA79AE78421265C2
:10E76C00579012A7126FDE9012A7E0FCA3E0FDA356
:06E77C00E0FEA3E0FF2215
:10EA480012E18C9012B7E0C313543F9012ADF090CE
:10EA580012A5E0FCA3E0FDE412687D7BCD7ACC79B9
:10EA6800CC783D126648E4FBFA79AE7842126557D5
:09EA78001268B69012ADEFF02215
:0AF1E8009012ABE054BFF002E36F99
:0AF1F2009012ACE04401F002E36F5C
:0AF1FC009012ACE054FEF002E36F45
:08EF940075F00A84E5F04EFD62
:0DEF9C00AE05AD07AF06AB077FA202EFBECA
:07F25000AD077FA212EE766C
:01F257002294
:04E9D4007B017D80C6
:0DE9D800900FEFEDF0A3EBF0900FEEEFF0DD
:10E9E50012F250AE07900FF0E0FFB40108900FEF60
:10E9F500E04EFE800AEF7007900FEFE0F45EFE90A8
:09EA05000FEEE0FFAD0602EF9CEC
:0BCC8200900FE6EBF0A3EAF0A3E9F04E
:10CC8D0090100F7401F0A3740FF0A374E9F07B07FB
:10CC9D007D027FA212E896900FE9E0547FF0E0FF4D
:10CCAD00C4540F75F00AA4FEEF540F2EFF900FE63B
:10CCBD00E0FBA3E0FAA3E0F9EF126CBF900FEAE0FE
:10CCCD00547FF0E0FFC4540F75F00AA4FEEF540F2B
:10CCDD002EFF900FE6E0FBA3E0FAA3E0F990000130
:10CCED00EF126CD1900FEBE0543FF0E0FFC4540F06
:10CCFD0075F00AA4FEEF540F2E900002126CD19025
:10CD0D000FECE0543FF0E0FFC4540F75F00AA4FEA1
:10CD1D00EF540F2E900004126CD1900FEDE05407DC
:10CD2D00F070037407F0900FEDE0FF900FE6E0FB5D
:10CD3D00A3E0FAA3E0F9900003EF126CD1900FEE8F
:10CD4D00E0FF30E0089000087401126C8CEF541F66
:10CD5D00900FEEF0E0FFC4540F75F00AA4FEEF54EF
:10CD6D000F2E900005126CD1900FEFE024D0FFE450
:0ACD7D0034079000068FF0026E2CC0
:10E5C700900FE6EFF0A3EDF0EB75F00A84C454F07A
:10E5D700FFEB75F00A84E5F04FFD7F0212EF9C9088
:10E5E7000FE7E0FF75F00A84C454F0FEEF7F0312D3
:10E5F700EF94900FE6E0FF75F00A84C454F0FEEF45
:0DE6070075F00A84E5F04EFD7F0402EF9CE3
:10E0C400900FE6EEF0A3EFF0A3EDF0A3EBF0900FCA
:10E0D400E7E02430F0900FE6E034F8F0A3E0FD7FB1
:10E0E4000812EF9C900FE8E0FF75F00A84C454F026
:10E0F400FEEF7F0712EF94900FE9E0FF75F00A84BA
:10E10400C454F0FEEF75F00A84E5F04EFD7F05126D
:10E11400EF9C900FEAE0B40702E4F0900FEAE0FD10
:05E124007F0602EF9CE4
:02D2F800AE0581
:10D2FA00E4900FEBF0A3F0A3F0EF75F00A84C454A6
:10D30A00F04480FDEF75F00A84E5F04DFDEE75F00E
:10D31A000A84C454F04480FFEE75F00A84E5F04FA5
:10D32A00900FEBF0EB4480A3F0900FE9E0FF75F06B
:10D33A000A84C454F04480FEEF75F00A84E5F04E86
:10D34A00900FEDF0900FEAE0FF64026004EFB40181
:10D35A0009ED547FFD900FEB8026900FEAE0FEB4B2
:10D36A00030CED547FFDA3E0547FF0A38012EEB4CA
:10D37A000412ED547FFD900FEBE0547FF0900FED17
:10D38A00E0547FF07F0A12EF9C900FEBE0FD7F09DB
:10D39A0012EF9C900FECE0FD7F0C12EF9C900FEDCA
:10D3AA00E0FD7F0B12EF9C7B017D027F0102E9D831
:09F22300E4FB7D087F0102E9D83B
:10ED49007F0A12E9D47F0912E9D47B017D807F0C07
:10ED590012E9D87B017D807F0B12E9D8E4FB7D089D
:05ED69007F0102E9D862
:10EABA00900FE6EFF0A3EDF0E4FB7D807F0E12E904
:10EACA00D8900FE6E0FD7F0E12EF9C900FE7E0FD75
:10EADA007F0F12EF9C7B017D017F0112E9D87B0138
:07EAEA007D807F0E02E9D8D8
:09F22C00E4FB7D047F0102E9D836
:10F03900E4FB7D017F0112E9D8E4FB7D807F0E02AC
:02F04900E9D804
:09F206007F0112F250EF540CFFDD
:01F20F0022DC
:10F0A100AE05EEC433333354804FFD7F0D02EF9C28
:10F0120012F22312F22C7D017F0312EABAE4FD7F81
:04F022000102F0A156
:06F28F000001020408105A
:1074250041129E004112720541128D0541127E05E1
:0C7435004112920241126D0441129300BA
:10ECAE0090126DE025E025E0FF901292E0FEC43355
:0AECBE0054E04FFFA3E04FFD7FF587
:0DECC800AE05AD07AF06AB077FEC02EFBE57
:07F25800AD077FEC12EE761A
:01F25F00228C
:0EF12B007FD012F258BF60037F01227F0022C6
:10CE8C0078D17C127D017BFF7AF2798F7E007F0650
:10CE9C00126C2090128DE0FFD39405501174D12F99
:10CEAC00F582E43412F583E09012CEF080069012F5
:10CEBC00CE7410F090127EE0FFD39405501174D113
:10CECC002FF582E43412F583E09012CFF0800690B7
:10CEDC0012CF7410F0901272E0FFD39405501174BD
:10CEEC00D12FF582E43412F583E09012D0F0800655
:10CEFC009012D07410F09012CFE0FCE41268827B98
:10CF0C00337A33791378401266487B337A3379134A
:10CF1C00783F126557C004C005C006C0079012CEFA
:10CF2C00E0FCE41268827B337A3379137840126622
:10CF3C0048E4FBFA79A0783F126557D003D002D0B1
:10CF4C0001D000126557C004C005C006C00790127E
:10CF5C00D0E0FCE41268827B337A33791378401288
:10CF6C0066487B337A337913783F126557D003D0F8
:0DCF7C0002D001D0001265571268B67E0089
:01CF89002285
:10BDBA0090100F7401F0A3740FF0A374EBF07B1AC8
:10BDCA007D887FEC12E89690100F7401F0A374102E
:10BDDA00F0A37405F07B077DE17FEC12E896900FE3
:10BDEA00ECE0FE900FEBE0FDEDFF901283EEF0A386
:10BDFA00EFF0900FEEE0FE900FEDE0FDEDFF9012F8
:10BE0A0087EEF0A3EFF0900FF0E0FE900FEFE0FD69
:10BE1A00EDFF90128BEEF0A3EFF0900FF2E0FE90A0
:10BE2A000FF1E0FDEDFF901278EEF0A3EFF0900F26
:10BE3A00F4E0FE900FF3E0FDEDFF90127AEEF0A32E
:10BE4A00EFF0900FF6E0FE900FF5E0FDEDFF901297
:10BE5A007CEEF0A3EFF0900FF8E0FE900FF7E0FD14
:10BE6A00EDFF90127FEEF0A3EFF0900FFAE0FE9054
:10BE7A000FF9E0FDEDFF901281EEF0A3EFF0900FC5
:10BE8A00FCE0FE900FFBE0FDEDFF901285EEF0A3C3
:10BE9A00EFF0900FFEE0FE900FFDE0FDEDFF901237
:10BEAA0089EEF0A3EFF0901000E0FE900FFFE0FDA6
:10BEBA00EDFF90128EEEF0A3EFF0901002E0FE90EC
:10BECA001001E0FDEDFF901290EEF0A3EFF090105C
:10BEDA0004E090126EF0901006E0FE901005E0FD6E
:10BEEA00EDFF90126FEEF0A3EFF0901007E09012C2
:10BEFA0071F0901008E075F010A4FFA3E0FDEF4D7B
:10BF0A00FF901273E5F0F0A3EFF090100AE075F0DD
:10BF1A0010A4FF901009E0C4540FFDEF4DFF9012DA
:0FBF2A0075E5F0F0A3EFF090100BE0901277F0B8
:01BF390022E5
:10D0740090100F7401F0A3740FF0A374E9F07B080F
:10D084007DF77FEC12E896900FEAE0FFE4FCFDFEEA
:10D094007804126EE0C004C005C006C007900FE912
:10D0A400E0FFE4FCFDFE780C126EE0D003D002D069
:10D0B40001D000EF4BFFEE4AFEED49FDEC48FCA821
:10D0C40004A905AA06AB07900FEBE0C4540FFFEBCD
:10D0D4004FFFEAFEE9FDE8FC90129A126FDE900F12
:10D0E400EDE0FFE4FCFDFE7804126EE0C004C00530
:10D0F400C006C007900FECE0FFE4FCFDFE780C12C4
:10D104006EE0D003D002D001D000EF4BFFEE4AFE18
:10D11400ED49FDEC48FCA804A905AA06AB07900F4D
:10D12400EEE0C4540FFFEB4FFFEAFEE9FDE8FC908C
:10D134001294126FDE900FEFE0FEA3E0FDEDFF907E
:07D144001298EEF0A3EFF0DA
:01D14B0022C1
:10B74A00900FF5126FEAC2200000900FF9126FEA0B
:10B75A0042AA0000901294E0FCA3E0FDA3E0FEA33D
:10B76A00E0FFE4126878E4FBFA79807846126751C0
:10B77A00C004C005C006C007901283E0FCA3E0FD28
:10B78A00E412687DE4FBFA79807844126751A804D0
:10B79A00A905AA06AB07D007D006D005D0041265C2
:10B7AA0053900FE9126FDE901287E0FCA3E0FDECE4
:10B7BA0012687D900FE9E0F8A3E0F9A3E0FAA3E0AC
:10B7CA00FB126648900FE9126FDE901294E0FCA318
:10B7DA00E0FDA3E0FEA3E0FFE4126878E4FBFAF9D7
:10B7EA007848126751C004C005C006C0079012838A
:10B7FA00E0FCA3E0FDE412687DE4FBFAF978461266
:10B80A006751A804A905AA06AB07D007D006D00538
:10B81A00D004126553900FED126FDE90128BE0FC8C
:10B82A00A3E0FDEC12687DC004C005C006C0079005
:10B83A000FEDE0FCA3E0FDA3E0FEA3E0FFA804A94E
:10B84A0005AA06FB126648D003D002D001D0001226
:10B85A006648900FED126FDE900FEDE0FCA3E0FD5D
:10B86A00A3E0FEA3E0FF900FE9E0F8A3E0F9A3E06C
:10B87A00FAA3E0FB1265571268B690129F126FDEA8
:10B88A00900FEDE0FCA3E0FDA3E0FEA3E0FF900F24
:10B89A00E9E0F8A3E0F9A3E0FAA3E0FB126557E4B4
:10B8AA00FBFA79A07845126751900FF1126FDE907A
:10B8BA000FF5E0FCA3E0FDA3E0FEA3E0FF900FF18B
:10B8CA00E0F8A3E0F9A3E0FAA3E0FB1267EE500563
:10B8DA00900FF58026900FF9E0FCA3E0FDA3E0FEAF
:10B8EA00A3E0FF900FF1E0F8A3E0F9A3E0FAA3E0E8
:10B8FA00FB1267EE60164014900FF9E0FCA3E0FD1E
:10B90A00A3E0FEA3E0FF900FF1126FDE900FF1E0CB
:0AB91A00FCA3E0FDA3E0FEA3E0FFA4
:01B924002200
:109F7000900FF9126FEA46EA6000900FFD126FEA47
:109F800047D6D80090129FE0FCA3E0FDA3E0FEA31B
:109F9000E0FFEC126878E4FBFAF97840126751E4CC
:109FA000FBFA797A78C7126557900FE9126FDE9045
:109FB0001285E0FCA3E0FDEC12687DC004C005C082
:109FC00006C007900FE9E0FCA3E0FDA3E0FEA3E0DC
:109FD000FFA804A905AA06FB126648D003D002D048
:109FE00001D000126648E4FBFAF9784712675190F5
:109FF0000FED126FDE900FEDE0F8A3E0F9A3E0FAA9
:10A00000A3E0FBC000C001C002C003901281E0FCCD
:10A01000A3E0FDEC12687D900FE9E0F8A3E0F9A35E
:10A02000E0FAA3E0FB126648E4FBFAF97840126616
:10A0300048D003D002D001D000126557900FED1226
:10A040006FDE90127FE0FCA3E0FDEC12687DE4FB84
:10A05000FA79807847126648C004C005C006C00778
:10A06000E4FBFA79807840900FEDE0FCA3E0FDA3DB
:10A07000E0FEA3E0FF126751D003D002D001D00070
:10A08000126557900FED126FDE90127CE0FCA3E09A
:10A09000FDEC12687D900FE9E0F8A3E0F9A3E0FA87
:10A0A000A3E0FB126648900FE9E0F8A3E0F9A3E013
:10A0B000FAA3E0FB126648E4FBFAF978491267510B
:10A0C000900FF1126FDE90127AE0FCA3E0FDEC122B
:10A0D000687D900FE9E0F8A3E0F9A3E0FAA3E0FBC4
:10A0E000126648900FF1E0F8A3E0F9A3E0FAA3E0CC
:10A0F000FB126557E4FBFAF97849126751900FE9B2
:10A10000126FDEE4FBFAF97847900FE9E0FCA3E078
:10A11000FDA3E0FEA3E0FF126751E4FBFA7980782B
:10A120003F126557C004C005C006C007901278E012
:10A13000FCA3E0FDE412687DD003D002D001D00082
:10A14000126648900FE9126FDEE4FFFEFDFC900FEF
:10A15000E9E0F8A3E0F9A3E0FAA3E0FB1267EE6000
:10A1600002500302A30690129AE0FCA3E0FDA3E0D4
:10A17000FEA3E0FFE4126878A804A905AA06AB07CD
:10A18000E4FFFE7D807C49126553900FF5126FDE6F
:10A19000E4FBFA79807845900FEDE0FCA3E0FDA3A5
:10A1A000E0FEA3E0FF126751A804A905AA06AB07C9
:10A1B000900FF5E0FCA3E0FDA3E0FEA3E0FF126535
:10A1C000537B007A5079C37845126648900FE9E0D6
:10A1D000F8A3E0F9A3E0FAA3E0FB126751900FF5B2
:10A1E000126FDE901290E0FCA3E0FDEC12687D900F
:10A1F0000FF5E0F8A3E0F9A3E0FAA3E0FB1266484C
:10A20000900FF5E0F8A3E0F9A3E0FAA3E0FB1266F3
:10A2100048E4FBFAF9784F126751900FE9126FDEAC
:10A2200090128EE0FCA3E0FDEC12687D900FF5E04B
:10A23000F8A3E0F9A3E0FAA3E0FB126648E4FBFA16
:10A24000F97847126751900FED126FDE900FF5E02D
:10A25000F8A3E0F9A3E0FAA3E0FBC000C001C0024C
:10A26000C003901289E0FCA3E0FDEC12687DC004FD
:10A27000C005C006C007900FEDE0FCA3E0FDA3E021
:10A28000FEA3E0FF900FE9E0F8A3E0F9A3E0FAA352
:10A29000E0FB126557D003D002D001D00012655701
:10A2A000E4FBFA79807841126751D003D002D001E3
:10A2B000D000126557900FF5126FDE900FF9E0FC99
:10A2C000A3E0FDA3E0FEA3E0FF900FF5E0F8A3E01C
:10A2D000F9A3E0FAA3E0FB1267EE50028028900F8A
:10A2E000FDE0FCA3E0FDA3E0FEA3E0FF900FF5E09E
:10A2F000F8A3E0F9A3E0FAA3E0FB1267EE601B40CD
:10A3000019900FFD8003900FF9E0FCA3E0FDA3E09E
:10A31000FEA3E0FF900FF5126FDE900FF5E0FCA3B7
:08A32000E0FDA3E0FEA3E0FF55
:01A328002212
:10AEC800900FED126FEA00000000900FF1126FEA88
:10AED80042C8000090129FE0FCA3E0FDA3E0FEA39F
:10AEE800E0FFEC126878E4FBFA799678C7126557A8
:10AEF800900FF5126FDE901275E0FCA3E0FDEC12E6
:10AF0800687DE4FBFA79807846126751900FF5E086
:10AF1800F8A3E0F9A3E0FAA3E0FB126648C004C076
:10AF280005C006C007901273E0FCA3E0FDEC1268B0
:10AF38007DE4FBFA79807842126648D003D002D0CB
:10AF480001D000126557900FF9126FDE901298E049
:10AF5800FCA3E0FDE412687D900FF9E0F8A3E0F9A6
:10AF6800A3E0FAA3E0FB126553900FFD126FDE9089
:10AF7800126FE0FCA3E0FDEC12687DE4FBFA798037
:10AF88007847126751901001126FDE901271E0FC41
:10AF9800E4126882E4FBFA7980784C126751900FCA
:10AFA800F5E0F8A3E0F9A3E0FAA3E0FB126648E4B1
:10AFB800FBFA7980783F126557901005126FDE9082
:10AFC8001277E0FC126882E4FBFA7980784C126709
:10AFD80051900FF5E0F8A3E0F9A3E0FAA3E0FB1223
:10AFE8006648901005E0F8A3E0F9A3E0FAA3E0FBB7
:10AFF800126648E4FBFA7980783F12655790100989
:10B00800126FDE901009E0FCA3E0FDA3E0FEA3E0D0
:10B01800FF901005E0F8A3E0F9A3E0FAA3E0FB1223
:10B028006648C004C005C006C007901001E0FCA334
:10B03800E0FDA3E0FEA3E0FF900FFDE0F8A3E0F938
:10B04800A3E0FAA3E0FB126648D003D002D001D0F7
:10B0580000126648901009126FDE90126EE0FCE450
:10B06800126882901009E0F8A3E0F9A3E0FAA3E0DF
:10B07800FB126648E4FBFAF97849126751A804A95B
:10B0880005AA06AB07E4FFFE7D807C3F126553905E
:10B098001009E0F8A3E0F9A3E0FAA3E0FB12664880
:10B0A800900FE9126FDE900FF1E0FCA3E0FDA3E042
:10B0B800FEA3E0FF900FE9E0F8A3E0F9A3E0FAA30C
:10B0C800E0FB1267EE60074005900FF18024900FB7
:10B0D800EDE0FCA3E0FDA3E0FEA3E0FF900FE9E0B4
:10B0E800F8A3E0F9A3E0FAA3E0FB1267EE5014908E
:10B0F8000FEDE0FCA3E0FDA3E0FEA3E0FF900FE965
:10B10800126FDE900FE9E0FCA3E0FDA3E0FEA3E0F0
:01B11800FF37
:01B119002213
:10E6F500900FE6EBF0A3EAF0A3E9F012D07412B79D
:10E705004A900FE6E0FBA3E0FAA3E0F9126F43128B
:10E715009F70900FE6E0FBA3E0FAA3E0F9900004F8
:10E72500126F5D12AEC8900FE6E0FBA3E0FAA3E01E
:07E73500F9900008026F5D7E
:0EF139007DB67FE012ECC87F057E0002EEFF7F
:10E41D00900FEA74C8F07F057E0012EEFF12F12B0B
:10E42D00EF70107F01FE12EEFF900FEAE014F07016
:10E43D00ECFF2212F13912BDBA12ECAE901272E05D
:10E44D00FD7FF212ECC890127EE025E025E0FF90F2
:10E45D00128DE0FEC43354E04FFF90129EE04FFD4D
:07E46D007FF412ECC87F01EF
:01E474002285
:10EE580090129EEFF090127EE025E025E0FE9012E1
:0EEE68008DE0C43354E04E4FFD7FF402ECC841
:10ED6E009012E8EBF0A3EAF0A3E9F07F0112EE585F
:10ED7E0012CE8C12EEFF9012E8E0FBA3E0FAA3E0B5
:04ED8E00F902E6F5AB
:10EFA900EFD3940740027F07901292EFF012ECAE74
:05EFB9007F0302EE5889
:10EDFB00746865206D6172697820636F756C64202F
:10EE0B006E6F7420626520736F6C7665640D0A00FB
:10744100581049000000000000000000000000008A
:107451000000000000000000000000421061000078
:10E30E00FF90106375F01CED12701BEC75F01CA4E1
:10E31E002583F583E5822FF582E5833EF583E0FCC8
:09E32E00A3E0FDA3E0FEA3E0FF63
:10E33700901025126FDEE4FFFEFDFC901025E0F83B
:10E34700A3E0F9A3E0FAA3E0FB1267EE901025E043
:10E35700FCA3E0FDA3E0FEA3E0FF50051268678081
:02E36700002292
:10E78200E4900FE6F0E4900FE7F0900FE7E0FFC3AC
:10E7920094075027900FE6E075F01CA42463F582DD
:10E7A200E43410F58375F004EF12701B126FEA0067
:10E7B200000000900FE7E004F080CF900FE6E00445
:05E7C200F0E0B406C008
:01E7C700222F
:06BF3A00900FE6126FDE1D
:10BF4000901062E004F07006901061E004F0900F31
:10BF5000EAE0FCA3E0FDA3E0FEA3E0FF900FEAE02F
:10BF6000F8A3E0F9A3E0FAA3E0FB126648900FF211
:10BF7000126FDE900FEEE0FCA3E0FDA3E0FEA3E075
:10BF8000FFA804A905AA06FB126648900FF6126FD7
:10BF9000DE900FE6E0FCA3E0FDA3E0FEA3E0FF904F
:10BFA0000FFA126FDE900FEAE0FCA3E0FDA3E0FEC3
:10BFB000A3E0FF900FFE126FDE900FEEE0FCA3E017
:10BFC000FDA3E0FEA3E0FF901002126FDE901006CA
:10BFD000126FEA3F800000900FE6E0FCA3E0FDA3B3
:10BFE000E0FEA3E0FF126867900FE6E0F8A3E0F937
:10BFF000A3E0FAA3E0FB12664890100A126FDEE499
:10C0000090100EF0E490100FF090100EE075F01C00
:10C01000A42463F582E43410F583C083C0829010B9
:10C020000FE0D082D08375F00412701BC083C082F1
:10C03000E0F8A3E0F9A3E0FAA3E0FBC000C001C070
:10C0400002C00390100FE025E025E024F2F582E421
:10C05000340FF583E0FCA3E0FDA3E0FEA3E0FF9036
:10C06000100EE025E025E024F2F582E4340FF5839C
:10C07000E0F8A3E0F9A3E0FAA3E0FB126648D003DE
:10C08000D002D001D000126557D082D083126FDE6B
:10C0900090100FE004F0E06407600302C009901004
:0CC0A0000EE004F0E06406600302C0043F
:01C0AC002271
:10DCB600E4901019F0E490101AF0901019E075F045
:10DCC6001CA42463F582E43410F583C083C08290DB
:10DCD600101AE0D082D08375F00412701BC083C086
:10DCE60082E0FCA3E0FDA3E0FEA3E0FFC004C005C4
:10DCF600C006C007901061E0FCA3E0FDEC12687D51
:10DD0600A804A905AA06AB07D007D006D005D004FB
:10DD1600126751D082D083126FDE90101AE004F0A1
:0FDD2600E0B40796901019E004F0E064067086F0
:01DD350022CB
:0ECF8A00901025EEF0A3EFF0A3ECF0A3EDF075
:10CF9800A3126FEA00000000E490102DF090102515
:10CFA800A3E075F01CA42463F582E43410F583C073
:10CFB80083C08290102DE0D082D08375F004127067
:10CFC8001BE0FCA3E0FDA3E0FEA3E0FF9010291204
:10CFD8006FDE901027A3E075F01CA42463F582E4AB
:10CFE8003410F583C083C08290102DE0D082D083A6
:10CFF80075F00412701BE0FCA3E0FDA3E0FEA3E0C3
:10D00800FF901025A3E075F01CA42463F582E43496
:10D0180010F583C083C08290102DE0D082D0837534
:10D02800F00412701B126FDE901029E0FCA3E0FDE3
:10D03800A3E0FEA3E0FF901027A3E075F01CA42452
:10D0480063F582E43410F583C083C08290102DE02C
:10D05800D082D08375F00412701B126FDE90102DF1
:0BD06800E004F0E06407600302CFA5C5
:01D07300229A
:06E1EE0090101E126FDE0E
:10E1F400E4901024F0901022A3E075F01CA4246392
:10E20400F582E43410F583C083C082901024E0D0FA
:10E2140082D08375F00412701BC083C082E0FCA31B
:10E22400E0FDA3E0FEA3E0FF90101EE0F8A3E0F9F8
:10E23400A3E0FAA3E0FB126648D082D083126FDE1B
:0AE24400901024E004F0E0B407ABF2
:01E24E0022AD
:06D7E00090101F126FDE25
:10D7E600E4901027F0901025A3E075F01CA42463A4
:10D7F600F582E43410F583C083C082901027E0D010
:10D8060082D08375F00412701BC083C082E0F8A337
:10D81600E0F9A3E0FAA3E0FBC000C001C002C00328
:10D82600901023A3E075F01CA42463F582E4341061
:10D83600F583C083C082901027E0D082D08375F034
:10D846000412701BE0FCA3E0FDA3E0FEA3E0FF9042
:10D85600101FE0F8A3E0F9A3E0FAA3E0FB12664884
:10D86600D003D002D001D000126557D082D08312E7
:10D876006FDE901027E004F0E06407600302D7EB48
:01D88600227F
:08DA5F0090101FEEF0A3EFF0A0
:10DA6700E4A3F0A3F0A3F0A3F0EF2401FFE43E90BA
:10DA77001021F0A3EFF0901021E0FCA3E0FDC39488
:10DA870006EC64809480506890101FE0FEA3E07855
:10DA970002C333CE33CED8F912E30EC004C005C09B
:10DAA70006C00790101FE0FCA3E0FDAE047802C398
:10DAB70033CE33CED8F912E30EA804A905AA06ABD4
:10DAC70007D007D006D005D0041267EE501190108A
:10DAD7001FE0FEA3E0FFA3E0FCA3E0FD12CF8A90C6
:10DAE7001022E004F0708F901021E004F002DA7D3C
:01DAF700220C
:10CB7900901019126FEA00000000E490101DF09067
:10CB8900101DE0FFC39406400302CC7F7E0012DA39
:10CB99005F90101DE0FF75F01CA42463F582E43456
:10CBA90010F58375F004EF12701BE0FCA3E0FDA300
:10CBB900E0FEA3E0FFE4FBFAF9F81267EE70037FE9
:10CBC900012290101DE004A3F090101EE0FFC39411
:10CBD90006400302CC76EF75F01CA42463F582E4C9
:10CBE9003410F583C083C08290101DE0D082D083B9
:10CBF90075F00412701BE0FCA3E0FDA3E0FEA3E0C6
:10CC0900FF12686790101DE075F01CA42463F5827B
:10CC1900E43410F583C083C08290101DE0D082D027
:10CC29008375F00412701BE0F8A3E0F9A3E0FAA3FE
:10CC3900E0FB126751901019126FDE901019E0FC99
:10CC4900A3E0FDA3E0FEA3E0FFA3E0FB901023E433
:10CC5900F0A3EBF090101EE0FB901025E4F0A3EB9D
:10CC6900F012D7E090101EE004F002CBD290101D14
:08CC7900E004F002CB887F000B
:01CC81002290
:10DF8600901019126FEA00000000E490101DF09046
:10DF9600101DE0FF75F01CA42463F582E43410F52F
:10DFA6008375F004EF12701BE0F8A3E0F9A3E0FA22
:10DFB600A3E0FBE4FFFE7D807C3F126751901019C1
:10DFC600126FDE901019E0FCA3E0FDA3E0FEA3E0D3
:10DFD600FFA3E0FB901022E4F0A3EBF012E1EE9039
:0BDFE600101DE004F0E0C3940640A40E
:01DFF100220D
:0BB92500901019EBF0A3EAF0A3E9F08A
:10B93000A3126FEA0000000590101CE0FCA3A3E036
:10B94000FEEC33500302BAB090101CA3A3A3E09006
:10B95000107B75F01C12701BEE75F01CA42583F58E
:10B9600083E0FCA3E0FDA3E0FEA3E0FFC004C0056C
:10B97000C006C007E47F04FEFDFC90101CE0F8A3A5
:10B98000E0F9A3E0FAA3E0FB126E59901019E0FB76
:10B99000A3E0FAA3E0F98F828E83D007D006D0050A
:10B9A000D004126F5D9010207405F090101CE0FC24
:10B9B000A3E0FDA3E0FEA3E02401FBE43EFAE43DA6
:10B9C000F9E43CF8A3E0FFE4FCFDFED3126EB640C0
:10B9D0000302BA89E47F04FEFDFC90101CE0F8A38A
:10B9E000E0F9A3E0FAA3E0FB126E59901019E0FB16
:10B9F000A3E0FAA3E02FF9EA3EFAEB3DFBC003C057
:10BA000002C001126EF3C004C005C006C00790104A
:10BA100019E0FBA3E0FAA3E0F9901020E075F00430
:10BA2000A4F58285F083126F1390101CA3A3E0FA93
:10BA3000A3E090106375F01C12701BEA75F01CA453
:10BA40002583F583C083C082901020E0D082D0830C
:10BA500075F00412701BE0F8A3E0F9A3E0FAA3E08C
:10BA6000FB126648A804A905AA06AB07D007D006B2
:10BA7000D005D004126553D001D002D003126F4319
:10BA8000901020E014F002B9AB90101CE0FCA3E091
:10BA9000FDA3E0FEA3E0FFEF24FFFFEE34FFFEED89
:10BAA00034FFFDEC34FFFC90101C126FDE02B9383D
:01BAB0002273
:0BA32900900FE6EBF0A3EAF0A3E9F0D0
:10A33400A3126FEA00000000900FED126FEA000014
:10A344000000900FF1126FEA00000000900FF51268
:10A354006FEA00000000900FF9126FEA000000009D
:10A36400900FFD126FEA00000000901001126FEAD6
:10A3740000000000901005126FEA00000000901029
:10A3840009126FEA0000000090100D126FEA00003D
:10A394000000901011126FEA0000000090101512D6
:10A3A4006FEA0000000012DCB612CB79EF600C7B80
:10A3B400FF7AED79FB12975B7F002212DF867B0127
:10A3C4007A10794912B925901049E0FCA3E0FDA365
:10A3D400E0FEA3E0FF900FE9126FDE90104DE0FC69
:10A3E400A3E0FDA3E0FEA3E0FF900FED126FDE906B
:10A3F4001051E0FCA3E0FDA3E0FEA3E0FF900FF109
:10A40400126FDE901055E0FCA3E0FDA3E0FEA3E094
:10A41400FF900FF5126FDE901059E0FCA3E0FDA34E
:10A42400E0FEA3E0FF900FF9126FDE90105DE0FCF8
:10A43400A3E0FDA3E0FEA3E0FF900FFD126FDE900A
:10A444000FF1E0FCA3E0FDA3E0FEA3E0FF126867C8
:10A45400E4FBFAF97840126751901001126FDEE4C0
:10A46400FFFEFD7C40900FE9E0F8A3E0F9A3E0FAD9
:10A47400A3E0FB126648C004C005C006C007900FE5
:10A48400F5E0FCA3E0FDA3E0FEA3E0FF126867D0C3
:10A4940003D002D001D000126751901005126FDE74
:10A4A400E4FFFEFD7C40900FEDE0F8A3E0F9A3E0AB
:10A4B400FAA3E0FB126648C004C005C006C00790BA
:10A4C4000FF9E0FCA3E0FDA3E0FEA3E0FF12686740
:10A4D400D003D002D001D000126751901009126F3E
:10A4E400DE901005E0FCA3E0FDA3E0FEA3E0FF90F6
:10A4F4000FE9E0F8A3E0F9A3E0FAA3E0FB12664851
:10A50400901005E0F8A3E0F9A3E0FAA3E0FB1266DB
:10A5140048C004C005C006C007901001E0FCA3E0D9
:10A52400FDA3E0FEA3E0FFA804A905AA06FB1266AA
:10A5340048D003D002D001D000126557C004C00532
:10A54400C006C007901009E0FCA3E0FDA3E0FEA351
:10A55400E0FF900FEDE0F8A3E0F9A3E0FAA3E0FB3D
:10A56400126648901009E0F8A3E0F9A3E0FAA3E02A
:10A57400FB126648D003D002D001D0001265579078
:10A584000FFDE0F8A3E0F9A3E0FAA3E0FB126553A2
:10A5940012D68D90100D126FDE900FE9E0FCA3E04F
:10A5A400FDA3E0FEA3E0FF12D68DA804A905AA0628
:10A5B400AB0790100DE0FCA3E0FDA3E0FEA3E0FFD9
:10A5C400126751901011126FDE900FEDE0FCA3E0C2
:10A5D400FDA3E0FEA3E0FF12D68DA804A905AA06F8
:10A5E400AB0790100DE0FCA3E0FDA3E0FEA3E0FFA9
:10A5F400126751901015126FDE901001E0FCA3E079
:10A60400FDA3E0FEA3E0FF1268B6900FE6E0FBA313
:10A61400E0FAA3E0F9EE8FF0126E0D901005E0FC65
:10A62400A3E0FDA3E0FEA3E0FF1268B6900FE6E00E
:10A63400FBA3E0FAA3E0F9900002EE8FF0126E2C77
:10A64400901009E0FCA3E0FDA3E0FEA3E0FF126884
:10A65400B6900FE6E0FBA3E0FAA3E0F9900004EE65
:10A664008FF0126E2C90100DE0FCA3E0FDA3E0FE31
:10A67400A3E0FF900006126F5D901011E0FCA3E0D0
:10A68400FDA3E0FEA3E0FF90000A126F5D90101599
:10A69400E0FCA3E0FDA3E0FEA3E0FF90000E126F38
:03A6A4005D7F01D6
:01A6A7002290
:107461004112BB034112BD064112BF004112BE01D0
:107471004112BC024212C000004212C60000421278
:10748100CC00004412C23F8000004412C83F80007B
:0174910000FA
:0D004600AE05AD07AF06AB077F3C02EFBE75
:07F26000AD077F3C12EE76C2
:01F267002284
:10F0B1007F0A12F260EF644860037F00227F012221
:0BC36A00900FE6EBF0A3EAF0A3E9F06F
:10C3750090100F7401F0A3740FF0A374E9F07B061D
:10C385007D037F3C12E896900FE9E0FEA3E0FDED0A
:10C39500FF900FE6E0FBA3E0FAA3E0F9EE8FF012C1
:10C3A5006E0D900FEDE0FEA3E0FDEDFF900FE6E0D2
:10C3B500FBA3E0FAA3E0F9900002EE8FF0126E2CD9
:10C3C500900FEBE0FEA3E0FDEDFF900004EE8FF093
:10C3D500126E2C126DAAFF9012C0E0FCA3E0FDC303
:10C3E500EF9DFFE5F09C8FF0126E0D900FE6E0FBE0
:10C3F500A3E0FAA3E02402F9E43AFA126DAAFF9049
:10C4050012C6E0FCA3E0FDC3EF9DFFE5F09C8FF0B5
:10C41500126E0D900FE6E0FBA3E0FAA3E02404F909
:10C42500E43AFA126DAAFF9012CCE0FCA3E0FDC33A
:10C43500EF9DFFE5F09C8FF0126E0D900FE6E0FB8F
:10C44500A3E0FAA3E0F9900002126DD5FDACF0EC83
:10C4550012687D9012C2E0F8A3E0F9A3E0FAA3E028
:10C46500FB1266481268B6900FE6E0FBA3E0FAA35C
:10C47500E0F9900002EE8FF0126E2C900004126D20
:10C48500D5FDACF0EC12687D9012C8E0F8A3E0F998
:10C49500A3E0FAA3E0FB1266481268B6900FE6E047
:10C4A500FBA3E0FAA3E0F9900004EE8FF0026E2CF6
:10E852009012C0EEF0A3EFF0AF059012C6ECF0A359
:10E86200EFF0AF039012CCEAF0A3EFF0900FECE0E0
:10E87200FCA3E0FDA3E0FEA3E0FF9012C2126FDE54
:10E88200900FF0E0FCA3E0FDA3E0FEA3E0FF9012F6
:04E89200C8026FDE6B
:0BF1C8009012BCEFF0FD7F0202004639
:10E4CB00900FEA74C8F012F0B1EF70107F01FE12DA
:10E4DB00EEFF900FEAE014F070ECFF229012BDE01B
:10E4EB0025E025E0FF9012BBE0FEC454F04FFF90F7
:10E4FB0012BFE04FFDE4FF1200469012BEE0C433A2
:10E50B0054E0FD7F011200469012BCE0FD7F021229
:04E51B0000467F0136
:01E51F0022D9
:0BB11A00900FE6EBF0A3EAF0A3E9F0D1
:10B125001268677BE17A2E79657842126751900F34
:10B13500F1126FDE900FEDE0FCA3E0FDA3E0FEA3AE
:10B14500E0FF1268677BE17A2E79657842126751D4
:10B15500900FF5126FDE900FF5E0FCA3E0FDA3E084
:10B16500FEA3E0FF12BB0FC004C005C006C00790D8
:10B175000FE6E0FBA3E0FAA3E0F9900002126DD51B
:10B18500FDACF0EC12687DD003D002D001D00012E6
:10B195006648C004C005C006C007900FF1E0FCA3D7
:10B1A500E0FDA3E0FEA3E0FF12BB0FD003D002D069
:10B1B50001D000126648C004C005C006C007900F44
:10B1C500F1E0FCA3E0FDA3E0FEA3E0FF12BAF9C0A5
:10B1D50004C005C006C007900FE6E0FBA3E0FAA394
:10B1E500E0F9126DAAFDACF0EC12687DD003D00237
:10B1F500D001D000126648D003D002D001D0001291
:10B205006557C004C005C006C007900FF5E0FCA354
:10B21500E0FDA3E0FEA3E0FF12BAF9C004C005C03B
:10B2250006C007900FE6E0FBA3E0FAA3E0F9900063
:10B2350004126DD5FDACF0EC12687DD003D002D0C0
:10B2450001D000126648C004C005C006C007900FB3
:10B25500F1E0FCA3E0FDA3E0FEA3E0FF12BB0FD0ED
:10B2650003D002D001D000126648A804A905AA0699
:10B27500AB07D007D006D005D004126553900FF95F
:10B28500126FDE900FF5E0FCA3E0FDA3E0FEA3E066
:10B29500FF12BB0FC004C005C006C007900FE6E053
:10B2A500FBA3E0FAA3E0F9900004126DD5FDACF024
:10B2B500EC12687DD003D002D001D000126648C0E0
:10B2C50004C005C006C007900FF5E0FCA3E0FDA390
:10B2D500E0FEA3E0FF12BAF9C004C005C006C0072E
:10B2E500900FE6E0FBA3E0FAA3E0F9900002126DEF
:10B2F500D5FDACF0EC12687DD003D002D001D000B2
:10B30500126648D003D002D001D000126557C004A0
:10B31500C005C006C007900FF9E0FCA3E0FDA3E05F
:10B32500FEA3E0FF901001126FDED007D006D00516
:10B33500D00412D928E4FBFA793478431266487BA5
:10B34500D07A0F79497840126751E4FBFA7934785D
:04B3550043126557E3
:01B3590022D1
:1074920004773F800000047B00000000047F0000AE
:1074A2000000048300000000046B00000000046F71
:0A74B2000000000004730000000059
:0DF17100AE05AD07AF06AB077FD402EFBEC1
:07F26800AD077FD412EE7622
:01F26F00227C
:04EA0E007B017D808B
:0DEA1200900FF0EDF0A3EBF0900FEFEFF0A0
:10EA1F0012F268AE07900FF1E0FFB40108900FF00B
:10EA2F00E04EFE800AEF7007900FF0E0F45EFE906C
:09EA3F000FEFE0FFAD0602F171DA
:0EF0E1007F0F12F268EFB46A037F01227F00F6
:01F0EF0022FE
:08F27000EF4DFD7F1002F1716A
:08F27800EF4DFD7F1102F17161
:0BD47800900FE6EBF0A3EAF0A3E9F050
:10D4830090100F7401F0A3740FF0A374E9F07B0CF8
:10D493007D227FD412E896900FEAE0FE900FE9E038
:10D4A300FDEDFF900FE6E0FBA3E0FAA3E0F99000A7
:10D4B30006EE8FF0126E2C900FECE0FE900FEBE077
:10D4C300FDEDFF900008EE8FF0126E2C900FEEE052
:10D4D300FE900FEDE0FDEDFF90000AEE8FF0126E6F
:10D4E3002C900FF0E0FE900FEFE0FDEDFFEE8FF0DC
:10D4F300126E0D900FF2E0FE900FF1E0FDEDFF9044
:10D503000FE6E0FBA3E0FAA3E0F9900002EE8FF050
:10D51300126E2C900FF4E0FE900FF3E0FDEDFF9000
:08D523000004EE8FF0026E2CF3
:10F0C1007B017D017F1212EA127F327E0002EEFF88
:09F235007B017D047F1902EA123D
:04DAF800AB07AA06C8
:10DAFC00AE04AF057C007D28126D48900FECEFF062
:10DB0C00AE02AF03AD07AC06EC12687D7BDA7A0F80
:10DB1C0079497840126648E4FBFA79347843126705
:10DB2C005112BB0FE4FBFA798078421266481268F6
:10DB3C00B6900FEDEFF0900FECE0D394FF40037430
:10DB4C00FFF0900FEDE0D394FF400374FFF07DA045
:10DB5C007F0112F171900FECE0FD7F5012F171908A
:10DB6C000FEDE0FD7F5412F1717D207F5912F171A0
:10DB7C00E4FD7F0112F1717F1912EA0E7B017D0128
:05DB8C007F0B02EA120C
:10ECD5007B017D827F5812EA127B017D8C7F591260
:10ECE500EA127D7F7F5A12F1717F5B12EA0E7B017A
:07ECF5007D087F5E02EA12B8
:10E6AB00900FECEEF0A3EFF0A3EDF07D807F011265
:10E6BB00F1717D8E7F0F12F171900FECE0FEA3E0F4
:10E6CB00FF7C007D50126CF3EF33333354F8FFA310
:10E6DB00E054074FFD7F1412F171E4FD7F0112F13D
:0AE6EB00717B017D107F1902EA1215
:10EF32007F4B12F268900FE6EFF07F4C12F268EF0F
:08EF4200FE900FE6E0FDEDFF7B
:01EF4A0022A4
:10EF4B007B017D027F1912EA127F017E0012EEFF18
:09EF5B00E4FB7D027F1902EA12B9
:09F23E00E4FB7D107F1902EA12C5
:10E3C300900FEAE4F0A374C8F07F327E0012EEFFF0
:10E3D30012F0E1EF70167F01FE12EEFF900FEA7468
:10E3E300FFF5F0126D7E45F070E6FF2212F0C17D5D
:10E3F300087F6012F2707D04E4FF12F2787D647C82
:10E40300007F0A7E0012DAF812ECD57D067F107EBB
:09E413000412E6AB12F2357F01A0
:01E41C0022DD
:0B8E7E00900FE6EBF0A3EAF0A3E9F090
:108E8900126DAAFDACF0EC12687D783B126FD2909E
:108E99000FE6E0FBA3E0FAA3E0F9900002126DD51A
:108EA900FDACF0EC12687D783F126FD2900FE6E0CE
:108EB900FBA3E0FAA3E0F9900004126DD5FDACF034
:108EC900EC12687D7843126FD2900FE6E0FBA3E0C5
:108ED900FAA3E0F9900006126DD5FDACF0EC12682A
:108EE9007D7B397AFA798E783C1266487B6F7A12E3
:108EF900798378421267517847126FD2900FE6E072
:108F0900FBA3E0FAA3E0F9900008126DD5FDACF0DF
:108F1900EC12687D7B397AFA798E783C1266487B47
:108F29006F7A1279837842126751784B126FD29017
:108F39000FE6E0FBA3E0FAA3E0F990000A126DD571
:108F4900FDACF0EC12687D7B397AFA798E783C12A7
:108F590066487B6F7A1279837842126751784F128B
:108F69006FD2783F126F81A804A905AA06AB071230
:108F79006648C004C005C006C007783B126F81A8C7
:108F890004A905AA06AB07126648D003D002D0018E
:108F9900D000126557C004C005C006C00778431247
:108FA9006F81A804A905AA06AB07126648D003D0A9
:108FB90002D001D00012655712D68D8F288E278DC9
:108FC900268C25783B126F81AB28AA27A926A825CC
:108FD900126751783B126FD2783F126F81AB28AA82
:108FE90027A926A825126751783F126FD278431214
:108FF9006F81AB28AA27A926A825126751784312A1
:109009006FD2787F126F817877126FA9126648C084
:1090190004C005C006C0077883126F81787B126F80
:10902900A9126648D003D002D001D000126553E4DA
:10903900FBFAF978401266487853126FD278831296
:109049006F81787F126FA9126648C004C005C006F7
:10905900C007787B126F817877126FA9126648D0A2
:1090690003D002D001D000126557E4FBFAF9784029
:109079001266487857126FD2787B126F81787B120B
:109089006FA9126648C004C005C006C007787712E8
:109099006F817877126FA9126648D003D002D00188
:1090A900D000126553C004C005C006C007787F12FE
:1090B9006F81787F126FA9126648A804A905AA06CC
:1090C900AB07D007D006D005D004126553C004C041
:1090D90005C006C0077883126F817883126FA912C1
:1090E9006648D003D002D001D000126557785B12D0
:1090F9006FD27857126F817843126FA9126648C0F0
:1091090004C005C006C007785B126F81783F126FF3
:10911900A9126648D003D002D001D0001265537855
:109129005F126FD2785B126F81783B126FA912665A
:1091390048C004C005C006C0077853126F81784340
:10914900126FA9126648D003D002D001D00012656F
:10915900537863126FD27853126F81783F126FA9D7
:10916900126648C004C005C006C0077857126F814F
:10917900783B126FA9126648D003D002D001D00003
:109189001265537867126FD2786B126FA9C000C04D
:1091990001C002C0037F6F7E127D837C3A785F1223
:1091A9006FA9126648D003D002D001D000126557CA
:1091B900786B126FD2786F126FA9C000C001C0021C
:1091C900C0037F6F7E127D837C3A7863126FA91288
:1091D9006648D003D002D001D000126557786F12CB
:1091E9006FD27873126FA9C000C001C002C0037F9B
:1091F9006F7E127D837C3A7867126FA9126648D018
:1092090003D002D001D0001265577873126FD27F54
:10921900CD7ECC7D4C7C3F785F126FA91266487871
:1092290047126FA9126557786B126FA912655778A3
:1092390047126FD27FCD7ECC7D4C7C3F7863126F15
:10924900A9126648784B126FA9126557786F126F89
:10925900A9126557784B126FD27FCD7ECC7D4C7C9D
:109269003F7867126FA9126648784F126FA9126585
:10927900577873126FA9126557784F126FD27877A2
:10928900126FA9C000C001C002C003787B126F81B0
:109299001268677847126FA9126648C004C005C0F2
:1092A90006C007784B126F81787F126FA912664842
:1092B900A804A905AA06AB07D007D006D005D00493
:1092C900126553C004C005C006C007784F126F81EC
:1092D9007883126FA9126648A804A905AA06AB07E4
:1092E900D007D006D005D0041265537B6F7A127966
:1092F90083783B126648D003D002D001D0001265B2
:10930900577877126FD2787B126FA9C000C001C05D
:1093190002C003784F126F81787F126FA9126648D5
:10932900C004C005C006C0077847126F817877125C
:109339006FA9126648D003D002D001D00012655738
:10934900C004C005C006C007784B126F817883122C
:109359006FA9126648A804A905AA06AB07D007D0C9
:1093690006D005D0041265537B6F7A127983783B56
:10937900126648D003D002D001D000126557787B1D
:10938900126FD2787F126FA9C000C001C002C0035A
:10939900784F126F81787B126FA9126648C004C09A
:1093A90005C006C007784B126F817877126FA91232
:1093B9006648D003D002D001D000126553C004C062
:1093C90005C006C0077847126F817883126FA9120A
:1093D9006648D003D002D001D0001265577B6F7A5E
:1093E900127983783B126648D003D002D001D000AD
:1093F900126557787F126FD27883126FA9C000C0A7
:1094090001C002C003784B126F81787B126FA912D9
:109419006648C004C005C006C007784F126F81783E
:1094290077126FA9126648D003D002D001D000127A
:109439006557C004C005C006C0077847126F817818
:109449007F126FA9126648A804A905AA06AB07D01E
:1094590007D006D005D0041265537B6F7A12798341
:10946900783B126648D003D002D001D0001265576C
:109479007883126FD2787B126F81787B126FA91271
:109489006648C004C005C006C0077877126F8178A6
:1094990077126FA9126648D003D002D001D000120A
:1094A9006557C004C005C006C007787F126F817870
:1094B9007F126FA9126648D003D002D001D00012E2
:1094C9006557C004C005C006C0077883126F81A81C
:1094D90004A905AA06AB07126648D003D002D00139
:1094E900D00012655712D68D8F288E278D268C2590
:1094F9007877126F81AB28AA27A926A82512675168
:109509007877126FD2787B126F81AB28AA27A926A8
:10951900A825126751787B126FD2787F126F81ABC1
:1095290028AA27A926A825126751787F126FD27811
:1095390083126F81AB28AA27A926A825126751781B
:1095490083126FD27883126F81787B126FA91266AA
:1095590048C004C005C006C007787F126F817877BC
:10956900126FA9126648D003D002D001D00012654B
:1095790053E4FBFAF9784012664812E9997BE17ADB
:109589002E79657842126648900FE6E0FBA3E0FA6F
:10959900A3E0F990000C126F5D7883126F81787FD8
:1095A900126FA9126648C004C005C006C007787BBF
:1095B900126F817877126FA9126648D003D002D052
:1095C90001D000126557E4FBFAF978401266481297
:1095D900E9997BE17A2E79657842126648900FE61F
:1095E900E0FBA3E0FAA3E0F9900010126F5D787B2D
:1095F900126F81A804A905AA06AB07126648C00420
:10960900C005C006C0077877126F81A804A905AA0A
:1096190006AB07126648D003D002D001D00012650C
:1096290057C004C005C006C007787F126F81A8041F
:10963900A905AA06AB07126648A804A905AA06AB9C
:1096490007D007D006D005D004126553C004C00561
:10965900C006C0077883126F81A804A905AA06ABC2
:1096690007126648A804A905AA06AB07D007D006C1
:10967900D005D004126553C004C005C006C00778E0
:1096890083126F817877126FA9126648C004C005EA
:10969900C006C007787F126F81787B126FA91266A6
:1096A90048A804A905AA06AB07D007D006D005D05B
:1096B90004126557E4FBFAF97840126648D003D0E2
:1096C90002D001D00012675112C7297BE17A2E79A5
:1096D900657842126648900FE6E0FBA3E0FAA3E042
:0796E900F9900014026F5D0F
:0A74BC0043126A0000EF41121900AC
:07F2880075DE2F75BC8F221B
:10EEAF00EF4480F5BC75BC400000E5BC30E5FB537A
:0AEEBF00BCDFAFBDEFFEADBDEDFFFF
:01EEC9002226
:06F29500EF24FF92C022ED
:0DF17E00EF60044391802253917FC29722DD
:10D22300900FEF126FEA00000000E4900FF3F0A3F9
:10D23300F0A3F0A3F07F0F12EEAF7F0F12EEAFE477
:10D24300900FF3F0A3F0900FEFE0F8A3E0F9A3E061
:10D25300FAA3E0FB7F0F12EEAFEE3395E0FDFCEB9C
:10D263002FFFEA3EFEE93DFDE83CFC900FEF126F15
:10D27300DE900FF4E004F07006900FF3E004F0C3C7
:10D28300900FF4E09440900FF3E06480948040B6F4
:10D29300900FEFE0FCA3E0FDA3E0FEA3E0FF780620
:10D2A300126ECC900FEF126FDE90126AE0FBA3E0D8
:10D2B300FAA3E0F9126DAAFFAEF0EE3395E0FDFCA0
:10D2C300E47BFF7A0FF9F8126E59900FEFE0F8A3A1
:10D2D300E0F9A3E0FAA3E0FB12E8DA900FF5EEF031
:10D2E300A3EFF0FDAC06EC12687DE4FBFA797A78E3
:04D2F3004412675129
:01D2F7002214
:10BC3900900FE6126FEA00000000E4900FEEF01298
:10BC4900D2237B9A7A99795978C01265577B487AB9
:10BC5900E1793A783F126751900FEA126FDEE4FFFB
:10BC6900FE7D807C3F900FEAE0F8A3E0F9A3E0FABB
:10BC7900A3E0FB1267EE600E400C900FEA126FEA28
:10BC89003F8000008022E4FFFEFDFC900FEAE0F80F
:10BC9900A3E0F9A3E0FAA3E0FB1267EE500A900FC4
:10BCA900EA126FEA00000000901219E0703804F0FF
:10BCB900E4900FEEF0900FEEE0FBC3941450279040
:10BCC9000FEAE0FCA3E0FDA3E0FEA3E0FFEB25E023
:10BCD90025E0241AF582E43412F583126FDE900F01
:10BCE900EEE004F080CF900FEE7413F0900FEEE0C9
:10BCF900FBD394004057EB25E025E02416F582E4B8
:10BD09003412F583E0FCA3E0FDA3E0FEA3E0FF907D
:10BD1900121E126FDE900FE6E0FCA3E0FDA3E0FE29
:10BD2900A3E0FFEB25E025E0241AF582E43412F5BF
:10BD390083E0F8A3E0F9A3E0FAA3E0FB12655790CA
:10BD49000FE6126FDE900FEEE014F0809F900FE681
:10BD5900E0FCA3E0FDA3E0FEA3E0FFA3E0F8A3E07D
:10BD6900F9A3E0FAA3E0FB126557900FE6126FDE24
:10BD7900E4FBFA79A07841900FE6E0FCA3E0FDA38B
:10BD8900E0FEA3E0FF126751900FEA126FDE900FF9
:10BD9900EAE0FCA3E0FDA3E0FEA3E0FF90121A1283
:10BDA9006FDE900FEAE0FCA3E0FDA3E0FEA3E0FF55
:01BDB9002267
:100016009012EEE590F0E4F580F5907592307591CA
:10002600B0759601F59575B08475C099F5C8C2A9E5
:0B00360053AFFE53AFDF7587020000E0
:01004100229C
:10EBE400AF90E4F580F5907592307591B075A00101
:10EBF400F596F59575B084F5C0F5C8C2A953AFFE76
:0AEC040053AFDF75870200008F9008
:01EC0E0022E3
:0CF1A40012EB87D2A943AF0143AF202239
:10F04B0043BA8090FE8074D0F090FE82E4F053BA05
:02F05B007F2212
:10EDD90075160175172C90FE82E020E60DE51715D2
:10EDE900177002151614451670EC90FE82E054BF98
:02EDF900F02206
:03F1B00043BA80DF
:09F1B30090FE817401F002EDD917
:10EDB60012F0F0900FEEE0FBA3E0FAA3E0F98E82EA
:0AEDC600758300EF126CD112F0FF0C
:09EDD00090FE817406F002EDD9F9
:0EF1470090FE86EFF090FE817402F002EDD98A
:0FF0F00090FE817404F012EDD990FE87E0FF22AC
:10EE930043BA8012F1B3AF0612F14712EEA6AF05E3
:03EEA30012F14722
:09EEA60090FE817403F002EDD925
:0EF1550090FE82E4F090FE817405F002EDD988
:0FF0FF0090FE827401F090FE817405F002EDD94D
:10EFBE0012F1B012EE9BAF0312F14712EEA612ED54
:05EFCE00D053BA7F22C0
:02EE7600AE07E5
:10EE780012EE9312F1B3AF0612F14712EEA612F09A
:0AEE8800F012F0FF12EDD053BA7F34
:01EE9200225D
:0BE91E00900FF2EBF0A3EAF0A3E9F089
:10E92900E4FE12F1B012F14712EEA6EEC39D501D9E
:10E93900900FF2E0FBA3E0FAA3E0F98E8275830061
:10E94900126C5FFF12F14712EEA60E80DE12EDD0B7
:03E9590053BA7F2F
:01E95C002298
:0BEB5600900FEEEBF0A3EAF0A3E9F053
:10EB610043BA8012F1B3EF04FF12F14712EEA6E4AB
:10EB7100FEED14FFEEC39F500612EDB60E80F212A9
:05EB8100EDB653BA7F60
:01EB8600226C
:04E89600AE07AC031A
:10E89A0012EE9312F1B3EE04FF12F147E4FEEC1408
:10E8AA00FFEEC39F501D12F0F090100FE0FBA3E0A3
:10E8BA00FAA3E0F98E82758300EF126CD112F1553A
:0FE8CA000E80DB12F0F090100F12EDBC53BA7FEE
:01E8D900221C
:1074C600607511A40A0532000000081E01010001C2
:1074D60042C233330000000000000000000000003C
:1074E60000003F8000003F80000000000000000018
:1074F6000000000000000000000000000000000086
:107506000000000000000000000000000000000075
:107516000000000000000000000000000000000065
:107526000000000000000000000000000000000055
:097536000000000000000000004C
:10EB8700E4F580F594F593D292D29675923075910B
:10EB9700B075A0B8759640F59575B034F5B2F5B176
:0FEBA70075C019F5B4F5B375C820F5CAF5C922C4
:0DF18B00438904E4F58AF58CC28CD2A922D8
:10F0D10043D10275D54075D4A243D10843AF202254
:10EF6400759850438E40538EFE53890F758BCC7524
:09EF74008DFFC2ABD28ED29922AE
:10F02600759A50438E0475D78F75D6FD438E10435F
:03F03600A801220C
:0CF1BC00D288D2A8D28AD2AA438F102297
:0400060075C7602238
:04000E0075C127226F
:0400560043C1102270
:0BDEA400900FE6EBF0A3EAF0A3E9F01A
:10DEAF00E4FFA3F0A3F0900FE6E0FBA3E0FAA3E0FA
:10DEBF00F98F82758300126C5FFD900FEAE02DF0F1
:10DECF00900FE9E03400F00FEFB473DA900FE9E050
:10DEDF00FEA3E0FF900FE6E0FBA3E0FAA3E0F990CA
:10DEEF000073EE8FF0126E2C7F807E0112ED239067
:10DEFF000FE6E0FBA3E0FAA3E0F9900FF0E4F0A344
:0ADF0F007475F07F807E0102E80DBA
:0BD5DA00900FE6EBF0A3EAF0A3E9F0ED
:10D5E500E4A3F0A3F0A3F0900FF1F0A37475F07F1E
:10D5F500807E0112E7C8900FE9E0FFC394735029BC
:10D60500900FE6E0FBA3E0FAA3E0F98F82758300B3
:10D61500126C5FFF900FEBE02FF0900FEAE0340003
:10D62500F0900FE9E004F080CD900FE6E0FBA3E079
:10D63500FAA3E0F9900073126DD5FF900FEAE0B5FB
:10D64500F008A3E0B507037F0122E4900FE9F0900D
:10D655000FE9E0FF7C007B0124A4F9EC3411FA12F8
:10D665006C46FE900FE6E0FBA3E0FAA3E0F98F829B
:10D67500758300EE126CD1900FE9E004F0E0B4750B
:03D68500CE7F0055
:01D68800227F
:08F28000EF640124FF92B522A6
:10EAF10012EB8712EF6412F02612F18B12F0D11291
:10EB0100F1BC12F28812F04B12000E7B017A0E79E1
:10EB1100F112D5DAE4FF12F2807F057E0012EEFFDA
:03EB2100D2AF224E
:0EF16300E4F5C7F5C5F5C675C3FF75C4FF22F8
:10E7C800AD07AC06A2AF92D5C2AF75C78075C501BB
:10E7D800ECF5C3AF058FC475C65A75C6A500E5C26A
:10E7E800126CBF0DBD00010C740129F9E43AFA90CE
:10E7F8000FF174FFF5F0126D7E45F070D312F163DE
:05E80800A2D592AF2231
:10ED2300AD07AC06A2AF92D5ECF5C3AF058FC475A2
:10ED3300C78075C50375C65A75C6A50012F163E58C
:06ED43008024FF92AF22C4
:10E80D00AD07AC06A2AF92D5C2AF75C78075C50274
:10E81D00ECF5C3AF058FC4126C46F5C275C65A75BB
:10E82D00C6A5000DBD00010C740129F9E43AFA905A
:10E83D000FF074FFF5F0126D7E45F070D312F16399
:05E84D00A2D592AF22EC
:0B753F00C1214112EB004212EC0000E1
:10EA810043BA8090FFF2E4F090FFF07417F0A374A2
:10EA910070F090FF647480F090FF60E4F0A3F0A345
:10EAA100740BF0A374B8F053BA7F43D12075D340EF
:09EAB10075D2A243AF40C221223C
:10EFD30043BA80EFB4010543FE80800553FE7FC230
:05EFE300A653BA7F22D5
:0300A30002DB91EC
:10DB9100C0E0C0F0C083C082C0D075D00853EFFB95
:10DBA1009012EBE0FE7019A3E07004A3E064C8706A
:10DBB1006D9012ECF0A3F0FF12EFD353D17F805E92
:10DBC100EE640170599012ECE0FEA3E0FFC394589B
:10DBD100EE940250367C007D64126CF3ED4C702B98
:10DBE1009012ECE0FEA3E0FF7C007D64126CF3EF89
:10DBF10054016401FF12EFD39012ECE0FEA3E0FFA9
:10DC01007C007D64126CF3EF1392A09012ECE0B4EF
:10DC1100030CA3E0B4E8079012ECE4F0A3F0D0D039
:09DC2100D082D083D0F0D0E032B3
:10EFE800E49012EBF0A3F0A3F03021087F0112EFB8
:05EFF800D343D180228B
:0FF10E009012EB7401F0E4A3F0A3F043D1802240
:09F24700EF6003D22122C2212252
:10EEFF00D3EF9400EE94004010007D207C28DCFEC0
:09EF0F00DDFCEF1F70EA1E80E733
:01EF180022D6
:10EFFD00D3EF9400EE9400400B7D06DDFEEF1F7005
:04F00D00EF1E80EC86
:01F0110022DC
:108234000000000000000000002F00000000070004
:10824400070000147F147F1400242A7F2A120023BD
:1082540013086462003649552250000005030000EB
:1082640000001C224100000041221C000014083EB2
:1082740008140008083E0808000000A06000000878
:1082840008080808000060600000002010080402CC
:10829400003E5149453E0000427F4000004261518A
:1082A4004946002141454B31001814127F10002724
:1082B40045454539003C4A494930000171090503E7
:1082C40000364949493600064949291E0000363618
:1082D400000000005636000000081422410000147B
:1082E4001414141400004122140800020151090658
:1082F40000324959513E007C1211127C007F4949D9
:108304004936003E41414122007F4141221C007F09
:1083140049494941007F09090901003E4149497A17
:10832400007F0808087F0000417F41000020404191
:108334003F01007F08142241007F40404040007FFD
:10834400020C027F007F0408107F003E4141413E41
:10835400007F09090906003E4151215E007F091989
:1083640029460046494949310001017F0101003F86
:108374004040403F001F2040201F003F4038403F06
:10838400006314081463000708700807006151496A
:10839400454300007F41410000552A552A550000FD
:1083A40041417F000004020102040040404040407B
:1083B400000001020400002054545478007F484413
:1083C400443800384444442000384444487F00384A
:1083D4005454541800087E0901020018A4A4A47C73
:1083E400007F080404780000447D4000004080843D
:1083F4007D00007F102844000000417F4000007C85
:1084040004180478007C0804047800384444443890
:1084140000FC242424180018242418FC007C0804DC
:10842400040800485454542000043F444020003CB5
:108434004040207C001C2040201C003C4030403C3C
:10844400004428102844001CA0A0A07C00446454CC
:108454004C44141414141414000000000000000010
:108464000000000000000000000000000000000008
:1084740000000000000000000000000000F8000000
:108484000000000000333000000000100C06100C47
:108494000600000000000000000040C07840C078E2
:1084A4004000043F04043F040400007088FC0830CA
:1084B4000000001820FF211E0000F008F000E01862
:1084C400000000211C031E211E0000F0088870001B
:1084D40000001E2123241927211010160E0000006D
:1084E40000000000000000000000000000E018048C
:1084F4000200000000071820400000020418E000F9
:1085040000000040201807000000404080F0804038
:1085140040000202010F01020200000000F000000E
:1085240000000101011F0101010000000000000022
:10853400000080B070000000000000000000000097
:108544000000000101010101010100000000000020
:1085540000000030300000000000000000008060D7
:108564001804006018060100000000E0100808105C
:10857400E000000F102020100F00001010F8000081
:1085840000000020203F2020000000700808088818
:1085940070000030282422213000003008888848E8
:1085A40030000018202020110E000000C02010F818
:1085B400000000070424243F240000F808888808E9
:1085C40008000019212020110E0000E010888818EE
:1085D4000000000F112020110E0000380808C838D0
:1085E40008000000003F00000000007088080888B0
:1085F4007000001C222121221C0000E01008081039
:10860400E0000000312222110F00000000C0C00071
:108614000000000000303000000000000080000076
:108624000000000080600000000000008040201076
:10863400080000010204081020004040404040406F
:1086440040000404040404040400000810204080D2
:108654000000002010080402010000704808080807
:10866400F0000000003036010000C030C828E810D7
:10867400E0000718272423140B000000C038E00092
:108684000000203C23020227382008F888888870DC
:108694000000203F202020110E00C03008080808E8
:1086A4003800071820202010080008F808080810CF
:1086B400E000203F202020100F0008F88888E808F8
:1086C4001000203F20202320180008F88888E8089C
:1086D4001000203F200003000000C03008080838C4
:1086E400000007182020221E020008F808000008D5
:1086F400F808203F210101213F20000808F808085C
:1087040000000020203F2020000000000808F80896
:108714000800C08080807F00000008F888C0281806
:108724000800203F20012638200008F80800000037
:108734000000203F20202020300008F8F800F8F83E
:108744000800203F003F003F200008F830C0000828
:10875400F808203F200007183F00E0100808081020
:10876400E0000F10202020100F0008F80808080867
:10877400F000203F210101010000E010080808106A
:10878400E0000F18242438504F0008F8888888889F
:108794007000203F2000030C302000708808080877
:1087A40038000038202121221C00180808F8080885
:1087B40018000000203F2000000008F8080000080E
:1087C400F808001F202020201F000878880000C817
:1087D4003808000007380E010000F80800F8000807
:1087E400F800033C0700073C030008186880806811
:1087F400180820302C03032C30200838C800C8384F
:1088040008000000203F2000000010080808C838B5
:1088140008002038262120201800000000FE020253
:1088240002000000007F40404000000C30C0000007
:108834000000000000010638C00000020202FE0031
:108844000000004040407F000000000004020202DB
:108854000400000000000000000000000000000010
:1088640000008080808080808080000202040000FC
:1088740000000000000000000000000080808080F4
:1088840000000019242222223F2008F800808000E2
:108894000000003F112020110E00000000808080A5
:1088A4000000000E112020201100000000808088AC
:1088B400F800000E112020103F20000080808080EE
:1088C4000000001F222222221300008080F08888EA
:1088D40088180020203F2020000000008080808035
:1088E4008000006B94949493600008F8008080806A
:1088F4000000203F210000203F20008098980000C5
:1089040000000020203F20200000000000809898F4
:10891400000000C08080807F000008F80000808094
:108924008000203F24022D302000000808F80000B9
:1089340000000020203F2020000080808080808074
:108944008000203F20003F20003F80800080808006
:108954000000203F210000203F2000008080808014
:108964000000001F202020201F0080800080800045
:10897400000080FFA12020110E00000000808080F4
:108984008000000E112020A0FF8080808000808065
:10899400800020203F212000010000008080808092
:1089A40080000033242424241900008080E0808087
:1089B40000000000001F20200000808000000080D4
:1089C4008000001F202020103F2080808000008035
:1089D400808000010E300806010080800080008045
:1089E40080800F300C030C300F00008080008080EA
:1089F40080000020312E0E31200080808000008015
:108A0400808080818E7018060100008080808080C4
:108A140080000021302C2221300000000000807CE6
:108A2400020200000000003F404000000000FF0080
:108A3400000000000000FF0000000002027C800033
:108A440000000040403F0000000000060101020257
:108A5400040400000000000000000000E0F8FCFE38
:108A6400FEFEFEFEFCF8E0000000E0FFFFFFFF1F3B
:108A74000301031FFFFFFFFFE000FFFFFFFFFF00F5
:108A840000000000FFFFFFFFFF00FFFFFFFFFF00EC
:108A940000000000FFFFFFFFFF0007FFFFFFFFF8DC
:108AA400C080C0F8FFFFFFFF07000000071F3F7FE3
:108AB4007F7F7F7F3F1F070000000000000080C011
:108AC400FCFCFCFCFC000000000000007F7F7F7FBA
:108AD400FFFFFFFFFF000000000000000000000097
:108AE400FFFFFFFFFF000000000000000000000087
:108AF400FFFFFFFFFF00000000000000C0C0C0C077
:108B0400FFFFFFFFFFC0C0C0C00000003F3F3F3F6A
:108B14003F3F3F3F3F3F3F3F3F0000F8F8FCFEFE32
:108B2400FEFEFEFCFCF8E0000000001F0F0703033C
:108B340003070FFFFFFFFFFF00000000000000001D
:108B44000000E0FFFFFFFF1F00000000000000C066
:108B5400F8FEFFFF7F0F0100000000C0F0FCFFFFE4
:108B6400FFDFC7C1C0C0C0C0C000003F3F3F3F3FA0
:108B74003F3F3F3F3F3F3F3F3F0000F8F8FCFEFED2
:108B8400FEFEFEFEFCF8F0800000001F0F0703034A
:108B9400030307FFFFFFFFFF000000000000F8F8D9
:108BA400F8FCFEFFFFBF0F010000000000000707F4
:108BB40007070F1FFFFFFFFEF000F8F0E0E0C0C062
:108BC400C0C0E0F0FFFFFFFF3F001F1F3F3F7F7F5C
:108BD4007F7F7F3F3F1F0F03000000000000000065
:108BE400C0F8FCFCFCFCFC00000000000000E0FC01
:108BF400FF7FFFFFFFFFFF0000000080F0FFFF3F4B
:108C04000300FFFFFFFFFF000000FCFFFFFFF1F088
:108C1400F0F0FFFFFFFFFFF0F0F00F0F0F0F0F0F4B
:108C24000F0FFFFFFFFFFF0F0F0F000000000000FA
:108C340000003F3F3F3F3F0000000000FCFCFCFC05
:108C4400FCFCFCFCFCFCFCFC00000000FFFFFFFF44
:108C5400FF0303030303030300000000FFFFFFFF00
:108C6400FFFCFCFCFCF8F0C0000000000707030355
:108C74000303070FFFFFFFFFFE0000F8F0E0C0C092
:108C8400C0C0E0F8FFFFFFFF3F00001F3F3F7F7FB2
:108C94007F7F7F7F3F1F0F010000000080E0F0F81E
:108CA400FCFEFEFEFEFEFC00000000F8FFFFFFFFDE
:108CB4000F030101010103000000FFFFFFFFFFF8A4
:108CC400FCFEFEFEFEFCF8E00000FFFFFFFFFF03DA
:108CD40001010307FFFFFFFFFF0007FFFFFFFFF88E
:108CE400C08080E0FFFFFFFF3F000000071F3F3F01
:108CF4007F7F7F7F3F1F0F010000FCFCFCFCFCFC1E
:108D0400FCFCFCFCFCFCFCFCFC0003030303030371
:108D14000303C3FFFFFFFFFF1F000000000000006C
:108D2400C0FCFFFFFFFF1F0100000000000080F8EF
:108D3400FFFFFFFF3F0300000000000000F8FFFFFB
:108D4400FFFF7F0300000000000000303F3F3F3F73
:108D54003F0700000000000000000000E0F8FCFCF9
:108D6400FEFEFEFEFCFCF8E0800000FFFFFFFFFFBC
:108D740003010103FFFFFFFFFF0000073FFFFFFFA9
:108D8400FFFCF8FCFFFF1F070000E0FCFEFFFF0FE5
:108D9400070F1F3FFFFFFFFEF0007FFFFFFFFFE015
:108DA400C08080E0FFFFFFFF7F0000070F1F3F7FB1
:108DB4007F7F7F7F3F1F0F0300000080E0F8FCFEF1
:108DC400FEFEFEFEFCF8E0800000F8FFFFFFFF0F50
:108DD4000101030FFFFFFFFFF000FFFFFFFFFFE0B4
:108DE400C08080C0FFFFFFFFFF0000071F3F7F7FA1
:108DF4007F7F3F1FFFFFFFFF7F000000C080808058
:108E040080C0F0FFFFFFFF1F000000007F7F7F7F17
:108E14007F7F3F1F0F0700000000000000000000DC
:108E2400000000000000000000000000000000FF3F
:108E3400FFFFFFFF00000000000000000000000F23
:108E44000F0F0F0F0000000000000000000000E002
:108E5400E0E0E0E00000000000000000000000FF8F
:108E6400FFFFFFFF00000000000000000000000101
:0A8E740001010101000000000000F0
:10754A0064000008000000000000000000000000C5
:10755A000000000000000000000000000000000021
:10756A000000000000000000000000000000000011
:10757A000000000000000000000000000000000001
:10758A0000000000000000000000000000000000F1
:10794A0000000000640004080000000000000000BD
:10795A00000000000000000000000000000000001D
:10796A00000000000000000000000000000000000D
:10797A0000000000000000000000000000000000FD
:10798A0000000000000000000000000000000000ED
:107D4A0000000000000000006400080800000000B5
:107D5A000000000000000000000000000000000019
:107D6A000000000000000000000000000000000009
:107D7A0000000000000000000000000000000000F9
:107D8A0000000000000000000000000000000000E9
:10814A000000000000000000000000004800000BD2
:07815A000B0B0B0B0B0B0BD1
:10E57500900FE6EBF0A3EAF0A3E9F012D887900F2D
:10E58500E6E0FBA3E0FAA3E0F9900002126C5FFF5E
:10E5950012F1D3900FE6E0FBA3E0FAA3E0F99000B7
:10E5A50004126C5FFF12EF7D900FE6E0FBA3E0FA2B
:10E5B500A3E0F9900003126C5FFF12F29B7F01024A
:02E5C500F21052
:0BC21300900FE6EFF0A3EDF0A3EBF0BE
:10C21E00A3E0131313541F752700F528900FF0E0B9
:10C22E00600302C2C6F525AF257E00C3EF9528EE4A
:10C23E009527400302C369900FE7E02FFFEE33FE10
:10C24E00EF7807C333CE33CED8F9FF900FE6E07CFC
:10C25E00002FF52AEC3EF529900FE8E0FFE5258F3B
:10C26E00F0A485F02BF52CE4F526900FE8E0FFE521
:10C27E0026C39F503EAF267E00E52C2FFDEE352BBC
:10C28E00FC900FEAE0FBA3E0FAA3E0F98D828C8329
:10C29E00126C5FFDE52A2FFFEE3529FE900FEDE0C3
:10C2AE00FBA3E0FAA3E0F98F828E83ED126CD10529
:10C2BE002680B7052502C235E4F525AF257E00C3DD
:10C2CE00EF9528EE9527400302C369900FE7E02F04
:10C2DE00FFEE33FEEF7807C333CE33CED8F9FF909F
:10C2EE000FE6E07C002FF52AEC3EF529900FE8E0F2
:10C2FE00FFE5258FF0A485F02BF52CE4F526900FA5
:10C30E00E8E0FFE526C39F504DAF267E00E52A2FBD
:10C31E00FDEE3529FC900FEDE0FBA3E0FAA3E02D36
:10C32E00F9EA3CFAC003C002C001126C46FDE52CCE
:10C33E002FFFEE352BFE900FEAE0FBA3E0FAA3E011
:10C34E00F98F828E83126C5F4DD001D002D0031212
:0BC35E006CBF052680A8052502C2C99F
:01C3690022B1
:06E95D007B017A08790835
:0BE96300900FF5EBF0A3EAF0A3E9F041
:10E96E00E4F52FF530900FF5E0FBA3E0FAA3E0F904
:10E97E00853082852F83E4126CD10530E53070022C
:0AE98E00052FB400E0E52FB404DB10
:01E99800225C
:0BDD36009012D7EFF0A3EDF0A3EBF08C
:10DD4100A3E0131313541F751200F513E4F510AF7C
:10DD5100107E00C3EF9513EE951250559012D8E046
:10DD61002FFFEE33FEEF7807C333CE33CED8F9FF62
:10DD71009012D7E07C002FF515EC3EF514E4F51177
:10DD81009012D9E0FFE511C39F50227E00E51525D1
:10DD910011FFEE3514FE9012DBE0FBA3E0FAA3E0E5
:10DDA100F98F828E83E4126CD1051180D305108026
:01DDB1009ED3
:01DDB200224E
:10EB2400E4F525F52674082526F58274003525F5C7
:10EB340083E0FF74082526F58274043525F583EFF8
:10EB4400F00526E52670020525B400D9E525B404B0
:01EB5400D4EC
:01EB5500229D
:03009E0002E66116
:0AE24F00900FF5EFF0900FF7EBF0E1
:10E25900AF058F2F900FF8E0FFE52FC39F50479030
:10E269000FF5E0FFAD2F12EE3AE52F75F080A4858A
:10E27900F031F532E4F530900FF7E0FFE530C39F58
:10E2890050207E00E5322530FFEE3531FE74082F2F
:10E29900F58274003EF583E0FF7D0112EEEF053053
:06E2A90080D5052F80AEB8
:01E2AF00224C
:0E9B7300900FE6EBF0A3EAF0A3E9F0A3EDF00B
:109B81006003029C85F525E4F526E52675F080A4A1
:109B910085F029F52A2480F52CE43529F52B852932
:109BA10027852A28C3E528952CE527952B503E7457
:109BB100882528F58274003527F583E0C4333354B2
:109BC100C0FF74082528F58274003527F583E0135A
:109BD10013543F4FFF74082528F58274003527F58B
:109BE10083EFF00528E52870BB052780B70526E53A
:109BF10026B40796E5251313543F75F080A485F02C
:109C010029F52AE525540375F002A4FFAEF0C374CB
:109C1100069FF52CE49EF52BE4F5267E00E52A252A
:109C210026FFEE3529FE900FE6E0FBA3E0FAA3E064
:109C3100F98F828E83126C5FFFAE2CA8060880021A
:109C4100C333D8FC54C0FF74882526F582E434035D
:109C5100F583E0FE1313543F4FFF74882526F582E8
:109C6100E43403F583EFF00526E526B480AD7B01EE
:109C71007A00790812E6610525E525C39420500391
:109C8100029B8822900FE9E064016003029DACF51C
:109C910025E4F526C374079526FFE49400FEEF78CA
:109CA10007C333CE33CED8F9F52A8E292480F52C7B
:109CB100E43529F52B852927852A28C3E528952C04
:109CC100E527952B503E74082528F5827400352729
:109CD100F583E025E025E0FF74882528F58274FFEF
:109CE1003527F583E0C4131354034FFF7408252867
:109CF100F58274003527F583EFF00528E52870BB60
:109D0100052780B70526E52664077088E525131326
:109D1100543FFFC374079FFFE49400FEEF7807C32D
:109D210033CE33CED8F9F52A8E29E525540375F0C3
:109D310002A4FFAEF0C374069FF52CE49EF52BE45C
:109D4100F5267E00E52A2526FFEE3529FE900FE651
:109D5100E0FBA3E0FAA3E0F98F828E83126C5FFF30
:109D6100AE2CA806088002C313D8FC5403FF740864
:109D71002526F582E43400F583E0FE25E025E04F59
:109D8100FF74082526F582E43400F583EFF00526FB
:109D9100E526B480AD7B017A00790812E6610525DC
:109DA100E525C394205003029C9222900FE9E064C0
:109DB100026003029E91F525E4F526E52675F08003
:109DC100A485F029F52A247EF52CE43529F52B8587
:109DD1002927852A28C3E528952CE527952B502688
:109DE100740A2528F58274003527F583E0FF74088D
:109DF1002528F58274003527F583EFF00528E5283D
:109E010070D3052780CF900FE6E0FBA3E0FAA3E033
:109E1100F975F002E525A4252AF582E5F03529F545
:109E210083126C5FFF7408252CF5827400352BF5C5
:109E310083EFF0E52A2401FFE43529FE75F002E500
:109E410025A42FF582E5F03EF583C083C082900FF3
:109E5100E6E0FBA3E0FAA3E0F9D082D083126C5FC5
:109E6100FF7409252CF5827400352BF583EFF0057D
:109E710026E52664086003029DBC7B017A0079080F
:109E810012E6610525E525C394405003029DB922E0
:109E9100900FE9E064036003029F6FF525E4F52666
:109EA100E52675F080A485F029F52A247FF52CE4B8
:109EB1003529F52BF527852C28D3E528952AE52783
:109EC1009529402674062528F58274003527F583E7
:109ED100E0FF74082528F58274003527F583EFF03B
:109EE100E528152870D3152780CFE52575F002A444
:109EF100FFE52A247FCDE43529CDC39FFFED95F001
:109F0100FE900FE6E0FBA3E0FAA3E0F98F828E83D7
:109F1100126C5FFF7409252AF58274003529F583D7
:109F2100EFF0E52575F002A4FFE52A247ECDE435A6
:109F310029CDC39FFFED95F08F82F583126C5FFFF2
:109F41007408252AF58274003529F583EFF005267A
:109F5100E52664086003029EA17B017A007908125C
:0E9F6100E6610525E525C394405003029E9E4F
:019F6F0022CF
:06CA65007B017A0879084C
:0ECA6B00900FF5EBF0A3EAF0A3E9F0A3EDF0D5
:10CA7900E4F52F900FF8E0FFE52FC39F400302CBA9
:10CA890078E4F530E53075F080A485F033F5342489
:10CA990080F536E43533F535853331853432C3E5F0
:10CAA900329536E5319535503D74882532F58274D5
:10CAB900003531F583E0C43333335480FF740825DE
:10CAC90032F58274003531F583E0C3134FFF7408E2
:10CAD9002532F58274003531F583EFF00532E53200
:10CAE90070BC053180B80530E530B40797E52F13E0
:10CAF9001313541F75F080A485F033F534E52F54D2
:10CB090007FFC374079FF536E49400F535E4F53063
:10CB19007E00E5342530FFEE3533FE900FF5E0FB5E
:10CB2900A3E0FAA3E0F98F828E83126C5FFFAE3621
:10CB3900A806088002C333D8FC5480FF74882530C6
:10CB4900F582E43403F583E0FEC3134FFF748825AF
:10CB590030F582E43403F583EFF00530E530B48035
:0FCB6900AF7B017A00790812E661052F02CA7CC2
:01CB7800229A
:0EC4B500900FE6EBF0A3EAF0A3E9F0A3EDF0A0
:10C4C300E4F525900FE9E0FFE525C39F400302C58E
:10C4D300DFE4F526C374079526FFE49400FEEF78A6
:10C4E30007C333CE33CED8F9F52A8E292480F52C11
:10C4F300E43529F52B852927852A28C3E528952C9A
:10C50300E527952B503D74082528F58274003527BF
:10C51300F583E025E0FF74882528F58274FF35272D
:10C52300F583E0C413131354014FFF74082528F552
:10C533008274003527F583EFF00528E52870BC05E4
:10C543002780B80526E52664077089E525131313AC
:10C55300541FFFC374079FFFE49400FEEF7807C3E3
:10C5630033CE33CED8F9F52A8E29E5255407FFC3F8
:10C5730074079FF52CE49400F52BE4F5267E00E583
:10C583002A2526FFEE3529FE900FE6E0FBA3E0FA0D
:10C59300A3E0F98F828E83126C5FFFAE2CA806088E
:10C5A3008002C313D8FC5401FF74082526F582E4E6
:10C5B3003400F583E0FE25E04FFF74082526F5825D
:10C5C300E43400F583EFF00526E526B480AF7B0164
:0CC5D3007A00790812E661052502C4C652
:01C5DF002239
:0AF21000EF600302F05D12F1982296
:0BF1D300EFD394FF40027FFF02F11D0C
:10EF7D00EF60097F0112F06E7F018007E4FF12F050
:07EF8D006EE4FF12F07F2289
:03F29B0002F090EE
:10AC5E00EF75F00A84900FF0F0EF75F00A84A3E51B
:10AC6E00F0F0A3740AF0ED75F00A84A3F0ED75F020
:10AC7E000A84A3E5F0F0A3740AF0EB75F00A84A33E
:10AC8E00F0EB75F00A84A3E5F0F0900FE67407F090
:10AC9E00900FE6E0FFC364809480500302AEC7EFCE
:10ACAE003395E0FE74002FF58274003EF583E0FDCF
:10ACBE0074F02FF582740F3EF583E06D700302AED3
:10ACCE009DE4900FE7F0E4FBEB2401FFE433FEEF8D
:10ACDE007807C333CE33CED8F9FDAC06900FE6E03D
:10ACEE00FF3395E0FEEFC4F8540FC868FFEEC4546E
:10ACFE00F048FEED2FFFEC3E900FEAF0A3EFF09040
:10AD0E000FEAE0FCA3E0FD2410FEE43CA3F0A3CE8A
:10AD1E00F0900FE8ECF0A3EDF0900FECE0FEA3E066
:10AD2E00FF900FE8E0FCA3E0FDC39FEC9E504C7437
:10AD3E00882DF58274003CF583E0FE74082DF582B3
:10AD4E0074003CF583E0FDEDFF900FEEEEF0A3EF07
:10AD5E00F0900FEEE0C313A3E013FF900FE8A3E013
:10AD6E002408F58274003CF583EFF0900FE9E004BF
:10AD7E00F07006900FE8E004F0809E0BEB64056027
:10AD8E000302ACD6EB2401FFE433FEEF7807C333A6
:10AD9E00CE33CED8F9FDAC06900FE6E0FF3395E04A
:10ADAE00FEEFC4F8540FC868FFEEC454F048FEED31
:10ADBE002FFFEC3E900FEAF0A3EFF0900FE7E0FDCF
