:10642000D3EF9400EE9400400F7D187C55DCFEDD28
:08643000FCEF1F70EB1E80E879
:016438002241
:0A63D2001263DC7F021263DC7F100F
:1063DC00ED6004D2938002C293C2C38F80D2C322D9
:10637E00AE07ED24B0FFE4FD1263DCEE54F0C4541E
:0E638E000F4410FF1263DCEE540FFF0263DCBD
:1064B800E4FD7F8D1263DC7F141263DC7FAF02631F
:0164C800DCF7
:0C659C00E4FD7F8D1263D77FAE0263DC4C
:0E654A00AE07E4FD7F811263DCAF060263DC66
:1064C900EF6006E4FD7FA08004E4FD7FA11263DC98
:0164D90022A0
:1064DA00EF6006E4FD7FC08004E4FD7FC81263DC40
:0164EA00228F
:1064EB00EF6006E4FD7FA78004E4FD7FA61263DC6A
:0164FB00227E
:10635F00E4FEEE24B0FFE4FD1263D2E4FC7D01E421
:0E636F00FF1263DC0CECB480F40EEEB408E414
:01637D0022FD
:105FFE00E4F53BE53B24B0FFE4FD1263D7E4FF126A
:10600E0063DCE53B75F080A485F03DF53EE4F53CA0
:10601E007E00E53E253CFFEE353D8F82F583123D39
:10602E0078FF7D011263DC053CE53CC3948040E0C3
:09603E00053BE53BC3940840BAA0
:016047002236
:105B2D00D2927F147E00126420C2927F0A7E0012F0
:105B3D006420D292D2C4E4FD7FAE1263D27F4012B4
:105B4D0063DC7F811263DC7F7F1263DC7FC81263AD
:105B5D00DC7FA11263DC7FA81263DC7F3F1263DC64
:105B6D007FD31263DCE4FF1263DC7FD51263DC7F2D
:105B7D00801263DC7FD91263DC7FF11263DC7FDA84
:105B8D001263DC7F121263DC7FDB1263DC7F401259
:105B9D0063DC7F201263DC7F021263DC7F8D126376
:105BAD00DC7F141263DC7FA41263DC7FA61263DC3E
:105BBD007FAF1263DC1263DC12635FE4FDFF0263EF
:015BCD007E59
:0A1FF100430D570000EF410D0600FC
:0765E70075DE2F75BC8F2249
:10639C00EF4480F5BC75BC400000E5BC30E5FB5318
:0A63AC00BCDFAFBDEFFEADBDEDFF9D
:0163B60022C4
:0665EE00EF24FF92C02221
:0D658200EF60044391802253917FC2972265
:1058FD00900DB9123F8900000000E4900DBDF0A39A
:10590D00F0A3F0A3F07F0F12639C7F0F12639CE452
:10591D00900DBDF0A3F0900DB9E0F8A3E0F9A3E070
:10592D00FAA3E0FB7F0F12639CEE3395E0FDFCEBD9
:10593D002FFFEA3EFEE93DFDE83CFC900DB9123F1C
:10594D007D900DBEE004F07006900DBDE004F0C337
:10595D00900DBEE09440900DBDE06480948040B603
:10596D00900DB9E0FCA3E0FDA3E0FEA3E0FF7806F7
:10597D00123F31900DB9123F7D900D57E0FBA3E022
:10598D00FAA3E0F9123E44FFAEF0EE3395E0FDFCD4
:10599D00E47BFF7A0FF9F8123ED4900DB9E0F8A32D
:1059AD00E0F9A3E0FAA3E0FB126116900DBFEEF053
:1059BD00A3EFF0FDAC06EC123C58E4FBFA797A78D3
:0459CD0044123B2C19
:0159D10022B3
:10541400900DB0123F8900000000E4900DB8F01226
:1054240058FD7B9A7A99795978C01239327B487A37
:10543400E1793A783F123B2C900DB4123F7DE4FFA2
:10544400FE7D807C3F900DB4E0F8A3E0F9A3E0FA80
:10545400A3E0FB123BC9600E400C900DB4123F89CF
:105464003F8000008022E4FFFEFDFC900DB4E0F8D4
:10547400A3E0F9A3E0FAA3E0FB123BC9500A900DA4
:10548400B4123F8900000000900D06E0703804F06B
:10549400E4900DB8F0900DB8E0FBC394145027903D
:1054A4000DB4E0FCA3E0FDA3E0FEA3E0FFEB25E0E8
:1054B40025E02407F582E4340DF583123F7D900D39
:1054C400B8E004F080CF900DB87413F0900DB8E0FC
:1054D400FBD394004057EB25E025E02403F582E458
:1054E400340DF583E0FCA3E0FDA3E0FEA3E0FF9010
:1054F4000D0B123F7D900DB0E0FCA3E0FDA3E0FE98
:10550400A3E0FFEB25E025E02407F582E4340DF564
:1055140083E0F8A3E0F9A3E0FAA3E0FB12393290A8
:105524000DB0123F7D900DB8E014F0809F900DB047
:10553400E0FCA3E0FDA3E0FEA3E0FFA3E0F8A3E00A
:10554400F9A3E0FAA3E0FB123932900DB0123F7DCB
:10555400E4FBFA79A07841900DB0E0FCA3E0FDA350
:10556400E0FEA3E0FF123B2C900DB4123F7D900DA2
:10557400B4E0FCA3E0FDA3E0FEA3E0FF900D07125E
:105584003F7D900DB4E0FCA3E0FDA3E0FEA3E0FFAB
:0155940022F4
:10620300900E04E590F0E4F580F590759230759169
:10621300B0759601F59575B08475C099F5C8C2A996
:0B62230053AFFE53AFDF758702000091
:01622E00224D
:10625B00AF90E4F580F5907592307591B075A00113
:10626B00F596F59575B084F5C0F5C8C2A953AFFE88
:0A627B0053AFDF75870200008F901B
:0162850022F6
:0C65A80012622FD2A943AF0143AF2022A2
:1064A60043BA8090FE8074D0F090FE82E4F053BA36
:0264B6007F2243
:1062F90075430175442C90FE82E020E60DE54415B6
:10630900447002154314454370EC90FE82E054BF7B
:02631900F02270
:0864FC00EDF0EBA3F043BA80C0
:0965040090FE817401F00262F9BD
:10631B00900DDCE0FBA3E0FAA3E0F9A3E0F58275B6
:09632B008300EF123DB712652C4E
:0963340090FE817406F00262F98A
:0E65580090FE86EFF090FE817402F00262F970
:0F651D0090FE817404F01262F990FE87E0FF2275
:0965D50090FE817403F00262F9EA
:0E65660090FE82E4F090FE817405F00262F96E
:0F652C0090FE827401F090FE817405F00262F916
:10628600900E001264FC1200001265D5900E00E01C
:10629600FF1200001265D5900E01E0FF12000012F9
:0962A60065D512633453BA7F225E
:06005E00900E02EFF0ED30
:100064001264FF900E02E0FF1200001265D5900E9C
:1000740003E0FF1200001265D5126504900E02E041
:10008400FF1200001265D512000012652C126334B1
:0300940053BA7FDD
:010097002246
:0E5F0A00900DD6EDF0A3EBF0A3EAF0A3E9F0C2
:105F1800E41264FF1200001265D5E4900DDAF090E7
:105F28000DD6E0FF900DDAE0FEC39F5022900DD70A
:105F3800E0FBA3E0FAA3E0F98E82758300123D78B6
:105F4800FF1200001265D5900DDAE004F080D0123F
:055F5800633453BA7F21
:015F5D002221
:0D60D200900DDBEDF0A3EBF0A3EAF0A3E9E5
:1060DF00126500EF04FF1200001265D5E4900DDF8A
:1060EF00F0900DDBE014FF900DDFE0C39F500E1218
:1060FF00000012631B900DDFE004F080E41200003B
:06610F0012631B53BA7F6E
:016115002267
:065DE500900DC1EFF0A3D8
:105DEB001264FC900DC1E0FF1200001265D5900DFE
:105DFB00C2E0FF1200001265D5126504900DC1E0E0
:105E0B0004FF120000E4900DC7F0900DC3E014FFE7
:105E1B00900DC7E0C39F5024120000900DC4E0FB0F
:105E2B00A3E0FAA3E0F9A3E0F582758300EF123D3E
:105E3B00B7126566900DC7E004F080CE120000909B
:085E4B000DC412631E53BA7F5F
:015E5300222C
:101FFB0060750C910A0532000000081E01010001FA
:10200B0042C233330000000000000000000000005B
:10201B0000003F8000003F80000000000000000037
:10202B0000000000000000000000000000000000A5
:10203B000000000000000000000000000000000095
:10204B000000000000000000000000000000000085
:10205B000000000000000000000000000000000075
:09206B000000000000000000006C
:10622F00E4F580F594F593D296F59275913075A0BB
:10623F00B8759640F59575B034F5B2F5B175C018CF
:0C624F00F5B4F5B375C830F5CAF5C922E6
:0D658F00438904E4F58AF58CC28CD2A92260
:10650D0043D10275D54075D4A243D10843AF2022A3
:10643900759850438E40538EFE53890F758BCC75DA
:096449008DFFC2ABD28ED2992264
:10649300759A50438E0475D78F75D6FD438E10437E
:0364A300A801222B
:0C65B400D288D2A8D28AD2AA438F10222B
:04000E0075C7602230
:0400560075C1272227
:04009E0043C1102228
:0B5D7000900DE0EBF0A3EAF0A3E9F0D7
:105D7B00E4FFA3F0A3F0900DE0E0FBA3E0FAA3E0B7
:105D8B00F98F82758300123D78FD900DE4E02DF0C4
:105D9B00900DE3E03400F00FEFB473DA900DE3E015
:105DAB00FEA3E0FF900DE0E0FBA3E0FAA3E0F99087
:105DBB000073EE8FF0123EA77F807E011262AF90D0
:105DCB000DE0E0FBA3E0FAA3E0F9900DCDE4F0A326
:0A5DDB007475F07F807E0102608D78
:0B59D200900D81EBF0A3EAF0A3E9F0D8
:1059DD00E4A3F0A3F0A3F0900D8CF0A37475F07F09
:1059ED00807E01126048900D84E0FFC394735029AE
:1059FD00900D81E0FBA3E0FAA3E0F98F827583009F
:105A0D00123D78FF900D86E02FF0900D85E034006B
:105A1D00F0900D84E004F080CD900D81E0FBA3E0CB
:105A2D00FAA3E0F9900073123E6FFF900D85E0B57B
:105A3D00F008A3E0B507037F0122E4900D84F090F8
:105A4D000D84E0FF7C007B012491F9EC340CFA12FB
:105A5D003D5FFE900D81E0FBA3E0FAA3E0F98F829C
:105A6D00758300EE123DB7900D84E004F0E0B4753F
:035A7D00CE7F00D9
:015A80002203
:08000300EF640124FF92B52215
:10615A0012622F12643912649312658F12650D123E
:10616A0065B41265E71264A61200567B017A0C79AF
:10617A001C1259D2126198900C21E0FF1265DE7F41
:0E618A00011200037F057E001263ECD2AF22EB
:0E657400E4F5C7F5C5F5C675C3FF75C4FF2273
:10604800AD07AC06A2AF92D5C2AF75C78075C501C2
:10605800ECF5C3AF058FC475C65A75C6A500E5C271
:10606800123DA50DBD00010C740129F9E43AFA901E
:106078000D8C74FFF5F0123E2E45F070D312657446
:05608800A2D592AF2239
:1062AF00AD07AC06A2AF92D5ECF5C3AF058FC475A1
:1062BF00C78075C50375C65A75C6A500126574E506
:0662CF008024FF92AF22C3
:10608D00AD07AC06A2AF92D5C2AF75C78075C5027C
:10609D00ECF5C3AF058FC4123D5FF5C275C65A75D9
:1060AD00C6A5000DBD00010C740129F9E43AFA9062
:1060BD000DCD74FFF5F0123E2E45F070D3126574C0
:0560CD00A2D592AF22F4
:0B207400C110410DFD00420DFE0000F8
:1061980043BA8090FFF2E4F090FFF07417F0A37414
:1061A80070F090FF647480F090FF60E4F0A3F0A3B7
:1061B800740BF0A374B8F053BA7F43D12075D34061
:0961C80075D2A243AF40C21022BF
:1064690043BA80EFB4010543FE80800553FE7FC225
:05647900A653BA7F22CA
:0300A300025BCE2F
:105BCE00C0E0C0F0C083C082C0D075D00853EFFBD8
:105BDE00900DFDE0FE7019A3E07004A3E064C870A0
:105BEE006D900DFEF0A3F0FF12646953D17F805EBD
:105BFE00EE64017059900DFEE0FEA3E0FFC39458D1
:105C0E00EE940250367C007D64123DD9ED4C702B23
:105C1E00900DFEE0FEA3E0FF7C007D64123DD9EF07
:105C2E0054016401FF126469900DFEE0FEA3E0FFD3
:105C3E007C007D64123DD9EF1392A0900DFEE0B46E
:105C4E00030CA3E0B4E807900DFEE4F0A3F0D0D06F
:095C5E00D082D083D0F0D0E032F6
:10647E00E4900DFDF0A3F0A3F03010087F0112643C
:05648E006943D18022EA
:0F653B00900DFD7401F0E4A3F0A3F043D1802292
:0965DE00EF6003D21022C210226A
:1063EC00D3EF9400EE94004010007D207C28DCFE5E
:0963FC00DDFCEF1F70EA1E80E7D2
:016405002274
:102CE1000000000000000000002F000000000700AD
:102CF100070000147F147F1400242A7F2A12002366
:102D01001308646200364955225000000503000093
:102D110000001C224100000041221C000014083E5A
:102D210008140008083E0808000000A06000000820
:102D31000808080800006060000000201008040274
:102D4100003E5149453E0000427F40000042615132
:102D51004946002141454B31001814127F100027CC
:102D610045454539003C4A4949300001710905038F
:102D710000364949493600064949291E00003636C0
:102D81000000000056360000000814224100001423
:102D91001414141400004122140800020151090600
:102DA10000324959513E007C1211127C007F494981
:102DB1004936003E41414122007F4141221C007FB2
:102DC10049494941007F09090901003E4149497AC0
:102DD100007F0808087F0000417F4100002040413A
:102DE1003F01007F08142241007F40404040007FA6
:102DF100020C027F007F0408107F003E4141413EEA
:102E0100007F09090906003E4151215E007F091931
:102E110029460046494949310001017F0101003F2E
:102E21004040403F001F2040201F003F4038403FAE
:102E31000063140814630007087008070061514912
:102E4100454300007F41410000552A552A550000A5
:102E510041417F0000040201020400404040404023
:102E6100000001020400002054545478007F4844BB
:102E7100443800384444442000384444487F0038F2
:102E81005454541800087E0901020018A4A4A47C1B
:102E9100007F080404780000447D400000408084E5
:102EA1007D00007F102844000000417F4000007C2D
:102EB10004180478007C0804047800384444443839
:102EC10000FC242424180018242418FC007C080485
:102ED100040800485454542000043F444020003C5E
:102EE1004040207C001C2040201C003C4030403CE5
:102EF100004428102844001CA0A0A07C0044645475
:102F01004C441414141414140000000000000000B8
:102F110000000000000000000000000000000000B0
:102F210000000000000000000000000000F80000A8
:102F31000000000000333000000000100C06100CEF
:102F41000600000000000000000040C07840C0788A
:102F51004000043F04043F040400007088FC083072
:102F61000000001820FF211E0000F008F000E0180A
:102F7100000000211C031E211E0000F008887000C3
:102F810000001E2123241927211010160E00000015
:102F910000000000000000000000000000E0180434
:102FA1000200000000071820400000020418E000A1
:102FB10000000040201807000000404080F08040E1
:102FC10040000202010F01020200000000F00000B7
:102FD10000000101011F01010100000000000000CB
:102FE100000080B070000000000000000000000040
:102FF10000000001010101010101000000000000C9
:10300100000000303000000000000000000080607F
:103011001804006018060100000000E01008081004
:10302100E000000F102020100F00001010F8000029
:1030310000000020203F20200000007008080888C0
:103041007000003028242221300000300888884890
:1030510030000018202020110E000000C02010F8C0
:10306100000000070424243F240000F80888880891
:1030710008000019212020110E0000E01088881896
:103081000000000F112020110E0000380808C83878
:1030910008000000003F0000000000708808088858
:1030A1007000001C222121221C0000E010080810E1
:1030B100E0000000312222110F00000000C0C0001A
:1030C100000000000030300000000000008000001F
:1030D100000000008060000000000000804020101F
:1030E1000800000102040810200040404040404018
:1030F100400004040404040404000008102040807B
:1031010000000020100804020100007048080808AF
:10311100F0000000003036010000C030C828E8107F
:10312100E0000718272423140B000000C038E0003A
:103131000000203C23020227382008F88888887084
:103141000000203F202020110E00C0300808080890
:103151003800071820202010080008F80808081077
:10316100E000203F202020100F0008F88888E808A0
:103171001000203F20202320180008F88888E80844
:103181001000203F200003000000C030080808386C
:10319100000007182020221E020008F8080000087D
:1031A100F808203F210101213F20000808F8080804
:1031B10000000020203F2020000000000808F8083F
:1031C1000800C08080807F00000008F888C02818AF
:1031D1000800203F20012638200008F808000000E0
:1031E1000000203F20202020300008F8F800F8F8E7
:1031F1000800203F003F003F200008F830C00008D1
:10320100F808203F200007183F00E01008080810C8
:10321100E0000F10202020100F0008F8080808080F
:10322100F000203F210101010000E0100808081012
:10323100E0000F18242438504F0008F88888888847
:103241007000203F2000030C30200070880808081F
:1032510038000038202121221C00180808F808082D
:1032610018000000203F2000000008F808000008B6
:10327100F808001F202020201F000878880000C8BF
:103281003808000007380E010000F80800F80008AF
:10329100F800033C0700073C0300081868808068B9
:1032A100180820302C03032C30200838C800C838F7
:1032B10008000000203F2000000010080808C8385E
:1032C10008002038262120201800000000FE0202FC
:1032D10002000000007F40404000000C30C00000B0
:1032E1000000000000010638C00000020202FE00DA
:1032F1000000004040407F00000000000402020284
:1033010004000000000000000000000000000000B8
:1033110000008080808080808080000202040000A4
:10332100000000000000000000000000808080809C
:1033310000000019242222223F2008F8008080008A
:103341000000003F112020110E000000008080804D
:103351000000000E11202020110000000080808854
:10336100F800000E112020103F2000008080808096
:103371000000001F222222221300008080F0888892
:1033810088180020203F20200000000080808080DD
:103391008000006B94949493600008F80080808012
:1033A1000000203F210000203F200080989800006D
:1033B10000000020203F202000000000008098989D
:1033C100000000C08080807F000008F8000080803D
:1033D1008000203F24022D302000000808F8000062
:1033E10000000020203F202000008080808080801D
:1033F1008000203F20003F20003F808000808080AF
:103401000000203F210000203F20000080808080BC
:103411000000001F202020201F00808000808000ED
:10342100000080FFA12020110E000000008080809C
:103431008000000E112020A0FF808080800080800D
:10344100800020203F21200001000000808080803A
:1034510080000033242424241900008080E080802F
:1034610000000000001F202000008080000000807C
:103471008000001F202020103F20808080000080DD
:10348100808000010E3008060100808000800080ED
:1034910080800F300C030C300F0000808000808092
:1034A10080000020312E0E312000808080000080BD
:1034B100808080818E70180601000080808080806D
:1034C10080000021302C2221300000000000807C8F
:1034D100020200000000003F404000000000FF0029
:1034E100000000000000FF0000000002027C8000DC
:1034F10000000040403F0000000000060101020200
:10350100040400000000000000000000E0F8FCFEE0
:10351100FEFEFEFEFCF8E0000000E0FFFFFFFF1FE3
:103521000301031FFFFFFFFFE000FFFFFFFFFF009D
:1035310000000000FFFFFFFFFF00FFFFFFFFFF0094
:1035410000000000FFFFFFFFFF0007FFFFFFFFF884
:10355100C080C0F8FFFFFFFF07000000071F3F7F8B
:103561007F7F7F7F3F1F070000000000000080C0B9
:10357100FCFCFCFCFC000000000000007F7F7F7F62
:10358100FFFFFFFFFF00000000000000000000003F
:10359100FFFFFFFFFF00000000000000000000002F
:1035A100FFFFFFFFFF00000000000000C0C0C0C01F
:1035B100FFFFFFFFFFC0C0C0C00000003F3F3F3F13
:1035C1003F3F3F3F3F3F3F3F3F0000F8F8FCFEFEDB
:1035D100FEFEFEFCFCF8E0000000001F0F070303E5
:1035E10003070FFFFFFFFFFF0000000000000000C6
:1035F1000000E0FFFFFFFF1F00000000000000C00F
:10360100F8FEFFFF7F0F0100000000C0F0FCFFFF8C
:10361100FFDFC7C1C0C0C0C0C000003F3F3F3F3F48
:103621003F3F3F3F3F3F3F3F3F0000F8F8FCFEFE7A
:10363100FEFEFEFEFCF8F0800000001F0F070303F2
:10364100030307FFFFFFFFFF000000000000F8F881
:10365100F8FCFEFFFFBF0F0100000000000007079C
:1036610007070F1FFFFFFFFEF000F8F0E0E0C0C00A
:10367100C0C0E0F0FFFFFFFF3F001F1F3F3F7F7F04
:103681007F7F7F3F3F1F0F0300000000000000000D
:10369100C0F8FCFCFCFCFC00000000000000E0FCA9
:1036A100FF7FFFFFFFFFFF0000000080F0FFFF3FF3
:1036B1000300FFFFFFFFFF000000FCFFFFFFF1F031
:1036C100F0F0FFFFFFFFFFF0F0F00F0F0F0F0F0FF4
:1036D1000F0FFFFFFFFFFF0F0F0F000000000000A3
:1036E10000003F3F3F3F3F0000000000FCFCFCFCAE
:1036F100FCFCFCFCFCFCFCFC00000000FFFFFFFFED
:10370100FF0303030303030300000000FFFFFFFFA8
:10371100FFFCFCFCFCF8F0C00000000007070303FD
:103721000303070FFFFFFFFFFE0000F8F0E0C0C03A
:10373100C0C0E0F8FFFFFFFF3F00001F3F3F7F7F5A
:103741007F7F7F7F3F1F0F010000000080E0F0F8C6
:10375100FCFEFEFEFEFEFC00000000F8FFFFFFFF86
:103761000F030101010103000000FFFFFFFFFFF84C
:10377100FCFEFEFEFEFCF8E00000FFFFFFFFFF0382
:1037810001010307FFFFFFFFFF0007FFFFFFFFF836
:10379100C08080E0FFFFFFFF3F000000071F3F3FA9
:1037A1007F7F7F7F3F1F0F010000FCFCFCFCFCFCC6
:1037B100FCFCFCFCFCFCFCFCFC000303030303031A
:1037C1000303C3FFFFFFFFFF1F0000000000000015
:1037D100C0FCFFFFFFFF1F0100000000000080F898
:1037E100FFFFFFFF3F0300000000000000F8FFFFA4
:1037F100FFFF7F0300000000000000303F3F3F3F1C
:103801003F0700000000000000000000E0F8FCFCA1
:10381100FEFEFEFEFCFCF8E0800000FFFFFFFFFF64
:1038210003010103FFFFFFFFFF0000073FFFFFFF51
:10383100FFFCF8FCFFFF1F070000E0FCFEFFFF0F8D
:10384100070F1F3FFFFFFFFEF0007FFFFFFFFFE0BD
:10385100C08080E0FFFFFFFF7F0000070F1F3F7F59
:103861007F7F7F7F3F1F0F0300000080E0F8FCFE99
:10387100FEFEFEFEFCF8E0800000F8FFFFFFFF0FF8
:103881000101030FFFFFFFFFF000FFFFFFFFFFE05C
:10389100C08080C0FFFFFFFFFF0000071F3F7F7F49
:1038A1007F7F3F1FFFFFFFFF7F000000C080808000
:1038B10080C0F0FFFFFFFF1F000000007F7F7F7FC0
:1038C1007F7F3F1F0F070000000000000000000085
:1038D100000000000000000000000000000000FFE8
:1038E100FFFFFFFF00000000000000000000000FCC
:1038F1000F0F0F0F0000000000000000000000E0AB
:10390100E0E0E0E00000000000000000000000FF37
:10391100FFFFFFFF000000000000000000000001A9
:0A3921000101010100000000000098
:10207F0064000008000000000000000000000000E5
:10208F000000000000000000000000000000000041
:10209F000000000000000000000000000000000031
:1020AF000000000000000000000000000000000021
:1020BF000000000000000000000000000000000011
:10247F0000000000640004080000000000000000DD
:10248F00000000000000000000000000000000003D
:10249F00000000000000000000000000000000002D
:1024AF00000000000000000000000000000000001D
:1024BF00000000000000000000000000000000000D
:10287F0000000000000000006400080800000000D5
:10288F000000000000000000000000000000000039
:10289F000000000000000000000000000000000029
:1028AF000000000000000000000000000000000019
:1028BF000000000000000000000000000000000009
:102C7F000000000000000000000000004800000BF2
:072C8F000B0B0B0B0B0B0BF1
:105F5E00900D81EBF0A3EAF0A3E9F0125B2D900D0A
:105F6E0081E0FBA3E0FAA3E0F9900002123D78FF76
:105F7E001265C0900D81E0FBA3E0FAA3E0F990005A
:105F8E0004123D78FF126452900D81E0FBA3E0FAFB
:105F9E00A3E0F9900003123D78FF1265F47F010231
:025FAE0065CBC1
:0B50A100900D9AEFF0A3EDF0A3EBF0F0
:1050AC00A3E0131313541F752500F526900DA4E0EF
:1050BC006003025154F523AF237E00C3EF9526EE17
:1050CC00952540030251F7900D9BE02FFFEE33FE28
:1050DC00EF7807C333CE33CED8F9FF900D9AE07C2E
:1050EC00002FF528EC3EF527900D9CE0FFE5238F73
:1050FC00F0A485F029F52AE4F524900D9CE0FFE559
:10510C0024C39F503EAF247E00E52A2FFDEE3529A7
:10511C00FC900D9EE0FBA3E0FAA3E0F98D828C835A
:10512C00123D78FDE5282FFFEE3527FE900DA1E00E
:10513C00FBA3E0FAA3E0F98F828E83ED123DB70555
:10514C002480B705230250C3E4F523AF237E00C3AC
:10515C00EF9526EE952540030251F7900D9BE02F1D
:10516C00FFEE33FEEF7807C333CE33CED8F9FF9082
:10517C000D9AE07C002FF528EC3EF527900D9CE075
:10518C00FFE5238FF0A485F029F52AE4F524900D92
:10519C009CE0FFE524C39F504DAF247E00E5282FF3
:1051AC00FDEE3527FC900DA1E0FBA3E0FAA3E02D6A
:1051BC00F9EA3CFAC003C002C001123D5FFDE52ACA
:1051CC002FFFEE3529FE900D9EE0FBA3E0FAA3E045
:1051DC00F98F828E83123D784DD001D002D003120C
:1051EC003DA5052480A80523025157E4F523AF23E0
:1051FC007E00C3EF9526EE9525400302528B900D51
:10520C009BE02FFFEE33FEEF7807C333CE33CED8BF
:10521C00F9FF900D9AE07C002FF528EC3EF52790D5
:10522C000D9CE0FFE5238FF0A485F029F52AE4F529
:10523C0024900D9CE0FFE524C39F503EAF247E00DC
:10524C00E52A2FFDEE3529FC900D9EE0FBA3E0FA3C
:10525C00A3E0F98D828C83123D78FDE5282FFFEEBB
:10526C003527FE900DA1E0FBA3E0FAA3E0F98F82B5
:0F527C008E83ED123DB7052480B705230251FA4A
:01528B002200
:060016007B017A08790865
:0B001C00900D81EBF0A3EAF0A3E9F0E7
:10002700E4F547F548900D81E0FBA3E0FAA3E0F97A
:10003700854882854783E4123DB70548E548700245
:0A0047000547B400E0E547B404DB10
:01005100228C
:0B5CF300900DCFEFF0A3EDF0A3EBF05D
:105CFE00A3E0131313541F751C00F51DE4F51AAF22
:105D0E001A7E00C3EF951DEE951C5055900DD0E0F8
:105D1E002FFFEE33FEEF7807C333CE33CED8F9FF25
:105D2E00900DCFE07C002FF51FEC3EF51EE4F51B29
:105D3E00900DD1E0FFE51BC39F50227E00E51F258D
:105D4E001BFFEE351EFE900DD3E0FBA3E0FAA3E0A1
:105D5E00F98F828E83E4123DB7051B80D3051A801E
:015D6E009E96
:015D6F002211
:1061D100E4F545F54674082546F58274003545F524
:1061E10083E0FF74082546F58274043545F583EF95
:1061F100F00546E54670020545B400D9E545B4040D
:01620100D4C8
:016202002279
:03009800025FFE06
:0A5E5400900DE5EFF0900DE7EBF084
:105E5E00AF058F3F900DE8E0FFE53FC39F504790A1
:105E6E000DE5E0FFAD3F12637EE53F75F080A48542
:105E7E00F041F542E4F540900DE7E0FFE540C39FA9
:105E8E0050207E00E5422540FFEE3541FE74082F7E
:105E9E00F58274003EF583E0FF7D011263DC054060
:065EAE0080D5053F80AE27
:015EB40022CB
:0E408800900DE9EBF0A3EAF0A3E9F0A3EDF050
:10409600600302419AF52BE4F52CE52C75F080A41B
:1040A60085F02FF5302480F532E4352FF531852F54
:1040B6002D85302EC3E52E9532E52D9531503E7473
:1040C60088252EF5827400352DF583E0C4333354EC
:1040D600C0FF7408252EF5827400352DF583E01394
:1040E60013543F4FFF7408252EF5827400352DF5C5
:1040F60083EFF0052EE52E70BB052D80B7052CE568
:104106002CB40796E52B1313543F75F080A485F065
:104116002FF530E52B540375F002A4FFAEF0C374FF
:10412600069FF532E49EF531E4F52C7E00E5302558
:104136002CFFEE352FFE900DE9E0FBA3E0FAA3E09D
:10414600F98F828E83123D78FFAE32A80608800270
:10415600C333D8FC54C0FF7488252CF582E434039D
:10416600F583E0FE1313543F4FFF7488252CF58228
:10417600E43403F583EFF0052CE52CB480AD7B0128
:104186007A007908125FFE052BE52BC394205003B5
:1041960002409D22900DECE0640160030242C1F5ED
:1041A6002BE4F52CC37407952CFFE49400FEEF78FE
:1041B60007C333CE33CED8F9F5308E2F2480F532AF
:1041C600E4352FF531852F2D85302EC3E52E95321A
:1041D600E52D9531503E7408252EF5827400352D57
:1041E600F583E025E025E0FF7488252EF58274FF2F
:1041F600352DF583E0C4131354034FFF7408252EA1
:10420600F5827400352DF583EFF0052EE52E70BB93
:10421600052D80B7052CE52C64077088E52B131354
:10422600543FFFC374079FFFE49400FEEF7807C373
:1042360033CE33CED8F9F5308E2FE52B540375F0F7
:1042460002A4FFAEF0C374069FF532E49EF531E496
:10425600F52C7E00E530252CFFEE352FFE900DE97E
:10426600E0FBA3E0FAA3E0F98F828E83123D78FF8C
:10427600AE32A806088002C313D8FC5403FF7408A4
:10428600252CF582E43400F583E0FE25E025E04F99
:10429600FF7408252CF582E43400F583EFF0052C35
:1042A600E52CB480AD7B017A007908125FFE052B00
:1042B600E52BC3942050030241A722900DECE06445
:1042C6000260030243A6F52BE4F52CE52C75F0807D
:1042D600A485F02FF530247EF532E4352FF53185AF
:1042E6002F2D85302EC3E52E9532E52D953150269E
:1042F600740A252EF5827400352DF583E0FF7408C7
:10430600252EF5827400352DF583EFF0052EE52E6A
:1043160070D3052D80CF900DE9E0FBA3E0FAA3E072
:10432600F975F002E52BA42530F582E5F0352FF579
:1043360083123D78FF74082532F58274003531F515
:1043460083EFF0E5302401FFE4352FFE75F002E53A
:104356002BA42FF582E5F03EF583C083C082900D35
:10436600E9E0FBA3E0FAA3E0F9D082D083123D781E
:10437600FF74092532F58274003531F583EFF005B7
:104386002CE52C640860030242D17B017A0079088F
:10439600125FFE052BE52BC3944050030242CE224A
:1043A600900DECE064036003024484F52BE4F52CE5
:1043B600E52C75F080A485F02FF530247FF532E4E6
:1043C600352FF531F52D85322ED3E52E9530E52D99
:1043D600952F40267406252EF5827400352DF5831B
:1043E600E0FF7408252EF5827400352DF583EFF075
:1043F600E52E152E70D3152D80CFE52B75F002A472
:10440600FFE530247FCDE4352FCDC39FFFED95F03A
:10441600FE900DE9E0FBA3E0FAA3E0F98F828E831C
:10442600123D78FF74092530F5827400352FF58327
:10443600EFF0E52B75F002A4FFE530247ECDE435E0
:104446002FCDC39FFFED95F08F82F583123D78FF48
:1044560074082530F5827400352FF583EFF0052CAE
:10446600E52C640860030243B67B017A00790812E2
:0E4476005FFE052BE52BC3944050030243B3B9
:014484002215
:0E559500900DEDEBF0A3EAF0A3E9F0A3EDF02A
:1055A300E4F533900DF0E0FFE533C39F400302566B
:1055B300BFE4F534C374079534FFE49400FEEF7839
:1055C30007C333CE33CED8F9F5388E372480F53A76
:1055D300E43537F539853735853836C3E536953AB9
:1055E300E5359539503D74082536F5827400353517
:1055F300F583E025E0FF74882536F58274FF3535A1
:10560300F583E0C413131354014FFF74082536F5D3
:105613008274003535F583EFF00536E53670BC0549
:105623003580B80534E53464077089E53313131303
:10563300541FFFC374079FFFE49400FEEF7807C372
:1056430033CE33CED8F9F5388E37E5335407FFC35D
:1056530074079FF53AE49400F539E4F5347E00E5E8
:10566300382534FFEE3537FE900DEDE0FBA3E0FA6D
:10567300A3E0F98F828E83123D78FFAE3AA8060825
:105683008002C313D8FC5401FF74082534F582E467
:105693003400F583E0FE25E04FFF74082534F582DE
:1056A300E43400F583EFF00534E534B480AF7B01D7
:0C56B3007A007908125FFE05330255A64C
:0156BF0022C8
:0A65CB00EF60030264B812659C2221
:0B65C000EFD394FF40027FFF02654A0A
:10645200EF60097F011264C97F018007E4FF1264C3
:07646200C9E4FF1264DA2215
:0365F4000264EB53
:104A4700EF75F00A84900D79F0EF75F00A84A3E50D
:104A5700F0F0A3740AF0ED75F00A84A3F0ED75F099
:104A67000A84A3E5F0F0A3740AF0EB75F00A84A3B7
:104A7700F0EB75F00A84A3E5F0F0900D6F7407F082
:104A8700900D6FE0FFC3648094805003024CB0EF39
:104A97003395E0FE74002FF58274003EF583E0FD48
:104AA70074792FF582740D3EF583E06D7003024C27
:104AB70086E4900D70F0E4FBEB2401FFE433FEEF96
:104AC7007807C333CE33CED8F9FDAC06900D6FE02F
:104AD700FF3395E0FEEFC4F8540FC868FFEEC454E7
:104AE700F048FEED2FFFEC3E900D73F0A3EFF09032
:104AF7000D73E0FCA3E0FD2410FEE43CA3F0A3CE7D
:104B0700F0900D71ECF0A3EDF0900D75E0FEA3E0D1
:104B1700FF900D71E0FCA3E0FDC39FEC9E504C7429
:104B2700882DF58274003CF583E0FE74082DF5822C
:104B370074003CF583E0FDEDFF900D77EEF0A3EFF9
:104B4700F0900D77E0C313A3E013FF900D71A3E07E
:104B57002408F58274003CF583EFF0900D72E004B1
:104B6700F07006900D71E004F0809E0BEB64056019
:104B770003024ABFEB2401FFE433FEEF7807C33398
:104B8700CE33CED8F9FDAC06900D6FE0FF3395E03C
:104B9700FEEFC4F8540FC868FFEEC454F048FEEDAA
:104BA7002FFFEC3E900D73F0A3EFF0900D70E0FD3A
:104BB700131313541F75F010A4FF900D75E5F0F053
:104BC700A3EFF0ED5407FFC374079FF9E4900D714D
:104BD700F0A3F0900D71E0FEA3E0FF900D76E02FBB
:104BE700FD900D75E03EFC900D6FE0FB3395E0FA0C
:104BF70074792BF582740D3AF583E075F060A4247F
:104C07000BF582E5F03435F583E5822DF582E583F2
:104C17003CF583E493FDA801088002C333D8FC5414
:104C270080FD900D73E0FAA3E02FFFEE3AFE7408C3
:104C37002FF58274003EF583E0FCC3134DFD740825
:104C47002FF58274003EF583EDF0900D72E004F0CD
:104C57007006900D71E004F0900D71E07004A3E010
:104C670064106003024BDA7B017A007908125FFE59
:104C7700900D70E004F0E0C394305003024ABD90F9
:104C87000D6FE0FF3395E0FE74792FF582740D3ECA
:104C9700F583E0FD74002FF58274003EF583EDF097
:094CA700900D6FE014F0024A8741
:014CB00022E1
:10448500900DA5EFF0A3EDF0A3EBF0A3EAF0A3E9FF
:01449500F036
:10449600E4F510F511900DAEE0B401037510FF9030
:1044A6000DA7E0FBA3E0FAA3E0F98511827583006E
:1044B600123D786004051180E6900DADE064106051
:1044C60003024657F512E512C395114003024797BA
:1044D600E512C4540F25E0FF900DA6E02FF515D385
:1044E600940650030245A8E4F513E51375F080A47D
:1044F600FF900DA5E07C002FFDEC35F0FCE5125495
:104506000F75F008A4AEF02DF517EE3CF516E51381
:1045160075F008A485F018F519E4F514900DA7E0D8
:10452600FBA3E0FAA3E0F9851282758300123D78B9
:1045360075F010A4241BF582E5F0342DF583AF1435
:104546007E00E5192FFDEE3518FCE5822DF582E596
:10455600833CF583E4936510FDE5172FFFEE3516D2
:10456600FE74082FF58274083EF583EDF00514E518
:1045760014B408A80513E513640260030244F0E5C9
:1045860012540F640F600AE51114651260030246A7
:10459600527B017A0879087D10120000120016027B
:1045A6004652E4F513E5152513FFE433FEEF7807CD
:1045B600C333CE33CED8F9FF900DA5E07C002FFD96
:1045C600EC3EFCE512540F75F008A4AEF02DF5177D
:1045D600EE3CF516E51375F008A485F018F519E418
:1045E600F514900DA7E0FBA3E0FAA3E0F98512828B
:1045F600758300123D7875F010A4241BF582E5F052
:10460600342DF583AF147E00E5192FFDEE3518FC29
:10461600E5822DF582E5833CF583E4936510FDE59F
:10462600172FFFEE3516FE900DAAE0FBA3E0FAA3C6
:10463600E0F98F828E83ED123DB70514E514B408B8
:10464600A10513E513640260030245AB051202449B
:10465600CCE4F512E512C395114003024797E51223
:1046660075F01584FF900DA6E02FF515D39407502D
:1046760003024710E51275F01584E5F075F006A4FF
:10468600FFAEF0900DA5E07C002FF517EC3EF51679
:10469600E4F514900DA7E0FBA3E0FAA3E0F9851278
:1046A60082758300123D7875F006A42421F582E513
:1046B600F0342CF583E5822514F582E43583F58301
:1046C600E4936510FFE5147C002517FDEC3516FC18
:1046D60074082DF58274083CF583EFF00514E51493
:1046E600B406B0E51275F01584E5F06414600AE5C9
:1046F6001114651260030247927B017A0879087DDE
:1047060008120000120016024792E51575F080A403
:10471600FF900DA5E07C002FFDEC35F0FCE5127551
:10472600F01584E5F075F006A4AEF02DF517EE3C15
:10473600F516E4F514900DA7E0FBA3E0FAA3E0F963
:10474600851282758300123D7875F006A42421F542
:1047560082E5F0342CF583E5822514F582E4358371
:10476600F583E4936510FFE5147C002517FDEC3511
:1047760016FC900DAAE0FBA3E0FAA3E0F98D828C6B
:1047860083EF123DB70514E514B406A905120246D7
:104796005A900DAFE0600E900DE87408F07B80E44F
:1047A600FDFF125E54900DADE0B4100AE511C4543D
:0E47B6000F0425E0FF22E51175F0158404FFC5
:0147C40022D2
:105EB500125ED0EC04FF125ED0EC2402FF125ED01D
:0B5EC500EC2403FF125ED0EC2404FF6D
:105ED000ED131313541F75F080A42FF582E435F0F1
:105EE000F583E5822408F582E5833400F583C083D9
:105EF000C082E0FFED5407FE7401A806088002C3CB
:0A5F000033D8FC4FD082D083F0228A
:0F47C500900D8FEDF0900D8EEFF0900D90EBF0CA
:1047D4006F70030249FD900D8EE0FCE4123C5DC055
:1047E40004C005C006C007900D90E0FCE4123C5DD7
:1047F400D003D002D001D00012392EC004C005C0AD
:1048040006C007900D8FE0FCE4123C5DC004C005B7
:10481400C006C007900D91E0FCE4123C5DD003D0CB
:1048240002D001D00012392ED003D002D001D00022
:10483400123B2C900D92123F7D900D8EE0FCE41201
:104844003C5D900D92E0F8A3E0F9A3E0FAA3E0FB4D
:10485400123A23C004C005C006C007900D8FE0FCC7
:10486400E4123C5DD003D002D001D00012392E9066
:104874000D96123F7DE4FFFE7D807C3F900D92E01B
:10488400F8A3E0F9A3E0FAA3E0FB123BC94003025A
:10489400495CE4FFFE7D807CBF900D92E0F8A3E0CC
:1048A400F9A3E0FAA3E0FB123BC9600250030249FA
:1048B4005C900D90E0FF900D8EE0D39F504D900DD5
:1048C40090E0FF900D8EE0D39F4003024A46E0FC47
:1048D400FFC007E4123C5D900D92E0F8A3E0F9A359
:1048E400E0FAA3E0FB123A23900D96E0F8A3E0F976
:1048F400A3E0FAA3E0FB123932123C91AD07D007D2
:10490400125ED0900D8EE004F080B3900D8EE0FF27
:10491400900D90E0D39F4003024A46E0FCFFC0079D
:10492400E4123C5D900D92E0F8A3E0F9A3E0FAA351
:10493400E0FB123A23900D96E0F8A3E0F9A3E0FA25
:10494400A3E0FB123932123C91AD07D007125ED0BE
:10495400900D90E004F080B3900D91E0FF900D8FE6
:10496400E0D39F504A900D91E0FF900D8FE0FCD36F
:104974009F4003024A46E4123C5D900D96E0F8A382
:10498400E0F9A3E0FAA3E0FB12392E900D92E0F8CF
:10499400A3E0F9A3E0FAA3E0FB123B2C123C9190B4
:1049A4000D8FE0FD125ED0900D8FE004F080B69084
:1049B4000D8FE0FF900D91E0FCD39F4003024A4627
:1049C400E4123C5D900D96E0F8A3E0F9A3E0FAA3AD
:1049D400E0FB12392E900D92E0F8A3E0F9A3E0FA7F
:1049E400A3E0FB123B2C123C91900D91E0FD125E72
:1049F400D0900D91E004F080B6900D91E0FF900D01
:104A04008FE0D39F501E900D91E0FF900D8FE0FD3D
:104A1400D39F502E900D8EE0FF125ED0900D8FE04C
:104A240004F080E2900D8FE0FF900D91E0FDD39FA4
:104A34005010900D90E0FF125ED0900D91E004F0C4
:024A440080E20E
:014A4600224D
:0B4CB100900D5AEFF0A3EDF0A3EBF024
:104CBC00A3E0FCA3E0FDEC123C587B727A8A798E5F
:104CCC00783C123A23900D63123F7D900D63E0FC0B
:104CDC00A3E0FDA3E0FEA3E0FF125326900D5F12AC
:104CEC003F7DE4FFFEFDFC900D63E0F8A3E0F9A32B
:104CFC00E0FAA3E0FB123BC940547FC37EF57DC8AC
:104D0C007C3F900D63E0F8A3E0F9A3E0FAA3E0FB8D
:104D1C00123BC95039900D5FE0FCA3E0FDA3E0FE0F
:104D2C00A3E0FFA804A905AA06FB123A23E4FBFAA8
:104D3C007980783F123932125A85C004C005C006FA
:104D4C00C007900D5CE0FCE4123C5D024E277FC373
:104D5C007EF57D487C40900D63E0F8A3E0F9A3E07C
:104D6C00FAA3E0FB123BC9503B900D5FE0FCA3E0C3
:104D7C00FDA3E0FEA3E0FFA804A905AA06FB123AD6
:104D8C0023E4FBFA7980783F123932125A85C00439
:104D9C00C005C006C007900D5CE0FCE4123C5D123F
:104DAC003C4280777F527EB87D967C40900D63E0CC
:104DBC00F8A3E0F9A3E0FAA3E0FB123BC9900D5F66
:104DCC00E0FCA3E0FDA3E0FEA3E0FFA804A905AA74
:104DDC0006FB5026123A23E4FBFA7980783F12390D
:104DEC0032125A85C004C005C006C007900D5CE0A5
:104DFC00FCE4123C5D123C428021123A23E4FBFAA3
:104E0C007980783F123932125A85C004C005C00629
:104E1C00C007900D5CE0FCE4123C5DD003D002D0E6
:104E2C0001D000123B2C900D67123F7D900D5FE07E
:104E3C00FCA3E0FDA3E0FEA3E0FF900D67E0F8A368
:104E4C00E0F9A3E0FAA3E0FB123A23900D6B123FBA
:104E5C007D900D5AE0FCFFC007E4123C5D900D679D
:104E6C00E0F8A3E0F9A3E0FAA3E0FB123932123C1C
:104E7C0091AB07C003900D5BE0FCE4123C5D900D20
:104E8C006BE0F8A3E0F9A3E0FAA3E0FB12393212CD
:104E9C003C91900D91EFF0900D5BE0FDD003D007AD
:034EAC000247C5F5
:104EAF00AC07AB05125EB5EC04FFEB04FD125ED050
:104EBF00EC2402FFEB04FD125ED0EC2403FFEB04A5
:104ECF00FD125ED0EC2404FFEB04FD125ED0AF04A4
:104EDF00EB04FD125ED0AF04EB2402FD125ED0AFE7
:104EEF0004EB2403FD125ED0AF04EB2404FD125E2D
:104EFF00D0EC04FFEB04FD125ED0EC04FFEB2402B8
:104F0F00FD125ED0EC04FFEB2403FD125ED0EC0427
:104F1F00FFEB2404FD125ED0741F2CFCFFAD0312B7
:104F2F005ED0EC14FF125ED0EC24FEFF125ED0ECCC
:104F3F0024FDFF125ED0EC24FCFF125ED0EC14FFB8
:104F4F00EB04FD125ED0EC24FEFFEB04FD125ED0ED
:104F5F00EC24FDFFEB04FD125ED0EC24FCFFEB0410
:104F6F00FD125ED0AF04EB04FD125ED0AF04EB2454
:104F7F0002FD125ED0AF04EB2403FD125ED0AF042E
:104F8F00EB2404FD125ED0EC14FFEB04FD125ED097
:104F9F00EC14FFEB2402FD125ED0EC14FFEB2403A4
:104FAF00FD125ED0EC14FFEB2404FD125ED0741FD3
:104FBF002BFBAF04FD125ED0EC14FF125ED0EC247D
:104FCF00FEFF125ED0EC24FDFF125ED0EC24FCFF3E
:104FDF00125ED0EC14FFEB14FD125ED0EC24FEFF3A
:104FEF00125ED0EC24FDFF125ED0EC24FCFF125EAB
:104FFF00D0AF04125ED0AF04EB24FEFD125ED0AF33
:10500F0004EB24FDFD125ED0AF04EB24FCFD125E19
:10501F00D0EC14FFEB14FD125ED0EC14FFEB24FE6A
:10502F00FD125ED0EC14FFEB24FDFD125ED0EC14EC
:10503F00FFEB24FCFD125ED074E12CFCFFAD0312DC
:10504F005EB5EC04FFEB14FD125EBBAF04125ED035
:10505F00AF04EB24FEFD125ED0AF04EB24FDFD1276
:10506F005ED0AF04EB24FCFD125ED0EC04FFEB141A
:10507F00FD125ED0EC04FFEB24FEFD125ED0EC04BB
:10508F00FFEB24FDFD125ED0EC04FFEB24FCFD02D0
:02509F005ED0E1
:1000A600424D45323830204552524F5200484D435A
:1000B600353838334C204552524F52004C534D364A
:1000C60044534D204552524F520052444135383028
:1000D600374D204552524F520000422418FF7E24CD
:1000E6000020306EA1A16E3020F8ECEAE9F898986D
:1000F600F8000C0CFFFFCCCC00FF8181818181814F
:100106008181818181818181818181818181FF3CA0
:100116003C4D6F6E2E2000547565732E0057656436
:100126002E2000546875722E004672692E200053E8
:1001360061742E200053756E2E2000000000000012
:1001460000000000000000000080C0C0C080000069
:10015600000000003E7F3FFFFFFFFFFFFFFFFF3F66
:100166007F3E00000000000080C0C08080000000CC
:100176000000000000000000000000000000000079
:100186000000000000000E3F7F3F3F1F1F0F8E84C0
:10019600C0C0E0E0E0E0F0F3F3F3F3F3F3F3F3F0E1
:1001A600E0E0E0E0C0C0848F0F1F1F3F7F7F1F0E7F
:1001B6000000000000000000000000000000000039
:1001C600000000000080C0E0F0F8FCFE7F3F1F0F3B
:1001D6000F07078383C3C1C1E1E1E1E1E1E1C1C1E9
:1001E600C3838307070F0F1F3F7FFEFCF8F0E0C0B5
:1001F6008000000000000000000000000000000079
:100206000000E0F8FEFFFF3F0F030100C0F0F8FC1E
:10021600FEFFFFFFFFFFFFFFFFFFFFFFFFFFFF7F69
:100226007F3F3F3FFFFEFCF8F0C00001030F3FFF9A
:10023600FFFEF8E0000000000000000000000000E3
:1002460000FEFFFFFFFF01000000F8FFFFFFFFFFBA
:10025600FFFFFFFFFFFFFFFF87070301010000C04D
:10026600E0F8FCFFFFFFFFFFFFFFFFF800000001C3
:10027600FFFFFFFFFE00000000000000000000007E
:1002860000077FFFFFFFF8C00000010F3FFFFFFFE1
:10029600FFFFFFFFFFFFFFFFFFFFFEFEFEFEFFFF6C
:1002A600FFFFFFFFFFFFFFFFFF3F0F010000C0F84A
:1002B600FFFFFF7F070000000000000000000000B5
:1002C60000000001071F3F7FFFFCF8F0E0C081033C
:1002D600070F0F1F1F3F3F3F7F7F7F7F7F7F3F3F80
:1002E6003F1F1F0F0F070381C0E0F0F8FCFF7F3FA1
:1002F6001F070100000000000000000000000000D1
:100306000000000000000000000103070F0F1F1F80
:100316003F3E7E7C7C7CF8F8F8F8F8F8F8F8F8F8B8
:100326007C7C7C7E3E3F1F1F0F0F070301000000F1
:1003360000000000000000000000000000000000B7
:10034600000000000000000080C0C0E0E0F0F0F80F
:10035600F8FCFCFCFCFEFEFE7E3E3E1E1E3E3E7E85
:10036600FEFCFCFCFCF8F8F0F0E0E0C0C080000009
:100376000000000000000000000000000000000077
:1003860000C0E0F0F8FCFEFFFFFFFFFFFFFFFFFFEE
:10039600FFFFFFFFFFFFFFFFE0C08080808080C07F
:1003A600F0FFFFFFFFFFFFFFFFFFFFFFFFFFFFFE67
:1003B600FCF8F0E0C0000000000000000080F0FC47
:1003C600FFFFFFFFFFFFFFFFFFFFFFFFFFFFFFFF37
:1003D6007F3F1F1F0F070707030301010101030FDB
:1003E600FFFFFFFFFFFFFFFFFFFFFFFFFFFFFFFF17
:1003F600FFFFFFFFFFFFFCF080000000F8FFFFFF9C
:10040600FFFFFFFFFFFFFFFFFFFFFFFFFFFF0F00E5
:100416000000000000F8FC000000000000C0808022
:10042600000303030303018181C3FFFFFFFFFFFFF7
:10043600FFFFFFFFFFFFFFFFFFF800001FFFFFFFAB
:10044600FFFFFFFFFFFFFFFFFFFFFFFFFFFFFFFCB9
:10045600FCFCFCFCFFFF7F00000000000000030F17
:100466003F7FFFFFFFFFFFFFFFFFFFFFFFFFFFFFD6
:10047600FFFFFFFFFFFFFFFFFF1F000000010F3F11
:10048600FFFFFFFFFFFFFFFFFFFFFFFFFFFFFFFF76
:10049600FFFF7F3F0F0300000000C0F0F8E0800080
:1004A600000001071F7FFFFFFFFFFFFFFFFFFFFFAA
:1004B600FFFFFFFFFFFF3F0F0100000000000000ED
:1004C6000003070F1F3F7FFFFFFFFFFF8783030127
:1004D6008180C0C0E0E0F0F8FEFFFFFFFFFFFFFEF7
:1004E600E0000000000007FFFFFFFFFFFFFFFF7FA8
:1004F6003F1F0F070300000000000000000000007F
:10050600000000000000000001030307070F0F1F93
:100516001F1F3F3F3F3F7F7F7F7F7F7F7F7F7F7FA5
:100526003F3F3E3E1E1E1F0F0F070703030100003D
:1005360000000000000000000000000000000000B5
:1005460000000000000000000000000000000000A5
:100556000000000000E0F8FC1C0E0E0E0E1C7CF8DD
:10056600F000000000000000000000000000000095
:100576000000000000000000000000000000000075
:100586000000000000000000000000000000000065
:100596000000000000FFFFFF0000FEFE000000FF5D
:1005A600FF000084CECECECE00000000000000008A
:1005B6000000000000000000000000000000000035
:1005C6000000000000000000000000000000000025
:1005D6000000000000FFFFFF0000FFFF000000FF1B
:1005E600FF00001019191918000000000000000093
:1005F60000000000000000000000000000000000F5
:1006060000000000000000000000000000000000E4
:100616000000000000FFFFFF0000FFFF000000FFDA
:10062600FF000000000000000000000000000000C5
:1006360000000000000000000000000000000000B4
:1006460000000000000000000000000000000000A4
:1006560080C0E0F0783F1F1F8080FFFF0000001F72
:100666003F3870E0C080000000000000000000007D
:100676000000000000000000000000000000000074
:10068600000000000000000000000000000000FE66
:10069600FF070140FCFEFFFFFFFFFFFFFEFCFCF033
:1006A60080C0800107FFFEF000000000000000008F
:1006B6000000000000000000000000000000E0E074
:1006C600E060607030381C1C0E0E06060606040735
:1006D6001F3E78E0C3CF8F9F3F3F3F3F3F3F9F9FE7
:1006E600CFC7E1783E1F0F0606060606060E0C1C4F
:1006F6001838707060E0E0E0400000000000006024
:10070600606060703038181C0E0E06070707070772
:1007160006060E1C1D393373736767676763737349
:1007260033391C0C0E06060707070707060E0E1CB4
:100736001838307060606060000000000000000043
:1007460000000000000000000000000080E0F8FC4F
:10075600FEFF3F0E00000000000000000000000049
:100766000000000000000000000000000000000083
:100776000000000000000000000000000000000073
:100786000000000000000000C0F0F8FEFF7F1F0719
:100796000300000000000000000000000000000050
:1007A6000000000000000000000000000000000043
:1007B600000000000000000000000000000000C073
:1007C600F0F0F0F8F8F8F8F9F9F9F9F9F9F8F8F8B5
:1007D600F8F8F8F8F8F8F8F8F8F8F8F8F8F8F8F893
:1007E600F8F8F8F8F8F8F8F8F8F8F8F8F8F8F8F883
:1007F600F8F8F8F0F0E0800000000000000000FFCC
:10080600FFFFC381000000000000000000000000A0
:100816000000000000000000000080C1FFFFFFFF95
:10082600FFFF3F3F1F0F0F0F070707070F0F1F1F82
:100836003F7FFFFFFFFFFF0000000000000000FFFA
:10084600FFFFFFFFFFFFFFFFFFFFFFFFFFFFFFFFB2
:10085600FFFFFFFFFFFFFFFFFFFFFFFFFFFFFFFFA2
:10086600030000000000000000000000000000007F
:10087600000001FFFFFFFF0000000000000000FF76
:10088600FFFFFFFFFFFFFFFFFFFFFFFFFFFFFFFF72
:10089600FFFFFFFFFFFFFFFFFFFFFFFFFFFFFFFF62
:1008A600FFFCF8F0E0C0C0C0808080C0C0C0E0E0BF
:1008B600F0F8FEFFFFFFFF00000000000000000050
:1008C60007070F0F0F0F0F0F0F0F0F0F0F0F0F0F42
:1008D6000F0F0F0F0F0F0F0F0F0F0F0F0F0F0F0F22
:1008E6000F0F0F0F0F0F0F0F0F0F0F0F0F0F0F0F12
:1008F6000F0F0F07070300000000000000000000B4
:1009060000000000000000000000000000000000E1
:1009160000000000000000000000000000000000D1
:1009260000000000000000000000000000000000C1
:1009360000000000000000000000000000000000B1
:100946000000000000000080C0C0E0707038381C55
:100956009C9C8ECECECEC6C7C7E7E7E7E7C7C7C61D
:10096600CECECE8E9C1C1C383870F0E0C0C0800005
:100976000000000000000000000000000000000071
:1009860080E0F0783C1E87C7E3F1F8FCFCFEFFFF31
:10099600FFFFFFFFFFFFFFFFFFFF0000FFFFFFFF5F
:1009A600FFFFFFFFFFFFFFFFFEFCFCF8F1E3C78F31
:1009B6001E3C78F0E08000000000000000F0FC7FA4
:1009C6000F03C1F8FCFFFFFFFFFFFFFFFFFFFFFF65
:1009D600FFFFFFFFFFFFFFFFFFFFFCFC7F3F3F1F07
:1009E6001F0F0F0707030381E1F8FEFFFFFFFFFF5D
:1009F600FFFCF0C1071FFEFCE00000E0FFFF070060
:100A0600E0FEFF7F7F7F7F7F7F7F7F7F7FFFFFFF10
:100A1600FFFFFFFF3F1F07C7E3C180000000000084
:100A2600000000C0E0F8FEFFFF7F7F7F7F7F7F7FB3
:100A36007F7F7FFFFE00000FFFFF0007FFFFF00034
:100A4600037FFFFEFEFEFEFEFEFEFEFEFEFFFF3FF6
:100A56001F07C1F0F8FEFF7F7F3F1F9F8EC4E0F0A7
:100A6600F8FCFFFFFFFFFFFFFFFEFEFEFEFEFEFEA1
:100A7600FEFEFEFF7F0000F0FFFF000000073FFEC6
:100A8600F0C0830F3FFFFFFFFFFFFF3F0F8380C0D4
:100A9600C4E7E3F3F1F8FCFCFEFE3F3FFFFFFFFF78
:100AA600FFFFFFFFFFFFFFFFFFFFFFFFFFFFFFFF50
:100AB6007F3F0F83E0F87F1F070000000000000063
:100AC60001070F1E3C78F1E3C78F1F3F3F7F7FFF73
:100AD600FFFFFFFFFFFFFFFFFFFF0000FFFFFFFF1E
:100AE600FFFFFFFFFFFFFF7F7F3F3F1F8FC7E3F142
:100AF600783C1E0F0301000000000000000000000B
:100B060000000000000000010303070F0E1C1C1864
:100B1600383971737373636367E3E3E3E3636363B2
:100B26007373737139381C1C1C0E0707030301000D
:100B360000000000000000000000000000000000AF
:100B46000000000000000080C0E0E0F0F0F8F8FCD3
:100B5600FCFCFEFEFEFEFFFFFFFFFFFFFFFFFFFFA9
:100B6600FEFEFEFEFCFCFCF8F8F0F0E0E0C08000C3
:100B7600000000000000000000000000000000006F
:100B860080E0F0F8FCFEFFFFFFFFFFFFFFFFFF7FA7
:100B96007FFFFFFFFFFFFFFFFF000000008103074D
:100BA6000F1F3F7FFFFFFFFFFFFFFFFFFFFFFFFF5F
:100BB600FEFCF8F0E08000000000000080F0FCFF82
:100BC600FFFFFFFFFFFFFFFFFFFFFFFFFFFFFCF041
:100BD600E0C001070F1F7FFFFF00000000FFFFFEC0
:100BE600FC783000000183C7FFFFFFFFFFFFFFFF18
:100BF600FFFFFFFFFFFFFFFCF08000E0FFFFFFFFAE
:100C0600FFFFFFFFFFFFFFFFFFFFFFFFFFFFFFFFEE
:100C1600FFFFFFFEFCF0E0C003000000000783C1F9
:100C2600E0F0F8FCFEFFFFFFFFFFFFFFFFFFFFFF07
:100C3600FFFFFFFFFFFFFFFFFFFFE007FFFFFFFFD5
:100C4600FFFFFFFFFFFFFFFFFFFFFFFFFFFFFFFFAE
:100C5600FFFFFF7F3F0F0701C000000000E0C183D8
:100C6600070F1F3F7FFFFFFFFFFFFFFFFFFFFFFF96
:100C7600FFFFFFFFFFFFFFFFFFFF070000073FFF2C
:100C8600FFFFFFFFFFFFFFFFFFFFFFFFFFFF3F0F1E
:100C96000703C0E0F0FCFEFFFF00000000FFFF7F3F
:100CA6003F1E0C0080C0E1F3FFFFFFFFFFFFFFFFC9
:100CB600FFFFFFFFFFFFFF3F0700000000000000EF
:100CC60001070F1F3F7FFFFFFFFFFFFFFFFFFFFE35
:100CD600FEFFFFFFFFFFFFFFFF80000080C1E0F087
:100CE600F8FCFEFFFFFFFFFFFFFFFFFFFFFFFFFF19
:100CF6007F3F1F0F070100000000000000000000FA
:100D060000000000000000010303070F0F1F1F3F34
:100D16003F3F7F7F7F7F7FFFFFFFFFFFFFFFFF7F5D
:100D26007F7F7F7F3F3F3F1F1F0F0F07030301009A
:100D360000000000000000000000000000000000AD
:100D46000000000000000000008080C0C0E0E0F06D
:100D5600F0F8F8F8F8FC7C7C7C7C7C7C7C7C7C7CE9
:100D6600FCF8F8F8F0F0F0E0E0C0C0800000000009
:100D760080C0E0E0C00000000000000000000000AD
:100D86000000C0E0F0F8FCFE7F3F9FCFC7C7C3C39B
:100D9600C181808000008080C0C0E0E0E0F0F0F01B
:100DA600F07070F1F1F1F3E7E7CFDF9F3FFEFEFF52
:100DB600FFEFC78303000000000000000000C0F042
:100DC600FCFFFF7F1F070100003FFFFFFFC3030378
:100DD60073FF7F3F1F1F3F3F7FFBF1E1E1C08000B4
:100DE600000000000000000103071FFFFFFCE103F5
:100DF6000F3FFFFFFEF8E0000000000000FCFFFFD1
:100E0600FFFF07000000000080E0C1870F3F7FFC66
:100E1600F8E0C0801E3EFEFEFC383971E3C78F1F26
:100E26003EFCF8F0E0C000000080F0FFFF7F0F00FE
:100E36000000017FFFFFFFFFE0000000003FFFFF13
:100E4600FFFFE000000000FCFFFF3F030000000082
:100E560003070F1F3E7CF8F1E3C7CE8C1C3F3F7E95
:100E66007C30010387DFFFFEFEFFDF0F030000007B
:100E7600000080FFFFFFFFFF030000000000010FDE
:100E86003FFFFFFFF8F0C08F3FFFFFF0E0C080801C
:100E960000000000000000818387878F1F3E3C7C96
:100EA60078F0F0E3E3E7C3C1C7FFFFFF380080E057
:100EB600F0FCFFFF7F1F070000000000000000009D
:100EC60080C0E1F3FFFF7F3F7EFCFDFBF3E7E7C752
:100ED600CF8F8F8F0F0F070707070303030100004C
:100EE6000000808181C1C3E3F3F1F9FCFE7F3F1F5F
:100EF6000F070300000000000000000000000000D3
:100F060001030303030000000000010103030707B8
:100F16000F0F0F1F1F1F1F1F3F3F3E3F3F1F1F1F6C
:100F26001F1F1F0F0F0F070703030100000000001C
:100F360000000000000000000000000000000000AB
:100F4600000000000000000000000000000000009B
:100F5600000000000000000000000000000000800B
:100F6600C0E0E0E0C08000003E7F7F3E0000000061
:100F760080C0C0E0E0C000000000000000000000EB
:100F8600000000000000000000000000000000005B
:100F96000000000000000000000000E0E0C0870F35
:100FA6001F3F7FFFFFFFFFFEFCF8F0E0C08000065A
:100FB6000F0F07070380808080800000000000007C
:100FC600000000000000000000000000000000001B
:100FD60000000000000000000060FFFFFFFFFFFFB1
:100FE600FEFCF8F0E1C3870F1F3F7FFFFFFFFFFE08
:100FF600FCF8F0E0C38707070707030000000000BE
:1010060000000000000000000000000080C0E0F0CA
:10101600F8F8F0E0F0F8FCFCF8F0E0C3870F1F3FAB
:101026007FFFFFFFFFFFFFFFFEFCF8F0E1C3070FA6
:101036001F1F1F0F07030000000000000000000034
:1010460000000000000000000080CEFFFFFFFFFF51
:10105600FFFFFFFFFFFFFFFFFFFFFFFFFFFF7E3CDE
:101066001800000103030101010101000000000056
:10107600000000000000000000000000000000006A
:101086000080C0E0F0F8FCFEFFFFFFFFFFFFFFFF60
:10109600FFFFFFFFFFFF7F3F1F0F07030100000059
:1010A600000000000000000000000000000000003A
:1010B6000000000000000000000000E0F0F8FCFE68
:1010C600FFFFFFFFFFFFFFFFFFFFFFFFFFFF7F3F6A
:1010D6001F0F0703010000000000000000000000D1
:1010E60000000000000000000000000000000000FA
:1010F6000000000000000000000000000103070FD0
:101106001F3F7FFFFFFF7F3F1F0F07030100000008
:1011160000000000000000000000000000000000C9
:1011260000000000000000000000000000000000B9
:101136000000000000000000000000000000C0C029
:10114600C0707070707070707000F0F0F080808009
:10115600000000F0F0F00080F0F07070707070F039
:10116600F08000F0F0F000000080F0F07000808069
:10117600F0707070707070700000000000003F3FEB
:101186003FE0E0E0E0E0C0C0C000FFFFFF071F1F38
:10119600FCF0F0FFFFFF00FFFFFFE0E0E0E0E0FF14
:1011A600FFFF00FFFFFFF0FCFC9F03030000FFFFB3
:1011B600FFE0E0E0E0E0E000000000000000E0E02A
:1011C600E0E0E0E0E0E07F7F7F00FFFFFF0000005F
:1011D600000000FFFFFF00FFFFFF0000000000FF10
:1011E600FFFF00FFFFFF0003031FFCFCE0001F1FC3
:1011F600FFE0E0E0E0E0E0E00000000000000000CA
:1012060000000000000000000000000000000000D8
:1012160000000000000000000000000000000000C8
:1012260000000000000000000000000000000000B8
:1012360000000000000000000000000000000000A8
:101246000000000000000000000000000000000098
:101256000000000000000000000000000000000088
:10126600000000C0C0C0C0C0C0C0C0C0C0000000F8
:1012760000F8F8F838383838F8F8F80000000000B8
:10128600000000000000000000000000003C3C3CA4
:101296003C0000003C3C3C3C3C3C3CFCFCFCFC0078
:1012A600000000FFFFFF03030303FFFFFF00000032
:1012B60000FFFFFF00000000FFFFFF00000000002E
:1012C6000000000000000000000000000000000018
:1012D60000000000000000000000001F1F1F1F1E6E
:1012E6001E1E1E1F1F1F00000000FFFFFFE0E0E0A4
:1012F600E0FFFFFF00000000FFFFFF00000000000E
:1013060000000000000000000000000000000000D7
:1013160000000000000000000000000000000000C7
:1013260000000000000000000000010101010101B1
:1013360001010101000000001F1F1F000000000046
:101346000000000000008080808000000000000097
:1013560000000000C0F8FEFE3F0F0F0F0F1FFFFE3C
:10136600FCE000000000000000000080808080801B
:101376000000000000000000000000000000000067
:101386000000F8FCFEFF9F0F07070F1F1E3E7C782C
:10139600783C3C1E1F1F0F03000000000000030FD7
:1013A6001F1F1E3C3C78787C3E1E1F0F07070F9FB1
:1013B600FFFEFCF800000000000000000000000036
:1013C600000000030FDFFFFEF83000000000000001
:1013D60000000080C0E0E0E0F0F0F0F0F0F0E0E0C7
:1013E600E0C08000000000000000000030FCFEFFAE
:1013F600DF07030000000000000000E0F8F8FC3CF6
:101406003C1E1E1E1F1F0F0700000000000000E00C
:10141600FCFEFF1F070301010000000000000101A0
:1014260003071FFFFEFCF000000000000000070F8E
:101436001F1F1E1E1E3C3CFCF8F8F00F1F3F3F3CD2
:101446003C787878F8F0F0E0000000000000000733
:101456003F7FFFF8E0C08080000000000000808031
:10146600C0E0F8FF7F3F0F00000000000000E0F042
:10147600F0F8787878783C3F3F1F0F0000000000B6
:10148600000000C0F0FFFF7F1F0C000000000000FE
:1014960000000001030707070F0F0F0F0F0F0707C5
:1014A6000703010100000000000000000C3F7FFF61
:1014B600FFE0C00000000000000000000000000087
:1014C60000001F3F7FFFF9F0E0E0F0F8787C3E1E59
:1014D6001E3C3C78F8F8F0C0000000000000C0F0A8
:1014E600F8F8783C3C1E3E3C7C78F8F0E0E0F0F9F9
:1014F600FF7F3F1F0000000000000000000000000A
:1015060000000000000001010101010000000000D0
:1015160000000000031F7F7FFCF0F0F0F0F8FF7F73
:101526003F0700000000000000000001010101016A
:10153600000000000000000000000000000080E045
:1015460060000000000000000000FEFE0206060625
:101556000E0C1C183060C080000000000000000067
:101566000000000000000000003C7C7E7E7C18002D
:101576000000000000000000000000000000000065
:101586000000000000000000FEFEF3F30EFE00B0B7
:10159600B0B00000000000000000000000000000E5
:1015A6000080E0F8FE3F0F0300000000000000008E
:1015B600000000000000000000000080FC1F030186
:1015C60000000000020E3C78F8F0E0E0C0000000E9
:1015D60000000000000001073FF8000000000000C6
:1015E60000000000F0FCFC1E0EFFFFFFFFFFE0C046
:1015F600C0E0F070000000000000000000000000E5
:101606000000000000000000FFFFFFFF00FF0007D2
:1016160007060000000000000000000000FCFC9E21
:101626000E0F0F0F0E0E0E0E0E0E8EFEFEFEFE7E21
:101636003E3E3E3E7E7EFEFCFC0000013FFCE0801E
:101646000000000000000000010303030300000087
:1016560000000000000080E07E1F00000000000087
:101666000000000003030380F0FFFF3F7FFEF8E069
:1016760080000000000000000000000000000000E4
:101686000000000000F83CEEF7FFFFFFE0C78E3CCD
:10169600F8C00000000000000000000000FFFFFF8F
:1016A600FFFFFFFFFFFFFFFFFFFFFFFFFFFFE0C0A2
:1016B60080808080C0C0F1FFFF00000000000103B1
:1016C600070C1C18303060606060606060606060AD
:1016D6003030181C0E070301000000000000000057
:1016E6000000001E3E3F1F07030301000000033FEA
:1016F6003F3F300000000000000000000CCCCCCCC6
:101706006677333333373F7D7BDFF7F7DFDF7F3FA6
:101716003733333333666ECCCCCC00000001030381
:101726000303030303030303030303030303030383
:10173600030303030303030301000000000000008A
:101746000000000000000000000000000000008013
:10175600C040603010D87800000000000000000093
:10176600000040E0E0C0000000FEFF0E1C3870E004
:10177600C080000000000000000000000000000023
:101786000080C0C0602030101098F87830F03EF627
:10179600E060C08080000000000000000000000043
:1017A6000000000000000000000000C090387CFC33
:1017B600F8F0EFC0802010080000000000000000D4
:1017C6000000000000C0E0F0D88C0406020301010E
:1017D60080E0380C07010000000000000000000057
:1017E6000000000003070F3E7CFFFFE0F0781C1EA0
:1017F6000707030000000000000000000000F0FCE6
:101806008F0F05040404E43C0F0D0CF83F1910F08B
:10181600FF2060C1C38EFCE0000000000000000055
:1018260000000080C0E0E0C0E0C08F3F7FFFFEFC0C
:10183600F9F3E7CF9F3F7E3D19010100000000004C
:1018460000C0F0FCFFFFFFFFFF7F7F7E3C180C0609
:10185600030000000000000000000000000000007F
:1018660000000080C0F0783E1FFFFF03070E1CB883
:10187600F0E04000000000000000000000000F7CC7
:10188600E183020604FF0F1898F81F31B0E03C2FE1
:1018960020202030B0F33F0F00000000000080C081
:1018A600E0F0FBFFFFFFFFFFFF7F3F1F0E0400017D
:1018B6000101010000000000000000000000180EF9
:1018C6000F0F0707030301000000000000000000DF
:1018D6000000000000000000000000000000000002
:1018E6000000070301000000003F7F381C0E0703BD
:1018F60001000000000000000000000000000000E1
:10190600000103060C0F0EF81F191C1613181808F1
:101916000C040603010000000000001C3E7FFFFFD0
:10192600FF7F3F1F0F0703010000000000000000BB
:101936000000000000000000000000312E53657416
:101946002074696D65000000000000322E53657436
:1019560020616C61726D0000000000332E427269D6
:101966006768746E65737300000000342E536372EB
:1019760065656E2074696D65000000352E536C65D3
:1019860065702074696D6500000000362E496E761C
:101996006572736500000000000000372E4469720E
:1019A600656374696F6E0000000000382E42757A18
:1019B6007A65720000000000000000392E536F6641
:1019C600742072657365740000000031302E506F0C
:1019D60077657220646F776E000000C030088464FB
:1019E600221212122264840830C000071820434CC9
:1019F60088909090884C4320180700446973616270
:101A06006C650000000000000000004F6E6365007A
:101A160000000000000000000000004576657279B5
:101A260064617900000000000000005765656B6482
:101A360061790000000000000000005370656369D2
:101A46006669632044617900000000000038444460
:101A560038E0180804040408100000000000000024
:101A6600000F3060404040201000001060028C00E3
:101A760000FE9292929292FE0000000000FC242446
:101A860024FC252624FC2424240400000000000055
:101A9600000000000000000000000004047E014079
:101AA6007E42427E427E42427E400040308F8084AB
:101AB6004C55252525554C80808000000036360083
:101AC60000000000000000000000001060028C0012
:101AD600FE929292929292FE0000000000FC242454
:101AE60024FC252624FC24242404000000000000F5
:101AF600000000000000000000000004047E014415
:101B060048507F40407F504844400040308F80849A
:101B16004C55252525554C80808000000036360022
:101B2600000000000000000000000020104C475498
:101B3600545454545454D4040400000000FE028249
:101B4600828282FA82828282820200000000000083
:101B5600000000000000000000000000000000007F
:101B66000000000000000F3040F00080601F404081
:101B76004040407F40404458404000000036360018
:101B860000000000000000000000001060020CC011
:101B96001008F714549414F4040000101010FF9069
:101BA600401010F09F9091969010000000000000E9
:101BB600000000000000000000000004047C030098
:101BC600011D13115599513F1101000242817F00F9
:101BD60040308F80432C102C4380000000363600A6
:101BE60000000000000000000000000000000000EF
:101BF6000000000020202020FE000000FE80402083
:101C060010000000000000000000000000000000BE
:101C160000000000101008047F0000003F40404014
:101C26007000000000000000000000000008C8A8C6
:101C3600988EE888888888080000000020202020E8
:101C4600FE000000FE8040201000000020100C0066
:101C560040407F0000040830000000001010080417
:101C66007F0000003F404040700000000000000080
:101C7600000000000008C8A8988EE88888888808B0
:101C8600000000000000000000000000000000004E
:101C96000000000020100C0040407F0000040830C7
:101CA6000000000000000000000000000008C8A8B6
:101CB600988EE888888888080000000008E82828A8
:101CC60068A83EA8682828E80800000020100C0034
:101CD60040407F000004083000000000007F04053B
:101CE60005053F050545447F000000000000000093
:101CF6000000000008E8282868A83EA8682828E808
:101D060008000000000000000000000000000000C5
:101D160000000000007F040505053F050545447FDA
:101D260000000000000000000000000004E424247D
:101D3600FC242424FC2424E40400000008E82828C9
:101D460068A83EA8682828E808000000007F282424
:101D5600232020202324247F00000000007F040588
:101D660005053F050545447F000000000000000012
:101D76000000000004E42424FC242424FC2424E49D
:101D86000400000000000000000000000000000049
:101D960000000000007F2824232020202324247F05
:101DA60000000000000000000000000004E42424FD
:101DB600FC242424FC2424E4040000002020202009
:101DC600FE000000FE80402010000000007F282456
:101DD600232020202324247F000000001010080464
:101DE6007F0000003F4040407000000000000000FF
:101DF60000000000000000000000000000008080DD
:101E0600C040606020000000FF0C1860C0FF0000AA
:101E16000020606040C0C08080000000000000001C
:101E260000000000000000000000000000000000AC
:101E36000000000080C06030180C06060301010097
:101E46000000000000000000030000000001000088
:101E56000000000000000001010306060C183060B7
:101E6600C08000000000000000000000000000002C
:101E760080E0380E030100000000000000000000B2
:101E8600000000000000000000000000000000004C
:101E9600000000000000000000000000000000003C
:101EA60000030E3CF08000000000000018F00080E7
:101EB600FBF100C0F8000000000000000000000078
:101EC600000000000000000000000000000000000C
:101ED60000000000000000000000000000000000FC
:101EE600000000F8998B88080800000000010F0F19
:101EF600C0810F0F0000000000000000000000007D
:101F060000000000000000000000000000000000CB
:101F160000000000000000000000000000000000BB
:101F26000000001F98D818181800000000000000D4
:101F3600010F3C70C080000000000000000000009F
:101F4600000000000000000000000000000000008B
:101F5600000000000000000000000000000000007B
:101F660000C0F03C0F03000000000000000000006D
:101F7600000000000103060C18306060C08080007D
:101F86000000000000000080C0404040408000008B
:101F9600000000000000008080C0C06030180C0601
:101FA6000301000000000000000000000000000027
:101FB6000000000000000000000000000001010316
:101FC6000302060604000000234246446C38000063
:101FD60000040606060303010100000000000000DD
:0B1FE6000000000000000000000000F0
:102C9600410C19FDC105C10EC10BC103C104C10818
:102CA600C100C18FC102C10CC10D420C1A00004205
:102CB6000C150000420C100000C186C109C101C1FB
:102CC60007C10A410C1400410C1200420C17000007
:0A2CD600420C080000420C0A000046
:1062D500E4FD20CC010D20A304ED4402FD20CD04F6
:1062E500ED4404FD900C12E06D5D900C14F0900CE3
:0362F50012EDF0B7
:0162F8002283
:03009B000256C04A
:0D56C000C0E0C0F0C083C082C0D075D0082B
:1056CD0053EFFD20CC1220A30F20CD0C30CCFD309C
:1056DD00A3FA30CDF712000E900C08E0FEA3E0FF08
:1056ED007C007D32123DD9ED4C704F1262D5900C7D
:1056FD0014E0601C12647ED200200206200C0330E0
:10570D00010E900C14E4F0300106C201FF120003EB
:10571D00900C12E0FF601C900C0AE475F001123E33
:10572D002EFCD3E5F0940AEC9400400E900C14EF8F
:10573D00F08007900C0AE4F0A3F0D203900C08E07F
:10574D00FEA3E0FF54077002D2047C007D14123DCD
:10575D00D9ED4C7002D208900C08E475F001123EA0
:10576D002EFEE5F064E87003EE6403705A900C08A9
:10577D00F0A3F0300F26900C1CE0FF7E00900C1A69
:10578D00E475F001123E2EFCE5F0B50F0FEEB50CF1
:10579D000BC20F900C1AE4F0A3F0D2023002289045
:1057AD000C1DE0FF7E00900C15E475F001123E2EED
:1057BD00FCE5F0B50F11EEB50C0DC202900C15E421
:0757CD00F0A3F0D20CD20E94
:0B57D400D0D0D082D083D0F0D0E032E3
:03000B000263B7D6
:1063B700C0E0C083C082900C18E004F07006900C17
:0B63C70017E004F0D082D083D0E03259
:03001300025FB0D9
:105FB000C0E0C0F0C083C082C0D075D008D200C29B
:105FC0000112647E200206200C03300107900C149D
:105FD000E4F08006900C147408F0300F16900C1941
:105FE000E0B4FD0FC200C20FA3E4F0A3F0FF1265FE
:0E5FF000CBD202D0D0D082D083D0F0D0E0321D
:0300530002633D08
:10633D00C0E0C083C082D200200203300C07900C55
:10634D0014E4F08006900C147409F0D082D083D040
:02635D00E0322C
:03005B000265F744
:0365F700D200329D
:1057DF00E4900DF1F0A37402F0A374BCF0E4A3F015
:1057EF00120000EF4E7034900DF1E0FD900DAA7491
:1057FF0001F0A37400F0A37408F0A37410F0E4A3F5
:10580F00F0A304F07BFF7A0079A6E4FF12448590A1
:10581F000DF1E02FF0900DF4E004F0120000EF4EC8
:10582F007034900DF1E0FD900DAA7401F0A3740097
:10583F00F0A37408F0A37410F0E4A3F0A304F07BBA
:10584F00FF7A0079B3E4FF124485900DF1E02FF059
:10585F00900DF4E004F0120000EF4E7034900DF153
:10586F00E0FD900DAA7401F0A37400F0A37408F08A
:10587F00A37410F0E4A3F0A304F07BFF7A0079C2C5
:10588F00E4FF124485900DF1E02FF0900DF4E00449
:10589F00F0120000EF4E7034900DF1E0FD900DAA64
:1058AF007401F0A37400F0A37408F0A37410F0E473
:1058BF00A3F0A304F07BFF7A0079D0E4FF124485B4
:1058CF00900DF1E02FF0900DF4E004F0900DF4E066
:1058DF00601B900C14E070157F01FE1263EC900DAD
:0D58EF00F274FFF5F0123E2E45F070E62237
:0158FC002289
:1064060012615A7B017A0C791C125F5E7B017A005D
:0A641600790812001C12009E80FBA2
:10392B00023CFDE86480F8E933E83360110460F091
:10393B00ED33EC337009E8FCE9FDEAFEEBFF220402
:10394B0060DED3EB9FEA9EE99DE8C2E78CF0C2F7FD
:10395B0095F0400CE8CCF8E9CDF9EACEFAEBCFFBC9
:10396B00123CC885D0F05804700320D5B3E804701E
:10397B00075002B2D5023D0792D5EC0460F7E4CCB8
:10398B00C0E0C398F8603B94186008400DD0E0FB92
:10399B00023CDFE4FBFAC9FC8028E830E406E4C90A
:1039AB00FBE4CAFCE830E305E4C9CACBFCE85407E6
:1039BB006010F8C3E913F9EA13FAEB13FBEC13FCF1
:1039CB00D8F130F52FC3E49CFCEF9BFFEE9AFEED94
:1039DB0099FDD0E0FBEF4E4D4C701222DB03023D04
:1039EB0004EC2CFCEF33FFEE33FEED33FDED30E753
:1039FB00EB023CDFEF2BFFEE3AFEED39FDD0E0FBA7
:103A0B0050130BBB0003023D07ED13FDEE13FEEF4E
:083A1B0013FFEC13FC023CDF79
:103A2300EC4D6011E8497017ED33EC3304600DE49D
:103A3300FCFFFEFD22E933E8330470F8023CFD127B
:103A43003CC858046009E4CC24815006285009027C
:103A53003D07284003023D04C0E0EB4A7044B980AF
:103A630006D0E0FB023CF3EF4E701CBD8008EBFF79
:103A7300EAFEE9FD80EBE98DF0A4FEE5F0023B0CE4
:103A8300E9CDF9EAFEEBFFEF89F0A4FCE5F0CE897E
:103A9300F0A42EFFE435F0CD89F0A42DFEE435F03B
:103AA3008067EF4E7005BD80D780C3EF8BF0A4AC69
:103AB300F0EE8BF0A42CFCE435F0F8EF8AF0A42CA4
:103AC300E5F038FCE433CB8DF0A42CFCE5F03BF8B7
:103AD300EE8AF0A42CFCE5F038F8E433CF89F0A4A7
:103AE3002CFCE5F038CF3400CE89F0A42FFFE5F0AD
:103AF3003EFEE433C98DF0A42EFEE5F039CD8AF005
:103B0300A42FFFE5F03EFEE43DFD33D0E0FB50077C
:103B13000BBB000F023D07EC2CFCEF33FFEE33FE33
:063B2300ED33FD023CDF62
:103B2900023D07EC5D046005E859047003023CFDA1
:103B3900123CC8580460F6EC4860F2EC7004FDFED3
:103B4900FF22C860DB2481C85009C398600250066F
:103B5900023D049850CAF582E9294B4A7005AB82A7
:103B6900023CF375F0007C1A7880C3EF9BEE9AED66
:103B790099400DC3EF9BFFEE9AFEED99FDE842F0E7
:103B8900DC23ACF0D0E0FFD0E0FED0E0FDAB82203A
:103B9900E7101BEB60BAEC2CFCEF33FFEE33FEEDC4
:103BA90033FD023CDFE803F830E705C0F075F000AB
:103BB900EF2FFFEE33FEED33FD40B830E7C280AAA8
:103BC90074F8CC6480CCC86480C8F58204604FC3A3
:103BD900EB9FF5F0EA9E42F0E99D42F0E89C45F042
:103BE900603C501DE5825FFFE582D313CB5BCBF4CC
:103BF9002B5582FB50280ABA002409B900200880F5
:103C09001DE5825BFBE582D313CF5FCFF4C3132F8E
:103C19005582FF50090EBE00050DBD00010CC3EB16
:103C29009FF5F0EA9E42F0E99D42F0E89C45F0607C
:093C390007CC4820E701B3EC229E
:103C4200ED33EC33600A047003BD8004ECB2E7FC90
:013C5200224F
:103C530075F020800E75F010800575F0087D007EEC
:103C6300007F003392D530D503123F23EC3340104D
:103C7300EF33FFEE33FEED33FDEC33FCD5F0ED22F5
:0E3C8300E5F0247EA2D513CC92E7CDCEFF2231
:103C9100EDD2E7CD33EC3392D524814006E4FFFE2B
:103CA100FDFC22FCE4CFCECDCC24E0501174FF808A
:103CB100EDC3CC13CCCD13CDCE13CECF13CF047027
:073CC100F030D5DE023F23C5
:105A8100023CFD22EDA2E7D2E7F9EC3340F260F3EC
:105A9100B4FF08ED547F70E8023D07F82481C2E0AD
:105AA100C0E0F40428FAC313FCED92E7FD900DF574
:105AB100123F7DEEA2E7E9BA7F02C31334009400DE
:105AC100FA75F091A4E5F013F494FE8AF0A433E59D
:105AD100F033248CD313FDE492E7FE7F007C3F7505
:105AE1008302ECC0E0F8EDC0E0F9EEC0E0FAEFC0EF
:105AF100E0FB8583F0900DF5123F4585F083123B65
:105B01002CD0E0FBD0E0FAD0E0F9D0E0F812393245
:105B1100ED6480FD30E7011CD583C7ED33CC33F84C
:0C5B2100D0E0A2E71328C313CC13FD2230
:10528C003A70FA83BCAAE9E43E81E0F8BF9DE9E6F6
:10529C003F80000039283C1ABB9969663DA335E371
:1052AC00BF255DE73FC90FDB418DDBCCC44936EE32
:1052BC0045C9913FC5B0F83D3F800000C317F53498
:1052CC00452FFA73C60AFDDD12539504A2E1921123
:1052DC001420E01590528C7404123D12803012533D
:1052EC009530E102B21120E0EBA883A982900DF970
:1052FC00123F7D898288839052A07404123D1285DE
:10530C0082F0900DF9123F6185F082123A23ED4C38
:10531C006007301104EC6480FC22125395C0E0A8A5
:10532C0083A982900DF9123F7D898288839052C4A3
:10533C007403123D128582F0900DF9123F6185F0D5
:10534C0082123A23900DF9E0CCF0A3E0CDF0A3E06B
:10535C00CEF0A3E0CFF09052B47403123D12D08281
:10536C008582F0900DF9123F6185F082E58230E084
:10537C0007123B2CB2118096EFCBFFEECAFEEDC9A3
:10538C00FDECC8FC123B2C8085ED33EC547FCC3308
:10539C00921124605007D0E0D0E0023CFD7B837A70
:1053AC00F97922783E123A23EDF933ECF833248163
:1053BC005011EFFBEEFA123C91123C53ECB2E7FCAD
:1053CC00123932ED33EC33602F2403F8C313FCEDA8
:1053DC0092E7FDE82481E4501FECF8EDF9EEFAEFCA
:1053EC00FB123C91EF04C2E0FCF582123C5DECB286
:1053FC00E7FC123932E58203FAED33EC3360071423
:08540C0013FCED92E7FDEA221A
:103CC800E9D2E7C933E833F892D5EDD2E7CD33EC42
:073CD80033FC5002B2D522BB
:103CDF00EC30E7100FBF000C0EBE00080DBD000446
:103CEF000BEB6014A2D5EB13FCED92E7FD2274FFF2
:103CFF00FCFDFEFF22E480F8A2D574FF13FC7D804B
:033D0F00E480EF5E
:103D1200C0E0EFFBEEFAEDF9ECF8123A23D0E0F551
:103D2200F0EFFBEEFAEDF9ECF8123F51A3A3A3A3D7
:103D3200E8C0E0E9C0E0EAC0E0EBC0E0C0F0123A5F
:103D420023123F6DA3A3A3A3123932D0F0D0E0FB1C
:0D3D5200D0E0FAD0E0F9D0E0F8D5F0D422AE
:03000000025C6738
:0C5C6700787FE4F6D8FD758148025CAE41
:103D5F00BB010689828A83E0225002E722BBFE0262
:093D6F00E32289828A83E4932295
:103D7800BB010CE58229F582E5833AF583E0225000
:103D880006E92582F8E622BBFE06E92582F8E2224A
:0D3D9800E58229F582E5833AF583E4932264
:103DA500BB010689828A83F0225002F722BBFE01FD
:023DB500F322F7
:103DB700F8BB010DE58229F582E5833AF583E8F042
:103DC700225006E92582C8F622BBFE05E92582C8EE
:023DD700F222D6
:103DD900BC000BBE0029EF8DF084FFADF022E4CCCE
:103DE900F875F008EF2FFFEE33FEEC33FCEE9DEC97
:103DF900984005FCEE9DFE0FD5F0E9E4CEFD22EDDD
:103E0900F8F5F0EE8420D21CFEADF075F008EF2F26
:103E1900FFED33FD4007985006D5F0F222C398FD17
:053E29000FD5F0EA22B4
:103E2E00C5F0F8A3E028F0C5F0F8E582158270021F
:063E3E001583E038F022BC
:103E4400BB010A89828A83E0F5F0A3E02250068749
:103E5400F009E71922BBFE07E3F5F009E31922890B
:0B3E6400828A83E493F5F0740193223E
:103E6F00BB0110E58229F582E5833AF583E0F5F091
:103E7F00A3E0225009E92582F886F008E622BBFE6E
:103E8F000AE92582F8E2F5F008E222E5832AF583B4
:083E9F00E993F5F0A3E9932279
:103EA700F8BB0111E58229F582E5833AF583E8F04D
:103EB700E5F0A3F0225009E92582C8F608A6F0220A
:0D3EC700BBFE09E92582C8F2E5F008F222F1
:103ED400E88FF0A4CC8BF0A42CFCE98EF0A42CFC8D
:103EE4008AF0EDA42CFCEA8EF0A4CDA8F08BF0A40B
:103EF4002DCC3825F0FDE98FF0A42CCD35F0FCEB6A
:103F04008EF0A4FEA9F0EB8FF0A4CFC5F02ECD392E
:0F3F1400FEE43CFCEAA42DCE35F0FDE43CFC229B
:10611600C2D5E830E70FB2D5E4C39BFBE49AFAE4B4
:1061260099F9E498F8EC30E717B2D512614C123FB2
:10613600F6E4C39BFBE49AFAE499F9E498F8800341
:10614600123FF630D50DE4C39FFFE49EFEE49DFDAD
:04615600E49CFC22A7
:0E3F2300C3E49FFFE49EFEE49DFDE49CFC22AF
:103F3100E86010ECA2E713FCED13FDEE13FEEF13A6
:043F4100FFD8F02293
:0C3F4500E0FCA3E0FDA3E0FEA3E0FF22EF
:103F5100E493FC740193FD740293FE740393FF22B6
