:1060B400D3EF9400EE9400400F7D187C55DCFEDD98
:0860C400FCEF1F70EB1E80E8E9
:0160CC0022B1
:0A60800012608A7F0212608A7F100E
:10608A00ED6004D2938002C293C2C38F80D2C3222E
:10604700AE07ED24B0FFE4FD12608AEE54F0C454AD
:0E6057000F4410FF12608AEE540FFF02608AA1
:10614C00E4FD7F8D12608A7F1412608A7FAF02603B
:01615C008AB8
:0C624100E4FD7F8D1260857FAE02608A54
:0E61EF00AE07E4FD7F8112608AAF0602608A6F
:10615D00EF6006E4FD7FA08004E4FD7FA112608A5C
:01616D00220F
:10616E00EF6006E4FD7FC08004E4FD7FC812608A04
:01617E0022FE
:10617F00EF6006E4FD7FA78004E4FD7FA612608A2E
:01618F0022ED
:10602800E4FEEE24B0FFE4FD126080E4FC7D01E4B0
:0E603800FF12608A0CECB480F40EEEB408E4A3
:016046002237
:105C9700E4F53BE53B24B0FFE4FD126085E4FF1229
:105CA700608AE53B75F080A485F03DF53EE4F53C60
:105CB7007E00E53E253CFFEE353D8F82F583123DA4
:105CC70035FF7D0112608A053CE53CC3948040E0C6
:095CD700053BE53BC3940840BA0B
:015CE00022A1
:1058AD00D2927F147E001260B4C2927F0A7E0012E3
:1058BD0060B4D292D2C4E4FD7FAE1260807F4012FC
:1058CD00608A7F8112608A7F7F12608A7FC8126032
:1058DD008A7FA112608A7FA812608A7F3F12608A38
:1058ED007FD312608AE4FF12608A7FD512608A7FAF
:1058FD008012608A7FD912608A7FF112608A7FDA06
:10590D0012608A7F1212608A7FDB12608A7F4012DA
:10591D00608A7F2012608A7F0212608A7F8D1260FA
:10592D008A7F1412608A7FA412608A7FA612608A11
:10593D007FAF12608A12608A126028E4FDFF026058
:01594D004712
:0A1FB800430D530000EF410D02003D
:07009C0075DE2F75BC8F22F9
:10606500EF4480F5BC75BC400000E5BC30E5FB5352
:0A607500BCDFAFBDEFFEADBDEDFFD7
:01607F0022FE
:06629400EF24FF92C0227E
:0D622700EF60044391802253917FC29722C3
:10567D00900DB5123F4600000000E4900DB9F0A367
:10568D00F0A3F0A3F07F0F1260657F0F126065E449
:10569D00900DB9F0A3F0900DB5E0F8A3E0F9A3E0FB
:1056AD00FAA3E0FB7F0F126065EE3395E0FDFCEB96
:1056BD002FFFEA3EFEE93DFDE83CFC900DB5123FA3
:1056CD003A900DBAE004F07006900DB9E004F0C305
:1056DD00900DBAE09440900DB9E06480948040B68E
:1056ED00900DB5E0FCA3E0FDA3E0FEA3E0FF78067E
:1056FD00123EEE900DB5123F3A900D53E0FBA3E034
:10570D00FAA3E0F9123E01FFAEF0EE3395E0FDFC99
:10571D00E47BFF7A0FF9F8123E91900DB5E0F8A3F6
:10572D00E0F9A3E0FAA3E0FB125DAF900DBBEEF044
:10573D00A3EFF0FDAC06EC123C15E4FBFA797A7898
:04574D0044123AE9DF
:015751002235
:1053D100900DAC123F4600000000E4900DB4F012B5
:1053E100567D7B9A7A99795978C01238EF7B487A41
:1053F100E1793A783F123AE9900DB0123F3AE4FF71
:10540100FE7D807C3F900DB0E0F8A3E0F9A3E0FAC7
:10541100A3E0FB123B86600E400C900DB0123F469C
:105421003F8000008022E4FFFEFDFC900DB0E0F81B
:10543100A3E0F9A3E0FAA3E0FB123B86500A900D2A
:10544100B0123F4600000000900D02E0703804F0F9
:10545100E4900DB4F0900DB4E0FBC3941450279088
:105461000DB0E0FCA3E0FDA3E0FEA3E0FFEB25E02F
:1054710025E02403F582E4340DF583123F3A900DC3
:10548100B4E004F080CF900DB47413F0900DB4E04B
:10549100FBD394004057EB25E025E024FFF582E49F
:1054A100340CF583E0FCA3E0FDA3E0FEA3E0FF9054
:1054B1000D07123F3A900DACE0FCA3E0FDA3E0FE26
:1054C100A3E0FFEB25E025E02403F582E4340DF5AC
:1054D10083E0F8A3E0F9A3E0FAA3E0FB1238EF9030
:1054E1000DAC123F3A900DB4E014F0809F900DACDA
:1054F100E0FCA3E0FDA3E0FEA3E0FFA3E0F8A3E04E
:10550100F9A3E0FAA3E0FB1238EF900DAC123F3A99
:10551100E4FBFA79A07841900DACE0FCA3E0FDA397
:10552100E0FEA3E0FF123AE9900DB0123F3A900D70
:10553100B0E0FCA3E0FDA3E0FEA3E0FF900D0312A9
:105541003F3A900DB0E0FCA3E0FDA3E0FEA3E0FF35
:015551002237
:105F1200900DFFE590F0E4F580F590759230759163
:105F2200B0759601F59575B08475C099F5C8C2A98A
:0B5F320053AFFE53AFDF758702000085
:015F3D002241
:105F6A00AF90E4F580F5907592307591B075A00107
:105F7A00F596F59575B084F5C0F5C8C2A953AFFE7C
:0A5F8A0053AFDF75870200008F900F
:015F940022EA
:0C624D00125F3ED2A943AF0143AF2022F4
:10613A0043BA8090FE8074D0F090FE82E4F053BAA5
:02614A007F22B2
:105FE40075430175442C90FE82E020E60DE54415CE
:105FF400447002154314454370EC90FE82E054BF94
:02600400F02288
:08619000EDF0EBA3F043BA802F
:0961980090FE817401F0025FE445
:10600600900DD8E0FBA3E0FAA3E0F9A3E0F58275D2
:096016008300EF123D741261D108
:09601F0090FE817406F0025FE4BA
:0E61FD0090FE86EFF090FE817402F0025FE4E7
:0F61C20090FE817404F0125FE490FE87E0FF22EC
:09627A0090FE817403F0025FE460
:0E620B0090FE82E4F090FE817405F0025FE4E4
:0F61D10090FE827401F090FE817405F0025FE48D
:105F9500900DFB12619012000012627A900DFBE0E9
:105FA500FF12000012627A900DFCE0FF1200001251
:095FB500627A12601F53BA7F22C8
:065E6D00900DFDEFF0EDC9
:105E7300126193900DFDE0FF12000012627A900D03
:105E8300FEE0FF12000012627A126198900DFDE0AD
:105E9300FF12000012627A1200001261D112601F19
:035EA30053BA7F70
:015EA60022D9
:0E5BF100900DD2EDF0A3EBF0A3EAF0A3E9F0E3
:105BFF00E412619312000012627AE4900DD6F090D5
:105C0F000DD2E0FF900DD6E0FEC39F5022900DD332
:105C1F00E0FBA3E0FAA3E0F98E82758300123D3515
:105C2F00FF12000012627A900DD6E004F080D012BD
:055C3F00601F53BA7F55
:015C4400223D
:0D5D6B00900DD7EDF0A3EBF0A3EAF0A3E953
:105D7800126194EF04FF12000012627AE4900DDBC6
:105D8800F0900DD7E014FF900DDBE0C39F500E128A
:105D98000000126006900DDBE004F080E4120000C1
:065DA80012600653BA7FF1
:015DAE0022D2
:065ACC00900DBDEFF0A3F8
:105AD200126190900DBDE0FF12000012627A900DEB
:105AE200BEE0FF12000012627A126198900DBDE0D2
:105AF20004FF120000E4900DC3F0900DBFE014FF0C
:105B0200900DC3E0C39F5024120000900DC0E0FB33
:105B1200A3E0FAA3E0F9A3E0F582758300EF123D5A
:105B22007412620B900DC3E004F080CE120000905C
:085B32000DC012600953BA7F97
:015B3A002248
:101FC20060750C8D0A0532000000081E0101000137
:101FD20042C2333300000000000000000000000095
:101FE20000003F8000003F80000000000000000071
:101FF20000000000000000000000000000000000DF
:1020020000000000000000000000000000000000CE
:1020120000000000000000000000000000000000BE
:1020220000000000000000000000000000000000AE
:09203200000000000000000000A5
:105F3E00E4F580F594F593D296F59275913075A0AF
:105F4E00B8759640F59575B034F5B2F5B175C018C3
:0C5F5E00F5B4F5B375C830F5CAF5C922DA
:0D623400438904E4F58AF58CC28CD2A922BE
:1061B20043D10275D54075D4A243D10843AF202202
:1060CD00759850438E40538EFE53890F758BCC754A
:0960DD008DFFC2ABD28ED29922D4
:10612700759A50438E0475D78F75D6FD438E1043ED
:03613700A801229A
:0C625900D288D2A8D28AD2AA438F102289
:04629A0075C7602242
:04629E0075C127227D
:0462A20043C11022C2
:0B5A5700900DDCEBF0A3EAF0A3E9F0F7
:105A6200E4FFA3F0A3F0900DDCE0FBA3E0FAA3E0D7
:105A7200F98F82758300123D35FD900DE0E02DF027
:105A8200900DDFE03400F00FEFB473DA900DDFE039
:105A9200FEA3E0FF900DDCE0FBA3E0FAA3E0F990A7
:105AA2000073EE8FF0123E647F807E01125FBE9023
:105AB2000DDCE0FBA3E0FAA3E0F9900DC9E4F0A34A
:0A5AC2007475F07F807E01025D26FE
:0B575200900D7DEBF0A3EAF0A3E9F05E
:10575D00E4A3F0A3F0A3F0900D88F0A37475F07F8F
:10576D00807E01125CE1900D80E0FFC3947350299F
:10577D00900D7DE0FBA3E0FAA3E0F98F8275830025
:10578D00123D35FF900D82E02FF0900D81E0340039
:10579D00F0900D80E004F080CD900D7DE0FBA3E056
:1057AD00FAA3E0F9900073123E2CFF900D81E0B545
:1057BD00F008A3E0B507037F0122E4900D80F0907F
:1057CD000D80E0FF7C007B01248DF9EC340CFA1286
:1057DD003D1CFE900D7DE0FBA3E0FAA3E0F98F8266
:1057ED00758300EE123D74900D80E004F0E0B47509
:0357FD00CE7F005C
:015800002285
:08628C00EF640124FF92B5222A
:105DF300125F3E1260CD1261271262341261B21239
:105E0300625912009C12613A12629E7B017A0C79EC
:105E130018125752125EA7900C1DE0FF1262837F87
:0E5E23000112628C7F057E0012609AD2AF22BF
:0E621900E4F5C7F5C5F5C675C3FF75C4FF22D1
:105CE100AD07AC06A2AF92D5C2AF75C78075C5012D
:105CF100ECF5C3AF058FC475C65A75C6A500E5C2DC
:105D0100123D620DBD00010C740129F9E43AFA90CB
:105D11000D8874FFF5F0123DEB45F070D312621956
:055D2100A2D592AF22A3
:105FBE00AD07AC06A2AF92D5ECF5C3AF058FC47595
:105FCE00C78075C50375C65A75C6A500126219E558
:065FDE008024FF92AF22B7
:105D2600AD07AC06A2AF92D5C2AF75C78075C502E6
:105D3600ECF5C3AF058FC4123D1CF5C275C65A7586
:105D4600C6A5000DBD00010C740129F9E43AFA90CC
:105D56000DC974FFF5F0123DEB45F070D3126219D0
:055D6600A2D592AF225E
:0B203B00C110410DF500420DF6000041
:105EA70043BA8090FFF2E4F090FFF07417F0A37408
:105EB70070F090FF647480F090FF60E4F0A3F0A3AB
:105EC700740BF0A374B8F053BA7F43D12075D34055
:095ED70075D2A243AF40C21022B3
:1060FD0043BA80EFB4010543FE80800553FE7FC295
:05610D00A653BA7F2239
:0300A30002000355
:10000300C0E0C0F0C083C082C0D075D00853EFFBFE
:10001300900DF5E0FE7019A3E07004A3E064C870CE
:100023006D900DF6F0A3F0FF1260FD53D17F805E5B
:10003300EE64017059900DF6E0FEA3E0FFC39458FF
:10004300EE940250367C007D64123D96ED4C702B8D
:10005300900DF6E0FEA3E0FF7C007D64123D96EF79
:1000630054016401FF1260FD900DF6E0FEA3E0FF72
:100073007C007D64123D96EF1392A0900DF6E0B4E0
:10008300030CA3E0B4E807900DF6E4F0A3F0D0D09E
:09009300D082D083D0F0D0E0321D
:10611200E4900DF5F0A3F0A3F03010087F011260B7
:05612200FD43D18022C5
:0F61E000900DF57401F0E4A3F0A3F043D18022F9
:09628300EF6003D21022C21022C8
:10609A00D3EF9400EE94004010007D207C28DCFEB3
:0960AA00DDFCEF1F70EA1E80E727
:0160B30022CA
:102C9E000000000000000000002F000000000700F0
:102CAE00070000147F147F1400242A7F2A120023A9
:102CBE0013086462003649552250000005030000D7
:102CCE0000001C224100000041221C000014083E9E
:102CDE0008140008083E0808000000A06000000864
:102CEE0008080808000060600000002010080402B8
:102CFE00003E5149453E0000427F40000042615176
:102D0E004946002141454B31001814127F1000270F
:102D1E0045454539003C4A494930000171090503D2
:102D2E0000364949493600064949291E0000363603
:102D3E000000000056360000000814224100001466
:102D4E001414141400004122140800020151090643
:102D5E0000324959513E007C1211127C007F4949C4
:102D6E004936003E41414122007F4141221C007FF5
:102D7E0049494941007F09090901003E4149497A03
:102D8E00007F0808087F0000417F4100002040417D
:102D9E003F01007F08142241007F40404040007FE9
:102DAE00020C027F007F0408107F003E4141413E2D
:102DBE00007F09090906003E4151215E007F091975
:102DCE0029460046494949310001017F0101003F72
:102DDE004040403F001F2040201F003F4038403FF2
:102DEE000063140814630007087008070061514956
:102DFE00454300007F41410000552A552A550000E9
:102E0E0041417F0000040201020400404040404066
:102E1E00000001020400002054545478007F4844FE
:102E2E00443800384444442000384444487F003835
:102E3E005454541800087E0901020018A4A4A47C5E
:102E4E00007F080404780000447D40000040808428
:102E5E007D00007F102844000000417F4000007C70
:102E6E0004180478007C080404780038444444387C
:102E7E0000FC242424180018242418FC007C0804C8
:102E8E00040800485454542000043F444020003CA1
:102E9E004040207C001C2040201C003C4030403C28
:102EAE00004428102844001CA0A0A07C00446454B8
:102EBE004C441414141414140000000000000000FC
:102ECE0000000000000000000000000000000000F4
:102EDE0000000000000000000000000000F80000EC
:102EEE000000000000333000000000100C06100C33
:102EFE000600000000000000000040C07840C078CE
:102F0E004000043F04043F040400007088FC0830B5
:102F1E000000001820FF211E0000F008F000E0184D
:102F2E00000000211C031E211E0000F00888700006
:102F3E0000001E2123241927211010160E00000058
:102F4E0000000000000000000000000000E0180477
:102F5E000200000000071820400000020418E000E4
:102F6E0000000040201807000000404080F0804024
:102F7E0040000202010F01020200000000F00000FA
:102F8E0000000101011F010101000000000000000E
:102F9E00000080B070000000000000000000000083
:102FAE00000000010101010101010000000000000C
:102FBE0000000030300000000000000000008060C3
:102FCE001804006018060100000000E01008081048
:102FDE00E000000F102020100F00001010F800006D
:102FEE0000000020203F2020000000700808088804
:102FFE0070000030282422213000003008888848D4
:10300E0030000018202020110E000000C02010F803
:10301E00000000070424243F240000F808888808D4
:10302E0008000019212020110E0000E010888818D9
:10303E000000000F112020110E0000380808C838BB
:10304E0008000000003F000000000070880808889B
:10305E007000001C222121221C0000E01008081024
:10306E00E0000000312222110F00000000C0C0005D
:10307E000000000000303000000000000080000062
:10308E000000000080600000000000008040201062
:10309E00080000010204081020004040404040405B
:1030AE0040000404040404040400000810204080BE
:1030BE0000000020100804020100007048080808F3
:1030CE00F0000000003036010000C030C828E810C3
:1030DE00E0000718272423140B000000C038E0007E
:1030EE000000203C23020227382008F888888870C8
:1030FE000000203F202020110E00C03008080808D4
:10310E003800071820202010080008F808080810BA
:10311E00E000203F202020100F0008F88888E808E3
:10312E001000203F20202320180008F88888E80887
:10313E001000203F200003000000C03008080838AF
:10314E00000007182020221E020008F808000008C0
:10315E00F808203F210101213F20000808F8080847
:10316E0000000020203F2020000000000808F80882
:10317E000800C08080807F00000008F888C02818F2
:10318E000800203F20012638200008F80800000023
:10319E000000203F20202020300008F8F800F8F82A
:1031AE000800203F003F003F200008F830C0000814
:1031BE00F808203F200007183F00E010080808100C
:1031CE00E0000F10202020100F0008F80808080853
:1031DE00F000203F210101010000E0100808081056
:1031EE00E0000F18242438504F0008F8888888888B
:1031FE007000203F2000030C302000708808080863
:10320E0038000038202121221C00180808F8080870
:10321E0018000000203F2000000008F808000008F9
:10322E00F808001F202020201F000878880000C802
:10323E003808000007380E010000F80800F80008F2
:10324E00F800033C0700073C0300081868808068FC
:10325E00180820302C03032C30200838C800C8383A
:10326E0008000000203F2000000010080808C838A1
:10327E0008002038262120201800000000FE02023F
:10328E0002000000007F40404000000C30C00000F3
:10329E000000000000010638C00000020202FE001D
:1032AE000000004040407F000000000004020202C7
:1032BE0004000000000000000000000000000000FC
:1032CE0000008080808080808080000202040000E8
:1032DE0000000000000000000000000080808080E0
:1032EE0000000019242222223F2008F800808000CE
:1032FE000000003F112020110E0000000080808091
:10330E000000000E11202020110000000080808897
:10331E00F800000E112020103F20000080808080D9
:10332E000000001F222222221300008080F08888D5
:10333E0088180020203F2020000000008080808020
:10334E008000006B94949493600008F80080808055
:10335E000000203F210000203F20008098980000B0
:10336E0000000020203F20200000000000809898E0
:10337E00000000C08080807F000008F80000808080
:10338E008000203F24022D302000000808F80000A5
:10339E0000000020203F2020000080808080808060
:1033AE008000203F20003F20003F808000808080F2
:1033BE000000203F210000203F2000008080808000
:1033CE000000001F202020201F0080800080800031
:1033DE00000080FFA12020110E00000000808080E0
:1033EE008000000E112020A0FF8080808000808051
:1033FE00800020203F21200001000000808080807E
:10340E0080000033242424241900008080E0808072
:10341E0000000000001F20200000808000000080BF
:10342E008000001F202020103F2080808000008020
:10343E00808000010E300806010080800080008030
:10344E0080800F300C030C300F00008080008080D5
:10345E0080000020312E0E31200080808000008000
:10346E00808080818E7018060100008080808080B0
:10347E0080000021302C2221300000000000807CD2
:10348E00020200000000003F404000000000FF006C
:10349E00000000000000FF0000000002027C80001F
:1034AE0000000040403F0000000000060101020243
:1034BE00040400000000000000000000E0F8FCFE24
:1034CE00FEFEFEFEFCF8E0000000E0FFFFFFFF1F27
:1034DE000301031FFFFFFFFFE000FFFFFFFFFF00E1
:1034EE0000000000FFFFFFFFFF00FFFFFFFFFF00D8
:1034FE0000000000FFFFFFFFFF0007FFFFFFFFF8C8
:10350E00C080C0F8FFFFFFFF07000000071F3F7FCE
:10351E007F7F7F7F3F1F070000000000000080C0FC
:10352E00FCFCFCFCFC000000000000007F7F7F7FA5
:10353E00FFFFFFFFFF000000000000000000000082
:10354E00FFFFFFFFFF000000000000000000000072
:10355E00FFFFFFFFFF00000000000000C0C0C0C062
:10356E00FFFFFFFFFFC0C0C0C00000003F3F3F3F56
:10357E003F3F3F3F3F3F3F3F3F0000F8F8FCFEFE1E
:10358E00FEFEFEFCFCF8E0000000001F0F07030328
:10359E0003070FFFFFFFFFFF000000000000000009
:1035AE000000E0FFFFFFFF1F00000000000000C052
:1035BE00F8FEFFFF7F0F0100000000C0F0FCFFFFD0
:1035CE00FFDFC7C1C0C0C0C0C000003F3F3F3F3F8C
:1035DE003F3F3F3F3F3F3F3F3F0000F8F8FCFEFEBE
:1035EE00FEFEFEFEFCF8F0800000001F0F07030336
:1035FE00030307FFFFFFFFFF000000000000F8F8C5
:10360E00F8FCFEFFFFBF0F010000000000000707DF
:10361E0007070F1FFFFFFFFEF000F8F0E0E0C0C04D
:10362E00C0C0E0F0FFFFFFFF3F001F1F3F3F7F7F47
:10363E007F7F7F3F3F1F0F03000000000000000050
:10364E00C0F8FCFCFCFCFC00000000000000E0FCEC
:10365E00FF7FFFFFFFFFFF0000000080F0FFFF3F36
:10366E000300FFFFFFFFFF000000FCFFFFFFF1F074
:10367E00F0F0FFFFFFFFFFF0F0F00F0F0F0F0F0F37
:10368E000F0FFFFFFFFFFF0F0F0F000000000000E6
:10369E0000003F3F3F3F3F0000000000FCFCFCFCF1
:1036AE00FCFCFCFCFCFCFCFC00000000FFFFFFFF30
:1036BE00FF0303030303030300000000FFFFFFFFEC
:1036CE00FFFCFCFCFCF8F0C0000000000707030341
:1036DE000303070FFFFFFFFFFE0000F8F0E0C0C07E
:1036EE00C0C0E0F8FFFFFFFF3F00001F3F3F7F7F9E
:1036FE007F7F7F7F3F1F0F010000000080E0F0F80A
:10370E00FCFEFEFEFEFEFC00000000F8FFFFFFFFC9
:10371E000F030101010103000000FFFFFFFFFFF88F
:10372E00FCFEFEFEFEFCF8E00000FFFFFFFFFF03C5
:10373E0001010307FFFFFFFFFF0007FFFFFFFFF879
:10374E00C08080E0FFFFFFFF3F000000071F3F3FEC
:10375E007F7F7F7F3F1F0F010000FCFCFCFCFCFC09
:10376E00FCFCFCFCFCFCFCFCFC000303030303035D
:10377E000303C3FFFFFFFFFF1F0000000000000058
:10378E00C0FCFFFFFFFF1F0100000000000080F8DB
:10379E00FFFFFFFF3F0300000000000000F8FFFFE7
:1037AE00FFFF7F0300000000000000303F3F3F3F5F
:1037BE003F0700000000000000000000E0F8FCFCE5
:1037CE00FEFEFEFEFCFCF8E0800000FFFFFFFFFFA8
:1037DE0003010103FFFFFFFFFF0000073FFFFFFF95
:1037EE00FFFCF8FCFFFF1F070000E0FCFEFFFF0FD1
:1037FE00070F1F3FFFFFFFFEF0007FFFFFFFFFE001
:10380E00C08080E0FFFFFFFF7F0000070F1F3F7F9C
:10381E007F7F7F7F3F1F0F0300000080E0F8FCFEDC
:10382E00FEFEFEFEFCF8E0800000F8FFFFFFFF0F3B
:10383E000101030FFFFFFFFFF000FFFFFFFFFFE09F
:10384E00C08080C0FFFFFFFFFF0000071F3F7F7F8C
:10385E007F7F3F1FFFFFFFFF7F000000C080808043
:10386E0080C0F0FFFFFFFF1F000000007F7F7F7F03
:10387E007F7F3F1F0F0700000000000000000000C8
:10388E00000000000000000000000000000000FF2B
:10389E00FFFFFFFF00000000000000000000000F0F
:1038AE000F0F0F0F0000000000000000000000E0EE
:1038BE00E0E0E0E00000000000000000000000FF7B
:1038CE00FFFFFFFF000000000000000000000001ED
:0A38DE0001010101000000000000DC
:10204600640000080000000000000000000000001E
:10205600000000000000000000000000000000007A
:10206600000000000000000000000000000000006A
:10207600000000000000000000000000000000005A
:10208600000000000000000000000000000000004A
:102446000000000064000408000000000000000016
:102456000000000000000000000000000000000076
:102466000000000000000000000000000000000066
:102476000000000000000000000000000000000056
:102486000000000000000000000000000000000046
:10284600000000000000000064000808000000000E
:102856000000000000000000000000000000000072
:102866000000000000000000000000000000000062
:102876000000000000000000000000000000000052
:102886000000000000000000000000000000000042
:102C46000000000000000000000000004800000B2B
:072C56000B0B0B0B0B0B0B2A
:105C4500900D7DEBF0A3EAF0A3E9F01258AD900DAD
:105C55007DE0FBA3E0FAA3E0F9900002123D35FFD9
:105C6500126265900D7DE0FBA3E0FAA3E0F99000D8
:105C750004123D35FF1260E6900D7DE0FBA3E0FACE
:105C8500A3E0F9900003123D35FF1262A97F0102DE
:025C950062703B
:0B505E00900D96EFF0A3EDF0A3EBF037
:10506900A3E0131313541F752500F526900DA0E036
:105079006003025111F523AF237E00C3EF9526EE9D
:10508900952540030251B4900D97E02FFFEE33FEB2
:10509900EF7807C333CE33CED8F9FF900D96E07C75
:1050A900002FF528EC3EF527900D98E0FFE5238FBA
:1050B900F0A485F029F52AE4F524900D98E0FFE5A0
:1050C90024C39F503EAF247E00E52A2FFDEE3529EB
:1050D900FC900D9AE0FBA3E0FAA3E0F98D828C83A2
:1050E900123D35FDE5282FFFEE3527FE900D9DE099
:1050F900FBA3E0FAA3E0F98F828E83ED123D7405DC
:105109002480B70523025080E4F523AF237E00C332
:10511900EF9526EE952540030251B4900D97E02FA7
:10512900FFEE33FEEF7807C333CE33CED8F9FF90C5
:105139000D96E07C002FF528EC3EF527900D98E0C0
:10514900FFE5238FF0A485F029F52AE4F524900DD5
:1051590098E0FFE524C39F504DAF247E00E5282F3A
:10516900FDEE3527FC900D9DE0FBA3E0FAA3E02DB1
:10517900F9EA3CFAC003C002C001123D1CFDE52A50
:105189002FFFEE3529FE900D9AE0FBA3E0FAA3E08C
:10519900F98F828E83123D354DD001D002D0031292
:1051A9003D62052480A80523025114E4F523AF23A9
:1051B9007E00C3EF9526EE95254003025248900DD7
:1051C90097E02FFFEE33FEEF7807C333CE33CED807
:1051D900F9FF900D96E07C002FF528EC3EF527901D
:1051E9000D98E0FFE5238FF0A485F029F52AE4F571
:1051F90024900D98E0FFE524C39F503EAF247E0024
:10520900E52A2FFDEE3529FC900D9AE0FBA3E0FA83
:10521900A3E0F98D828C83123D35FDE5282FFFEE41
:105229003527FE900D9DE0FBA3E0FAA3E0F98F82FC
:0F5239008E83ED123D74052480B705230251B713
:015248002243
:065E31007B017A087908EC
:0B5E3700900DF8EBF0A3EAF0A3E9F0F7
:105E4200E4F545F546900DF8E0FBA3E0FAA3E0F98E
:105E5200854682854583E4123D740546E546700217
:0A5E62000545B400E0E545B404DB9B
:015E6C002213
:0B59DA00900DCBEFF0A3EDF0A3EBF07D
:1059E500A3E0131313541F751C00F51DE4F51AAF3E
:1059F5001A7E00C3EF951DEE951C5055900DCCE019
:105A05002FFFEE33FEEF7807C333CE33CED8F9FF41
:105A1500900DCBE07C002FF51FEC3EF51EE4F51B49
:105A2500900DCDE0FFE51BC39F50227E00E51F25AD
:105A35001BFFEE351EFE900DCFE0FBA3E0FAA3E0C1
:105A4500F98F828E83E4123D74051B80D3051A807D
:015A55009EB2
:015A5600222D
:105EE000E4F547F54874082548F58274003547F510
:105EF00083E0FF74082548F58274043547F583EF85
:105F0000F00548E54870020547B400D9E547B404F8
:015F1000D4BC
:015F1100226D
:0362A600025C9700
:0A5B3B00900DE1EFF0900DE3EBF0A8
:105B4500AF058F3F900DE4E0FFE53FC39F504790C1
:105B55000DE1E0FFAD3F126047E53F75F080A4859C
:105B6500F041F542E4F540900DE3E0FFE540C39FC9
:105B750050207E00E5422540FFEE3541FE74082F9A
:105B8500F58274003EF583E0FF7D0112608A0540D1
:065B950080D5053F80AE43
:015B9B0022E7
:0E404500900DE5EBF0A3EAF0A3E9F0A3EDF097
:104053006003024157F52BE4F52CE52C75F080A4A1
:1040630085F02FF5302480F532E4352FF531852F97
:104073002D85302EC3E52E9532E52D9531503E74B6
:1040830088252EF5827400352DF583E0C43333542F
:10409300C0FF7408252EF5827400352DF583E013D7
:1040A30013543F4FFF7408252EF5827400352DF508
:1040B30083EFF0052EE52E70BB052D80B7052CE5AB
:1040C3002CB40796E52B1313543F75F080A485F0A9
:1040D3002FF530E52B540375F002A4FFAEF0C37443
:1040E300069FF532E49EF531E4F52C7E00E530259C
:1040F3002CFFEE352FFE900DE5E0FBA3E0FAA3E0E5
:10410300F98F828E83123D35FFAE32A806088002F6
:10411300C333D8FC54C0FF7488252CF582E43403E0
:10412300F583E0FE1313543F4FFF7488252CF5826B
:10413300E43403F583EFF0052CE52CB480AD7B016B
:104143007A007908125C97052BE52BC39420500362
:1041530002405A22900DE8E06401600302427EF5BA
:104163002BE4F52CC37407952CFFE49400FEEF7841
:1041730007C333CE33CED8F9F5308E2F2480F532F2
:10418300E4352FF531852F2D85302EC3E52E95325D
:10419300E52D9531503E7408252EF5827400352D9A
:1041A300F583E025E025E0FF7488252EF58274FF72
:1041B300352DF583E0C4131354034FFF7408252EE4
:1041C300F5827400352DF583EFF0052EE52E70BBD7
:1041D300052D80B7052CE52C64077088E52B131398
:1041E300543FFFC374079FFFE49400FEEF7807C3B7
:1041F30033CE33CED8F9F5308E2FE52B540375F03B
:1042030002A4FFAEF0C374069FF532E49EF531E4D9
:10421300F52C7E00E530252CFFEE352FFE900DE5C5
:10422300E0FBA3E0FAA3E0F98F828E83123D35FF12
:10423300AE32A806088002C313D8FC5403FF7408E7
:10424300252CF582E43400F583E0FE25E025E04FDC
:10425300FF7408252CF582E43400F583EFF0052C78
:10426300E52CB480AD7B017A007908125C97052BAD
:10427300E52BC39420500302416422900DE8E064CF
:10428300026003024363F52BE4F52CE52C75F08003
:10429300A485F02FF530247EF532E4352FF53185F2
:1042A3002F2D85302EC3E52E9532E52D95315026E1
:1042B300740A252EF5827400352DF583E0FF74080A
:1042C300252EF5827400352DF583EFF0052EE52EAE
:1042D30070D3052D80CF900DE5E0FBA3E0FAA3E0BA
:1042E300F975F002E52BA42530F582E5F0352FF5BD
:1042F30083123D35FF74082532F58274003531F59C
:1043030083EFF0E5302401FFE4352FFE75F002E57D
:104313002BA42FF582E5F03EF583C083C082900D78
:10432300E5E0FBA3E0FAA3E0F9D082D083123D35A8
:10433300FF74092532F58274003531F583EFF005FA
:104343002CE52C6408600302428E7B017A00790815
:10435300125C97052BE52BC39440500302428B223A
:10436300900DE8E064036003024441F52BE4F52C6F
:10437300E52C75F080A485F02FF530247FF532E429
:10438300352FF531F52D85322ED3E52E9530E52DDC
:10439300952F40267406252EF5827400352DF5835E
:1043A300E0FF7408252EF5827400352DF583EFF0B8
:1043B300E52E152E70D3152D80CFE52B75F002A4B5
:1043C300FFE530247FCDE4352FCDC39FFFED95F07E
:1043D300FE900DE5E0FBA3E0FAA3E0F98F828E8364
:1043E300123D35FF74092530F5827400352FF583AE
:1043F300EFF0E52B75F002A4FFE530247ECDE43524
:104403002FCDC39FFFED95F08F82F583123D35FFCE
:1044130074082530F5827400352FF583EFF0052CF1
:10442300E52C640860030243737B017A0079081268
:0E4433005C97052BE52BC394405003024370A9
:014441002258
:0E555200900DE9EBF0A3EAF0A3E9F0A3EDF071
:10556000E4F533900DECE0FFE533C39F40030256B2
:105570007CE4F534C374079534FFE49400FEEF78BF
:1055800007C333CE33CED8F9F5388E372480F53AB9
:10559000E43537F539853735853836C3E536953AFC
:1055A000E5359539503D74082536F582740035355A
:1055B000F583E025E0FF74882536F58274FF3535E4
:1055C000F583E0C413131354014FFF74082536F517
:1055D0008274003535F583EFF00536E53670BC058D
:1055E0003580B80534E53464077089E53313131347
:1055F000541FFFC374079FFFE49400FEEF7807C3B6
:1056000033CE33CED8F9F5388E37E5335407FFC3A0
:1056100074079FF53AE49400F539E4F5347E00E52B
:10562000382534FFEE3537FE900DE9E0FBA3E0FAB4
:10563000A3E0F98F828E83123D35FFAE3AA80608AB
:105640008002C313D8FC5401FF74082534F582E4AA
:105650003400F583E0FE25E04FFF74082534F58221
:10566000E43400F583EFF00534E534B480AF7B011A
:0C5670007A007908125C9705330255633C
:01567C00220B
:0A627000EF600302614C126241224C
:0B626500EFD394FF40027FFF0261EFC7
:1060E600EF60097F0112615D7F018007E4FF1261A5
:0760F6005DE4FF12616E2260
:0362A90002617F10
:104A0400EF75F00A84900D75F0EF75F00A84A3E554
:104A1400F0F0A3740AF0ED75F00A84A3F0ED75F0DC
:104A24000A84A3E5F0F0A3740AF0EB75F00A84A3FA
:104A3400F0EB75F00A84A3E5F0F0900D6B7407F0C9
:104A4400900D6BE0FFC3648094805003024C6DEFC3
:104A54003395E0FE74002FF58274003EF583E0FD8B
:104A640074752FF582740D3EF583E06D7003024C6E
:104A740043E4900D6CF0E4FBEB2401FFE433FEEF20
:104A84007807C333CE33CED8F9FDAC06900D6BE076
:104A9400FF3395E0FEEFC4F8540FC868FFEEC4542A
:104AA400F048FEED2FFFEC3E900D6FF0A3EFF09079
:104AB4000D6FE0FCA3E0FD2410FEE43CA3F0A3CEC4
:104AC400F0900D6DECF0A3EDF0900D71E0FEA3E01D
:104AD400FF900D6DE0FCA3E0FDC39FEC9E504C7471
:104AE400882DF58274003CF583E0FE74082DF58270
:104AF40074003CF583E0FDEDFF900D73EEF0A3EF41
:104B0400F0900D73E0C313A3E013FF900D6DA3E0C9
:104B14002408F58274003CF583EFF0900D6EE004F8
:104B2400F07006900D6DE004F0809E0BEB64056060
:104B340003024A7CEB2401FFE433FEEF7807C3331E
:104B4400CE33CED8F9FDAC06900D6BE0FF3395E083
:104B5400FEEFC4F8540FC868FFEEC454F048FEEDED
:104B64002FFFEC3E900D6FF0A3EFF0900D6CE0FD85
:104B7400131313541F75F010A4FF900D71E5F0F09A
:104B8400A3EFF0ED5407FFC374079FF9E4900D6D94
:104B9400F0A3F0900D6DE0FEA3E0FF900D72E02F06
:104BA400FD900D71E03EFC900D6BE0FB3395E0FA57
:104BB40074752BF582740D3AF583E075F060A424C6
:104BC400C8F582E5F03434F583E5822DF582E5837A
:104BD4003CF583E493FDA801088002C333D8FC5458
:104BE40080FD900D6FE0FAA3E02FFFEE3AFE74080B
:104BF4002FF58274003EF583E0FCC3134DFD740869
:104C04002FF58274003EF583EDF0900D6EE004F014
:104C14007006900D6DE004F0900D6DE07004A3E05B
:104C240064106003024B977B017A007908125C9749
:104C3400900D6CE004F0E0C394305003024A7A9083
:104C44000D6BE0FF3395E0FE74752FF582740D3E15
:104C5400F583E0FD74002FF58274003EF583EDF0DA
:094C6400900D6BE014F0024A44CB
:014C6D002224
:10444200900DA1EFF0A3EDF0A3EBF0A3EAF0A3E946
:01445200F079
:10445300E4F510F511900DAAE0B401037510FF9077
:104463000DA3E0FBA3E0FAA3E0F9851182758300B5
:10447300123D356004051180E6900DA9E0641060DB
:1044830003024614F512E512C39511400302475483
:10449300E512C4540F25E0FF900DA2E02FF515D3CC
:1044A30094065003024565E4F513E51375F080A403
:1044B300FF900DA1E07C002FFDEC35F0FCE51254DC
:1044C3000F75F008A4AEF02DF517EE3CF516E513C5
:1044D30075F008A485F018F519E4F514900DA3E020
:1044E300FBA3E0FAA3E0F9851282758300123D3540
:1044F30075F010A424D8F582E5F0342CF583AF14BD
:104503007E00E5192FFDEE3518FCE5822DF582E5D9
:10451300833CF583E4936510FDE5172FFFEE351615
:10452300FE74082FF58274083EF583EDF00514E55B
:1045330014B408A80513E513640260030244ADE54F
:1045430012540F640F600AE51114651260030246EA
:104553000F7B017A0879087D10120000125E310288
:10456300460FE4F513E5152513FFE433FEEF780753
:10457300C333CE33CED8F9FF900DA1E07C002FFDDD
:10458300EC3EFCE512540F75F008A4AEF02DF517C0
:10459300EE3CF516E51375F008A485F018F519E45B
:1045A300F514900DA3E0FBA3E0FAA3E0F9851282D2
:1045B300758300123D3575F010A424D8F582E5F01B
:1045C300342CF583AF147E00E5192FFDEE3518FC6E
:1045D300E5822DF582E5833CF583E4936510FDE5E3
:1045E300172FFFEE3516FE900DA6E0FBA3E0FAA30E
:1045F300E0F98F828E83ED123D740514E514B4083F
:10460300A10513E513640260030245680512024421
:1046130089E4F512E512C395114003024754E512EC
:1046230075F01584FF900DA2E02FF515D394075074
:10463300030246CDE51275F01584E5F075F006A486
:10464300FFAEF0900DA1E07C002FF517EC3EF516C0
:10465300E4F514900DA3E0FBA3E0FAA3E0F98512BF
:1046630082758300123D3575F006A424DEF582E5DC
:10467300F0342BF583E5822514F582E43583F58345
:10468300E4936510FFE5147C002517FDEC3516FC5B
:1046930074082DF58274083CF583EFF00514E514D6
:1046A300B406B0E51275F01584E5F06414600AE50C
:1046B30011146512600302474F7B017A0879087D64
:1046C30008120000125E3102474FE51575F080A411
:1046D300FF900DA1E07C002FFDEC35F0FCE5127599
:1046E300F01584E5F075F006A4AEF02DF517EE3C59
:1046F300F516E4F514900DA3E0FBA3E0FAA3E0F9AB
:10470300851282758300123D3575F006A424DEF50B
:1047130082E5F0342BF583E5822514F582E43583B5
:10472300F583E4936510FFE5147C002517FDEC3554
:1047330016FC900DA6E0FBA3E0FAA3E0F98D828CB2
:1047430083EF123D740514E514B406A9051202465D
:1047530017900DABE0600E900DE47408F07B80E4DD
:10476300FDFF125B3B900DA9E0B4100AE511C454A0
:0E4773000F0425E0FF22E51175F0158404FF08
:014781002215
:105B9C00125BB7EC04FF125BB7EC2402FF125BB78D
:0B5BAC00EC2403FF125BB7EC2404FFA5
:105BB700ED131313541F75F080A42FF582E435F00D
:105BC700F583E5822408F582E5833400F583C083F5
:105BD700C082E0FFED5407FE7401A806088002C3E7
:0A5BE70033D8FC4FD082D083F022A7
:0F478200900D8BEDF0900D8AEFF0900D8CEBF019
:104791006F70030249BA900D8AE0FCE4123C1AC022
:1047A10004C005C006C007900D8CE0FCE4123C1A61
:1047B100D003D002D001D0001238EBC004C005C034
:1047C10006C007900D8BE0FCE4123C1AC004C00542
:1047D100C006C007900D8DE0FCE4123C1AD003D056
:1047E10002D001D0001238EBD003D002D001D000AA
:1047F100123AE9900D8E123F3A900D8AE0FCE412D4
:104801003C1A900D8EE0F8A3E0F9A3E0FAA3E0FBD7
:104811001239E0C004C005C006C007900D8BE0FC52
:10482100E4123C1AD003D002D001D0001238EB9030
:104831000D92123F3AE4FFFE7D807C3F900D8EE0A9
:10484100F8A3E0F9A3E0FAA3E0FB123B86400302E0
:104851004919E4FFFE7D807CBF900D8EE0F8A3E056
:10486100F9A3E0FAA3E0FB123B8660025003024980
:1048710019900D8CE0FF900D8AE0D39F504D900D63
:104881008CE0FF900D8AE0D39F4003024A03E0FCD5
:10489100FFC007E4123C1A900D8EE0F8A3E0F9A3E3
:1048A100E0FAA3E0FB1239E0900D92E0F8A3E0F901
:1048B100A3E0FAA3E0FB1238EF123C4EAD07D0079C
:1048C100125BB7900D8AE004F080B3900D8AE0FF8F
:1048D100900D8CE0D39F4003024A03E0FCFFC00728
:1048E100E4123C1A900D8EE0F8A3E0F9A3E0FAA3DC
:1048F100E0FB1239E0900D92E0F8A3E0F9A3E0FAB1
:10490100A3E0FB1238EF123C4EAD07D007125BB7A4
:10491100900D8CE004F080B3900D8DE0FF900D8B35
:10492100E0D39F504A900D8DE0FF900D8BE0FCD3BA
:104931009F4003024A03E4123C1A900D92E0F8A34F
:10494100E0F9A3E0FAA3E0FB1238EB900D8EE0F85A
:10495100A3E0F9A3E0FAA3E0FB123AE9123C4E907E
:104961000D8BE0FD125BB7900D8BE004F080B690EB
:104971000D8BE0FF900D8DE0FCD39F4003024A03B5
:10498100E4123C1A900D92E0F8A3E0F9A3E0FAA337
:10499100E0FB1238EB900D8EE0F8A3E0F9A3E0FA0A
:1049A100A3E0FB123AE9123C4E900D8DE0FD125B43
:1049B100B7900D8DE004F080B6900D8DE0FF900D65
:1049C1008BE0D39F501E900D8DE0FF900D8BE0FD8D
:1049D100D39F502E900D8AE0FF125BB7900D8BE0B4
:1049E10004F080E2900D8BE0FF900D8DE0FDD39FF0
:1049F1005010900D8CE0FF125BB7900D8DE004F02C
:024A010080E251
:014A03002290
:0B4C6E00900D56EFF0A3EDF0A3EBF06B
:104C7900A3E0FCA3E0FDEC123C157B727A8A798EE5
:104C8900783C1239E0900D5F123F3A900D5FE0FCDD
:104C9900A3E0FDA3E0FEA3E0FF1252E3900D5B1237
:104CA9003F3AE4FFFEFDFC900D5FE0F8A3E0F9A3B5
:104CB900E0FAA3E0FB123B8640547FC37EF57DC832
:104CC9007C3F900D5FE0F8A3E0F9A3E0FAA3E0FBD5
:104CD900123B865039900D5BE0FCA3E0FDA3E0FE9A
:104CE900A3E0FFA804A905AA06FB1239E0E4FBFA30
:104CF9007980783F1238EF125805C004C005C00604
:104D0900C007900D58E0FCE4123C1A024DE47FC341
:104D19007EF57D487C40900D5FE0F8A3E0F9A3E0C3
:104D2900FAA3E0FB123B86503B900D5BE0FCA3E04D
:104D3900FDA3E0FEA3E0FFA804A905AA06FB12391A
:104D4900E0E4FBFA7980783F1238EF125805C00485
:104D5900C005C006C007900D58E0FCE4123C1A12C9
:104D69003BFF80777F527EB87D967C40900D5FE057
:104D7900F8A3E0F9A3E0FAA3E0FB123B86900D5BF0
:104D8900E0FCA3E0FDA3E0FEA3E0FFA804A905AAB7
:104D990006FB50261239E0E4FBFA7980783F123895
:104DA900EF125805C004C005C006C007900D58E0B1
:104DB900FCE4123C1A123BFF80211239E0E4FBFAB1
:104DC9007980783F1238EF125805C004C005C00633
:104DD900C007900D58E0FCE4123C1AD003D002D071
:104DE90001D000123AE9900D63123F3A900D5BE051
:104DF900FCA3E0FDA3E0FEA3E0FF900D63E0F8A3B0
:104E0900E0F9A3E0FAA3E0FB1239E0900D67123F45
:104E19003A900D56E0FCFFC007E4123C1A900D636E
:104E2900E0F8A3E0F9A3E0FAA3E0FB1238EF123CA3
:104E39004EAB07C003900D57E0FCE4123C1A900DED
:104E490067E0F8A3E0F9A3E0FAA3E0FB1238EF1258
:104E59003C4E900D8DEFF0900D57E0FDD003D0073B
:034E69000247827B
:104E6C00AC07AB05125B9CEC04FFEB04FD125BB7CB
:104E7C00EC2402FFEB04FD125BB7EC2403FFEB0404
:104E8C00FD125BB7EC2404FFEB04FD125BB7AF041F
:104E9C00EB04FD125BB7AF04EB2402FD125BB7AF62
:104EAC0004EB2403FD125BB7AF04EB2404FD125B8F
:104EBC00B7EC04FFEB04FD125BB7EC04FFEB240230
:104ECC00FD125BB7EC04FFEB2403FD125BB7EC04A3
:104EDC00FFEB2404FD125BB7741F2CFCFFAD031217
:104EEC005BB7EC14FF125BB7EC24FEFF125BB7EC64
:104EFC0024FDFF125BB7EC24FCFF125BB7EC14FF34
:104F0C00EB04FD125BB7EC24FEFFEB04FD125BB768
:104F1C00EC24FDFFEB04FD125BB7EC24FCFFEB046F
:104F2C00FD125BB7AF04EB04FD125BB7AF04EB24CF
:104F3C0002FD125BB7AF04EB2403FD125BB7AF04A9
:104F4C00EB2404FD125BB7EC14FFEB04FD125BB712
:104F5C00EC14FFEB2402FD125BB7EC14FFEB240303
:104F6C00FD125BB7EC14FFEB2404FD125BB7741F4E
:104F7C002BFBAF04FD125BB7EC14FF125BB7EC24F8
:104F8C00FEFF125BB7EC24FDFF125BB7EC24FCFFB9
:104F9C00125BB7EC14FFEB14FD125BB7EC24FEFFB5
:104FAC00125BB7EC24FDFF125BB7EC24FCFF125B29
:104FBC00B7AF04125BB7AF04EB24FEFD125BB7AFC7
:104FCC0004EB24FDFD125BB7AF04EB24FCFD125B7C
:104FDC00B7EC14FFEB14FD125BB7EC14FFEB24FEE3
:104FEC00FD125BB7EC14FFEB24FDFD125BB7EC1468
:104FFC00FFEB24FCFD125BB774E12CFCFFAD03123C
:10500C005B9CEC04FFEB14FD125BA2AF04125BB7CC
:10501C00AF04EB24FEFD125BB7AF04EB24FDFD12D5
:10502C005BB7AF04EB24FCFD125BB7EC04FFEB1495
:10503C00FD125BB7EC04FFEB24FEFD125BB7EC0436
:10504C00FFEB24FDFD125BB7EC04FFEB24FCFD022F
:02505C005BB740
:1000A60000422418FF7E240020306EA1A16E30206D
:1000B600F8ECEAE9F89898F8000C0CFFFFCCCC00B5
:1000C600FF8181818181818181818181818181819C
:1000D6008181818181FF3C3C4D6F6E2E20005475DD
:1000E60065732E005765642E2000546875722E00C5
:1000F6004672692E20005361742E200053756E2EB1
:1001060020000000000000000000000000000000C9
:1001160080C0C0C0800000000000003E7F3FFFFF9F
:10012600FFFFFFFFFFFF3F7F3E0000000000008053
:10013600C0C0808000000000000000000000000039
:10014600000000000000000000000000000E3F7FDD
:100156003F3F1F1F0F8E84C0C0E0E0E0E0F0F3F3E6
:10016600F3F3F3F3F3F3F0E0E0E0E0C0C0848F0FC5
:100176001F1F3F7F7F1F0E000000000000000000D1
:1001860000000000000000000000000080C0E0F059
:10019600F8FCFE7F3F1F0F0F07078383C3C1C1E132
:1001A600E1E1E1E1E1C1C1C3838307070F0F1F3F0F
:1001B6007FFEFCF8F0E0C0800000000000000000B8
:1001C600000000000000000000E0F8FEFFFF3F0F07
:1001D600030100C0F0F8FCFEFFFFFFFFFFFFFFFF7B
:1001E600FFFFFFFFFFFF7F7F3F3F3FFFFEFCF8F073
:1001F600C00001030F3FFFFFFEF8E0000000000013
:100206000000000000000000FEFFFFFFFF010000ED
:1002160000F8FFFFFFFFFFFFFFFFFFFFFFFFFF8766
:10022600070301010000C0E0F8FCFFFFFFFFFFFF2E
:10023600FFFFF800000001FFFFFFFFFE00000000C7
:100246000000000000000000077FFFFFFFF8C0006D
:1002560000010F3FFFFFFFFFFFFFFFFFFFFFFFFF55
:10026600FFFEFEFEFEFFFFFFFFFFFFFFFFFFFFFF9C
:100276003F0F010000C0F8FFFFFF7F0700000000EE
:100286000000000000000000000001071F3F7FFF84
:10029600FCF8F0E0C08103070F0F1F1F3F3F3F7FB1
:1002A6007F7F7F7F7F3F3F3F1F1F0F0F070381C069
:1002B600E0F0F8FCFF7F3F1F070100000000000090
:1002C6000000000000000000000000000000000028
:1002D6000103070F0F1F1F3F3E7E7C7C7CF8F8F85A
:1002E600F8F8F8F8F8F8F87C7C7C7E3E3F1F1F0F84
:1002F6000F070301000000000000000000000000DE
:100306000000000000000000000000000000008067
:10031600C0C0E0E0F0F0F8F8FCFCFCFCFEFEFE7E5F
:100326003E3E1E1E3E3E7EFEFCFCFCFCF8F8F0F057
:10033600E0E0C0C0800000000000000000000000F7
:100346000000000000000000C0E0F0F8FCFEFFFF27
:10035600FFFFFFFFFFFFFFFFFFFFFFFFFFFFFFE0C6
:10036600C08080808080C0F0FFFFFFFFFFFFFFFF9F
:10037600FFFFFFFFFFFFFEFCF8F0E0C000000000FB
:100386000000000080F0FCFFFFFFFFFFFFFFFFFF04
:10039600FFFFFFFFFFFFFF7F3F1F1F0F070707033B
:1003A6000301010101030FFFFFFFFFFFFFFFFFFF37
:1003B600FFFFFFFFFFFFFFFFFFFFFFFFFFFCF080D8
:1003C600000000F8FFFFFFFFFFFFFFFFFFFFFFFF3B
:1003D600FFFFFFFFFF0F000000000000F8FC000019
:1003E60000000000C0808000030303030301818135
:1003F600C3FFFFFFFFFFFFFFFFFFFFFFFFFFFFFF43
:10040600F800001FFFFFFFFFFFFFFFFFFFFFFFFFDB
:10041600FFFFFFFFFFFFFCFCFCFCFCFFFF7F000073
:100426000000000000030F3F7FFFFFFFFFFFFFFFFD
:10043600FFFFFFFFFFFFFFFFFFFFFFFFFFFFFFFFC6
:100446001F000000010F3FFFFFFFFFFFFFFFFFFF41
:10045600FFFFFFFFFFFFFFFFFF7F3F0F03000000CF
:1004660000C0F0F8E08000000001071F7FFFFFFFDB
:10047600FFFFFFFFFFFFFFFFFFFFFFFFFF3F0F0134
:10048600000000000000000003070F1F3F7FFFFF72
:10049600FFFFFF878303018180C0C0E0E0F0F8FE24
:1004A600FFFFFFFFFFFFFEE0000000000007FFFF69
:1004B600FFFFFFFFFFFF7F3F1F0F07030000000046
:1004C6000000000000000000000000000000000125
:1004D600030307070F0F1F1F1F3F3F3F3F7F7F7F0E
:1004E6007F7F7F7F7F7F7F3F3F3E3E1E1E1F0F0F1A
:1004F60007070303010000000000000000000000E1
:1005060000000000000000000000000000000000E5
:10051600000000000000000000000000E0F8FC1CE5
:100526000E0E0E0E1C7CF8F000000000000000000D
:1005360000000000000000000000000000000000B5
:1005460000000000000000000000000000000000A5
:10055600000000000000000000000000FFFFFF0098
:1005660000FEFE000000FFFF000084CECECECE00CF
:100576000000000000000000000000000000000075
:100586000000000000000000000000000000000065
:10059600000000000000000000000000FFFFFF0058
:1005A60000FFFF000000FFFF0000101919191800D6
:1005B6000000000000000000000000000000000035
:1005C6000000000000000000000000000000000025
:1005D600000000000000000000000000FFFFFF0018
:1005E60000FFFF000000FFFF000000000000000009
:1005F60000000000000000000000000000000000F5
:1006060000000000000000000000000000000000E4
:100616000000000000000080C0E0F0783F1F1F804F
:1006260080FFFF0000001F3F3870E0C08000000020
:1006360000000000000000000000000000000000B4
:1006460000000000000000000000000000000000A4
:10065600000000000000FEFF070140FCFEFFFFFF58
:10066600FFFFFFFEFCFCF080C0800107FFFEF000EC
:100676000000000000000000000000000000000074
:100686000000000000E0E0E060607030381C1C0EE6
:100696000E0606060604071F3E78E0C3CF8F9F3F6F
:1006A6003F3F3F3F3F9F9FCFC7E1783E1F0F060664
:1006B600060606060E0C1C1838707060E0E0E04076
:1006C60000000000000060606060703038181C0E8A
:1006D6000E06070707070706060E1C1D3933737338
:1006E6006767676763737333391C0C0E0606070763
:1006F600070707060E0E1C18383070606060600031
:1007060000000000000000000000000000000000E3
:1007160000000080E0F8FCFEFF3F0E000000000035
:1007260000000000000000000000000000000000C3
:1007360000000000000000000000000000000000B3
:10074600000000000000000000000000000000C0E3
:10075600F0F8FEFF7F1F0703000000000000000006
:100766000000000000000000000000000000000083
:100776000000000000000000000000000000000073
:10078600000000000000C0F0F0F0F8F8F8F8F9F901
:10079600F9F9F9F9F8F8F8F8F8F8F8F8F8F8F8F8CF
:1007A600F8F8F8F8F8F8F8F8F8F8F8F8F8F8F8F8C3
:1007B600F8F8F8F8F8F8F8F8F8F8F0F0E080000043
:1007C600000000000000FFFFFFC3810000000000E2
:1007D6000000000000000000000000000000000013
:1007E6000080C1FFFFFFFFFFFF3F3F1F0F0F0F07F7
:1007F6000707070F0F1F1F3F7FFFFFFFFFFF0000C9
:10080600000000000000FFFFFFFFFFFFFFFFFFFFEC
:10081600FFFFFFFFFFFFFFFFFFFFFFFFFFFFFFFFE2
:10082600FFFFFFFFFFFFFF030000000000000000C6
:1008360000000000000000000001FFFFFFFF0000B5
:10084600000000000000FFFFFFFFFFFFFFFFFFFFAC
:10085600FFFFFFFFFFFFFFFFFFFFFFFFFFFFFFFFA2
:10086600FFFFFFFFFFFFFFFFFCF8F0E0C0C0C08006
:100876008080C0C0C0E0E0F0F8FEFFFFFFFF000090
:100886000000000000000007070F0F0F0F0F0F0FEB
:100896000F0F0F0F0F0F0F0F0F0F0F0F0F0F0F0F62
:1008A6000F0F0F0F0F0F0F0F0F0F0F0F0F0F0F0F52
:1008B6000F0F0F0F0F0F0F0F0F0F0707030000008B
:1008C6000000000000000000000000000000000022
:1008D6000000000000000000000000000000000012
:1008E6000000000000000000000000000000000002
:1008F60000000000000000000000000000000000F2
:10090600000000000000000000000000000080C0A1
:10091600C0E0707038381C9C9C8ECECECEC6C7C741
:10092600E7E7E7E7C7C7C6CECECE8E9C1C1C383895
:1009360070F0E0C0C0800000000000000000000071
:100946000000000000000080E0F0783C1E87C7E34E
:10095600F1F8FCFCFEFFFFFFFFFFFFFFFFFFFFFFBD
:10096600FF0000FFFFFFFFFFFFFFFFFFFFFFFFFE90
:10097600FCFCF8F1E3C78F1E3C78F0E08000000035
:1009860000000000F0FC7F0F03C1F8FCFFFFFFFF33
:10099600FFFFFFFFFFFFFFFFFFFFFFFFFFFFFFFF61
:1009A600FFFCFC7F3F3F1F1F0F0F0707030381E17B
:1009B600F8FEFFFFFFFFFFFFFCF0C1071FFEFCE094
:1009C6000000E0FFFF0700E0FEFF7F7F7F7F7F7F65
:1009D6007F7F7F7FFFFFFFFFFFFFFF3F1F07C7E30D
:1009E600C1800000000000000000C0E0F8FEFFFF2C
:1009F6007F7F7F7F7F7F7F7F7F7FFFFE00000FFFF0
:100A0600FF0007FFFFF000037FFFFEFEFEFEFEFE77
:100A1600FEFEFEFEFFFF3F1F07C1F0F8FEFF7F7FD1
:100A26003F1F9F8EC4E0F0F8FCFFFFFFFFFFFFFFB4
:100A3600FEFEFEFEFEFEFEFEFEFEFF7F0000F0FF57
:100A4600FF000000073FFEF0C0830F3FFFFFFFFFE0
:100A5600FFFF3F0F8380C0C4E7E3F3F1F8FCFCFE21
:100A6600FE3F3FFFFFFFFFFFFFFFFFFFFFFFFFFF11
:100A7600FFFFFFFFFFFFFF7F3F0F83E0F87F1F07AA
:100A86000000000000000001070F1E3C78F1E3C7DC
:100A96008F1F3F3F7F7FFFFFFFFFFFFFFFFFFFFF30
:100AA600FF0000FFFFFFFFFFFFFFFFFFFFFF7F7F4E
:100AB6003F3F1F8FC7E3F1783C1E0F030100000084
:100AC600000000000000000000000000000001031C
:100AD60003070F0E1C1C1838397173737363636731
:100AE600E3E3E3E36363637373737139381C1C1CBC
:100AF6000E070703030100000000000000000000CD
:100B0600000000000000000000000000000080C09F
:100B1600E0E0F0F0F8F8FCFCFCFEFEFEFEFFFFFF56
:100B2600FFFFFFFFFFFFFFFEFEFEFEFCFCFCF8F8EA
:100B3600F0F0E0E0C08000000000000000000000CF
:100B46000000000000000080E0F0F8FCFEFFFFFF60
:100B5600FFFFFFFFFFFF7F7FFFFFFFFFFFFFFFFF9F
:100B6600000000008103070F1F3F7FFFFFFFFFFF0D
:100B7600FFFFFFFFFFFFFFFEFCF8F0E08000000034
:100B860000000080F0FCFFFFFFFFFFFFFFFFFFFFFD
:100B9600FFFFFFFFFFFCF0E0C001070F1F7FFFFF15
:100BA60000000000FFFFFEFC783000000183C7FF55
:100BB600FFFFFFFFFFFFFFFFFFFFFFFFFFFFFCF051
:100BC6008000E0FFFFFFFFFFFFFFFFFFFFFFFFFFCC
:100BD600FFFFFFFFFFFFFFFFFFFFFEFCF0E0C0038C
:100BE600000000000783C1E0F0F8FCFEFFFFFFFFF6
:100BF600FFFFFFFFFFFFFFFFFFFFFFFFFFFFFFFFFF
:100C0600FFE007FFFFFFFFFFFFFFFFFFFFFFFFFF05
:100C1600FFFFFFFFFFFFFFFFFFFF7F3F0F0701C043
:100C260000000000E0C183070F1F3F7FFFFFFFFFAB
:100C3600FFFFFFFFFFFFFFFFFFFFFFFFFFFFFFFFBE
:100C4600FF070000073FFFFFFFFFFFFFFFFFFFFF5C
:100C5600FFFFFFFFFF3F0F0703C0E0F0FCFEFFFFB3
:100C660000000000FFFF7F3F1E0C0080C0E1F3FF85
:100C7600FFFFFFFFFFFFFFFFFFFFFFFFFFFF3F0736
:100C86000000000000000001070F1F3F7FFFFFFF6D
:100C9600FFFFFFFFFFFFFEFEFFFFFFFFFFFFFFFF60
:100CA60080000080C1E0F0F8FCFEFFFFFFFFFFFFC1
:100CB600FFFFFFFFFFFFFF7F3F1F0F070100000041
:100CC600000000000000000000000000000001031A
:100CD60003070F0F1F1F3F3F3F7F7F7F7F7FFFFF72
:100CE600FFFFFFFFFFFF7F7F7F7F7F3F3F3F1F1F8E
:100CF6000F0F0703030100000000000000000000C2
:100D060000000000000000000000000000000000DD
:100D16008080C0C0E0E0F0F0F8F8F8F8FC7C7C7C5D
:100D26007C7C7C7C7C7C7CFCF8F8F8F0F0F0E0E0E5
:100D3600C0C0800000000080C0E0E0C000000000ED
:100D4600000000000000000000C0E0F0F8FCFE7F9C
:100D56003F9FCFC7C7C3C3C181808000008080C0CA
:100D6600C0E0E0E0F0F0F0F07070F1F1F1F3E7E7E9
:100D7600CFDF9F3FFEFEFFFFEFC7830300000000AB
:100D86000000000000C0F0FCFFFF7F1F070100000D
:100D96003FFFFFFFC3030373FF7F3F1F1F3F3F7FDD
:100DA600FBF1E1E1C080000000000000000001034B
:100DB600071FFFFFFCE1030F3FFFFFFEF8E0000007
:100DC60000000000FCFFFFFFFF070000000000809E
:100DD600E0C1870F3F7FFCF8E0C0801E3EFEFEFCB0
:100DE600383971E3C78F1F3EFCF8F0E0C000000001
:100DF60080F0FFFF7F0F000000017FFFFFFFFFE095
:100E0600000000003FFFFFFFFFE000000000FCFFC6
:100E1600FF3F030000000003070F1F3E7CF8F1E3CD
:100E2600C7CE8C1C3F3F7E7C30010387DFFFFEFE72
:100E3600FFDF0F03000000000080FFFFFFFFFF033E
:100E46000000000000010F3FFFFFFFF8F0C08F3FDA
:100E5600FFFFF0E0C08080000000000000008183FA
:100E660087878F1F3E3C7C78F0F0E3E3E7C3C1C77A
:100E7600FFFFFF380080E0F0FCFFFF7F1F07000048
:100E86000000000000000080C0E1F3FFFF7F3F7E0E
:100E9600FCFDFBF3E7E7C7CF8F8F8F0F0F07070721
:100EA600070303030100000000808181C1C3E3F34F
:100EB600F1F9FCFE7F3F1F0F070300000000000052
:100EC600000000000000000103030303000000000F
:100ED600000101030307070F0F0F1F1F1F1F1F3FEF
:100EE6003F3E3F3F1F1F1F1F1F1F0F0F0F07070309
:100EF60003010000000000000000000000000000E8
:100F060000000000000000000000000000000000DB
:100F160000000000000000000000000000000000CB
:100F260000000000000080C0E0E0E0C08000003E5D
:100F36007F7F3E0000000080C0C0E0E0C0000000EF
:100F4600000000000000000000000000000000009B
:100F5600000000000000000000000000000000008B
:100F66000000E0E0C0870F1F3F7FFFFFFFFFFEFC92
:100F7600F8F0E0C08000060F0F070703808080802E
:100F860080000000000000000000000000000000DB
:100F9600000000000000000000000000000000004B
:100FA60060FFFFFFFFFFFFFEFCF8F0E1C3870F1FA6
:100FB6003F7FFFFFFFFFFEFCF8F0E0C38707070750
:100FC6000703000000000000000000000000000011
:100FD60000000080C0E0F0F8F8F0E0F0F8FCFCF863
:100FE600F0E0C3870F1F3F7FFFFFFFFFFFFFFFFEFE
:100FF600FCF8F0E1C3070F1F1F1F0F0703000000D7
:1010060000000000000000000000000000000000DA
:1010160080CEFFFFFFFFFFFFFFFFFFFFFFFFFFFF8A
:10102600FFFFFFFFFF7E3C180000010303010101E3
:1010360001010000000000000000000000000000A8
:10104600000000000000000080C0E0F0F8FCFEFF99
:10105600FFFFFFFFFFFFFFFFFFFFFFFFFF7F3F1FBA
:101066000F07030100000000000000000000000060
:10107600000000000000000000000000000000006A
:101086000000E0F0F8FCFEFFFFFFFFFFFFFFFFFFA1
:10109600FFFFFFFFFF7F3F1F0F0703010000000058
:1010A600000000000000000000000000000000003A
:1010B600000000000000000000000000000000002A
:1010C6000000000103070F1F3F7FFFFFFF7F3F1F49
:1010D6000F070301000000000000000000000000F0
:1010E60000000000000000000000000000000000FA
:1010F60000000000000000000000000000000000EA
:101106000000000000C0C0C0707070707070707019
:1011160000F0F0F0808080000000F0F0F00080F039
:10112600F07070707070F0F08000F0F0F000000069
:1011360080F0F070008080F07070707070707000D9
:1011460000000000003F3F3FE0E0E0E0E0C0C0C03C
:1011560000FFFFFF071F1FFCF0F0FFFFFF00FFFF70
:10116600FFE0E0E0E0E0FFFFFF00FFFFFFF0FCFC38
:101176009F03030000FFFFFFE0E0E0E0E0E0000087
:101186000000000000E0E0E0E0E0E0E0E07F7F7FDC
:1011960000FFFFFF000000000000FFFFFF00FFFF51
:1011A600FF0000000000FFFFFF00FFFFFF0003033A
:1011B6001FFCFCE0001F1FFFE0E0E0E0E0E0E000D5
:1011C6000000000000000000000000000000000019
:1011D6000000000000000000000000000000000009
:1011E60000000000000000000000000000000000F9
:1011F60000000000000000000000000000000000E9
:1012060000000000000000000000000000000000D8
:1012160000000000000000000000000000000000C8
:1012260000000000000000000000C0C0C0C0C0C038
:10123600C0C0C0C000000000F8F8F838383838F8E8
:10124600F8F80000000000000000000000000000A8
:10125600000000003C3C3C3C0000003C3C3C3C3C6C
:101266003C3CFCFCFCFC00000000FFFFFF0303030A
:1012760003FFFFFF00000000FFFFFF00000000FF6C
:10128600FFFF00000000000000000000000000005A
:101296000000000000000000000000000000000048
:1012A60000001F1F1F1F1E1E1E1E1F1F1F000000E7
:1012B60000FFFFFFE0E0E0E0FFFFFF00000000FFAF
:1012C600FFFF00000000000000000000000000001A
:1012D6000000000000000000000000000000000008
:1012E60000000000000000000000000000000000F8
:1012F6000001010101010101010101000000001FBF
:101306001F1F000000000000000000000080808019
:101316008000000000000000000000C0F8FEFE3F54
:101326000F0F0F0F1FFFFEFCE00000000000000083
:101336000000808080808000000000000000000027
:10134600000000000000000000F8FCFEFF9F0F07F1
:10135600070F1F1E3E7C78783C3C1E1F1F0F0300A4
:101366000000000000030F1F1F1E3C3C78787C3EE7
:101376001E1F0F07070F9FFFFEFCF800000000006E
:1013860000000000000000000000030FDFFFFEF871
:101396003000000000000000000080C0E0E0E0F047
:1013A600F0F0F0F0F0E0E0E0C080000000000000A7
:1013B60000000030FCFEFFDF070300000000000015
:1013C6000000E0F8F8FC3C3C1E1E1E1F1F0F070025
:1013D600000000000000E0FCFEFF1F070301010003
:1013E6000000000000010103071FFFFEFCF00000E3
:1013F6000000000000070F1F1F1E1E1E3C3CFCF8CD
:10140600F8F00F1F3F3F3C3C787878F8F0F0E000AA
:10141600000000000000073F7FFFF8E0C08080006A
:1014260000000000008080C0E0F8FF7F3F0F000052
:101436000000000000E0F0F0F8787878783C3F3F54
:101446001F0F0000000000000000C0F0FFFF7F1F1C
:101456000C00000000000000000001030707070F52
:101466000F0F0F0F0F070707030101000000000011
:101476000000000C3F7FFFFFE0C0000000000000FE
:101486000000000000000000001F3F7FFFF9F0E0B1
:10149600E0F0F8787C3E1E1E3C3C78F8F8F0C00080
:1014A6000000000000C0F0F8F8783C3C1E3E3C7C92
:1014B60078F8F0E0E0F0F9FF7F3F1F000000000041
:1014C6000000000000000000000000000001010113
:1014D6000101000000000000000000031F7F7FFCE8
:1014E600F0F0F0F0F8FF7F3F07000000000000007A
:1014F60000000101010101000000000000000000E1
:10150600000000000080E060000000000000000015
:1015160000FEFE020606060E0C1C183060C0800097
:1015260000000000000000000000000000000000B5
:101536003C7C7E7E7C18000000000000000000005D
:10154600000000000000000000000000000000FE97
:10155600FEF3F30EFE00B0B0B00000000000000085
:10156600000000000000000080E0F8FE3F0F0300CE
:101576000000000000000000000000000000000065
:10158600000080FC1F030100000000020E3C78F8FA
:10159600F0E0E0C000000000000000000001073F8E
:1015A600F800000000000000000000F0FCFC1E0E29
:1015B600FFFFFFFFFFE0C0C0E0F07000000000008A
:1015C600000000000000000000000000000000FF16
:1015D600FFFFFF00FF0007070600000000000000F5
:1015E60000000000FCFC9E0E0F0F0F0E0E0E0E0EDE
:1015F6000E8EFEFEFEFE7E3E3E3E3E7E7EFEFCFCE9
:101606000000013FFCE08000000000000000000137
:101616000303030300000000000000000080E07EDA
:101626001F0000000000000000000003030380F01C
:10163600FFFF3F7FFEF8E080000000000000000092
:10164600000000000000000000000000F83CEEF77B
:10165600FFFFFFE0C78E3CF8C0000000000000005E
:1016660000000000FFFFFFFFFFFFFFFFFFFFFFFF80
:10167600FFFFFFFFFFE0C080808080C0C0F1FFFF5A
:1016860000000000000103070C1C18303060606089
:10169600606060606060603030181C0E07030100F7
:1016A600000000000000000000001E3E3F1F070370
:1016B6000301000000033F3F3F3000000000000030
:1016C6000000000CCCCCCC6677333333373F7D7BC0
:1016D600DFF7F7DFDF7F3F3733333333666ECCCC4C
:1016E600CC00000001030303030303030303030306
:1016F60003030303030303030303030303030301B6
:1017060000000000000000000000000000000000D3
:1017160000000000000080C040603010D878000053
:1017260000000000000000000040E0E0C0000000F3
:10173600FEFF0E1C3870E0C08000000000000000B4
:10174600000000000000000080C0C06020301010C3
:1017560098F87830F03EF6E060C080800000000027
:101766000000000000000000000000000000000073
:101776000000C090387CFCF8F0EFC0802010080014
:10178600000000000000000000000000C0E0F0D8EB
:101796008C04060203010180E0380C0701000000FA
:1017A600000000000000000000000003070F3E7C60
:1017B600FFFFE0F0781C1E07070300000000000092
:1017C6000000000000F0FC8F0F05040404E43C0F49
:1017D6000D0CF83F1910F0FF2060C1C38EFCE0002D
:1017E6000000000000000000000080C0E0E0C0E053
:1017F600C08F3F7FFFFEFCF9F3E7CF9F3F7E3D1989
:101806000101000000000000C0F0FCFFFFFFFFFF29
:101816007F7F7E3C180C06030000000000000000DD
:101826000000000000000000000080C0F0783E1FAD
:10183600FFFF03070E1CB8F0E040000000000000A8
:1018460000000000000F7CE183020604FF0F1898D9
:10185600F81F31B0E03C2F20202030B0F33F0F00BE
:10186600000000000080C0E0F0FBFFFFFFFFFFFF6D
:101876007F3F1F0E0400010101010000000000006F
:101886000000000000180E0F0F07070303010000F9
:101896000000000000000000000000000000000042
:1018A6000000000000000000000703010000000027
:1018B6003F7F381C0E0703010000000000000000F7
:1018C60000000000000000000103060C0F0EF81FC8
:1018D600191C16131818080C040603010000000052
:1018E60000001C3E7FFFFFFF7F3F1F0F0703010025
:1018F60000000000000000000000000000000000E2
:101906000000312E5365742074696D650000000077
:101916000000322E53657420616C61726D00000008
:101926000000332E4272696768746E657373000037
:101936000000342E53637265656E2074696D650010
:101946000000352E536C6565702074696D65000066
:101956000000362E496E7665727365000000000041
:101966000000372E446972656374696F6E0000006B
:101976000000382E42757A7A657200000000000079
:101986000000392E536F667420726573657400000B
:10199600000031302E506F77657220646F776E00CD
:1019A6000000C030088464221212122264840830B7
:1019B600C000071820434C88909090884C4320180C
:1019C600070044697361626C650000000000000056
:1019D60000004F6E6365000000000000000000007C
:1019E60000004576657279646179000000000000A8
:1019F60000005765656B6461790000000000000017
:101A0600000053706563696669632044617900006C
:101A16000000000038444438E018080404040810A4
:101A260000000000000000000F3060404040201021
:101A360000001060028C0000FE9292929292FE00CC
:101A460000000000FC242424FC252624FC24242455
:101A5600040000000000000000000000000000007C
:101A6600000004047E01407E42427E427E42427E67
:101A7600400040308F80844C55252525554C80806C
:101A86008000000036360000000000000000000064
:101A960000001060028C00FE929292929292FE00DA
:101AA60000000000FC242424FC252624FC242424F5
:101AB600040000000000000000000000000000001C
:101AC600000004047E014448507F40407F50484453
:101AD600400040308F80844C55252525554C80800C
:101AE6008000000036360000000000000000000004
:101AF600000020104C4754545454545454D40404F5
:101B060000000000FE0282828282FA828282828243
:101B160002000000000000000000000000000000BD
:101B2600000000000000000000000000000F304030
:101B3600F00080601F40404040407F404044584095
:101B460040000000363600000000000000000000E3
:101B560000001060020CC01008F714549414F4042A
:101B66000000101010FF90401010F09F909196907A
:101B7600100000000000000000000000000000004F
:101B8600000004047C0300011D13115599513F11F7
:101B960001000242817F0040308F80432C102C438D
:101BA6008000000036360000000000000000000043
:101BB600000000000000000000000020202020FEA1
:101BC600000000FE80402010000000000000000021
:101BD6000000000000000000000000101008047F54
:101BE6000000003F40404070000000000000000080
:101BF6000000000008C8A8988EE888888888080031
:101C060000000020202020FE000000FE8040201062
:101C160000000020100C0040407F00000408300047
:101C2600000000101008047F0000003F4040407094
:101C360000000000000000000000000008C8A8988E
:101C46008EE88888888808000000000000000000F0
:101C5600000000000000000000000020100C004002
:101C6600407F000004083000000000000000000073
:101C76000000000008C8A8988EE8888888880800B0
:101C860000000008E8282868A83EA8682828E80870
:101C960000000020100C0040407F000004083000C7
:101CA600000000007F040505053F050545447F004B
:101CB600000000000000000000000008E828286876
:101CC600A83EA8682828E8080000000000000000D8
:101CD6000000000000000000000000007F04050571
:101CE600053F050545447F00000000000000000098
:101CF60000000004E42424FC242424FC2424E4041A
:101D060000000008E8282868A83EA8682828E808EF
:101D1600000000007F2824232020202324247F0085
:101D2600000000007F040505053F050545447F00CA
:101D3600000000000000000000000004E42424FC71
:101D4600242424FC2424E4040000000000000000F5
:101D56000000000000000000000000007F2824238F
:101D66002020202324247F00000000000000000023
:101D760000000004E42424FC242424FC2424E40499
:101D860000000020202020FE000000FE80402010E1
:101D9600000000007F2824232020202324247F0005
:101DA600000000101008047F0000003F4040407013
:101DB600000000000000000000000000000000001D
:101DC60000000000008080C040606020000000FF2E
:101DD6000C1860C0FF00000020606040C0C080801A
:101DE60000000000000000000000000000000000ED
:101DF600000000000000000000000080C0603018F5
:101E06000C060603010100000000000000000003AC
:101E160000000000010000000000000000000101B9
:101E26000306060C183060C08000000000000000A9
:101E36000000000000000080E0380E0301000000F2
:101E4600000000000000000000000000000000008C
:101E5600000000000000000000000000000000007C
:101E66000000000000000000030E3CF080000000AF
:101E760000000018F00080FBF100C0F80000000030
:101E8600000000000000000000000000000000004C
:101E9600000000000000000000000000000000003C
:101EA60000000000000000000000F8998B88080878
:101EB60000000000010F0FC0810F0F00000000009E
:101EC600000000000000000000000000000000000C
:101ED60000000000000000000000000000000000FC
:101EE600000000000000000000001F98D818181815
:101EF60000000000000000010F3C70C080000000E0
:101F060000000000000000000000000000000000CB
:101F160000000000000000000000000000000000BB
:101F26000000000000000000C0F03C0F03000000AD
:101F360000000000000000000000000103060C186D
:101F4600306060C08080000000000000000080C09B
:101F560040404040800000000000000000008080FB
:101F6600C0C06030180C060301000000000000002D
:101F7600000000000000000000000000000000005B
:101F8600000000000101030302060604000000230E
:101F96004246446C380000000406060603030101AD
:101FA600000000000000000000000000000000002B
:021FB600000029
:102C5D00410C15FDC105C10EC10BC103C104C10855
:102C6D00C100C18FC102C10CC10D420C1600004242
:102C7D000C110000420C0C0000C186C109C101C13C
:102C8D0007C10A410C1000410C0E00420C1300004C
:1061A100125DF37B017A0C7918125C451262A280B0
:0161B100FBF2
:1038E800023CBAE86480F8E933E83360110460F018
:1038F800ED33EC337009E8FCE9FDEAFEEBFF220446
:1039080060DED3EB9FEA9EE99DE8C2E78CF0C2F740
:1039180095F0400CE8CCF8E9CDF9EACEFAEBCFFB0C
:10392800123C8585D0F05804700320D5B3E80470A4
:10393800075002B2D5023CC492D5EC0460F7E4CC3F
:10394800C0E0C398F8603B94186008400DD0E0FBD5
:10395800023C9CE4FBFAC9FC8028E830E406E4C990
:10396800FBE4CAFCE830E305E4C9CACBFCE8540729
:103978006010F8C3E913F9EA13FAEB13FBEC13FC34
:10398800D8F130F52FC3E49CFCEF9BFFEE9AFEEDD7
:1039980099FDD0E0FBEF4E4D4C701222DB03023C48
:1039A800C1EC2CFCEF33FFEE33FEED33FDED30E7D9
:1039B800EB023C9CEF2BFFEE3AFEED39FDD0E0FB2D
:1039C80050130BBB0003023CC4ED13FDEE13FEEFD6
:0839D80013FFEC13FC023C9C00
:1039E000EC4D6011E8497017ED33EC3304600DE4E1
:1039F000FCFFFEFD22E933E8330470F8023CBA1202
:103A00003C8558046009E4CC248150062850090202
:103A10003CC4284003023CC1C0E0EB4A7044B9807A
:103A200006D0E0FB023CB0EF4E701CBD8008EBFFFF
:103A3000EAFEE9FD80EBE98DF0A4FEE5F0023AC96B
:103A4000E9CDF9EAFEEBFFEF89F0A4FCE5F0CE89C1
:103A5000F0A42EFFE435F0CD89F0A42DFEE435F07E
:103A60008067EF4E7005BD80D780C3EF8BF0A4ACAC
:103A7000F0EE8BF0A42CFCE435F0F8EF8AF0A42CE7
:103A8000E5F038FCE433CB8DF0A42CFCE5F03BF8FA
:103A9000EE8AF0A42CFCE5F038F8E433CF89F0A4EA
:103AA0002CFCE5F038CF3400CE89F0A42FFFE5F0F0
:103AB0003EFEE433C98DF0A42EFEE5F039CD8AF048
:103AC000A42FFFE5F03EFEE43DFD33D0E0FB5007C0
:103AD0000BBB000F023CC4EC2CFCEF33FFEE33FEBB
:063AE000ED33FD023C9CE9
:103AE600023CC4EC5D046005E859047003023CBA6C
:103AF600123C85580460F6EC4860F2EC7004FDFE5A
:103B0600FF22C860DB2481C85009C39860025006B2
:103B1600023CC19850CAF582E9294B4A7005AB822E
:103B2600023CB075F0007C1A7880C3EF9BEE9AEDEC
:103B360099400DC3EF9BFFEE9AFEED99FDE842F02A
:103B4600DC23ACF0D0E0FFD0E0FED0E0FDAB82207D
:103B5600E7101BEB60BAEC2CFCEF33FFEE33FEED07
:103B660033FD023C9CE803F830E705C0F075F00031
:103B7600EF2FFFEE33FEED33FD40B830E7C280AAEB
:103B860074F8CC6480CCC86480C8F58204604FC3E6
:103B9600EB9FF5F0EA9E42F0E99D42F0E89C45F085
:103BA600603C501DE5825FFFE582D313CB5BCBF40F
:103BB6002B5582FB50280ABA002409B90020088038
:103BC6001DE5825BFBE582D313CF5FCFF4C3132FD2
:103BD6005582FF50090EBE00050DBD00010CC3EB5A
:103BE6009FF5F0EA9E42F0E99D42F0E89C45F060C0
:093BF60007CC4820E701B3EC22E2
:103BFF00ED33EC33600A047003BD8004ECB2E7FCD4
:013C0F002292
:103C100075F020800E75F010800575F0087D007E2F
:103C2000007F003392D530D503123EE0EC334010D4
:103C3000EF33FFEE33FEED33FDEC33FCD5F0ED2238
:0E3C4000E5F0247EA2D513CC92E7CDCEFF2274
:103C4E00EDD2E7CD33EC3392D524814006E4FFFE6E
:103C5E00FDFC22FCE4CFCECDCC24E0501174FF80CD
:103C6E00EDC3CC13CCCD13CDCE13CECF13CF04706A
:073C7E00F030D5DE023EE04C
:10580100023CBA22EDA2E7D2E7F9EC3340F260F3B1
:10581100B4FF08ED547F70E8023CC4F82481C2E073
:10582100C0E0F40428FAC313FCED92E7FD900DEDFE
:10583100123F3AEEA2E7E9BA7F02C31334009400A3
:10584100FA75F091A4E5F013F494FE8AF0A433E51F
:10585100F033248CD313FDE492E7FE7F007C3F7587
:105861008302ECC0E0F8EDC0E0F9EEC0E0FAEFC071
:10587100E0FB8583F0900DED123F0285F083123A33
:10588100E9D0E0FBD0E0FAD0E0F9D0E0F81238EF4F
:10589100ED6480FD30E7011CD583C7ED33CC33F8CF
:0C58A100D0E0A2E71328C313CC13FD22B3
:105249003A70FA83BCAAE9E43E81E0F8BF9DE9E639
:105259003F80000039283C1ABB9969663DA335E3B4
:10526900BF255DE73FC90FDB418DDBCCC44936EE75
:1052790045C9913FC5B0F83D3F800000C317F534DB
:10528900452FFA73C60AFDDD12535204A2E19211A9
:105299001420E0159052497404123CCF8030125307
:1052A9005230E102B21120E0EBA883A982900DF1FE
:1052B900123F3A8982888390525D7404123CCF85EB
:1052C90082F0900DF1123F1E85F0821239E0ED4C0B
:1052D9006007301104EC6480FC22125352C0E0A82C
:1052E90083A982900DF1123F3A8982888390528175
:1052F9007403123CCF8582F0900DF1123F1E85F0A8
:10530900821239E0900DF1E0CCF0A3E0CDF0A3E0FA
:10531900CEF0A3E0CFF09052717403123CCFD0824B
:105329008582F0900DF1123F1E85F082E58230E012
:1053390007123AE9B2118096EFCBFFEECAFEEDC92A
:10534900FDECC8FC123AE98085ED33EC547FCC338F
:10535900921124605007D0E0D0E0023CBA7B837AF6
:10536900F97922783E1239E0EDF933ECF8332481EA
:105379005011EFFBEEFA123C4E123C10ECB2E7FC76
:105389001238EFED33EC33602F2403F8C313FCED2F
:1053990092E7FDE82481E4501FECF8EDF9EEFAEF0D
:1053A900FB123C4EEF04C2E0FCF582123C1AECB24F
:1053B900E7FC1238EFE58203FAED33EC33600714AA
:0853C90013FCED92E7FDEA225E
:103C8500E9D2E7C933E833F892D5EDD2E7CD33EC85
:073C950033FC5002B2D522FE
:103C9C00EC30E7100FBF000C0EBE00080DBD000489
:103CAC000BEB6014A2D5EB13FCED92E7FD2274FF35
:103CBC00FCFDFEFF22E480F8A2D574FF13FC7D808E
:033CCC00E480EFA2
:103CCF00C0E0EFFBEEFAEDF9ECF81239E0D0E0F5D9
:103CDF00F0EFFBEEFAEDF9ECF8123F0EA3A3A3A35E
:103CEF00E8C0E0E9C0E0EAC0E0EBC0E0C0F01239A4
:103CFF00E0123F2AA3A3A3A31238EFD0F0D0E0FB2A
:0D3D0F00D0E0FAD0E0F9D0E0F8D5F0D422F1
:0300000002594E54
:0C594E00787FE4F6D8FD75814802599579
:103D1C00BB010689828A83E0225002E722BBFE02A5
:093D2C00E32289828A83E49322D8
:103D3500BB010CE58229F582E5833AF583E0225043
:103D450006E92582F8E622BBFE06E92582F8E2228D
:0D3D5500E58229F582E5833AF583E49322A7
:103D6200BB010689828A83F0225002F722BBFE0140
:023D7200F3223A
:103D7400F8BB010DE58229F582E5833AF583E8F085
:103D8400225006E92582C8F622BBFE05E92582C831
:023D9400F22219
:103D9600BC000BBE0029EF8DF084FFADF022E4CC11
:103DA600F875F008EF2FFFEE33FEEC33FCEE9DECDA
:103DB600984005FCEE9DFE0FD5F0E9E4CEFD22ED20
:103DC600F8F5F0EE8420D21CFEADF075F008EF2F6A
:103DD600FFED33FD4007985006D5F0F222C398FD5B
:053DE6000FD5F0EA22F8
:103DEB00C5F0F8A3E028F0C5F0F8E5821582700263
:063DFB001583E038F02200
:103E0100BB010A89828A83E0F5F0A3E0225006878C
:103E1100F009E71922BBFE07E3F5F009E31922894E
:0B3E2100828A83E493F5F07401932281
:103E2C00BB0110E58229F582E5833AF583E0F5F0D4
:103E3C00A3E0225009E92582F886F008E622BBFEB1
:103E4C000AE92582F8E2F5F008E222E5832AF583F7
:083E5C00E993F5F0A3E99322BC
:103E6400F8BB0111E58229F582E5833AF583E8F090
:103E7400E5F0A3F0225009E92582C8F608A6F0224D
:0D3E8400BBFE09E92582C8F2E5F008F22234
:103E9100E88FF0A4CC8BF0A42CFCE98EF0A42CFCD0
:103EA1008AF0EDA42CFCEA8EF0A4CDA8F08BF0A44E
:103EB1002DCC3825F0FDE98FF0A42CCD35F0FCEBAD
:103EC1008EF0A4FEA9F0EB8FF0A4CFC5F02ECD3972
:0F3ED100FEE43CFCEAA42DCE35F0FDE43CFC22DF
:105DAF00C2D5E830E70FB2D5E4C39BFBE49AFAE41F
:105DBF0099F9E498F8EC30E717B2D5125DE5123F88
:105DCF00B3E4C39BFBE49AFAE499F9E498F88003EF
:105DDF00123FB330D50DE4C39FFFE49EFEE49DFD5B
:045DEF00E49CFC2212
:0E3EE000C3E49FFFE49EFEE49DFDE49CFC22F3
:103EEE00E86010ECA2E713FCED13FDEE13FEEF13EA
:043EFE00FFD8F022D7
:0C3F0200E0FCA3E0FDA3E0FEA3E0FF2232
:103F0E00E493FC740193FD740293FE740393FF22F9
:0C3F1E00E0F8A3E0F9A3E0FAA3E0FB2226
:103F2A00E493F8740193F9740293FA740393FB22ED
:0C3F3A00ECF0A3EDF0A3EEF0A3EFF022FA
:103F4600A8828583F0D083D082123F5D123F5D1236
:103F56003F5D123F5DE473E493A3C583C5F0C5835B
:103F6600C8C582C8F0A3C583C5F0C583C8C582C8C5
:013F76002228
:10595A000261A1E493A3F8E493A34003F68001F261
:10596A0008DFF48029E493A3F85407240CC8C3334E
:10597A00C4540F4420C8834004F456800146F6DF1D
:10598A00E4800B0102040810204080901FB8E47ED6
:10599A00019360BCA3FF543F30E509541FFEE49312
:1059AA00A360010ECF54C025E060A840B8E493A3D9
:1059BA00FAE493A3F8E493A3C8C582C8CAC583CA04
:1059CA00F0A3C8C582C8CAC583CADFE9DEE780BEBC
:012C9D000036
:103F770075F008758200EF2FFFEE33FECD33CDCC01
:103F870033CCC58233C5829BED9AEC99E582984084
:103F97000CF582EE9BFEED9AFDEC99FC0FD5F0D661
:103FA700E4CEFBE4CDFAE4CCF9A88222B800C1B98B
:103FB7000059BA002DEC8BF084CFCECDFCE5F0CBC9
:103FC700F97818EF2FFFEE33FEED33FDEC33FCEB02
:103FD70033FB10D703994004EB99FB0FD8E5E4F9BD
:103FE700FA227818EF2FFFEE33FEED33FDEC33FCAA
:103FF700C933C910D7059BE99A4007EC9BFCE99A9E
:10400700F90FD8E0E4C9FAE4CCFB2275F010EF2FE2
:10401700FFEE33FEED33FDCC33CCC833C810D707E2
:104027009BEC9AE899400AED9BFDEC9AFCE899F81D
:0E4037000FD5F0DAE4CDFBE4CCFAE4C8F922B0
:00000001FF
