:108BD20041543A5354520D0A0041543A4F4B00410A
:108BE200543A454E440D0A0041543A454E44004120
:108BF200543A424155443D25640D0A004F4B2B53D4
:108C020065740041543A414456543D25640D0A00AE
:108C12006164765F74696D653A000D0A00436861AC
:108C22006E676564204E616D6520746F3A00415431
:108C32003A525353493F0D0A00525353493A0041A5
:108C4200542B524553540D0A004D7920626C7565C0
:108C5200746F6F74680000000000000000000000E4
:108C62000000000000000000000000000000000002
:108C7200000041543A4E414D453D000000000000C5
:0E8C82000000000000000000000000000000E4
:082E6D00C119410E2A00C11A2F
:10005E00901203EBF0A3EAF0A3E9F0901203E0FB99
:10006E00A3E0FAA3E0F91226CD601C2019FDD219E7
:10007E00901203E0FBA3E475F00112281BA9F0FA1D
:0D008E001226CDF59B80D4E4900E2AF022BE
:03004300029531F2
:10953100C0E0C083C082C0D075D008E59A30E10593
:10954100539AFDC219E59A30E057539AFE900E2ABC
:10955100E0FF04F074AA2FF582E4340DF583E59B56
:10956100F0900E2AE0FF24A9F582E4340DF583E0A2
:10957100B40A2E74A82FF582E4340DF583E0900E21
:109581002AB40D0AE024A8F582E4340D8008E02411
:10959100A9F582E4340DF583E4F0D21A900E2AE4A1
:0A95A100F0D0D0D082D083D0E032A9
:10A33C00901206EBF0A3EAF0A3E9F0301A1DC21A52
:10A34C00901206E0FBA3E0FAA3E0F8AC02AD037BAD
:0EA35C00017A0D79AA122BC07F01227F002208
:069706007B017D057C00E3
:10970C0090111BECF0A3EDF0901118EBF0A3EAF024
:10971C00A3E9F0C21A801E201A2790111B74FFF5C2
:10972C00F012280545F07002FF22901118E0FBA3FF
:10973C00E0FAA3E0F912005E7F0A7E0012A6C28056
:10974C00D6C21A901120E0FF7E0078AA7C0D7D0114
:10975C0090111DE0FBA3E0FAA3E0F9122D63EF706A
:07976C00037F01227F0022B0
:10A3EA0090111D74FFF0A3748BF0A374DBF0A374B7
:10A3FA0005F07BFF7A8B79D27D147C0012970CEFE3
:08A40A0060037F01227F0022A4
:10A4120090111D74FFF0A3748BF0A374EAF0A3747F
:10A4220006F07BFF7A8B79E17D147C0012970CEFAA
:08A4320060037F01227F00227C
:059A9D009010DFEFF066
:109AA20078E07C107D017BFF7A8C79587E007F0CF8
:109AB2001226A7900F6074FFF0A3748BF0A374F1C9
:109AC200F09010DFE0FF900F63E4F0A3EFF07B0172
:109AD2007A1079E012515490111D74FFF0A3748B27
:109AE200F0A374FEF0A37406F07A1079E0129706E0
:089AF200EF60037F01227F00F9
:019AFA002249
:0899160090109EEEF0A3EFF0AB
:10991E0078A07C107D017BFF7A8C79647E007F10AD
:10992E001226A7900F6074FFF0A3748CF0A3740539
:10993E00F090109EE0FFA3E0900F63CFF0A3EFF046
:10994E007B017A1079A012515490111D74FFF0A36F
:10995E00748CF0A37412F0A37409F07A1079A0122B
:0A996E009706EF60037F01227F00DF
:0199780022CC
:0B95AB00900FFCEBF0A3EAF0A3E9F046
:1095B60078FF7C0F7D017BFF7A8C79747E007F1C9F
:1095C6001226A7900FFCE0F9A3E0FAA3E090115150
:1095D600C9F0A3EAF0A3E9F07B017A0F79FF1297AD
:1095E600DF90115174FFF0A3748CF0A3741CF07B10
:1095F600017A0F79FF1297DF90111D74FFF0A374A3
:109606008CF0A3741FF0A37410F07B017A0F79FF1E
:0B961600129708EF60037F01227F0025
:019621002226
:10A4620090111D74FFF0A3748CF0A3743BF0A374DD
:10A4720005F07BFF7A8C7930FD7C0012970CEF603F
:07A48200037F01227F00228D
:09A9C6007BFF7A8C794102005EEE
:0AA98A00EFB40103C29622D2962218
:10896400E4901234F0C2967F32FE12A6C27B017AE2
:1089740000790812A11212A3EA901234E0FD9011BA
:10898400087401F0A37400F0A37408F0A37410F049
:10899400E4A3F0A3F07B017A0D79AAFF1260A790FB
:1089A4001234E02FF012A462EF901234605CE0FD08
:1089B4009011087401F0A37400F0A37408F0A37478
:1089C40010F0E4A3F0A3F07B017A0D79AAFF126002
:1089D400A7901234E02FF012A412901234E0FD900C
:1089E40011087401F0A37400F0A37408F0A37410C8
:1089F400F0E4A3F0A304F0FB7A0D79AAE4FF12607B
:108A0400A7901234E02FF07F0122E0FD901108744A
:108A140001F0A37400F0A37408F0A37410F0E4A3AD
:108A2400F0A304F0FB7A0D79AAE4FF1260A7901278
:068A340034E02FF07F008A
:018A3A002219
:10803B00E4901235F0D296C2967F64FE12A6C2125D
:10804B00A3EAEF602F901235E0FD9011087401F058
:10805B00A37400F0A37408F0A37410F0E4A3F0A3CE
:10806B0004F0FB7A0D79AAE4FF1260A7901235E0B9
:10807B002FF080037F00227F01129A9D901235E032
:10808B00FD9011087401F0A37400F0A37408F0A321
:10809B007410F0E4A3F0A304F0FB7A0D79AAE4FFCB
:1080AB001260A7901235E02FF07BFF7A8C794B1280
:1080BB0095AB901235E0FD9011087401F0A374009C
:1080CB00F0A37408F0A37410F0E4A3F0A304F0FB86
:1080DB007A0D79AAE4FF1260A7901235E02FF07F9A
:1080EB00B87E0B129916901235E0FD9011087401B1
:1080FB00F0A37400F0A37408F0A37410F0E4A3F0E1
:10810B00A304F0FB7A0D79AAE4FF1260A790123555
:10811B00E02FF012A412EF602F901235E0FD9011BA
:10812B00087401F0A37400F0A37408F0A37410F0AA
:10813B00E4A3F0A304F0FB7A0D79AAE4FF1260A785
:0F814B00901235E02FF080037F0022D2967F0143
:01815A002202
:10A6DC00D3EF9400EE9400400F7D187C55DCFEDD2A
:08A6EC00FCEF1F70EB1E80E87B
:01A6F4002243
:0AA6A80012A6B27F0212A6B27F10C4
:10A6B200ED6004D2938002C293C2C38F80D2C322C0
:10A63600AE07ED24B0FFE4FD12A6B2EE54F0C4540A
:0EA646000F4410FF12A6B2EE540FFF02A6B290
:10A7F700E4FD7F8D12A6B27F1412A6B27FAF02A628
:01A80700B29E
:0CA95000E4FD7F8D12A6AD7FAE02A6B222
:0EA8C800AE07E4FD7F8112A6B2AF0602A6B273
:10A80800EF6006E4FD7FA08004E4FD7FA112A6B2FC
:01A81800221D
:10A81900EF6006E4FD7FC08004E4FD7FC812A6B2A4
:01A82900220C
:10A82A00EF6006E4FD7FA78004E4FD7FA612A6B2CE
:01A83A0022FB
:10A61700E4FEEE24B0FFE4FD12A6A8E4FC7D01E40D
:0EA62700FF12A6B20CECB480F40EEEB408E400
:01A635002202
:109E4F00E4F541E54124B0FFE4FD12A6ADE4FF12B5
:109E5F00A6B2E54175F080A485F043F544E4F542E0
:109E6F007E00E5442542FFEE35438F82F5831226AF
:109E7F00E6FF7D0112A6B20542E542C3948040E0A1
:099E8F000541E541C3940840BA05
:019E980022A7
:10909F00D2927F147E0012A6DCC2927F0A7E00124B
:1090AF00A6DCD292D2C4E4FD7FAE12A6A87F4012F6
:1090BF00A6B27F8112A6B27F7F12A6B27FC812A678
:1090CF00B27FA112A6B27FA812A6B27F3F12A6B29C
:1090DF007FD312A6B2E4FF12A6B27FD512A6B27F3B
:1090EF008012A6B27FD912A6B27FF112A6B27FDA92
:1090FF0012A6B27F1212A6B27FDB12A6B27F401267
:10910F00A6B27F2012A6B27F0212A6B27F8D12A640
:10911F00B27F1412A6B27FA412A6B27FA612A6B275
:10912F007FAF12A6B212A6B212A617E4FDFF02A6D7
:01913F0036F9
:102E75004210230000421026000042102800404264
:102E8500102A908842102D000042102F0000421099
:102E95001D000041101C004110320041102C08415A
:072EA50010310841101B0071
:069B5600FFEEF0A3EFF0AA
:109B5C00901023E0FCA3E0FDEC901157F0A3EDF086
:109B6C00901026E0FCA3E0FDEC901159F0A3EDF071
:109B7C00901028E0FCA3E0FDEC90115BF0A3EDF05D
:109B8C0090102AE0FCA3E0FDEC90115DF0A3EDF049
:109B9C0043BA107B017A1179577D087F20129D0CF6
:039BAC0053BAEFBA
:019BAF002293
:1099790043BA107B017A1179DB7D047F2012A08420
:1099890053BAEF9011DBE0FF90102DE4F0A3EFF054
:10999900E07F00FE90102DF0A3EFF09011DCE0FDC8
:1099A900EDFF90102DEEF0A3EFF09011DDE0FF90A8
:1099B900102FE4F0A3EFF0E07F00FE90102FF0A34A
:1099C900EFF09011DEE0FDEDFF90102FEEF0A3EF28
:0199D900F09D
:0199DA00226A
:10984A00901024E04402F0129B5C7F0A7E0012A66C
:10985A00C290102374D0F0A3E4F090101CE075F0CD
:10986A0004A4FDACF0A3E0FEA3E07806C333CE3334
:10987A00CED8F9FFEE4CFEEF4DFF901032E0FDEF2F
:10988A004DFF901026EEF0A3EFF0E4A3F0A3F090C2
:10989A00102CE04480FE901031E0FD74804D901051
:0798AA002A129B567F0122E8
:10A43A00AD07AC06D3ED940FEC940040047C007D8C
:10A44A000F90102BE054F0F0ED540FFF90102AE01B
:08A45A00F0A3E04FF0029B5C4F
:028F4D00AD076E
:108F4F0090101BE07030901027E054EFF0EF90106E
:108F5F0023B40109E04402F0A3E0F08004E054FDE3
:108F6F00F0901023E04401F0A3E0F0129B5C90100E
:108F7F001BE004F0806D90101BE064017065129986
:108F8F007990102DE030E65B901023E054FEF090C6
:108F9F00102DE05403FEA3E0FF90101DEEF0A3EFA1
:108FAF00F0FDAC06E412231E7BCD7ACC79CC783D54
:108FBF001220E9E4FBFA79AE7842121FF890101FE5
:108FCF00122A6590102FE0C313543F901025F0E440
:108FDF0090101BF090101FE0FCA3E0FDA3E0FEA398
:088FEF00E0FF22E4FFFEFDFC9F
:018FF7002257
:108D43009011DF122A65901023E054FEF090102753
:108D5300E04410F0E4FFFE7D207C419011DFE0F859
:108D6300A3E0F9A3E0FAA3E0FB1220E97B007A80F9
:108D7300795978C4121FF812235790101DEEF0A3EF
:108D8300EFF07E00901027E0543FFF901026EEF0A6
:108D9300FCA3EFF0FD90101DE0FEA3E07806C333C3
:108DA300CE33CED8F9FFEC4EFEED4F901026129B3A
:108DB30056800F90102DE0A320E60C7F037E001257
:108DC300A6C212997980EC901027E054EFF090112D
:108DD300DFE0FCA3E0FDA3E0FEA3E0FF90101F1281
:0F8DE3002A6590102FE0C313543F901025F02203
:109F2A0012997990102DE05403FEA3E0FF90101DC2
:109F3A00EEF0A3EFF0FDAC06E412231E7BCD7ACC43
:109F4A0079CC783D1220E9E4FBFA79AE7842121F07
:109F5A00F890101F122A6590101FE0FCA3E0FDA3E1
:069F6A00E0FEA3E0FF226F
:10A2310012997990102FE0C313543F901025F0909C
:10A24100101DE0FCA3E0FDE412231E7BCD7ACC7946
:10A25100CC783D1220E9E4FBFA79AE7842121FF87E
:09A26100122357901025EFF022A2
:0AA99400901023E054BFF0029B5C1A
:0AA99E00901024E04401F0029B5CDD
:0AA9A800901024E054FEF0029B5CC6
:08A7570075F00A84E5F04EFDE7
:0DA75F00AE05AD07AF06AB077FA202A3C198
:07000300AD077FA212A1F777
:01000A0022D3
:04A183007B017D805F
:0DA1870090120AEDF0A3EBF0901209EFF03A
:10A19400120003AE0790120BE0FFB4010890120AFC
:10A1A400E04EFE800AEF700790120AE0F45EFE9023
:09A1B4001209E0FFAD0602A75FED
:0B849D0090110EEBF0A3EAF0A3E9F051
:1084A8009011917401F0A37411F0A37411F07B077B
:1084B8007D027FA2129697901111E0547FF0E0FFA1
:1084C800C4540F75F00AA4FEEF540F2EFF90110E3E
:1084D800E0FBA3E0FAA3E0F9EF122746901112E0BF
:1084E800547FF0E0FFC4540F75F00AA4FEEF540F58
:1084F8002EFF90110EE0FBA3E0FAA3E0F990000133
:10850800EF122758901113E0543FF0E0FFC4540FC6
:1085180075F00AA4FEEF540F2E900002122758900F
:108528001114E0543FF0E0FFC4540F75F00AA4FEA4
:10853800EF540F2E900004122758901115E054079D
:10854800F070037407F0901115E0FF90110EE0FB36
:10855800A3E0FAA3E0F9900003EF12275890111650
:10856800E0FF30E0089000087401122713EF541F51
:10857800901116F0E0FFC4540F75F00AA4FEEF54F2
:108588000F2E900005122758901117E024D0FFE411
:0A85980034079000068FF00228B3AC
:109E0200901224EFF0A3EDF0EB75F00A84C454F045
:109E1200FFEB75F00A84E5F04FFD7F0212A75F9019
:109E22001225E0FF75F00A84C454F0FEEF7F03129E
:109E3200A757901224E0FF75F00A84C454F0FEEF95
:0D9E420075F00A84E5F04EFD7F0402A75F75
:1098B1009011C2EEF0A3EFF0A3EDF0A3EBF0901145
:1098C100C3E02430F09011C2E034F8F0A3E0FD7F52
:1098D1000812A75F9011C4E0FF75F00A84C454F028
:1098E100FEEF7F0712A7579011C5E0FF75F00A84BC
:1098F100C454F0FEEF75F00A84E5F04EFD7F0512C9
:10990100A75F9011C6E0B40702E4F09011C6E0FD34
:059911007F0602A75FC4
:028B1000AE05B0
:108B1200E4901164F0A3F0A3F0EF75F00A84C4545A
:108B2200F04480FDEF75F00A84E5F04DFDEE75F03E
:108B32000A84C454F04480FFEE75F00A84E5F04FD5
:108B4200901164F0EB4480A3F0901162E0FF75F0A5
:108B52000A84C454F04480FEEF75F00A84E5F04EB6
:108B6200901166F0901163E0FF64026004EFB401BB
:108B720009ED547FFD9011648026901163E0FEB4EC
:108B8200030CED547FFDA3E0547FF0A38012EEB4FA
:108B92000412ED547FFD901164E0547FF090116651
:108BA200E0547FF07F0A12A75F901164E0FD7F0915
:108BB20012A75F901165E0FD7F0C12A75F9011660E
:108BC200E0FD7F0B12A75F7B017D027F0102A1877F
:09A9CF00E4FB7D087F0102A18771
:10A524007F0A12A1837F0912A1837B017D807F0CA6
:10A5340012A1877B017D807F0B12A187E4FB7D083C
:05A544007F0102A18768
:10A2A300901226EFF0A3EDF0E4FB7D807F0E12A168
:10A2B30087901226E0FD7F0E12A75F901227E0FD24
:10A2C3007F0F12A75F7B017D017F0112A1877B01B5
:07A2D3007D807F0E02A187D0
:09A9D800E4FB7D047F0102A1876C
:10A7D300E4FB7D017F0112A187E4FB7D807F0E02F4
:02A7E300A1874C
:09A9B2007F01120003EF540CFFB9
:01A9BB002279
:10A84C00AE05EEC433333354804FFD7F0D02A75F4A
:07AA3500E4FD7F0102A84CC3
:06AA4300000102040810EE
:102EAC00410F2500410EF905410F1405410F050591
:0C2EBC00410F1902410EF404410F1A00EE
:10A48900900EF4E025E025E0FF900F19E0FEC433BB
:0AA4990054E04FFFA3E04FFD7FF5F4
:0DA4A300AE05AD07AF06AB077FEC02A3C10D
:07AA0500AD077FEC12A1F781
:01AA0C002227
:0EA8D6007FD012AA05BF60037F01227F0022FF
:1086A40078247C117D017BFF7AAA79437E007F06C2
:1086B4001226A7900F14E0FFD39405501174242FB1
:1086C400F582E43411F583E0901121F080069011D5
:1086D400217410F0900F05E0FFD394055011742419
:1086E4002FF582E43411F583E0901122F080069096
:1086F40011227410F0900EF9E0FFD3940550117418
:10870400242FF582E43411F583E0901123F08006E0
:108714009011237410F0901122E0FCE41223237BC7
:10872400337A33791378401220E97B337A3379131F
:10873400783F121FF8C004C005C006C0079011217D
:10874400E0FCE41223237B337A337913784012203C
:10875400E9E4FBFA79A0783F121FF8D003D002D0E5
:1087640001D000121FF8C004C005C006C007901154
:1087740023E0FCE41223237B337A33791378401209
:1087840020E97B337A337913783F121FF8D003D072
:0D87940002D001D000121FF81223577E0002
:0187A10022B5
:1079B0009011917401F0A3740FF0A374DBF07B1AA3
:1079C0007D887FEC1296979011917401F0A3740F4B
:1079D000F0A374F5F07B077DE17FEC129697900F92
:1079E000DCE0FE900FDBE0FDEDFF900F0AEEF0A370
:1079F000EFF0900FDEE0FE900FDDE0FDEDFF900F69
:107A00000EEEF0A3EFF0900FE0E0FE900FDFE0FD50
:107A1000EDFF900F12EEF0A3EFF0900FE2E0FE907A
:107A20000FE1E0FDEDFF900EFFEEF0A3EFF0900F01
:107A3000E4E0FE900FE3E0FDEDFF900F01EEF0A318
:107A4000EFF0900FE6E0FE900FE5E0FDEDFF900F08
:107A500003EEF0A3EFF0900FE8E0FE900FE7E0FDFB
:107A6000EDFF900F06EEF0A3EFF0900FEAE0FE902E
:107A70000FE9E0FDEDFF900F08EEF0A3EFF0900F9F
:107A8000ECE0FE900FEBE0FDEDFF900F0CEEF0A3AD
:107A9000EFF0900FEEE0FE900FEDE0FDEDFF900FA8
:107AA00010EEF0A3EFF0900FF0E0FE900FEFE0FD8E
:107AB000EDFF900F15EEF0A3EFF0900FF2E0FE90C7
:107AC0000FF1E0FDEDFF900F17EEF0A3EFF0900F38
:107AD000F4E0900EF5F0900FF6E0FE900FF5E0FD6B
:107AE000EDFF900EF6EEF0A3EFF0900FF7E0900EA2
:107AF000F8F0900FF8E075F010A4FFA3E0FDEF4D53
:107B0000FF900EFAE5F0F0A3EFF0900FFAE075F0B9
:107B100010A4FF900FF9E0C4540FFDEF4DFF900E3D
:0F7B2000FCE5F0F0A3EFF0900FFBE0900EFEF00D
:017B2F002233
:10888C009011917401F0A37411F0A37467F07B083C
:10889C007DF77FEC129697901168E0FFE4FCFDFEEB
:1088AC007804122967C004C005C006C00790116780
:1088BC00E0FFE4FCFDFE780C122967D003D002D057
:1088CC0001D000EF4BFFEE4AFEED49FDEC48FCA851
:1088DC0004A905AA06AB07901169E0C4540FFFEB7D
:1088EC004FFFEAFEE9FDE8FC900F21122A6590117A
:1088FC006BE0FFE4FCFDFE7804122967C004C005A0
:10890C00C006C00790116AE0FFE4FCFDFE780C1273
:10891C002967D003D002D001D000EF4BFFEE4AFE06
:10892C00ED49FDEC48FCA804A905AA06AB0790117B
:10893C006CE0C4540FFFEB4FFFEAFEE9FDE8FC903E
:10894C000F1B122A6590116DE0FEA3E0FDEDFF9068
:07895C000F1FEEF0A3EFF086
:0189630022F1
:10734000901083122A71C2200000901087122A71B7
:1073500042AA0000900F1BE0FCA3E0FDA3E0FEA307
:10736000E0FFE4122319E4FBFA798078461221F257
:10737000C004C005C006C007900F0AE0FCA3E0FDF2
:10738000E412231EE4FBFA798078441221F2A80467
:10739000A905AA06AB07D007D006D005D004121F56
:1073A000F4901077122A65900F0EE0FCA3E0FDEC3C
:1073B00012231E901077E0F8A3E0F9A3E0FAA3E00F
:1073C000FB1220E9901077122A65900F1BE0FCA3B6
:1073D000E0FDA3E0FEA3E0FFE4122319E4FBFAF9C9
:1073E00078481221F2C004C005C006C007900F0AF9
:1073F000E0FCA3E0FDE412231EE4FBFAF978461258
:1074000021F2A804A905AA06AB07D007D006D0052B
:10741000D004121FF490107B122A65900F12E0FC2A
:10742000A3E0FDEC12231EC004C005C006C00790F7
:10743000107BE0FCA3E0FDA3E0FEA3E0FFA804A90D
:1074400005AA06FB1220E9D003D002D001D0001219
:1074500020E990107B122A6590107BE0FCA3E0FDF0
:10746000A3E0FEA3E0FF901077E0F8A3E0F9A3E02B
:10747000FAA3E0FB121FF8122357900F26122A6579
:1074800090107BE0FCA3E0FDA3E0FEA3E0FF9010E2
:1074900077E0F8A3E0F9A3E0FAA3E0FB121FF8E419
:1074A000FBFA79A078451221F290107F122A65909C
:1074B0001083E0FCA3E0FDA3E0FEA3E0FF90107FBB
:1074C000E0F8A3E0F9A3E0FAA3E0FB12228F500555
:1074D0009010838026901087E0FCA3E0FDA3E0FEDF
:1074E000A3E0FF90107FE0F8A3E0F9A3E0FAA3E0A7
:1074F000FB12228F60164014901087E0FCA3E0FD81
:10750000A3E0FEA3E0FF90107F122A6590107FE0B9
:0A751000FCA3E0FDA3E0FEA3E0FFF2
:01751A00224E
:10596F00901043122A7146EA6000901047122A7174
:10597F0047D6D800900F26E0FCA3E0FDA3E0FEA3DE
:10598F00E0FFEC122319E4FBFAF978401221F2E45C
:10599F00FBFA797A78C7121FF8901033122A6590A4
:1059AF000F0CE0FCA3E0FDEC12231EC004C005C0E9
:1059BF0006C007901033E0FCA3E0FDA3E0FEA3E0D8
:1059CF00FFA804A905AA06FB1220E9D003D002D034
:1059DF0001D0001220E9E4FBFAF978471221F29086
:1059EF001037122A65901037E0F8A3E0F9A3E0FA18
:1059FF00A3E0FBC000C001C002C003900F08E0FC91
:105A0F00A3E0FDEC12231E901033E0F8A3E0F9A3FE
:105A1F00E0FAA3E0FB1220E9E4FBFAF97840122048
:105A2F00E9D003D002D001D000121FF89010371226
:105A3F002A65900F06E0FCA3E0FDEC12231EE4FBA9
:105A4F00FA798078471220E9C004C005C006C00764
:105A5F00E4FBFA79807840901037E0FCA3E0FDA3D7
:105A6F00E0FEA3E0FF1221F2D003D002D001D0005C
:105A7F00121FF8901037122A65900F03E0FCA3E075
:105A8F00FDEC12231E901033E0F8A3E0F9A3E0FA27
:105A9F00A3E0FB1220E9901033E0F8A3E0F9A3E0B4
:105AAF00FAA3E0FB1220E9E4FBFAF978491221F29C
:105ABF0090103B122A65900F01E0FCA3E0FDEC1261
:105ACF00231E901033E0F8A3E0F9A3E0FAA3E0FB64
:105ADF001220E990103BE0F8A3E0F9A3E0FAA3E06D
:105AEF00FB121FF8E4FBFAF978491221F2901033F8
:105AFF00122A65E4FBFAF97847901033E0FCA3E033
:105B0F00FDA3E0FEA3E0FF1221F2E4FBFA79807817
:105B1F003F121FF8C004C005C006C007900EFFE07B
:105B2F00FCA3E0FDE412231ED003D002D001D0006D
:105B3F001220E9901033122A65E4FFFEFDFC90104D
:105B4F0033E0F8A3E0F9A3E0FAA3E0FB12228F60A1
:105B5F00025003025D05900F21E0FCA3E0FDA3E0DE
:105B6F00FEA3E0FFE4122319A804A905AA06AB07B8
:105B7F00E4FFFE7D807C49121FF490103F122A65CE
:105B8F00E4FBFA79807845901037E0FCA3E0FDA3A1
:105B9F00E0FEA3E0FF1221F2A804A905AA06AB07B5
:105BAF0090103FE0FCA3E0FDA3E0FEA3E0FF121F77
:105BBF00F47B007A5079C378451220E9901033E0D6
:105BCF00F8A3E0F9A3E0FAA3E0FB1221F290103F53
:105BDF00122A65900F17E0FCA3E0FDEC12231E9034
:105BEF00103FE0F8A3E0F9A3E0FAA3E0FB1220E9ED
:105BFF0090103FE0F8A3E0F9A3E0FAA3E0FB122036
:105C0F00E9E4FBFAF9784F1221F2901033122A656A
:105C1F00900F15E0FCA3E0FDEC12231E90103FE067
:105C2F00F8A3E0F9A3E0FAA3E0FB1220E9E4FBFA02
:105C3F00F978471221F2901037122A6590103FE041
:105C4F00F8A3E0F9A3E0FAA3E0FBC000C001C00293
:105C5F00C003900F10E0FCA3E0FDEC12231EC00464
:105C6F00C005C006C007901037E0FCA3E0FDA3E01D
:105C7F00FEA3E0FF901033E0F8A3E0F9A3E0FAA34E
:105C8F00E0FB121FF8D003D002D001D000121FF892
:105C9F00E4FBFA798078411221F2D003D002D001CF
:105CAF00D000121FF890103F122A65901043E0FCAD
:105CBF00A3E0FDA3E0FEA3E0FF90103FE0F8A3E018
:105CCF00F9A3E0FAA3E0FB12228F50028028901074
:105CDF0047E0FCA3E0FDA3E0FEA3E0FF90103FE050
:105CEF00F8A3E0F9A3E0FAA3E0FB12228F601B40B8
:105CFF00199010478003901043E0FCA3E0FDA3E050
:105D0F00FEA3E0FF90103F122A6590103FE0FCA326
:085D1F00E0FDA3E0FEA3E0FF9C
:015D27002259
:1068D300900FBB122A7100000000900FBF122A71A3
:1068E30042C80000900F26E0FCA3E0FDA3E0FEA356
:1068F300E0FFEC122319E4FBFA799678C7121FF82C
:10690300900FC3122A65900EFCE0FCA3E0FDEC128D
:10691300231EE4FBFA798078461221F2900FC3E03C
:10692300F8A3E0F9A3E0FAA3E0FB1220E9C004C056
:1069330005C006C007900EFAE0FCA3E0FDEC1223AD
:106943001EE4FBFA798078421220E9D003D002D00A
:1069530001D000121FF8900FC7122A65900F1FE095
:10696300FCA3E0FDE412231E900FC7E0F8A3E0F9B7
:10697300A3E0FAA3E0FB121FF4900FCB122A659059
:106983000EF6E0FCA3E0FDEC12231EE4FBFA798093
:1069930078471221F2900FCF122A65900EF8E0FC8F
:1069A300E4122323E4FBFA7980784C1221F2900F4E
:1069B300C3E0F8A3E0F9A3E0FAA3E0FB1220E9E4C3
:1069C300FBFA7980783F121FF8900FD3122A659053
:1069D3000EFEE0FC122323E4FBFA7980784C1221AB
:1069E300F2900FC3E0F8A3E0F9A3E0FAA3E0FB12EF
:1069F30020E9900FD3E0F8A3E0F9A3E0FAA3E0FBCA
:106A03001220E9E4FBFA7980783F121FF8900FD740
:106A1300122A65900FD7E0FCA3E0FDA3E0FEA3E0FC
:106A2300FF900FD3E0F8A3E0F9A3E0FAA3E0FB1291
:106A330020E9C004C005C006C007900FCFE0FCA347
:106A4300E0FDA3E0FEA3E0FF900FCBE0F8A3E0F9A5
:106A5300A3E0FAA3E0FB1220E9D003D002D001D0D7
:106A6300001220E9900FD7122A65900EF5E0FCE49E
:106A7300122323900FD7E0F8A3E0F9A3E0FAA3E0F1
:106A8300FB1220E9E4FBFAF978491221F2A804A9E0
:106A930005AA06AB07E4FFFE7D807C3F121FF4903E
:106AA3000FD7E0F8A3E0F9A3E0FAA3E0FB1220E993
:106AB300900FB7122A65900FBFE0FCA3E0FDA3E09F
:106AC300FEA3E0FF900FB7E0F8A3E0F9A3E0FAA379
:106AD300E0FB12228F60074005900FBF8024900FC8
:106AE300BBE0FCA3E0FDA3E0FEA3E0FF900FB7E053
:106AF300F8A3E0F9A3E0FAA3E0FB12228F5014906D
:106B03000FBBE0FCA3E0FDA3E0FEA3E0FF900FB703
:106B1300122A65900FB7E0FCA3E0FDA3E0FEA3E01B
:016B2300FF72
:016B2400224E
:109EE30090120CEBF0A3EAF0A3E9F012888C127342
:109EF3004090120CE0FBA3E0FAA3E0F91229CA1286
:109F0300596F90120CE0FBA3E0FAA3E0F990000470
:109F13001229E41268D390120CE0FBA3E0FAA3E049
:079F2300F99000080229E497
:0EA8E4007DB67FE012A4A37F057E0002A6C20F
:109C0A0090123674C8F07F057E0012A6C212A8D63A
:109C1A00EF70107F01FE12A6C2901236E014F070A7
:109C2A00ECFF2212A8E41279B012A489900EF9E08E
:109C3A00FD7FF212A4A3900F05E025E025E0FF9036
:109C4A000F14E0FEC43354E04FFF900F25E04FFDA0
:079C5A007FF412A4A37F01B7
:019C610022E0
:10A65400900F25EFF0900F05E025E025E0FE900F28
:0EA6640014E0C43354E04E4FFD7FF402A4A373
:10A5490090120FEBF0A3EAF0A3E9F07F0112A654F1
:10A559001286A412A6C290120FE0FBA3E0FAA3E0B0
:04A56900F9029EE372
:10A76C00EFD3940740027F07900F19EFF012A489E2
:05A77C007F0302A6545A
:10A5F700746865206D6172697820636F756C64207B
:10A607006E6F7420626520736F6C7665640D0A0047
:102EC800580C08000000000000000000000000008E
:102ED8000000000000000000000000420C2000007C
:109AFB00FF900C2275F01CED122AA2EC75F01CA441
:109B0B002583F583E5822FF582E5833EF583E0FC23
:099B1B00A3E0FDA3E0FEA3E0FFBE
:109B24009011E3122A65E4FFFEFDFC9011E3E0F8D6
:109B3400A3E0F9A3E0FAA3E0FB12228F9011E3E083
:109B4400FCA3E0FDA3E0FEA3E0FF50051223088080
:029B54000022ED
:109F7000E4901228F0E4901229F0901229E0FFC337
:109F800094075027901228E075F01CA42422F58233
:109F9000E4340CF58375F004EF122AA2122A710042
:109FA000000000901229E004F080CF901228E00415
:059FB000F0E0B406C062
:019FB5002289
:067B3000900F8D122A6582
:107B3600900C21E004F07006900C20E004F0900F09
:107B460091E0FCA3E0FDA3E0FEA3E0FF900F91E02F
:107B5600F8A3E0F9A3E0FAA3E0FB1220E9900F995D
:107B6600122A65900F95E0FCA3E0FDA3E0FEA3E0DA
:107B7600FFA804A905AA06FB1220E9900F9D122A68
:107B860065900F8DE0FCA3E0FDA3E0FEA3E0FF906F
:107B96000FA1122A65900F91E0FCA3E0FDA3E0FE81
:107BA600A3E0FF900FA5122A65900F95E0FCA3E0D5
:107BB600FDA3E0FEA3E0FF900FA9122A65900FAD8A
:107BC600122A713F800000900F8DE0FCA3E0FDA318
:107BD600E0FEA3E0FF122308900F8DE0F8A3E0F982
:107BE600A3E0FAA3E0FB1220E9900FB1122A65E4A4
:107BF600900FB5F0E4900FB6F0900FB5E075F01C5D
:107C0600A42422F582E4340CF583C083C082900F4D
:107C1600B6E0D082D08375F004122AA2C083C08257
:107C2600E0F8A3E0F9A3E0FAA3E0FBC000C001C0BE
:107C360002C003900FB6E025E025E02499F582E422
:107C4600340FF583E0FCA3E0FDA3E0FEA3E0FF9084
:107C56000FB5E025E025E02499F582E4340FF5839D
:107C6600E0F8A3E0F9A3E0FAA3E0FB1220E9D003D1
:107C7600D002D001D000121FF8D082D083122A651C
:107C8600900FB6E004F0E064076003027BFF900FFC
:0C7C9600B5E004F0E064066003027BFA35
:017CA20022BF
:10943400E490122AF0E490122BF090122AE075F0D6
:109444001CA42422F582E4340CF583C083C08290EA
:10945400122BE0D082D08375F004122AA2C083C0FC
:1094640082E0FCA3E0FDA3E0FEA3E0FFC004C0058E
:10947400C006C007900C20E0FCA3E0FDEC12231E04
:10948400A804A905AA06AB07D007D006D005D004C6
:109494001221F2D082D083122A6590122BE004F0BC
:0F94A400E0B4079690122AE004F0E064067086A8
:0194B3002296
:0E87A20090112AEEF0A3EFF0A3ECF0A3EDF09F
:1087B000A3122A7100000000E4901132F090112AF7
:1087C000A3E075F01CA42422F582E4340CF583C0E8
:1087D00083C082901132E0D082D08375F004122AD7
:1087E000A2E0FCA3E0FDA3E0FEA3E0FF90112E12A7
:1087F0002A6590112CA3E075F01CA42422F582E4D4
:10880000340CF583C083C082901132E0D082D083D3
:1088100075F004122AA2E0FCA3E0FDA3E0FEA3E0B1
:10882000FF90112AA3E075F01CA42422F582E43401
:108830000CF583C083C082901132E0D082D0837562
:10884000F004122AA2122A6590112EE0FCA3E0FD8A
:10885000A3E0FEA3E0FF90112CA3E075F01CA4247C
:1088600022F582E4340CF583C083C082901132E09B
:10887000D082D08375F004122AA2122A6590113298
:0B888000E004F0E0640760030287BD25
:01888B0022CA
:0699DB00901187122A65BD
:1099E100E490118DF090118BA3E075F01CA424225A
:1099F100F582E4340CF583C083C08290118DE0D0F0
:109A010082D08375F004122AA2C083C082E0FCA335
:109A1100E0FDA3E0FEA3E0FF901187E0F8A3E0F9E9
:109A2100A3E0FAA3E0FB1220E9D082D083122A65D9
:0A9A310090118DE004F0E0B407ABE3
:019A3B002208
:068FF800901133122A65FE
:108FFE00E490113BF0901139A3E075F01CA42422EB
:10900E00F582E4340CF583C083C08290113BE0D02E
:10901E0082D08375F004122AA2C083C082E0F8A326
:10902E00E0F9A3E0FAA3E0FBC000C001C002C00358
:10903E00901137A3E075F01CA42422F582E4340CC1
:10904E00F583C083C08290113BE0D082D08375F04F
:10905E0004122AA2E0FCA3E0FDA3E0FEA3E0FF9031
:10906E001133E0F8A3E0F9A3E0FAA3E0FB1220E944
:10907E00D003D002D001D000121FF8D082D08312BC
:10908E002A6590113BE004F0E06407600302900350
:01909E0022AF
:0891DD009011AAEEF0A3EFF0DF
:1091E500E4A3F0A3F0A3F0A3F0EF2401FFE43E9085
:1091F50011ACF0A3EFF09011ACE0FCA3E0FDC3943B
:1092050006EC6480948050689011AAE0FEA3E07893
:1092150002C333CE33CED8F9129AFBC004C005C0C1
:1092250006C0079011AAE0FCA3E0FDAE047802C3D6
:1092350033CE33CED8F9129AFBA804A905AA06ABFA
:1092450007D007D006D005D00412228F50119011F7
:10925500AAE0FEA3E0FFA3E0FCA3E0FD1287A29035
:1092650011ADE004F0708F9011ACE004F00291FBB9
:0192750022D6
:108394009011B0122A7100000000E49011B4F09022
:1083A40011B4E0FFC39406400302849A7E00129144
:1083B400DD9011B4E0FF75F01CA42422F582E434AE
:1083C4000CF58375F004EF122AA2E0FCA3E0FDA3F0
:1083D400E0FEA3E0FFE4FBFAF9F812228F70037FBA
:1083E40001229011B4E004A3F09011B5E0FFC3940E
:1083F400064003028491EF75F01CA42422F582E464
:10840400340CF583C083C0829011B4E0D082D08351
:1084140075F004122AA2E0FCA3E0FDA3E0FEA3E0B1
:10842400FF1223089011B4E075F01CA42422F582F5
:10843400E4340CF583C083C0829011B4E0D082D0C0
:108444008375F004122AA2E0F8A3E0F9A3E0FAA3EA
:10845400E0FB1221F29011B0122A659011B0E0FCF9
:10846400A3E0FDA3E0FEA3E0FFA3E0FB901137E44B
:10847400F0A3EBF09011B5E0FB901139E4F0A3EB1D
:10848400F0128FF89011B5E004F00283ED9011B46E
:08849400E004F00283A37F0065
:01849C0022BD
:109773009011C7122A7100000000E49011CBF09001
:1097830011CBE0FF75F01CA42422F582E4340CF520
:109793008375F004EF122AA2E0F8A3E0F9A3E0FA3C
:1097A300A3E0FBE4FFFE7D807C3F1221F29011C712
:1097B300122A659011C7E0FCA3E0FDA3E0FEA3E03D
:1097C300FFA3E0FB90118BE4F0A3EBF01299DB9085
:0B97D30011CBE004F0E0C3940640A4BA
:0197DE002268
:0B751B0090116FEBF0A3EAF0A3E9F081
:10752600A3122A7100000005901172E0FCA3A3E0EB
:10753600FEEC3350030276A6901172A3A3A3E0904B
:107546000C3A75F01C122AA2EE75F01CA42583F5E0
:1075560083E0FCA3E0FDA3E0FEA3E0FFC004C005BA
:10756600C006C007E47F04FEFDFC901172E0F8A39C
:10757600E0F9A3E0FAA3E0FB1228E090116FE0FB2C
:10758600A3E0FAA3E0F98F828E83D007D006D00558
:10759600D0041229E49011767405F0901172E0FC83
:1075A600A3E0FDA3E0FEA3E02401FBE43EFAE43DF4
:1075B600F9E43CF8A3E0FFE4FCFDFED312293D40CC
:1075C6000302767FE47F04FEFDFC901172E0F8A3CF
:1075D600E0F9A3E0FAA3E0FB1228E090116FE0FBCC
:1075E600A3E0FAA3E02FF9EA3EFAEB3DFBC003C0A5
:1075F60002C00112297AC004C005C006C007901156
:107606006FE0FBA3E0FAA3E0F9901176E075F004D1
:10761600A4F58285F08312299A901172A3A3E0FA49
:10762600A3E0900C2275F01C122AA2EA75F01CA4A5
:107636002583F583C083C082901176E0D082D08303
:1076460075F004122AA2E0F8A3E0F9A3E0FAA3E099
:10765600FB1220E9A804A905AA06AB07D007D006A5
:10766600D005D004121FF4D001D002D0031229CACB
:10767600901176E014F00275A1901172E0FCA3E07F
:10768600FDA3E0FEA3E0FFEF24FFFFEE34FFFEEDD7
:1076960034FFFDEC34FFFC901172122A6502752E40
:0176A60022C1
:0B5D2800900F2AEBF0A3EAF0A3E9F0D3
:105D3300A3122A7100000000900F31122A71000093
:105D43000000900F35122A7100000000900F3912E5
:105D53002A7100000000900F3D122A71000000001C
:105D6300900F41122A7100000000900F45122A7112
:105D730000000000900F49122A7100000000900FEC
:105D83004D122A7100000000900F51122A71000079
:105D93000000900F55122A7100000000900F591255
:105DA3002A7100000000129434128394EF600C7B7C
:105DB300FF7AA579F712515A7F00221297737B015C
:105DC3007A0C790812751B900C08E0FCA3E0FDA384
:105DD300E0FEA3E0FF900F2D122A65900C0CE0FC6F
:105DE300A3E0FDA3E0FEA3E0FF900F31122A65902C
:105DF3000C10E0FCA3E0FDA3E0FEA3E0FF900F3551
:105E0300122A65900C14E0FCA3E0FDA3E0FEA3E0DE
:105E1300FF900F39122A65900C18E0FCA3E0FDA354
:105E2300E0FEA3E0FF900F3D122A65900C1CE0FCFE
:105E3300A3E0FDA3E0FEA3E0FF900F41122A6590CB
:105E43000F35E0FCA3E0FDA3E0FEA3E0FF1223086F
:105E5300E4FBFAF978401221F2900F45122A65E427
:105E6300FFFEFD7C40900F2DE0F8A3E0F9A3E0FADC
:105E7300A3E0FB1220E9C004C005C006C007900FD1
:105E830039E0FCA3E0FDA3E0FEA3E0FF122308D06A
:105E930003D002D001D0001221F2900F49122A65DB
:105EA300E4FFFEFD7C40900F31E0F8A3E0F9A3E0AE
:105EB300FAA3E0FB1220E9C004C005C006C00790A6
:105EC3000F3DE0FCA3E0FDA3E0FEA3E0FF122308E7
:105ED300D003D002D001D0001221F2900F4D122A2C
:105EE30065900F49E0FCA3E0FDA3E0FEA3E0FF9073
:105EF3000F2DE0F8A3E0F9A3E0FAA3E0FB1220E9F9
:105F0300900F49E0F8A3E0F9A3E0FAA3E0FB122025
:105F1300E9C004C005C006C007900F45E0FCA3E03C
:105F2300FDA3E0FEA3E0FFA804A905AA06FB122037
:105F3300E9D003D002D001D000121FF8C004C0057D
:105F4300C006C007900F4DE0FCA3E0FDA3E0FEA355
:105F5300E0FF900F31E0F8A3E0F9A3E0FAA3E0FB40
:105F63001220E9900F4DE0F8A3E0F9A3E0FAA3E0D3
:105F7300FB1220E9D003D002D001D000121FF89009
:105F83000F41E0F8A3E0F9A3E0FAA3E0FB121FF44A
:105F9300128EA5900F51122A65900F2DE0FCA3E0FD
:105FA300FDA3E0FEA3E0FF128EA5A804A905AA069F
:105FB300AB07900F51E0FCA3E0FDA3E0FEA3E0FFDD
:105FC3001221F2900F55122A65900F31E0FCA3E0E5
:105FD300FDA3E0FEA3E0FF128EA5A804A905AA066F
:105FE300AB07900F51E0FCA3E0FDA3E0FEA3E0FFAD
:105FF3001221F2900F59122A65900F45E0FCA3E09D
:10600300FDA3E0FEA3E0FF122357900F2AE0FBA3BA
:10601300E0FAA3E0F9EE8FF0122894900F49E0FC28
:10602300A3E0FDA3E0FEA3E0FF122357900F2AE0B5
:10603300FBA3E0FAA3E0F9900002EE8FF01228B37D
:10604300900F4DE0FCA3E0FDA3E0FEA3E0FF1223CD
:1060530057900F2AE0FBA3E0FAA3E0F9900004EEC7
:106063008FF01228B3900F51E0FCA3E0FDA3E0FEF4
:10607300A3E0FF9000061229E4900F55E0FCA3E093
:10608300FDA3E0FEA3E0FF90000A1229E4900F595C
:10609300E0FCA3E0FDA3E0FEA3E0FF90000E1229C5
:0360A300E47F0196
:0160A60022D7
:102EE80041108B0341108D0641108F0041108E0157
:102EF80041108C02421090000042109600004210CF
:102F08009C00004410923F8000004410983F8000CD
:012F180000B8
:0D004600AE05AD07AF06AB077F3C02A3C1BE
:07AA0D00AD077F3C12A1F729
:01AA1400221F
:10A85C007F0A12AA0DEF644860037F00227F012259
:0B7CA30090113CEBF0A3EAF0A3E9F025
:107CAE009011917401F0A37411F0A3743FF07B0650
:107CBE007D037F3C12969790113FE0FEA3E0FDED11
:107CCE00FF90113CE0FBA3E0FAA3E0F9EE8FF01277
:107CDE002894901143E0FEA3E0FDEDFF90113CE0EF
:107CEE00FBA3E0FAA3E0F9900002EE8FF01228B3A6
:107CFE00901141E0FEA3E0FDEDFF900004EE8FF049
:107D0E001228B3122831FF901090E0FCA3E0FDC3BF
:107D1E00EF9DFFE5F09C8FF012289490113CE0FB54
:107D2E00A3E0FAA3E02402F9E43AFA122831FF9014
:107D3E001096E0FCA3E0FDC3EF9DFFE5F09C8FF0F5
:107D4E0012289490113CE0FBA3E0FAA3E02404F97E
:107D5E00E43AFA122831FF90109CE0FCA3E0FDC338
:107D6E00EF9DFFE5F09C8FF012289490113CE0FB04
:107D7E00A3E0FAA3E0F990000212285CFDACF0EC4F
:107D8E0012231E901092E0F8A3E0F9A3E0FAA3E00C
:107D9E00FB1220E912235790113CE0FBA3E0FAA35B
:107DAE00E0F9900002EE8FF01228B3900004122832
:107DBE005CFDACF0EC12231E901098E0F8A3E0F9F5
:107DCE00A3E0FAA3E0FB1220E912235790113CE046
:107DDE00FBA3E0FAA3E0F9900004EE8FF00228B3C3
:10A04000901090EEF0A3EFF0AF05901096ECF0A317
:10A05000EFF0AF0390109CEAF0A3EFF09010D7E080
:10A06000FCA3E0FDA3E0FEA3E0FF901092122A659E
:10A070009010DBE0FCA3E0FDA3E0FEA3E0FF901066
:04A0800098022A65B3
:0BA9740090108CEFF0FD7F0202004607
:109C620090123774C8F012A85CEF70107F01FE12D8
:109C7200A6C2901237E014F070ECFF2290108DE033
:109C820025E025E0FF90108BE0FEC454F04FFF90DA
:109C9200108FE04FFDE4FF12004690108EE0C433B7
:109CA20054E0FD7F0112004690108CE0FD7F02120D
:049CB20000467F01E8
:019CB600228B
:0B6B250090104BEBF0A3EAF0A3E9F0A6
:106B30001223087BE17A2E796578421221F29010B7
:106B400056122A65901052E0FCA3E0FDA3E0FEA3DC
:106B5000E0FF1223087BE17A2E796578421221F258
:106B600090105A122A6590105AE0FCA3E0FDA3E0B1
:106B7000FEA3E0FF127705C004C005C006C0079061
:106B8000104BE0FBA3E0FAA3E0F990000212285CAE
:106B9000FDACF0EC12231ED003D002D001D00012C5
:106BA00020E9C004C005C006C007901056E0FCA351
:106BB000E0FDA3E0FEA3E0FF127705D003D002D0F2
:106BC00001D0001220E9C004C005C006C007901023
:106BD00056E0FCA3E0FDA3E0FEA3E0FF1276EFC0C9
:106BE00004C005C006C00790104BE0FBA3E0FAA369
:106BF000E0F9122831FDACF0EC12231ED003D002D4
:106C0000D001D0001220E9D003D002D001D0001270
:106C10001FF8C004C005C006C00790105AE0FCA3CE
:106C2000E0FDA3E0FEA3E0FF1276EFC004C005C0C4
:106C300006C00790104BE0FBA3E0FAA3E0F9900038
:106C40000412285CFDACF0EC12231ED003D002D05D
:106C500001D0001220E9C004C005C006C007901092
:106C600056E0FCA3E0FDA3E0FEA3E0FF127705D011
:106C700003D002D001D0001220E9A804A905AA0679
:106C8000AB07D007D006D005D004121FF490105ED9
:106C9000122A6590105AE0FCA3E0FDA3E0FEA3E0F9
:106CA000FF127705C004C005C006C00790104BE076
:106CB000FBA3E0FAA3E0F990000412285CFDACF01D
:106CC000EC12231ED003D002D001D0001220E9C064
:106CD00004C005C006C00790105AE0FCA3E0FDA365
:106CE000E0FEA3E0FF1276EFC004C005C006C007B7
:106CF00090104BE0FBA3E0FAA3E0F9900002122809
:106D00005CFDACF0EC12231ED003D002D001D00009
:106D10001220E9D003D002D001D000121FF8C00425
:106D2000C005C006C00790105EE0FCA3E0FDA3E034
:106D3000FEA3E0FF901183122A65D007D006D0058C
:106D4000D004129140E4FBFA793478431220E97BB5
:106D5000D07A0F794978401221F2E4FBFA7934783D
:046D600043121FF8C3
:016D6400220C
:102F1900048F3F8000000493000000000497000024
:102F29000000049B000000000483000000000487E7
:0A2F390000000000048B00000000FF
:0DA91C00AE05AD07AF06AB077FD402A3C1A7
:07AA1500AD077FD412A1F789
:01AA1C002217
:04A1BD007B017D8025
:0DA1C100901213EDF0A3EBF0901212EFF0EE
:10A1CE0012AA15AE07901214E0FFB40108901213F4
:10A1DE00E04EFE800AEF7007901213E0F45EFE90E0
:09A1EE001212E0FFAD0602A91CEB
:0EA88C007F0F12AA15EFB46A037F01227F002E
:01A89A00229B
:08AA1D00EF4DFD7F1002A91CA2
:08AA2500EF4DFD7F1102A91C99
:0B8C90009010C2EBF0A3EAF0A3E9F0A3
:108C9B009011917401F0A37410F0A374C5F07B0CC8
:108CAB007D227FD41296979010C6E0FE9010C5E0FF
:108CBB00FDEDFF9010C2E0FBA3E0FAA3E0F99000FA
:108CCB0006EE8FF01228B39010C8E0FE9010C7E0AC
:108CDB00FDEDFF900008EE8FF01228B39010CAE064
:108CEB00FE9010C9E0FDEDFF90000AEE8FF0122808
:108CFB00B39010CCE0FE9010CBE0FDEDFFEE8FF0CB
:108D0B001228949010CEE0FE9010CDE0FDEDFF9078
:108D1B0010C2E0FBA3E0FAA3E0F9900002EE8FF0A3
:108D2B001228B39010D0E0FE9010CFE0FDEDFF9035
:088D3B000004EE8FF00228B3E2
:10A86C007B017D017F1212A1C17F327E0002A6C244
:09A9E1007B017D047F1902A1C174
:04927600AB07AA0692
:10927A00AE04AF057C007D281227CF90122CEFF0A8
:10928A00AE02AF03AD07AC06EC12231E7BDA7A0FEF
:10929A00794978401220E9E4FBFA793478431221BB
:1092AA00F2127705E4FBFA798078421220E9122358
:1092BA005790122DEFF090122CE0D394FF400374D4
:1092CA00FFF090122DE0D394FF400374FFF07DA0CD
:1092DA007F0112A91C90122CE0FD7F5012A91C904C
:1092EA00122DE0FD7F5412A91C7D207F5912A91C62
:1092FA00E4FD7F0112A91C7F1912A1BD7B017D012A
:05930A007F0B02A1C170
:10A4B0007B017D827F5812A1C17B017D8C7F591267
:10A4C000A1C17D7F7F5A12A91C7F5B12A1BD7B01B8
:07A4D0007D087F5E02A1C1BF
:109E9900901215EEF0A3EFF0A3EDF07D807F011293
:109EA900A91C7D8E7F0F12A91C901215E0FEA3E05C
:109EB900FF7C007D5012277AEF33333354F8FFA328
:109EC900E054074FFD7F1412A91CE4FD7F0112A97C
:0A9ED9001C7B017D107F1902A1C15E
:10A6F5007F4B12AA15901238EFF07F4C12AA15EF76
:08A70500FE901238E0FDEDFFAB
:01A70D002229
:10A70E007B017D027F1912A1C17F017E0012A6C2BC
:09A71E00E4FB7D027F1902A1C1D8
:09A9EA00E4FB7D107F1902A1C1FC
:109BB00090122EE4F0A374C8F07F327E0012A6C289
:109BC00012A88CEF70167F01FE12A6C290122E749E
:109BD000FFF5F012280545F070E6FF2212A86C7D13
:109BE000087F6012AA1D7D04E4FF12AA257D647C13
:109BF000007F0A7E0012927612A4B07D067F107E4E
:099C000004129E9912A9E17F01F2
:019C09002238
:0B487D00901218EBF0A3EAF0A3E9F0A2
:10488800122831FDACF0EC12231E7853122A5990ED
:104898001218E0FBA3E0FAA3E0F990000212285CEA
:1048A800FDACF0EC12231E7857122A59901218E02A
:1048B800FBA3E0FAA3E0F990000412285CFDACF039
:1048C800EC12231E785B122A59901218E0FBA3E021
:1048D800FAA3E0F990000612285CFDACF0EC122374
:1048E8001E7B397AFA798E783C1220E97B6F7A122E
:1048F800798378421221F2785F122A59901218E0CF
:10490800FBA3E0FAA3E0F990000812285CFDACF0E4
:10491800EC12231E7B397AFA798E783C1220E97BD7
:104928006F7A12798378421221F27863122A5990A9
:104938001218E0FBA3E0FAA3E0F990000A12285C41
:10494800FDACF0EC12231E7B397AFA798E783C1292
:1049580020E97B6F7A12798378421221F278671204
:104968002A597857122A08A804A905AA06AB0712DB
:1049780020E9C004C005C006C0077853122A08A859
:1049880004A905AA06AB071220E9D003D002D0017A
:10499800D000121FF8C004C005C006C007785B121B
:1049A8002A08A804A905AA06AB071220E9D003D053
:1049B80002D001D000121FF8128EA58F488E478DA5
:1049C800468C457853122A08AB48AA47A946A845F9
:1049D8001221F27853122A597857122A08AB48AA9A
:1049E80047A946A8451221F27857122A59785B122E
:1049F8002A08AB48AA47A946A8451221F2785B12B3
:104A08002A597897122A08788F122A301220E9C07A
:104A180004C005C006C007789B122A087893122A9A
:104A2800301220E9D003D002D001D000121FF4E4E4
:104A3800FBFAF978401220E9786B122A59789B1210
:104A48002A087897122A301220E9C004C005C00647
:104A5800C0077893122A08788F122A301220E9D0DA
:104A680003D002D001D000121FF8E4FBFAF9784015
:104A78001220E9786F122A597893122A087893122B
:104A88002A301220E9C004C005C006C007788F127A
:104A98002A08788F122A301220E9D003D002D001D8
:104AA800D000121FF4C004C005C006C007789712D2
:104AB8002A087897122A301220E9A804A905AA061C
:104AC800AB07D007D006D005D004121FF4C004C02D
:104AD80005C006C007789B122A08789B122A301254
:104AE80020E9D003D002D001D000121FF878731249
:104AF8002A59786F122A08785B122A301220E9C0E6
:104B080004C005C006C0077873122A087857122A0D
:104B1800301220E9D003D002D001D000121FF4785F
:104B280077122A597873122A087853122A301220D9
:104B3800E9C004C005C006C007786B122A08785B74
:104B4800122A301220E9D003D002D001D000121F5F
:104B5800F4787B122A59786B122A087857122A306F
:104B68001220E9C004C005C006C007786F122A08E1
:104B78007853122A301220E9D003D002D001D00095
:104B8800121FF4787F122A597883122A30C000C085
:104B980001C002C0037F6F7E127D837C3A78771252
:104BA8002A301220E9D003D002D001D000121FF819
:104BB8007883122A597887122A30C000C001C002AF
:104BC800C0037F6F7E127D837C3A787B122A301275
:104BD80020E9D003D002D001D000121FF878871244
:104BE8002A59788B122A30C000C001C002C0037F46
:104BF8006F7E127D837C3A787F122A301220E9D0AA
:104C080003D002D001D000121FF8788B122A597FE6
:104C1800CD7ECC7D4C7C3F7877122A301220E97803
:104C28005F122A30121FF87883122A30121FF87880
:104C38005F122A597FCD7ECC7D4C7C3F787B122A2F
:104C4800301220E97863122A30121FF87887122A66
:104C580030121FF87863122A597FCD7ECC7D4C7CA8
:104C68003F787F122A301220E97867122A30121F03
:104C7800F8788B122A30121FF87867122A59788F21
:104C8800122A30C000C001C002C0037893122A085B
:104C9800122308785F122A301220E9C004C005C028
:104CA80006C0077863122A087897122A301220E97A
:104CB800A804A905AA06AB07D007D006D005D004DA
:104CC800121FF4C004C005C006C0077867122A087E
:104CD800789B122A301220E9A804A905AA06AB0776
:104CE800D007D006D005D004121FF47B6F7A127952
:104CF80083783B1220E9D003D002D001D000121FE4
:104D0800F8788F122A597893122A30C000C001C04F
:104D180002C0037867122A087897122A301220E90D
:104D2800C004C005C006C007785F122A08788F1231
:104D38002A301220E9D003D002D001D000121FF887
:104D4800C004C005C006C0077863122A08789B1201
:104D58002A301220E9A804A905AA06AB07D007D073
:104D680006D005D004121FF47B6F7A127983783B42
:104D78001220E9D003D002D001D000121FF8789396
:104D8800122A597897122A30C000C001C002C00305
:104D98007867122A087893122A301220E9C004C0D2
:104DA80005C006C0077863122A08788F122A3012C5
:104DB80020E9D003D002D001D000121FF4C004C0F3
:104DC80005C006C007785F122A08789B122A30129D
:104DD80020E9D003D002D001D000121FF87B6F7AEF
:104DE800127983783B1220E9D003D002D001D00099
:104DF800121FF87897122A59789B122A30C000C0DF
:104E080001C002C0037863122A087893122A30126C
:104E180020E9C004C005C006C0077867122A0878D0
:104E28008F122A301220E9D003D002D001D000120C
:104E38001FF8C004C005C006C007785F122A0878AA
:104E480097122A301220E9A804A905AA06AB07D0B0
:104E580007D006D005D004121FF47B6F7A1279832D
:104E6800783B1220E9D003D002D001D000121FF8FD
:104E7800789B122A597893122A087893122A3012AA
:104E880020E9C004C005C006C007788F122A087838
:104E98008F122A301220E9D003D002D001D000129C
:104EA8001FF8C004C005C006C0077897122A087802
:104EB80097122A301220E9D003D002D001D0001274
:104EC8001FF8C004C005C006C007789B122A08A8AE
:104ED80004A905AA06AB071220E9D003D002D00125
:104EE800D000121FF8128EA58F488E478D468C452C
:104EF800788F122A08AB48AA47A946A8451221F27A
:104F0800788F122A597893122A08AB48AA47A946DB
:104F1800A8451221F27893122A597897122A08ABD9
:104F280048AA47A946A8451221F27897122A597823
:104F38009B122A08AB48AA47A946A8451221F2782D
:104F48009B122A59789B122A087893122A30122029
:104F5800E9C004C005C006C0077897122A08788FF0
:104F6800122A301220E9D003D002D001D000121F3B
:104F7800F4E4FBFAF978401220E912A1487BE17ABF
:104F88002E796578421220E9901218E0FBA3E0FA26
:104F9800A3E0F990000C1229E4789B122A0878976C
:104FA800122A301220E9C004C005C006C007789351
:104FB800122A08788F122A301220E9D003D002D0A2
:104FC80001D000121FF8E4FBFAF978401220E91228
:104FD800A1487BE17A2E796578421220E99012186F
:104FE800E0FBA3E0FAA3E0F99000101229E478931B
:104FF800122A08A804A905AA06AB071220E9C004CA
:10500800C005C006C007788F122A08A804A905AAF7
:1050180006AB071220E9D003D002D001D000121F3E
:10502800F8C004C005C006C0077897122A08A8046B
:10503800A905AA06AB071220E9A804A905AA06AB88
:1050480007D007D006D005D004121FF4C004C0054D
:10505800C006C007789B122A08A804A905AA06ABAF
:10506800071220E9A804A905AA06AB07D007D006AD
:10507800D005D004121FF4C004C005C006C00778CC
:105088009B122A08788F122A301220E9C004C00522
:10509800C006C0077897122A087893122A3012207F
:1050A800E9A804A905AA06AB07D007D006D005D001
:1050B80004121FF8E4FBFAF978401220E9D003D073
:1050C80002D001D0001221F2127F397BE17A2E79C9
:1050D8006578421220E9901218E0FBA3E0FAA3E0F9
:0750E800F99000140229E415
:0A2F4300430EF10000EF410EA00064
:07AA3C0075DE2F75BC8F22AF
:10A67200EF4480F5BC75BC400000E5BC30E5FB53FF
:0AA68200BCDFAFBDEFFEADBDEDFF84
:01A68C0022AB
:06AA4900EF24FF92C02281
:0DA92900EF60044391802253917FC297227A
:108A3B00901177122A7100000000E490117BF0A3D3
:108A4B00F0A3F0A3F07F0F12A6727F0F12A672E4B1
:108A5B0090117BF0A3F0901177E0F8A3E0F9A3E07D
:108A6B00FAA3E0FB7F0F12A672EE3395E0FDFCEB51
:108A7B002FFFEA3EFEE93DFDE83CFC901177122A00
:108A8B006590117CE004F0700690117BE004F0C35C
:108A9B0090117CE0944090117BE06480948040B610
:108AAB00901177E0FCA3E0FDA3E0FEA3E0FF7806C6
:108ABB00122953901177122A65900EF1E0FBA3E077
:108ACB00FAA3E0F9122831FFAEF0EE3395E0FDFC8E
:108ADB00E47BFF7A0FF9F81228E0901177E0F8A306
:108AEB00E0F9A3E0FAA3E0FB12A0C890117DEEF031
:108AFB00A3EFF0FDAC06EC12231EE4FBFA797A78B7
:048B0B00441221F2FD
:018B0F002243
:10782F00901145122A7100000000E490114DF012E2
:10783F008A3B7B9A7A99795978C0121FF87B487ADC
:10784F00E1793A783F1221F2901149122A65E4FF4B
:10785F00FE7D807C3F901149E0F8A3E0F9A3E0FAA8
:10786F00A3E0FB12228F600E400C901149122A7177
:10787F003F8000008022E4FFFEFDFC901149E0F8FC
:10788F00A3E0F9A3E0FAA3E0FB12228F500A9011B4
:10789F0049122A7100000000900EA0E0703804F029
:1078AF00E490114DF090114DE0FBC39414502790CC
:1078BF001149E0FCA3E0FDA3E0FEA3E0FFEB25E010
:1078CF0025E024A1F582E4340EF583122A65901188
:1078DF004DE004F080CF90114D7413F090114DE0F6
:1078EF00FBD394004057EB25E025E0249DF582E47F
:1078FF00340EF583E0FCA3E0FDA3E0FEA3E0FF90D0
:10790F000EA5122A65901145E0FCA3E0FDA3E0FE51
:10791F00A3E0FFEB25E025E024A1F582E4340EF58A
:10792F0083E0F8A3E0F9A3E0FAA3E0FB121FF890BD
:10793F001145122A6590114DE014F0809F9011456A
:10794F00E0FCA3E0FDA3E0FEA3E0FFA3E0F8A3E0CB
:10795F00F9A3E0FAA3E0FB121FF8901145122A6574
:10796F00E4FBFA79A07841901145E0FCA3E0FDA378
:10797F00E0FEA3E0FF1221F2901149122A65901147
:10798F0049E0FCA3E0FDA3E0FEA3E0FF900EA112EF
:10799F002A65901149E0FCA3E0FDA3E0FEA3E0FF00
:0179AF0022B5
:10001600901239E590F0E4F580F59075923075917F
:10002600B0759601F59575B08475C099F5C8C2A9E5
:0B00360053AFFE53AFDF7587020000E0
:01004100229C
:10A39600AF90E4F580F5907592307591B075A00197
:10A3A600F596F59575B084F5C0F5C8C2A953AFFE0C
:0AA3B60053AFDF75870200008F909F
:01A3C000227A
:0CA95C0012A36AD2A943AF0143AF20222E
:10A7E50043BA8090FE8074D0F090FE82E4F053BAB4
:02A7F5007F22C1
:10A59100754D01754E2C90FE82E020E60DE54E15BD
:10A5A1004E7002154D14454D70EC90FE82E054BF83
:02A5B100F02296
:08A83B00EDF0EBA3F043BA803D
:09A8430090FE817401F002A59160
:10A5B3009011D2E0FBA3E0FAA3E0F9A3E0F58275E2
:09A5C3008300EF12275812A8AA28
:09A5CC0090FE817406F002A591D5
:0EA8F20090FE86EFF090FE817402F002A591B8
:0FA89B0090FE817404F012A59190FE87E0FF22D9
:09A9F30090FE817403F002A591AD
:0EA9000090FE82E4F090FE817405F002A591B5
:0FA8AA0090FE827401F090FE817405F002A5917A
:10A3C10090123012A83B12000012A9F3901230E053
:10A3D100FF12000012A9F3901231E0FF12000012E7
:09A3E100A9F312A5CC53BA7F22A6
:06A1F700901232EFF0EDC2
:10A1FD0012A83E901232E0FF12000012A9F3901245
:10A20D0033E0FF12000012A9F312A843901232E0BE
:10A21D00FF12000012A9F312000012A8AA12A5CC79
:03A22D0053BA7FA2
:01A23000220B
:0E9D0C009011CCEDF0A3EBF0A3EAF0A3E9F088
:109D1A00E412A83E12000012A9F3E49011D0F090C8
:109D2A0011CCE0FF9011D0E0FEC39F50229011CDDC
:109D3A00E0FBA3E0FAA3E0F98E827583001226E61F
:109D4A00FF12000012A9F39011D0E004F080D012A3
:059D5A00A5CC53BA7F07
:019D5F0022E1
:0DA084009011D1EDF0A3EBF0A3EAF0A3E9F9
:10A0910012A83FEF04FF12000012A9F3E49011D5BA
:10A0A100F09011D1E014FF9011D5E0C39F500E1232
:10A0B100000012A5B39011D5E004F080E412000075
:06A0C10012A5B353BA7FA3
:01A0C7002276
:0696970090118EEFF0A31C
:10969D0012A83B90118EE0FF12000012A9F3901159
:1096AD008FE0FF12000012A9F312A84390118EE073
:1096BD0004FF120000E4901194F0901190E014FF5B
:1096CD00901194E0C39F5024120000901191E0FB83
:1096DD00A3E0FAA3E0F9A3E0F582758300EF12276A
:1096ED005812A900901194E004F080CE1200009061
:0896FD00119112A5B653BA7FCA
:019705002241
:102F4D0060750E2B0A0532000000081E01010001FC
:102F5D0042C23333000000000000000000000000FA
:102F6D0000003F8000003F800000000000000000D6
:102F7D000000000000000000000000000000000044
:102F8D000000000000000000000000000000000034
:102F9D000000000000000000000000000000000024
:102FAD000000000000000000000000000000000014
:092FBD000000000000000000000B
:10A36A00E4F580F594F593F590F59275913075A022
:10A37A00B8759640F59575B034F5B2F5B175C01853
:0CA38A00F5B4F5B375C830F5CAF5C9226A
:0DA93600438904E4F58AF58CC28CD2A92275
:10A87C0043D10275D54075D4A243D10843AF2022F1
:10A72700759850438E40538EFE53890F758BCC75A9
:09A737008DFFC2ABD28ED2992233
:10A7C000759A50438E0475D78F75D6FD438E10430E
:03A7D000A80122BB
:0CA96800D288D2A8D28AD2AA438F102233
:04000E0075C7602230
:0400560075C1272227
:04009E0043C1102228
:0B9622009011D6EBF0A3EAF0A3E9F0F2
:10962D00E4FFA3F0A3F09011D6E0FBA3E0FAA3E0D2
:10963D00F98F827583001226E6FD9011DAE02DF088
:10964D009011D9E03400F00FEFB473DA9011D9E036
:10965D00FEA3E0FF9011D6E0FBA3E0FAA3E0F990A2
:10966D000073EE8FF01228B37F807E0112A4FE905E
:10967D0011D6E0FBA3E0FAA3E0F99011A1E4F0A369
:0A968D007475F07F807E01029FFBE0
:0B8DF2009011B6EBF0A3EAF0A3E9F04B
:108DFD00E4A3F0A3F0A3F090119AF0A37475F07FA3
:108E0D00807E01129FB69011B9E0FFC39473502973
:108E1D009011B6E0FBA3E0FAA3E0F98F8275830011
:108E2D001226E6FF9011BBE02FF09011BAE034004E
:108E3D00F09011B9E004F080CD9011B6E0FBA3E005
:108E4D00FAA3E0F990007312285CFF9011BAE0B517
:108E5D00F008A3E0B507037F0122E49011B9F0906B
:108E6D0011B9E0FF7C007B01242BF9EC340EFA12D2
:108E7D0026CDFE9011B6E0FBA3E0FAA3E0F98F82B8
:108E8D00758300EE1227589011B9E004F0E0B47527
:038E9D00CE7F0085
:018EA00022AF
:08AA2D00EF640124FF92B52241
:10A30C0012A36A12A72712A7C012A93612A87C1290
:10A31C00A96812A7E51200567B017A0D7935128DCA
:10A32C00F27F0112AA2D7F057E0012A6C2D2AF22A7
:0EA90E00E4F5C7F5C5F5C675C3FF75C4FF2295
:109FB600AD07AC06A2AF92D5C2AF75C78075C50115
:109FC600ECF5C3AF058FC475C65A75C6A500E5C2C4
:109FD6001227460DBD00010C740129F9E43AFA90E6
:109FE600119A74FFF5F012280545F070D312A90EE8
:059FF600A2D592AF228C
:10A4FE00AD07AC06A2AF92D5ECF5C3AF058FC47510
:10A50E00C78075C50375C65A75C6A50012A90EE596
:06A51E008024FF92AF2231
:109FFB00AD07AC06A2AF92D5C2AF75C78075C502CF
:10A00B00ECF5C3AF058FC41226CDF5C275C65A75D4
:10A01B00C6A5000DBD00010C740129F9E43AFA90B4
:10A02B0011A174FFF5F012280545F070D312A90E9B
:05A03B00A2D592AF2246
:0B2FC600C11D41121B0042121C000044
:10A26A0043BA8090FFF2E4F090FFF07417F0A37401
:10A27A0070F090FF647480F090FF60E4F0A3F0A3A4
:10A28A00740BF0A374B8F053BA7F43D12075D3404E
:09A29A0075D2A243AF40C21D229F
:10A7810043BA80EFB4010543FE80800553FE7FC2CA
:05A79100A653BA7F226F
:0300A30002930FB6
:10930F00C0E0C0F0C083C082C0D075D00853EFFB5F
:10931F0090121BE0FE7019A3E07004A3E064C87004
:10932F006D90121CF0A3F0FF12A78153D17F805EC6
:10933F00EE6401705990121CE0FEA3E0FFC3945835
:10934F00EE940250367C007D6412277AED4C702B20
:10935F0090121CE0FEA3E0FF7C007D6412277AEFE1
:10936F0054016401FF12A78190121CE0FEA3E0FFDD
:10937F007C007D6412277AEF1392A090121CE0B448
:10938F00030CA3E0B4E80790121CE4F0A3F0D0D0D4
:09939F00D082D083D0F0D0E0327E
:10A79600E490121BF0A3F0A3F0301D087F0112A76E
:05A7A6008143D1802277
:0FA8B90090121B7401F0E4A3F0A3F043D18022AE
:09A9FC00EF6003D21D22C21D22EE
:10A6C200D3EF9400EE94004010007D207C28DCFE45
:09A6D200DDFCEF1F70EA1E80E7B9
:01A6DB00225C
:10A7AB00D3EF9400EE9400400B7D06DDFEEF1F709F
:04A7BB00EF1E80EC21
:01A7BF002277
:103C33000000000000000000002F0000000007004B
:103C4300070000147F147F1400242A7F2A12002304
:103C53001308646200364955225000000503000032
:103C630000001C224100000041221C000014083EF9
:103C730008140008083E0808000000A060000008BF
:103C83000808080800006060000000201008040213
:103C9300003E5149453E0000427F400000426151D1
:103CA3004946002141454B31001814127F1000276B
:103CB30045454539003C4A4949300001710905032E
:103CC30000364949493600064949291E000036365F
:103CD30000000000563600000008142241000014C2
:103CE300141414140000412214080002015109069F
:103CF30000324959513E007C1211127C007F494920
:103D03004936003E41414122007F4141221C007F50
:103D130049494941007F09090901003E4149497A5E
:103D2300007F0808087F0000417F410000204041D8
:103D33003F01007F08142241007F40404040007F44
:103D4300020C027F007F0408107F003E4141413E88
:103D5300007F09090906003E4151215E007F0919D0
:103D630029460046494949310001017F0101003FCD
:103D73004040403F001F2040201F003F4038403F4D
:103D830000631408146300070870080700615149B1
:103D9300454300007F41410000552A552A55000044
:103DA30041417F00000402010204004040404040C2
:103DB300000001020400002054545478007F48445A
:103DC300443800384444442000384444487F003891
:103DD3005454541800087E0901020018A4A4A47CBA
:103DE300007F080404780000447D40000040808484
:103DF3007D00007F102844000000417F4000007CCC
:103E030004180478007C08040478003844444438D7
:103E130000FC242424180018242418FC007C080423
:103E2300040800485454542000043F444020003CFC
:103E33004040207C001C2040201C003C4030403C83
:103E4300004428102844001CA0A0A07C0044645413
:103E53004C44141414141414000000000000000057
:103E6300000000000000000000000000000000004F
:103E730000000000000000000000000000F8000047
:103E83000000000000333000000000100C06100C8E
:103E93000600000000000000000040C07840C07829
:103EA3004000043F04043F040400007088FC083011
:103EB3000000001820FF211E0000F008F000E018A9
:103EC300000000211C031E211E0000F00888700062
:103ED30000001E2123241927211010160E000000B4
:103EE30000000000000000000000000000E01804D3
:103EF3000200000000071820400000020418E00040
:103F030000000040201807000000404080F080407F
:103F130040000202010F01020200000000F0000055
:103F230000000101011F0101010000000000000069
:103F3300000080B0700000000000000000000000DE
:103F43000000000101010101010100000000000067
:103F5300000000303000000000000000000080601E
:103F63001804006018060100000000E010080810A3
:103F7300E000000F102020100F00001010F80000C8
:103F830000000020203F202000000070080808885F
:103F9300700000302824222130000030088888482F
:103FA30030000018202020110E000000C02010F85F
:103FB300000000070424243F240000F80888880830
:103FC30008000019212020110E0000E01088881835
:103FD3000000000F112020110E0000380808C83817
:103FE30008000000003F00000000007088080888F7
:103FF3007000001C222121221C0000E01008081080
:10400300E0000000312222110F00000000C0C000B8
:1040130000000000003030000000000000800000BD
:1040230000000000806000000000000080402010BD
:1040330008000001020408102000404040404040B6
:104043004000040404040404040000081020408019
:10405300000000201008040201000070480808084E
:10406300F0000000003036010000C030C828E8101E
:10407300E0000718272423140B000000C038E000D9
:104083000000203C23020227382008F88888887023
:104093000000203F202020110E00C030080808082F
:1040A3003800071820202010080008F80808081016
:1040B300E000203F202020100F0008F88888E8083F
:1040C3001000203F20202320180008F88888E808E3
:1040D3001000203F200003000000C030080808380B
:1040E300000007182020221E020008F8080000081C
:1040F300F808203F210101213F20000808F80808A3
:1041030000000020203F2020000000000808F808DD
:104113000800C08080807F00000008F888C028184D
:104123000800203F20012638200008F8080000007E
:104133000000203F20202020300008F8F800F8F885
:104143000800203F003F003F200008F830C000086F
:10415300F808203F200007183F00E0100808081067
:10416300E0000F10202020100F0008F808080808AE
:10417300F000203F210101010000E01008080810B1
:10418300E0000F18242438504F0008F888888888E6
:104193007000203F2000030C3020007088080808BE
:1041A30038000038202121221C00180808F80808CC
:1041B30018000000203F2000000008F80800000855
:1041C300F808001F202020201F000878880000C85E
:1041D3003808000007380E010000F80800F800084E
:1041E300F800033C0700073C030008186880806858
:1041F300180820302C03032C30200838C800C83896
:1042030008000000203F2000000010080808C838FC
:1042130008002038262120201800000000FE02029A
:1042230002000000007F40404000000C30C000004E
:104233000000000000010638C00000020202FE0078
:104243000000004040407F00000000000402020222
:104253000400000000000000000000000000000057
:104263000000808080808080808000020204000043
:10427300000000000000000000000000808080803B
:1042830000000019242222223F2008F80080800029
:104293000000003F112020110E00000000808080EC
:1042A3000000000E112020201100000000808088F3
:1042B300F800000E112020103F2000008080808035
:1042C3000000001F222222221300008080F0888831
:1042D30088180020203F202000000000808080807C
:1042E3008000006B94949493600008F800808080B1
:1042F3000000203F210000203F200080989800000C
:1043030000000020203F202000000000008098983B
:10431300000000C08080807F000008F800008080DB
:104323008000203F24022D302000000808F8000000
:1043330000000020203F20200000808080808080BB
:104343008000203F20003F20003F8080008080804D
:104353000000203F210000203F200000808080805B
:104363000000001F202020201F008080008080008C
:10437300000080FFA12020110E000000008080803B
:104383008000000E112020A0FF80808080008080AC
:10439300800020203F2120000100000080808080D9
:1043A30080000033242424241900008080E08080CE
:1043B30000000000001F202000008080000000801B
:1043C3008000001F202020103F208080800000807C
:1043D300808000010E30080601008080008000808C
:1043E30080800F300C030C300F0000808000808031
:1043F30080000020312E0E3120008080800000805C
:10440300808080818E70180601000080808080800B
:1044130080000021302C2221300000000000807C2D
:10442300020200000000003F404000000000FF00C7
:10443300000000000000FF0000000002027C80007A
:1044430000000040403F000000000006010102029E
:10445300040400000000000000000000E0F8FCFE7F
:10446300FEFEFEFEFCF8E0000000E0FFFFFFFF1F82
:104473000301031FFFFFFFFFE000FFFFFFFFFF003C
:1044830000000000FFFFFFFFFF00FFFFFFFFFF0033
:1044930000000000FFFFFFFFFF0007FFFFFFFFF823
:1044A300C080C0F8FFFFFFFF07000000071F3F7F2A
:1044B3007F7F7F7F3F1F070000000000000080C058
:1044C300FCFCFCFCFC000000000000007F7F7F7F01
:1044D300FFFFFFFFFF0000000000000000000000DE
:1044E300FFFFFFFFFF0000000000000000000000CE
:1044F300FFFFFFFFFF00000000000000C0C0C0C0BE
:10450300FFFFFFFFFFC0C0C0C00000003F3F3F3FB1
:104513003F3F3F3F3F3F3F3F3F0000F8F8FCFEFE79
:10452300FEFEFEFCFCF8E0000000001F0F07030383
:1045330003070FFFFFFFFFFF000000000000000064
:104543000000E0FFFFFFFF1F00000000000000C0AD
:10455300F8FEFFFF7F0F0100000000C0F0FCFFFF2B
:10456300FFDFC7C1C0C0C0C0C000003F3F3F3F3FE7
:104573003F3F3F3F3F3F3F3F3F0000F8F8FCFEFE19
:10458300FEFEFEFEFCF8F0800000001F0F07030391
:10459300030307FFFFFFFFFF000000000000F8F820
:1045A300F8FCFEFFFFBF0F0100000000000007073B
:1045B30007070F1FFFFFFFFEF000F8F0E0E0C0C0A9
:1045C300C0C0E0F0FFFFFFFF3F001F1F3F3F7F7FA3
:1045D3007F7F7F3F3F1F0F030000000000000000AC
:1045E300C0F8FCFCFCFCFC00000000000000E0FC48
:1045F300FF7FFFFFFFFFFF0000000080F0FFFF3F92
:104603000300FFFFFFFFFF000000FCFFFFFFF1F0CF
:10461300F0F0FFFFFFFFFFF0F0F00F0F0F0F0F0F92
:104623000F0FFFFFFFFFFF0F0F0F00000000000041
:1046330000003F3F3F3F3F0000000000FCFCFCFC4C
:10464300FCFCFCFCFCFCFCFC00000000FFFFFFFF8B
:10465300FF0303030303030300000000FFFFFFFF47
:10466300FFFCFCFCFCF8F0C000000000070703039C
:104673000303070FFFFFFFFFFE0000F8F0E0C0C0D9
:10468300C0C0E0F8FFFFFFFF3F00001F3F3F7F7FF9
:104693007F7F7F7F3F1F0F010000000080E0F0F865
:1046A300FCFEFEFEFEFEFC00000000F8FFFFFFFF25
:1046B3000F030101010103000000FFFFFFFFFFF8EB
:1046C300FCFEFEFEFEFCF8E00000FFFFFFFFFF0321
:1046D30001010307FFFFFFFFFF0007FFFFFFFFF8D5
:1046E300C08080E0FFFFFFFF3F000000071F3F3F48
:1046F3007F7F7F7F3F1F0F010000FCFCFCFCFCFC65
:10470300FCFCFCFCFCFCFCFCFC00030303030303B8
:104713000303C3FFFFFFFFFF1F00000000000000B3
:10472300C0FCFFFFFFFF1F0100000000000080F836
:10473300FFFFFFFF3F0300000000000000F8FFFF42
:10474300FFFF7F0300000000000000303F3F3F3FBA
:104753003F0700000000000000000000E0F8FCFC40
:10476300FEFEFEFEFCFCF8E0800000FFFFFFFFFF03
:1047730003010103FFFFFFFFFF0000073FFFFFFFF0
:10478300FFFCF8FCFFFF1F070000E0FCFEFFFF0F2C
:10479300070F1F3FFFFFFFFEF0007FFFFFFFFFE05C
:1047A300C08080E0FFFFFFFF7F0000070F1F3F7FF8
:1047B3007F7F7F7F3F1F0F0300000080E0F8FCFE38
:1047C300FEFEFEFEFCF8E0800000F8FFFFFFFF0F97
:1047D3000101030FFFFFFFFFF000FFFFFFFFFFE0FB
:1047E300C08080C0FFFFFFFFFF0000071F3F7F7FE8
:1047F3007F7F3F1FFFFFFFFF7F000000C08080809F
:1048030080C0F0FFFFFFFF1F000000007F7F7F7F5E
:104813007F7F3F1F0F070000000000000000000023
:10482300000000000000000000000000000000FF86
:10483300FFFFFFFF00000000000000000000000F6A
:104843000F0F0F0F0000000000000000000000E049
:10485300E0E0E0E00000000000000000000000FFD6
:10486300FFFFFFFF00000000000000000000000148
:0A4873000101010100000000000037
:102FD1006400000800000000000000000000000084
:102FE10000000000000000000000000000000000E0
:102FF10000000000000000000000000000000000D0
:1030010000000000000000000000000000000000BF
:1030110000000000000000000000000000000000AF
:1033D100000000006400040800000000000000007C
:1033E10000000000000000000000000000000000DC
:1033F10000000000000000000000000000000000CC
:1034010000000000000000000000000000000000BB
:1034110000000000000000000000000000000000AB
:1037D1000000000000000000640008080000000074
:1037E10000000000000000000000000000000000D8
:1037F10000000000000000000000000000000000C8
:1038010000000000000000000000000000000000B7
:1038110000000000000000000000000000000000A7
:103BD1000000000000000000000000004800000B91
:073BE1000B0B0B0B0B0B0B90
:109D600090121EEBF0A3EAF0A3E9F012909F90127C
:109D70001EE0FBA3E0FAA3E0F99000021226E6FF42
:109D800012A97F90121EE0FBA3E0FAA3E0F9900075
:109D9000041226E6FF12A74090121EE0FBA3E0FA91
:109DA000A3E0F99000031226E6FF12AA527F0102F7
:029DB000A9BC4C
:0B7155009010F8EFF0A3EDF0A3EBF0BA
:10716000A3E0131313541F752600F527901102E0B6
:107170006003027208F524AF247E00C3EF9527EE6A
:10718000952640030272AB9010F9E02FFFEE33FE1C
:10719000EF7807C333CE33CED8F9FF9010F8E07CF8
:1071A000002FF529EC3EF5289010FAE0FFE5248F3A
:1071B000F0A485F02AF52BE4F5259010FAE0FFE520
:1071C00025C39F503EAF257E00E52B2FFDEE352ACF
:1071D000FC9010FCE0FBA3E0FAA3E0F98D828C8325
:1071E0001226E6FDE5292FFFEE3528FE9010FFE080
:1071F000FBA3E0FAA3E0F98F828E83ED12275805F6
:107200002580B70524027177E4F524AF247E00C3FE
:10721000EF9527EE952640030272AB9010F9E02F10
:10722000FFEE33FEEF7807C333CE33CED8F9FF90AD
:1072300010F8E07C002FF529EC3EF5289010FAE0DC
:10724000FFE5248FF0A485F02AF52BE4F5259010B6
:10725000FAE0FFE525C39F504DAF257E00E5292FBD
:10726000FDEE3528FC9010FFE0FBA3E0FAA3E02D33
:10727000F9EA3CFAC003C002C0011226CDFDE52B9D
:107280002FFFEE352AFE9010FCE0FBA3E0FAA3E00E
:10729000F98F828E831226E64DD001D002D00312E0
:1072A0002746052580A8052402720BE4F524AF24A7
:1072B0007E00C3EF9527EE9526400302733F9010A2
:1072C000F9E02FFFEE33FEEF7807C333CE33CED88D
:1072D000F9FF9010F8E07C002FF529EC3EF528909E
:1072E00010FAE0FFE5248FF0A485F02AF52BE4F5F1
:1072F000259010FAE0FFE525C39F503EAF257E00A4
:10730000E52B2FFDEE352AFC9010FCE0FBA3E0FA04
:10731000A3E0F98D828C831226E6FDE5292FFFEE8E
:107320003528FE9010FFE0FBA3E0FAA3E0F98F827E
:0F7330008E83ED122758052580B705240272AE13
:01733F00222B
:06A10C007B017A087908CE
:0BA11200901221EBF0A3EAF0A3E9F0AB
:10A11D00E4F54FF550901221E0FBA3E0FAA3E0F92E
:10A12D00855082854F83E41227580550E550700203
:0AA13D00054FB400E0E54FB404DB69
:01A1470022F5
:0B94B4009011A3EFF0A3EDF0A3EBF08C
:1094BF00A3E0131313541F751C00F51DE4F51AAF29
:1094CF001A7E00C3EF951DEE951C50559011A4E028
:1094DF002FFFEE33FEEF7807C333CE33CED8F9FF2D
:1094EF009011A3E07C002FF51FEC3EF51EE4F51B59
:1094FF009011A5E0FFE51BC39F50227E00E51F25BD
:10950F001BFFEE351EFE9011A7E0FBA3E0FAA3E0D0
:10951F00F98F828E83E4122758051B80D3051A809A
:01952F009E9D
:019530002218
:10A2DA00E4F551F55274082552F58274003551F5AA
:10A2EA0083E0FF74082552F58274043551F583EF33
:10A2FA00F00552E55270020551B400D9E551B40493
:01A30A00D47E
:01A30B00222F
:03AA4F00029E4F15
:0A9A3C009011E7EFF09011E9EBF054
:109A4600AF058F499011EAE0FFE549C39F50479063
:109A560011E7E0FFAD4912A636E54975F080A48509
:109A6600F04BF54CE4F54A9011E9E0FFE54AC39F57
:109A760050207E00E54C254AFFEE354BFE74082F3C
:109A8600F58274003EF583E0FF7D0112A6B2054A19
:069A960080D5054980AEF9
:019A9C0022A7
:0E5572009011EBEBF0A3EAF0A3E9F0A3EDF04B
:105580006003025684F52CE4F52DE52D75F080A41A
:1055900085F030F5312480F533E43530F53285304F
:1055A0002E85312FC3E52F9533E52E9532503E746D
:1055B00088252FF5827400352EF583E0C4333354EB
:1055C000C0FF7408252FF5827400352EF583E01393
:1055D00013543F4FFF7408252FF5827400352EF5C4
:1055E00083EFF0052FE52F70BB052E80B7052DE565
:1055F0002DB40796E52C1313543F75F080A485F065
:1056000030F531E52C540375F002A4FFAEF0C374FD
:10561000069FF533E49EF532E4F52D7E00E5312555
:105620002DFFEE3530FE9011EBE0FBA3E0FAA3E096
:10563000F98F828E831226E6FFAE33A80608800219
:10564000C333D8FC54C0FF7488252DF582E434039D
:10565000F583E0FE1313543F4FFF7488252DF58228
:10566000E43403F583EFF0052DE52DB480AD7B0127
:105670007A007908129E4F052CE52CC39420500324
:10568000025587229011EEE0640160030257ABF5EA
:105690002CE4F52DC37407952DFFE49400FEEF78FC
:1056A00007C333CE33CED8F9F5318E302480F533AD
:1056B000E43530F53285302E85312FC3E52F953313
:1056C000E52E9532503E7408252FF5827400352E54
:1056D000F583E025E025E0FF7488252FF58274FF2F
:1056E000352EF583E0C4131354034FFF7408252FA0
:1056F000F5827400352EF583EFF0052FE52F70BB92
:10570000052E80B7052DE52D64077088E52C131351
:10571000543FFFC374079FFFE49400FEEF7807C374
:1057200033CE33CED8F9F5318E30E52C540375F0F5
:1057300002A4FFAEF0C374069FF533E49EF532E495
:10574000F52D7E00E531252DFFEE3530FE9011EB75
:10575000E0FBA3E0FAA3E0F98F828E831226E6FF36
:10576000AE33A806088002C313D8FC5403FF7408A4
:10577000252DF582E43400F583E0FE25E025E04F99
:10578000FF7408252DF582E43400F583EFF0052D34
:10579000E52DB480AD7B017A007908129E4F052C6F
:1057A000E52CC394205003025691229011EEE06440
:1057B000026003025890F52CE4F52DE52D75F0807C
:1057C000A485F030F531247EF533E43530F53285AB
:1057D000302E85312FC3E52F9533E52E9532502697
:1057E000740A252FF5827400352EF583E0FF7408C6
:1057F000252FF5827400352EF583EFF0052FE52F68
:1058000070D3052E80CF9011EBE0FBA3E0FAA3E06C
:10581000F975F002E52CA42531F582E5F03530F577
:10582000831226E6FF74082533F58274003532F5BD
:1058300083EFF0E5312401FFE43530FE75F002E539
:105840002CA42FF582E5F03EF583C083C082901131
:10585000EBE0FBA3E0FAA3E0F9D082D0831226E6C6
:10586000FF74092533F58274003532F583EFF005B6
:105870002DE52D640860030257BB7B017A0079088F
:10588000129E4F052CE52CC3944050030257B822BA
:105890009011EEE06403600302596EF52CE4F52DDF
:1058A000E52D75F080A485F030F531247FF533E4E3
:1058B0003530F532F52E85332FD3E52F9531E52E92
:1058C000953040267406252FF5827400352EF58319
:1058D000E0FF7408252FF5827400352EF583EFF074
:1058E000E52F152F70D3152E80CFE52C75F002A46F
:1058F000FFE531247FCDE43530CDC39FFFED95F03A
:10590000FE9011EBE0FBA3E0FAA3E0F98F828E8317
:105910001226E6FF74092531F58274003530F583CF
:10592000EFF0E52C75F002A4FFE531247ECDE435DF
:1059300030CDC39FFFED95F08F82F5831226E6FFF1
:1059400074082531F58274003530F583EFF0052DAC
:10595000E52D640860030258A07B017A00790812E3
:0E5960009E4F052CE52CC39440500302589D29
:01596E002216
:0E7DEE009011EFEBF0A3EAF0A3E9F0A3EDF0A3
:107DFC00E4F5349011F2E0FFE534C39F4003027FB9
:107E0C0018E4F535C374079535FFE49400FEEF785C
:107E1C0007C333CE33CED8F9F5398E382480F53BF1
:107E2C00E43538F53A853836853937C3E537953B2F
:107E3C00E536953A503D74082537F5827400353691
:107E4C00F583E025E0FF74882537F58274FF35361D
:107E5C00F583E0C413131354014FFF74082537F551
:107E6C008274003536F583EFF00537E53770BC05C5
:107E7C003680B80535E53564077089E5341313137E
:107E8C00541FFFC374079FFFE49400FEEF7807C3F1
:107E9C0033CE33CED8F9F5398E38E5345407FFC3D9
:107EAC0074079FF53BE49400F53AE4F5357E00E564
:107EBC00392535FFEE3538FE9011EFE0FBA3E0FAE3
:107ECC00A3E0F98F828E831226E6FFAE3BA806084C
:107EDC008002C313D8FC5401FF74082535F582E4E5
:107EEC003400F583E0FE25E04FFF74082535F5825C
:107EFC00E43400F583EFF00535E535B480AF7B0154
:0C7F0C007A007908129E4F0534027DFFB8
:017F18002246
:0AA9BC00EF600302A7F712A9502272
:0BA97F00EFD394FF40027FFF02A8C846
:10A74000EF60097F0112A8087F018007E4FF12A8CB
:07A7500008E4FF12A8192222
:03AA520002A82A2D
:10666900EF75F00A849010BAF0EF75F00A84A3E58B
:10667900F0F0A3740AF0ED75F00A84A3F0ED75F05B
:106689000A84A3E5F0F0A3740AF0EB75F00A84A379
:10669900F0EB75F00A84A3E5F0F09010B07407F000
:1066A9009010B0E0FFC36480948050030268D2EF79
:1066B9003395E0FE74002FF58274003EF583E0FD0A
:1066C90074BA2FF58274103EF583E06D7003026889
:1066D900A8E49010B1F0E4FBEB2401FFE433FEEFF2
:1066E9007807C333CE33CED8F9FDAC069010B0E0AD
:1066F900FF3395E0FEEFC4F8540FC868FFEEC454A9
:10670900F048FEED2FFFEC3E9010B4F0A3EFF090AF
:1067190010B4E0FCA3E0FD2410FEE43CA3F0A3CEFA
:10672900F09010B2ECF0A3EDF09010B6E0FEA3E00B
:10673900FF9010B2E0FCA3E0FDC39FEC9E504C74A7
:10674900882DF58274003CF583E0FE74082DF582EE
:1067590074003CF583E0FDEDFF9010B8EEF0A3EF77
:10676900F09010B8E0C313A3E013FF9010B2A3E0B8
:106779002408F58274003CF583EFF09010B3E0042F
:10678900F070069010B2E004F0809E0BEB64056097
:10679900030266E1EB2401FFE433FEEF7807C3331C
:1067A900CE33CED8F9FDAC069010B0E0FF3395E0BA
:1067B900FEEFC4F8540FC868FFEEC454F048FEED6C
:1067C9002FFFEC3E9010B4F0A3EFF09010B1E0FD74
:1067D900131313541F75F010A4FF9010B6E5F0F0D1
:1067E900A3EFF0ED5407FFC374079FF9E49010B2CB
:1067F900F0A3F09010B2E0FEA3E0FF9010B7E02FF5
